{
  "contractName": "ApprovedTransfer",
  "abi": [
    {
      "constant": false,
      "inputs": [
        {
          "name": "_wallet",
          "type": "address"
        }
      ],
      "name": "init",
      "outputs": [],
      "payable": false,
      "stateMutability": "nonpayable",
      "type": "function"
    },
    {
      "constant": true,
      "inputs": [
        {
          "name": "_wallet",
          "type": "address"
        }
      ],
      "name": "getNonce",
      "outputs": [
        {
          "name": "nonce",
          "type": "uint256"
        }
      ],
      "payable": false,
      "stateMutability": "view",
      "type": "function"
    },
    {
      "constant": false,
      "inputs": [
        {
          "name": "_wallet",
          "type": "address"
        },
        {
          "name": "_module",
          "type": "address"
        }
      ],
      "name": "addModule",
      "outputs": [],
      "payable": false,
      "stateMutability": "nonpayable",
      "type": "function"
    },
    {
      "constant": false,
      "inputs": [
        {
          "name": "_token",
          "type": "address"
        }
      ],
      "name": "recoverToken",
      "outputs": [],
      "payable": false,
      "stateMutability": "nonpayable",
      "type": "function"
    },
    {
      "constant": false,
      "inputs": [
        {
          "name": "_wallet",
          "type": "address"
        },
        {
          "name": "_data",
          "type": "bytes"
        },
        {
          "name": "_nonce",
          "type": "uint256"
        },
        {
          "name": "_signatures",
          "type": "bytes"
        },
        {
          "name": "_gasPrice",
          "type": "uint256"
        },
        {
          "name": "_gasLimit",
          "type": "uint256"
        }
      ],
      "name": "execute",
      "outputs": [
        {
          "name": "success",
          "type": "bool"
        }
      ],
      "payable": false,
      "stateMutability": "nonpayable",
      "type": "function"
    },
    {
      "constant": true,
      "inputs": [
        {
          "name": "",
          "type": "address"
        }
      ],
      "name": "relayer",
      "outputs": [
        {
          "name": "nonce",
          "type": "uint256"
        }
      ],
      "payable": false,
      "stateMutability": "view",
      "type": "function"
    },
    {
      "inputs": [
        {
          "name": "_registry",
          "type": "address"
        },
        {
          "name": "_guardianStorage",
          "type": "address"
        }
      ],
      "payable": false,
      "stateMutability": "nonpayable",
      "type": "constructor"
    },
    {
      "anonymous": false,
      "inputs": [
        {
          "indexed": true,
          "name": "wallet",
          "type": "address"
        },
        {
          "indexed": true,
          "name": "token",
          "type": "address"
        },
        {
          "indexed": true,
          "name": "amount",
          "type": "uint256"
        },
        {
          "indexed": false,
          "name": "to",
          "type": "address"
        },
        {
          "indexed": false,
          "name": "data",
          "type": "bytes"
        }
      ],
      "name": "Transfer",
      "type": "event"
    },
    {
      "anonymous": false,
      "inputs": [
        {
          "indexed": true,
          "name": "wallet",
          "type": "address"
        },
        {
          "indexed": true,
          "name": "token",
          "type": "address"
        },
        {
          "indexed": false,
          "name": "amount",
          "type": "uint256"
        },
        {
          "indexed": false,
          "name": "spender",
          "type": "address"
        }
      ],
      "name": "Approved",
      "type": "event"
    },
    {
      "anonymous": false,
      "inputs": [
        {
          "indexed": true,
          "name": "wallet",
          "type": "address"
        },
        {
          "indexed": true,
          "name": "to",
          "type": "address"
        },
        {
          "indexed": false,
          "name": "amount",
          "type": "uint256"
        },
        {
          "indexed": false,
          "name": "data",
          "type": "bytes"
        }
      ],
      "name": "CalledContract",
      "type": "event"
    },
    {
      "anonymous": false,
      "inputs": [
        {
          "indexed": true,
          "name": "wallet",
          "type": "address"
        },
        {
          "indexed": true,
          "name": "success",
          "type": "bool"
        },
        {
          "indexed": false,
          "name": "signedHash",
          "type": "bytes32"
        }
      ],
      "name": "TransactionExecuted",
      "type": "event"
    },
    {
      "anonymous": false,
      "inputs": [
        {
          "indexed": false,
          "name": "name",
          "type": "bytes32"
        }
      ],
      "name": "ModuleCreated",
      "type": "event"
    },
    {
      "anonymous": false,
      "inputs": [
        {
          "indexed": false,
          "name": "wallet",
          "type": "address"
        }
      ],
      "name": "ModuleInitialised",
      "type": "event"
    },
    {
      "constant": false,
      "inputs": [
        {
          "name": "_wallet",
          "type": "address"
        },
        {
          "name": "_token",
          "type": "address"
        },
        {
          "name": "_to",
          "type": "address"
        },
        {
          "name": "_amount",
          "type": "uint256"
        },
        {
          "name": "_data",
          "type": "bytes"
        }
      ],
      "name": "transferToken",
      "outputs": [],
      "payable": false,
      "stateMutability": "nonpayable",
      "type": "function"
    },
    {
      "constant": false,
      "inputs": [
        {
          "name": "_wallet",
          "type": "address"
        },
        {
          "name": "_contract",
          "type": "address"
        },
        {
          "name": "_value",
          "type": "uint256"
        },
        {
          "name": "_data",
          "type": "bytes"
        }
      ],
      "name": "callContract",
      "outputs": [],
      "payable": false,
      "stateMutability": "nonpayable",
      "type": "function"
    }
  ],
  "bytecode": "0x608060405234801561001057600080fd5b50604051604080611da38339810180604052604081101561003057600080fd5b50805160209182015160008054600160a060020a03808516600160a060020a0319928316179092556001805492841692909116919091179055604080517f417070726f7665645472616e736665720000000000000000000000000000000080825291519394929385938593927f3019c8fc80239e3dff8f781212ae2004839c2cb61d6c70acd279ac65392145df929081900390910190a15050505050611cc8806100db6000396000f3fe608060405234801561001057600080fd5b506004361061008c5760003560e060020a900480639be65a601161005f5780639be65a60146101b7578063aacaaf88146101dd578063c9b5ef8e146102cd578063fd6ac309146102f35761008c565b806319ab453c146100915780632d0335ab146100b95780632df546f4146100f15780635a1db8c414610189575b600080fd5b6100b7600480360360208110156100a757600080fd5b5035600160a060020a0316610383565b005b6100df600480360360208110156100cf57600080fd5b5035600160a060020a0316610424565b60408051918252519081900360200190f35b6100b7600480360360a081101561010757600080fd5b600160a060020a03823581169260208101358216926040820135909216916060820135919081019060a08101608082013564010000000081111561014a57600080fd5b82018360208201111561015c57600080fd5b8035906020019184600183028401116401000000008311171561017e57600080fd5b50909250905061043f565b6100b76004803603604081101561019f57600080fd5b50600160a060020a03813581169160200135166105cc565b6100b7600480360360208110156101cd57600080fd5b5035600160a060020a031661077e565b6102b9600480360360c08110156101f357600080fd5b600160a060020a03823516919081019060408101602082013564010000000081111561021e57600080fd5b82018360208201111561023057600080fd5b8035906020019184600183028401116401000000008311171561025257600080fd5b9193909282359260408101906020013564010000000081111561027457600080fd5b82018360208201111561028657600080fd5b803590602001918460018302840111640100000000831117156102a857600080fd5b9193509150803590602001356108b1565b604080519115158252519081900360200190f35b6100df600480360360208110156102e357600080fd5b5035600160a060020a0316610b8f565b6100b76004803603608081101561030957600080fd5b600160a060020a0382358116926020810135909116916040820135919081019060808101606082013564010000000081111561034457600080fd5b82018360208201111561035657600080fd5b8035906020019184600183028401116401000000008311171561037857600080fd5b509092509050610ba1565b8033600160a060020a038216146103e4576040805160e560020a62461bcd02815260206004820152601960248201527f424d3a2063616c6c6572206d7573742062652077616c6c657400000000000000604482015290519081900360640190fd5b60408051600160a060020a038416815290517f9fcca3f73f85397e2bf03647abf243c20b753bd54463ff3cae74de2971c112fa9181900360200190a15050565b600160a060020a031660009081526002602052604090205490565b333014610496576040805160e560020a62461bcd02815260206004820181905260248201527f524d3a206d7573742062652063616c6c65642076696120657865637574652829604482015290519081900360640190fd5b600154604080517f4a4fbeec000000000000000000000000000000000000000000000000000000008152600160a060020a03808a166004830152915189939290921691634a4fbeec91602480820192602092909190829003018186803b1580156104ff57600080fd5b505afa158015610513573d6000803e3d6000fd5b505050506040513d602081101561052957600080fd5b505115610580576040805160e560020a62461bcd02815260206004820152601b60248201527f424d3a2077616c6c6574206d75737420626520756e6c6f636b65640000000000604482015290519081900360640190fd5b6105c38787878787878080601f016020809104026020016040519081016040528093929190818152602001838380828437600092019190915250610e2692505050565b50505050505050565b816105d78133610fc1565b15156106175760405160e560020a62461bcd02815260040180806020018281038252602e815260200180611c6f602e913960400191505060405180910390fd5b600054604080517f0bcd4ebb000000000000000000000000000000000000000000000000000000008152600160a060020a03858116600483015291519190921691630bcd4ebb916024808301926020929190829003018186803b15801561067d57600080fd5b505afa158015610691573d6000803e3d6000fd5b505050506040513d60208110156106a757600080fd5b505115156106ff576040805160e560020a62461bcd02815260206004820152601c60248201527f424d3a206d6f64756c65206973206e6f74207265676973746572656400000000604482015290519081900360640190fd5b604080517f1f17732d000000000000000000000000000000000000000000000000000000008152600160a060020a03848116600483015260016024830152915191851691631f17732d9160448082019260009290919082900301818387803b15801561076a57600080fd5b505af11580156105c3573d6000803e3d6000fd5b604080517f70a082310000000000000000000000000000000000000000000000000000000081523060048201529051600091600160a060020a038416916370a0823191602480820192602092909190829003018186803b1580156107e157600080fd5b505afa1580156107f5573d6000803e3d6000fd5b505050506040513d602081101561080b57600080fd5b505160008054604080517fa9059cbb000000000000000000000000000000000000000000000000000000008152600160a060020a0392831660048201526024810185905290519394509085169263a9059cbb92604480840193602093929083900390910190829087803b15801561088157600080fd5b505af1158015610895573d6000803e3d6000fd5b505050506040513d60208110156108ab57600080fd5b50505050565b6000805a90506000610901308c60008d8d8080601f0160208091040260200160405190810160405280939291908181526020018383808284376000920191909152508f92508c91508b9050611048565b905061090e8b898361118b565b1515610964576040805160e560020a62461bcd02815260206004820152601560248201527f524d3a204475706c696361746520726571756573740000000000000000000000604482015290519081900360640190fd5b6109a48b8b8b8080601f01602080910402602001604051908101604052809392919081815260200183838082843760009201919091525061120392505050565b15156109e45760405160e560020a62461bcd02815260040180806020018281038252604a815260200180611c25604a913960600191505060405180910390fd5b6000610a268c8c8c8080601f01602080910402602001604051908101604052809392919081815260200183838082843760009201919091525061127792505050565b905060418102871415610b3e57610a3f8c86888461131e565b15610b3e57801580610ac25750610ac28c8c8c8080601f01602080910402602001604051908101604052809392919081815260200183838082843760009201919091525050604080516020601f8f018190048102820181019092528d815288935091508d908d90819084018382808284376000920191909152506113f192505050565b15610b3e5730600160a060020a03168b8b604051808383808284376040519201945060009350909150508083038183865af19150503d8060008114610b23576040519150601f19603f3d011682016040523d82523d6000602084013e610b28565b606091505b505080945050610b3e8c5a85038888853361159e565b60408051838152905185151591600160a060020a038f16917f6bb0b384ce772133df63560651bc8c727c53306cec1d51e2cbf8ea35fb8f2ec19181900360200190a350505098975050505050505050565b60026020526000908152604090205481565b333014610bf8576040805160e560020a62461bcd02815260206004820181905260248201527f524d3a206d7573742062652063616c6c65642076696120657865637574652829604482015290519081900360640190fd5b600154604080517f4a4fbeec000000000000000000000000000000000000000000000000000000008152600160a060020a038089166004830152915188939290921691634a4fbeec91602480820192602092909190829003018186803b158015610c6157600080fd5b505afa158015610c75573d6000803e3d6000fd5b505050506040513d6020811015610c8b57600080fd5b505115610ce2576040805160e560020a62461bcd02815260206004820152601b60248201527f424d3a2077616c6c6574206d75737420626520756e6c6f636b65640000000000604482015290519081900360640190fd5b85600160a060020a031663d6eb1bbf866040518263ffffffff1660e060020a0281526004018082600160a060020a0316600160a060020a0316815260200191505060206040518083038186803b158015610d3b57600080fd5b505afa158015610d4f573d6000803e3d6000fd5b505050506040513d6020811015610d6557600080fd5b5051158015610d86575085600160a060020a031685600160a060020a031614155b1515610ddc576040805160e560020a62461bcd02815260206004820152601660248201527f41543a20466f7262696464656e20636f6e747261637400000000000000000000604482015290519081900360640190fd5b610e1e86868686868080601f0160208091040260200160405190810160405280939291908181526020018383808284376000920191909152506115fc92505050565b505050505050565b600160a060020a03841673eeeeeeeeeeeeeeeeeeeeeeeeeeeeeeeeeeeeeeee1415610e6d57610e6785848460206040519081016040528060008152506116c4565b50610ef2565b60408051600160a060020a038516602482015260448082018590528251808303909101815260649091019091526020810180517bffffffffffffffffffffffffffffffffffffffffffffffffffffffff167fa9059cbb00000000000000000000000000000000000000000000000000000000179052610eef86866000846116c4565b50505b8184600160a060020a031686600160a060020a03167fd5c97f2e041b2046be3b4337472f05720760a198f4d7d84980b7155eec7cca6f86856040518083600160a060020a0316600160a060020a0316815260200180602001828103825283818151815260200191508051906020019080838360005b83811015610f7f578181015183820152602001610f67565b50505050905090810190601f168015610fac5780820380516001836020036101000a031916815260200191505b50935050505060405180910390a45050505050565b600081600160a060020a031683600160a060020a0316638da5cb5b6040518163ffffffff1660e060020a02815260040160206040518083038186803b15801561100957600080fd5b505afa15801561101d573d6000803e3d6000fd5b505050506040513d602081101561103357600080fd5b5051600160a060020a03161490505b92915050565b6040517f190000000000000000000000000000000000000000000000000000000000000060208083018281526000602185018190526c01000000000000000000000000600160a060020a03808e16820260228801528c16026036860152604a85018a90528851909485938d938d938d938d938d938d938d939192606a909201918701908083835b602083106110ee5780518252601f1990920191602091820191016110cf565b51815160209384036101000a600019018019909216911617905292019586525084810193909352506040808401919091528051808403820181526060840182528051908301207f19457468657265756d205369676e6564204d6573736167653a0a3332000000006080850152609c808501919091528151808503909101815260bc909301905281519101209e9d5050505050505050505050505050565b600160a060020a0383166000908152600260209081526040808320848452600190810190925282205460ff16151514156111c7575060006111fc565b50600160a060020a03831660009081526002602090815260408083208484526001908101909252909120805460ff1916821790555b9392505050565b60006024825110151515611261576040805160e560020a62461bcd02815260206004820152601660248201527f524d3a20496e76616c6964206461746157616c6c657400000000000000000000604482015290519081900360640190fd5b5060240151600160a060020a0391821691161490565b600154604080517f5040fb76000000000000000000000000000000000000000000000000000000008152600160a060020a0385811660048301529151600093611314931691635040fb76916024808301926020929190829003018186803b1580156112e157600080fd5b505afa1580156112f5573d6000803e3d6000fd5b505050506040513d602081101561130b57600080fd5b50516002611947565b6001019392505050565b6000808311801561132f5750600182115b80156113d8575082840285600160a060020a03163110806113d85750604080517fd6eb1bbf0000000000000000000000000000000000000000000000000000000081523060048201529051600160a060020a0387169163d6eb1bbf916024808301926020929190829003018186803b1580156113aa57600080fd5b505afa1580156113be573d6000803e3d6000fd5b505050506040513d60208110156113d457600080fd5b5051155b156113e5575060006113e9565b5060015b949350505050565b600154604080517ff18858ab000000000000000000000000000000000000000000000000000000008152600160a060020a0387811660048301529151600093849360609391169163f18858ab916024808201928792909190829003018186803b15801561145d57600080fd5b505afa158015611471573d6000803e3d6000fd5b505050506040513d6000823e601f3d908101601f19168201604052602081101561149a57600080fd5b8101908080516401000000008111156114b257600080fd5b820160208101848111156114c557600080fd5b81518560208202830111640100000000821117156114e257600080fd5b509094506000935083925050505b8551604190048160ff16101561158f57600061151088888460ff1661197b565b905060ff8216151561153f576115268a82610fc1565b151561153a576000955050505050506113e9565b611586565b600160a060020a0380861690821611611560576000955050505050506113e9565b80945061156d8482611a25565b94509250821515611586576000955050505050506113e9565b506001016114f0565b50600198975050505050505050565b61726c85016000851180156115b35750600183115b80156115bf5750838111155b156105c3573a8511156115d3573a026115d6565b84025b6115f287838360206040519081016040528060008152506116c4565b5050505050505050565b611608848484846116c4565b5082600160a060020a031684600160a060020a03167fbfbd7fb6c6d7dd1ef01d18a7e98333f084363d82d5ce600328e8b941a53d665484846040518083815260200180602001828103825283818151815260200191508051906020019080838360005b8381101561168357818101518382015260200161166b565b50505050905090810190601f1680156116b05780820380516001836020036101000a031916815260200191505b50935050505060405180910390a350505050565b6060600085600160a060020a03168585856040516024018084600160a060020a0316600160a060020a0316815260200183815260200180602001828103825283818151815260200191508051906020019080838360005b8381101561173357818101518382015260200161171b565b50505050905090810190601f1680156117605780820380516001836020036101000a031916815260200191505b5060408051601f198184030181529181526020820180517bffffffffffffffffffffffffffffffffffffffffffffffffffffffff167f8f6f033200000000000000000000000000000000000000000000000000000000178152905182519297509550859450925090508083835b602083106117ec5780518252601f1990920191602091820191016117cd565b6001836020036101000a0380198251168184511680821785525050505050509050019150506000604051808303816000865af19150503d806000811461184e576040519150601f19603f3d011682016040523d82523d6000602084013e611853565b606091505b5092509050808015611866575060008251115b156118d35781806020019051602081101561188057600080fd5b81019080805164010000000081111561189857600080fd5b820160208101848111156118ab57600080fd5b81516401000000008111828201871017156118c557600080fd5b5090955061193e9350505050565b6000825111156118e7573d6000803e3d6000fd5b80151561193e576040805160e560020a62461bcd02815260206004820152601a60248201527f424d3a2077616c6c657420696e766f6b65207265766572746564000000000000604482015290519081900360640190fd5b50949350505050565b600080828481151561195557fe5b049050828481151561196357fe5b061515611971579050611042565b6001019050611042565b6041808202830160208101516040820151919092015160009260ff9190911691601b8314806119ad57508260ff16601c145b15156119b857600080fd5b604080516000815260208082018084528a905260ff8616828401526060820185905260808201849052915160019260a0808401939192601f1981019281900390910190855afa158015611a0f573d6000803e3d6000fd5b5050604051601f19015198975050505050505050565b60006060835160001480611a405750600160a060020a038316155b15611a5057506000905082611b9b565b600080905060606001865103604051908082528060200260200182016040528015611a85578160200160208202803883390190505b5090506000805b8751811015611b8157831515611b2c578781815181101515611aaa57fe5b90602001906020020151600160a060020a031687600160a060020a03161415611ad65760019350611b79565b611af68882815181101515611ae757fe5b90602001906020020151611ba2565b8015611b1e5750611b1e8882815181101515611b0e57fe5b9060200190602002015188611bb0565b15611b2c5760019350611b79565b8251821015611b79578781815181101515611b4357fe5b906020019060200201518383815181101515611b5b57fe5b600160a060020a039092166020928302909101909101526001909101905b600101611a8c565b5082611b8f57600087611b93565b6001825b945094505050505b9250929050565b6000903b63ffffffff161190565b604080517f6f776e657228290000000000000000000000000000000000000000000000000081529051908190036007018120808252600091829190602081818189611388fa6001811415611c0357815193505b505083600160a060020a031682600160a060020a031614925050509291505056fe524d3a207468652077616c6c657420617574686f72697a656420697320646966666572656e74207468656e2074686520746172676574206f66207468652072656c617965642064617461424d3a206d73672e73656e646572206d75737420626520616e206f776e657220666f72207468652077616c6c6574a165627a7a723058203a1b47f55bb3e3eefe29951c6ced59608c3726fbcd4e694e5883226101500a4a0029",
  "source": "pragma solidity ^0.5.4;\nimport \"../wallet/BaseWallet.sol\";\nimport \"./common/BaseModule.sol\";\nimport \"./common/RelayerModule.sol\";\nimport \"./common/BaseTransfer.sol\";\nimport \"../utils/SafeMath.sol\";\nimport \"../utils/GuardianUtils.sol\";\n\n/**\n * @title ApprovedTransfer\n * @dev Module to transfer tokens (ETH or ERC20) with the approval of guardians.\n * @author Julien Niset - <julien@argent.im>\n */\ncontract ApprovedTransfer is BaseModule, RelayerModule, BaseTransfer {\n\n    bytes32 constant NAME = \"ApprovedTransfer\";\n\n    constructor(ModuleRegistry _registry, GuardianStorage _guardianStorage) BaseModule(_registry, _guardianStorage, NAME) public {\n\n    }\n\n    /**\n    * @dev transfers tokens (ETH or ERC20) from a wallet.\n    * @param _wallet The target wallet.\n    * @param _token The address of the token to transfer.\n    * @param _to The destination address\n    * @param _amount The amoutnof token to transfer\n    * @param _data  The data for the transaction (only for ETH transfers)\n    */\n    function transferToken(\n        BaseWallet _wallet,\n        address _token,\n        address _to,\n        uint256 _amount,\n        bytes calldata _data\n    )\n        external\n        onlyExecute\n        onlyWhenUnlocked(_wallet)\n    {\n        doTransfer(_wallet, _token, _to, _amount, _data);\n    }\n\n    /**\n    * @dev call a contract.\n    * @param _wallet The target wallet.\n    * @param _contract The address of the contract.\n    * @param _value The amount of ETH to transfer as part of call\n    * @param _data The encoded method data\n    */\n    function callContract(\n        BaseWallet _wallet,\n        address _contract,\n        uint256 _value,\n        bytes calldata _data\n    )\n        external\n        onlyExecute\n        onlyWhenUnlocked(_wallet)\n    {\n        require(!_wallet.authorised(_contract) && _contract != address(_wallet), \"AT: Forbidden contract\");\n        doCallContract(_wallet, _contract, _value, _data);\n    }\n\n    // *************** Implementation of RelayerModule methods ********************* //\n\n    function validateSignatures(\n        BaseWallet _wallet,\n        bytes memory /* _data */,\n        bytes32 _signHash,\n        bytes memory _signatures\n    )\n        internal\n        view\n        returns (bool)\n    {\n        address lastSigner = address(0);\n        address[] memory guardians = guardianStorage.getGuardians(_wallet);\n        bool isGuardian = false;\n        for (uint8 i = 0; i < _signatures.length / 65; i++) {\n            address signer = recoverSigner(_signHash, _signatures, i);\n            if(i == 0) {\n                // AT: first signer must be owner\n                if(!isOwner(_wallet, signer)) {\n                    return false;\n                }\n            }\n            else {\n                // \"AT: signers must be different\"\n                if(signer <= lastSigner) {\n                    return false;\n                }\n                lastSigner = signer;\n                (isGuardian, guardians) = GuardianUtils.isGuardian(guardians, signer);\n                // \"AT: signatures not valid\"\n                if(!isGuardian) {\n                    return false;\n                }\n            }\n        }\n        return true;\n    }\n\n    function getRequiredSignatures(BaseWallet _wallet, bytes memory /* _data */) internal view returns (uint256) {\n        // owner  + [n/2] guardians\n        return  1 + SafeMath.ceil(guardianStorage.guardianCount(_wallet), 2);\n    }\n}",
  "sourcePath": "/home/amxx/Work/Argent/argent-contracts/contracts/modules/ApprovedTransfer.sol",
  "compiler": {
    "name": "solc",
    "version": "0.5.4+commit.9549d8ff.Emscripten.clang",
    "optimizer": true,
    "runs": 200
  },
  "schemaVersion": "2.2.4",
  "updatedAt": "2020-02-29T16:28:22.460Z"
}