{
  "contractName": "ArgentENSResolver",
  "abi": [
    {
      "constant": false,
      "inputs": [
        {
          "name": "_manager",
          "type": "address"
        }
      ],
      "name": "addManager",
      "outputs": [],
      "payable": false,
      "stateMutability": "nonpayable",
      "type": "function"
    },
    {
      "constant": false,
      "inputs": [
        {
          "name": "_manager",
          "type": "address"
        }
      ],
      "name": "revokeManager",
      "outputs": [],
      "payable": false,
      "stateMutability": "nonpayable",
      "type": "function"
    },
    {
      "constant": true,
      "inputs": [],
      "name": "owner",
      "outputs": [
        {
          "name": "",
          "type": "address"
        }
      ],
      "payable": false,
      "stateMutability": "view",
      "type": "function"
    },
    {
      "constant": false,
      "inputs": [
        {
          "name": "_newOwner",
          "type": "address"
        }
      ],
      "name": "changeOwner",
      "outputs": [],
      "payable": false,
      "stateMutability": "nonpayable",
      "type": "function"
    },
    {
      "constant": true,
      "inputs": [
        {
          "name": "",
          "type": "address"
        }
      ],
      "name": "managers",
      "outputs": [
        {
          "name": "",
          "type": "bool"
        }
      ],
      "payable": false,
      "stateMutability": "view",
      "type": "function"
    },
    {
      "anonymous": false,
      "inputs": [
        {
          "indexed": true,
          "name": "_node",
          "type": "bytes32"
        },
        {
          "indexed": false,
          "name": "_addr",
          "type": "address"
        }
      ],
      "name": "AddrChanged",
      "type": "event"
    },
    {
      "anonymous": false,
      "inputs": [
        {
          "indexed": true,
          "name": "_node",
          "type": "bytes32"
        },
        {
          "indexed": false,
          "name": "_name",
          "type": "string"
        }
      ],
      "name": "NameChanged",
      "type": "event"
    },
    {
      "anonymous": false,
      "inputs": [
        {
          "indexed": true,
          "name": "_manager",
          "type": "address"
        }
      ],
      "name": "ManagerAdded",
      "type": "event"
    },
    {
      "anonymous": false,
      "inputs": [
        {
          "indexed": true,
          "name": "_manager",
          "type": "address"
        }
      ],
      "name": "ManagerRevoked",
      "type": "event"
    },
    {
      "anonymous": false,
      "inputs": [
        {
          "indexed": true,
          "name": "_newOwner",
          "type": "address"
        }
      ],
      "name": "OwnerChanged",
      "type": "event"
    },
    {
      "constant": false,
      "inputs": [
        {
          "name": "_node",
          "type": "bytes32"
        },
        {
          "name": "_addr",
          "type": "address"
        }
      ],
      "name": "setAddr",
      "outputs": [],
      "payable": false,
      "stateMutability": "nonpayable",
      "type": "function"
    },
    {
      "constant": false,
      "inputs": [
        {
          "name": "_node",
          "type": "bytes32"
        },
        {
          "name": "_name",
          "type": "string"
        }
      ],
      "name": "setName",
      "outputs": [],
      "payable": false,
      "stateMutability": "nonpayable",
      "type": "function"
    },
    {
      "constant": true,
      "inputs": [
        {
          "name": "_node",
          "type": "bytes32"
        }
      ],
      "name": "addr",
      "outputs": [
        {
          "name": "",
          "type": "address"
        }
      ],
      "payable": false,
      "stateMutability": "view",
      "type": "function"
    },
    {
      "constant": true,
      "inputs": [
        {
          "name": "_node",
          "type": "bytes32"
        }
      ],
      "name": "name",
      "outputs": [
        {
          "name": "",
          "type": "string"
        }
      ],
      "payable": false,
      "stateMutability": "view",
      "type": "function"
    },
    {
      "constant": true,
      "inputs": [
        {
          "name": "_interfaceID",
          "type": "bytes4"
        }
      ],
      "name": "supportsInterface",
      "outputs": [
        {
          "name": "",
          "type": "bool"
        }
      ],
      "payable": false,
      "stateMutability": "view",
      "type": "function"
    }
  ],
  "bytecode": "0x608060405260008054600160a060020a03191633179055610b10806100256000396000f3fe608060405234801561001057600080fd5b50600436106100bb576000357c010000000000000000000000000000000000000000000000000000000090048063773722131161008357806377372213146102145780638da5cb5b146102c1578063a6f9dae1146102c9578063d5fa2b00146102ef578063fdff9b4d1461031b576100bb565b806301ffc9a7146100c05780632d06177a146100fb578063377e32e6146101235780633b3b57de14610149578063691f343114610182575b600080fd5b6100e7600480360360208110156100d657600080fd5b5035600160e060020a031916610341565b604080519115158252519081900360200190f35b6101216004803603602081101561011157600080fd5b5035600160a060020a03166103de565b005b6101216004803603602081101561013957600080fd5b5035600160a060020a0316610512565b6101666004803603602081101561015f57600080fd5b503561061d565b60408051600160a060020a039092168252519081900360200190f35b61019f6004803603602081101561019857600080fd5b5035610638565b6040805160208082528351818301528351919283929083019185019080838360005b838110156101d95781810151838201526020016101c1565b50505050905090810190601f1680156102065780820380516001836020036101000a031916815260200191505b509250505060405180910390f35b6101216004803603604081101561022a57600080fd5b8135919081019060408101602082013564010000000081111561024c57600080fd5b82018360208201111561025e57600080fd5b8035906020019184600183028401116401000000008311171561028057600080fd5b91908080601f0160208091040260200160405190810160405280939291908181526020018383808284376000920191909152509295506106da945050505050565b61016661080b565b610121600480360360208110156102df57600080fd5b5035600160a060020a031661081a565b6101216004803603604081101561030557600080fd5b5080359060200135600160a060020a0316610931565b6100e76004803603602081101561033157600080fd5b5035600160a060020a0316610a0f565b6000600160e060020a031982167f01ffc9a70000000000000000000000000000000000000000000000000000000014806103a45750600160e060020a031982167f3b3b57de00000000000000000000000000000000000000000000000000000000145b806103d85750600160e060020a031982167f691f343100000000000000000000000000000000000000000000000000000000145b92915050565b600054600160a060020a03163314610440576040805160e560020a62461bcd02815260206004820152600d60248201527f4d757374206265206f776e657200000000000000000000000000000000000000604482015290519081900360640190fd5b600160a060020a03811615156104a0576040805160e560020a62461bcd02815260206004820152601b60248201527f4d3a2041646472657373206d757374206e6f74206265206e756c6c0000000000604482015290519081900360640190fd5b600160a060020a03811660009081526001602052604090205460ff16151561050f57600160a060020a0381166000818152600160208190526040808320805460ff1916909217909155517f3b4a40cccf2058c593542587329dd385be4f0b588db5471fbd9598e56dd7093a9190a25b50565b600054600160a060020a03163314610574576040805160e560020a62461bcd02815260206004820152600d60248201527f4d757374206265206f776e657200000000000000000000000000000000000000604482015290519081900360640190fd5b600160a060020a03811660009081526001602081905260409091205460ff161515146105d45760405160e560020a62461bcd028152600401808060200182810382526025815260200180610ac06025913960400191505060405180910390fd5b600160a060020a038116600081815260016020526040808220805460ff19169055517fe5def11e0516f317f9c37b8835aec29fc01db4d4b6d6fecaca339d3596a29bc19190a250565b600090815260026020526040902054600160a060020a031690565b6000818152600260208181526040928390206001908101805485519281161561010002600019011693909304601f81018390048302820183019094528381526060939092918301828280156106ce5780601f106106a3576101008083540402835291602001916106ce565b820191906000526020600020905b8154815290600101906020018083116106b157829003601f168201915b50505050509050919050565b3360009081526001602081905260409091205460ff16151514610747576040805160e560020a62461bcd02815260206004820152601260248201527f4d3a204d757374206265206d616e616765720000000000000000000000000000604482015290519081900360640190fd5b6000828152600260209081526040909120825161076c92600190920191840190610a24565b50817fb7d29e911041e8d9b843369e890bcb72c9388692ba48b65ac54e7214c4c348f7826040518080602001828103825283818151815260200191508051906020019080838360005b838110156107cd5781810151838201526020016107b5565b50505050905090810190601f1680156107fa5780820380516001836020036101000a031916815260200191505b509250505060405180910390a25050565b600054600160a060020a031681565b600054600160a060020a0316331461087c576040805160e560020a62461bcd02815260206004820152600d60248201527f4d757374206265206f776e657200000000000000000000000000000000000000604482015290519081900360640190fd5b600160a060020a03811615156108dc576040805160e560020a62461bcd02815260206004820152601860248201527f41646472657373206d757374206e6f74206265206e756c6c0000000000000000604482015290519081900360640190fd5b6000805473ffffffffffffffffffffffffffffffffffffffff1916600160a060020a038316908117825560405190917fa2ea9883a321a3e97b8266c2b078bfeec6d50c711ed71f874a90d500ae2eaf3691a250565b3360009081526001602081905260409091205460ff1615151461099e576040805160e560020a62461bcd02815260206004820152601260248201527f4d3a204d757374206265206d616e616765720000000000000000000000000000604482015290519081900360640190fd5b600082815260026020908152604091829020805473ffffffffffffffffffffffffffffffffffffffff1916600160a060020a0385169081179091558251908152915184927f52d7d861f09ab3d26239d492e8968629f95e9e318cf0b73bfddc441522a15fd292908290030190a25050565b60016020526000908152604090205460ff1681565b828054600181600116156101000203166002900490600052602060002090601f016020900481019282601f10610a6557805160ff1916838001178555610a92565b82800160010185558215610a92579182015b82811115610a92578251825591602001919060010190610a77565b50610a9e929150610aa2565b5090565b610abc91905b80821115610a9e5760008155600101610aa8565b9056fe4d3a20546172676574206d75737420626520616e206578697374696e67206d616e61676572a165627a7a723058201b220dd9a952e95a4595592937e8579d7c1cc1178eaae5ae9d3e71b98d2544660029",
  "source": "pragma solidity ^0.5.4;\nimport \"../base/Owned.sol\";\nimport \"../base/Managed.sol\";\nimport \"./ENS.sol\";\n\n/**\n * @title ArgentENSResolver\n * @dev Basic implementation of a Resolver.\n * The contract defines a manager role who is the only role that can add a new name\n * to the list of resolved names. \n * @author Julien Niset - <julien@argent.im>\n */\ncontract ArgentENSResolver is Owned, Managed, ENSResolver {\n\n    bytes4 constant SUPPORT_INTERFACE_ID = 0x01ffc9a7;\n    bytes4 constant ADDR_INTERFACE_ID = 0x3b3b57de;\n    bytes4 constant NAME_INTERFACE_ID = 0x691f3431;\n\n    // mapping between namehash and resolved records\n    mapping (bytes32 => Record) records;\n\n    struct Record {\n        address addr;\n        string name;\n    }\n\n    // *************** Events *************************** //\n\n    event AddrChanged(bytes32 indexed _node, address _addr);\n    event NameChanged(bytes32 indexed _node, string _name);\n\n    // *************** Public Functions ********************* //\n\n    /**\n     * @dev Lets the manager set the address associated with an ENS node.\n     * @param _node The node to update.\n     * @param _addr The address to set.\n     */\n    function setAddr(bytes32 _node, address _addr) public onlyManager {\n        records[_node].addr = _addr;\n        emit AddrChanged(_node, _addr);\n    }\n\n    /**\n     * @dev Lets the manager set the name associated with an ENS node.\n     * @param _node The node to update.\n     * @param _name The name to set.\n     */\n    function setName(bytes32 _node, string memory _name) public onlyManager {\n        records[_node].name = _name;\n        emit NameChanged(_node, _name);\n    }\n\n    /**\n     * @dev Gets the address associated to an ENS node.\n     * @param _node The target node.\n     * @return the address of the target node.\n     */\n    function addr(bytes32 _node) public view returns (address) {\n        return records[_node].addr;\n    }\n\n    /**\n     * @dev Gets the name associated to an ENS node.\n     * @param _node The target ENS node.\n     * @return the name of the target ENS node.\n     */\n    function name(bytes32 _node) public view returns (string memory) {\n        return records[_node].name;\n    }\n\n    /**\n     * @dev Returns true if the resolver implements the interface specified by the provided hash.\n     * @param _interfaceID The ID of the interface to check for.\n     * @return True if the contract implements the requested interface.\n     */\n    function supportsInterface(bytes4 _interfaceID) public view returns (bool) {\n        return _interfaceID == SUPPORT_INTERFACE_ID || _interfaceID == ADDR_INTERFACE_ID || _interfaceID == NAME_INTERFACE_ID;\n    }\n\n}\n",
  "sourcePath": "/home/amxx/Work/Argent/argent-contracts/contracts/ens/ArgentENSResolver.sol",
  "compiler": {
    "name": "solc",
    "version": "0.5.4+commit.9549d8ff.Emscripten.clang",
    "optimizer": true,
    "runs": 200
  },
  "schemaVersion": "2.2.4",
  "updatedAt": "2020-02-29T16:28:22.456Z"
}