{
  "contractName": "ArgentENSManager",
  "abi": [
    {
      "constant": true,
      "inputs": [],
      "name": "getENSReverseRegistrar",
      "outputs": [
        {
          "name": "",
          "type": "address"
        }
      ],
      "payable": false,
      "stateMutability": "view",
      "type": "function"
    },
    {
      "constant": false,
      "inputs": [
        {
          "name": "_manager",
          "type": "address"
        }
      ],
      "name": "addManager",
      "outputs": [],
      "payable": false,
      "stateMutability": "nonpayable",
      "type": "function"
    },
    {
      "constant": true,
      "inputs": [],
      "name": "getENSRegistry",
      "outputs": [
        {
          "name": "",
          "type": "address"
        }
      ],
      "payable": false,
      "stateMutability": "view",
      "type": "function"
    },
    {
      "constant": false,
      "inputs": [
        {
          "name": "_manager",
          "type": "address"
        }
      ],
      "name": "revokeManager",
      "outputs": [],
      "payable": false,
      "stateMutability": "nonpayable",
      "type": "function"
    },
    {
      "constant": true,
      "inputs": [],
      "name": "ADDR_REVERSE_NODE",
      "outputs": [
        {
          "name": "",
          "type": "bytes32"
        }
      ],
      "payable": false,
      "stateMutability": "view",
      "type": "function"
    },
    {
      "constant": true,
      "inputs": [],
      "name": "owner",
      "outputs": [
        {
          "name": "",
          "type": "address"
        }
      ],
      "payable": false,
      "stateMutability": "view",
      "type": "function"
    },
    {
      "constant": true,
      "inputs": [
        {
          "name": "_node",
          "type": "bytes32"
        }
      ],
      "name": "resolveEns",
      "outputs": [
        {
          "name": "",
          "type": "address"
        }
      ],
      "payable": false,
      "stateMutability": "view",
      "type": "function"
    },
    {
      "constant": false,
      "inputs": [
        {
          "name": "_newOwner",
          "type": "address"
        }
      ],
      "name": "changeOwner",
      "outputs": [],
      "payable": false,
      "stateMutability": "nonpayable",
      "type": "function"
    },
    {
      "constant": true,
      "inputs": [],
      "name": "ensResolver",
      "outputs": [
        {
          "name": "",
          "type": "address"
        }
      ],
      "payable": false,
      "stateMutability": "view",
      "type": "function"
    },
    {
      "constant": true,
      "inputs": [],
      "name": "rootName",
      "outputs": [
        {
          "name": "",
          "type": "string"
        }
      ],
      "payable": false,
      "stateMutability": "view",
      "type": "function"
    },
    {
      "constant": true,
      "inputs": [],
      "name": "rootNode",
      "outputs": [
        {
          "name": "",
          "type": "bytes32"
        }
      ],
      "payable": false,
      "stateMutability": "view",
      "type": "function"
    },
    {
      "constant": true,
      "inputs": [
        {
          "name": "",
          "type": "address"
        }
      ],
      "name": "managers",
      "outputs": [
        {
          "name": "",
          "type": "bool"
        }
      ],
      "payable": false,
      "stateMutability": "view",
      "type": "function"
    },
    {
      "inputs": [
        {
          "name": "_rootName",
          "type": "string"
        },
        {
          "name": "_rootNode",
          "type": "bytes32"
        },
        {
          "name": "_ensRegistry",
          "type": "address"
        },
        {
          "name": "_ensResolver",
          "type": "address"
        }
      ],
      "payable": false,
      "stateMutability": "nonpayable",
      "type": "constructor"
    },
    {
      "anonymous": false,
      "inputs": [
        {
          "indexed": true,
          "name": "_rootnode",
          "type": "bytes32"
        },
        {
          "indexed": true,
          "name": "_newOwner",
          "type": "address"
        }
      ],
      "name": "RootnodeOwnerChange",
      "type": "event"
    },
    {
      "anonymous": false,
      "inputs": [
        {
          "indexed": false,
          "name": "addr",
          "type": "address"
        }
      ],
      "name": "ENSResolverChanged",
      "type": "event"
    },
    {
      "anonymous": false,
      "inputs": [
        {
          "indexed": true,
          "name": "_owner",
          "type": "address"
        },
        {
          "indexed": false,
          "name": "_ens",
          "type": "string"
        }
      ],
      "name": "Registered",
      "type": "event"
    },
    {
      "anonymous": false,
      "inputs": [
        {
          "indexed": false,
          "name": "_ens",
          "type": "string"
        }
      ],
      "name": "Unregistered",
      "type": "event"
    },
    {
      "anonymous": false,
      "inputs": [
        {
          "indexed": true,
          "name": "_manager",
          "type": "address"
        }
      ],
      "name": "ManagerAdded",
      "type": "event"
    },
    {
      "anonymous": false,
      "inputs": [
        {
          "indexed": true,
          "name": "_manager",
          "type": "address"
        }
      ],
      "name": "ManagerRevoked",
      "type": "event"
    },
    {
      "anonymous": false,
      "inputs": [
        {
          "indexed": true,
          "name": "_newOwner",
          "type": "address"
        }
      ],
      "name": "OwnerChanged",
      "type": "event"
    },
    {
      "constant": false,
      "inputs": [
        {
          "name": "_newOwner",
          "type": "address"
        }
      ],
      "name": "changeRootnodeOwner",
      "outputs": [],
      "payable": false,
      "stateMutability": "nonpayable",
      "type": "function"
    },
    {
      "constant": false,
      "inputs": [
        {
          "name": "_ensResolver",
          "type": "address"
        }
      ],
      "name": "changeENSResolver",
      "outputs": [],
      "payable": false,
      "stateMutability": "nonpayable",
      "type": "function"
    },
    {
      "constant": false,
      "inputs": [
        {
          "name": "_label",
          "type": "string"
        },
        {
          "name": "_owner",
          "type": "address"
        }
      ],
      "name": "register",
      "outputs": [],
      "payable": false,
      "stateMutability": "nonpayable",
      "type": "function"
    },
    {
      "constant": true,
      "inputs": [
        {
          "name": "_subnode",
          "type": "bytes32"
        }
      ],
      "name": "isAvailable",
      "outputs": [
        {
          "name": "",
          "type": "bool"
        }
      ],
      "payable": false,
      "stateMutability": "view",
      "type": "function"
    }
  ],
  "bytecode": "0x60806040523480156200001157600080fd5b50604051620017c3380380620017c3833981018060405260808110156200003757600080fd5b8101908080516401000000008111156200005057600080fd5b820160208101848111156200006457600080fd5b81516401000000008111828201871017156200007f57600080fd5b505060208281015160408401516060909401516000805433600160a060020a03199182161790915560028054909116600160a060020a038716179055835193965090945091620000d6916003919087019062000104565b506004929092555060058054600160a060020a031916600160a060020a0390921691909117905550620001a9565b828054600181600116156101000203166002900490600052602060002090601f016020900481019282601f106200014757805160ff191683800117855562000177565b8280016001018555821562000177579182015b82811115620001775782518255916020019190600101906200015a565b506200018592915062000189565b5090565b620001a691905b8082111562000185576000815560010162000190565b90565b61160a80620001b96000396000f3fe608060405234801561001057600080fd5b50600436106101045760003560e060020a900480638da5cb5b1161009b578063f20387df1161006a578063f20387df146102c0578063faff50a81461033d578063fb41999914610345578063fdff9b4d1461036b57610104565b80638da5cb5b1461026d5780639eb869c714610275578063a6f9dae114610292578063adce1c5f146102b857610104565b8063377e32e6116100d7578063377e32e6146101d65780637cf8a2eb146101fc57806386605d961461021657806389b6f0271461023c57610104565b806309d73442146101095780631e59c5291461012d5780632d06177a146101a85780632f680795146101ce575b600080fd5b610111610391565b60408051600160a060020a039092168252519081900360200190f35b6101a66004803603604081101561014357600080fd5b81019060208101813564010000000081111561015e57600080fd5b82018360208201111561017057600080fd5b8035906020019184600183028401116401000000008311171561019257600080fd5b919350915035600160a060020a0316610435565b005b6101a6600480360360208110156101be57600080fd5b5035600160a060020a0316610bc7565b610111610ce9565b6101a6600480360360208110156101ec57600080fd5b5035600160a060020a0316610cf8565b610204610df1565b60408051918252519081900360200190f35b6101a66004803603602081101561022c57600080fd5b5035600160a060020a0316610e15565b6102596004803603602081101561025257600080fd5b5035610f25565b604080519115158252519081900360200190f35b610111610ff8565b6101116004803603602081101561028b57600080fd5b5035611007565b6101a6600480360360208110156102a857600080fd5b5035600160a060020a031661111b565b610111611220565b6102c861122f565b6040805160208082528351818301528351919283929083019185019080838360005b838110156103025781810151838201526020016102ea565b50505050905090810190601f16801561032f5780820380516001836020036101000a031916815260200191505b509250505060405180910390f35b6102046112bd565b6101a66004803603602081101561035b57600080fd5b5035600160a060020a03166112c3565b6102596004803603602081101561038157600080fd5b5035600160a060020a03166113d4565b600061039b610ce9565b600160a060020a03166302571be37f91d1777781884d03a6757a803996e38de2a42967fb37eeaca72729271025a9e26001026040518263ffffffff1660e060020a0281526004018082815260200191505060206040518083038186803b15801561040457600080fd5b505afa158015610418573d6000803e3d6000fd5b505050506040513d602081101561042e57600080fd5b5051905090565b3360009081526001602081905260409091205460ff161515146104a2576040805160e560020a62461bcd02815260206004820152601260248201527f4d3a204d757374206265206d616e616765720000000000000000000000000000604482015290519081900360640190fd5b6000838360405160200180838380828437808301925050509250505060405160208183030381529060405280519060200120905060006004548260405160200180838152602001828152602001925050506040516020818303038152906040528051906020012090506000610515610ce9565b600160a060020a03166302571be3836040518263ffffffff1660e060020a0281526004018082815260200191505060206040518083038186803b15801561055b57600080fd5b505afa15801561056f573d6000803e3d6000fd5b505050506040513d602081101561058557600080fd5b50519050600160a060020a038116156105e8576040805160e560020a62461bcd02815260206004820152601d60248201527f41454d3a205f6c6162656c20697320616c7265616c6479206f776e6564000000604482015290519081900360640190fd5b6105f0610ce9565b600160a060020a03166306ab592360045485306040518463ffffffff1660e060020a0281526004018084815260200183815260200182600160a060020a0316600160a060020a031681526020019350505050600060405180830381600087803b15801561065c57600080fd5b505af1158015610670573d6000803e3d6000fd5b5050505061067c610ce9565b600554604080517f1896f70a00000000000000000000000000000000000000000000000000000000815260048101869052600160a060020a03928316602482015290519290911691631896f70a9160448082019260009290919082900301818387803b1580156106eb57600080fd5b505af11580156106ff573d6000803e3d6000fd5b5050505061070b610ce9565b600160a060020a0316635b0fc9c383866040518363ffffffff1660e060020a0281526004018083815260200182600160a060020a0316600160a060020a0316815260200192505050600060405180830381600087803b15801561076d57600080fd5b505af1158015610781573d6000803e3d6000fd5b5050600554604080517fd5fa2b0000000000000000000000000000000000000000000000000000000000815260048101879052600160a060020a038981166024830152915191909216935063d5fa2b009250604480830192600092919082900301818387803b1580156107f357600080fd5b505af1158015610807573d6000803e3d6000fd5b505060408051600280825260608281019093529193509150816020015b61082c611582565b81526020019060019003908161082457905050905061088087878080601f0160208091040260200160405190810160405280939291908181526020018383808284376000920191909152506113e992505050565b81600081518110151561088f57fe5b602090810291909101810191909152600380546040805160026001841615610100026000190190931692909204601f8101859004850283018501909152808252610931939192918301828280156109275780601f106108fc57610100808354040283529160200191610927565b820191906000526020600020905b81548152906001019060200180831161090a57829003601f168201915b50505050506113e9565b81600181518110151561094057fe5b90602001906020020181905250606061099d826109916040805190810160405280600181526020017f2e000000000000000000000000000000000000000000000000000000000000008152506113e9565b9063ffffffff61140e16565b905060006109a9610391565b600160a060020a031663bffbe61c886040518263ffffffff1660e060020a0281526004018082600160a060020a0316600160a060020a03168152602001915050602060405180830381600087803b158015610a0357600080fd5b505af1158015610a17573d6000803e3d6000fd5b505050506040513d6020811015610a2d57600080fd5b5051600554604080517f773722130000000000000000000000000000000000000000000000000000000081526004810184815260248201928352865160448301528651949550600160a060020a0390931693637737221393869388939192909160640190602085019080838360005b83811015610ab4578181015183820152602001610a9c565b50505050905090810190601f168015610ae15780820380516001836020036101000a031916815260200191505b509350505050600060405180830381600087803b158015610b0157600080fd5b505af1158015610b15573d6000803e3d6000fd5b5050505086600160a060020a03167fb3eccf73f39b1c07947c780b2b39df2a1bb058b4037b0a42d0881ca1a028a132836040518080602001828103825283818151815260200191508051906020019080838360005b83811015610b82578181015183820152602001610b6a565b50505050905090810190601f168015610baf5780820380516001836020036101000a031916815260200191505b509250505060405180910390a2505050505050505050565b600054600160a060020a03163314610c17576040805160e560020a62461bcd02815260206004820152600d60248201526000805160206115bf833981519152604482015290519081900360640190fd5b600160a060020a0381161515610c77576040805160e560020a62461bcd02815260206004820152601b60248201527f4d3a2041646472657373206d757374206e6f74206265206e756c6c0000000000604482015290519081900360640190fd5b600160a060020a03811660009081526001602052604090205460ff161515610ce657600160a060020a0381166000818152600160208190526040808320805460ff1916909217909155517f3b4a40cccf2058c593542587329dd385be4f0b588db5471fbd9598e56dd7093a9190a25b50565b600254600160a060020a031690565b600054600160a060020a03163314610d48576040805160e560020a62461bcd02815260206004820152600d60248201526000805160206115bf833981519152604482015290519081900360640190fd5b600160a060020a03811660009081526001602081905260409091205460ff16151514610da85760405160e560020a62461bcd02815260040180806020018281038252602581526020018061159a6025913960400191505060405180910390fd5b600160a060020a038116600081815260016020526040808220805460ff19169055517fe5def11e0516f317f9c37b8835aec29fc01db4d4b6d6fecaca339d3596a29bc19190a250565b7f91d1777781884d03a6757a803996e38de2a42967fb37eeaca72729271025a9e281565b600054600160a060020a03163314610e65576040805160e560020a62461bcd02815260206004820152600d60248201526000805160206115bf833981519152604482015290519081900360640190fd5b610e6d610ce9565b600160a060020a0316635b0fc9c3600454836040518363ffffffff1660e060020a0281526004018083815260200182600160a060020a0316600160a060020a0316815260200192505050600060405180830381600087803b158015610ed157600080fd5b505af1158015610ee5573d6000803e3d6000fd5b5050505080600160a060020a03166004547f1219ccb7de3c75be86cb7065f05d9d42fb6a5162e02537d1b0d95a890ff4fd9d60405160405180910390a350565b600454604080516020808201939093528082018490528151808203830181526060909101909152805191012060009081610f5d610ce9565b600160a060020a03166302571be3836040518263ffffffff1660e060020a0281526004018082815260200191505060206040518083038186803b158015610fa357600080fd5b505afa158015610fb7573d6000803e3d6000fd5b505050506040513d6020811015610fcd57600080fd5b50519050600160a060020a0381161515610fec57600192505050610ff3565b6000925050505b919050565b600054600160a060020a031681565b600080611012610ce9565b600160a060020a0316630178b8bf846040518263ffffffff1660e060020a0281526004018082815260200191505060206040518083038186803b15801561105857600080fd5b505afa15801561106c573d6000803e3d6000fd5b505050506040513d602081101561108257600080fd5b5051604080517f3b3b57de000000000000000000000000000000000000000000000000000000008152600481018690529051919250600160a060020a03831691633b3b57de91602480820192602092909190829003018186803b1580156110e857600080fd5b505afa1580156110fc573d6000803e3d6000fd5b505050506040513d602081101561111257600080fd5b50519392505050565b600054600160a060020a0316331461116b576040805160e560020a62461bcd02815260206004820152600d60248201526000805160206115bf833981519152604482015290519081900360640190fd5b600160a060020a03811615156111cb576040805160e560020a62461bcd02815260206004820152601860248201527f41646472657373206d757374206e6f74206265206e756c6c0000000000000000604482015290519081900360640190fd5b6000805473ffffffffffffffffffffffffffffffffffffffff1916600160a060020a038316908117825560405190917fa2ea9883a321a3e97b8266c2b078bfeec6d50c711ed71f874a90d500ae2eaf3691a250565b600554600160a060020a031681565b6003805460408051602060026001851615610100026000190190941693909304601f810184900484028201840190925281815292918301828280156112b55780601f1061128a576101008083540402835291602001916112b5565b820191906000526020600020905b81548152906001019060200180831161129857829003601f168201915b505050505081565b60045481565b600054600160a060020a03163314611313576040805160e560020a62461bcd02815260206004820152600d60248201526000805160206115bf833981519152604482015290519081900360640190fd5b600160a060020a0381161515611373576040805160e560020a62461bcd02815260206004820152601a60248201527f57463a20616464726573732063616e6e6f74206265206e756c6c000000000000604482015290519081900360640190fd5b60058054600160a060020a03831673ffffffffffffffffffffffffffffffffffffffff19909116811790915560408051918252517f8bd878c65101d815c50829c7b19270ff5c19e91bd1ad6ebaa282c4a65a5baa5f9181900360200190a150565b60016020526000908152604090205460ff1681565b6113f1611582565b506040805180820190915281518152602082810190820152919050565b606081516000141561142f575060408051602081019091526000815261153e565b815183516000199091010260005b835181101561146c57838181518110151561145457fe5b6020908102909101015151919091019060010161143d565b506060816040519080825280601f01601f19166020018201604052801561149a576020820181803883390190505b5090506020810160005b8551811015611537576114eb8287838151811015156114bf57fe5b906020019060200201516020015188848151811015156114db57fe5b6020908102909101015151611544565b85818151811015156114f957fe5b602090810290910101515186519201916000190181101561152f576115278288602001518960000151611544565b865191909101905b6001016114a4565b5090925050505b92915050565b5b60208110611564578151835260209283019290910190601f1901611545565b905182516020929092036101000a6000190180199091169116179052565b60408051808201909152600080825260208201529056fe4d3a20546172676574206d75737420626520616e206578697374696e67206d616e616765724d757374206265206f776e657200000000000000000000000000000000000000a165627a7a723058205c2af44157936164131a60f4c9cc5ec4715ece0986da2ae2ab7b0b838d9066f10029",
  "source": "pragma solidity ^0.5.4;\nimport \"../utils/strings.sol\";\nimport \"./ENS.sol\";\nimport \"./ENSConsumer.sol\";\nimport \"../base/Managed.sol\";\n\n/**\n * @dev Interface for an ENS Mananger.\n */\ninterface IENSManager {\n    function changeRootnodeOwner(address _newOwner) external;\n    function register(string calldata _label, address _owner) external;\n    function isAvailable(bytes32 _subnode) external view returns(bool);\n}\n\n/**\n * @title ArgentENSManager\n * @dev Implementation of an ENS manager that orchestrates the complete\n * registration of subdomains for a single root (e.g. argent.eth). \n * The contract defines a manager role who is the only role that can trigger the registration of\n * a new subdomain.\n * @author Julien Niset - <julien@argent.im>\n */\ncontract ArgentENSManager is IENSManager, Owned, Managed, ENSConsumer {\n    \n    using strings for *;\n\n    // The managed root name\n    string public rootName;\n    // The managed root node\n    bytes32 public rootNode;\n    // The address of the ENS resolver\n    address public ensResolver;\n\n    // *************** Events *************************** //\n\n    event RootnodeOwnerChange(bytes32 indexed _rootnode, address indexed _newOwner);\n    event ENSResolverChanged(address addr);\n    event Registered(address indexed _owner, string _ens);\n    event Unregistered(string _ens);\n\n    // *************** Constructor ********************** //\n\n    /**\n     * @dev Constructor that sets the ENS root name and root node to manage.\n     * @param _rootName The root name (e.g. argentx.eth).\n     * @param _rootNode The node of the root name (e.g. namehash(argentx.eth)).\n     */\n    constructor(string memory _rootName, bytes32 _rootNode, address _ensRegistry, address _ensResolver) ENSConsumer(_ensRegistry) public {\n        rootName = _rootName;\n        rootNode = _rootNode;\n        ensResolver = _ensResolver;\n    }\n\n    // *************** External Functions ********************* //\n\n    /**\n     * @dev This function must be called when the ENS Manager contract is replaced\n     * and the address of the new Manager should be provided.\n     * @param _newOwner The address of the new ENS manager that will manage the root node.\n     */\n    function changeRootnodeOwner(address _newOwner) external onlyOwner {\n        getENSRegistry().setOwner(rootNode, _newOwner);\n        emit RootnodeOwnerChange(rootNode, _newOwner);\n    }\n\n    /**\n     * @dev Lets the owner change the address of the ENS resolver contract.\n     * @param _ensResolver The address of the ENS resolver contract.\n     */\n    function changeENSResolver(address _ensResolver) external onlyOwner {\n        require(_ensResolver != address(0), \"WF: address cannot be null\");\n        ensResolver = _ensResolver;\n        emit ENSResolverChanged(_ensResolver);\n    }\n\n    /** \n    * @dev Lets the manager assign an ENS subdomain of the root node to a target address.\n    * Registers both the forward and reverse ENS.\n    * @param _label The subdomain label.\n    * @param _owner The owner of the subdomain.\n    */\n    function register(string calldata _label, address _owner) external onlyManager {\n        bytes32 labelNode = keccak256(abi.encodePacked(_label));\n        bytes32 node = keccak256(abi.encodePacked(rootNode, labelNode));\n        address currentOwner = getENSRegistry().owner(node);\n        require(currentOwner == address(0), \"AEM: _label is alrealdy owned\");\n\n        // Forward ENS\n        getENSRegistry().setSubnodeOwner(rootNode, labelNode, address(this));\n        getENSRegistry().setResolver(node, ensResolver);\n        getENSRegistry().setOwner(node, _owner);\n        ENSResolver(ensResolver).setAddr(node, _owner);\n\n        // Reverse ENS\n        strings.slice[] memory parts = new strings.slice[](2);\n        parts[0] = _label.toSlice();\n        parts[1] = rootName.toSlice();\n        string memory name = \".\".toSlice().join(parts);\n        bytes32 reverseNode = getENSReverseRegistrar().node(_owner);\n        ENSResolver(ensResolver).setName(reverseNode, name);\n\n        emit Registered(_owner, name);\n    }\n\n    // *************** Public Functions ********************* //\n\n    /**\n     * @dev Returns true is a given subnode is available.\n     * @param _subnode The target subnode.\n     * @return true if the subnode is available.\n     */\n    function isAvailable(bytes32 _subnode) public view returns (bool) {\n        bytes32 node = keccak256(abi.encodePacked(rootNode, _subnode));\n        address currentOwner = getENSRegistry().owner(node);\n        if(currentOwner == address(0)) {\n            return true;\n        }\n        return false;\n    }\n}\n",
  "sourcePath": "/home/amxx/Work/Argent/argent-contracts/contracts/ens/ArgentENSManager.sol",
  "compiler": {
    "name": "solc",
    "version": "0.5.4+commit.9549d8ff.Emscripten.clang",
    "optimizer": true,
    "runs": 200
  },
  "schemaVersion": "2.2.4",
  "updatedAt": "2020-02-29T16:28:22.454Z"
}