{
  "contractName": "BaseModule",
  "abi": [
    {
      "inputs": [
        {
          "name": "_registry",
          "type": "address"
        },
        {
          "name": "_guardianStorage",
          "type": "address"
        },
        {
          "name": "_name",
          "type": "bytes32"
        }
      ],
      "payable": false,
      "stateMutability": "nonpayable",
      "type": "constructor"
    },
    {
      "anonymous": false,
      "inputs": [
        {
          "indexed": false,
          "name": "name",
          "type": "bytes32"
        }
      ],
      "name": "ModuleCreated",
      "type": "event"
    },
    {
      "anonymous": false,
      "inputs": [
        {
          "indexed": false,
          "name": "wallet",
          "type": "address"
        }
      ],
      "name": "ModuleInitialised",
      "type": "event"
    },
    {
      "constant": false,
      "inputs": [
        {
          "name": "_wallet",
          "type": "address"
        }
      ],
      "name": "init",
      "outputs": [],
      "payable": false,
      "stateMutability": "nonpayable",
      "type": "function"
    },
    {
      "constant": false,
      "inputs": [
        {
          "name": "_wallet",
          "type": "address"
        },
        {
          "name": "_module",
          "type": "address"
        }
      ],
      "name": "addModule",
      "outputs": [],
      "payable": false,
      "stateMutability": "nonpayable",
      "type": "function"
    },
    {
      "constant": false,
      "inputs": [
        {
          "name": "_token",
          "type": "address"
        }
      ],
      "name": "recoverToken",
      "outputs": [],
      "payable": false,
      "stateMutability": "nonpayable",
      "type": "function"
    }
  ],
  "bytecode": "0x608060405234801561001057600080fd5b506040516060806106608339810180604052606081101561003057600080fd5b50805160208083015160409384015160008054600160a060020a03808716600160a060020a0319928316179092556001805492851692909116919091179055845181815294519394919390927f3019c8fc80239e3dff8f781212ae2004839c2cb61d6c70acd279ac65392145df928290030190a15050506105aa806100b66000396000f3fe608060405234801561001057600080fd5b506004361061005d577c0100000000000000000000000000000000000000000000000000000000600035046319ab453c81146100625780635a1db8c41461008a5780639be65a60146100b8575b600080fd5b6100886004803603602081101561007857600080fd5b5035600160a060020a03166100de565b005b610088600480360360408110156100a057600080fd5b50600160a060020a0381358116916020013516610196565b610088600480360360208110156100ce57600080fd5b5035600160a060020a031661037f565b8033600160a060020a0382161461015657604080517f08c379a000000000000000000000000000000000000000000000000000000000815260206004820152601960248201527f424d3a2063616c6c6572206d7573742062652077616c6c657400000000000000604482015290519081900360640190fd5b60408051600160a060020a038416815290517f9fcca3f73f85397e2bf03647abf243c20b753bd54463ff3cae74de2971c112fa9181900360200190a15050565b816101a181336104b2565b15156101f8576040517f08c379a000000000000000000000000000000000000000000000000000000000815260040180806020018281038252602e815260200180610551602e913960400191505060405180910390fd5b600054604080517f0bcd4ebb000000000000000000000000000000000000000000000000000000008152600160a060020a03858116600483015291519190921691630bcd4ebb916024808301926020929190829003018186803b15801561025e57600080fd5b505afa158015610272573d6000803e3d6000fd5b505050506040513d602081101561028857600080fd5b505115156102f757604080517f08c379a000000000000000000000000000000000000000000000000000000000815260206004820152601c60248201527f424d3a206d6f64756c65206973206e6f74207265676973746572656400000000604482015290519081900360640190fd5b604080517f1f17732d000000000000000000000000000000000000000000000000000000008152600160a060020a03848116600483015260016024830152915191851691631f17732d9160448082019260009290919082900301818387803b15801561036257600080fd5b505af1158015610376573d6000803e3d6000fd5b50505050505050565b604080517f70a082310000000000000000000000000000000000000000000000000000000081523060048201529051600091600160a060020a038416916370a0823191602480820192602092909190829003018186803b1580156103e257600080fd5b505afa1580156103f6573d6000803e3d6000fd5b505050506040513d602081101561040c57600080fd5b505160008054604080517fa9059cbb000000000000000000000000000000000000000000000000000000008152600160a060020a0392831660048201526024810185905290519394509085169263a9059cbb92604480840193602093929083900390910190829087803b15801561048257600080fd5b505af1158015610496573d6000803e3d6000fd5b505050506040513d60208110156104ac57600080fd5b50505050565b600081600160a060020a031683600160a060020a0316638da5cb5b6040518163ffffffff167c010000000000000000000000000000000000000000000000000000000002815260040160206040518083038186803b15801561051357600080fd5b505afa158015610527573d6000803e3d6000fd5b505050506040513d602081101561053d57600080fd5b5051600160a060020a031614939250505056fe424d3a206d73672e73656e646572206d75737420626520616e206f776e657220666f72207468652077616c6c6574a165627a7a72305820d08534051f7f4c6570858f30c50bff7a9c46ce3ba542e21a540e15a97fb42cb80029",
  "source": "pragma solidity ^0.5.4;\nimport \"../../wallet/BaseWallet.sol\";\nimport \"../../upgrade/ModuleRegistry.sol\";\nimport \"../../storage/GuardianStorage.sol\";\nimport \"../../interfaces/Module.sol\";\nimport \"../../exchange/ERC20.sol\";\n\n/**\n * @title BaseModule\n * @dev Basic module that contains some methods common to all modules.\n * @author Julien Niset - <julien@argent.im>\n */\ncontract BaseModule is Module {\n\n    // Empty calldata\n    bytes constant internal EMPTY_BYTES = \"\";\n\n    // The adddress of the module registry.\n    ModuleRegistry internal registry;\n    // The address of the Guardian storage\n    GuardianStorage internal guardianStorage;\n\n    /**\n     * @dev Throws if the wallet is locked.\n     */\n    modifier onlyWhenUnlocked(BaseWallet _wallet) {\n        // solium-disable-next-line security/no-block-members\n        require(!guardianStorage.isLocked(_wallet), \"BM: wallet must be unlocked\");\n        _;\n    }\n\n    event ModuleCreated(bytes32 name);\n    event ModuleInitialised(address wallet);\n\n    constructor(ModuleRegistry _registry, GuardianStorage _guardianStorage, bytes32 _name) public {\n        registry = _registry;\n        guardianStorage = _guardianStorage;\n        emit ModuleCreated(_name);\n    }\n\n    /**\n     * @dev Throws if the sender is not the target wallet of the call.\n     */\n    modifier onlyWallet(BaseWallet _wallet) {\n        require(msg.sender == address(_wallet), \"BM: caller must be wallet\");\n        _;\n    }\n\n    /**\n     * @dev Throws if the sender is not the owner of the target wallet or the module itself.\n     */\n    modifier onlyWalletOwner(BaseWallet _wallet) {\n        require(msg.sender == address(this) || isOwner(_wallet, msg.sender), \"BM: must be an owner for the wallet\");\n        _;\n    }\n\n    /**\n     * @dev Throws if the sender is not the owner of the target wallet.\n     */\n    modifier strictOnlyWalletOwner(BaseWallet _wallet) {\n        require(isOwner(_wallet, msg.sender), \"BM: msg.sender must be an owner for the wallet\");\n        _;\n    }\n\n    /**\n     * @dev Inits the module for a wallet by logging an event.\n     * The method can only be called by the wallet itself.\n     * @param _wallet The wallet.\n     */\n    function init(BaseWallet _wallet) public onlyWallet(_wallet) {\n        emit ModuleInitialised(address(_wallet));\n    }\n\n    /**\n     * @dev Adds a module to a wallet. First checks that the module is registered.\n     * @param _wallet The target wallet.\n     * @param _module The modules to authorise.\n     */\n    function addModule(BaseWallet _wallet, Module _module) external strictOnlyWalletOwner(_wallet) {\n        require(registry.isRegisteredModule(address(_module)), \"BM: module is not registered\");\n        _wallet.authoriseModule(address(_module), true);\n    }\n\n    /**\n    * @dev Utility method enbaling anyone to recover ERC20 token sent to the\n    * module by mistake and transfer them to the Module Registry. \n    * @param _token The token to recover.\n    */\n    function recoverToken(address _token) external {\n        uint total = ERC20(_token).balanceOf(address(this));\n        ERC20(_token).transfer(address(registry), total);\n    }\n\n    /**\n     * @dev Helper method to check if an address is the owner of a target wallet.\n     * @param _wallet The target wallet.\n     * @param _addr The address.\n     */\n    function isOwner(BaseWallet _wallet, address _addr) internal view returns (bool) {\n        return _wallet.owner() == _addr;\n    }\n\n    /**\n     * @dev Helper method to invoke a wallet.\n     * @param _wallet The target wallet.\n     * @param _to The target address for the transaction.\n     * @param _value The value of the transaction.\n     * @param _data The data of the transaction.\n     */\n    function invokeWallet(address _wallet, address _to, uint256 _value, bytes memory _data) internal returns (bytes memory _res) {\n        bool success;\n        // solium-disable-next-line security/no-call-value\n        (success, _res) = _wallet.call(abi.encodeWithSignature(\"invoke(address,uint256,bytes)\", _to, _value, _data));\n        if(success && _res.length > 0) { //_res is empty if _wallet is an \"old\" BaseWallet that can't return output values\n            (_res) = abi.decode(_res, (bytes));\n        } else if (_res.length > 0) {\n            // solium-disable-next-line security/no-inline-assembly\n            assembly {\n                returndatacopy(0, 0, returndatasize)\n                revert(0, returndatasize)\n            }\n        } else if(!success) {\n            revert(\"BM: wallet invoke reverted\");\n        }\n    }\n}",
  "sourcePath": "/home/amxx/Work/Argent/argent-contracts/contracts/modules/common/BaseModule.sol",
  "compiler": {
    "name": "solc",
    "version": "0.5.4+commit.9549d8ff.Emscripten.clang",
    "optimizer": true,
    "runs": 200
  },
  "schemaVersion": "2.2.4",
  "updatedAt": "2020-02-29T16:28:22.570Z"
}