{
  "contractName": "BaseWallet",
  "abi": [
    {
      "constant": true,
      "inputs": [],
      "name": "implementation",
      "outputs": [
        {
          "name": "",
          "type": "address"
        }
      ],
      "payable": false,
      "stateMutability": "view",
      "type": "function"
    },
    {
      "constant": true,
      "inputs": [
        {
          "name": "",
          "type": "bytes4"
        }
      ],
      "name": "enabled",
      "outputs": [
        {
          "name": "",
          "type": "address"
        }
      ],
      "payable": false,
      "stateMutability": "view",
      "type": "function"
    },
    {
      "constant": true,
      "inputs": [],
      "name": "owner",
      "outputs": [
        {
          "name": "",
          "type": "address"
        }
      ],
      "payable": false,
      "stateMutability": "view",
      "type": "function"
    },
    {
      "constant": true,
      "inputs": [
        {
          "name": "",
          "type": "address"
        }
      ],
      "name": "authorised",
      "outputs": [
        {
          "name": "",
          "type": "bool"
        }
      ],
      "payable": false,
      "stateMutability": "view",
      "type": "function"
    },
    {
      "constant": true,
      "inputs": [],
      "name": "modules",
      "outputs": [
        {
          "name": "",
          "type": "uint256"
        }
      ],
      "payable": false,
      "stateMutability": "view",
      "type": "function"
    },
    {
      "payable": true,
      "stateMutability": "payable",
      "type": "fallback"
    },
    {
      "anonymous": false,
      "inputs": [
        {
          "indexed": true,
          "name": "module",
          "type": "address"
        },
        {
          "indexed": false,
          "name": "value",
          "type": "bool"
        }
      ],
      "name": "AuthorisedModule",
      "type": "event"
    },
    {
      "anonymous": false,
      "inputs": [
        {
          "indexed": true,
          "name": "module",
          "type": "address"
        },
        {
          "indexed": true,
          "name": "method",
          "type": "bytes4"
        }
      ],
      "name": "EnabledStaticCall",
      "type": "event"
    },
    {
      "anonymous": false,
      "inputs": [
        {
          "indexed": true,
          "name": "module",
          "type": "address"
        },
        {
          "indexed": true,
          "name": "target",
          "type": "address"
        },
        {
          "indexed": true,
          "name": "value",
          "type": "uint256"
        },
        {
          "indexed": false,
          "name": "data",
          "type": "bytes"
        }
      ],
      "name": "Invoked",
      "type": "event"
    },
    {
      "anonymous": false,
      "inputs": [
        {
          "indexed": true,
          "name": "value",
          "type": "uint256"
        },
        {
          "indexed": true,
          "name": "sender",
          "type": "address"
        },
        {
          "indexed": false,
          "name": "data",
          "type": "bytes"
        }
      ],
      "name": "Received",
      "type": "event"
    },
    {
      "anonymous": false,
      "inputs": [
        {
          "indexed": false,
          "name": "owner",
          "type": "address"
        }
      ],
      "name": "OwnerChanged",
      "type": "event"
    },
    {
      "constant": false,
      "inputs": [
        {
          "name": "_owner",
          "type": "address"
        },
        {
          "name": "_modules",
          "type": "address[]"
        }
      ],
      "name": "init",
      "outputs": [],
      "payable": false,
      "stateMutability": "nonpayable",
      "type": "function"
    },
    {
      "constant": false,
      "inputs": [
        {
          "name": "_module",
          "type": "address"
        },
        {
          "name": "_value",
          "type": "bool"
        }
      ],
      "name": "authoriseModule",
      "outputs": [],
      "payable": false,
      "stateMutability": "nonpayable",
      "type": "function"
    },
    {
      "constant": false,
      "inputs": [
        {
          "name": "_module",
          "type": "address"
        },
        {
          "name": "_method",
          "type": "bytes4"
        }
      ],
      "name": "enableStaticCall",
      "outputs": [],
      "payable": false,
      "stateMutability": "nonpayable",
      "type": "function"
    },
    {
      "constant": false,
      "inputs": [
        {
          "name": "_newOwner",
          "type": "address"
        }
      ],
      "name": "setOwner",
      "outputs": [],
      "payable": false,
      "stateMutability": "nonpayable",
      "type": "function"
    },
    {
      "constant": false,
      "inputs": [
        {
          "name": "_target",
          "type": "address"
        },
        {
          "name": "_value",
          "type": "uint256"
        },
        {
          "name": "_data",
          "type": "bytes"
        }
      ],
      "name": "invoke",
      "outputs": [
        {
          "name": "_result",
          "type": "bytes"
        }
      ],
      "payable": false,
      "stateMutability": "nonpayable",
      "type": "function"
    }
  ],
  "bytecode": "0x608060405234801561001057600080fd5b50610e54806100206000396000f3fe6080604052600436106100ae576000357c0100000000000000000000000000000000000000000000000000000000900480635f54892b116100765780635f54892b146103455780638da5cb5b146103795780638f6f03321461038e578063d6eb1bbf14610495578063f7e80e98146104dc576100ae565b806313af4035146101d657806313da30b2146102095780631f17732d1461024c5780633c5a3cea146102875780635c60da1b14610314575b60003611156101d45760008035600160e060020a031916815260036020526040902054600160a060020a03168015156101525733600160a060020a0316347f606834f57405380c4fb88d1f4850326ad3885f014bab3b568dfbf7a041eef73860003660405180806020018281038252848482818152602001925080828437600083820152604051601f909101601f19169092018290039550909350505050a36101d2565b600160a060020a03811660009081526002602052604090205460ff1615156101ae5760405160e560020a62461bcd028152600401808060200182810382526030815260200180610dd26030913960400191505060405180910390fd5b3660008037600080366000845afa3d6000803e8080156101cd573d6000f35b3d6000fd5b505b005b3480156101e257600080fd5b506101d4600480360360208110156101f957600080fd5b5035600160a060020a0316610503565b34801561021557600080fd5b506101d46004803603604081101561022c57600080fd5b508035600160a060020a03169060200135600160e060020a031916610617565b34801561025857600080fd5b506101d46004803603604081101561026f57600080fd5b50600160a060020a0381351690602001351515610734565b34801561029357600080fd5b506101d4600480360360408110156102aa57600080fd5b600160a060020a0382351691908101906040810160208201356401000000008111156102d557600080fd5b8201836020820111156102e757600080fd5b8035906020019184602083028401116401000000008311171561030957600080fd5b50909250905061090c565b34801561032057600080fd5b50610329610bdb565b60408051600160a060020a039092168252519081900360200190f35b34801561035157600080fd5b506103296004803603602081101561036857600080fd5b5035600160e060020a031916610bea565b34801561038557600080fd5b50610329610c05565b34801561039a57600080fd5b50610420600480360360608110156103b157600080fd5b600160a060020a03823516916020810135918101906060810160408201356401000000008111156103e157600080fd5b8201836020820111156103f357600080fd5b8035906020019184600183028401116401000000008311171561041557600080fd5b509092509050610c14565b6040805160208082528351818301528351919283929083019185019080838360005b8381101561045a578181015183820152602001610442565b50505050905090810190601f1680156104875780820380516001836020036101000a031916815260200191505b509250505060405180910390f35b3480156104a157600080fd5b506104c8600480360360208110156104b857600080fd5b5035600160a060020a0316610d63565b604080519115158252519081900360200190f35b3480156104e857600080fd5b506104f1610d78565b60408051918252519081900360200190f35b3360009081526002602052604090205460ff1615156105565760405160e560020a62461bcd028152600401808060200182810382526027815260200180610e026027913960400191505060405180910390fd5b600160a060020a03811615156105b6576040805160e560020a62461bcd02815260206004820152601a60248201527f42573a20616464726573732063616e6e6f74206265206e756c6c000000000000604482015290519081900360640190fd5b60018054600160a060020a03831673ffffffffffffffffffffffffffffffffffffffff19909116811790915560408051918252517fa2ea9883a321a3e97b8266c2b078bfeec6d50c711ed71f874a90d500ae2eaf369181900360200190a150565b3360009081526002602052604090205460ff16151561066a5760405160e560020a62461bcd028152600401808060200182810382526027815260200180610e026027913960400191505060405180910390fd5b600160a060020a03821660009081526002602052604090205460ff1615156106c65760405160e560020a62461bcd028152600401808060200182810382526030815260200180610dd26030913960400191505060405180910390fd5b600160e060020a03198116600081815260036020526040808220805473ffffffffffffffffffffffffffffffffffffffff1916600160a060020a038716908117909155905190917fd04b9de96b5ba21173fd97c509db394c9e07a59ffb10c26da7f6ce38a8102fcb91a35050565b3360009081526002602052604090205460ff1615156107875760405160e560020a62461bcd028152600401808060200182810382526027815260200180610e026027913960400191505060405180910390fd5b600160a060020a03821660009081526002602052604090205460ff16151581151514610908576040805182151581529051600160a060020a038416917f8da3ff870ae294081392139550e167f1f31f277f22015ee22fbffdbd7758f4e1919081900360200190a26001811515141561089a576004805460019081018255600160a060020a038416600081815260026020526040808220805460ff191690941790935582517f19ab453c0000000000000000000000000000000000000000000000000000000081523094810194909452915190926319ab453c92602480830193919282900301818387803b15801561087d57600080fd5b505af1158015610891573d6000803e3d6000fd5b50505050610908565b6004805460001901908190556000106108e75760405160e560020a62461bcd028152600401808060200182810382526028815260200180610d7f6028913960400191505060405180910390fd5b600160a060020a0382166000908152600260205260409020805460ff191690555b5050565b600154600160a060020a03161580156109255750600454155b151561097b576040805160e560020a62461bcd02815260206004820152601e60248201527f42573a2077616c6c657420616c726561647920696e697469616c697365640000604482015290519081900360640190fd5b600081116109bd5760405160e560020a62461bcd02815260040180806020018281038252602b815260200180610da7602b913960400191505060405180910390fd5b6001805473ffffffffffffffffffffffffffffffffffffffff1916600160a060020a038516179055600481905560005b81811015610bd55760026000848484818110610a0557fe5b60209081029290920135600160a060020a03168352508101919091526040016000205460ff1615610a80576040805160e560020a62461bcd02815260206004820152601b60248201527f42573a206d6f64756c6520697320616c72656164792061646465640000000000604482015290519081900360640190fd5b600160026000858585818110610a9257fe5b60209081029290920135600160a060020a0316835250810191909152604001600020805460ff1916911515919091179055828282818110610acf57fe5b90506020020135600160a060020a0316600160a060020a03166319ab453c306040518263ffffffff167c01000000000000000000000000000000000000000000000000000000000281526004018082600160a060020a0316600160a060020a03168152602001915050600060405180830381600087803b158015610b5257600080fd5b505af1158015610b66573d6000803e3d6000fd5b505050508282828181101515610b7857fe5b90506020020135600160a060020a0316600160a060020a03167f8da3ff870ae294081392139550e167f1f31f277f22015ee22fbffdbd7758f4e16001604051808215151515815260200191505060405180910390a26001016109ed565b50505050565b600054600160a060020a031681565b600360205260009081526040902054600160a060020a031681565b600154600160a060020a031681565b3360009081526002602052604090205460609060ff161515610c6a5760405160e560020a62461bcd028152600401808060200182810382526027815260200180610e026027913960400191505060405180910390fd5b600085600160a060020a0316858585604051808383808284376040519201945060009350909150508083038185875af1925050503d8060008114610cca576040519150601f19603f3d011682016040523d82523d6000602084013e610ccf565b606091505b5092509050801515610ce5573d6000803e3d6000fd5b8486600160a060020a031633600160a060020a03167f7d2476ab50663f025cff0be85655bcf355f62768615c0c478f3cd5293f807365878760405180806020018281038252848482818152602001925080828437600083820152604051601f909101601f19169092018290039550909350505050a450949350505050565b60026020526000908152604090205460ff1681565b6004548156fe42573a2077616c6c6574206d7573742068617665206174206c65617374206f6e65206d6f64756c6542573a20636f6e737472756374696f6e207265717569726573206174206c656173742031206d6f64756c6542573a206d75737420626520616e20617574686f7269736564206d6f64756c6520666f72207374617469632063616c6c42573a206d73672e73656e646572206e6f7420616e20617574686f72697a6564206d6f64756c65a165627a7a7230582037d0e31908520b9dbe9efe2e1efc18f87fbfe6a3d7309dda9f891718b4eb244b0029",
  "source": "pragma solidity ^0.5.4;\nimport \"../interfaces/Module.sol\";\n\n/**\n * @title BaseWallet\n * @dev Simple modular wallet that authorises modules to call its invoke() method.\n * Based on https://gist.github.com/Arachnid/a619d31f6d32757a4328a428286da186 by \n * @author Julien Niset - <julien@argent.im>\n */\ncontract BaseWallet {\n\n    // The implementation of the proxy\n    address public implementation;\n    // The owner \n    address public owner;\n    // The authorised modules\n    mapping (address => bool) public authorised;\n    // The enabled static calls\n    mapping (bytes4 => address) public enabled;\n    // The number of modules\n    uint public modules;\n    \n    event AuthorisedModule(address indexed module, bool value);\n    event EnabledStaticCall(address indexed module, bytes4 indexed method);\n    event Invoked(address indexed module, address indexed target, uint indexed value, bytes data);\n    event Received(uint indexed value, address indexed sender, bytes data);\n    event OwnerChanged(address owner);\n    \n    /**\n     * @dev Throws if the sender is not an authorised module.\n     */\n    modifier moduleOnly {\n        require(authorised[msg.sender], \"BW: msg.sender not an authorized module\");\n        _;\n    }\n\n    /**\n     * @dev Inits the wallet by setting the owner and authorising a list of modules.\n     * @param _owner The owner.\n     * @param _modules The modules to authorise.\n     */\n    function init(address _owner, address[] calldata _modules) external {\n        require(owner == address(0) && modules == 0, \"BW: wallet already initialised\");\n        require(_modules.length > 0, \"BW: construction requires at least 1 module\");\n        owner = _owner;\n        modules = _modules.length;\n        for(uint256 i = 0; i < _modules.length; i++) {\n            require(authorised[_modules[i]] == false, \"BW: module is already added\");\n            authorised[_modules[i]] = true;\n            Module(_modules[i]).init(this);\n            emit AuthorisedModule(_modules[i], true);\n        }\n    }\n    \n    /**\n     * @dev Enables/Disables a module.\n     * @param _module The target module.\n     * @param _value Set to true to authorise the module.\n     */\n    function authoriseModule(address _module, bool _value) external moduleOnly {\n        if (authorised[_module] != _value) {\n            emit AuthorisedModule(_module, _value);\n            if(_value == true) {\n                modules += 1;\n                authorised[_module] = true;\n                Module(_module).init(this);\n            }\n            else {\n                modules -= 1;\n                require(modules > 0, \"BW: wallet must have at least one module\");\n                delete authorised[_module];\n            }\n        }\n    }\n\n    /**\n    * @dev Enables a static method by specifying the target module to which the call\n    * must be delegated.\n    * @param _module The target module.\n    * @param _method The static method signature.\n    */\n    function enableStaticCall(address _module, bytes4 _method) external moduleOnly {\n        require(authorised[_module], \"BW: must be an authorised module for static call\");\n        enabled[_method] = _module;\n        emit EnabledStaticCall(_module, _method);\n    }\n\n    /**\n     * @dev Sets a new owner for the wallet.\n     * @param _newOwner The new owner.\n     */\n    function setOwner(address _newOwner) external moduleOnly {\n        require(_newOwner != address(0), \"BW: address cannot be null\");\n        owner = _newOwner;\n        emit OwnerChanged(_newOwner);\n    }\n    \n    /**\n     * @dev Performs a generic transaction.\n     * @param _target The address for the transaction.\n     * @param _value The value of the transaction.\n     * @param _data The data of the transaction.\n     */\n    function invoke(address _target, uint _value, bytes calldata _data) external moduleOnly returns (bytes memory _result) {\n        bool success;\n        // solium-disable-next-line security/no-call-value\n        (success, _result) = _target.call.value(_value)(_data);\n        if(!success) {\n            // solium-disable-next-line security/no-inline-assembly\n            assembly {\n                returndatacopy(0, 0, returndatasize)\n                revert(0, returndatasize)\n            }\n        }\n        emit Invoked(msg.sender, _target, _value, _data);\n    }\n\n    /**\n     * @dev This method makes it possible for the wallet to comply to interfaces expecting the wallet to\n     * implement specific static methods. It delegates the static call to a target contract if the data corresponds\n     * to an enabled method, or logs the call otherwise.\n     */\n    function() external payable {\n        if(msg.data.length > 0) { \n            address module = enabled[msg.sig];\n            if(module == address(0)) {\n                emit Received(msg.value, msg.sender, msg.data);\n            } \n            else {\n                require(authorised[module], \"BW: must be an authorised module for static call\");\n                // solium-disable-next-line security/no-inline-assembly\n                assembly {\n                    calldatacopy(0, 0, calldatasize())\n                    let result := staticcall(gas, module, 0, calldatasize(), 0, 0)\n                    returndatacopy(0, 0, returndatasize())\n                    switch result \n                    case 0 {revert(0, returndatasize())} \n                    default {return (0, returndatasize())}\n                }\n            }\n        }\n    }\n}",
  "sourcePath": "/home/amxx/Work/Argent/argent-contracts/contracts/wallet/BaseWallet.sol",
  "compiler": {
    "name": "solc",
    "version": "0.5.4+commit.9549d8ff.Emscripten.clang",
    "optimizer": true,
    "runs": 200
  },
  "schemaVersion": "2.2.4",
  "updatedAt": "2020-02-29T16:28:22.663Z"
}