{
  "contractName": "CErc20",
  "abi": [
    {
      "constant": true,
      "inputs": [],
      "name": "name",
      "outputs": [
        {
          "name": "",
          "type": "string"
        }
      ],
      "payable": false,
      "stateMutability": "view",
      "type": "function"
    },
    {
      "constant": false,
      "inputs": [
        {
          "name": "spender",
          "type": "address"
        },
        {
          "name": "amount",
          "type": "uint256"
        }
      ],
      "name": "approve",
      "outputs": [
        {
          "name": "",
          "type": "bool"
        }
      ],
      "payable": false,
      "stateMutability": "nonpayable",
      "type": "function"
    },
    {
      "constant": true,
      "inputs": [],
      "name": "reserveFactorMantissa",
      "outputs": [
        {
          "name": "",
          "type": "uint256"
        }
      ],
      "payable": false,
      "stateMutability": "view",
      "type": "function"
    },
    {
      "constant": false,
      "inputs": [
        {
          "name": "account",
          "type": "address"
        }
      ],
      "name": "borrowBalanceCurrent",
      "outputs": [
        {
          "name": "",
          "type": "uint256"
        }
      ],
      "payable": false,
      "stateMutability": "nonpayable",
      "type": "function"
    },
    {
      "constant": true,
      "inputs": [],
      "name": "totalSupply",
      "outputs": [
        {
          "name": "",
          "type": "uint256"
        }
      ],
      "payable": false,
      "stateMutability": "view",
      "type": "function"
    },
    {
      "constant": true,
      "inputs": [],
      "name": "exchangeRateStored",
      "outputs": [
        {
          "name": "",
          "type": "uint256"
        }
      ],
      "payable": false,
      "stateMutability": "view",
      "type": "function"
    },
    {
      "constant": false,
      "inputs": [
        {
          "name": "src",
          "type": "address"
        },
        {
          "name": "dst",
          "type": "address"
        },
        {
          "name": "amount",
          "type": "uint256"
        }
      ],
      "name": "transferFrom",
      "outputs": [
        {
          "name": "",
          "type": "bool"
        }
      ],
      "payable": false,
      "stateMutability": "nonpayable",
      "type": "function"
    },
    {
      "constant": true,
      "inputs": [],
      "name": "pendingAdmin",
      "outputs": [
        {
          "name": "",
          "type": "address"
        }
      ],
      "payable": false,
      "stateMutability": "view",
      "type": "function"
    },
    {
      "constant": true,
      "inputs": [],
      "name": "decimals",
      "outputs": [
        {
          "name": "",
          "type": "uint256"
        }
      ],
      "payable": false,
      "stateMutability": "view",
      "type": "function"
    },
    {
      "constant": false,
      "inputs": [
        {
          "name": "owner",
          "type": "address"
        }
      ],
      "name": "balanceOfUnderlying",
      "outputs": [
        {
          "name": "",
          "type": "uint256"
        }
      ],
      "payable": false,
      "stateMutability": "nonpayable",
      "type": "function"
    },
    {
      "constant": true,
      "inputs": [],
      "name": "getCash",
      "outputs": [
        {
          "name": "",
          "type": "uint256"
        }
      ],
      "payable": false,
      "stateMutability": "view",
      "type": "function"
    },
    {
      "constant": false,
      "inputs": [
        {
          "name": "newComptroller",
          "type": "address"
        }
      ],
      "name": "_setComptroller",
      "outputs": [
        {
          "name": "",
          "type": "uint256"
        }
      ],
      "payable": false,
      "stateMutability": "nonpayable",
      "type": "function"
    },
    {
      "constant": true,
      "inputs": [],
      "name": "totalBorrows",
      "outputs": [
        {
          "name": "",
          "type": "uint256"
        }
      ],
      "payable": false,
      "stateMutability": "view",
      "type": "function"
    },
    {
      "constant": true,
      "inputs": [],
      "name": "comptroller",
      "outputs": [
        {
          "name": "",
          "type": "address"
        }
      ],
      "payable": false,
      "stateMutability": "view",
      "type": "function"
    },
    {
      "constant": false,
      "inputs": [
        {
          "name": "reduceAmount",
          "type": "uint256"
        }
      ],
      "name": "_reduceReserves",
      "outputs": [
        {
          "name": "",
          "type": "uint256"
        }
      ],
      "payable": false,
      "stateMutability": "nonpayable",
      "type": "function"
    },
    {
      "constant": true,
      "inputs": [],
      "name": "initialExchangeRateMantissa",
      "outputs": [
        {
          "name": "",
          "type": "uint256"
        }
      ],
      "payable": false,
      "stateMutability": "view",
      "type": "function"
    },
    {
      "constant": true,
      "inputs": [],
      "name": "accrualBlockNumber",
      "outputs": [
        {
          "name": "",
          "type": "uint256"
        }
      ],
      "payable": false,
      "stateMutability": "view",
      "type": "function"
    },
    {
      "constant": true,
      "inputs": [],
      "name": "underlying",
      "outputs": [
        {
          "name": "",
          "type": "address"
        }
      ],
      "payable": false,
      "stateMutability": "view",
      "type": "function"
    },
    {
      "constant": true,
      "inputs": [
        {
          "name": "owner",
          "type": "address"
        }
      ],
      "name": "balanceOf",
      "outputs": [
        {
          "name": "",
          "type": "uint256"
        }
      ],
      "payable": false,
      "stateMutability": "view",
      "type": "function"
    },
    {
      "constant": false,
      "inputs": [],
      "name": "totalBorrowsCurrent",
      "outputs": [
        {
          "name": "",
          "type": "uint256"
        }
      ],
      "payable": false,
      "stateMutability": "nonpayable",
      "type": "function"
    },
    {
      "constant": true,
      "inputs": [],
      "name": "totalReserves",
      "outputs": [
        {
          "name": "",
          "type": "uint256"
        }
      ],
      "payable": false,
      "stateMutability": "view",
      "type": "function"
    },
    {
      "constant": true,
      "inputs": [],
      "name": "symbol",
      "outputs": [
        {
          "name": "",
          "type": "string"
        }
      ],
      "payable": false,
      "stateMutability": "view",
      "type": "function"
    },
    {
      "constant": true,
      "inputs": [
        {
          "name": "account",
          "type": "address"
        }
      ],
      "name": "borrowBalanceStored",
      "outputs": [
        {
          "name": "",
          "type": "uint256"
        }
      ],
      "payable": false,
      "stateMutability": "view",
      "type": "function"
    },
    {
      "constant": false,
      "inputs": [],
      "name": "accrueInterest",
      "outputs": [
        {
          "name": "",
          "type": "uint256"
        }
      ],
      "payable": false,
      "stateMutability": "nonpayable",
      "type": "function"
    },
    {
      "constant": false,
      "inputs": [
        {
          "name": "dst",
          "type": "address"
        },
        {
          "name": "amount",
          "type": "uint256"
        }
      ],
      "name": "transfer",
      "outputs": [
        {
          "name": "",
          "type": "bool"
        }
      ],
      "payable": false,
      "stateMutability": "nonpayable",
      "type": "function"
    },
    {
      "constant": true,
      "inputs": [],
      "name": "borrowIndex",
      "outputs": [
        {
          "name": "",
          "type": "uint256"
        }
      ],
      "payable": false,
      "stateMutability": "view",
      "type": "function"
    },
    {
      "constant": true,
      "inputs": [],
      "name": "supplyRatePerBlock",
      "outputs": [
        {
          "name": "",
          "type": "uint256"
        }
      ],
      "payable": false,
      "stateMutability": "view",
      "type": "function"
    },
    {
      "constant": false,
      "inputs": [
        {
          "name": "liquidator",
          "type": "address"
        },
        {
          "name": "borrower",
          "type": "address"
        },
        {
          "name": "seizeTokens",
          "type": "uint256"
        }
      ],
      "name": "seize",
      "outputs": [
        {
          "name": "",
          "type": "uint256"
        }
      ],
      "payable": false,
      "stateMutability": "nonpayable",
      "type": "function"
    },
    {
      "constant": false,
      "inputs": [
        {
          "name": "newPendingAdmin",
          "type": "address"
        }
      ],
      "name": "_setPendingAdmin",
      "outputs": [
        {
          "name": "",
          "type": "uint256"
        }
      ],
      "payable": false,
      "stateMutability": "nonpayable",
      "type": "function"
    },
    {
      "constant": false,
      "inputs": [],
      "name": "exchangeRateCurrent",
      "outputs": [
        {
          "name": "",
          "type": "uint256"
        }
      ],
      "payable": false,
      "stateMutability": "nonpayable",
      "type": "function"
    },
    {
      "constant": true,
      "inputs": [
        {
          "name": "account",
          "type": "address"
        }
      ],
      "name": "getAccountSnapshot",
      "outputs": [
        {
          "name": "",
          "type": "uint256"
        },
        {
          "name": "",
          "type": "uint256"
        },
        {
          "name": "",
          "type": "uint256"
        },
        {
          "name": "",
          "type": "uint256"
        }
      ],
      "payable": false,
      "stateMutability": "view",
      "type": "function"
    },
    {
      "constant": true,
      "inputs": [
        {
          "name": "owner",
          "type": "address"
        },
        {
          "name": "spender",
          "type": "address"
        }
      ],
      "name": "allowance",
      "outputs": [
        {
          "name": "",
          "type": "uint256"
        }
      ],
      "payable": false,
      "stateMutability": "view",
      "type": "function"
    },
    {
      "constant": false,
      "inputs": [],
      "name": "_acceptAdmin",
      "outputs": [
        {
          "name": "",
          "type": "uint256"
        }
      ],
      "payable": false,
      "stateMutability": "nonpayable",
      "type": "function"
    },
    {
      "constant": false,
      "inputs": [
        {
          "name": "newInterestRateModel",
          "type": "address"
        }
      ],
      "name": "_setInterestRateModel",
      "outputs": [
        {
          "name": "",
          "type": "uint256"
        }
      ],
      "payable": false,
      "stateMutability": "nonpayable",
      "type": "function"
    },
    {
      "constant": true,
      "inputs": [],
      "name": "interestRateModel",
      "outputs": [
        {
          "name": "",
          "type": "address"
        }
      ],
      "payable": false,
      "stateMutability": "view",
      "type": "function"
    },
    {
      "constant": true,
      "inputs": [],
      "name": "admin",
      "outputs": [
        {
          "name": "",
          "type": "address"
        }
      ],
      "payable": false,
      "stateMutability": "view",
      "type": "function"
    },
    {
      "constant": true,
      "inputs": [],
      "name": "borrowRatePerBlock",
      "outputs": [
        {
          "name": "",
          "type": "uint256"
        }
      ],
      "payable": false,
      "stateMutability": "view",
      "type": "function"
    },
    {
      "constant": false,
      "inputs": [
        {
          "name": "newReserveFactorMantissa",
          "type": "uint256"
        }
      ],
      "name": "_setReserveFactor",
      "outputs": [
        {
          "name": "",
          "type": "uint256"
        }
      ],
      "payable": false,
      "stateMutability": "nonpayable",
      "type": "function"
    },
    {
      "constant": true,
      "inputs": [],
      "name": "isCToken",
      "outputs": [
        {
          "name": "",
          "type": "bool"
        }
      ],
      "payable": false,
      "stateMutability": "view",
      "type": "function"
    },
    {
      "inputs": [
        {
          "name": "underlying_",
          "type": "address"
        },
        {
          "name": "comptroller_",
          "type": "address"
        },
        {
          "name": "interestRateModel_",
          "type": "address"
        },
        {
          "name": "initialExchangeRateMantissa_",
          "type": "uint256"
        },
        {
          "name": "name_",
          "type": "string"
        },
        {
          "name": "symbol_",
          "type": "string"
        },
        {
          "name": "decimals_",
          "type": "uint256"
        }
      ],
      "payable": false,
      "stateMutability": "nonpayable",
      "type": "constructor"
    },
    {
      "anonymous": false,
      "inputs": [
        {
          "indexed": false,
          "name": "interestAccumulated",
          "type": "uint256"
        },
        {
          "indexed": false,
          "name": "borrowIndex",
          "type": "uint256"
        },
        {
          "indexed": false,
          "name": "totalBorrows",
          "type": "uint256"
        }
      ],
      "name": "AccrueInterest",
      "type": "event"
    },
    {
      "anonymous": false,
      "inputs": [
        {
          "indexed": false,
          "name": "minter",
          "type": "address"
        },
        {
          "indexed": false,
          "name": "mintAmount",
          "type": "uint256"
        },
        {
          "indexed": false,
          "name": "mintTokens",
          "type": "uint256"
        }
      ],
      "name": "Mint",
      "type": "event"
    },
    {
      "anonymous": false,
      "inputs": [
        {
          "indexed": false,
          "name": "redeemer",
          "type": "address"
        },
        {
          "indexed": false,
          "name": "redeemAmount",
          "type": "uint256"
        },
        {
          "indexed": false,
          "name": "redeemTokens",
          "type": "uint256"
        }
      ],
      "name": "Redeem",
      "type": "event"
    },
    {
      "anonymous": false,
      "inputs": [
        {
          "indexed": false,
          "name": "borrower",
          "type": "address"
        },
        {
          "indexed": false,
          "name": "borrowAmount",
          "type": "uint256"
        },
        {
          "indexed": false,
          "name": "accountBorrows",
          "type": "uint256"
        },
        {
          "indexed": false,
          "name": "totalBorrows",
          "type": "uint256"
        }
      ],
      "name": "Borrow",
      "type": "event"
    },
    {
      "anonymous": false,
      "inputs": [
        {
          "indexed": false,
          "name": "payer",
          "type": "address"
        },
        {
          "indexed": false,
          "name": "borrower",
          "type": "address"
        },
        {
          "indexed": false,
          "name": "repayAmount",
          "type": "uint256"
        },
        {
          "indexed": false,
          "name": "accountBorrows",
          "type": "uint256"
        },
        {
          "indexed": false,
          "name": "totalBorrows",
          "type": "uint256"
        }
      ],
      "name": "RepayBorrow",
      "type": "event"
    },
    {
      "anonymous": false,
      "inputs": [
        {
          "indexed": false,
          "name": "liquidator",
          "type": "address"
        },
        {
          "indexed": false,
          "name": "borrower",
          "type": "address"
        },
        {
          "indexed": false,
          "name": "repayAmount",
          "type": "uint256"
        },
        {
          "indexed": false,
          "name": "cTokenCollateral",
          "type": "address"
        },
        {
          "indexed": false,
          "name": "seizeTokens",
          "type": "uint256"
        }
      ],
      "name": "LiquidateBorrow",
      "type": "event"
    },
    {
      "anonymous": false,
      "inputs": [
        {
          "indexed": false,
          "name": "oldPendingAdmin",
          "type": "address"
        },
        {
          "indexed": false,
          "name": "newPendingAdmin",
          "type": "address"
        }
      ],
      "name": "NewPendingAdmin",
      "type": "event"
    },
    {
      "anonymous": false,
      "inputs": [
        {
          "indexed": false,
          "name": "oldAdmin",
          "type": "address"
        },
        {
          "indexed": false,
          "name": "newAdmin",
          "type": "address"
        }
      ],
      "name": "NewAdmin",
      "type": "event"
    },
    {
      "anonymous": false,
      "inputs": [
        {
          "indexed": false,
          "name": "oldComptroller",
          "type": "address"
        },
        {
          "indexed": false,
          "name": "newComptroller",
          "type": "address"
        }
      ],
      "name": "NewComptroller",
      "type": "event"
    },
    {
      "anonymous": false,
      "inputs": [
        {
          "indexed": false,
          "name": "oldInterestRateModel",
          "type": "address"
        },
        {
          "indexed": false,
          "name": "newInterestRateModel",
          "type": "address"
        }
      ],
      "name": "NewMarketInterestRateModel",
      "type": "event"
    },
    {
      "anonymous": false,
      "inputs": [
        {
          "indexed": false,
          "name": "oldReserveFactorMantissa",
          "type": "uint256"
        },
        {
          "indexed": false,
          "name": "newReserveFactorMantissa",
          "type": "uint256"
        }
      ],
      "name": "NewReserveFactor",
      "type": "event"
    },
    {
      "anonymous": false,
      "inputs": [
        {
          "indexed": false,
          "name": "admin",
          "type": "address"
        },
        {
          "indexed": false,
          "name": "reduceAmount",
          "type": "uint256"
        },
        {
          "indexed": false,
          "name": "newTotalReserves",
          "type": "uint256"
        }
      ],
      "name": "ReservesReduced",
      "type": "event"
    },
    {
      "anonymous": false,
      "inputs": [
        {
          "indexed": false,
          "name": "error",
          "type": "uint256"
        },
        {
          "indexed": false,
          "name": "info",
          "type": "uint256"
        },
        {
          "indexed": false,
          "name": "detail",
          "type": "uint256"
        }
      ],
      "name": "Failure",
      "type": "event"
    },
    {
      "anonymous": false,
      "inputs": [
        {
          "indexed": true,
          "name": "from",
          "type": "address"
        },
        {
          "indexed": true,
          "name": "to",
          "type": "address"
        },
        {
          "indexed": false,
          "name": "amount",
          "type": "uint256"
        }
      ],
      "name": "Transfer",
      "type": "event"
    },
    {
      "anonymous": false,
      "inputs": [
        {
          "indexed": true,
          "name": "owner",
          "type": "address"
        },
        {
          "indexed": true,
          "name": "spender",
          "type": "address"
        },
        {
          "indexed": false,
          "name": "amount",
          "type": "uint256"
        }
      ],
      "name": "Approval",
      "type": "event"
    },
    {
      "constant": false,
      "inputs": [
        {
          "name": "mintAmount",
          "type": "uint256"
        }
      ],
      "name": "mint",
      "outputs": [
        {
          "name": "",
          "type": "uint256"
        }
      ],
      "payable": false,
      "stateMutability": "nonpayable",
      "type": "function"
    },
    {
      "constant": false,
      "inputs": [
        {
          "name": "redeemTokens",
          "type": "uint256"
        }
      ],
      "name": "redeem",
      "outputs": [
        {
          "name": "",
          "type": "uint256"
        }
      ],
      "payable": false,
      "stateMutability": "nonpayable",
      "type": "function"
    },
    {
      "constant": false,
      "inputs": [
        {
          "name": "redeemAmount",
          "type": "uint256"
        }
      ],
      "name": "redeemUnderlying",
      "outputs": [
        {
          "name": "",
          "type": "uint256"
        }
      ],
      "payable": false,
      "stateMutability": "nonpayable",
      "type": "function"
    },
    {
      "constant": false,
      "inputs": [
        {
          "name": "borrowAmount",
          "type": "uint256"
        }
      ],
      "name": "borrow",
      "outputs": [
        {
          "name": "",
          "type": "uint256"
        }
      ],
      "payable": false,
      "stateMutability": "nonpayable",
      "type": "function"
    },
    {
      "constant": false,
      "inputs": [
        {
          "name": "repayAmount",
          "type": "uint256"
        }
      ],
      "name": "repayBorrow",
      "outputs": [
        {
          "name": "",
          "type": "uint256"
        }
      ],
      "payable": false,
      "stateMutability": "nonpayable",
      "type": "function"
    },
    {
      "constant": false,
      "inputs": [
        {
          "name": "borrower",
          "type": "address"
        },
        {
          "name": "repayAmount",
          "type": "uint256"
        }
      ],
      "name": "repayBorrowBehalf",
      "outputs": [
        {
          "name": "",
          "type": "uint256"
        }
      ],
      "payable": false,
      "stateMutability": "nonpayable",
      "type": "function"
    },
    {
      "constant": false,
      "inputs": [
        {
          "name": "borrower",
          "type": "address"
        },
        {
          "name": "repayAmount",
          "type": "uint256"
        },
        {
          "name": "cTokenCollateral",
          "type": "address"
        }
      ],
      "name": "liquidateBorrow",
      "outputs": [
        {
          "name": "",
          "type": "uint256"
        }
      ],
      "payable": false,
      "stateMutability": "nonpayable",
      "type": "function"
    }
  ],
  "bytecode": "0x60806040523480156200001157600080fd5b50604051620054c0380380620054c0833981018060405260e08110156200003757600080fd5b8151602083015160408401516060850151608086018051949693959294919392830192916401000000008111156200006e57600080fd5b820160208101848111156200008257600080fd5b81516401000000008111828201871017156200009d57600080fd5b50509291906020018051640100000000811115620000ba57600080fd5b82016020810184811115620000ce57600080fd5b8151640100000000811182820187101715620000e957600080fd5b50506020909101516001600090815560048054600160a060020a0319163317905560088790559193509150869086908690869086908690841162000179576040517f08c379a0000000000000000000000000000000000000000000000000000000008152600401808060200182810382526030815260200180620054906030913960400191505060405180910390fd5b60006200018f8764010000000062000375810204565b90508015620001ff57604080517f08c379a000000000000000000000000000000000000000000000000000000000815260206004820152601a60248201527f53657474696e6720636f6d7074726f6c6c6572206661696c6564000000000000604482015290519081900360640190fd5b620002126401000000006200050d810204565b600a55670de0b6b3a7640000600b55620002358664010000000062000512810204565b9050801562000290576040517f08c379a00000000000000000000000000000000000000000000000000000000081526004018080602001828103825260228152602001806200546e6022913960400191505060405180910390fd5b8351620002a59060019060208701906200075b565b508251620002bb9060029060208601906200075b565b5050600355505060128054600160a060020a031916600160a060020a038c81169190911791829055604080517f18160ddd00000000000000000000000000000000000000000000000000000000815290519290911694506318160ddd93506004808201935060209291829003018186803b1580156200033957600080fd5b505afa1580156200034e573d6000803e3d6000fd5b505050506040513d60208110156200036557600080fd5b50620007fd975050505050505050565b600454600090600160a060020a03163314620003aa57620003a26001603f640100000000620006eb810204565b905062000508565b600654604080517e7e3dd20000000000000000000000000000000000000000000000000000000081529051600160a060020a0392831692851691627e3dd2916004808301926020929190829003018186803b1580156200040957600080fd5b505afa1580156200041e573d6000803e3d6000fd5b505050506040513d60208110156200043557600080fd5b50511515620004a557604080517f08c379a000000000000000000000000000000000000000000000000000000000815260206004820152601c60248201527f6d61726b6572206d6574686f642072657475726e65642066616c736500000000604482015290519081900360640190fd5b60068054600160a060020a031916600160a060020a03858116918217909255604080519284168352602083019190915280517f7ac369dbd14fa5ea3f473ed67cc9d598964a77501540ba6751eb0b3decf5870d9281900390910190a160005b9150505b919050565b435b90565b6004546000908190600160a060020a031633146200054a576200054160016042640100000000620006eb810204565b91505062000508565b6200055d6401000000006200050d810204565b600a54146200057d5762000541600a6041640100000000620006eb810204565b600760009054906101000a9004600160a060020a0316905082600160a060020a0316632191f92a6040518163ffffffff167c010000000000000000000000000000000000000000000000000000000002815260040160206040518083038186803b158015620005eb57600080fd5b505afa15801562000600573d6000803e3d6000fd5b505050506040513d60208110156200061757600080fd5b505115156200068757604080517f08c379a000000000000000000000000000000000000000000000000000000000815260206004820152601c60248201527f6d61726b6572206d6574686f642072657475726e65642066616c736500000000604482015290519081900360640190fd5b60078054600160a060020a031916600160a060020a03858116918217909255604080519284168352602083019190915280517fedffc32e068c7c95dfd4bdfd5c4d939a084d6b11c4199eac8436ed234d72f9269281900390910190a1600062000504565b60007f45b96fe442630264581b197e84bbada861235052c5a1aadfff9ea4e40a969aa08360108111156200071b57fe5b83604d8111156200072857fe5b604080519283526020830191909152600082820152519081900360600190a18260108111156200075457fe5b9392505050565b828054600181600116156101000203166002900490600052602060002090601f016020900481019282601f106200079e57805160ff1916838001178555620007ce565b82800160010185558215620007ce579182015b82811115620007ce578251825591602001919060010190620007b1565b50620007dc929150620007e0565b5090565b6200050f91905b80821115620007dc5760008155600101620007e7565b614c61806200080d6000396000f3fe608060405234801561001057600080fd5b506004361061028e5760003560e060020a900480638f840ddd11610160578063c37f68e2116100d2578063f3fdb15a1161008b578063f3fdb15a1461070c578063f5e3c46214610714578063f851a4401461074a578063f8f9da2814610752578063fca7820b1461075a578063fe9c44ae146107775761028e565b8063c37f68e21461062a578063c5ebeaec14610676578063db006a7514610693578063dd62ed3e146106b0578063e9c714f2146106de578063f2b3abbd146106e65761028e565b8063a9059cbb11610124578063a9059cbb1461058a578063aa5af0fd146105b6578063ae9d70b0146105be578063b2a02ff1146105c6578063b71d1a0c146105fc578063bd6d894d146106225761028e565b80638f840ddd1461052f57806395d89b411461053757806395dd91931461053f578063a0712d6814610565578063a6afed95146105825761028e565b80633af9e66911610204578063675d972c116101bd578063675d972c146104cc5780636c540baf146104d45780636f307dc3146104dc57806370a08231146104e457806373acee981461050a578063852a12e3146105125761028e565b80633af9e6691461044b5780633b1d21a2146104715780634576b5db1461047957806347bd37181461049f5780635fe3b567146104a7578063601a0bf1146104af5761028e565b806318160ddd1161025657806318160ddd146103ad578063182df0f5146103b557806323b872dd146103bd5780632608f818146103f3578063267822471461041f578063313ce567146104435761028e565b806306fdde0314610293578063095ea7b3146103105780630e75270214610350578063173b99041461037f57806317bfdfbc14610387575b600080fd5b61029b61077f565b6040805160208082528351818301528351919283929083019185019080838360005b838110156102d55781810151838201526020016102bd565b50505050905090810190601f1680156103025780820380516001836020036101000a031916815260200191505b509250505060405180910390f35b61033c6004803603604081101561032657600080fd5b50600160a060020a03813516906020013561080c565b604080519115158252519081900360200190f35b61036d6004803603602081101561036657600080fd5b5035610879565b60408051918252519081900360200190f35b61036d61088c565b61036d6004803603602081101561039d57600080fd5b5035600160a060020a0316610892565b61036d610953565b61036d610959565b61033c600480360360608110156103d357600080fd5b50600160a060020a038135811691602081013590911690604001356109bf565b61036d6004803603604081101561040957600080fd5b50600160a060020a038135169060200135610a29565b610427610a3c565b60408051600160a060020a039092168252519081900360200190f35b61036d610a4b565b61036d6004803603602081101561046157600080fd5b5035600160a060020a0316610a51565b61036d610ac0565b61036d6004803603602081101561048f57600080fd5b5035600160a060020a0316610acf565b61036d610c49565b610427610c4f565b61036d600480360360208110156104c557600080fd5b5035610c5e565b61036d610cea565b61036d610cf0565b610427610cf6565b61036d600480360360208110156104fa57600080fd5b5035600160a060020a0316610d05565b61036d610d20565b61036d6004803603602081101561052857600080fd5b5035610dd8565b61036d610de3565b61029b610de9565b61036d6004803603602081101561055557600080fd5b5035600160a060020a0316610e41565b61036d6004803603602081101561057b57600080fd5b5035610ea1565b61036d610eac565b61033c600480360360408110156105a057600080fd5b50600160a060020a0381351690602001356112ad565b61036d611316565b61036d61131c565b61036d600480360360608110156105dc57600080fd5b50600160a060020a038135811691602081013590911690604001356115f7565b61036d6004803603602081101561061257600080fd5b5035600160a060020a03166118de565b61036d611972565b6106506004803603602081101561064057600080fd5b5035600160a060020a0316611a2b565b604080519485526020850193909352838301919091526060830152519081900360800190f35b61036d6004803603602081101561068c57600080fd5b5035611ac0565b61036d600480360360208110156106a957600080fd5b5035611acb565b61036d600480360360408110156106c657600080fd5b50600160a060020a0381358116916020013516611ad6565b61036d611b01565b61036d600480360360208110156106fc57600080fd5b5035600160a060020a0316611bfd565b610427611c37565b61036d6004803603606081101561072a57600080fd5b50600160a060020a03813581169160208101359160409091013516611c46565b610427611c53565b61036d611c62565b61036d6004803603602081101561077057600080fd5b5035611d44565b61033c611d7e565b60018054604080516020600284861615610100026000190190941693909304601f810184900484028201840190925281815292918301828280156108045780601f106107d957610100808354040283529160200191610804565b820191906000526020600020905b8154815290600101906020018083116107e757829003601f168201915b505050505081565b336000818152601060209081526040808320600160a060020a03871680855290835281842086905581518681529151939493909284927f8c5be1e5ebec7d5bd14f71427d1e84f3dd0314c0f7b2291e5b200ac8c7c3b925929081900390910190a360019150505b92915050565b600061088482611d83565b90505b919050565b60095481565b60008054600101808255816108a5610eac565b146108fa576040805160e560020a62461bcd02815260206004820152601660248201527f61636372756520696e746572657374206661696c656400000000000000000000604482015290519081900360640190fd5b61090383610e41565b91505b600054811461094d576040805160e560020a62461bcd02815260206004820152600a6024820152600080516020614a2c833981519152604482015290519081900360640190fd5b50919050565b600e5481565b6000806000610966611dbf565b9092509050600082600381111561097957fe5b146109b85760405160e560020a62461bcd028152600401808060200182810382526035815260200180614ba96035913960400191505060405180910390fd5b9150505b90565b60008054600101808255816109d633878787611e6d565b1491505b6000548114610a21576040805160e560020a62461bcd02815260206004820152600a6024820152600080516020614a2c833981519152604482015290519081900360640190fd5b509392505050565b6000610a3583836121ad565b9392505050565b600554600160a060020a031681565b60035481565b6000610a5b6148e3565b602060405190810160405280610a6f611972565b9052600160a060020a0384166000908152600f6020526040812054919250908190610a9b90849061223b565b90925090506000826003811115610aae57fe5b14610ab857600080fd5b949350505050565b6000610aca61228f565b905090565b600454600090600160a060020a03163314610af757610af06001603f612328565b9050610887565b600654604080517e7e3dd20000000000000000000000000000000000000000000000000000000081529051600160a060020a0392831692851691627e3dd2916004808301926020929190829003018186803b158015610b5557600080fd5b505afa158015610b69573d6000803e3d6000fd5b505050506040513d6020811015610b7f57600080fd5b50511515610bd7576040805160e560020a62461bcd02815260206004820152601c60248201527f6d61726b6572206d6574686f642072657475726e65642066616c736500000000604482015290519081900360640190fd5b6006805473ffffffffffffffffffffffffffffffffffffffff1916600160a060020a03858116918217909255604080519284168352602083019190915280517f7ac369dbd14fa5ea3f473ed67cc9d598964a77501540ba6751eb0b3decf5870d9281900390910190a160009392505050565b600c5481565b600654600160a060020a031681565b6000805460010180825581610c71610eac565b90508015610c9757610c8f816010811115610c8857fe5b6030612328565b925050610906565b610ca08461238e565b925050600054811461094d576040805160e560020a62461bcd02815260206004820152600a6024820152600080516020614a2c833981519152604482015290519081900360640190fd5b60085481565b600a5481565b601254600160a060020a031681565b600160a060020a03166000908152600f602052604090205490565b6000805460010180825581610d33610eac565b14610d88576040805160e560020a62461bcd02815260206004820152601660248201527f61636372756520696e746572657374206661696c656400000000000000000000604482015290519081900360640190fd5b600c5491506000548114610dd4576040805160e560020a62461bcd02815260206004820152600a6024820152600080516020614a2c833981519152604482015290519081900360640190fd5b5090565b600061088482612512565b600d5481565b6002805460408051602060018416156101000260001901909316849004601f810184900484028201840190925281815292918301828280156108045780601f106107d957610100808354040283529160200191610804565b6000806000610e4f8461254f565b90925090506000826003811115610e6257fe5b14610a355760405160e560020a62461bcd028152600401808060200182810382526037815260200180614a7d6037913960400191505060405180910390fd5b600061088482612605565b6000610eb66148f5565b600754600160a060020a03166315f24053610ecf61228f565b600c54600d546040518463ffffffff1660e060020a028152600401808481526020018381526020018281526020019350505050604080518083038186803b158015610f1957600080fd5b505afa158015610f2d573d6000803e3d6000fd5b505050506040513d6040811015610f4357600080fd5b50805160209182015160408401819052918301526601c6bf526340001015610fb5576040805160e560020a62461bcd02815260206004820152601c60248201527f626f72726f772072617465206973206162737572646c79206869676800000000604482015290519081900360640190fd5b602081015115610fd857610fd0600560028360200151612640565b9150506109bc565b610fe06126a6565b60608201819052600a54610ff491906126aa565b608083018190528282600381111561100857fe5b600381111561101357fe5b905250600090508151600381111561102757fe5b1461102e57fe5b61104f602060405190810160405280836040015181525082608001516126cd565b60a083018190528282600381111561106357fe5b600381111561106e57fe5b905250600090508151600381111561108257fe5b146110a357610fd0600960068360000151600381111561109e57fe5b612640565b6110b38160a00151600c5461223b565b60c08301819052828260038111156110c757fe5b60038111156110d257fe5b90525060009050815160038111156110e657fe5b1461110257610fd0600960018360000151600381111561109e57fe5b6111128160c00151600c54612735565b60e083018190528282600381111561112657fe5b600381111561113157fe5b905250600090508151600381111561114557fe5b1461116157610fd0600960048360000151600381111561109e57fe5b6111836020604051908101604052806009548152508260c00151600d5461275b565b61010083018190528282600381111561119857fe5b60038111156111a357fe5b90525060009050815160038111156111b757fe5b146111d357610fd0600960058360000151600381111561109e57fe5b6111e68160a00151600b54600b5461275b565b6101208301819052828260038111156111fb57fe5b600381111561120657fe5b905250600090508151600381111561121a57fe5b1461123657610fd0600960038360000151600381111561109e57fe5b606080820151600a55610120820151600b81905560e0830151600c819055610100840151600d5560c08401516040805191825260208201939093528083019190915290517f875352fb3fadeb8c0be7cbbe8ff761b308fa7033470cd0287f02f3436fd76cb9929181900390910190a1600091505090565b60008054600101808255816112c433338787611e6d565b1491505b600054811461130f576040805160e560020a62461bcd02815260206004820152600a6024820152600080516020614a2c833981519152604482015290519081900360640190fd5b5092915050565b600b5481565b600080611327610959565b6007549091506000908190600160a060020a03166315f2405361134861228f565b600c54600d546040518463ffffffff1660e060020a028152600401808481526020018381526020018281526020019350505050604080518083038186803b15801561139257600080fd5b505afa1580156113a6573d6000803e3d6000fd5b505050506040513d60408110156113bc57600080fd5b5080516020909101519092509050811561140a5760405160e560020a62461bcd028152600401808060200182810382526031815260200180614b1c6031913960400191505060405180910390fd5b60006114146148e3565b61142f60206040519081016040528087815250600e546126cd565b9092509050600082600381111561144257fe5b146114815760405160e560020a62461bcd028152600401808060200182810382526031815260200180614ab46031913960400191505060405180910390fd5b600061148b6148e3565b611497600c54846127b7565b909250905060008260038111156114aa57fe5b146114e95760405160e560020a62461bcd0281526004018080602001828103825260318152602001806149d86031913960400191505060405180910390fd5b60006114f36148e3565b6040805160208181018352670de0b6b3a764000082528251908101909252600954825261151f91612816565b9092509050600082600381111561153257fe5b146115715760405160e560020a62461bcd02815260040180806020018281038252603c815260200180614b6d603c913960400191505060405180910390fd5b600061157b6148e3565b6115956020604051908101604052808b8152508487612850565b909250905060008260038111156115a857fe5b146115e75760405160e560020a62461bcd028152600401808060200182810382526031815260200180614a4c6031913960400191505060405180910390fd5b519a505050505050505050505090565b60008054600101808255600654604080517fd02f7351000000000000000000000000000000000000000000000000000000008152306004820152336024820152600160a060020a03888116604483015287811660648301526084820187905291518593929092169163d02f73519160a48082019260209290919082900301818787803b15801561168657600080fd5b505af115801561169a573d6000803e3d6000fd5b505050506040513d60208110156116b057600080fd5b5051905080156116cf576116c76003601b83612640565b9250506109da565b85600160a060020a031685600160a060020a031614156116f5576116c76006601c612328565b600160a060020a0385166000908152600f60205260408120548190819061171c90886126aa565b9093509150600083600381111561172f57fe5b14611752576117476009601a85600381111561109e57fe5b9550505050506109da565b600160a060020a0389166000908152600f60205260409020546117759088612735565b9093509050600083600381111561178857fe5b146117a0576117476009601985600381111561109e57fe5b600160a060020a038089166000818152600f60209081526040808320879055938d168083529184902085905583518b815293519193600080516020614b4d833981519152929081900390910190a3600654604080517f6d35bf91000000000000000000000000000000000000000000000000000000008152306004820152336024820152600160a060020a038c811660448301528b81166064830152608482018b905291519190921691636d35bf919160a480830192600092919082900301818387803b15801561187057600080fd5b505af1158015611884573d6000803e3d6000fd5b5060009250611891915050565b9550505050506000548114610a21576040805160e560020a62461bcd02815260206004820152600a6024820152600080516020614a2c833981519152604482015290519081900360640190fd5b600454600090600160a060020a031633146118ff57610af060016045612328565b60058054600160a060020a0384811673ffffffffffffffffffffffffffffffffffffffff19831681179093556040805191909216808252602082019390935281517fca4f2f25d0898edd99413412fb94012f9e54ec8142f9b093e7720646a95b16a9929181900390910190a16000610a35565b6000805460010180825581611985610eac565b146119da576040805160e560020a62461bcd02815260206004820152601660248201527f61636372756520696e746572657374206661696c656400000000000000000000604482015290519081900360640190fd5b6119e2610959565b91506000548114610dd4576040805160e560020a62461bcd02815260206004820152600a6024820152600080516020614a2c833981519152604482015290519081900360640190fd5b600160a060020a0381166000908152600f6020526040812054819081908190818080611a568961254f565b935090506000816003811115611a6857fe5b14611a865760095b975060009650869550859450611ab99350505050565b611a8e611dbf565b925090506000816003811115611aa057fe5b14611aac576009611a70565b5060009650919450925090505b9193509193565b60006108848261289a565b6000610884826128d5565b600160a060020a03918216600090815260106020908152604080832093909416825291909152205490565b600554600090600160a060020a031633141580611b1c575033155b15611b3457611b2d60016000612328565b90506109bc565b6004805460058054600160a060020a0380821673ffffffffffffffffffffffffffffffffffffffff1980861682179687905590921690925560408051938316808552949092166020840152815190927ff9ffabca9c8276e99321725bcb43fb076a6c66a54b7f21c4e8146d8519b417dc92908290030190a160055460408051600160a060020a038085168252909216602083015280517fca4f2f25d0898edd99413412fb94012f9e54ec8142f9b093e7720646a95b16a99281900390910190a160009250505090565b600080611c08610eac565b90508015611c2e57611c26816010811115611c1f57fe5b6040612328565b915050610887565b610a358361290b565b600754600160a060020a031681565b6000610ab8848484612a90565b600454600160a060020a031681565b60075460009081908190600160a060020a03166315f24053611c8261228f565b600c54600d546040518463ffffffff1660e060020a028152600401808481526020018381526020018281526020019350505050604080518083038186803b158015611ccc57600080fd5b505afa158015611ce0573d6000803e3d6000fd5b505050506040513d6040811015611cf657600080fd5b508051602090910151909250905081156109b85760405160e560020a62461bcd028152600401808060200182810382526037815260200180614ae56037913960400191505060405180910390fd5b6000805460010180825581611d57610eac565b90508015611d7557610c8f816010811115611d6e57fe5b6046612328565b610ca084612b9f565b600181565b6000805460010180825581611d96610eac565b90508015611db457610c8f816010811115611dad57fe5b6036612328565b610ca0333386612c42565b600080600e5460001415611dda575050600854600090611e69565b6000611de461228f565b90506000611df06148e3565b6000611e0184600c54600d546130ca565b935090506000816003811115611e1357fe5b14611e2757945060009350611e6992505050565b611e3383600e54613108565b925090506000816003811115611e4557fe5b14611e5957945060009350611e6992505050565b5051600094509250611e69915050565b9091565b600654604080517fbdcdc258000000000000000000000000000000000000000000000000000000008152306004820152600160a060020a03868116602483015285811660448301526064820185905291516000938493169163bdcdc25891608480830192602092919082900301818787803b158015611eeb57600080fd5b505af1158015611eff573d6000803e3d6000fd5b505050506040513d6020811015611f1557600080fd5b505190508015611f3457611f2c6003604a83612640565b915050610ab8565b83600160a060020a031685600160a060020a03161415611f5a57611f2c6002604b612328565b6000600160a060020a038781169087161415611f795750600019611fa1565b50600160a060020a038086166000908152601060209081526040808320938a16835292905220545b600080600080611fb185896126aa565b90945092506000846003811115611fc457fe5b14611fe257611fd56009604b612328565b9650505050505050610ab8565b600160a060020a038a166000908152600f602052604090205461200590896126aa565b9094509150600084600381111561201857fe5b1461202957611fd56009604c612328565b600160a060020a0389166000908152600f602052604090205461204c9089612735565b9094509050600084600381111561205f57fe5b1461207057611fd56009604d612328565b600160a060020a03808b166000908152600f6020526040808220859055918b1681522081905560001985146120c857600160a060020a03808b166000908152601060209081526040808320938f168352929052208390555b88600160a060020a03168a600160a060020a0316600080516020614b4d8339815191528a6040518082815260200191505060405180910390a3600654604080517f6a56947e000000000000000000000000000000000000000000000000000000008152306004820152600160a060020a038d811660248301528c81166044830152606482018c905291519190921691636a56947e91608480830192600092919082900301818387803b15801561217d57600080fd5b505af1158015612191573d6000803e3d6000fd5b506000925061219e915050565b9b9a5050505050505050505050565b60008054600101808255816121c0610eac565b905080156121e6576121de8160108111156121d757fe5b6035612328565b9250506112c8565b6121f1338686612c42565b925050600054811461130f576040805160e560020a62461bcd02815260206004820152600a6024820152600080516020614a2c833981519152604482015290519081900360640190fd5b60008060006122486148e3565b61225286866126cd565b9092509050600082600381111561226557fe5b146122765750915060009050612288565b6000612281826131b8565b9350935050505b9250929050565b601254604080517f70a082310000000000000000000000000000000000000000000000000000000081523060048201529051600092600160a060020a03169182916370a0823191602480820192602092909190829003018186803b1580156122f657600080fd5b505afa15801561230a573d6000803e3d6000fd5b505050506040513d602081101561232057600080fd5b505191505090565b60007f45b96fe442630264581b197e84bbada861235052c5a1aadfff9ea4e40a969aa083601081111561235757fe5b83604d81111561236357fe5b604080519283526020830191909152600082820152519081900360600190a1826010811115610a3557fe5b60045460009081908190600160a060020a031633146123bc576123b360016031612328565b92505050610887565b6123c46126a6565b600a54146123d8576123b3600a6033612328565b836123e161228f565b10156123f3576123b3600e6032612328565b600d54841115612409576123b360026034612328565b50600d54838103908111156124525760405160e560020a62461bcd028152600401808060200182810382526024815260200180614c126024913960400191505060405180910390fd5b600d81905560045461246d90600160a060020a0316856131c7565b9150600082601081111561247d57fe5b146124bc5760405160e560020a62461bcd028152600401808060200182810382526023815260200180614a096023913960400191505060405180910390fd5b60045460408051600160a060020a03909216825260208201869052818101839052517f3bad0c59cf2f06e7314077049f48a93578cd16f5ef92329f1dab1420a99c177e9181900360600190a16000949350505050565b6000805460010180825581612525610eac565b9050801561254357610c8f81601081111561253c57fe5b6027612328565b610ca03360008661329e565b600160a060020a038116600090815260116020526040812080548291829182918291151561258857506000945084935061260092505050565b6125988160000154600b546137e5565b909450925060008460038111156125ab57fe5b146125c0575091935060009250612600915050565b6125ce838260010154613828565b909450915060008460038111156125e157fe5b146125f6575091935060009250612600915050565b5060009450925050505b915091565b6000805460010180825581612618610eac565b9050801561263657610c8f81601081111561262f57fe5b601e612328565b610ca03385613857565b60007f45b96fe442630264581b197e84bbada861235052c5a1aadfff9ea4e40a969aa084601081111561266f57fe5b84604d81111561267b57fe5b604080519283526020830191909152818101859052519081900360600190a1836010811115610ab857fe5b4390565b6000808383116126c1575060009050818303612288565b50600390506000612288565b60006126d76148e3565b6000806126e88660000151866137e5565b909250905060008260038111156126fb57fe5b1461271a57506040805160208101909152600081529092509050612288565b60408051602081019091529081526000969095509350505050565b60008083830184811061274d57600092509050612288565b506002915060009050612288565b60008060006127686148e3565b61277287876126cd565b9092509050600082600381111561278557fe5b1461279657509150600090506127af565b6127a86127a2826131b8565b86612735565b9350935050505b935093915050565b60006127c16148e3565b6000806127d6670de0b6b3a7640000876137e5565b909250905060008260038111156127e957fe5b1461280857506040805160208101909152600081529092509050612288565b612281818660000151613108565b60006128206148e3565b600080612835866000015186600001516126aa565b60408051602081019091529081529097909650945050505050565b600061285a6148e3565b60006128646148e3565b61286e8787613cd2565b9092509050600082600381111561288157fe5b146128905790925090506127af565b6127a88186613cd2565b60008054600101808255816128ad610eac565b905080156128cb57610c8f8160108111156128c457fe5b6008612328565b610ca03385613dbb565b60008054600101808255816128e8610eac565b905080156128ff57610c8f81601081111561253c57fe5b610ca03385600061329e565b6004546000908190600160a060020a0316331461292e57611c2660016042612328565b6129366126a6565b600a541461294a57611c26600a6041612328565b600760009054906101000a9004600160a060020a0316905082600160a060020a0316632191f92a6040518163ffffffff1660e060020a02815260040160206040518083038186803b15801561299e57600080fd5b505afa1580156129b2573d6000803e3d6000fd5b505050506040513d60208110156129c857600080fd5b50511515612a20576040805160e560020a62461bcd02815260206004820152601c60248201527f6d61726b6572206d6574686f642072657475726e65642066616c736500000000604482015290519081900360640190fd5b6007805473ffffffffffffffffffffffffffffffffffffffff1916600160a060020a03858116918217909255604080519284168352602083019190915280517fedffc32e068c7c95dfd4bdfd5c4d939a084d6b11c4199eac8436ed234d72f9269281900390910190a16000610a35565b6000805460010180825581612aa3610eac565b90508015612ac1576116c7816010811115612aba57fe5b600f612328565b83600160a060020a031663a6afed956040518163ffffffff1660e060020a028152600401602060405180830381600087803b158015612aff57600080fd5b505af1158015612b13573d6000803e3d6000fd5b505050506040513d6020811015612b2957600080fd5b505190508015612b49576116c7816010811115612b4257fe5b6010612328565b612b5533878787614156565b9250506000548114610a21576040805160e560020a62461bcd02815260206004820152600a6024820152600080516020614a2c833981519152604482015290519081900360640190fd5b600454600090600160a060020a03163314612bc057610af060016047612328565b612bc86126a6565b600a5414612bdc57610af0600a6048612328565b670de0b6b3a7640000821115612bf857610af060026049612328565b6009805490839055604080518281526020810185905281517faaa68312e2ea9d50e16af5068410ab56e1a1fd06037b1a35664812c30f821460929181900390910190a16000610a35565b600654604080517f24008a62000000000000000000000000000000000000000000000000000000008152306004820152600160a060020a0386811660248301528581166044830152606482018590529151600093849316916324008a6291608480830192602092919082900301818787803b158015612cc057600080fd5b505af1158015612cd4573d6000803e3d6000fd5b505050506040513d6020811015612cea57600080fd5b505190508015612d0957612d016003603883612640565b915050610a35565b612d116126a6565b600a5414612d2557612d01600a6039612328565b612d2d61494f565b600160a060020a0385166000908152601160205260409020600101546060820152612d578561254f565b6080830181905260208301826003811115612d6e57fe5b6003811115612d7957fe5b9052506000905081602001516003811115612d9057fe5b14612db557612dac600960378360200151600381111561109e57fe5b92505050610a35565b600019841415612dce5760808101516040820152612dd6565b604081018490525b612de48682604001516146aa565b81906010811115612df157fe5b90816010811115612dfe57fe5b905250600081516010811115612e1057fe5b14612e22578051612dac90603c612328565b612e34816080015182604001516126aa565b60a0830181905260208301826003811115612e4b57fe5b6003811115612e5657fe5b9052506000905081602001516003811115612e6d57fe5b14612e8957612dac6009603a8360200151600381111561109e57fe5b612e99600c5482604001516126aa565b60c0830181905260208301826003811115612eb057fe5b6003811115612ebb57fe5b9052506000905081602001516003811115612ed257fe5b14612eee57612dac6009603b8360200151600381111561109e57fe5b612efc8682604001516147fa565b81906010811115612f0957fe5b90816010811115612f1657fe5b905250600081516010811115612f2857fe5b14612f7d576040805160e560020a62461bcd02815260206004820152601f60248201527f726570617920626f72726f77207472616e7366657220696e206661696c656400604482015290519081900360640190fd5b60a08082018051600160a060020a03808916600081815260116020908152604091829020948555600b5460019095019490945560c0870151600c8190558188015195518251948e16855294840192909252828101949094526060820192909252608081019190915290517f1a2a22cb034d26d1854bdc6666a5b91fe25efbbb5dcad3b0355478d6f5c362a1929181900390910190a1600654604080830151606084015182517f1ededc91000000000000000000000000000000000000000000000000000000008152306004820152600160a060020a038b811660248301528a81166044830152606482019390935260848101919091529151921691631ededc919160a48082019260009290919082900301818387803b15801561309f57600080fd5b505af11580156130b3573d6000803e3d6000fd5b50600092506130c0915050565b9695505050505050565b6000806000806130da8787612735565b909250905060008260038111156130ed57fe5b146130fe57509150600090506127af565b6127a881866126aa565b60006131126148e3565b60008061312786670de0b6b3a76400006137e5565b9092509050600082600381111561313a57fe5b1461315957506040805160208101909152600081529092509050612288565b6000806131668388613828565b9092509050600082600381111561317957fe5b1461319b57506040805160208101909152600081529094509250612288915050565b604080516020810190915290815260009890975095505050505050565b51670de0b6b3a7640000900490565b601254604080517fa9059cbb000000000000000000000000000000000000000000000000000000008152600160a060020a03858116600483015260248201859052915160009392909216918391839163a9059cbb91604480820192869290919082900301818387803b15801561323c57600080fd5b505af1158015613250573d6000803e3d6000fd5b505050503d6000811461326a576020811461327457600080fd5b6000199150613280565b60206000803e60005191505b5080151561329357601092505050610873565b506000949350505050565b60008215806132ab575081155b15156132eb5760405160e560020a62461bcd028152600401808060200182810382526034815260200180614bde6034913960400191505060405180910390fd5b6132f361494f565b6132fb611dbf565b604083018190526020830182600381111561331257fe5b600381111561331d57fe5b905250600090508160200151600381111561333457fe5b1461335057612d016009602b8360200151600381111561109e57fe5b60008411156133d457606081018490526040805160208101825290820151815261337a908561223b565b608083018190526020830182600381111561339157fe5b600381111561339c57fe5b90525060009050816020015160038111156133b357fe5b146133cf57612d01600960298360200151600381111561109e57fe5b61344e565b6133f18360206040519081016040528084604001518152506148cc565b606083018190526020830182600381111561340857fe5b600381111561341357fe5b905250600090508160200151600381111561342a57fe5b1461344657612d016009602a8360200151600381111561109e57fe5b608081018390525b6006546060820151604080517feabe7d91000000000000000000000000000000000000000000000000000000008152306004820152600160a060020a03898116602483015260448201939093529051600093929092169163eabe7d919160648082019260209290919082900301818787803b1580156134cc57600080fd5b505af11580156134e0573d6000803e3d6000fd5b505050506040513d60208110156134f657600080fd5b50519050801561350d57612dac6003602883612640565b6135156126a6565b600a541461352957612dac600a602c612328565b613539600e5483606001516126aa565b60a084018190526020840182600381111561355057fe5b600381111561355b57fe5b905250600090508260200151600381111561357257fe5b1461358e57612dac6009602e8460200151600381111561109e57fe5b600160a060020a0386166000908152600f602052604090205460608301516135b691906126aa565b60c08401819052602084018260038111156135cd57fe5b60038111156135d857fe5b90525060009050826020015160038111156135ef57fe5b1461360b57612dac6009602d8460200151600381111561109e57fe5b816080015161361861228f565b101561362a57612dac600e602f612328565b6136388683608001516131c7565b8290601081111561364557fe5b9081601081111561365257fe5b90525060008251601081111561366457fe5b146136b9576040805160e560020a62461bcd02815260206004820152601a60248201527f72656465656d207472616e73666572206f7574206661696c6564000000000000604482015290519081900360640190fd5b60a0820151600e5560c0820151600160a060020a0387166000818152600f6020908152604091829020939093556060850151815190815290513093600080516020614b4d833981519152928290030190a3608082015160608084015160408051600160a060020a038b168152602081019490945283810191909152517fe5b754fb1abb7f01b499791d0b820ae3b6af3424ac1c59768edb53f4ec31a9299281900390910190a160065460808301516060840151604080517f51dff989000000000000000000000000000000000000000000000000000000008152306004820152600160a060020a038b81166024830152604482019490945260648101929092525191909216916351dff98991608480830192600092919082900301818387803b15801561309f57600080fd5b6000808315156137fa57506000905080612288565b83830283858281151561380957fe5b041461381d57506002915060009050612288565b600092509050612288565b60008082151561383e5750600190506000612288565b6000838581151561384b57fe5b04915091509250929050565b600654604080517f4ef4c3e1000000000000000000000000000000000000000000000000000000008152306004820152600160a060020a03858116602483015260448201859052915160009384931691634ef4c3e191606480830192602092919082900301818787803b1580156138cd57600080fd5b505af11580156138e1573d6000803e3d6000fd5b505050506040513d60208110156138f757600080fd5b5051905080156139165761390e6003601f83612640565b915050610873565b61391e6126a6565b600a54146139325761390e600a6022612328565b61393a61498d565b61394485856146aa565b8190601081111561395157fe5b9081601081111561395e57fe5b90525060008151601081111561397057fe5b1461398b578051613982906026612328565b92505050610873565b613993611dbf565b60408301819052602083018260038111156139aa57fe5b60038111156139b557fe5b90525060009050816020015160038111156139cc57fe5b146139e857613982600960218360200151600381111561109e57fe5b613a058460206040519081016040528084604001518152506148cc565b6060830181905260208301826003811115613a1c57fe5b6003811115613a2757fe5b9052506000905081602001516003811115613a3e57fe5b14613a5a57613982600960208360200151600381111561109e57fe5b613a6a600e548260600151612735565b6080830181905260208301826003811115613a8157fe5b6003811115613a8c57fe5b9052506000905081602001516003811115613aa357fe5b14613abf57613982600960248360200151600381111561109e57fe5b600160a060020a0385166000908152600f60205260409020546060820151613ae79190612735565b60a0830181905260208301826003811115613afe57fe5b6003811115613b0957fe5b9052506000905081602001516003811115613b2057fe5b14613b3c57613982600960238360200151600381111561109e57fe5b613b4685856147fa565b81906010811115613b5357fe5b90816010811115613b6057fe5b905250600081516010811115613b7257fe5b14613b84578051613982906025612328565b6080810151600e5560a0810151600160a060020a0386166000818152600f602090815260409182902093909355606080850151825193845293830188905282820193909352517f4c209b5fc8ad50758f13e2e1088ba56a560dff690a1c6fef26394f4c03821c4f929181900390910190a160608101516040805191825251600160a060020a038716913091600080516020614b4d8339815191529181900360200190a36006546060820151604080517f41c728b9000000000000000000000000000000000000000000000000000000008152306004820152600160a060020a038981166024830152604482018990526064820193909352905191909216916341c728b991608480830192600092919082900301818387803b158015613ca857600080fd5b505af1158015613cbc573d6000803e3d6000fd5b5060009250613cc9915050565b95945050505050565b6000613cdc6148e3565b600080613cf1866000015186600001516137e5565b90925090506000826003811115613d0457fe5b14613d2357506040805160208101909152600081529092509050612288565b600080613d386706f05b59d3b2000084612735565b90925090506000826003811115613d4b57fe5b14613d6d57506040805160208101909152600081529094509250612288915050565b600080613d8283670de0b6b3a7640000613828565b90925090506000826003811115613d9557fe5b14613d9c57fe5b604080516020810190915290815260009a909950975050505050505050565b600654604080517fda3d454c000000000000000000000000000000000000000000000000000000008152306004820152600160a060020a0385811660248301526044820185905291516000938493169163da3d454c91606480830192602092919082900301818787803b158015613e3157600080fd5b505af1158015613e45573d6000803e3d6000fd5b505050506040513d6020811015613e5b57600080fd5b505190508015613e725761390e6003600e83612640565b613e7a6126a6565b600a5414613e8d5761390e600a80612328565b82613e9661228f565b1015613ea85761390e600e6009612328565b613eb06149a7565b613eb98561254f565b6040830181905260208301826003811115613ed057fe5b6003811115613edb57fe5b9052506000905081602001516003811115613ef257fe5b14613f0e57613982600960078360200151600381111561109e57fe5b613f1c816040015185612735565b6060830181905260208301826003811115613f3357fe5b6003811115613f3e57fe5b9052506000905081602001516003811115613f5557fe5b14613f71576139826009600c8360200151600381111561109e57fe5b613f7d600c5485612735565b6080830181905260208301826003811115613f9457fe5b6003811115613f9f57fe5b9052506000905081602001516003811115613fb657fe5b14613fd2576139826009600b8360200151600381111561109e57fe5b613fdc85856131c7565b81906010811115613fe957fe5b90816010811115613ff657fe5b90525060008151601081111561400857fe5b1461405d576040805160e560020a62461bcd02815260206004820152601a60248201527f626f72726f77207472616e73666572206f7574206661696c6564000000000000604482015290519081900360640190fd5b60608082018051600160a060020a038816600081815260116020908152604091829020938455600b54600190940193909355608080870151600c819055945182519384529383018a9052828201939093529381019290925291517f13ed6866d4e1ee6da46f845c46d7e54120883d75c5ea9a2dacc1c4ca8984ab80929181900390910190a1600654604080517f5c778605000000000000000000000000000000000000000000000000000000008152306004820152600160a060020a0388811660248301526044820188905291519190921691635c77860591606480830192600092919082900301818387803b158015613ca857600080fd5b600654604080517f5fc7e71e000000000000000000000000000000000000000000000000000000008152306004820152600160a060020a0384811660248301528781166044830152868116606483015260848201869052915160009384931691635fc7e71e9160a480830192602092919082900301818787803b1580156141dc57600080fd5b505af11580156141f0573d6000803e3d6000fd5b505050506040513d602081101561420657600080fd5b50519050801561421d57611f2c6003601283612640565b6142256126a6565b600a541461423957611f2c600a6016612328565b6142416126a6565b83600160a060020a0316636c540baf6040518163ffffffff1660e060020a02815260040160206040518083038186803b15801561427d57600080fd5b505afa158015614291573d6000803e3d6000fd5b505050506040513d60208110156142a757600080fd5b5051146142ba57611f2c600a6011612328565b85600160a060020a031685600160a060020a031614156142e057611f2c60066017612328565b8315156142f357611f2c60076015612328565b60001984141561430957611f2c60076014612328565b600654604080517fc488847b000000000000000000000000000000000000000000000000000000008152306004820152600160a060020a038681166024830152604482018890528251600094859492169263c488847b926064808301939192829003018186803b15801561437c57600080fd5b505afa158015614390573d6000803e3d6000fd5b505050506040513d60408110156143a657600080fd5b508051602090910151909250905081156143d1576143c76004601384612640565b9350505050610ab8565b84600160a060020a03166370a08231886040518263ffffffff1660e060020a0281526004018082600160a060020a0316600160a060020a0316815260200191505060206040518083038186803b15801561442a57600080fd5b505afa15801561443e573d6000803e3d6000fd5b505050506040513d602081101561445457600080fd5b5051811115614469576143c7600d601d612328565b6000614476898989612c42565b9050801561449f5761449481601081111561448d57fe5b6018612328565b945050505050610ab8565b604080517fb2a02ff1000000000000000000000000000000000000000000000000000000008152600160a060020a038b811660048301528a8116602483015260448201859052915160009289169163b2a02ff191606480830192602092919082900301818787803b15801561451357600080fd5b505af1158015614527573d6000803e3d6000fd5b505050506040513d602081101561453d57600080fd5b505190508015614597576040805160e560020a62461bcd02815260206004820152601460248201527f746f6b656e207365697a757265206661696c6564000000000000000000000000604482015290519081900360640190fd5b60408051600160a060020a03808d168252808c1660208301528183018b9052891660608201526080810185905290517f298637f684da70674f26509b10f07ec2fbc77a335ab1e7d6215a4b2484d8bb529181900360a00190a1600654604080517f47ef3b3b000000000000000000000000000000000000000000000000000000008152306004820152600160a060020a038a811660248301528d811660448301528c81166064830152608482018c905260a48201879052915191909216916347ef3b3b9160c480830192600092919082900301818387803b15801561467b57600080fd5b505af115801561468f573d6000803e3d6000fd5b506000925061469c915050565b9a9950505050505050505050565b601254604080517fdd62ed3e000000000000000000000000000000000000000000000000000000008152600160a060020a038581166004830152306024830152915160009392909216918491839163dd62ed3e91604480820192602092909190829003018186803b15801561471e57600080fd5b505afa158015614732573d6000803e3d6000fd5b505050506040513d602081101561474857600080fd5b5051101561475a57600c915050610873565b8281600160a060020a03166370a08231866040518263ffffffff1660e060020a0281526004018082600160a060020a0316600160a060020a0316815260200191505060206040518083038186803b1580156147b457600080fd5b505afa1580156147c8573d6000803e3d6000fd5b505050506040513d60208110156147de57600080fd5b505110156147f057600d915050610873565b5060009392505050565b601254604080517f23b872dd000000000000000000000000000000000000000000000000000000008152600160a060020a0385811660048301523060248301526044820185905291516000939290921691839183916323b872dd91606480820192869290919082900301818387803b15801561487557600080fd5b505af1158015614889573d6000803e3d6000fd5b505050503d600081146148a357602081146148ad57600080fd5b60001991506148b9565b60206000803e60005191505b5080151561329357600f92505050610873565b60008060006148d96148e3565b61225286866127b7565b60408051602081019091526000815290565b60408051610140810190915280600081526020016000815260200160008152602001600081526020016000815260200161492d6148e3565b8152602001600081526020016000815260200160008152602001600081525090565b6040805160e0810190915280600081526020016000815260200160008152602001600081526020016000815260200160008152602001600081525090565b6040805160c081019091528060008152602001600061492d565b6040805160a08101909152806000815260200160008152602001600081526020016000815260200160008152509056fe737570706c7952617465506572426c6f636b3a2063616c63756c6174696e6720626f72726f7773506572206661696c6564726564756365207265736572766573207472616e73666572206f7574206661696c656472652d656e746572656400000000000000000000000000000000000000000000737570706c7952617465506572426c6f636b3a2063616c63756c6174696e6720737570706c7952617465206661696c6564626f72726f7742616c616e636553746f7265643a20626f72726f7742616c616e636553746f726564496e7465726e616c206661696c6564737570706c7952617465506572426c6f636b3a2063616c63756c6174696e6720756e6465726c79696e67206661696c6564626f72726f7752617465506572426c6f636b3a20696e746572657374526174654d6f64656c2e626f72726f7752617465206661696c6564737570706c7952617465506572426c6f636b3a2063616c63756c6174696e6720626f72726f7752617465206661696c6564ddf252ad1be2c89b69c2b068fc378daa952ba7f163c4a11628f55a4df523b3ef737570706c7952617465506572426c6f636b3a2063616c63756c6174696e67206f6e654d696e757352657365727665466163746f72206661696c656465786368616e67655261746553746f7265643a2065786368616e67655261746553746f726564496e7465726e616c206661696c65646f6e65206f662072656465656d546f6b656e73496e206f722072656465656d416d6f756e74496e206d757374206265207a65726f72656475636520726573657276657320756e657870656374656420756e646572666c6f77a165627a7a72305820e3ba7c2fff1eb161c1feb57cd4d34297e582bf042dbc743d0ace120b9141fbab002953657474696e6720696e7465726573742072617465206d6f64656c206661696c6564496e697469616c2065786368616e67652072617465206d7573742062652067726561746572207468616e207a65726f2e",
  "source": "pragma solidity ^0.5.4;\n\nimport \"./CToken.sol\";\n\n/**\n * @title Compound's CErc20 Contract\n * @notice CTokens which wrap an EIP-20 underlying\n * @author Compound\n */\ncontract CErc20 is CToken {\n\n    /**\n     * @notice Underlying asset for this CToken\n     */\n    address public underlying;\n\n    /**\n     * @notice Construct a new money market\n     * @param underlying_ The address of the underlying asset\n     * @param comptroller_ The address of the Comptroller\n     * @param interestRateModel_ The address of the interest rate model\n     * @param initialExchangeRateMantissa_ The initial exchange rate, scaled by 1e18\n     * @param name_ ERC-20 name of this token\n     * @param symbol_ ERC-20 symbol of this token\n     * @param decimals_ ERC-20 decimal precision of this token\n     */\n    constructor(address underlying_,\n                ComptrollerInterface comptroller_,\n                InterestRateModel interestRateModel_,\n                uint initialExchangeRateMantissa_,\n                string memory name_,\n                string memory symbol_,\n                uint decimals_) public\n    CToken(comptroller_, interestRateModel_, initialExchangeRateMantissa_, name_, symbol_, decimals_) {\n        // Set underlying\n        underlying = underlying_;\n        EIP20Interface(underlying).totalSupply(); // Sanity check the underlying\n    }\n\n    /*** User Interface ***/\n\n    /**\n     * @notice Sender supplies assets into the market and receives cTokens in exchange\n     * @dev Accrues interest whether or not the operation succeeds, unless reverted\n     * @param mintAmount The amount of the underlying asset to supply\n     * @return uint 0=success, otherwise a failure (see ErrorReporter.sol for details)\n     */\n    function mint(uint mintAmount) external returns (uint) {\n        return mintInternal(mintAmount);\n    }\n\n    /**\n     * @notice Sender redeems cTokens in exchange for the underlying asset\n     * @dev Accrues interest whether or not the operation succeeds, unless reverted\n     * @param redeemTokens The number of cTokens to redeem into underlying\n     * @return uint 0=success, otherwise a failure (see ErrorReporter.sol for details)\n     */\n    function redeem(uint redeemTokens) external returns (uint) {\n        return redeemInternal(redeemTokens);\n    }\n\n    /**\n     * @notice Sender redeems cTokens in exchange for a specified amount of underlying asset\n     * @dev Accrues interest whether or not the operation succeeds, unless reverted\n     * @param redeemAmount The amount of underlying to redeem\n     * @return uint 0=success, otherwise a failure (see ErrorReporter.sol for details)\n     */\n    function redeemUnderlying(uint redeemAmount) external returns (uint) {\n        return redeemUnderlyingInternal(redeemAmount);\n    }\n\n    /**\n      * @notice Sender borrows assets from the protocol to their own address\n      * @param borrowAmount The amount of the underlying asset to borrow\n      * @return uint 0=success, otherwise a failure (see ErrorReporter.sol for details)\n      */\n    function borrow(uint borrowAmount) external returns (uint) {\n        return borrowInternal(borrowAmount);\n    }\n\n    /**\n     * @notice Sender repays their own borrow\n     * @param repayAmount The amount to repay\n     * @return uint 0=success, otherwise a failure (see ErrorReporter.sol for details)\n     */\n    function repayBorrow(uint repayAmount) external returns (uint) {\n        return repayBorrowInternal(repayAmount);\n    }\n\n    /**\n     * @notice Sender repays a borrow belonging to borrower\n     * @param borrower the account with the debt being payed off\n     * @param repayAmount The amount to repay\n     * @return uint 0=success, otherwise a failure (see ErrorReporter.sol for details)\n     */\n    function repayBorrowBehalf(address borrower, uint repayAmount) external returns (uint) {\n        return repayBorrowBehalfInternal(borrower, repayAmount);\n    }\n\n    /**\n     * @notice The sender liquidates the borrowers collateral.\n     *  The collateral seized is transferred to the liquidator.\n     * @param borrower The borrower of this cToken to be liquidated\n     * @param cTokenCollateral The market in which to seize collateral from the borrower\n     * @param repayAmount The amount of the underlying borrowed asset to repay\n     * @return uint 0=success, otherwise a failure (see ErrorReporter.sol for details)\n     */\n    function liquidateBorrow(address borrower, uint repayAmount, CToken cTokenCollateral) external returns (uint) {\n        return liquidateBorrowInternal(borrower, repayAmount, cTokenCollateral);\n    }\n\n    /*** Safe Token ***/\n\n    /**\n     * @notice Gets balance of this contract in terms of the underlying\n     * @dev This excludes the value of the current message, if any\n     * @return The quantity of underlying tokens owned by this contract\n     */\n    function getCashPrior() internal view returns (uint) {\n        EIP20Interface token = EIP20Interface(underlying);\n        return token.balanceOf(address(this));\n    }\n\n    /**\n     * @dev Checks whether or not there is sufficient allowance for this contract to move amount from `from` and\n     *      whether or not `from` has a balance of at least `amount`. Does NOT do a transfer.\n     */\n    function checkTransferIn(address from, uint amount) internal view returns (Error) {\n        EIP20Interface token = EIP20Interface(underlying);\n\n        if (token.allowance(from, address(this)) < amount) {\n            return Error.TOKEN_INSUFFICIENT_ALLOWANCE;\n        }\n\n        if (token.balanceOf(from) < amount) {\n            return Error.TOKEN_INSUFFICIENT_BALANCE;\n        }\n\n        return Error.NO_ERROR;\n    }\n\n    /**\n     * @dev Similar to EIP20 transfer, except it handles a False result from `transferFrom` and returns an explanatory\n     *      error code rather than reverting.  If caller has not called `checkTransferIn`, this may revert due to\n     *      insufficient balance or insufficient allowance. If caller has called `checkTransferIn` prior to this call,\n     *      and it returned Error.NO_ERROR, this should not revert in normal conditions.\n     *\n     *      Note: This wrapper safely handles non-standard ERC-20 tokens that do not return a value.\n     *            See here: https://medium.com/coinmonks/missing-return-value-bug-at-least-130-tokens-affected-d67bf08521ca\n     */\n    function doTransferIn(address from, uint amount) internal returns (Error) {\n        EIP20NonStandardInterface token = EIP20NonStandardInterface(underlying);\n        bool result;\n\n        token.transferFrom(from, address(this), amount);\n\n        // solium-disable-next-line security/no-inline-assembly\n        assembly {\n            switch returndatasize()\n                case 0 {                      // This is a non-standard ERC-20\n                    result := not(0)          // set result to true\n                }\n                case 32 {                     // This is a complaint ERC-20\n                    returndatacopy(0, 0, 32)\n                    result := mload(0)        // Set `result = returndata` of external call\n                }\n                default {                     // This is an excessively non-compliant ERC-20, revert.\n                    revert(0, 0)\n                }\n        }\n\n        if (!result) {\n            return Error.TOKEN_TRANSFER_IN_FAILED;\n        }\n\n        return Error.NO_ERROR;\n    }\n\n    /**\n     * @dev Similar to EIP20 transfer, except it handles a False result from `transfer` and returns an explanatory\n     *      error code rather than reverting. If caller has not called checked protocol's balance, this may revert due to\n     *      insufficient cash held in this contract. If caller has checked protocol's balance prior to this call, and verified\n     *      it is >= amount, this should not revert in normal conditions.\n     *\n     *      Note: This wrapper safely handles non-standard ERC-20 tokens that do not return a value.\n     *            See here: https://medium.com/coinmonks/missing-return-value-bug-at-least-130-tokens-affected-d67bf08521ca\n     */\n    function doTransferOut(address payable to, uint amount) internal returns (Error) {\n        EIP20NonStandardInterface token = EIP20NonStandardInterface(underlying);\n        bool result;\n\n        token.transfer(to, amount);\n\n        // solium-disable-next-line security/no-inline-assembly\n        assembly {\n            switch returndatasize()\n                case 0 {                      // This is a non-standard ERC-20\n                    result := not(0)          // set result to true\n                }\n                case 32 {                     // This is a complaint ERC-20\n                    returndatacopy(0, 0, 32)\n                    result := mload(0)        // Set `result = returndata` of external call\n                }\n                default {                     // This is an excessively non-compliant ERC-20, revert.\n                    revert(0, 0)\n                }\n        }\n\n        if (!result) {\n            return Error.TOKEN_TRANSFER_OUT_FAILED;\n        }\n\n        return Error.NO_ERROR;\n    }\n}\n",
  "sourcePath": "/home/amxx/Work/Argent/argent-contracts/contracts/test/compound/CErc20.sol",
  "compiler": {
    "name": "solc",
    "version": "0.5.4+commit.9549d8ff.Emscripten.clang",
    "optimizer": true,
    "runs": 200
  },
  "schemaVersion": "2.2.4",
  "updatedAt": "2020-02-29T16:28:22.587Z"
}