{
  "contractName": "CEther",
  "abi": [
    {
      "constant": true,
      "inputs": [],
      "name": "name",
      "outputs": [
        {
          "name": "",
          "type": "string"
        }
      ],
      "payable": false,
      "stateMutability": "view",
      "type": "function"
    },
    {
      "constant": false,
      "inputs": [
        {
          "name": "spender",
          "type": "address"
        },
        {
          "name": "amount",
          "type": "uint256"
        }
      ],
      "name": "approve",
      "outputs": [
        {
          "name": "",
          "type": "bool"
        }
      ],
      "payable": false,
      "stateMutability": "nonpayable",
      "type": "function"
    },
    {
      "constant": true,
      "inputs": [],
      "name": "reserveFactorMantissa",
      "outputs": [
        {
          "name": "",
          "type": "uint256"
        }
      ],
      "payable": false,
      "stateMutability": "view",
      "type": "function"
    },
    {
      "constant": false,
      "inputs": [
        {
          "name": "account",
          "type": "address"
        }
      ],
      "name": "borrowBalanceCurrent",
      "outputs": [
        {
          "name": "",
          "type": "uint256"
        }
      ],
      "payable": false,
      "stateMutability": "nonpayable",
      "type": "function"
    },
    {
      "constant": true,
      "inputs": [],
      "name": "totalSupply",
      "outputs": [
        {
          "name": "",
          "type": "uint256"
        }
      ],
      "payable": false,
      "stateMutability": "view",
      "type": "function"
    },
    {
      "constant": true,
      "inputs": [],
      "name": "exchangeRateStored",
      "outputs": [
        {
          "name": "",
          "type": "uint256"
        }
      ],
      "payable": false,
      "stateMutability": "view",
      "type": "function"
    },
    {
      "constant": false,
      "inputs": [
        {
          "name": "src",
          "type": "address"
        },
        {
          "name": "dst",
          "type": "address"
        },
        {
          "name": "amount",
          "type": "uint256"
        }
      ],
      "name": "transferFrom",
      "outputs": [
        {
          "name": "",
          "type": "bool"
        }
      ],
      "payable": false,
      "stateMutability": "nonpayable",
      "type": "function"
    },
    {
      "constant": true,
      "inputs": [],
      "name": "pendingAdmin",
      "outputs": [
        {
          "name": "",
          "type": "address"
        }
      ],
      "payable": false,
      "stateMutability": "view",
      "type": "function"
    },
    {
      "constant": true,
      "inputs": [],
      "name": "decimals",
      "outputs": [
        {
          "name": "",
          "type": "uint256"
        }
      ],
      "payable": false,
      "stateMutability": "view",
      "type": "function"
    },
    {
      "constant": false,
      "inputs": [
        {
          "name": "owner",
          "type": "address"
        }
      ],
      "name": "balanceOfUnderlying",
      "outputs": [
        {
          "name": "",
          "type": "uint256"
        }
      ],
      "payable": false,
      "stateMutability": "nonpayable",
      "type": "function"
    },
    {
      "constant": true,
      "inputs": [],
      "name": "getCash",
      "outputs": [
        {
          "name": "",
          "type": "uint256"
        }
      ],
      "payable": false,
      "stateMutability": "view",
      "type": "function"
    },
    {
      "constant": false,
      "inputs": [
        {
          "name": "newComptroller",
          "type": "address"
        }
      ],
      "name": "_setComptroller",
      "outputs": [
        {
          "name": "",
          "type": "uint256"
        }
      ],
      "payable": false,
      "stateMutability": "nonpayable",
      "type": "function"
    },
    {
      "constant": true,
      "inputs": [],
      "name": "totalBorrows",
      "outputs": [
        {
          "name": "",
          "type": "uint256"
        }
      ],
      "payable": false,
      "stateMutability": "view",
      "type": "function"
    },
    {
      "constant": true,
      "inputs": [],
      "name": "comptroller",
      "outputs": [
        {
          "name": "",
          "type": "address"
        }
      ],
      "payable": false,
      "stateMutability": "view",
      "type": "function"
    },
    {
      "constant": false,
      "inputs": [
        {
          "name": "reduceAmount",
          "type": "uint256"
        }
      ],
      "name": "_reduceReserves",
      "outputs": [
        {
          "name": "",
          "type": "uint256"
        }
      ],
      "payable": false,
      "stateMutability": "nonpayable",
      "type": "function"
    },
    {
      "constant": true,
      "inputs": [],
      "name": "initialExchangeRateMantissa",
      "outputs": [
        {
          "name": "",
          "type": "uint256"
        }
      ],
      "payable": false,
      "stateMutability": "view",
      "type": "function"
    },
    {
      "constant": true,
      "inputs": [],
      "name": "accrualBlockNumber",
      "outputs": [
        {
          "name": "",
          "type": "uint256"
        }
      ],
      "payable": false,
      "stateMutability": "view",
      "type": "function"
    },
    {
      "constant": true,
      "inputs": [
        {
          "name": "owner",
          "type": "address"
        }
      ],
      "name": "balanceOf",
      "outputs": [
        {
          "name": "",
          "type": "uint256"
        }
      ],
      "payable": false,
      "stateMutability": "view",
      "type": "function"
    },
    {
      "constant": false,
      "inputs": [],
      "name": "totalBorrowsCurrent",
      "outputs": [
        {
          "name": "",
          "type": "uint256"
        }
      ],
      "payable": false,
      "stateMutability": "nonpayable",
      "type": "function"
    },
    {
      "constant": true,
      "inputs": [],
      "name": "totalReserves",
      "outputs": [
        {
          "name": "",
          "type": "uint256"
        }
      ],
      "payable": false,
      "stateMutability": "view",
      "type": "function"
    },
    {
      "constant": true,
      "inputs": [],
      "name": "symbol",
      "outputs": [
        {
          "name": "",
          "type": "string"
        }
      ],
      "payable": false,
      "stateMutability": "view",
      "type": "function"
    },
    {
      "constant": true,
      "inputs": [
        {
          "name": "account",
          "type": "address"
        }
      ],
      "name": "borrowBalanceStored",
      "outputs": [
        {
          "name": "",
          "type": "uint256"
        }
      ],
      "payable": false,
      "stateMutability": "view",
      "type": "function"
    },
    {
      "constant": false,
      "inputs": [],
      "name": "accrueInterest",
      "outputs": [
        {
          "name": "",
          "type": "uint256"
        }
      ],
      "payable": false,
      "stateMutability": "nonpayable",
      "type": "function"
    },
    {
      "constant": false,
      "inputs": [
        {
          "name": "dst",
          "type": "address"
        },
        {
          "name": "amount",
          "type": "uint256"
        }
      ],
      "name": "transfer",
      "outputs": [
        {
          "name": "",
          "type": "bool"
        }
      ],
      "payable": false,
      "stateMutability": "nonpayable",
      "type": "function"
    },
    {
      "constant": true,
      "inputs": [],
      "name": "borrowIndex",
      "outputs": [
        {
          "name": "",
          "type": "uint256"
        }
      ],
      "payable": false,
      "stateMutability": "view",
      "type": "function"
    },
    {
      "constant": true,
      "inputs": [],
      "name": "supplyRatePerBlock",
      "outputs": [
        {
          "name": "",
          "type": "uint256"
        }
      ],
      "payable": false,
      "stateMutability": "view",
      "type": "function"
    },
    {
      "constant": false,
      "inputs": [
        {
          "name": "liquidator",
          "type": "address"
        },
        {
          "name": "borrower",
          "type": "address"
        },
        {
          "name": "seizeTokens",
          "type": "uint256"
        }
      ],
      "name": "seize",
      "outputs": [
        {
          "name": "",
          "type": "uint256"
        }
      ],
      "payable": false,
      "stateMutability": "nonpayable",
      "type": "function"
    },
    {
      "constant": false,
      "inputs": [
        {
          "name": "newPendingAdmin",
          "type": "address"
        }
      ],
      "name": "_setPendingAdmin",
      "outputs": [
        {
          "name": "",
          "type": "uint256"
        }
      ],
      "payable": false,
      "stateMutability": "nonpayable",
      "type": "function"
    },
    {
      "constant": false,
      "inputs": [],
      "name": "exchangeRateCurrent",
      "outputs": [
        {
          "name": "",
          "type": "uint256"
        }
      ],
      "payable": false,
      "stateMutability": "nonpayable",
      "type": "function"
    },
    {
      "constant": true,
      "inputs": [
        {
          "name": "account",
          "type": "address"
        }
      ],
      "name": "getAccountSnapshot",
      "outputs": [
        {
          "name": "",
          "type": "uint256"
        },
        {
          "name": "",
          "type": "uint256"
        },
        {
          "name": "",
          "type": "uint256"
        },
        {
          "name": "",
          "type": "uint256"
        }
      ],
      "payable": false,
      "stateMutability": "view",
      "type": "function"
    },
    {
      "constant": true,
      "inputs": [
        {
          "name": "owner",
          "type": "address"
        },
        {
          "name": "spender",
          "type": "address"
        }
      ],
      "name": "allowance",
      "outputs": [
        {
          "name": "",
          "type": "uint256"
        }
      ],
      "payable": false,
      "stateMutability": "view",
      "type": "function"
    },
    {
      "constant": false,
      "inputs": [],
      "name": "_acceptAdmin",
      "outputs": [
        {
          "name": "",
          "type": "uint256"
        }
      ],
      "payable": false,
      "stateMutability": "nonpayable",
      "type": "function"
    },
    {
      "constant": false,
      "inputs": [
        {
          "name": "newInterestRateModel",
          "type": "address"
        }
      ],
      "name": "_setInterestRateModel",
      "outputs": [
        {
          "name": "",
          "type": "uint256"
        }
      ],
      "payable": false,
      "stateMutability": "nonpayable",
      "type": "function"
    },
    {
      "constant": true,
      "inputs": [],
      "name": "interestRateModel",
      "outputs": [
        {
          "name": "",
          "type": "address"
        }
      ],
      "payable": false,
      "stateMutability": "view",
      "type": "function"
    },
    {
      "constant": true,
      "inputs": [],
      "name": "admin",
      "outputs": [
        {
          "name": "",
          "type": "address"
        }
      ],
      "payable": false,
      "stateMutability": "view",
      "type": "function"
    },
    {
      "constant": true,
      "inputs": [],
      "name": "borrowRatePerBlock",
      "outputs": [
        {
          "name": "",
          "type": "uint256"
        }
      ],
      "payable": false,
      "stateMutability": "view",
      "type": "function"
    },
    {
      "constant": false,
      "inputs": [
        {
          "name": "newReserveFactorMantissa",
          "type": "uint256"
        }
      ],
      "name": "_setReserveFactor",
      "outputs": [
        {
          "name": "",
          "type": "uint256"
        }
      ],
      "payable": false,
      "stateMutability": "nonpayable",
      "type": "function"
    },
    {
      "constant": true,
      "inputs": [],
      "name": "isCToken",
      "outputs": [
        {
          "name": "",
          "type": "bool"
        }
      ],
      "payable": false,
      "stateMutability": "view",
      "type": "function"
    },
    {
      "inputs": [
        {
          "name": "comptroller_",
          "type": "address"
        },
        {
          "name": "interestRateModel_",
          "type": "address"
        },
        {
          "name": "initialExchangeRateMantissa_",
          "type": "uint256"
        },
        {
          "name": "name_",
          "type": "string"
        },
        {
          "name": "symbol_",
          "type": "string"
        },
        {
          "name": "decimals_",
          "type": "uint256"
        }
      ],
      "payable": false,
      "stateMutability": "nonpayable",
      "type": "constructor"
    },
    {
      "payable": true,
      "stateMutability": "payable",
      "type": "fallback"
    },
    {
      "anonymous": false,
      "inputs": [
        {
          "indexed": false,
          "name": "interestAccumulated",
          "type": "uint256"
        },
        {
          "indexed": false,
          "name": "borrowIndex",
          "type": "uint256"
        },
        {
          "indexed": false,
          "name": "totalBorrows",
          "type": "uint256"
        }
      ],
      "name": "AccrueInterest",
      "type": "event"
    },
    {
      "anonymous": false,
      "inputs": [
        {
          "indexed": false,
          "name": "minter",
          "type": "address"
        },
        {
          "indexed": false,
          "name": "mintAmount",
          "type": "uint256"
        },
        {
          "indexed": false,
          "name": "mintTokens",
          "type": "uint256"
        }
      ],
      "name": "Mint",
      "type": "event"
    },
    {
      "anonymous": false,
      "inputs": [
        {
          "indexed": false,
          "name": "redeemer",
          "type": "address"
        },
        {
          "indexed": false,
          "name": "redeemAmount",
          "type": "uint256"
        },
        {
          "indexed": false,
          "name": "redeemTokens",
          "type": "uint256"
        }
      ],
      "name": "Redeem",
      "type": "event"
    },
    {
      "anonymous": false,
      "inputs": [
        {
          "indexed": false,
          "name": "borrower",
          "type": "address"
        },
        {
          "indexed": false,
          "name": "borrowAmount",
          "type": "uint256"
        },
        {
          "indexed": false,
          "name": "accountBorrows",
          "type": "uint256"
        },
        {
          "indexed": false,
          "name": "totalBorrows",
          "type": "uint256"
        }
      ],
      "name": "Borrow",
      "type": "event"
    },
    {
      "anonymous": false,
      "inputs": [
        {
          "indexed": false,
          "name": "payer",
          "type": "address"
        },
        {
          "indexed": false,
          "name": "borrower",
          "type": "address"
        },
        {
          "indexed": false,
          "name": "repayAmount",
          "type": "uint256"
        },
        {
          "indexed": false,
          "name": "accountBorrows",
          "type": "uint256"
        },
        {
          "indexed": false,
          "name": "totalBorrows",
          "type": "uint256"
        }
      ],
      "name": "RepayBorrow",
      "type": "event"
    },
    {
      "anonymous": false,
      "inputs": [
        {
          "indexed": false,
          "name": "liquidator",
          "type": "address"
        },
        {
          "indexed": false,
          "name": "borrower",
          "type": "address"
        },
        {
          "indexed": false,
          "name": "repayAmount",
          "type": "uint256"
        },
        {
          "indexed": false,
          "name": "cTokenCollateral",
          "type": "address"
        },
        {
          "indexed": false,
          "name": "seizeTokens",
          "type": "uint256"
        }
      ],
      "name": "LiquidateBorrow",
      "type": "event"
    },
    {
      "anonymous": false,
      "inputs": [
        {
          "indexed": false,
          "name": "oldPendingAdmin",
          "type": "address"
        },
        {
          "indexed": false,
          "name": "newPendingAdmin",
          "type": "address"
        }
      ],
      "name": "NewPendingAdmin",
      "type": "event"
    },
    {
      "anonymous": false,
      "inputs": [
        {
          "indexed": false,
          "name": "oldAdmin",
          "type": "address"
        },
        {
          "indexed": false,
          "name": "newAdmin",
          "type": "address"
        }
      ],
      "name": "NewAdmin",
      "type": "event"
    },
    {
      "anonymous": false,
      "inputs": [
        {
          "indexed": false,
          "name": "oldComptroller",
          "type": "address"
        },
        {
          "indexed": false,
          "name": "newComptroller",
          "type": "address"
        }
      ],
      "name": "NewComptroller",
      "type": "event"
    },
    {
      "anonymous": false,
      "inputs": [
        {
          "indexed": false,
          "name": "oldInterestRateModel",
          "type": "address"
        },
        {
          "indexed": false,
          "name": "newInterestRateModel",
          "type": "address"
        }
      ],
      "name": "NewMarketInterestRateModel",
      "type": "event"
    },
    {
      "anonymous": false,
      "inputs": [
        {
          "indexed": false,
          "name": "oldReserveFactorMantissa",
          "type": "uint256"
        },
        {
          "indexed": false,
          "name": "newReserveFactorMantissa",
          "type": "uint256"
        }
      ],
      "name": "NewReserveFactor",
      "type": "event"
    },
    {
      "anonymous": false,
      "inputs": [
        {
          "indexed": false,
          "name": "admin",
          "type": "address"
        },
        {
          "indexed": false,
          "name": "reduceAmount",
          "type": "uint256"
        },
        {
          "indexed": false,
          "name": "newTotalReserves",
          "type": "uint256"
        }
      ],
      "name": "ReservesReduced",
      "type": "event"
    },
    {
      "anonymous": false,
      "inputs": [
        {
          "indexed": false,
          "name": "error",
          "type": "uint256"
        },
        {
          "indexed": false,
          "name": "info",
          "type": "uint256"
        },
        {
          "indexed": false,
          "name": "detail",
          "type": "uint256"
        }
      ],
      "name": "Failure",
      "type": "event"
    },
    {
      "anonymous": false,
      "inputs": [
        {
          "indexed": true,
          "name": "from",
          "type": "address"
        },
        {
          "indexed": true,
          "name": "to",
          "type": "address"
        },
        {
          "indexed": false,
          "name": "amount",
          "type": "uint256"
        }
      ],
      "name": "Transfer",
      "type": "event"
    },
    {
      "anonymous": false,
      "inputs": [
        {
          "indexed": true,
          "name": "owner",
          "type": "address"
        },
        {
          "indexed": true,
          "name": "spender",
          "type": "address"
        },
        {
          "indexed": false,
          "name": "amount",
          "type": "uint256"
        }
      ],
      "name": "Approval",
      "type": "event"
    },
    {
      "constant": false,
      "inputs": [],
      "name": "mint",
      "outputs": [],
      "payable": true,
      "stateMutability": "payable",
      "type": "function"
    },
    {
      "constant": false,
      "inputs": [
        {
          "name": "redeemTokens",
          "type": "uint256"
        }
      ],
      "name": "redeem",
      "outputs": [
        {
          "name": "",
          "type": "uint256"
        }
      ],
      "payable": false,
      "stateMutability": "nonpayable",
      "type": "function"
    },
    {
      "constant": false,
      "inputs": [
        {
          "name": "redeemAmount",
          "type": "uint256"
        }
      ],
      "name": "redeemUnderlying",
      "outputs": [
        {
          "name": "",
          "type": "uint256"
        }
      ],
      "payable": false,
      "stateMutability": "nonpayable",
      "type": "function"
    },
    {
      "constant": false,
      "inputs": [
        {
          "name": "borrowAmount",
          "type": "uint256"
        }
      ],
      "name": "borrow",
      "outputs": [
        {
          "name": "",
          "type": "uint256"
        }
      ],
      "payable": false,
      "stateMutability": "nonpayable",
      "type": "function"
    },
    {
      "constant": false,
      "inputs": [],
      "name": "repayBorrow",
      "outputs": [],
      "payable": true,
      "stateMutability": "payable",
      "type": "function"
    },
    {
      "constant": false,
      "inputs": [
        {
          "name": "borrower",
          "type": "address"
        }
      ],
      "name": "repayBorrowBehalf",
      "outputs": [],
      "payable": true,
      "stateMutability": "payable",
      "type": "function"
    },
    {
      "constant": false,
      "inputs": [
        {
          "name": "borrower",
          "type": "address"
        },
        {
          "name": "cTokenCollateral",
          "type": "address"
        }
      ],
      "name": "liquidateBorrow",
      "outputs": [],
      "payable": true,
      "stateMutability": "payable",
      "type": "function"
    }
  ],
  "bytecode": "0x60806040523480156200001157600080fd5b50604051620056c9380380620056c9833981018060405260c08110156200003757600080fd5b81516020830151604084015160608501805193959294919391830192916401000000008111156200006757600080fd5b820160208101848111156200007b57600080fd5b81516401000000008111828201871017156200009657600080fd5b50509291906020018051640100000000811115620000b357600080fd5b82016020810184811115620000c757600080fd5b8151640100000000811182820187101715620000e257600080fd5b50506020909101516001600090815560048054600160a060020a0319163317905560088790559193509150869086908690869086908690841162000172576040517f08c379a0000000000000000000000000000000000000000000000000000000008152600401808060200182810382526030815260200180620056996030913960400191505060405180910390fd5b60006200018887640100000000620002cb810204565b90508015620001f857604080517f08c379a000000000000000000000000000000000000000000000000000000000815260206004820152601a60248201527f53657474696e6720636f6d7074726f6c6c6572206661696c6564000000000000604482015290519081900360640190fd5b6200020b64010000000062000463810204565b600a55670de0b6b3a7640000600b556200022e8664010000000062000468810204565b9050801562000289576040517f08c379a0000000000000000000000000000000000000000000000000000000008152600401808060200182810382526022815260200180620056776022913960400191505060405180910390fd5b83516200029e906001906020870190620006b1565b508251620002b4906002906020860190620006b1565b505060035550620007539950505050505050505050565b600454600090600160a060020a031633146200030057620002f86001603f64010000000062000641810204565b90506200045e565b600654604080517e7e3dd20000000000000000000000000000000000000000000000000000000081529051600160a060020a0392831692851691627e3dd2916004808301926020929190829003018186803b1580156200035f57600080fd5b505afa15801562000374573d6000803e3d6000fd5b505050506040513d60208110156200038b57600080fd5b50511515620003fb57604080517f08c379a000000000000000000000000000000000000000000000000000000000815260206004820152601c60248201527f6d61726b6572206d6574686f642072657475726e65642066616c736500000000604482015290519081900360640190fd5b60068054600160a060020a031916600160a060020a03858116918217909255604080519284168352602083019190915280517f7ac369dbd14fa5ea3f473ed67cc9d598964a77501540ba6751eb0b3decf5870d9281900390910190a160005b9150505b919050565b435b90565b6004546000908190600160a060020a03163314620004a057620004976001604264010000000062000641810204565b9150506200045e565b620004b364010000000062000463810204565b600a5414620004d35762000497600a604164010000000062000641810204565b600760009054906101000a9004600160a060020a0316905082600160a060020a0316632191f92a6040518163ffffffff167c010000000000000000000000000000000000000000000000000000000002815260040160206040518083038186803b1580156200054157600080fd5b505afa15801562000556573d6000803e3d6000fd5b505050506040513d60208110156200056d57600080fd5b50511515620005dd57604080517f08c379a000000000000000000000000000000000000000000000000000000000815260206004820152601c60248201527f6d61726b6572206d6574686f642072657475726e65642066616c736500000000604482015290519081900360640190fd5b60078054600160a060020a031916600160a060020a03858116918217909255604080519284168352602083019190915280517fedffc32e068c7c95dfd4bdfd5c4d939a084d6b11c4199eac8436ed234d72f9269281900390910190a160006200045a565b60007f45b96fe442630264581b197e84bbada861235052c5a1aadfff9ea4e40a969aa08360108111156200067157fe5b83604d8111156200067e57fe5b604080519283526020830191909152600082820152519081900360600190a1826010811115620006aa57fe5b9392505050565b828054600181600116156101000203166002900490600052602060002090601f016020900481019282601f10620006f457805160ff191683800117855562000724565b8280016001018555821562000724579182015b828111156200072457825182559160200191906001019062000707565b506200073292915062000736565b5090565b6200046591905b808211156200073257600081556001016200073d565b614f1480620007636000396000f3fe6080604052600436106102765760003560e060020a900480638f840ddd11610153578063c37f68e2116100c5578063f2b3abbd1161007e578063f2b3abbd146108cd578063f3fdb15a14610900578063f851a44014610915578063f8f9da281461092a578063fca7820b1461093f578063fe9c44ae1461096957610276565b8063c37f68e2146107aa578063c5ebeaec14610803578063db006a751461082d578063dd62ed3e14610857578063e597461914610892578063e9c714f2146108b857610276565b8063aa5af0fd11610117578063aa5af0fd146106c7578063aae40a2a146106dc578063ae9d70b01461070a578063b2a02ff11461071f578063b71d1a0c14610762578063bd6d894d1461079557610276565b80638f840ddd1461061c57806395d89b411461063157806395dd919314610646578063a6afed9514610679578063a9059cbb1461068e57610276565b80633b1d21a2116101ec578063601a0bf1116101b0578063601a0bf114610556578063675d972c146105805780636c540baf1461059557806370a08231146105aa57806373acee98146105dd578063852a12e3146105f257610276565b80633b1d21a2146104dc5780634576b5db146104f157806347bd3718146105245780634e4d9fea146105395780635fe3b5671461054157610276565b806318160ddd1161023e57806318160ddd146103f6578063182df0f51461040b57806323b872dd146104205780632678224714610463578063313ce567146104945780633af9e669146104a957610276565b806306fdde03146102bd578063095ea7b3146103475780631249c58b14610394578063173b99041461039c57806317bfdfbc146103c3575b6102bb6102823461097e565b60408051808201909152600b81527f6d696e74206661696c65640000000000000000000000000000000000000000006020820152610a12565b005b3480156102c957600080fd5b506102d2610c8d565b6040805160208082528351818301528351919283929083019185019080838360005b8381101561030c5781810151838201526020016102f4565b50505050905090810190601f1680156103395780820380516001836020036101000a031916815260200191505b509250505060405180910390f35b34801561035357600080fd5b506103806004803603604081101561036a57600080fd5b50600160a060020a038135169060200135610d1a565b604080519115158252519081900360200190f35b6102bb610d87565b3480156103a857600080fd5b506103b1610d95565b60408051918252519081900360200190f35b3480156103cf57600080fd5b506103b1600480360360208110156103e657600080fd5b5035600160a060020a0316610d9b565b34801561040257600080fd5b506103b1610e55565b34801561041757600080fd5b506103b1610e5b565b34801561042c57600080fd5b506103806004803603606081101561044357600080fd5b50600160a060020a03813581169160208101359091169060400135610ec1565b34801561046f57600080fd5b50610478610f2b565b60408051600160a060020a039092168252519081900360200190f35b3480156104a057600080fd5b506103b1610f3a565b3480156104b557600080fd5b506103b1600480360360208110156104cc57600080fd5b5035600160a060020a0316610f40565b3480156104e857600080fd5b506103b1610fb1565b3480156104fd57600080fd5b506103b16004803603602081101561051457600080fd5b5035600160a060020a0316610fc0565b34801561053057600080fd5b506103b161113b565b6102bb611141565b34801561054d57600080fd5b50610478611186565b34801561056257600080fd5b506103b16004803603602081101561057957600080fd5b5035611195565b34801561058c57600080fd5b506103b16111cf565b3480156105a157600080fd5b506103b16111d5565b3480156105b657600080fd5b506103b1600480360360208110156105cd57600080fd5b5035600160a060020a03166111db565b3480156105e957600080fd5b506103b16111f6565b3480156105fe57600080fd5b506103b16004803603602081101561061557600080fd5b50356112ae565b34801561062857600080fd5b506103b16112b9565b34801561063d57600080fd5b506102d26112bf565b34801561065257600080fd5b506103b16004803603602081101561066957600080fd5b5035600160a060020a0316611317565b34801561068557600080fd5b506103b1611377565b34801561069a57600080fd5b50610380600480360360408110156106b157600080fd5b50600160a060020a038135169060200135611778565b3480156106d357600080fd5b506103b16117e1565b6102bb600480360360408110156106f257600080fd5b50600160a060020a03813581169160200135166117e7565b34801561071657600080fd5b506103b161182e565b34801561072b57600080fd5b506103b16004803603606081101561074257600080fd5b50600160a060020a03813581169160208101359091169060400135611b09565b34801561076e57600080fd5b506103b16004803603602081101561078557600080fd5b5035600160a060020a0316611df0565b3480156107a157600080fd5b506103b1611e84565b3480156107b657600080fd5b506107dd600480360360208110156107cd57600080fd5b5035600160a060020a0316611f3d565b604080519485526020850193909352838301919091526060830152519081900360800190f35b34801561080f57600080fd5b506103b16004803603602081101561082657600080fd5b5035611fd2565b34801561083957600080fd5b506103b16004803603602081101561085057600080fd5b5035611fdd565b34801561086357600080fd5b506103b16004803603604081101561087a57600080fd5b50600160a060020a0381358116916020013516611fe8565b6102bb600480360360208110156108a857600080fd5b5035600160a060020a0316612013565b3480156108c457600080fd5b506103b161205c565b3480156108d957600080fd5b506103b1600480360360208110156108f057600080fd5b5035600160a060020a0316612158565b34801561090c57600080fd5b50610478612192565b34801561092157600080fd5b506104786121a1565b34801561093657600080fd5b506103b16121b0565b34801561094b57600080fd5b506103b16004803603602081101561096257600080fd5b5035612292565b34801561097557600080fd5b506103806122cc565b6000805460010180825581610991611377565b905080156109b7576109af8160108111156109a857fe5b601e6122d1565b9250506109c5565b6109c13385612337565b9250505b6000548114610a0c576040805160e560020a62461bcd02815260206004820152600a6024820152600080516020614cdf833981519152604482015290519081900360640190fd5b50919050565b811515610a1e57610c89565b606081516005016040519080825280601f01601f191660200182016040528015610a4f576020820181803883390190505b50905060005b8251811015610aad578281815181101515610a6c57fe5b90602001015160f860020a900460f860020a028282815181101515610a8d57fe5b906020010190600160f860020a031916908160001a905350600101610a55565b81517f200000000000000000000000000000000000000000000000000000000000000090839083908110610add57fe5b906020010190600160f860020a031916908160001a90535081517f280000000000000000000000000000000000000000000000000000000000000090839060018401908110610b2857fe5b906020010190600160f860020a031916908160001a905350600a840460300160f860020a028282600201815181101515610b5e57fe5b906020010190600160f860020a031916908160001a905350600a840660300160f860020a028282600301815181101515610b9457fe5b906020010190600160f860020a031916908160001a90535081517f290000000000000000000000000000000000000000000000000000000000000090839060048401908110610bdf57fe5b906020010190600160f860020a031916908160001a905350818415610c855760405160e560020a62461bcd0281526004018080602001828103825283818151815260200191508051906020019080838360005b83811015610c4a578181015183820152602001610c32565b50505050905090810190601f168015610c775780820380516001836020036101000a031916815260200191505b509250505060405180910390fd5b5050505b5050565b60018054604080516020600284861615610100026000190190941693909304601f81018490048402820184019092528181529291830182828015610d125780601f10610ce757610100808354040283529160200191610d12565b820191906000526020600020905b815481529060010190602001808311610cf557829003601f168201915b505050505081565b336000818152601060209081526040808320600160a060020a03871680855290835281842086905581518681529151939493909284927f8c5be1e5ebec7d5bd14f71427d1e84f3dd0314c0f7b2291e5b200ac8c7c3b925929081900390910190a360019150505b92915050565b610d936102823461097e565b565b60095481565b6000805460010180825581610dae611377565b14610e03576040805160e560020a62461bcd02815260206004820152601660248201527f61636372756520696e746572657374206661696c656400000000000000000000604482015290519081900360640190fd5b610e0c83611317565b91506000548114610a0c576040805160e560020a62461bcd02815260206004820152600a6024820152600080516020614cdf833981519152604482015290519081900360640190fd5b600e5481565b6000806000610e686127b2565b90925090506000826003811115610e7b57fe5b14610eba5760405160e560020a62461bcd028152600401808060200182810382526035815260200180614e5c6035913960400191505060405180910390fd5b9150505b90565b6000805460010180825581610ed833878787612860565b1491505b6000548114610f23576040805160e560020a62461bcd02815260206004820152600a6024820152600080516020614cdf833981519152604482015290519081900360640190fd5b509392505050565b600554600160a060020a031681565b60035481565b6000610f4a614b96565b602060405190810160405280610f5e611e84565b9052600160a060020a0384166000908152600f6020526040812054919250908190610f8a908490612ba2565b90925090506000826003811115610f9d57fe5b14610fa757600080fd5b925050505b919050565b6000610fbb612bf6565b905090565b600454600090600160a060020a03163314610fe857610fe16001603f6122d1565b9050610fac565b600654604080517e7e3dd20000000000000000000000000000000000000000000000000000000081529051600160a060020a0392831692851691627e3dd2916004808301926020929190829003018186803b15801561104657600080fd5b505afa15801561105a573d6000803e3d6000fd5b505050506040513d602081101561107057600080fd5b505115156110c8576040805160e560020a62461bcd02815260206004820152601c60248201527f6d61726b6572206d6574686f642072657475726e65642066616c736500000000604482015290519081900360640190fd5b6006805473ffffffffffffffffffffffffffffffffffffffff1916600160a060020a03858116918217909255604080519284168352602083019190915280517f7ac369dbd14fa5ea3f473ed67cc9d598964a77501540ba6751eb0b3decf5870d9281900390910190a160005b9392505050565b600c5481565b610d9361114d34612c22565b60408051808201909152601281527f7265706179426f72726f77206661696c656400000000000000000000000000006020820152610a12565b600654600160a060020a031681565b60008054600101808255816111a8611377565b905080156111c6576109af8160108111156111bf57fe5b60306122d1565b6109c184612c5e565b60085481565b600a5481565b600160a060020a03166000908152600f602052604090205490565b6000805460010180825581611209611377565b1461125e576040805160e560020a62461bcd02815260206004820152601660248201527f61636372756520696e746572657374206661696c656400000000000000000000604482015290519081900360640190fd5b600c54915060005481146112aa576040805160e560020a62461bcd02815260206004820152600a6024820152600080516020614cdf833981519152604482015290519081900360640190fd5b5090565b6000610d8182612de2565b600d5481565b6002805460408051602060018416156101000260001901909316849004601f81018490048402820184019092528181529291830182828015610d125780601f10610ce757610100808354040283529160200191610d12565b600080600061132584612e1f565b9092509050600082600381111561133857fe5b146111345760405160e560020a62461bcd028152600401808060200182810382526037815260200180614d306037913960400191505060405180910390fd5b6000611381614ba8565b600754600160a060020a03166315f2405361139a612bf6565b600c54600d546040518463ffffffff1660e060020a028152600401808481526020018381526020018281526020019350505050604080518083038186803b1580156113e457600080fd5b505afa1580156113f8573d6000803e3d6000fd5b505050506040513d604081101561140e57600080fd5b50805160209182015160408401819052918301526601c6bf526340001015611480576040805160e560020a62461bcd02815260206004820152601c60248201527f626f72726f772072617465206973206162737572646c79206869676800000000604482015290519081900360640190fd5b6020810151156114a35761149b600560028360200151612ed5565b915050610ebe565b6114ab612f3b565b60608201819052600a546114bf9190612f3f565b60808301819052828260038111156114d357fe5b60038111156114de57fe5b90525060009050815160038111156114f257fe5b146114f957fe5b61151a60206040519081016040528083604001518152508260800151612f62565b60a083018190528282600381111561152e57fe5b600381111561153957fe5b905250600090508151600381111561154d57fe5b1461156e5761149b600960068360000151600381111561156957fe5b612ed5565b61157e8160a00151600c54612ba2565b60c083018190528282600381111561159257fe5b600381111561159d57fe5b90525060009050815160038111156115b157fe5b146115cd5761149b600960018360000151600381111561156957fe5b6115dd8160c00151600c54612fca565b60e08301819052828260038111156115f157fe5b60038111156115fc57fe5b905250600090508151600381111561161057fe5b1461162c5761149b600960048360000151600381111561156957fe5b61164e6020604051908101604052806009548152508260c00151600d54612ff0565b61010083018190528282600381111561166357fe5b600381111561166e57fe5b905250600090508151600381111561168257fe5b1461169e5761149b600960058360000151600381111561156957fe5b6116b18160a00151600b54600b54612ff0565b6101208301819052828260038111156116c657fe5b60038111156116d157fe5b90525060009050815160038111156116e557fe5b146117015761149b600960038360000151600381111561156957fe5b606080820151600a55610120820151600b81905560e0830151600c819055610100840151600d5560c08401516040805191825260208201939093528083019190915290517f875352fb3fadeb8c0be7cbbe8ff761b308fa7033470cd0287f02f3436fd76cb9929181900390910190a1600091505090565b600080546001018082558161178f33338787612860565b1491505b60005481146117da576040805160e560020a62461bcd02815260206004820152600a6024820152600080516020614cdf833981519152604482015290519081900360640190fd5b5092915050565b600b5481565b610c896117f583348461304c565b60408051808201909152601681527f6c6971756964617465426f72726f77206661696c6564000000000000000000006020820152610a12565b600080611839610e5b565b6007549091506000908190600160a060020a03166315f2405361185a612bf6565b600c54600d546040518463ffffffff1660e060020a028152600401808481526020018381526020018281526020019350505050604080518083038186803b1580156118a457600080fd5b505afa1580156118b8573d6000803e3d6000fd5b505050506040513d60408110156118ce57600080fd5b5080516020909101519092509050811561191c5760405160e560020a62461bcd028152600401808060200182810382526031815260200180614dcf6031913960400191505060405180910390fd5b6000611926614b96565b61194160206040519081016040528087815250600e54612f62565b9092509050600082600381111561195457fe5b146119935760405160e560020a62461bcd028152600401808060200182810382526031815260200180614d676031913960400191505060405180910390fd5b600061199d614b96565b6119a9600c548461315b565b909250905060008260038111156119bc57fe5b146119fb5760405160e560020a62461bcd028152600401808060200182810382526031815260200180614c8b6031913960400191505060405180910390fd5b6000611a05614b96565b6040805160208181018352670de0b6b3a7640000825282519081019092526009548252611a31916131ba565b90925090506000826003811115611a4457fe5b14611a835760405160e560020a62461bcd02815260040180806020018281038252603c815260200180614e20603c913960400191505060405180910390fd5b6000611a8d614b96565b611aa76020604051908101604052808b81525084876131f4565b90925090506000826003811115611aba57fe5b14611af95760405160e560020a62461bcd028152600401808060200182810382526031815260200180614cff6031913960400191505060405180910390fd5b519a505050505050505050505090565b60008054600101808255600654604080517fd02f7351000000000000000000000000000000000000000000000000000000008152306004820152336024820152600160a060020a03888116604483015287811660648301526084820187905291518593929092169163d02f73519160a48082019260209290919082900301818787803b158015611b9857600080fd5b505af1158015611bac573d6000803e3d6000fd5b505050506040513d6020811015611bc257600080fd5b505190508015611be157611bd96003601b83612ed5565b925050610edc565b85600160a060020a031685600160a060020a03161415611c0757611bd96006601c6122d1565b600160a060020a0385166000908152600f602052604081205481908190611c2e9088612f3f565b90935091506000836003811115611c4157fe5b14611c6457611c596009601a85600381111561156957fe5b955050505050610edc565b600160a060020a0389166000908152600f6020526040902054611c879088612fca565b90935090506000836003811115611c9a57fe5b14611cb257611c596009601985600381111561156957fe5b600160a060020a038089166000818152600f60209081526040808320879055938d168083529184902085905583518b815293519193600080516020614e00833981519152929081900390910190a3600654604080517f6d35bf91000000000000000000000000000000000000000000000000000000008152306004820152336024820152600160a060020a038c811660448301528b81166064830152608482018b905291519190921691636d35bf919160a480830192600092919082900301818387803b158015611d8257600080fd5b505af1158015611d96573d6000803e3d6000fd5b5060009250611da3915050565b9550505050506000548114610f23576040805160e560020a62461bcd02815260206004820152600a6024820152600080516020614cdf833981519152604482015290519081900360640190fd5b600454600090600160a060020a03163314611e1157610fe1600160456122d1565b60058054600160a060020a0384811673ffffffffffffffffffffffffffffffffffffffff19831681179093556040805191909216808252602082019390935281517fca4f2f25d0898edd99413412fb94012f9e54ec8142f9b093e7720646a95b16a9929181900390910190a16000611134565b6000805460010180825581611e97611377565b14611eec576040805160e560020a62461bcd02815260206004820152601660248201527f61636372756520696e746572657374206661696c656400000000000000000000604482015290519081900360640190fd5b611ef4610e5b565b915060005481146112aa576040805160e560020a62461bcd02815260206004820152600a6024820152600080516020614cdf833981519152604482015290519081900360640190fd5b600160a060020a0381166000908152600f6020526040812054819081908190818080611f6889612e1f565b935090506000816003811115611f7a57fe5b14611f985760095b975060009650869550859450611fcb9350505050565b611fa06127b2565b925090506000816003811115611fb257fe5b14611fbe576009611f82565b5060009650919450925090505b9193509193565b6000610d818261323e565b6000610d8182613279565b600160a060020a03918216600090815260106020908152604080832093909416825291909152205490565b61205961202082346132af565b60408051808201909152601881527f7265706179426f72726f77426568616c66206661696c656400000000000000006020820152610a12565b50565b600554600090600160a060020a031633141580612077575033155b1561208f57612088600160006122d1565b9050610ebe565b6004805460058054600160a060020a0380821673ffffffffffffffffffffffffffffffffffffffff1980861682179687905590921690925560408051938316808552949092166020840152815190927ff9ffabca9c8276e99321725bcb43fb076a6c66a54b7f21c4e8146d8519b417dc92908290030190a160055460408051600160a060020a038085168252909216602083015280517fca4f2f25d0898edd99413412fb94012f9e54ec8142f9b093e7720646a95b16a99281900390910190a160009250505090565b600080612163611377565b905080156121895761218181601081111561217a57fe5b60406122d1565b915050610fac565b6111348361333d565b600754600160a060020a031681565b600454600160a060020a031681565b60075460009081908190600160a060020a03166315f240536121d0612bf6565b600c54600d546040518463ffffffff1660e060020a028152600401808481526020018381526020018281526020019350505050604080518083038186803b15801561221a57600080fd5b505afa15801561222e573d6000803e3d6000fd5b505050506040513d604081101561224457600080fd5b50805160209091015190925090508115610eba5760405160e560020a62461bcd028152600401808060200182810382526037815260200180614d986037913960400191505060405180910390fd5b60008054600101808255816122a5611377565b905080156122c3576109af8160108111156122bc57fe5b60466122d1565b6109c1846134c2565b600181565b60007f45b96fe442630264581b197e84bbada861235052c5a1aadfff9ea4e40a969aa083601081111561230057fe5b83604d81111561230c57fe5b604080519283526020830191909152600082820152519081900360600190a182601081111561113457fe5b600654604080517f4ef4c3e1000000000000000000000000000000000000000000000000000000008152306004820152600160a060020a03858116602483015260448201859052915160009384931691634ef4c3e191606480830192602092919082900301818787803b1580156123ad57600080fd5b505af11580156123c1573d6000803e3d6000fd5b505050506040513d60208110156123d757600080fd5b5051905080156123f6576123ee6003601f83612ed5565b915050610d81565b6123fe612f3b565b600a5414612412576123ee600a60226122d1565b61241a614c02565b6124248585613565565b8190601081111561243157fe5b9081601081111561243e57fe5b90525060008151601081111561245057fe5b1461246b5780516124629060266122d1565b92505050610d81565b6124736127b2565b604083018190526020830182600381111561248a57fe5b600381111561249557fe5b90525060009050816020015160038111156124ac57fe5b146124c857612462600960218360200151600381111561156957fe5b6124e5846020604051908101604052808460400151815250613627565b60608301819052602083018260038111156124fc57fe5b600381111561250757fe5b905250600090508160200151600381111561251e57fe5b1461253a57612462600960208360200151600381111561156957fe5b61254a600e548260600151612fca565b608083018190526020830182600381111561256157fe5b600381111561256c57fe5b905250600090508160200151600381111561258357fe5b1461259f57612462600960248360200151600381111561156957fe5b600160a060020a0385166000908152600f602052604090205460608201516125c79190612fca565b60a08301819052602083018260038111156125de57fe5b60038111156125e957fe5b905250600090508160200151600381111561260057fe5b1461261c57612462600960238360200151600381111561156957fe5b6126268585613565565b8190601081111561263357fe5b9081601081111561264057fe5b90525060008151601081111561265257fe5b146126645780516124629060256122d1565b6080810151600e5560a0810151600160a060020a0386166000818152600f602090815260409182902093909355606080850151825193845293830188905282820193909352517f4c209b5fc8ad50758f13e2e1088ba56a560dff690a1c6fef26394f4c03821c4f929181900390910190a160608101516040805191825251600160a060020a038716913091600080516020614e008339815191529181900360200190a36006546060820151604080517f41c728b9000000000000000000000000000000000000000000000000000000008152306004820152600160a060020a038981166024830152604482018990526064820193909352905191909216916341c728b991608480830192600092919082900301818387803b15801561278857600080fd5b505af115801561279c573d6000803e3d6000fd5b50600092506127a9915050565b95945050505050565b600080600e54600014156127cd57505060085460009061285c565b60006127d7612bf6565b905060006127e3614b96565b60006127f484600c54600d5461363e565b93509050600081600381111561280657fe5b1461281a5794506000935061285c92505050565b61282683600e5461367c565b92509050600081600381111561283857fe5b1461284c5794506000935061285c92505050565b505160009450925061285c915050565b9091565b600654604080517fbdcdc258000000000000000000000000000000000000000000000000000000008152306004820152600160a060020a03868116602483015285811660448301526064820185905291516000938493169163bdcdc25891608480830192602092919082900301818787803b1580156128de57600080fd5b505af11580156128f2573d6000803e3d6000fd5b505050506040513d602081101561290857600080fd5b5051905080156129275761291f6003604a83612ed5565b915050612b9a565b83600160a060020a031685600160a060020a0316141561294d5761291f6002604b6122d1565b6000600160a060020a03878116908716141561296c5750600019612994565b50600160a060020a038086166000908152601060209081526040808320938a16835292905220545b6000806000806129a48589612f3f565b909450925060008460038111156129b757fe5b146129d5576129c86009604b6122d1565b9650505050505050612b9a565b600160a060020a038a166000908152600f60205260409020546129f89089612f3f565b90945091506000846003811115612a0b57fe5b14612a1c576129c86009604c6122d1565b600160a060020a0389166000908152600f6020526040902054612a3f9089612fca565b90945090506000846003811115612a5257fe5b14612a63576129c86009604d6122d1565b600160a060020a03808b166000908152600f6020526040808220859055918b168152208190556000198514612abb57600160a060020a03808b166000908152601060209081526040808320938f168352929052208390555b88600160a060020a03168a600160a060020a0316600080516020614e008339815191528a6040518082815260200191505060405180910390a3600654604080517f6a56947e000000000000000000000000000000000000000000000000000000008152306004820152600160a060020a038d811660248301528c81166044830152606482018c905291519190921691636a56947e91608480830192600092919082900301818387803b158015612b7057600080fd5b505af1158015612b84573d6000803e3d6000fd5b5060009250612b91915050565b96505050505050505b949350505050565b6000806000612baf614b96565b612bb98686612f62565b90925090506000826003811115612bcc57fe5b14612bdd5750915060009050612bef565b6000612be88261372c565b9350935050505b9250929050565b60008080612c05303134612f3f565b90925090506000826003811115612c1857fe5b14610eba57600080fd5b6000805460010180825581612c35611377565b90508015612c53576109af816010811115612c4c57fe5b60366122d1565b6109c133338661373b565b60045460009081908190600160a060020a03163314612c8c57612c83600160316122d1565b92505050610fac565b612c94612f3b565b600a5414612ca857612c83600a60336122d1565b83612cb1612bf6565b1015612cc357612c83600e60326122d1565b600d54841115612cd957612c83600260346122d1565b50600d5483810390811115612d225760405160e560020a62461bcd028152600401808060200182810382526024815260200180614ec56024913960400191505060405180910390fd5b600d819055600454612d3d90600160a060020a031685613bc3565b91506000826010811115612d4d57fe5b14612d8c5760405160e560020a62461bcd028152600401808060200182810382526023815260200180614cbc6023913960400191505060405180910390fd5b60045460408051600160a060020a03909216825260208201869052818101839052517f3bad0c59cf2f06e7314077049f48a93578cd16f5ef92329f1dab1420a99c177e9181900360600190a16000949350505050565b6000805460010180825581612df5611377565b90508015612e13576109af816010811115612e0c57fe5b60276122d1565b6109c133600086613c05565b600160a060020a0381166000908152601160205260408120805482918291829182911515612e58575060009450849350612ed092505050565b612e688160000154600b5461414c565b90945092506000846003811115612e7b57fe5b14612e90575091935060009250612ed0915050565b612e9e83826001015461418f565b90945091506000846003811115612eb157fe5b14612ec6575091935060009250612ed0915050565b5060009450925050505b915091565b60007f45b96fe442630264581b197e84bbada861235052c5a1aadfff9ea4e40a969aa0846010811115612f0457fe5b84604d811115612f1057fe5b604080519283526020830191909152818101859052519081900360600190a1836010811115612b9a57fe5b4390565b600080838311612f56575060009050818303612bef565b50600390506000612bef565b6000612f6c614b96565b600080612f7d86600001518661414c565b90925090506000826003811115612f9057fe5b14612faf57506040805160208101909152600081529092509050612bef565b60408051602081019091529081526000969095509350505050565b600080838301848110612fe257600092509050612bef565b506002915060009050612bef565b6000806000612ffd614b96565b6130078787612f62565b9092509050600082600381111561301a57fe5b1461302b5750915060009050613044565b61303d6130378261372c565b86612fca565b9350935050505b935093915050565b600080546001018082558161305f611377565b9050801561307d57611bd981601081111561307657fe5b600f6122d1565b83600160a060020a031663a6afed956040518163ffffffff1660e060020a028152600401602060405180830381600087803b1580156130bb57600080fd5b505af11580156130cf573d6000803e3d6000fd5b505050506040513d60208110156130e557600080fd5b50519050801561310557611bd98160108111156130fe57fe5b60106122d1565b613111338787876141be565b9250506000548114610f23576040805160e560020a62461bcd02815260206004820152600a6024820152600080516020614cdf833981519152604482015290519081900360640190fd5b6000613165614b96565b60008061317a670de0b6b3a76400008761414c565b9092509050600082600381111561318d57fe5b146131ac57506040805160208101909152600081529092509050612bef565b612be881866000015161367c565b60006131c4614b96565b6000806131d986600001518660000151612f3f565b60408051602081019091529081529097909650945050505050565b60006131fe614b96565b6000613208614b96565b6132128787614712565b9092509050600082600381111561322557fe5b14613234579092509050613044565b61303d8186614712565b6000805460010180825581613251611377565b9050801561326f576109af81601081111561326857fe5b60086122d1565b6109c133856147fb565b600080546001018082558161328c611377565b905080156132a3576109af816010811115612e0c57fe5b6109c133856000613c05565b60008054600101808255816132c2611377565b905080156132e8576132e08160108111156132d957fe5b60356122d1565b925050611793565b6132f333868661373b565b92505060005481146117da576040805160e560020a62461bcd02815260206004820152600a6024820152600080516020614cdf833981519152604482015290519081900360640190fd5b6004546000908190600160a060020a0316331461336057612181600160426122d1565b613368612f3b565b600a541461337c57612181600a60416122d1565b600760009054906101000a9004600160a060020a0316905082600160a060020a0316632191f92a6040518163ffffffff1660e060020a02815260040160206040518083038186803b1580156133d057600080fd5b505afa1580156133e4573d6000803e3d6000fd5b505050506040513d60208110156133fa57600080fd5b50511515613452576040805160e560020a62461bcd02815260206004820152601c60248201527f6d61726b6572206d6574686f642072657475726e65642066616c736500000000604482015290519081900360640190fd5b6007805473ffffffffffffffffffffffffffffffffffffffff1916600160a060020a03858116918217909255604080519284168352602083019190915280517fedffc32e068c7c95dfd4bdfd5c4d939a084d6b11c4199eac8436ed234d72f9269281900390910190a16000611134565b600454600090600160a060020a031633146134e357610fe1600160476122d1565b6134eb612f3b565b600a54146134ff57610fe1600a60486122d1565b670de0b6b3a764000082111561351b57610fe1600260496122d1565b6009805490839055604080518281526020810185905281517faaa68312e2ea9d50e16af5068410ab56e1a1fd06037b1a35664812c30f821460929181900390910190a16000611134565b600033600160a060020a038416146135c7576040805160e560020a62461bcd02815260206004820152600f60248201527f73656e646572206d69736d617463680000000000000000000000000000000000604482015290519081900360640190fd5b34821461361e576040805160e560020a62461bcd02815260206004820152600e60248201527f76616c7565206d69736d61746368000000000000000000000000000000000000604482015290519081900360640190fd5b50600092915050565b6000806000613634614b96565b612bb9868661315b565b60008060008061364e8787612fca565b9092509050600082600381111561366157fe5b146136725750915060009050613044565b61303d8186612f3f565b6000613686614b96565b60008061369b86670de0b6b3a764000061414c565b909250905060008260038111156136ae57fe5b146136cd57506040805160208101909152600081529092509050612bef565b6000806136da838861418f565b909250905060008260038111156136ed57fe5b1461370f57506040805160208101909152600081529094509250612bef915050565b604080516020810190915290815260009890975095505050505050565b51670de0b6b3a7640000900490565b600654604080517f24008a62000000000000000000000000000000000000000000000000000000008152306004820152600160a060020a0386811660248301528581166044830152606482018590529151600093849316916324008a6291608480830192602092919082900301818787803b1580156137b957600080fd5b505af11580156137cd573d6000803e3d6000fd5b505050506040513d60208110156137e357600080fd5b505190508015613802576137fa6003603883612ed5565b915050611134565b61380a612f3b565b600a541461381e576137fa600a60396122d1565b613826614c1c565b600160a060020a038516600090815260116020526040902060010154606082015261385085612e1f565b608083018190526020830182600381111561386757fe5b600381111561387257fe5b905250600090508160200151600381111561388957fe5b146138ae576138a5600960378360200151600381111561156957fe5b92505050611134565b6000198414156138c757608081015160408201526138cf565b604081018490525b6138dd868260400151613565565b819060108111156138ea57fe5b908160108111156138f757fe5b90525060008151601081111561390957fe5b1461391b5780516138a590603c6122d1565b61392d81608001518260400151612f3f565b60a083018190526020830182600381111561394457fe5b600381111561394f57fe5b905250600090508160200151600381111561396657fe5b14613982576138a56009603a8360200151600381111561156957fe5b613992600c548260400151612f3f565b60c08301819052602083018260038111156139a957fe5b60038111156139b457fe5b90525060009050816020015160038111156139cb57fe5b146139e7576138a56009603b8360200151600381111561156957fe5b6139f5868260400151613565565b81906010811115613a0257fe5b90816010811115613a0f57fe5b905250600081516010811115613a2157fe5b14613a76576040805160e560020a62461bcd02815260206004820152601f60248201527f726570617920626f72726f77207472616e7366657220696e206661696c656400604482015290519081900360640190fd5b60a08082018051600160a060020a03808916600081815260116020908152604091829020948555600b5460019095019490945560c0870151600c8190558188015195518251948e16855294840192909252828101949094526060820192909252608081019190915290517f1a2a22cb034d26d1854bdc6666a5b91fe25efbbb5dcad3b0355478d6f5c362a1929181900390910190a1600654604080830151606084015182517f1ededc91000000000000000000000000000000000000000000000000000000008152306004820152600160a060020a038b811660248301528a81166044830152606482019390935260848101919091529151921691631ededc919160a48082019260009290919082900301818387803b158015613b9857600080fd5b505af1158015613bac573d6000803e3d6000fd5b5060009250613bb9915050565b9695505050505050565b604051600090600160a060020a0384169083156108fc0290849084818181858888f19350505050158015613bfb573d6000803e3d6000fd5b5060009392505050565b6000821580613c12575081155b1515613c525760405160e560020a62461bcd028152600401808060200182810382526034815260200180614e916034913960400191505060405180910390fd5b613c5a614c1c565b613c626127b2565b6040830181905260208301826003811115613c7957fe5b6003811115613c8457fe5b9052506000905081602001516003811115613c9b57fe5b14613cb7576137fa6009602b8360200151600381111561156957fe5b6000841115613d3b576060810184905260408051602081018252908201518152613ce19085612ba2565b6080830181905260208301826003811115613cf857fe5b6003811115613d0357fe5b9052506000905081602001516003811115613d1a57fe5b14613d36576137fa600960298360200151600381111561156957fe5b613db5565b613d58836020604051908101604052808460400151815250613627565b6060830181905260208301826003811115613d6f57fe5b6003811115613d7a57fe5b9052506000905081602001516003811115613d9157fe5b14613dad576137fa6009602a8360200151600381111561156957fe5b608081018390525b6006546060820151604080517feabe7d91000000000000000000000000000000000000000000000000000000008152306004820152600160a060020a03898116602483015260448201939093529051600093929092169163eabe7d919160648082019260209290919082900301818787803b158015613e3357600080fd5b505af1158015613e47573d6000803e3d6000fd5b505050506040513d6020811015613e5d57600080fd5b505190508015613e74576138a56003602883612ed5565b613e7c612f3b565b600a5414613e90576138a5600a602c6122d1565b613ea0600e548360600151612f3f565b60a0840181905260208401826003811115613eb757fe5b6003811115613ec257fe5b9052506000905082602001516003811115613ed957fe5b14613ef5576138a56009602e8460200151600381111561156957fe5b600160a060020a0386166000908152600f60205260409020546060830151613f1d9190612f3f565b60c0840181905260208401826003811115613f3457fe5b6003811115613f3f57fe5b9052506000905082602001516003811115613f5657fe5b14613f72576138a56009602d8460200151600381111561156957fe5b8160800151613f7f612bf6565b1015613f91576138a5600e602f6122d1565b613f9f868360800151613bc3565b82906010811115613fac57fe5b90816010811115613fb957fe5b905250600082516010811115613fcb57fe5b14614020576040805160e560020a62461bcd02815260206004820152601a60248201527f72656465656d207472616e73666572206f7574206661696c6564000000000000604482015290519081900360640190fd5b60a0820151600e5560c0820151600160a060020a0387166000818152600f6020908152604091829020939093556060850151815190815290513093600080516020614e00833981519152928290030190a3608082015160608084015160408051600160a060020a038b168152602081019490945283810191909152517fe5b754fb1abb7f01b499791d0b820ae3b6af3424ac1c59768edb53f4ec31a9299281900390910190a160065460808301516060840151604080517f51dff989000000000000000000000000000000000000000000000000000000008152306004820152600160a060020a038b81166024830152604482019490945260648101929092525191909216916351dff98991608480830192600092919082900301818387803b158015613b9857600080fd5b60008083151561416157506000905080612bef565b83830283858281151561417057fe5b041461418457506002915060009050612bef565b600092509050612bef565b6000808215156141a55750600190506000612bef565b600083858115156141b257fe5b04915091509250929050565b600654604080517f5fc7e71e000000000000000000000000000000000000000000000000000000008152306004820152600160a060020a0384811660248301528781166044830152868116606483015260848201869052915160009384931691635fc7e71e9160a480830192602092919082900301818787803b15801561424457600080fd5b505af1158015614258573d6000803e3d6000fd5b505050506040513d602081101561426e57600080fd5b5051905080156142855761291f6003601283612ed5565b61428d612f3b565b600a54146142a15761291f600a60166122d1565b6142a9612f3b565b83600160a060020a0316636c540baf6040518163ffffffff1660e060020a02815260040160206040518083038186803b1580156142e557600080fd5b505afa1580156142f9573d6000803e3d6000fd5b505050506040513d602081101561430f57600080fd5b5051146143225761291f600a60116122d1565b85600160a060020a031685600160a060020a031614156143485761291f600660176122d1565b83151561435b5761291f600760156122d1565b6000198414156143715761291f600760146122d1565b600654604080517fc488847b000000000000000000000000000000000000000000000000000000008152306004820152600160a060020a038681166024830152604482018890528251600094859492169263c488847b926064808301939192829003018186803b1580156143e457600080fd5b505afa1580156143f8573d6000803e3d6000fd5b505050506040513d604081101561440e57600080fd5b508051602090910151909250905081156144395761442f6004601384612ed5565b9350505050612b9a565b84600160a060020a03166370a08231886040518263ffffffff1660e060020a0281526004018082600160a060020a0316600160a060020a0316815260200191505060206040518083038186803b15801561449257600080fd5b505afa1580156144a6573d6000803e3d6000fd5b505050506040513d60208110156144bc57600080fd5b50518111156144d15761442f600d601d6122d1565b60006144de89898961373b565b90508015614507576144fc8160108111156144f557fe5b60186122d1565b945050505050612b9a565b604080517fb2a02ff1000000000000000000000000000000000000000000000000000000008152600160a060020a038b811660048301528a8116602483015260448201859052915160009289169163b2a02ff191606480830192602092919082900301818787803b15801561457b57600080fd5b505af115801561458f573d6000803e3d6000fd5b505050506040513d60208110156145a557600080fd5b5051905080156145ff576040805160e560020a62461bcd02815260206004820152601460248201527f746f6b656e207365697a757265206661696c6564000000000000000000000000604482015290519081900360640190fd5b60408051600160a060020a03808d168252808c1660208301528183018b9052891660608201526080810185905290517f298637f684da70674f26509b10f07ec2fbc77a335ab1e7d6215a4b2484d8bb529181900360a00190a1600654604080517f47ef3b3b000000000000000000000000000000000000000000000000000000008152306004820152600160a060020a038a811660248301528d811660448301528c81166064830152608482018c905260a48201879052915191909216916347ef3b3b9160c480830192600092919082900301818387803b1580156146e357600080fd5b505af11580156146f7573d6000803e3d6000fd5b5060009250614704915050565b9a9950505050505050505050565b600061471c614b96565b6000806147318660000151866000015161414c565b9092509050600082600381111561474457fe5b1461476357506040805160208101909152600081529092509050612bef565b6000806147786706f05b59d3b2000084612fca565b9092509050600082600381111561478b57fe5b146147ad57506040805160208101909152600081529094509250612bef915050565b6000806147c283670de0b6b3a764000061418f565b909250905060008260038111156147d557fe5b146147dc57fe5b604080516020810190915290815260009a909950975050505050505050565b600654604080517fda3d454c000000000000000000000000000000000000000000000000000000008152306004820152600160a060020a0385811660248301526044820185905291516000938493169163da3d454c91606480830192602092919082900301818787803b15801561487157600080fd5b505af1158015614885573d6000803e3d6000fd5b505050506040513d602081101561489b57600080fd5b5051905080156148b2576123ee6003600e83612ed5565b6148ba612f3b565b600a54146148cd576123ee600a806122d1565b826148d6612bf6565b10156148e8576123ee600e60096122d1565b6148f0614c5a565b6148f985612e1f565b604083018190526020830182600381111561491057fe5b600381111561491b57fe5b905250600090508160200151600381111561493257fe5b1461494e57612462600960078360200151600381111561156957fe5b61495c816040015185612fca565b606083018190526020830182600381111561497357fe5b600381111561497e57fe5b905250600090508160200151600381111561499557fe5b146149b1576124626009600c8360200151600381111561156957fe5b6149bd600c5485612fca565b60808301819052602083018260038111156149d457fe5b60038111156149df57fe5b90525060009050816020015160038111156149f657fe5b14614a12576124626009600b8360200151600381111561156957fe5b614a1c8585613bc3565b81906010811115614a2957fe5b90816010811115614a3657fe5b905250600081516010811115614a4857fe5b14614a9d576040805160e560020a62461bcd02815260206004820152601a60248201527f626f72726f77207472616e73666572206f7574206661696c6564000000000000604482015290519081900360640190fd5b60608082018051600160a060020a038816600081815260116020908152604091829020938455600b54600190940193909355608080870151600c819055945182519384529383018a9052828201939093529381019290925291517f13ed6866d4e1ee6da46f845c46d7e54120883d75c5ea9a2dacc1c4ca8984ab80929181900390910190a1600654604080517f5c778605000000000000000000000000000000000000000000000000000000008152306004820152600160a060020a0388811660248301526044820188905291519190921691635c77860591606480830192600092919082900301818387803b15801561278857600080fd5b60408051602081019091526000815290565b604080516101408101909152806000815260200160008152602001600081526020016000815260200160008152602001614be0614b96565b8152602001600081526020016000815260200160008152602001600081525090565b6040805160c0810190915280600081526020016000614be0565b6040805160e0810190915280600081526020016000815260200160008152602001600081526020016000815260200160008152602001600081525090565b6040805160a08101909152806000815260200160008152602001600081526020016000815260200160008152509056fe737570706c7952617465506572426c6f636b3a2063616c63756c6174696e6720626f72726f7773506572206661696c6564726564756365207265736572766573207472616e73666572206f7574206661696c656472652d656e746572656400000000000000000000000000000000000000000000737570706c7952617465506572426c6f636b3a2063616c63756c6174696e6720737570706c7952617465206661696c6564626f72726f7742616c616e636553746f7265643a20626f72726f7742616c616e636553746f726564496e7465726e616c206661696c6564737570706c7952617465506572426c6f636b3a2063616c63756c6174696e6720756e6465726c79696e67206661696c6564626f72726f7752617465506572426c6f636b3a20696e746572657374526174654d6f64656c2e626f72726f7752617465206661696c6564737570706c7952617465506572426c6f636b3a2063616c63756c6174696e6720626f72726f7752617465206661696c6564ddf252ad1be2c89b69c2b068fc378daa952ba7f163c4a11628f55a4df523b3ef737570706c7952617465506572426c6f636b3a2063616c63756c6174696e67206f6e654d696e757352657365727665466163746f72206661696c656465786368616e67655261746553746f7265643a2065786368616e67655261746553746f726564496e7465726e616c206661696c65646f6e65206f662072656465656d546f6b656e73496e206f722072656465656d416d6f756e74496e206d757374206265207a65726f72656475636520726573657276657320756e657870656374656420756e646572666c6f77a165627a7a7230582092b8b76ff7931a5a1ecb410bd28909a8c300b8a45b402bbe8ffdc24fefe9f11a002953657474696e6720696e7465726573742072617465206d6f64656c206661696c6564496e697469616c2065786368616e67652072617465206d7573742062652067726561746572207468616e207a65726f2e",
  "source": "pragma solidity ^0.5.4;\n\nimport \"./CToken.sol\";\n\n/**\n * @title Compound's CEther Contract\n * @notice CToken which wraps Ether\n * @author Compound\n */\ncontract CEther is CToken {\n\n    /**\n     * @notice Construct a new CEther money market\n     * @param comptroller_ The address of the Comptroller\n     * @param interestRateModel_ The address of the interest rate model\n     * @param initialExchangeRateMantissa_ The initial exchange rate, scaled by 1e18\n     * @param name_ ERC-20 name of this token\n     * @param symbol_ ERC-20 symbol of this token\n     * @param decimals_ ERC-20 decimal precision of this token\n     */\n    constructor(ComptrollerInterface comptroller_,\n                InterestRateModel interestRateModel_,\n                uint initialExchangeRateMantissa_,\n                string memory name_,\n                string memory symbol_,\n                uint decimals_) public\n    CToken(comptroller_, interestRateModel_, initialExchangeRateMantissa_, name_, symbol_, decimals_) {}\n\n    /*** User Interface ***/\n\n    /**\n     * @notice Sender supplies assets into the market and receives cTokens in exchange\n     * @dev Reverts upon any failure\n     */\n    function mint() external payable {\n        requireNoError(mintInternal(msg.value), \"mint failed\");\n    }\n\n    /**\n     * @notice Sender redeems cTokens in exchange for the underlying asset\n     * @dev Accrues interest whether or not the operation succeeds, unless reverted\n     * @param redeemTokens The number of cTokens to redeem into underlying\n     * @return uint 0=success, otherwise a failure (see ErrorReporter.sol for details)\n     */\n    function redeem(uint redeemTokens) external returns (uint) {\n        return redeemInternal(redeemTokens);\n    }\n\n    /**\n     * @notice Sender redeems cTokens in exchange for a specified amount of underlying asset\n     * @dev Accrues interest whether or not the operation succeeds, unless reverted\n     * @param redeemAmount The amount of underlying to redeem\n     * @return uint 0=success, otherwise a failure (see ErrorReporter.sol for details)\n     */\n    function redeemUnderlying(uint redeemAmount) external returns (uint) {\n        return redeemUnderlyingInternal(redeemAmount);\n    }\n\n    /**\n      * @notice Sender borrows assets from the protocol to their own address\n      * @param borrowAmount The amount of the underlying asset to borrow\n      * @return uint 0=success, otherwise a failure (see ErrorReporter.sol for details)\n      */\n    function borrow(uint borrowAmount) external returns (uint) {\n        return borrowInternal(borrowAmount);\n    }\n\n    /**\n     * @notice Sender repays their own borrow\n     * @dev Reverts upon any failure\n     */\n    function repayBorrow() external payable {\n        requireNoError(repayBorrowInternal(msg.value), \"repayBorrow failed\");\n    }\n\n    /**\n     * @notice Sender repays a borrow belonging to borrower\n     * @dev Reverts upon any failure\n     * @param borrower the account with the debt being payed off\n     */\n    function repayBorrowBehalf(address borrower) external payable {\n        requireNoError(repayBorrowBehalfInternal(borrower, msg.value), \"repayBorrowBehalf failed\");\n    }\n\n    /**\n     * @notice The sender liquidates the borrowers collateral.\n     *  The collateral seized is transferred to the liquidator.\n     * @dev Reverts upon any failure\n     * @param borrower The borrower of this cToken to be liquidated\n     * @param cTokenCollateral The market in which to seize collateral from the borrower\n     */\n    function liquidateBorrow(address borrower, CToken cTokenCollateral) external payable {\n        requireNoError(liquidateBorrowInternal(borrower, msg.value, cTokenCollateral), \"liquidateBorrow failed\");\n    }\n\n    /**\n     * @notice Send Ether to CEther to mint\n     */\n    function () external payable {\n        requireNoError(mintInternal(msg.value), \"mint failed\");\n    }\n\n    /*** Safe Token ***/\n\n    /**\n     * @notice Gets balance of this contract in terms of Ether, before this message\n     * @dev This excludes the value of the current message, if any\n     * @return The quantity of Ether owned by this contract\n     */\n    function getCashPrior() internal view returns (uint) {\n        (MathError err, uint startingBalance) = subUInt(address(this).balance, msg.value);\n        require(err == MathError.NO_ERROR);\n        return startingBalance;\n    }\n\n    /**\n     * @notice Checks whether the requested transfer matches the `msg`\n     * @dev Does NOT do a transfer\n     * @param from Address sending the Ether\n     * @param amount Amount of Ether being sent\n     * @return Whether or not the transfer checks out\n     */\n    function checkTransferIn(address from, uint amount) internal view returns (Error) {\n        // Sanity checks\n        require(msg.sender == from, \"sender mismatch\");\n        require(msg.value == amount, \"value mismatch\");\n        return Error.NO_ERROR;\n    }\n\n    /**\n     * @notice Perform the actual transfer in, which is a no-op\n     * @param from Address sending the Ether\n     * @param amount Amount of Ether being sent\n     * @return Success\n     */\n    function doTransferIn(address from, uint amount) internal returns (Error) {\n        // Sanity checks\n        require(msg.sender == from, \"sender mismatch\");\n        require(msg.value == amount, \"value mismatch\");\n        return Error.NO_ERROR;\n    }\n\n    function doTransferOut(address payable to, uint amount) internal returns (Error) {\n        /* Send the Ether, with minimal gas and revert on failure */\n        to.transfer(amount);\n        return Error.NO_ERROR;\n    }\n\n    function requireNoError(uint errCode, string memory message) internal pure {\n        if (errCode == uint(Error.NO_ERROR)) {\n            return;\n        }\n\n        bytes memory fullMessage = new bytes(bytes(message).length + 5);\n        uint i;\n\n        for (i = 0; i < bytes(message).length; i++) {\n            fullMessage[i] = bytes(message)[i];\n        }\n\n        fullMessage[i+0] = byte(uint8(32));\n        fullMessage[i+1] = byte(uint8(40));\n        fullMessage[i+2] = byte(uint8(48 + ( errCode / 10 )));\n        fullMessage[i+3] = byte(uint8(48 + ( errCode % 10 )));\n        fullMessage[i+4] = byte(uint8(41));\n\n        require(errCode == uint(Error.NO_ERROR), string(fullMessage));\n    }\n}\n",
  "sourcePath": "/home/amxx/Work/Argent/argent-contracts/contracts/test/compound/CEther.sol",
  "compiler": {
    "name": "solc",
    "version": "0.5.4+commit.9549d8ff.Emscripten.clang",
    "optimizer": true,
    "runs": 200
  },
  "schemaVersion": "2.2.4",
  "updatedAt": "2020-02-29T16:28:22.589Z"
}