{
  "contractName": "CompoundRegistry",
  "abi": [
    {
      "constant": true,
      "inputs": [],
      "name": "owner",
      "outputs": [
        {
          "name": "",
          "type": "address"
        }
      ],
      "payable": false,
      "stateMutability": "view",
      "type": "function"
    },
    {
      "constant": false,
      "inputs": [
        {
          "name": "_newOwner",
          "type": "address"
        }
      ],
      "name": "changeOwner",
      "outputs": [],
      "payable": false,
      "stateMutability": "nonpayable",
      "type": "function"
    },
    {
      "anonymous": false,
      "inputs": [
        {
          "indexed": true,
          "name": "_underlying",
          "type": "address"
        },
        {
          "indexed": true,
          "name": "_cToken",
          "type": "address"
        }
      ],
      "name": "CTokenAdded",
      "type": "event"
    },
    {
      "anonymous": false,
      "inputs": [
        {
          "indexed": true,
          "name": "_underlying",
          "type": "address"
        }
      ],
      "name": "CTokenRemoved",
      "type": "event"
    },
    {
      "anonymous": false,
      "inputs": [
        {
          "indexed": true,
          "name": "_newOwner",
          "type": "address"
        }
      ],
      "name": "OwnerChanged",
      "type": "event"
    },
    {
      "constant": false,
      "inputs": [
        {
          "name": "_underlying",
          "type": "address"
        },
        {
          "name": "_cToken",
          "type": "address"
        }
      ],
      "name": "addCToken",
      "outputs": [],
      "payable": false,
      "stateMutability": "nonpayable",
      "type": "function"
    },
    {
      "constant": false,
      "inputs": [
        {
          "name": "_underlying",
          "type": "address"
        }
      ],
      "name": "removeCToken",
      "outputs": [],
      "payable": false,
      "stateMutability": "nonpayable",
      "type": "function"
    },
    {
      "constant": true,
      "inputs": [
        {
          "name": "_underlying",
          "type": "address"
        }
      ],
      "name": "getCToken",
      "outputs": [
        {
          "name": "",
          "type": "address"
        }
      ],
      "payable": false,
      "stateMutability": "view",
      "type": "function"
    },
    {
      "constant": true,
      "inputs": [],
      "name": "listUnderlyings",
      "outputs": [
        {
          "name": "",
          "type": "address[]"
        }
      ],
      "payable": false,
      "stateMutability": "view",
      "type": "function"
    }
  ],
  "bytecode": "0x608060405260008054600160a060020a031916331790556107fe806100256000396000f3fe608060405234801561001057600080fd5b506004361061007e577c010000000000000000000000000000000000000000000000000000000060003504630f9209538114610083578063146b9f70146100db5780632a957f8c1461010b5780637e5a4eb9146101315780638da5cb5b14610173578063a6f9dae11461017b575b600080fd5b61008b6101a1565b60408051602080825283518183015283519192839290830191858101910280838360005b838110156100c75781810151838201526020016100af565b505050509050019250505060405180910390f35b610109600480360360408110156100f157600080fd5b50600160a060020a038135811691602001351661023d565b005b6101096004803603602081101561012157600080fd5b5035600160a060020a03166103ef565b6101576004803603602081101561014757600080fd5b5035600160a060020a0316610644565b60408051600160a060020a039092168252519081900360200190f35b610157610665565b6101096004803603602081101561019157600080fd5b5035600160a060020a0316610674565b6060806001805490506040519080825280602002602001820160405280156101d3578160200160208202803883390190505b50905060005b6001548110156102365760018054829081106101f157fe5b6000918252602090912001548251600160a060020a039091169083908390811061021757fe5b600160a060020a039092166020928302909101909101526001016101d9565b5090505b90565b600054600160a060020a0316331461029f576040805160e560020a62461bcd02815260206004820152600d60248201527f4d757374206265206f776e657200000000000000000000000000000000000000604482015290519081900360640190fd5b600160a060020a03821660009081526002602052604090205460ff1615610310576040805160e560020a62461bcd02815260206004820152601860248201527f43523a2063546f6b656e20616c72656164792061646465640000000000000000604482015290519081900360640190fd5b600160a060020a03828116600081815260026020526040808220805460ff191660019081178255805480820182557fb10e2d527612073b26eecdfd717e6a320cf44b4afac2b0732d9fcbe2b7fa0cf68101805473ffffffffffffffffffffffffffffffffffffffff19908116881790915583546fffffffffffffffffffffffffffffffff9092166101000270ffffffffffffffffffffffffffffffff0019909216919091178355910180549587169590911685179055517f7acf7482a03de3fea14ab9eb8fa6f7524bb1a61a24898d2337379a5cf7421d7e9190a35050565b600054600160a060020a03163314610451576040805160e560020a62461bcd02815260206004820152600d60248201527f4d757374206265206f776e657200000000000000000000000000000000000000604482015290519081900360640190fd5b600160a060020a03811660009081526002602052604090205460ff1615156104c3576040805160e560020a62461bcd02815260206004820152601960248201527f43523a2063546f6b656e20646f6573206e6f7420657869737400000000000000604482015290519081900360640190fd5b600180546000919060001981019081106104d957fe5b600091825260209091200154600160a060020a039081169150821681146105b857600160a060020a038216600090815260026020526040902054600180546101009092046fffffffffffffffffffffffffffffffff16918391908390811061053d57fe5b600091825260208083209091018054600160a060020a0394851673ffffffffffffffffffffffffffffffffffffffff19909116179055918416815260029091526040902080546fffffffffffffffffffffffffffffffff9092166101000270ffffffffffffffffffffffffffffffff00199092169190911790555b60018054906105cb90600019830161078b565b50600160a060020a038216600081815260026020526040808220805470ffffffffffffffffffffffffffffffffff19168155600101805473ffffffffffffffffffffffffffffffffffffffff19169055517f0e590b32bfcb7478a456cb792c7357a4783933854095aa37c472ac78b6fb8f9d9190a25050565b600160a060020a039081166000908152600260205260409020600101541690565b600054600160a060020a031681565b600054600160a060020a031633146106d6576040805160e560020a62461bcd02815260206004820152600d60248201527f4d757374206265206f776e657200000000000000000000000000000000000000604482015290519081900360640190fd5b600160a060020a0381161515610736576040805160e560020a62461bcd02815260206004820152601860248201527f41646472657373206d757374206e6f74206265206e756c6c0000000000000000604482015290519081900360640190fd5b6000805473ffffffffffffffffffffffffffffffffffffffff1916600160a060020a038316908117825560405190917fa2ea9883a321a3e97b8266c2b078bfeec6d50c711ed71f874a90d500ae2eaf3691a250565b8154818355818111156107af576000838152602090206107af9181019083016107b4565b505050565b61023a91905b808211156107ce57600081556001016107ba565b509056fea165627a7a72305820ffb2ec0f3fa411b6ecadf1e2a574d5277faf406a3e4ce5e7440a344334f2d61d0029",
  "source": "pragma solidity ^0.5.4;\nimport \"../../base/Owned.sol\";\n\n/**\n * @title CompoundRegistry\n * @dev Simple registry containing a mapping between underlying assets and their corresponding cToken.\n * @author Julien Niset - <julien@argent.xyz>\n */\ncontract CompoundRegistry is Owned {\n\n    address[] tokens;\n\n    mapping (address => CTokenInfo) internal cToken;\n\n    struct CTokenInfo {\n        bool exists;\n        uint128 index;\n        address market;\n    }\n\n    event CTokenAdded(address indexed _underlying, address indexed _cToken);\n    event CTokenRemoved(address indexed _underlying);\n\n    /**\n     * @dev Adds a new cToken to the registry.\n     * @param _underlying The underlying asset.\n     * @param _cToken The cToken.\n     */\n    function addCToken(address _underlying, address _cToken) external onlyOwner {\n        require(!cToken[_underlying].exists, \"CR: cToken already added\");\n        cToken[_underlying].exists = true;\n        cToken[_underlying].index = uint128(tokens.push(_underlying) - 1);\n        cToken[_underlying].market = _cToken;\n        emit CTokenAdded(_underlying, _cToken);\n    }\n\n    /**\n     * @dev Removes a cToken from the registry.\n     * @param _underlying The underlying asset.\n     */\n    function removeCToken(address _underlying) external onlyOwner {\n        require(cToken[_underlying].exists, \"CR: cToken does not exist\");\n        address last = tokens[tokens.length - 1];\n        if(_underlying != last) {\n            uint128 targetIndex = cToken[_underlying].index;\n            tokens[targetIndex] = last;\n            cToken[last].index = targetIndex;\n        }\n        tokens.length --;\n        delete cToken[_underlying];\n        emit CTokenRemoved(_underlying);\n    }\n\n    /**\n     * @dev Gets the cToken for a given underlying asset.\n     * @param _underlying The underlying asset.\n     */\n    function getCToken(address _underlying) external view returns (address) {\n        return cToken[_underlying].market;\n    }\n\n    /**\n    * @dev Gets the list of supported underlyings.\n    */\n    function listUnderlyings() external view returns (address[] memory) {\n        address[] memory underlyings = new address[](tokens.length);\n        for (uint256 i = 0; i < tokens.length; i++) {\n            underlyings[i] = tokens[i];\n        }\n        return underlyings;\n    }\n}",
  "sourcePath": "/home/amxx/Work/Argent/argent-contracts/contracts/defi/utils/CompoundRegistry.sol",
  "compiler": {
    "name": "solc",
    "version": "0.5.4+commit.9549d8ff.Emscripten.clang",
    "optimizer": true,
    "runs": 200
  },
  "schemaVersion": "2.2.4",
  "updatedAt": "2020-02-29T16:28:22.453Z"
}