{
  "contractName": "CompoundManager",
  "abi": [
    {
      "constant": false,
      "inputs": [
        {
          "name": "_wallet",
          "type": "address"
        }
      ],
      "name": "init",
      "outputs": [],
      "payable": false,
      "stateMutability": "nonpayable",
      "type": "function"
    },
    {
      "constant": true,
      "inputs": [
        {
          "name": "_wallet",
          "type": "address"
        }
      ],
      "name": "getNonce",
      "outputs": [
        {
          "name": "nonce",
          "type": "uint256"
        }
      ],
      "payable": false,
      "stateMutability": "view",
      "type": "function"
    },
    {
      "constant": true,
      "inputs": [],
      "name": "compoundRegistry",
      "outputs": [
        {
          "name": "",
          "type": "address"
        }
      ],
      "payable": false,
      "stateMutability": "view",
      "type": "function"
    },
    {
      "constant": false,
      "inputs": [
        {
          "name": "_wallet",
          "type": "address"
        },
        {
          "name": "_module",
          "type": "address"
        }
      ],
      "name": "addModule",
      "outputs": [],
      "payable": false,
      "stateMutability": "nonpayable",
      "type": "function"
    },
    {
      "constant": true,
      "inputs": [],
      "name": "comptroller",
      "outputs": [
        {
          "name": "",
          "type": "address"
        }
      ],
      "payable": false,
      "stateMutability": "view",
      "type": "function"
    },
    {
      "constant": false,
      "inputs": [
        {
          "name": "_token",
          "type": "address"
        }
      ],
      "name": "recoverToken",
      "outputs": [],
      "payable": false,
      "stateMutability": "nonpayable",
      "type": "function"
    },
    {
      "constant": false,
      "inputs": [
        {
          "name": "_wallet",
          "type": "address"
        },
        {
          "name": "_data",
          "type": "bytes"
        },
        {
          "name": "_nonce",
          "type": "uint256"
        },
        {
          "name": "_signatures",
          "type": "bytes"
        },
        {
          "name": "_gasPrice",
          "type": "uint256"
        },
        {
          "name": "_gasLimit",
          "type": "uint256"
        }
      ],
      "name": "execute",
      "outputs": [
        {
          "name": "success",
          "type": "bool"
        }
      ],
      "payable": false,
      "stateMutability": "nonpayable",
      "type": "function"
    },
    {
      "constant": true,
      "inputs": [
        {
          "name": "",
          "type": "address"
        }
      ],
      "name": "relayer",
      "outputs": [
        {
          "name": "nonce",
          "type": "uint256"
        }
      ],
      "payable": false,
      "stateMutability": "view",
      "type": "function"
    },
    {
      "constant": true,
      "inputs": [],
      "name": "isOnlyOwnerModule",
      "outputs": [
        {
          "name": "",
          "type": "bytes4"
        }
      ],
      "payable": false,
      "stateMutability": "pure",
      "type": "function"
    },
    {
      "inputs": [
        {
          "name": "_registry",
          "type": "address"
        },
        {
          "name": "_guardianStorage",
          "type": "address"
        },
        {
          "name": "_comptroller",
          "type": "address"
        },
        {
          "name": "_compoundRegistry",
          "type": "address"
        }
      ],
      "payable": false,
      "stateMutability": "nonpayable",
      "type": "constructor"
    },
    {
      "anonymous": false,
      "inputs": [
        {
          "indexed": true,
          "name": "wallet",
          "type": "address"
        },
        {
          "indexed": true,
          "name": "success",
          "type": "bool"
        },
        {
          "indexed": false,
          "name": "signedHash",
          "type": "bytes32"
        }
      ],
      "name": "TransactionExecuted",
      "type": "event"
    },
    {
      "anonymous": false,
      "inputs": [
        {
          "indexed": false,
          "name": "name",
          "type": "bytes32"
        }
      ],
      "name": "ModuleCreated",
      "type": "event"
    },
    {
      "anonymous": false,
      "inputs": [
        {
          "indexed": false,
          "name": "wallet",
          "type": "address"
        }
      ],
      "name": "ModuleInitialised",
      "type": "event"
    },
    {
      "anonymous": false,
      "inputs": [
        {
          "indexed": true,
          "name": "_wallet",
          "type": "address"
        },
        {
          "indexed": false,
          "name": "_token",
          "type": "address"
        },
        {
          "indexed": false,
          "name": "_invested",
          "type": "uint256"
        },
        {
          "indexed": false,
          "name": "_period",
          "type": "uint256"
        }
      ],
      "name": "InvestmentAdded",
      "type": "event"
    },
    {
      "anonymous": false,
      "inputs": [
        {
          "indexed": true,
          "name": "_wallet",
          "type": "address"
        },
        {
          "indexed": false,
          "name": "_token",
          "type": "address"
        },
        {
          "indexed": false,
          "name": "_fraction",
          "type": "uint256"
        }
      ],
      "name": "InvestmentRemoved",
      "type": "event"
    },
    {
      "anonymous": false,
      "inputs": [
        {
          "indexed": true,
          "name": "_wallet",
          "type": "address"
        },
        {
          "indexed": true,
          "name": "_loanId",
          "type": "bytes32"
        },
        {
          "indexed": false,
          "name": "_collateral",
          "type": "address"
        },
        {
          "indexed": false,
          "name": "_collateralAmount",
          "type": "uint256"
        },
        {
          "indexed": false,
          "name": "_debtToken",
          "type": "address"
        },
        {
          "indexed": false,
          "name": "_debtAmount",
          "type": "uint256"
        }
      ],
      "name": "LoanOpened",
      "type": "event"
    },
    {
      "anonymous": false,
      "inputs": [
        {
          "indexed": true,
          "name": "_wallet",
          "type": "address"
        },
        {
          "indexed": true,
          "name": "_loanId",
          "type": "bytes32"
        }
      ],
      "name": "LoanClosed",
      "type": "event"
    },
    {
      "anonymous": false,
      "inputs": [
        {
          "indexed": true,
          "name": "_wallet",
          "type": "address"
        },
        {
          "indexed": true,
          "name": "_loanId",
          "type": "bytes32"
        },
        {
          "indexed": false,
          "name": "_collateral",
          "type": "address"
        },
        {
          "indexed": false,
          "name": "_collateralAmount",
          "type": "uint256"
        }
      ],
      "name": "CollateralAdded",
      "type": "event"
    },
    {
      "anonymous": false,
      "inputs": [
        {
          "indexed": true,
          "name": "_wallet",
          "type": "address"
        },
        {
          "indexed": true,
          "name": "_loanId",
          "type": "bytes32"
        },
        {
          "indexed": false,
          "name": "_collateral",
          "type": "address"
        },
        {
          "indexed": false,
          "name": "_collateralAmount",
          "type": "uint256"
        }
      ],
      "name": "CollateralRemoved",
      "type": "event"
    },
    {
      "anonymous": false,
      "inputs": [
        {
          "indexed": true,
          "name": "_wallet",
          "type": "address"
        },
        {
          "indexed": true,
          "name": "_loanId",
          "type": "bytes32"
        },
        {
          "indexed": false,
          "name": "_debtToken",
          "type": "address"
        },
        {
          "indexed": false,
          "name": "_debtAmount",
          "type": "uint256"
        }
      ],
      "name": "DebtAdded",
      "type": "event"
    },
    {
      "anonymous": false,
      "inputs": [
        {
          "indexed": true,
          "name": "_wallet",
          "type": "address"
        },
        {
          "indexed": true,
          "name": "_loanId",
          "type": "bytes32"
        },
        {
          "indexed": false,
          "name": "_debtToken",
          "type": "address"
        },
        {
          "indexed": false,
          "name": "_debtAmount",
          "type": "uint256"
        }
      ],
      "name": "DebtRemoved",
      "type": "event"
    },
    {
      "constant": false,
      "inputs": [
        {
          "name": "_wallet",
          "type": "address"
        },
        {
          "name": "_collateral",
          "type": "address"
        },
        {
          "name": "_collateralAmount",
          "type": "uint256"
        },
        {
          "name": "_debtToken",
          "type": "address"
        },
        {
          "name": "_debtAmount",
          "type": "uint256"
        }
      ],
      "name": "openLoan",
      "outputs": [
        {
          "name": "_loanId",
          "type": "bytes32"
        }
      ],
      "payable": false,
      "stateMutability": "nonpayable",
      "type": "function"
    },
    {
      "constant": false,
      "inputs": [
        {
          "name": "_wallet",
          "type": "address"
        },
        {
          "name": "_loanId",
          "type": "bytes32"
        }
      ],
      "name": "closeLoan",
      "outputs": [],
      "payable": false,
      "stateMutability": "nonpayable",
      "type": "function"
    },
    {
      "constant": false,
      "inputs": [
        {
          "name": "_wallet",
          "type": "address"
        },
        {
          "name": "_loanId",
          "type": "bytes32"
        },
        {
          "name": "_collateral",
          "type": "address"
        },
        {
          "name": "_collateralAmount",
          "type": "uint256"
        }
      ],
      "name": "addCollateral",
      "outputs": [],
      "payable": false,
      "stateMutability": "nonpayable",
      "type": "function"
    },
    {
      "constant": false,
      "inputs": [
        {
          "name": "_wallet",
          "type": "address"
        },
        {
          "name": "_loanId",
          "type": "bytes32"
        },
        {
          "name": "_collateral",
          "type": "address"
        },
        {
          "name": "_collateralAmount",
          "type": "uint256"
        }
      ],
      "name": "removeCollateral",
      "outputs": [],
      "payable": false,
      "stateMutability": "nonpayable",
      "type": "function"
    },
    {
      "constant": false,
      "inputs": [
        {
          "name": "_wallet",
          "type": "address"
        },
        {
          "name": "_loanId",
          "type": "bytes32"
        },
        {
          "name": "_debtToken",
          "type": "address"
        },
        {
          "name": "_debtAmount",
          "type": "uint256"
        }
      ],
      "name": "addDebt",
      "outputs": [],
      "payable": false,
      "stateMutability": "nonpayable",
      "type": "function"
    },
    {
      "constant": false,
      "inputs": [
        {
          "name": "_wallet",
          "type": "address"
        },
        {
          "name": "_loanId",
          "type": "bytes32"
        },
        {
          "name": "_debtToken",
          "type": "address"
        },
        {
          "name": "_debtAmount",
          "type": "uint256"
        }
      ],
      "name": "removeDebt",
      "outputs": [],
      "payable": false,
      "stateMutability": "nonpayable",
      "type": "function"
    },
    {
      "constant": true,
      "inputs": [
        {
          "name": "_wallet",
          "type": "address"
        },
        {
          "name": "",
          "type": "bytes32"
        }
      ],
      "name": "getLoan",
      "outputs": [
        {
          "name": "_status",
          "type": "uint8"
        },
        {
          "name": "_ethValue",
          "type": "uint256"
        }
      ],
      "payable": false,
      "stateMutability": "view",
      "type": "function"
    },
    {
      "constant": false,
      "inputs": [
        {
          "name": "_wallet",
          "type": "address"
        },
        {
          "name": "_token",
          "type": "address"
        },
        {
          "name": "_amount",
          "type": "uint256"
        },
        {
          "name": "_period",
          "type": "uint256"
        }
      ],
      "name": "addInvestment",
      "outputs": [
        {
          "name": "_invested",
          "type": "uint256"
        }
      ],
      "payable": false,
      "stateMutability": "nonpayable",
      "type": "function"
    },
    {
      "constant": false,
      "inputs": [
        {
          "name": "_wallet",
          "type": "address"
        },
        {
          "name": "_token",
          "type": "address"
        },
        {
          "name": "_fraction",
          "type": "uint256"
        }
      ],
      "name": "removeInvestment",
      "outputs": [],
      "payable": false,
      "stateMutability": "nonpayable",
      "type": "function"
    },
    {
      "constant": true,
      "inputs": [
        {
          "name": "_wallet",
          "type": "address"
        },
        {
          "name": "_token",
          "type": "address"
        }
      ],
      "name": "getInvestment",
      "outputs": [
        {
          "name": "_tokenValue",
          "type": "uint256"
        },
        {
          "name": "_periodEnd",
          "type": "uint256"
        }
      ],
      "payable": false,
      "stateMutability": "view",
      "type": "function"
    }
  ],
  "bytecode": "0x608060405234801561001057600080fd5b506040516080806139ff8339810180604052608081101561003057600080fd5b50805160208083015160408085015160609095015160008054600160a060020a03808816600160a060020a031992831617909255600180549286169290911691909117905581517f436f6d706f756e644d616e616765720000000000000000000000000000000000808252925195969395939491938793879390927f3019c8fc80239e3dff8f781212ae2004839c2cb61d6c70acd279ac65392145df929081900390910190a1505060038054600160a060020a03948516600160a060020a03199182161790915560048054939094169216919091179091555050506138e58061011a6000396000f3fe608060405234801561001057600080fd5b50600436106101255760003560e060020a90048063a90cf0af116100b1578063c9b5ef8e11610075578063c9b5ef8e14610497578063cac7495c146104bd578063d490da4d14610504578063e8ca0ca314610541578063ec9e13aa1461057b57610125565b8063a90cf0af146102c3578063aacaaf88146102ef578063ac5f8d51146103df578063b02c808d14610419578063b352d4af1461045d57610125565b80635fe3b567116100f85780635fe3b567146101dc57806381c44b5c146101e457806385a13f381461022d57806398d53428146102675780639be65a601461029d57610125565b806319ab453c1461012a5780632d0335ab1461015257806347eb8d431461018a5780635a1db8c4146101ae575b600080fd5b6101506004803603602081101561014057600080fd5b5035600160a060020a03166105b7565b005b6101786004803603602081101561016857600080fd5b5035600160a060020a0316610658565b60408051918252519081900360200190f35b610192610673565b60408051600160a060020a039092168252519081900360200190f35b610150600480360360408110156101c457600080fd5b50600160a060020a0381358116916020013516610682565b610192610846565b610210600480360360408110156101fa57600080fd5b50600160a060020a038135169060200135610855565b6040805160ff909316835260208301919091528051918290030190f35b6101506004803603608081101561024357600080fd5b50600160a060020a0381358116916020810135916040820135169060600135610987565b6101506004803603606081101561027d57600080fd5b50600160a060020a03813581169160208101359091169060400135610b98565b610150600480360360208110156102b357600080fd5b5035600160a060020a0316610e86565b610150600480360360408110156102d957600080fd5b50600160a060020a038135169060200135610fb9565b6103cb600480360360c081101561030557600080fd5b600160a060020a03823516919081019060408101602082013564010000000081111561033057600080fd5b82018360208201111561034257600080fd5b8035906020019184600183028401116401000000008311171561036457600080fd5b9193909282359260408101906020013564010000000081111561038657600080fd5b82018360208201111561039857600080fd5b803590602001918460018302840111640100000000831117156103ba57600080fd5b9193509150803590602001356113da565b604080519115158252519081900360200190f35b610150600480360360808110156103f557600080fd5b50600160a060020a03813581169160208101359160408201351690606001356116b8565b610178600480360360a081101561042f57600080fd5b50600160a060020a0381358116916020810135821691604082013591606081013590911690608001356118c8565b6101506004803603608081101561047357600080fd5b50600160a060020a0381358116916020810135916040820135169060600135611c92565b610178600480360360208110156104ad57600080fd5b5035600160a060020a0316611ea4565b6104eb600480360360408110156104d357600080fd5b50600160a060020a0381358116916020013516611eb6565b6040805192835260208301919091528051918290030190f35b61050c612087565b604080517fffffffff000000000000000000000000000000000000000000000000000000009092168252519081900360200190f35b6101506004803603608081101561055757600080fd5b50600160a060020a03813581169160208101359160408201351690606001356120ab565b6101786004803603608081101561059157600080fd5b50600160a060020a038135811691602081013590911690604081013590606001356122bb565b8033600160a060020a03821614610618576040805160e560020a62461bcd02815260206004820152601960248201527f424d3a2063616c6c6572206d7573742062652077616c6c657400000000000000604482015290519081900360640190fd5b60408051600160a060020a038416815290517f9fcca3f73f85397e2bf03647abf243c20b753bd54463ff3cae74de2971c112fa9181900360200190a15050565b600160a060020a031660009081526002602052604090205490565b600454600160a060020a031681565b8133301480610696575061069681336124bf565b15156106d65760405160e560020a62461bcd02815260040180806020018281038252602381526020018061384a6023913960400191505060405180910390fd5b600054604080517f0bcd4ebb000000000000000000000000000000000000000000000000000000008152600160a060020a03858116600483015291519190921691630bcd4ebb916024808301926020929190829003018186803b15801561073c57600080fd5b505afa158015610750573d6000803e3d6000fd5b505050506040513d602081101561076657600080fd5b505115156107be576040805160e560020a62461bcd02815260206004820152601c60248201527f424d3a206d6f64756c65206973206e6f74207265676973746572656400000000604482015290519081900360640190fd5b604080517f1f17732d000000000000000000000000000000000000000000000000000000008152600160a060020a03848116600483015260016024830152915191851691631f17732d9160448082019260009290919082900301818387803b15801561082957600080fd5b505af115801561083d573d6000803e3d6000fd5b50505050505050565b600354600160a060020a031681565b600354604080517f5ec88c79000000000000000000000000000000000000000000000000000000008152600160a060020a038581166004830152915160009384938493849384939290921691635ec88c7991602480820192606092909190829003018186803b1580156108c757600080fd5b505afa1580156108db573d6000803e3d6000fd5b505050506040513d60608110156108f157600080fd5b5080516020820151604090920151909450909250905082156109475760405160e560020a62461bcd0281526004018080602001828103825260298152602001806138916029913960400191505060405180910390fd5b600082111561095e57506001935091506109809050565b600081111561097557600294509250610980915050565b506000935083925050505b9250929050565b833330148061099b575061099b81336124bf565b15156109db5760405160e560020a62461bcd02815260040180806020018281038252602381526020018061384a6023913960400191505060405180910390fd5b6001546040805160e260020a631293efbb028152600160a060020a038089166004830152915188939290921691634a4fbeec91602480820192602092909190829003018186803b158015610a2e57600080fd5b505afa158015610a42573d6000803e3d6000fd5b505050506040513d6020811015610a5857600080fd5b505115610a9d576040805160e560020a62461bcd02815260206004820152601b602482015260008051602061380a833981519152604482015290519081900360640190fd5b600480546040805160e060020a637e5a4eb9028152600160a060020a0388811694820194909452905160009390921691637e5a4eb991602480820192602092909190829003018186803b158015610af357600080fd5b505afa158015610b07573d6000803e3d6000fd5b505050506040513d6020811015610b1d57600080fd5b5051600354909150610b3b9088908390600160a060020a0316612546565b610b4687828661268d565b60408051600160a060020a0387811682526020820187905282518993918b16927ff6669d5e7ff92997c22e9fe3b54f53ed18448cf5fdccb3eb1dc5004798fbb41492908290030190a350505050505050565b8233301480610bac5750610bac81336124bf565b1515610bec5760405160e560020a62461bcd02815260040180806020018281038252602381526020018061384a6023913960400191505060405180910390fd5b6001546040805160e260020a631293efbb028152600160a060020a038088166004830152915187939290921691634a4fbeec91602480820192602092909190829003018186803b158015610c3f57600080fd5b505afa158015610c53573d6000803e3d6000fd5b505050506040513d6020811015610c6957600080fd5b505115610cae576040805160e560020a62461bcd02815260206004820152601b602482015260008051602061380a833981519152604482015290519081900360640190fd5b612710831115610cf25760405160e560020a62461bcd02815260040180806020018281038252602281526020018061379e6022913960400191505060405180910390fd5b600480546040805160e060020a637e5a4eb9028152600160a060020a0388811694820194909452905160009390921691637e5a4eb991602480820192602092909190829003018186803b158015610d4857600080fd5b505afa158015610d5c573d6000803e3d6000fd5b505050506040513d6020811015610d7257600080fd5b5051604080517f70a08231000000000000000000000000000000000000000000000000000000008152600160a060020a0389811660048301529151929350600092918416916370a0823191602480820192602092909190829003018186803b158015610ddd57600080fd5b505afa158015610df1573d6000803e3d6000fd5b505050506040513d6020811015610e0757600080fd5b50519050610e378783610e32612710610e26868b63ffffffff61277e16565b9063ffffffff6127b016565b6127d4565b60408051600160a060020a038881168252602082018890528251908a16927f9aa275f858ea6286ee2cacd32cd2ae55f918a310ee6d0320caad244ee9d6109e928290030190a250505050505050565b604080517f70a082310000000000000000000000000000000000000000000000000000000081523060048201529051600091600160a060020a038416916370a0823191602480820192602092909190829003018186803b158015610ee957600080fd5b505afa158015610efd573d6000803e3d6000fd5b505050506040513d6020811015610f1357600080fd5b505160008054604080517fa9059cbb000000000000000000000000000000000000000000000000000000008152600160a060020a0392831660048201526024810185905290519394509085169263a9059cbb92604480840193602093929083900390910190829087803b158015610f8957600080fd5b505af1158015610f9d573d6000803e3d6000fd5b505050506040513d6020811015610fb357600080fd5b50505050565b8133301480610fcd5750610fcd81336124bf565b151561100d5760405160e560020a62461bcd02815260040180806020018281038252602381526020018061384a6023913960400191505060405180910390fd5b6001546040805160e260020a631293efbb028152600160a060020a038087166004830152915186939290921691634a4fbeec91602480820192602092909190829003018186803b15801561106057600080fd5b505afa158015611074573d6000803e3d6000fd5b505050506040513d602081101561108a57600080fd5b5051156110cf576040805160e560020a62461bcd02815260206004820152601b602482015260008051602061380a833981519152604482015290519081900360640190fd5b600354604080517fabfceffc000000000000000000000000000000000000000000000000000000008152600160a060020a0387811660048301529151606093929092169163abfceffc91602480820192600092909190829003018186803b15801561113957600080fd5b505afa15801561114d573d6000803e3d6000fd5b505050506040513d6000823e601f3d908101601f19168201604052602081101561117657600080fd5b81019080805164010000000081111561118e57600080fd5b820160208101848111156111a157600080fd5b81518560208202830111640100000000821117156111be57600080fd5b50909450600093505050505b815181101561139c57600082828151811015156111e357fe5b906020019060200201519050600081600160a060020a03166317bfdfbc896040518263ffffffff1660e060020a0281526004018082600160a060020a0316600160a060020a03168152602001915050602060405180830381600087803b15801561124c57600080fd5b505af1158015611260573d6000803e3d6000fd5b505050506040513d602081101561127657600080fd5b5051905060008111156113925761128e8883836128c5565b600082600160a060020a03166370a082318a6040518263ffffffff1660e060020a0281526004018082600160a060020a0316600160a060020a0316815260200191505060206040518083038186803b1580156112e957600080fd5b505afa1580156112fd573d6000803e3d6000fd5b505050506040513d602081101561131357600080fd5b505190508015156113905760035460408051600160a060020a03868116602480840191909152835180840390910181526044909201909252602081018051600160e060020a03167fede4edd00000000000000000000000000000000000000000000000000000000017905261138e928c921690600090612c6c565b505b505b50506001016111ca565b506040518490600160a060020a038716907f07e4a0c6f06275f83bcf78e5a10eb7f5515574d593bce993377961f4133b951c90600090a35050505050565b6000805a9050600061142a308c60008d8d8080601f0160208091040260200160405190810160405280939291908181526020018383808284376000920191909152508f92508c91508b9050612eda565b90506114378b898361301d565b151561148d576040805160e560020a62461bcd02815260206004820152601560248201527f524d3a204475706c696361746520726571756573740000000000000000000000604482015290519081900360640190fd5b6114cd8b8b8b8080601f01602080910402602001604051908101604052809392919081815260200183838082843760009201919091525061303192505050565b151561150d5760405160e560020a62461bcd02815260040180806020018281038252604a8152602001806137c0604a913960600191505060405180910390fd5b600061154f8c8c8c8080601f0160208091040260200160405190810160405280939291908181526020018383808284376000920191909152506130a592505050565b905060418102871415611667576115688c8688846130ad565b15611667578015806115eb57506115eb8c8c8c8080601f01602080910402602001604051908101604052809392919081815260200183838082843760009201919091525050604080516020601f8f018190048102820181019092528d815288935091508d908d908190840183828082843760009201919091525061317f92505050565b156116675730600160a060020a03168b8b604051808383808284376040519201945060009350909150508083038183865af19150503d806000811461164c576040519150601f19603f3d011682016040523d82523d6000602084013e611651565b606091505b5050809450506116678c5a8503888885336131a4565b60408051838152905185151591600160a060020a038f16917f6bb0b384ce772133df63560651bc8c727c53306cec1d51e2cbf8ea35fb8f2ec19181900360200190a350505098975050505050505050565b83333014806116cc57506116cc81336124bf565b151561170c5760405160e560020a62461bcd02815260040180806020018281038252602381526020018061384a6023913960400191505060405180910390fd5b6001546040805160e260020a631293efbb028152600160a060020a038089166004830152915188939290921691634a4fbeec91602480820192602092909190829003018186803b15801561175f57600080fd5b505afa158015611773573d6000803e3d6000fd5b505050506040513d602081101561178957600080fd5b5051156117ce576040805160e560020a62461bcd02815260206004820152601b602482015260008051602061380a833981519152604482015290519081900360640190fd5b600480546040805160e060020a637e5a4eb9028152600160a060020a0388811694820194909452905160009390921691637e5a4eb991602480820192602092909190829003018186803b15801561182457600080fd5b505afa158015611838573d6000803e3d6000fd5b505050506040513d602081101561184e57600080fd5b5051905061185d878286613202565b6003546118769088908390600160a060020a03166132f3565b60408051600160a060020a0387811682526020820187905282518993918b16927ff1dec7a92ef063b16d2098bb05803ed604936a7ff30f0d245fe881baf96e8e6b92908290030190a350505050505050565b600085333014806118de57506118de81336124bf565b151561191e5760405160e560020a62461bcd02815260040180806020018281038252602381526020018061384a6023913960400191505060405180910390fd5b6001546040805160e260020a631293efbb028152600160a060020a03808b16600483015291518a939290921691634a4fbeec91602480820192602092909190829003018186803b15801561197157600080fd5b505afa158015611985573d6000803e3d6000fd5b505050506040513d602081101561199b57600080fd5b5051156119e0576040805160e560020a62461bcd02815260206004820152601b602482015260008051602061380a833981519152604482015290519081900360640190fd5b60408051600280825260608083018452926020830190803883395050600480546040805160e060020a637e5a4eb9028152600160a060020a038e8116948201949094529051949550911692637e5a4eb992506024808301926020929190829003018186803b158015611a5157600080fd5b505afa158015611a65573d6000803e3d6000fd5b505050506040513d6020811015611a7b57600080fd5b5051815182906000908110611a8c57fe5b600160a060020a039283166020918202909201810191909152600480546040805160e060020a637e5a4eb90281528b86169381019390935251931692637e5a4eb992602480840193919291829003018186803b158015611aeb57600080fd5b505afa158015611aff573d6000803e3d6000fd5b505050506040513d6020811015611b1557600080fd5b5051815182906001908110611b2657fe5b600160a060020a03928316602091820290920181019190915260035460405160248101838152855160448301528551611be6958f9594169360009388939283926064909201918581019102808383895b83811015611b8e578181015183820152602001611b76565b50506040805193909501838103601f19018452909452506020810180517fc299823800000000000000000000000000000000000000000000000000000000600160e060020a039091161790529450612c6c9350505050565b50611c0b89826000815181101515611bfa57fe5b906020019060200201518a8a613495565b611c2e89826001815181101515611c1e57fe5b906020019060200201518761268d565b60408051600160a060020a038a81168252602082018a90528881168284015260608201889052915186928c16917ff9d7e11fb5d8d1e0a4be344a6a6adfb912161747edf926fb283150d07c39c108919081900360800190a350505095945050505050565b8333301480611ca65750611ca681336124bf565b1515611ce65760405160e560020a62461bcd02815260040180806020018281038252602381526020018061384a6023913960400191505060405180910390fd5b6001546040805160e260020a631293efbb028152600160a060020a038089166004830152915188939290921691634a4fbeec91602480820192602092909190829003018186803b158015611d3957600080fd5b505afa158015611d4d573d6000803e3d6000fd5b505050506040513d6020811015611d6357600080fd5b505115611da8576040805160e560020a62461bcd02815260206004820152601b602482015260008051602061380a833981519152604482015290519081900360640190fd5b600480546040805160e060020a637e5a4eb9028152600160a060020a0388811694820194909452905160009390921691637e5a4eb991602480820192602092909190829003018186803b158015611dfe57600080fd5b505afa158015611e12573d6000803e3d6000fd5b505050506040513d6020811015611e2857600080fd5b5051600354909150611e469088908390600160a060020a0316612546565b611e5287828787613495565b60408051600160a060020a0387811682526020820187905282518993918b16927fdd016248708c391ccb5c72f9258127c75b9b291ac1479513fe4f331c3489013792908290030190a350505050505050565b60026020526000908152604090205481565b600480546040805160e060020a637e5a4eb9028152600160a060020a0385811694820194909452905160009384938493911691637e5a4eb991602480820192602092909190829003018186803b158015611f0f57600080fd5b505afa158015611f23573d6000803e3d6000fd5b505050506040513d6020811015611f3957600080fd5b5051604080517f70a08231000000000000000000000000000000000000000000000000000000008152600160a060020a0388811660048301529151929350600092918416916370a0823191602480820192602092909190829003018186803b158015611fa457600080fd5b505afa158015611fb8573d6000803e3d6000fd5b505050506040513d6020811015611fce57600080fd5b5051604080517f182df0f50000000000000000000000000000000000000000000000000000000081529051919250600091600160a060020a0385169163182df0f5916004808301926020929190829003018186803b15801561202f57600080fd5b505afa158015612043573d6000803e3d6000fd5b505050506040513d602081101561205957600080fd5b50519050612079670de0b6b3a7640000610e26848463ffffffff61277e16565b976000975095505050505050565b7fd490da4d0000000000000000000000000000000000000000000000000000000090565b83333014806120bf57506120bf81336124bf565b15156120ff5760405160e560020a62461bcd02815260040180806020018281038252602381526020018061384a6023913960400191505060405180910390fd5b6001546040805160e260020a631293efbb028152600160a060020a038089166004830152915188939290921691634a4fbeec91602480820192602092909190829003018186803b15801561215257600080fd5b505afa158015612166573d6000803e3d6000fd5b505050506040513d602081101561217c57600080fd5b5051156121c1576040805160e560020a62461bcd02815260206004820152601b602482015260008051602061380a833981519152604482015290519081900360640190fd5b600480546040805160e060020a637e5a4eb9028152600160a060020a0388811694820194909452905160009390921691637e5a4eb991602480820192602092909190829003018186803b15801561221757600080fd5b505afa15801561222b573d6000803e3d6000fd5b505050506040513d602081101561224157600080fd5b505190506122508782866128c5565b6003546122699088908390600160a060020a03166132f3565b60408051600160a060020a0387811682526020820187905282518993918b16927fbfa42ea7d37497e6a09441fadba47d64b610b6b1183d895dd0a42507973430bf92908290030190a350505050505050565b600084333014806122d157506122d181336124bf565b15156123115760405160e560020a62461bcd02815260040180806020018281038252602381526020018061384a6023913960400191505060405180910390fd5b6001546040805160e260020a631293efbb028152600160a060020a03808a166004830152915189939290921691634a4fbeec91602480820192602092909190829003018186803b15801561236457600080fd5b505afa158015612378573d6000803e3d6000fd5b505050506040513d602081101561238e57600080fd5b5051156123d3576040805160e560020a62461bcd02815260206004820152601b602482015260008051602061380a833981519152604482015290519081900360640190fd5b600480546040805160e060020a637e5a4eb9028152600160a060020a038a811694820194909452905160009390921691637e5a4eb991602480820192602092909190829003018186803b15801561242957600080fd5b505afa15801561243d573d6000803e3d6000fd5b505050506040513d602081101561245357600080fd5b5051905061246388828989613495565b60408051600160a060020a038981168252602082018990528183018890529151889650918a16917ff8eece150ed2126815122a6def9737751aecd814379d4ce8c9edd07133a49cdb9181900360600190a2505050949350505050565b600081600160a060020a031683600160a060020a0316638da5cb5b6040518163ffffffff1660e060020a02815260040160206040518083038186803b15801561250757600080fd5b505afa15801561251b573d6000803e3d6000fd5b505050506040513d602081101561253157600080fd5b5051600160a060020a03161490505b92915050565b604080517f929fe9a1000000000000000000000000000000000000000000000000000000008152600160a060020a0385811660048301528481166024830152915160009284169163929fe9a1916044808301926020929190829003018186803b1580156125b257600080fd5b505afa1580156125c6573d6000803e3d6000fd5b505050506040513d60208110156125dc57600080fd5b50519050801515610fb357604080516001808252818301909252606091602080830190803883390190505090508381600081518110151561261957fe5b90602001906020020190600160a060020a03169081600160a060020a031681525050612685858460008460405160240180806020018281038252838181518152602001915080519060200190602002808383600083811015611b8e578181015183820152602001611b76565b505050505050565b600160a060020a03821615156126d75760405160e560020a62461bcd02815260040180806020018281038252602481526020018061386d6024913960400191505060405180910390fd5b6000811161271d576040805160e560020a62461bcd02815260206004820152601c602482015260008051602061382a833981519152604482015290519081900360640190fd5b604080516024808201849052825180830390910181526044909101909152602081018051600160e060020a03167fc5ebeaec00000000000000000000000000000000000000000000000000000000179052610fb39084908490600090612c6c565b600082151561278f57506000612540565b82820282848281151561279e57fe5b04146127a957600080fd5b9392505050565b60008082116127be57600080fd5b600082848115156127cb57fe5b04949350505050565b600160a060020a038216151561281e5760405160e560020a62461bcd02815260040180806020018281038252602481526020018061386d6024913960400191505060405180910390fd5b60008111612864576040805160e560020a62461bcd02815260206004820152601c602482015260008051602061382a833981519152604482015290519081900360640190fd5b604080516024808201849052825180830390910181526044909101909152602081018051600160e060020a03167fdb006a7500000000000000000000000000000000000000000000000000000000179052610fb39084908490600090612c6c565b600160a060020a038216151561290f5760405160e560020a62461bcd02815260040180806020018281038252602481526020018061386d6024913960400191505060405180910390fd5b60008111612955576040805160e560020a62461bcd02815260206004820152601c602482015260008051602061382a833981519152604482015290519081900360640190fd5b606082600160a060020a03166395d89b416040518163ffffffff1660e060020a02815260040160006040518083038186803b15801561299357600080fd5b505afa1580156129a7573d6000803e3d6000fd5b505050506040513d6000823e601f3d908101601f1916820160405260208110156129d057600080fd5b8101908080516401000000008111156129e857600080fd5b820160208101848111156129fb57600080fd5b8151640100000000811182820187101715612a1557600080fd5b5050929190505050905060405160200180807f6345544800000000000000000000000000000000000000000000000000000000815250600401905060405160208183030381529060405280519060200120816040516020018082805190602001908083835b60208310612a995780518252601f199092019160209182019101612a7a565b6001836020036101000a038019825116818451168082178552505050505050905001915050604051602081830303815290604052805190602001201415612b3157604080516004815260248101909152602081018051600160e060020a03167f4e4d9fea00000000000000000000000000000000000000000000000000000000179052612b2b90859085908590612c6c565b50610fb3565b600083600160a060020a0316636f307dc36040518163ffffffff1660e060020a02815260040160206040518083038186803b158015612b6f57600080fd5b505afa158015612b83573d6000803e3d6000fd5b505050506040513d6020811015612b9957600080fd5b505160408051600160a060020a03871660248201526044808201879052825180830390910181526064909101909152602081018051600160e060020a03167f095ea7b300000000000000000000000000000000000000000000000000000000179052909150612c0e9086908390600090612c6c565b50604080516024808201869052825180830390910181526044909101909152602081018051600160e060020a03167f0e7527020000000000000000000000000000000000000000000000000000000017905261268590869086906000905b6060600085600160a060020a03168585856040516024018084600160a060020a0316600160a060020a0316815260200183815260200180602001828103825283818151815260200191508051906020019080838360005b83811015612cdb578181015183820152602001612cc3565b50505050905090810190601f168015612d085780820380516001836020036101000a031916815260200191505b5060408051601f19818403018152918152602082018051600160e060020a03167f8f6f033200000000000000000000000000000000000000000000000000000000178152905182519297509550859450925090508083835b60208310612d7f5780518252601f199092019160209182019101612d60565b6001836020036101000a0380198251168184511680821785525050505050509050019150506000604051808303816000865af19150503d8060008114612de1576040519150601f19603f3d011682016040523d82523d6000602084013e612de6565b606091505b5092509050808015612df9575060008251115b15612e6657818060200190516020811015612e1357600080fd5b810190808051640100000000811115612e2b57600080fd5b82016020810184811115612e3e57600080fd5b8151640100000000811182820187101715612e5857600080fd5b50909550612ed19350505050565b600082511115612e7a573d6000803e3d6000fd5b801515612ed1576040805160e560020a62461bcd02815260206004820152601a60248201527f424d3a2077616c6c657420696e766f6b65207265766572746564000000000000604482015290519081900360640190fd5b50949350505050565b6040517f190000000000000000000000000000000000000000000000000000000000000060208083018281526000602185018190526c01000000000000000000000000600160a060020a03808e16820260228801528c16026036860152604a85018a90528851909485938d938d938d938d938d938d938d939192606a909201918701908083835b60208310612f805780518252601f199092019160209182019101612f61565b51815160209384036101000a600019018019909216911617905292019586525084810193909352506040808401919091528051808403820181526060840182528051908301207f19457468657265756d205369676e6564204d6573736167653a0a3332000000006080850152609c808501919091528151808503909101815260bc909301905281519101209e9d5050505050505050505050505050565b6000613029848461366d565b949350505050565b6000602482511015151561308f576040805160e560020a62461bcd02815260206004820152601660248201527f524d3a20496e76616c6964206461746157616c6c657400000000000000000000604482015290519081900360640190fd5b5060240151600160a060020a0391821691161490565b600192915050565b600080831180156130be5750600182115b8015613167575082840285600160a060020a03163110806131675750604080517fd6eb1bbf0000000000000000000000000000000000000000000000000000000081523060048201529051600160a060020a0387169163d6eb1bbf916024808301926020929190829003018186803b15801561313957600080fd5b505afa15801561314d573d6000803e3d6000fd5b505050506040513d602081101561316357600080fd5b5051155b1561317457506000613029565b506001949350505050565b60008061318e848460006136f3565b905061319a86826124bf565b9695505050505050565b61726c85016000851180156131b95750600183115b80156131c55750838111155b1561083d573a8511156131d9573a026131dc565b84025b6131f88783836020604051908101604052806000815250612c6c565b5050505050505050565b600160a060020a038216151561324c5760405160e560020a62461bcd02815260040180806020018281038252602481526020018061386d6024913960400191505060405180910390fd5b60008111613292576040805160e560020a62461bcd02815260206004820152601c602482015260008051602061382a833981519152604482015290519081900360640190fd5b604080516024808201849052825180830390910181526044909101909152602081018051600160e060020a03167f852a12e300000000000000000000000000000000000000000000000000000000179052610fb39084908490600090612c6c565b600082600160a060020a03166370a08231856040518263ffffffff1660e060020a0281526004018082600160a060020a0316600160a060020a0316815260200191505060206040518083038186803b15801561334e57600080fd5b505afa158015613362573d6000803e3d6000fd5b505050506040513d602081101561337857600080fd5b5051604080517f95dd9193000000000000000000000000000000000000000000000000000000008152600160a060020a0387811660048301529151929350600092918616916395dd919391602480820192602092909190829003018186803b1580156133e357600080fd5b505afa1580156133f7573d6000803e3d6000fd5b505050506040513d602081101561340d57600080fd5b505190508115801561341d575080155b1561348e5760408051600160a060020a038616602480830191909152825180830390910181526044909101909152602081018051600160e060020a03167fede4edd0000000000000000000000000000000000000000000000000000000001790526126859086908590600090612c6c565b5050505050565b600160a060020a03831615156134df5760405160e560020a62461bcd02815260040180806020018281038252602481526020018061386d6024913960400191505060405180910390fd5b60008111613525576040805160e560020a62461bcd02815260206004820152601c602482015260008051602061382a833981519152604482015290519081900360640190fd5b600160a060020a03821673eeeeeeeeeeeeeeeeeeeeeeeeeeeeeeeeeeeeeeee141561359b57604080516004815260248101909152602081018051600160e060020a03167f1249c58b00000000000000000000000000000000000000000000000000000000179052612b2b90859085908490612c6c565b60408051600160a060020a03851660248201526044808201849052825180830390910181526064909101909152602081018051600160e060020a03167f095ea7b30000000000000000000000000000000000000000000000000000000017905261360b9085908490600090612c6c565b50604080516024808201849052825180830390910181526044909101909152602081018051600160e060020a03167fa0712d680000000000000000000000000000000000000000000000000000000017905261348e9085908590600090612c6c565b600160a060020a038216600090815260026020526040812054821161369457506000612540565b7001000000000000000000000000000000006fffffffffffffffffffffffffffffffff1983160443612710018111156136d1576000915050612540565b5050600160a060020a0391909116600090815260026020526040902055600190565b6041808202830160208101516040820151919092015160009260ff9190911691601b83148061372557508260ff16601c145b151561373057600080fd5b604080516000815260208082018084528a905260ff8616828401526060820185905260808201849052915160019260a0808401939192601f1981019281900390910190855afa158015613787573d6000803e3d6000fd5b5050604051601f1901519897505050505050505056fe436f6d706f756e6456323a20696e76616c6964206672616374696f6e2076616c7565524d3a207468652077616c6c657420617574686f72697a656420697320646966666572656e74207468656e2074686520746172676574206f66207468652072656c617965642064617461424d3a2077616c6c6574206d75737420626520756e6c6f636b65640000000000436f6d706f756e643a20616d6f756e742063616e6e6f74206265203000000000424d3a206d75737420626520616e206f776e657220666f72207468652077616c6c6574436f6d706f756e643a204e6f206d61726b657420666f722074617267657420746f6b656e436f6d706f756e643a206661696c656420746f20676574206163636f756e74206c6971756964697479a165627a7a7230582013304284e057caf64c07481c680e1c1ec5d64b00e90663eb362168c03f9e55d10029",
  "source": "pragma solidity ^0.5.4;\n\nimport \"../utils/SafeMath.sol\";\nimport \"../wallet/BaseWallet.sol\";\nimport \"./common/BaseModule.sol\";\nimport \"./common/RelayerModule.sol\";\nimport \"./common/OnlyOwnerModule.sol\";\nimport \"../defi/Loan.sol\";\nimport \"../defi/Invest.sol\";\nimport \"../defi/utils/CompoundRegistry.sol\";\n\ninterface IComptroller {\n    function enterMarkets(address[] calldata _cTokens) external returns (uint[] memory);\n    function exitMarket(address _cToken) external returns (uint);\n    function getAssetsIn(address _account) external view returns (address[] memory);\n    function getAccountLiquidity(address _account) external view returns (uint, uint, uint);\n    function checkMembership(address account, ICToken cToken) external view returns (bool);\n}\n\ninterface ICToken {\n    function comptroller() external view returns (address);\n    function underlying() external view returns (address);\n    function symbol() external view returns (string memory);\n    function exchangeRateCurrent() external returns (uint256);\n    function exchangeRateStored() external view returns (uint256);\n    function balanceOf(address _account) external view returns (uint256);\n    function borrowBalanceCurrent(address _account) external returns (uint256);\n    function borrowBalanceStored(address _account) external view returns (uint256);\n}\n\n/**\n * @title CompoundManager\n * @dev Module to invest and borrow tokens with CompoundV2\n * @author Julien Niset - <julien@argent.xyz>\n */\ncontract CompoundManager is Loan, Invest, BaseModule, RelayerModule, OnlyOwnerModule {\n\n    bytes32 constant NAME = \"CompoundManager\";\n\n    // The Compound IComptroller contract\n    IComptroller public comptroller;\n    // The registry mapping underlying with cTokens\n    CompoundRegistry public compoundRegistry;\n\n    // Mock token address for ETH\n    address constant internal ETH_TOKEN_ADDRESS = 0xEeeeeEeeeEeEeeEeEeEeeEEEeeeeEeeeeeeeEEeE;\n\n    using SafeMath for uint256;\n\n    constructor(\n        ModuleRegistry _registry,\n        GuardianStorage _guardianStorage,\n        IComptroller _comptroller,\n        CompoundRegistry _compoundRegistry\n    )\n        BaseModule(_registry, _guardianStorage, NAME)\n        public\n    {\n        comptroller = _comptroller;\n        compoundRegistry = _compoundRegistry;\n    }\n\n    /* ********************************** Implementation of Loan ************************************* */\n\n    /**\n     * @dev Opens a collateralized loan.\n     * @param _wallet The target wallet.\n     * @param _collateral The token used as a collateral.\n     * @param _collateralAmount The amount of collateral token provided.\n     * @param _debtToken The token borrowed.\n     * @param _debtAmount The amount of tokens borrowed.\n     * @return bytes32(0) as Compound does not allow the creation of multiple loans.\n     */\n    function openLoan(\n        BaseWallet _wallet,\n        address _collateral,\n        uint256 _collateralAmount,\n        address _debtToken,\n        uint256 _debtAmount\n    )\n        external\n        onlyWalletOwner(_wallet)\n        onlyWhenUnlocked(_wallet)\n        returns (bytes32 _loanId)\n    {\n        address[] memory markets = new address[](2);\n        markets[0] = compoundRegistry.getCToken(_collateral);\n        markets[1] = compoundRegistry.getCToken(_debtToken);\n        invokeWallet(address(_wallet), address(comptroller), 0, abi.encodeWithSignature(\"enterMarkets(address[])\", markets));\n        mint(_wallet, markets[0], _collateral, _collateralAmount);\n        borrow(_wallet, markets[1], _debtAmount);\n        emit LoanOpened(address(_wallet), _loanId, _collateral, _collateralAmount, _debtToken, _debtAmount);\n    }\n\n    /**\n     * @dev Closes the collateralized loan in all markets by repaying all debts (plus interest). Note that it does not redeem the collateral.\n     * @param _wallet The target wallet.\n     * @param _loanId bytes32(0) as Compound does not allow the creation of multiple loans.\n     */\n    function closeLoan(\n        BaseWallet _wallet,\n        bytes32 _loanId\n    )\n        external\n        onlyWalletOwner(_wallet)\n        onlyWhenUnlocked(_wallet)\n    {\n        address[] memory markets = comptroller.getAssetsIn(address(_wallet));\n        for(uint i = 0; i < markets.length; i++) {\n            address cToken = markets[i];\n            uint debt = ICToken(cToken).borrowBalanceCurrent(address(_wallet));\n            if(debt > 0) {\n                repayBorrow(_wallet, cToken, debt);\n                uint collateral = ICToken(cToken).balanceOf(address(_wallet));\n                if(collateral == 0) {\n                    invokeWallet(address(_wallet), address(comptroller), 0, abi.encodeWithSignature(\"exitMarket(address)\", address(cToken)));\n                }\n            }\n        }\n        emit LoanClosed(address(_wallet), _loanId);\n    }\n\n    /**\n     * @dev Adds collateral to a loan identified by its ID.\n     * @param _wallet The target wallet.\n     * @param _loanId bytes32(0) as Compound does not allow the creation of multiple loans.\n     * @param _collateral The token used as a collateral.\n     * @param _collateralAmount The amount of collateral to add.\n     */\n    function addCollateral(\n        BaseWallet _wallet,\n        bytes32 _loanId,\n        address _collateral,\n        uint256 _collateralAmount\n    )\n        external\n        onlyWalletOwner(_wallet)\n        onlyWhenUnlocked(_wallet)\n    {\n        address cToken = compoundRegistry.getCToken(_collateral);\n        enterMarketIfNeeded(_wallet, cToken, address(comptroller));\n        mint(_wallet, cToken, _collateral, _collateralAmount);\n        emit CollateralAdded(address(_wallet), _loanId, _collateral, _collateralAmount);\n    }\n\n    /**\n     * @dev Removes collateral from a loan identified by its ID.\n     * @param _wallet The target wallet.\n     * @param _loanId bytes32(0) as Compound does not allow the creation of multiple loans.\n     * @param _collateral The token used as a collateral.\n     * @param _collateralAmount The amount of collateral to remove.\n     */\n    function removeCollateral(\n        BaseWallet _wallet,\n        bytes32 _loanId,\n        address _collateral,\n        uint256 _collateralAmount\n    )\n        external\n        onlyWalletOwner(_wallet)\n        onlyWhenUnlocked(_wallet)\n    {\n        address cToken = compoundRegistry.getCToken(_collateral);\n        redeemUnderlying(_wallet, cToken, _collateralAmount);\n        exitMarketIfNeeded(_wallet, cToken, address(comptroller));\n        emit CollateralRemoved(address(_wallet), _loanId, _collateral, _collateralAmount);\n    }\n\n    /**\n     * @dev Increases the debt by borrowing more token from a loan identified by its ID.\n     * @param _wallet The target wallet.\n     * @param _loanId bytes32(0) as Compound does not allow the creation of multiple loans.\n     * @param _debtToken The token borrowed.\n     * @param _debtAmount The amount of token to borrow.\n     */\n    function addDebt(\n        BaseWallet _wallet,\n        bytes32 _loanId,\n        address _debtToken,\n        uint256 _debtAmount\n    )\n        external\n        onlyWalletOwner(_wallet)\n        onlyWhenUnlocked(_wallet)\n    {\n        address dToken = compoundRegistry.getCToken(_debtToken);\n        enterMarketIfNeeded(_wallet, dToken, address(comptroller));\n        borrow(_wallet, dToken, _debtAmount);\n        emit DebtAdded(address(_wallet), _loanId, _debtToken, _debtAmount);\n    }\n\n    /**\n     * @dev Decreases the debt by repaying some token from a loan identified by its ID.\n     * @param _wallet The target wallet.\n     * @param _loanId bytes32(0) as Compound does not allow the creation of multiple loans.\n     * @param _debtToken The token to repay.\n     * @param _debtAmount The amount of token to repay.\n     */\n    function removeDebt(\n        BaseWallet _wallet,\n        bytes32 _loanId,\n        address _debtToken,\n        uint256 _debtAmount\n    )\n        external\n        onlyWalletOwner(_wallet)\n        onlyWhenUnlocked(_wallet)\n    {\n        address dToken = compoundRegistry.getCToken(_debtToken);\n        repayBorrow(_wallet, dToken, _debtAmount);\n        exitMarketIfNeeded(_wallet, dToken, address(comptroller));\n        emit DebtRemoved(address(_wallet), _loanId, _debtToken, _debtAmount);\n    }\n\n    /**\n     * @dev Gets information about the loan status on Compound.\n     * @param _wallet The target wallet.\n     * @return a status [0: no loan, 1: loan is safe, 2: loan is unsafe and can be liquidated]\n     * and a value (in ETH) representing the value that could still be borrowed when status = 1; or the value of the collateral\n     * that should be added to avoid liquidation when status = 2.\n     */\n    function getLoan(\n        BaseWallet _wallet,\n        bytes32 /* _loanId */\n    )\n        external\n        view\n        returns (uint8 _status, uint256 _ethValue)\n    {\n        (uint error, uint liquidity, uint shortfall) = comptroller.getAccountLiquidity(address(_wallet));\n        require(error == 0, \"Compound: failed to get account liquidity\");\n        if(liquidity > 0) {\n            return (1, liquidity);\n        }\n        if(shortfall > 0) {\n            return (2, shortfall);\n        }\n        return (0,0);\n    }\n\n    /* ********************************** Implementation of Invest ************************************* */\n\n    /**\n     * @dev Invest tokens for a given period.\n     * @param _wallet The target wallet.\n     * @param _token The token address.\n     * @param _amount The amount of tokens to invest.\n     * @param _period The period over which the tokens may be locked in the investment (optional).\n     * @return The exact amount of tokens that have been invested. \n     */\n    function addInvestment(\n        BaseWallet _wallet,\n        address _token,\n        uint256 _amount,\n        uint256 _period\n    )\n        external\n        onlyWalletOwner(_wallet)\n        onlyWhenUnlocked(_wallet)\n        returns (uint256 _invested)\n    {\n        address cToken = compoundRegistry.getCToken(_token);\n        mint(_wallet, cToken, _token, _amount);\n        _invested = _amount;\n        emit InvestmentAdded(address(_wallet), _token, _amount, _period);\n    }\n\n    /**\n     * @dev Exit invested postions.\n     * @param _wallet The target wallet.\n     * @param _token The token address.\n     * @param _fraction The fraction of invested tokens to exit in per 10000. \n     */\n    function removeInvestment(\n        BaseWallet _wallet,\n        address _token,\n        uint256 _fraction\n    )\n        external\n        onlyWalletOwner(_wallet)\n        onlyWhenUnlocked(_wallet)\n    {\n        require(_fraction <= 10000, \"CompoundV2: invalid fraction value\");\n        address cToken = compoundRegistry.getCToken(_token);\n        uint shares = ICToken(cToken).balanceOf(address(_wallet));\n        redeem(_wallet, cToken, shares.mul(_fraction).div(10000));\n        emit InvestmentRemoved(address(_wallet), _token, _fraction);\n    }\n\n    /**\n     * @dev Get the amount of investment in a given token.\n     * @param _wallet The target wallet.\n     * @param _token The token address.\n     * @return The value in tokens of the investment (including interests) and the time at which the investment can be removed.\n     */\n    function getInvestment(\n        BaseWallet _wallet,\n        address _token\n    )\n        external\n        view\n        returns (uint256 _tokenValue, uint256 _periodEnd)\n    {\n        address cToken = compoundRegistry.getCToken(_token);\n        uint amount = ICToken(cToken).balanceOf(address(_wallet));\n        uint exchangeRateMantissa = ICToken(cToken).exchangeRateStored();\n        _tokenValue = amount.mul(exchangeRateMantissa).div(10 ** 18);\n        _periodEnd = 0;\n    }\n\n    /* ****************************************** Compound wrappers ******************************************* */\n\n    /**\n     * @dev Adds underlying tokens to a cToken contract.\n     * @param _wallet The target wallet.\n     * @param _cToken The cToken contract.\n     * @param _token The underlying token.\n     * @param _amount The amount of underlying token to add.\n     */\n    function mint(BaseWallet _wallet, address _cToken, address _token, uint256 _amount) internal {\n        require(_cToken != address(0), \"Compound: No market for target token\");\n        require(_amount > 0, \"Compound: amount cannot be 0\");\n        if(_token == ETH_TOKEN_ADDRESS) {\n            invokeWallet(address(_wallet), _cToken, _amount, abi.encodeWithSignature(\"mint()\"));\n        }\n        else {\n            invokeWallet(address(_wallet), _token, 0, abi.encodeWithSignature(\"approve(address,uint256)\", _cToken, _amount));\n            invokeWallet(address(_wallet), _cToken, 0, abi.encodeWithSignature(\"mint(uint256)\", _amount));\n        }\n    }\n\n    /**\n     * @dev Redeems underlying tokens from a cToken contract.\n     * @param _wallet The target wallet.\n     * @param _cToken The cToken contract.\n     * @param _amount The amount of cToken to redeem.\n     */\n    function redeem(BaseWallet _wallet, address _cToken, uint256 _amount) internal {\n        require(_cToken != address(0), \"Compound: No market for target token\");\n        require(_amount > 0, \"Compound: amount cannot be 0\");\n        invokeWallet(address(_wallet), _cToken, 0, abi.encodeWithSignature(\"redeem(uint256)\", _amount));\n    }\n\n    /**\n     * @dev Redeems underlying tokens from a cToken contract.\n     * @param _wallet The target wallet.\n     * @param _cToken The cToken contract.\n     * @param _amount The amount of underlying token to redeem.\n     */\n    function redeemUnderlying(BaseWallet _wallet, address _cToken, uint256 _amount) internal {\n        require(_cToken != address(0), \"Compound: No market for target token\");\n        require(_amount > 0, \"Compound: amount cannot be 0\");\n        invokeWallet(address(_wallet), _cToken, 0, abi.encodeWithSignature(\"redeemUnderlying(uint256)\", _amount));\n    }\n\n    /**\n     * @dev Borrows underlying tokens from a cToken contract.\n     * @param _wallet The target wallet.\n     * @param _cToken The cToken contract.\n     * @param _amount The amount of underlying tokens to borrow.\n     */\n    function borrow(BaseWallet _wallet, address _cToken, uint256 _amount) internal {\n        require(_cToken != address(0), \"Compound: No market for target token\");\n        require(_amount > 0, \"Compound: amount cannot be 0\");\n        invokeWallet(address(_wallet), _cToken, 0, abi.encodeWithSignature(\"borrow(uint256)\", _amount));\n    }\n\n    /**\n     * @dev Repays some borrowed underlying tokens to a cToken contract.\n     * @param _wallet The target wallet.\n     * @param _cToken The cToken contract.\n     * @param _amount The amount of underlying to repay.\n     */\n    function repayBorrow(BaseWallet _wallet, address _cToken, uint256 _amount) internal {\n        require(_cToken != address(0), \"Compound: No market for target token\");\n        require(_amount > 0, \"Compound: amount cannot be 0\");\n        string memory symbol = ICToken(_cToken).symbol();\n        if(keccak256(abi.encodePacked(symbol)) == keccak256(abi.encodePacked(\"cETH\"))) {\n            invokeWallet(address(_wallet), _cToken, _amount, abi.encodeWithSignature(\"repayBorrow()\"));\n        }\n        else {\n            address token = ICToken(_cToken).underlying();\n            invokeWallet(address(_wallet), token, 0, abi.encodeWithSignature(\"approve(address,uint256)\", _cToken, _amount));\n            invokeWallet(address(_wallet), _cToken, 0, abi.encodeWithSignature(\"repayBorrow(uint256)\", _amount));\n        }\n    }\n\n    /**\n     * @dev Enters a cToken market if it was not entered before.\n     * @param _wallet The target wallet.\n     * @param _cToken The cToken contract.\n     * @param _comptroller The comptroller contract.\n     */\n    function enterMarketIfNeeded(BaseWallet _wallet, address _cToken, address _comptroller) internal {\n        bool isEntered = IComptroller(_comptroller).checkMembership(address(_wallet), ICToken(_cToken));\n        if(!isEntered) {\n            address[] memory market = new address[](1);\n            market[0] = _cToken;\n            invokeWallet(address(_wallet), _comptroller, 0, abi.encodeWithSignature(\"enterMarkets(address[])\", market));\n        }\n    }\n\n    /**\n     * @dev Exits a cToken market if there is no more collateral and debt.\n     * @param _wallet The target wallet.\n     * @param _cToken The cToken contract.\n     * @param _comptroller The comptroller contract.\n     */\n    function exitMarketIfNeeded(BaseWallet _wallet, address _cToken, address _comptroller) internal {\n        uint collateral = ICToken(_cToken).balanceOf(address(_wallet));\n        uint debt = ICToken(_cToken).borrowBalanceStored(address(_wallet));\n        if(collateral == 0 && debt == 0) {\n            invokeWallet(address(_wallet), _comptroller, 0, abi.encodeWithSignature(\"exitMarket(address)\", _cToken));\n        }\n    }\n} \n\n",
  "sourcePath": "/home/amxx/Work/Argent/argent-contracts/contracts/modules/CompoundManager.sol",
  "compiler": {
    "name": "solc",
    "version": "0.5.4+commit.9549d8ff.Emscripten.clang",
    "optimizer": true,
    "runs": 200
  },
  "schemaVersion": "2.2.4",
  "updatedAt": "2020-02-29T16:28:22.460Z"
}