{
  "contractName": "DappRegistry",
  "abi": [
    {
      "constant": true,
      "inputs": [],
      "name": "owner",
      "outputs": [
        {
          "name": "",
          "type": "address"
        }
      ],
      "payable": false,
      "stateMutability": "view",
      "type": "function"
    },
    {
      "constant": false,
      "inputs": [
        {
          "name": "_newOwner",
          "type": "address"
        }
      ],
      "name": "changeOwner",
      "outputs": [],
      "payable": false,
      "stateMutability": "nonpayable",
      "type": "function"
    },
    {
      "anonymous": false,
      "inputs": [
        {
          "indexed": true,
          "name": "_contract",
          "type": "address"
        },
        {
          "indexed": false,
          "name": "_methods",
          "type": "bytes4[]"
        }
      ],
      "name": "Registered",
      "type": "event"
    },
    {
      "anonymous": false,
      "inputs": [
        {
          "indexed": true,
          "name": "_contract",
          "type": "address"
        },
        {
          "indexed": false,
          "name": "_methods",
          "type": "bytes4[]"
        }
      ],
      "name": "Deregistered",
      "type": "event"
    },
    {
      "anonymous": false,
      "inputs": [
        {
          "indexed": true,
          "name": "_newOwner",
          "type": "address"
        }
      ],
      "name": "OwnerChanged",
      "type": "event"
    },
    {
      "constant": false,
      "inputs": [
        {
          "name": "_contract",
          "type": "address"
        },
        {
          "name": "_methods",
          "type": "bytes4[]"
        }
      ],
      "name": "register",
      "outputs": [],
      "payable": false,
      "stateMutability": "nonpayable",
      "type": "function"
    },
    {
      "constant": false,
      "inputs": [
        {
          "name": "_contract",
          "type": "address"
        },
        {
          "name": "_methods",
          "type": "bytes4[]"
        }
      ],
      "name": "deregister",
      "outputs": [],
      "payable": false,
      "stateMutability": "nonpayable",
      "type": "function"
    },
    {
      "constant": true,
      "inputs": [
        {
          "name": "_contract",
          "type": "address"
        },
        {
          "name": "_methods",
          "type": "bytes4[]"
        }
      ],
      "name": "isRegistered",
      "outputs": [
        {
          "name": "",
          "type": "bool"
        }
      ],
      "payable": false,
      "stateMutability": "view",
      "type": "function"
    },
    {
      "constant": true,
      "inputs": [
        {
          "name": "_contract",
          "type": "address"
        },
        {
          "name": "_method",
          "type": "bytes4"
        }
      ],
      "name": "isRegistered",
      "outputs": [
        {
          "name": "",
          "type": "bool"
        }
      ],
      "payable": false,
      "stateMutability": "view",
      "type": "function"
    }
  ],
  "bytecode": "0x608060405260008054600160a060020a03191633179055610720806100256000396000f3fe608060405234801561001057600080fd5b506004361061007e577c010000000000000000000000000000000000000000000000000000000060003504638da5cb5b8114610083578063a6f9dae1146100a7578063c051518a146100cf578063e559e42014610163578063f6b4b2d5146101e3578063fe5ed89d14610219575b600080fd5b61008b610299565b60408051600160a060020a039092168252519081900360200190f35b6100cd600480360360208110156100bd57600080fd5b5035600160a060020a03166102a8565b005b61014f600480360360408110156100e557600080fd5b600160a060020a03823516919081019060408101602082013564010000000081111561011057600080fd5b82018360208201111561012257600080fd5b8035906020019184602083028401116401000000008311171561014457600080fd5b5090925090506103bf565b604080519115158252519081900360200190f35b6100cd6004803603604081101561017957600080fd5b600160a060020a0382351691908101906040810160208201356401000000008111156101a457600080fd5b8201836020820111156101b657600080fd5b803590602001918460208302840111640100000000831117156101d857600080fd5b50909250905061043c565b61014f600480360360408110156101f957600080fd5b508035600160a060020a03169060200135600160e060020a03191661057e565b6100cd6004803603604081101561022f57600080fd5b600160a060020a03823516919081019060408101602082013564010000000081111561025a57600080fd5b82018360208201111561026c57600080fd5b8035906020019184602083028401116401000000008311171561028e57600080fd5b5090925090506105b5565b600054600160a060020a031681565b600054600160a060020a0316331461030a576040805160e560020a62461bcd02815260206004820152600d60248201527f4d757374206265206f776e657200000000000000000000000000000000000000604482015290519081900360640190fd5b600160a060020a038116151561036a576040805160e560020a62461bcd02815260206004820152601860248201527f41646472657373206d757374206e6f74206265206e756c6c0000000000000000604482015290519081900360640190fd5b6000805473ffffffffffffffffffffffffffffffffffffffff1916600160a060020a038316908117825560405190917fa2ea9883a321a3e97b8266c2b078bfeec6d50c711ed71f874a90d500ae2eaf3691a250565b6000805b8281101561042f57600160a060020a0385166000908152600160205260408120908585848181106103f057fe5b60209081029290920135600160e060020a0319168352508101919091526040016000205460ff161515610427576000915050610435565b6001016103c3565b50600190505b9392505050565b600054600160a060020a0316331461049e576040805160e560020a62461bcd02815260206004820152600d60248201527f4d757374206265206f776e657200000000000000000000000000000000000000604482015290519081900360640190fd5b60005b8181101561050b57600160a060020a0384166000908152600160208190526040822090918585858181106104d157fe5b60209081029290920135600160e060020a031916835250810191909152604001600020805460ff19169115159190911790556001016104a1565b5082600160a060020a03167f2cddded87168218f98f4cc4cf1735701c4a2e3e39ead3ca861c0b237e065d10e838360405180806020018281038252848482818152602001925060200280828437600083820152604051601f909101601f19169092018290039550909350505050a2505050565b600160a060020a0382166000908152600160209081526040808320600160e060020a03198516845290915290205460ff1692915050565b600054600160a060020a03163314610617576040805160e560020a62461bcd02815260206004820152600d60248201527f4d757374206265206f776e657200000000000000000000000000000000000000604482015290519081900360640190fd5b60005b8181101561068157600160a060020a03841660009081526001602052604081208185858581811061064757fe5b60209081029290920135600160e060020a031916835250810191909152604001600020805460ff191691151591909117905560010161061a565b5082600160a060020a03167fda90c268f3fcf82fa0268ff7f5f4be9db6648632381aad9edbdf03dc3cdd3f99838360405180806020018281038252848482818152602001925060200280828437600083820152604051601f909101601f19169092018290039550909350505050a250505056fea165627a7a72305820a7cf90906b8665db676f021060dd7b882fb615cab5c9304028953e31394173de0029",
  "source": "pragma solidity ^0.5.4;\nimport \"../base/Owned.sol\";\n\n/**\n * @title DappRegistry\n * @dev Registry of dapp contracts and methods that have been authorised by Argent. \n * Registered methods can be authorised immediately for a dapp key and a wallet while \n * the authoirsation of unregistered methods is delayed for 24 hours. \n * @author Julien Niset - <julien@argent.im>\n */\ncontract DappRegistry is Owned {\n\n    // [contract][signature][bool]\n    mapping (address => mapping (bytes4 => bool)) internal authorised;\n\n    event Registered(address indexed _contract, bytes4[] _methods);\n    event Deregistered(address indexed _contract, bytes4[] _methods);\n\n    /**\n     * @dev Registers a list of methods for a dapp contract.\n     * @param _contract The dapp contract.\n     * @param _methods The dapp methods.\n     */\n    function register(address _contract, bytes4[] calldata _methods) external onlyOwner {\n        for(uint i = 0; i < _methods.length; i++) {\n            authorised[_contract][_methods[i]] = true;\n        }\n        emit Registered(_contract, _methods);\n    }\n\n    /**\n     * @dev Deregisters a list of methods for a dapp contract.\n     * @param _contract The dapp contract.\n     * @param _methods The dapp methods.\n     */\n    function deregister(address _contract, bytes4[] calldata _methods) external onlyOwner {\n        for(uint i = 0; i < _methods.length; i++) {\n            authorised[_contract][_methods[i]] = false;\n        }\n        emit Deregistered(_contract, _methods);\n    }\n\n    /**\n     * @dev Checks if a list of methods are registered for a dapp contract.\n     * @param _contract The dapp contract.\n     * @param _method The dapp methods.\n     * @return true if all the methods are registered.\n     */\n    function isRegistered(address _contract, bytes4 _method) external view returns (bool) {\n        return authorised[_contract][_method];\n    }  \n\n    /**\n     * @dev Checks if a list of methods are registered for a dapp contract.\n     * @param _contract The dapp contract.\n     * @param _methods The dapp methods.\n     * @return true if all the methods are registered.\n     */\n    function isRegistered(address _contract, bytes4[] calldata _methods) external view returns (bool) {\n        for(uint i = 0; i < _methods.length; i++) {\n            if (!authorised[_contract][_methods[i]]) {\n                return false;\n            }\n        }\n        return true;\n    }  \n}",
  "sourcePath": "/home/amxx/Work/Argent/argent-contracts/contracts/dapp/DappRegistry.sol",
  "compiler": {
    "name": "solc",
    "version": "0.5.4+commit.9549d8ff.Emscripten.clang",
    "optimizer": true,
    "runs": 200
  },
  "schemaVersion": "2.2.4",
  "updatedAt": "2020-02-29T16:28:22.452Z"
}