{
  "contractName": "DappStorage",
  "abi": [
    {
      "constant": false,
      "inputs": [
        {
          "name": "_wallet",
          "type": "address"
        },
        {
          "name": "_dapp",
          "type": "address"
        },
        {
          "name": "_contract",
          "type": "address"
        },
        {
          "name": "_signatures",
          "type": "bytes4[]"
        },
        {
          "name": "_authorized",
          "type": "bool"
        }
      ],
      "name": "setMethodAuthorization",
      "outputs": [],
      "payable": false,
      "stateMutability": "nonpayable",
      "type": "function"
    },
    {
      "constant": true,
      "inputs": [
        {
          "name": "_wallet",
          "type": "address"
        },
        {
          "name": "_dapp",
          "type": "address"
        },
        {
          "name": "_contract",
          "type": "address"
        },
        {
          "name": "_signature",
          "type": "bytes4"
        }
      ],
      "name": "getMethodAuthorization",
      "outputs": [
        {
          "name": "",
          "type": "bool"
        }
      ],
      "payable": false,
      "stateMutability": "view",
      "type": "function"
    }
  ],
  "bytecode": "0x608060405234801561001057600080fd5b506103e3806100206000396000f3fe608060405234801561001057600080fd5b5060043610610052577c010000000000000000000000000000000000000000000000000000000060003504635fe91fe38114610057578063dad18ef9146100f9575b600080fd5b6100f7600480360360a081101561006d57600080fd5b73ffffffffffffffffffffffffffffffffffffffff823581169260208101358216926040820135909216918101906080810160608201356401000000008111156100b657600080fd5b8201836020820111156100c857600080fd5b803590602001918460208302840111640100000000831117156100ea57600080fd5b9193509150351515610176565b005b6101626004803603608081101561010f57600080fd5b50803573ffffffffffffffffffffffffffffffffffffffff90811691602081013582169160408201351690606001357bffffffffffffffffffffffffffffffffffffffffffffffffffffffff1916610316565b604080519115158252519081900360200190f35b604080517fd6eb1bbf0000000000000000000000000000000000000000000000000000000081523360048201529051879173ffffffffffffffffffffffffffffffffffffffff83169163d6eb1bbf91602480820192602092909190829003018186803b1580156101e557600080fd5b505afa1580156101f9573d6000803e3d6000fd5b505050506040513d602081101561020f57600080fd5b50511515610268576040517f08c379a00000000000000000000000000000000000000000000000000000000081526004018080602001828103825260348152602001806103846034913960400191505060405180910390fd5b60005b8381101561030c5773ffffffffffffffffffffffffffffffffffffffff8089166000908152602081815260408083208b851684528252808320938a16835292905290812084918787858181106102bd57fe5b602090810292909201357bffffffffffffffffffffffffffffffffffffffffffffffffffffffff1916835250810191909152604001600020805460ff191691151591909117905560010161026b565b5050505050505050565b73ffffffffffffffffffffffffffffffffffffffff8085166000908152602081815260408083208785168452825280832093861683529281528282207bffffffffffffffffffffffffffffffffffffffffffffffffffffffff19851683529052205460ff1694935050505056fe54533a206d75737420626520616e20617574686f72697a6564206d6f64756c6520746f2063616c6c2074686973206d6574686f64a165627a7a72305820ddec39e8c1eaf40e3c1fdcf4887a0ae26b9eced8691b962d900eda5c4b7d04720029",
  "source": "pragma solidity ^0.5.4;\nimport \"../wallet/BaseWallet.sol\";\nimport \"./Storage.sol\";\n\n/**\n * @title DappStorage\n * @dev Contract storing the state of wallets related to authorised dapps.\n * The contract only defines basic setters and getters with no logic. Only modules authorised\n * for a wallet can modify its state.\n * @author Olivier Van Den Biggelaar - <olivier@argent.im>\n */\ncontract DappStorage is Storage {\n\n    // [wallet][dappkey][contract][signature][bool]\n    mapping (address => mapping (address => mapping (address => mapping (bytes4 => bool)))) internal whitelistedMethods;\n    \n    // *************** External Functions ********************* //\n\n    /**\n     * @dev (De)authorizes an external contract's methods to be called by a dapp key of the wallet.\n     * @param _wallet The wallet.\n     * @param _dapp The address of the signing key.\n     * @param _contract The contract address.\n     * @param _signatures The methods' signatures.\n     * @param _authorized true to whitelist, false to blacklist.\n     */\n    function setMethodAuthorization(\n        BaseWallet _wallet, \n        address _dapp, \n        address _contract, \n        bytes4[] calldata _signatures, \n        bool _authorized\n    ) \n        external \n        onlyModule(_wallet) \n    {\n        for(uint i = 0; i < _signatures.length; i++) {\n            whitelistedMethods[address(_wallet)][_dapp][_contract][_signatures[i]] = _authorized;\n        }\n    }\n\n    /**\n     * @dev Gets the authorization status for an external contract's method.\n     * @param _wallet The wallet.\n     * @param _dapp The address of the signing key.\n     * @param _contract The contract address.\n     * @param _signature The call signature.\n     * @return true if the method is whitelisted, false otherwise\n     */\n    function getMethodAuthorization(BaseWallet _wallet, address _dapp, address _contract, bytes4 _signature) external view returns (bool) {\n        return whitelistedMethods[address(_wallet)][_dapp][_contract][_signature];\n    }\n}",
  "sourcePath": "/home/amxx/Work/Argent/argent-contracts/contracts/storage/DappStorage.sol",
  "compiler": {
    "name": "solc",
    "version": "0.5.4+commit.9549d8ff.Emscripten.clang",
    "optimizer": true,
    "runs": 200
  },
  "schemaVersion": "2.2.4",
  "updatedAt": "2020-02-29T16:28:22.575Z"
}