{
  "contractName": "DSStop",
  "abi": [
    {
      "constant": false,
      "inputs": [
        {
          "name": "owner_",
          "type": "address"
        }
      ],
      "name": "setOwner",
      "outputs": [],
      "payable": false,
      "stateMutability": "nonpayable",
      "type": "function"
    },
    {
      "constant": true,
      "inputs": [],
      "name": "stopped",
      "outputs": [
        {
          "name": "",
          "type": "bool"
        }
      ],
      "payable": false,
      "stateMutability": "view",
      "type": "function"
    },
    {
      "constant": false,
      "inputs": [
        {
          "name": "authority_",
          "type": "address"
        }
      ],
      "name": "setAuthority",
      "outputs": [],
      "payable": false,
      "stateMutability": "nonpayable",
      "type": "function"
    },
    {
      "constant": true,
      "inputs": [],
      "name": "owner",
      "outputs": [
        {
          "name": "",
          "type": "address"
        }
      ],
      "payable": false,
      "stateMutability": "view",
      "type": "function"
    },
    {
      "constant": true,
      "inputs": [],
      "name": "authority",
      "outputs": [
        {
          "name": "",
          "type": "address"
        }
      ],
      "payable": false,
      "stateMutability": "view",
      "type": "function"
    },
    {
      "anonymous": false,
      "inputs": [
        {
          "indexed": true,
          "name": "authority",
          "type": "address"
        }
      ],
      "name": "LogSetAuthority",
      "type": "event"
    },
    {
      "anonymous": false,
      "inputs": [
        {
          "indexed": true,
          "name": "owner",
          "type": "address"
        }
      ],
      "name": "LogSetOwner",
      "type": "event"
    },
    {
      "constant": false,
      "inputs": [],
      "name": "stop",
      "outputs": [],
      "payable": false,
      "stateMutability": "nonpayable",
      "type": "function"
    },
    {
      "constant": false,
      "inputs": [],
      "name": "start",
      "outputs": [],
      "payable": false,
      "stateMutability": "nonpayable",
      "type": "function"
    }
  ],
  "bytecode": "0x6080604081905260018054600160a060020a03191633908117909155907fce241d7ca1f669fee44b6fc00b8eba2df3bb514eed0f6f668f8f89096e81ed9490600090a2610549806100516000396000f3fe608060405234801561001057600080fd5b506004361061009a576000357c0100000000000000000000000000000000000000000000000000000000900480637a9e5e4b116100785780637a9e5e4b146100eb5780638da5cb5b14610111578063be9a655514610135578063bf7e214f1461013d5761009a565b806307da68f51461009f57806313af4035146100a957806375f12b21146100cf575b600080fd5b6100a7610145565b005b6100a7600480360360208110156100bf57600080fd5b5035600160a060020a03166101d6565b6100d761028d565b604080519115158252519081900360200190f35b6100a76004803603602081101561010157600080fd5b5035600160a060020a03166102ae565b610119610361565b60408051600160a060020a039092168252519081900360200190f35b6100a7610370565b6101196103ea565b61015b33600035600160e060020a0319166103f9565b151561019f576040805160e560020a62461bcd02815260206004820152601460248201526000805160206104fe833981519152604482015290519081900360640190fd5b6001805474ff0000000000000000000000000000000000000000191674010000000000000000000000000000000000000000179055565b6101ec33600035600160e060020a0319166103f9565b1515610230576040805160e560020a62461bcd02815260206004820152601460248201526000805160206104fe833981519152604482015290519081900360640190fd5b6001805473ffffffffffffffffffffffffffffffffffffffff1916600160a060020a0383811691909117918290556040519116907fce241d7ca1f669fee44b6fc00b8eba2df3bb514eed0f6f668f8f89096e81ed9490600090a250565b60015474010000000000000000000000000000000000000000900460ff1681565b6102c433600035600160e060020a0319166103f9565b1515610308576040805160e560020a62461bcd02815260206004820152601460248201526000805160206104fe833981519152604482015290519081900360640190fd5b6000805473ffffffffffffffffffffffffffffffffffffffff1916600160a060020a03838116919091178083556040519116917f1abebea81bfa2637f28358c371278fb15ede7ea8dd28d2e03b112ff6d936ada491a250565b600154600160a060020a031681565b61038633600035600160e060020a0319166103f9565b15156103ca576040805160e560020a62461bcd02815260206004820152601460248201526000805160206104fe833981519152604482015290519081900360640190fd5b6001805474ff000000000000000000000000000000000000000019169055565b600054600160a060020a031681565b6000600160a060020a038316301415610414575060016104f7565b600154600160a060020a0384811691161415610432575060016104f7565b600054600160a060020a0316151561044c575060006104f7565b600054604080517fb7009613000000000000000000000000000000000000000000000000000000008152600160a060020a038681166004830152306024830152600160e060020a0319861660448301529151919092169163b7009613916064808301926020929190829003018186803b1580156104c857600080fd5b505afa1580156104dc573d6000803e3d6000fd5b505050506040513d60208110156104f257600080fd5b505190505b9291505056fe617574683a206e6f7420617574686f72697a6564000000000000000000000000a165627a7a72305820a2ffeb01d8573c71a9ac4f3bb61958da2e79c32873167783a4e5f33983e1f7ac0029",
  "source": "/// stop.sol -- mixin for enable/disable functionality\n\n// Copyright (C) 2017  DappHub, LLC\n\n// This program is free software: you can redistribute it and/or modify\n// it under the terms of the GNU General Public License as published by\n// the Free Software Foundation, either version 3 of the License, or\n// (at your option) any later version.\n\n// This program is distributed in the hope that it will be useful,\n// but WITHOUT ANY WARRANTY; without even the implied warranty of\n// MERCHANTABILITY or FITNESS FOR A PARTICULAR PURPOSE.  See the\n// GNU General Public License for more details.\n\n// You should have received a copy of the GNU General Public License\n// along with this program.  If not, see <http://www.gnu.org/licenses/>.\n\npragma solidity ^0.5.4;\n\nimport \"./DSAuth.sol\";\n\ncontract DSStop is DSAuth {\n\n    bool public stopped;\n\n    modifier stoppable {\n        require(!stopped);\n        _;\n    }\n    function stop() public auth {\n        stopped = true;\n    }\n    function start() public auth {\n        stopped = false;\n    }\n\n}\n",
  "sourcePath": "/home/amxx/Work/Argent/argent-contracts/contracts/test/maker/DS/DSStop.sol",
  "compiler": {
    "name": "solc",
    "version": "0.5.4+commit.9549d8ff.Emscripten.clang",
    "optimizer": true,
    "runs": 200
  },
  "schemaVersion": "2.2.4",
  "updatedAt": "2020-02-29T16:28:22.629Z"
}