{
  "contractName": "DSValue",
  "abi": [
    {
      "constant": false,
      "inputs": [
        {
          "name": "owner_",
          "type": "address"
        }
      ],
      "name": "setOwner",
      "outputs": [],
      "payable": false,
      "stateMutability": "nonpayable",
      "type": "function"
    },
    {
      "constant": false,
      "inputs": [
        {
          "name": "authority_",
          "type": "address"
        }
      ],
      "name": "setAuthority",
      "outputs": [],
      "payable": false,
      "stateMutability": "nonpayable",
      "type": "function"
    },
    {
      "constant": true,
      "inputs": [],
      "name": "owner",
      "outputs": [
        {
          "name": "",
          "type": "address"
        }
      ],
      "payable": false,
      "stateMutability": "view",
      "type": "function"
    },
    {
      "constant": true,
      "inputs": [],
      "name": "authority",
      "outputs": [
        {
          "name": "",
          "type": "address"
        }
      ],
      "payable": false,
      "stateMutability": "view",
      "type": "function"
    },
    {
      "anonymous": true,
      "inputs": [
        {
          "indexed": true,
          "name": "sig",
          "type": "bytes4"
        },
        {
          "indexed": true,
          "name": "guy",
          "type": "address"
        },
        {
          "indexed": true,
          "name": "foo",
          "type": "bytes32"
        },
        {
          "indexed": true,
          "name": "bar",
          "type": "bytes32"
        },
        {
          "indexed": false,
          "name": "wad",
          "type": "uint256"
        },
        {
          "indexed": false,
          "name": "fax",
          "type": "bytes"
        }
      ],
      "name": "LogNote",
      "type": "event"
    },
    {
      "anonymous": false,
      "inputs": [
        {
          "indexed": true,
          "name": "authority",
          "type": "address"
        }
      ],
      "name": "LogSetAuthority",
      "type": "event"
    },
    {
      "anonymous": false,
      "inputs": [
        {
          "indexed": true,
          "name": "owner",
          "type": "address"
        }
      ],
      "name": "LogSetOwner",
      "type": "event"
    },
    {
      "constant": true,
      "inputs": [],
      "name": "peek",
      "outputs": [
        {
          "name": "",
          "type": "bytes32"
        },
        {
          "name": "",
          "type": "bool"
        }
      ],
      "payable": false,
      "stateMutability": "view",
      "type": "function"
    },
    {
      "constant": true,
      "inputs": [],
      "name": "read",
      "outputs": [
        {
          "name": "",
          "type": "bytes32"
        }
      ],
      "payable": false,
      "stateMutability": "view",
      "type": "function"
    },
    {
      "constant": false,
      "inputs": [
        {
          "name": "wut",
          "type": "bytes32"
        }
      ],
      "name": "poke",
      "outputs": [],
      "payable": true,
      "stateMutability": "payable",
      "type": "function"
    },
    {
      "constant": false,
      "inputs": [],
      "name": "void",
      "outputs": [],
      "payable": true,
      "stateMutability": "payable",
      "type": "function"
    }
  ],
  "bytecode": "0x6080604081905260018054600160a060020a03191633908117909155907fce241d7ca1f669fee44b6fc00b8eba2df3bb514eed0f6f668f8f89096e81ed9490600090a26106b7806100516000396000f3fe608060405260043610610098576000357c0100000000000000000000000000000000000000000000000000000000900480637a9e5e4b1161006b5780637a9e5e4b146101445780638da5cb5b14610177578063ac4c25b2146101a8578063bf7e214f146101b057610098565b806313af40351461009d5780631504460f146100d257806357de26a4146100ef57806359e02dd714610116575b600080fd5b3480156100a957600080fd5b506100d0600480360360208110156100c057600080fd5b5035600160a060020a03166101c5565b005b6100d0600480360360208110156100e857600080fd5b503561027c565b3480156100fb57600080fd5b50610104610373565b60408051918252519081900360200190f35b34801561012257600080fd5b5061012b610393565b6040805192835290151560208301528051918290030190f35b34801561015057600080fd5b506100d06004803603602081101561016757600080fd5b5035600160a060020a03166103b9565b34801561018357600080fd5b5061018c61046c565b60408051600160a060020a039092168252519081900360200190f35b6100d061047b565b3480156101bc57600080fd5b5061018c610558565b6101db33600035600160e060020a031916610567565b151561021f576040805160e560020a62461bcd028152602060048201526014602482015260008051602061066c833981519152604482015290519081900360640190fd5b6001805473ffffffffffffffffffffffffffffffffffffffff1916600160a060020a0383811691909117918290556040519116907fce241d7ca1f669fee44b6fc00b8eba2df3bb514eed0f6f668f8f89096e81ed9490600090a250565b60408051348082526020820183815236938301849052600435936024359384938693339360008035600160e060020a03191694909260608201848480828437600083820152604051601f909101601f1916909201829003965090945050505050a46102f333600035600160e060020a031916610567565b1515610337576040805160e560020a62461bcd028152602060048201526014602482015260008051602061066c833981519152604482015290519081900360640190fd5b50506002556001805474ff0000000000000000000000000000000000000000191674010000000000000000000000000000000000000000179055565b6000806000610380610393565b9150915080151561038d57fe5b50905090565b60025460015460ff74010000000000000000000000000000000000000000909104169091565b6103cf33600035600160e060020a031916610567565b1515610413576040805160e560020a62461bcd028152602060048201526014602482015260008051602061066c833981519152604482015290519081900360640190fd5b6000805473ffffffffffffffffffffffffffffffffffffffff1916600160a060020a03838116919091178083556040519116917f1abebea81bfa2637f28358c371278fb15ede7ea8dd28d2e03b112ff6d936ada491a250565b600154600160a060020a031681565b60408051348082526020820183815236938301849052600435936024359384938693339360008035600160e060020a03191694909260608201848480828437600083820152604051601f909101601f1916909201829003965090945050505050a46104f233600035600160e060020a031916610567565b1515610536576040805160e560020a62461bcd028152602060048201526014602482015260008051602061066c833981519152604482015290519081900360640190fd5b50506001805474ff000000000000000000000000000000000000000019169055565b600054600160a060020a031681565b6000600160a060020a03831630141561058257506001610665565b600154600160a060020a03848116911614156105a057506001610665565b600054600160a060020a031615156105ba57506000610665565b600054604080517fb7009613000000000000000000000000000000000000000000000000000000008152600160a060020a038681166004830152306024830152600160e060020a0319861660448301529151919092169163b7009613916064808301926020929190829003018186803b15801561063657600080fd5b505afa15801561064a573d6000803e3d6000fd5b505050506040513d602081101561066057600080fd5b505190505b9291505056fe617574683a206e6f7420617574686f72697a6564000000000000000000000000a165627a7a72305820235320998dc9a7948270c1d68729d4f190eba73992f59355d8b349d58176c2390029",
  "source": "/// value.sol - a value is a simple thing, it can be get and set\n\n// Copyright (C) 2017  DappHub, LLC\n\n// This program is free software: you can redistribute it and/or modify\n// it under the terms of the GNU General Public License as published by\n// the Free Software Foundation, either version 3 of the License, or\n// (at your option) any later version.\n\n// This program is distributed in the hope that it will be useful,\n// but WITHOUT ANY WARRANTY; without even the implied warranty of\n// MERCHANTABILITY or FITNESS FOR A PARTICULAR PURPOSE.  See the\n// GNU General Public License for more details.\n\n// You should have received a copy of the GNU General Public License\n// along with this program.  If not, see <http://www.gnu.org/licenses/>.\n\npragma solidity ^0.5.4;\n\nimport \"./DSThing.sol\";\n\ncontract DSValue is DSThing {\n    bool    has;\n    bytes32 val;\n    function peek() public view returns (bytes32, bool) {\n        return (val,has);\n    }\n    function read() public view returns (bytes32) {\n        (bytes32 wut, bool haz) = peek();\n        assert(haz);\n        return wut;\n    }\n    function poke(bytes32 wut) public payable note auth {\n        val = wut;\n        has = true;\n    }\n    function void() public payable note auth {  // unset the value\n        has = false;\n    }\n}\n",
  "sourcePath": "/home/amxx/Work/Argent/argent-contracts/contracts/test/maker/DS/DSValue.sol",
  "compiler": {
    "name": "solc",
    "version": "0.5.4+commit.9549d8ff.Emscripten.clang",
    "optimizer": true,
    "runs": 200
  },
  "schemaVersion": "2.2.4",
  "updatedAt": "2020-02-29T16:28:22.638Z"
}