{
  "contractName": "ENSConsumer",
  "abi": [
    {
      "constant": true,
      "inputs": [],
      "name": "ADDR_REVERSE_NODE",
      "outputs": [
        {
          "name": "",
          "type": "bytes32"
        }
      ],
      "payable": false,
      "stateMutability": "view",
      "type": "function"
    },
    {
      "inputs": [
        {
          "name": "_ensRegistry",
          "type": "address"
        }
      ],
      "payable": false,
      "stateMutability": "nonpayable",
      "type": "constructor"
    },
    {
      "constant": true,
      "inputs": [
        {
          "name": "_node",
          "type": "bytes32"
        }
      ],
      "name": "resolveEns",
      "outputs": [
        {
          "name": "",
          "type": "address"
        }
      ],
      "payable": false,
      "stateMutability": "view",
      "type": "function"
    },
    {
      "constant": true,
      "inputs": [],
      "name": "getENSRegistry",
      "outputs": [
        {
          "name": "",
          "type": "address"
        }
      ],
      "payable": false,
      "stateMutability": "view",
      "type": "function"
    },
    {
      "constant": true,
      "inputs": [],
      "name": "getENSReverseRegistrar",
      "outputs": [
        {
          "name": "",
          "type": "address"
        }
      ],
      "payable": false,
      "stateMutability": "view",
      "type": "function"
    }
  ],
  "bytecode": "0x608060405234801561001057600080fd5b506040516020806103718339810180604052602081101561003057600080fd5b505160008054600160a060020a03909216600160a060020a031990921691909117905561030f806100626000396000f3fe608060405234801561001057600080fd5b506004361061004f5760e060020a600035046309d7344281146100545780632f680795146100855780637cf8a2eb1461008d5780639eb869c7146100a7575b600080fd5b61005c6100c4565b6040805173ffffffffffffffffffffffffffffffffffffffff9092168252519081900360200190f35b61005c610175565b610095610191565b60408051918252519081900360200190f35b61005c600480360360208110156100bd57600080fd5b50356101b5565b60006100ce610175565b73ffffffffffffffffffffffffffffffffffffffff166302571be37f91d1777781884d03a6757a803996e38de2a42967fb37eeaca72729271025a9e26001026040518263ffffffff1660e060020a0281526004018082815260200191505060206040518083038186803b15801561014457600080fd5b505afa158015610158573d6000803e3d6000fd5b505050506040513d602081101561016e57600080fd5b5051905090565b60005473ffffffffffffffffffffffffffffffffffffffff1690565b7f91d1777781884d03a6757a803996e38de2a42967fb37eeaca72729271025a9e281565b6000806101c0610175565b73ffffffffffffffffffffffffffffffffffffffff16630178b8bf846040518263ffffffff1660e060020a0281526004018082815260200191505060206040518083038186803b15801561021357600080fd5b505afa158015610227573d6000803e3d6000fd5b505050506040513d602081101561023d57600080fd5b5051604080517f3b3b57de00000000000000000000000000000000000000000000000000000000815260048101869052905191925073ffffffffffffffffffffffffffffffffffffffff831691633b3b57de91602480820192602092909190829003018186803b1580156102b057600080fd5b505afa1580156102c4573d6000803e3d6000fd5b505050506040513d60208110156102da57600080fd5b5051939250505056fea165627a7a72305820543b180b0a3778e00aac05ba5b1863d416a139b81cae528a2dad3132eed058180029",
  "source": "pragma solidity ^0.5.4;\nimport \"../ens/ENS.sol\";\nimport \"../utils/strings.sol\";\n\n/**\n * @title ENSConsumer\n * @dev Helper contract to resolve ENS names.\n * @author Julien Niset - <julien@argent.im>\n */\ncontract ENSConsumer {\n\n    using strings for *;\n\n    // namehash('addr.reverse')\n    bytes32 constant public ADDR_REVERSE_NODE = 0x91d1777781884d03a6757a803996e38de2a42967fb37eeaca72729271025a9e2;\n\n    // the address of the ENS registry\n    address ensRegistry;\n\n    /**\n    * @dev No address should be provided when deploying on Mainnet to avoid storage cost. The \n    * contract will use the hardcoded value.\n    */\n    constructor(address _ensRegistry) public {\n        ensRegistry = _ensRegistry;\n    }\n\n    /**\n    * @dev Resolves an ENS name to an address.\n    * @param _node The namehash of the ENS name. \n    */\n    function resolveEns(bytes32 _node) public view returns (address) {\n        address resolver = getENSRegistry().resolver(_node);\n        return ENSResolver(resolver).addr(_node);\n    }\n\n    /**\n    * @dev Gets the official ENS registry.\n    */\n    function getENSRegistry() public view returns (ENSRegistry) {\n        return ENSRegistry(ensRegistry);\n    }\n\n    /**\n    * @dev Gets the official ENS reverse registrar. \n    */\n    function getENSReverseRegistrar() public view returns (ENSReverseRegistrar) {\n        return ENSReverseRegistrar(getENSRegistry().owner(ADDR_REVERSE_NODE));\n    }\n}",
  "sourcePath": "/home/amxx/Work/Argent/argent-contracts/contracts/ens/ENSConsumer.sol",
  "compiler": {
    "name": "solc",
    "version": "0.5.4+commit.9549d8ff.Emscripten.clang",
    "optimizer": true,
    "runs": 200
  },
  "schemaVersion": "2.2.4",
  "updatedAt": "2020-02-29T16:28:22.457Z"
}