{
  "contractName": "ERC20Approver",
  "abi": [
    {
      "constant": false,
      "inputs": [
        {
          "name": "_wallet",
          "type": "address"
        }
      ],
      "name": "init",
      "outputs": [],
      "payable": false,
      "stateMutability": "nonpayable",
      "type": "function"
    },
    {
      "constant": true,
      "inputs": [
        {
          "name": "_wallet",
          "type": "address"
        }
      ],
      "name": "getNonce",
      "outputs": [
        {
          "name": "nonce",
          "type": "uint256"
        }
      ],
      "payable": false,
      "stateMutability": "view",
      "type": "function"
    },
    {
      "constant": false,
      "inputs": [
        {
          "name": "_wallet",
          "type": "address"
        },
        {
          "name": "_module",
          "type": "address"
        }
      ],
      "name": "addModule",
      "outputs": [],
      "payable": false,
      "stateMutability": "nonpayable",
      "type": "function"
    },
    {
      "constant": false,
      "inputs": [
        {
          "name": "_token",
          "type": "address"
        }
      ],
      "name": "recoverToken",
      "outputs": [],
      "payable": false,
      "stateMutability": "nonpayable",
      "type": "function"
    },
    {
      "constant": false,
      "inputs": [
        {
          "name": "_wallet",
          "type": "address"
        },
        {
          "name": "_data",
          "type": "bytes"
        },
        {
          "name": "_nonce",
          "type": "uint256"
        },
        {
          "name": "_signatures",
          "type": "bytes"
        },
        {
          "name": "_gasPrice",
          "type": "uint256"
        },
        {
          "name": "_gasLimit",
          "type": "uint256"
        }
      ],
      "name": "execute",
      "outputs": [
        {
          "name": "success",
          "type": "bool"
        }
      ],
      "payable": false,
      "stateMutability": "nonpayable",
      "type": "function"
    },
    {
      "constant": true,
      "inputs": [
        {
          "name": "",
          "type": "address"
        }
      ],
      "name": "relayer",
      "outputs": [
        {
          "name": "nonce",
          "type": "uint256"
        }
      ],
      "payable": false,
      "stateMutability": "view",
      "type": "function"
    },
    {
      "constant": true,
      "inputs": [],
      "name": "isOnlyOwnerModule",
      "outputs": [
        {
          "name": "",
          "type": "bytes4"
        }
      ],
      "payable": false,
      "stateMutability": "pure",
      "type": "function"
    },
    {
      "inputs": [
        {
          "name": "_registry",
          "type": "address"
        }
      ],
      "payable": false,
      "stateMutability": "nonpayable",
      "type": "constructor"
    },
    {
      "anonymous": false,
      "inputs": [
        {
          "indexed": true,
          "name": "wallet",
          "type": "address"
        },
        {
          "indexed": true,
          "name": "success",
          "type": "bool"
        },
        {
          "indexed": false,
          "name": "signedHash",
          "type": "bytes32"
        }
      ],
      "name": "TransactionExecuted",
      "type": "event"
    },
    {
      "anonymous": false,
      "inputs": [
        {
          "indexed": false,
          "name": "name",
          "type": "bytes32"
        }
      ],
      "name": "ModuleCreated",
      "type": "event"
    },
    {
      "anonymous": false,
      "inputs": [
        {
          "indexed": false,
          "name": "wallet",
          "type": "address"
        }
      ],
      "name": "ModuleInitialised",
      "type": "event"
    },
    {
      "constant": false,
      "inputs": [
        {
          "name": "_wallet",
          "type": "address"
        },
        {
          "name": "_erc20Contract",
          "type": "address"
        },
        {
          "name": "_spender",
          "type": "address"
        },
        {
          "name": "_amount",
          "type": "uint256"
        }
      ],
      "name": "approveERC20",
      "outputs": [],
      "payable": false,
      "stateMutability": "nonpayable",
      "type": "function"
    }
  ],
  "bytecode": "0x608060405234801561001057600080fd5b5060405160208061136d8339810180604052602081101561003057600080fd5b505160008054600160a060020a038316600160a060020a0319918216178255600180549091169055604080517f4552433230417070726f766572000000000000000000000000000000000000008082529151849392917f3019c8fc80239e3dff8f781212ae2004839c2cb61d6c70acd279ac65392145df919081900360200190a1505050506112a9806100c46000396000f3fe608060405234801561001057600080fd5b50600436106100a5576000357c010000000000000000000000000000000000000000000000000000000090048063aacaaf8811610078578063aacaaf881461015e578063bb1103c31461024e578063c9b5ef8e1461028a578063d490da4d146102b0576100a5565b806319ab453c146100aa5780632d0335ab146100d25780635a1db8c41461010a5780639be65a6014610138575b600080fd5b6100d0600480360360208110156100c057600080fd5b5035600160a060020a03166102ed565b005b6100f8600480360360208110156100e857600080fd5b5035600160a060020a031661038e565b60408051918252519081900360200190f35b6100d06004803603604081101561012057600080fd5b50600160a060020a03813581169160200135166103a9565b6100d06004803603602081101561014e57600080fd5b5035600160a060020a031661056d565b61023a600480360360c081101561017457600080fd5b600160a060020a03823516919081019060408101602082013564010000000081111561019f57600080fd5b8201836020820111156101b157600080fd5b803590602001918460018302840111640100000000831117156101d357600080fd5b919390928235926040810190602001356401000000008111156101f557600080fd5b82018360208201111561020757600080fd5b8035906020019184600183028401116401000000008311171561022957600080fd5b9193509150803590602001356106a0565b604080519115158252519081900360200190f35b6100d06004803603608081101561026457600080fd5b50600160a060020a0381358116916020810135821691604082013516906060013561097e565b6100f8600480360360208110156102a057600080fd5b5035600160a060020a0316610a5f565b6102b8610a71565b604080517fffffffff000000000000000000000000000000000000000000000000000000009092168252519081900360200190f35b8033600160a060020a0382161461034e576040805160e560020a62461bcd02815260206004820152601960248201527f424d3a2063616c6c6572206d7573742062652077616c6c657400000000000000604482015290519081900360640190fd5b60408051600160a060020a038416815290517f9fcca3f73f85397e2bf03647abf243c20b753bd54463ff3cae74de2971c112fa9181900360200190a15050565b600160a060020a031660009081526002602052604090205490565b81333014806103bd57506103bd8133610a95565b15156103fd5760405160e560020a62461bcd02815260040180806020018281038252602381526020018061125b6023913960400191505060405180910390fd5b600054604080517f0bcd4ebb000000000000000000000000000000000000000000000000000000008152600160a060020a03858116600483015291519190921691630bcd4ebb916024808301926020929190829003018186803b15801561046357600080fd5b505afa158015610477573d6000803e3d6000fd5b505050506040513d602081101561048d57600080fd5b505115156104e5576040805160e560020a62461bcd02815260206004820152601c60248201527f424d3a206d6f64756c65206973206e6f74207265676973746572656400000000604482015290519081900360640190fd5b604080517f1f17732d000000000000000000000000000000000000000000000000000000008152600160a060020a03848116600483015260016024830152915191851691631f17732d9160448082019260009290919082900301818387803b15801561055057600080fd5b505af1158015610564573d6000803e3d6000fd5b50505050505050565b604080517f70a082310000000000000000000000000000000000000000000000000000000081523060048201529051600091600160a060020a038416916370a0823191602480820192602092909190829003018186803b1580156105d057600080fd5b505afa1580156105e4573d6000803e3d6000fd5b505050506040513d60208110156105fa57600080fd5b505160008054604080517fa9059cbb000000000000000000000000000000000000000000000000000000008152600160a060020a0392831660048201526024810185905290519394509085169263a9059cbb92604480840193602093929083900390910190829087803b15801561067057600080fd5b505af1158015610684573d6000803e3d6000fd5b505050506040513d602081101561069a57600080fd5b50505050565b6000805a905060006106f0308c60008d8d8080601f0160208091040260200160405190810160405280939291908181526020018383808284376000920191909152508f92508c91508b9050610b35565b90506106fd8b8983610c78565b1515610753576040805160e560020a62461bcd02815260206004820152601560248201527f524d3a204475706c696361746520726571756573740000000000000000000000604482015290519081900360640190fd5b6107938b8b8b8080601f016020809104026020016040519081016040528093929190818152602001838380828437600092019190915250610c8c92505050565b15156107d35760405160e560020a62461bcd02815260040180806020018281038252604a815260200180611211604a913960600191505060405180910390fd5b60006108158c8c8c8080601f016020809104026020016040519081016040528093929190818152602001838380828437600092019190915250610d0092505050565b90506041810287141561092d5761082e8c868884610d08565b1561092d578015806108b157506108b18c8c8c8080601f01602080910402602001604051908101604052809392919081815260200183838082843760009201919091525050604080516020601f8f018190048102820181019092528d815288935091508d908d9081908401838280828437600092019190915250610dda92505050565b1561092d5730600160a060020a03168b8b604051808383808284376040519201945060009350909150508083038183865af19150503d8060008114610912576040519150601f19603f3d011682016040523d82523d6000602084013e610917565b606091505b50508094505061092d8c5a850388888533610dff565b60408051838152905185151591600160a060020a038f16917f6bb0b384ce772133df63560651bc8c727c53306cec1d51e2cbf8ea35fb8f2ec19181900360200190a350505098975050505050505050565b833330148061099257506109928133610a95565b15156109d25760405160e560020a62461bcd02815260040180806020018281038252602381526020018061125b6023913960400191505060405180910390fd5b60408051600160a060020a038516602482015260448082018590528251808303909101815260649091019091526020810180517bffffffffffffffffffffffffffffffffffffffffffffffffffffffff167f095ea7b300000000000000000000000000000000000000000000000000000000179052610a579086908690600090610e5d565b505050505050565b60026020526000908152604090205481565b7fd490da4d0000000000000000000000000000000000000000000000000000000090565b600081600160a060020a031683600160a060020a0316638da5cb5b6040518163ffffffff167c010000000000000000000000000000000000000000000000000000000002815260040160206040518083038186803b158015610af657600080fd5b505afa158015610b0a573d6000803e3d6000fd5b505050506040513d6020811015610b2057600080fd5b5051600160a060020a03161490505b92915050565b6040517f190000000000000000000000000000000000000000000000000000000000000060208083018281526000602185018190526c01000000000000000000000000600160a060020a03808e16820260228801528c16026036860152604a85018a90528851909485938d938d938d938d938d938d938d939192606a909201918701908083835b60208310610bdb5780518252601f199092019160209182019101610bbc565b51815160209384036101000a600019018019909216911617905292019586525084810193909352506040808401919091528051808403820181526060840182528051908301207f19457468657265756d205369676e6564204d6573736167653a0a3332000000006080850152609c808501919091528151808503909101815260bc909301905281519101209e9d5050505050505050505050505050565b6000610c8484846110e0565b949350505050565b60006024825110151515610cea576040805160e560020a62461bcd02815260206004820152601660248201527f524d3a20496e76616c6964206461746157616c6c657400000000000000000000604482015290519081900360640190fd5b5060240151600160a060020a0391821691161490565b600192915050565b60008083118015610d195750600182115b8015610dc2575082840285600160a060020a0316311080610dc25750604080517fd6eb1bbf0000000000000000000000000000000000000000000000000000000081523060048201529051600160a060020a0387169163d6eb1bbf916024808301926020929190829003018186803b158015610d9457600080fd5b505afa158015610da8573d6000803e3d6000fd5b505050506040513d6020811015610dbe57600080fd5b5051155b15610dcf57506000610c84565b506001949350505050565b600080610de984846000611166565b9050610df58682610a95565b9695505050505050565b61726c8501600085118015610e145750600183115b8015610e205750838111155b15610564573a851115610e34573a02610e37565b84025b610e538783836020604051908101604052806000815250610e5d565b5050505050505050565b6060600085600160a060020a03168585856040516024018084600160a060020a0316600160a060020a0316815260200183815260200180602001828103825283818151815260200191508051906020019080838360005b83811015610ecc578181015183820152602001610eb4565b50505050905090810190601f168015610ef95780820380516001836020036101000a031916815260200191505b5060408051601f198184030181529181526020820180517bffffffffffffffffffffffffffffffffffffffffffffffffffffffff167f8f6f033200000000000000000000000000000000000000000000000000000000178152905182519297509550859450925090508083835b60208310610f855780518252601f199092019160209182019101610f66565b6001836020036101000a0380198251168184511680821785525050505050509050019150506000604051808303816000865af19150503d8060008114610fe7576040519150601f19603f3d011682016040523d82523d6000602084013e610fec565b606091505b5092509050808015610fff575060008251115b1561106c5781806020019051602081101561101957600080fd5b81019080805164010000000081111561103157600080fd5b8201602081018481111561104457600080fd5b815164010000000081118282018710171561105e57600080fd5b509095506110d79350505050565b600082511115611080573d6000803e3d6000fd5b8015156110d7576040805160e560020a62461bcd02815260206004820152601a60248201527f424d3a2077616c6c657420696e766f6b65207265766572746564000000000000604482015290519081900360640190fd5b50949350505050565b600160a060020a038216600090815260026020526040812054821161110757506000610b2f565b7001000000000000000000000000000000006fffffffffffffffffffffffffffffffff198316044361271001811115611144576000915050610b2f565b5050600160a060020a0391909116600090815260026020526040902055600190565b6041808202830160208101516040820151919092015160009260ff9190911691601b83148061119857508260ff16601c145b15156111a357600080fd5b604080516000815260208082018084528a905260ff8616828401526060820185905260808201849052915160019260a0808401939192601f1981019281900390910190855afa1580156111fa573d6000803e3d6000fd5b5050604051601f1901519897505050505050505056fe524d3a207468652077616c6c657420617574686f72697a656420697320646966666572656e74207468656e2074686520746172676574206f66207468652072656c617965642064617461424d3a206d75737420626520616e206f776e657220666f72207468652077616c6c6574a165627a7a72305820d2ea81990b3114f64e32bfe03815ee34d7f0419893a292dd3af3b93cc1740e250029",
  "source": "pragma solidity ^0.5.4;\nimport \"../../wallet/BaseWallet.sol\";\nimport \"../../modules/common/BaseModule.sol\";\nimport \"../../modules/common/OnlyOwnerModule.sol\";\n\ncontract ERC20Approver is BaseModule, OnlyOwnerModule {\n\n    bytes32 constant NAME = \"ERC20Approver\";\n\n    constructor(ModuleRegistry _registry) BaseModule(_registry, GuardianStorage(0), NAME) public {}\n\n    // used by NftTransfer's Tests\n    function approveERC20(BaseWallet _wallet, address _erc20Contract, address _spender, uint256 _amount)\n        external\n        onlyWalletOwner(_wallet)\n    {\n        invokeWallet(address(_wallet), _erc20Contract, 0, abi.encodeWithSignature(\"approve(address,uint256)\", _spender, _amount));\n    }\n\n}",
  "sourcePath": "/home/amxx/Work/Argent/argent-contracts/contracts/test/modules/ERC20Approver.sol",
  "compiler": {
    "name": "solc",
    "version": "0.5.4+commit.9549d8ff.Emscripten.clang",
    "optimizer": true,
    "runs": 200
  },
  "schemaVersion": "2.2.4",
  "updatedAt": "2020-02-29T16:28:22.656Z"
}