{
  "contractName": "GuardianStorage",
  "abi": [
    {
      "constant": false,
      "inputs": [
        {
          "name": "_wallet",
          "type": "address"
        },
        {
          "name": "_guardian",
          "type": "address"
        }
      ],
      "name": "addGuardian",
      "outputs": [],
      "payable": false,
      "stateMutability": "nonpayable",
      "type": "function"
    },
    {
      "constant": false,
      "inputs": [
        {
          "name": "_wallet",
          "type": "address"
        },
        {
          "name": "_guardian",
          "type": "address"
        }
      ],
      "name": "revokeGuardian",
      "outputs": [],
      "payable": false,
      "stateMutability": "nonpayable",
      "type": "function"
    },
    {
      "constant": true,
      "inputs": [
        {
          "name": "_wallet",
          "type": "address"
        }
      ],
      "name": "guardianCount",
      "outputs": [
        {
          "name": "",
          "type": "uint256"
        }
      ],
      "payable": false,
      "stateMutability": "view",
      "type": "function"
    },
    {
      "constant": true,
      "inputs": [
        {
          "name": "_wallet",
          "type": "address"
        }
      ],
      "name": "getGuardians",
      "outputs": [
        {
          "name": "",
          "type": "address[]"
        }
      ],
      "payable": false,
      "stateMutability": "view",
      "type": "function"
    },
    {
      "constant": true,
      "inputs": [
        {
          "name": "_wallet",
          "type": "address"
        },
        {
          "name": "_guardian",
          "type": "address"
        }
      ],
      "name": "isGuardian",
      "outputs": [
        {
          "name": "",
          "type": "bool"
        }
      ],
      "payable": false,
      "stateMutability": "view",
      "type": "function"
    },
    {
      "constant": false,
      "inputs": [
        {
          "name": "_wallet",
          "type": "address"
        },
        {
          "name": "_releaseAfter",
          "type": "uint256"
        }
      ],
      "name": "setLock",
      "outputs": [],
      "payable": false,
      "stateMutability": "nonpayable",
      "type": "function"
    },
    {
      "constant": true,
      "inputs": [
        {
          "name": "_wallet",
          "type": "address"
        }
      ],
      "name": "isLocked",
      "outputs": [
        {
          "name": "",
          "type": "bool"
        }
      ],
      "payable": false,
      "stateMutability": "view",
      "type": "function"
    },
    {
      "constant": true,
      "inputs": [
        {
          "name": "_wallet",
          "type": "address"
        }
      ],
      "name": "getLock",
      "outputs": [
        {
          "name": "",
          "type": "uint256"
        }
      ],
      "payable": false,
      "stateMutability": "view",
      "type": "function"
    },
    {
      "constant": true,
      "inputs": [
        {
          "name": "_wallet",
          "type": "address"
        }
      ],
      "name": "getLocker",
      "outputs": [
        {
          "name": "",
          "type": "address"
        }
      ],
      "payable": false,
      "stateMutability": "view",
      "type": "function"
    }
  ],
  "bytecode": "0x608060405234801561001057600080fd5b506109eb806100206000396000f3fe608060405234801561001057600080fd5b50600436106100b0576000357c010000000000000000000000000000000000000000000000000000000090048063919884bf11610083578063919884bf1461017d578063b0fc29e6146101bf578063c6845210146101eb578063d4ee973414610219578063f18858ab14610247576100b0565b80631d97d8cc146100b55780634a4fbeec146100e55780635040fb761461011f5780636b9db4e614610157575b600080fd5b6100e3600480360360408110156100cb57600080fd5b50600160a060020a03813581169160200135166102bd565b005b61010b600480360360208110156100fb57600080fd5b5035600160a060020a03166104fb565b604080519115158252519081900360200190f35b6101456004803603602081101561013557600080fd5b5035600160a060020a031661051b565b60408051918252519081900360200190f35b6101456004803603602081101561016d57600080fd5b5035600160a060020a0316610536565b6101a36004803603602081101561019357600080fd5b5035600160a060020a0316610554565b60408051600160a060020a039092168252519081900360200190f35b6100e3600480360360408110156101d557600080fd5b50600160a060020a038135169060200135610575565b6100e36004803603604081101561020157600080fd5b50600160a060020a03813581169160200135166106e7565b61010b6004803603604081101561022f57600080fd5b50600160a060020a0381358116916020013516610868565b61026d6004803603602081101561025d57600080fd5b5035600160a060020a0316610898565b60408051602080825283518183015283519192839290830191858101910280838360005b838110156102a9578181015183820152602001610291565b505050509050019250505060405180910390f35b604080517fd6eb1bbf00000000000000000000000000000000000000000000000000000000815233600482015290518391600160a060020a0383169163d6eb1bbf91602480820192602092909190829003018186803b15801561031f57600080fd5b505afa158015610333573d6000803e3d6000fd5b505050506040513d602081101561034957600080fd5b505115156103a2576040517f08c379a000000000000000000000000000000000000000000000000000000000815260040180806020018281038252603481526020018061098c6034913960400191505060405180910390fd5b600160a060020a03831660009081526020819052604081208054909190829060001981019081106103cf57fe5b600091825260209091200154600160a060020a039081169150841681146104b157600160a060020a038416600090815260018301602052604090205482546101009091046fffffffffffffffffffffffffffffffff1690829084908390811061043457fe5b600091825260208083209091018054600160a060020a0394851673ffffffffffffffffffffffffffffffffffffffff199091161790559184168152600185019091526040902080546fffffffffffffffffffffffffffffffff9092166101000270ffffffffffffffffffffffffffffffff00199092169190911790555b81546104c183600019830161094b565b5050600160a060020a03909216600090815260019092016020525060409020805470ffffffffffffffffffffffffffffffffff1916905550565b600160a060020a0316600090815260208190526040902060020154421090565b600160a060020a031660009081526020819052604090205490565b600160a060020a031660009081526020819052604090206002015490565b600160a060020a039081166000908152602081905260409020600301541690565b604080517fd6eb1bbf00000000000000000000000000000000000000000000000000000000815233600482015290518391600160a060020a0383169163d6eb1bbf91602480820192602092909190829003018186803b1580156105d757600080fd5b505afa1580156105eb573d6000803e3d6000fd5b505050506040513d602081101561060157600080fd5b5051151561065a576040517f08c379a000000000000000000000000000000000000000000000000000000000815260040180806020018281038252603481526020018061098c6034913960400191505060405180910390fd5b600160a060020a038316600090815260208190526040902060020182905581158015906106a45750600160a060020a03838116600090815260208190526040902060030154163314155b156106e257600160a060020a0383166000908152602081905260409020600301805473ffffffffffffffffffffffffffffffffffffffff1916331790555b505050565b604080517fd6eb1bbf00000000000000000000000000000000000000000000000000000000815233600482015290518391600160a060020a0383169163d6eb1bbf91602480820192602092909190829003018186803b15801561074957600080fd5b505afa15801561075d573d6000803e3d6000fd5b505050506040513d602081101561077357600080fd5b505115156107cc576040517f08c379a000000000000000000000000000000000000000000000000000000000815260040180806020018281038252603481526020018061098c6034913960400191505060405180910390fd5b50600160a060020a039182166000908152602081815260408083209390941680835260018085018352948320805460ff191686178155845495860185559383529082208401805473ffffffffffffffffffffffffffffffffffffffff191682179055905280546fffffffffffffffffffffffffffffffff9092166101000270ffffffffffffffffffffffffffffffff0019909216919091179055565b600160a060020a039182166000908152602081815260408083209390941682526001909201909152205460ff1690565b600160a060020a038116600090815260208181526040918290208054835181815281840281019093019093526060929091839180156108e1578160200160208202803883390190505b50905060005b82548110156109435782548390829081106108fe57fe5b6000918252602090912001548251600160a060020a039091169083908390811061092457fe5b600160a060020a039092166020928302909101909101526001016108e7565b509392505050565b8154818355818111156106e2576000838152602090206106e291810190830161098891905b808211156109845760008155600101610970565b5090565b9056fe54533a206d75737420626520616e20617574686f72697a6564206d6f64756c6520746f2063616c6c2074686973206d6574686f64a165627a7a723058207d2e0b30554abd77f4e93f07e599af5ee391f29de9a7c258a1390e0bc286d3760029",
  "source": "pragma solidity ^0.5.4;\nimport \"../wallet/BaseWallet.sol\";\nimport \"./Storage.sol\";\n\n/**\n * @title GuardianStorage\n * @dev Contract storing the state of wallets related to guardians and lock.\n * The contract only defines basic setters and getters with no logic. Only modules authorised\n * for a wallet can modify its state.\n * @author Julien Niset - <julien@argent.im>\n * @author Olivier Van Den Biggelaar - <olivier@argent.im>\n */\ncontract GuardianStorage is Storage {\n\n    struct GuardianStorageConfig {\n        // the list of guardians\n        address[] guardians;\n        // the info about guardians\n        mapping (address => GuardianInfo) info;\n        // the lock's release timestamp\n        uint256 lock; \n        // the module that set the last lock\n        address locker;\n    }\n\n    struct GuardianInfo {\n        bool exists;\n        uint128 index;\n    }\n\n    // wallet specific storage\n    mapping (address => GuardianStorageConfig) internal configs;\n\n    // *************** External Functions ********************* //\n\n    /**\n     * @dev Lets an authorised module add a guardian to a wallet.\n     * @param _wallet The target wallet.\n     * @param _guardian The guardian to add.\n     */\n    function addGuardian(BaseWallet _wallet, address _guardian) external onlyModule(_wallet) {\n        GuardianStorageConfig storage config = configs[address(_wallet)];\n        config.info[_guardian].exists = true;\n        config.info[_guardian].index = uint128(config.guardians.push(_guardian) - 1);\n    }\n\n    /**\n     * @dev Lets an authorised module revoke a guardian from a wallet.\n     * @param _wallet The target wallet.\n     * @param _guardian The guardian to revoke.\n     */\n    function revokeGuardian(BaseWallet _wallet, address _guardian) external onlyModule(_wallet) {\n        GuardianStorageConfig storage config = configs[address(_wallet)];\n        address lastGuardian = config.guardians[config.guardians.length - 1];\n        if (_guardian != lastGuardian) {\n            uint128 targetIndex = config.info[_guardian].index;\n            config.guardians[targetIndex] = lastGuardian;\n            config.info[lastGuardian].index = targetIndex;\n        }\n        config.guardians.length--;\n        delete config.info[_guardian];\n    }\n\n    /**\n     * @dev Returns the number of guardians for a wallet.\n     * @param _wallet The target wallet.\n     * @return the number of guardians.\n     */\n    function guardianCount(BaseWallet _wallet) external view returns (uint256) {\n        return configs[address(_wallet)].guardians.length;\n    }\n    \n    /**\n     * @dev Gets the list of guaridans for a wallet.\n     * @param _wallet The target wallet.\n     * @return the list of guardians.\n     */\n    function getGuardians(BaseWallet _wallet) external view returns (address[] memory) {\n        GuardianStorageConfig storage config = configs[address(_wallet)];\n        address[] memory guardians = new address[](config.guardians.length);\n        for (uint256 i = 0; i < config.guardians.length; i++) {\n            guardians[i] = config.guardians[i];\n        }\n        return guardians;\n    }\n\n    /**\n     * @dev Checks if an account is a guardian for a wallet.\n     * @param _wallet The target wallet.\n     * @param _guardian The account.\n     * @return true if the account is a guardian for a wallet.\n     */\n    function isGuardian(BaseWallet _wallet, address _guardian) external view returns (bool) {\n        return configs[address(_wallet)].info[_guardian].exists;\n    }\n\n    /**\n     * @dev Lets an authorised module set the lock for a wallet.\n     * @param _wallet The target wallet.\n     * @param _releaseAfter The epoch time at which the lock should automatically release.\n     */\n    function setLock(BaseWallet _wallet, uint256 _releaseAfter) external onlyModule(_wallet) {\n        configs[address(_wallet)].lock = _releaseAfter;\n        if(_releaseAfter != 0 && msg.sender != configs[address(_wallet)].locker) {\n            configs[address(_wallet)].locker = msg.sender;\n        }\n    }\n\n    /**\n     * @dev Checks if the lock is set for a wallet.\n     * @param _wallet The target wallet.\n     * @return true if the lock is set for the wallet.\n     */\n    function isLocked(BaseWallet _wallet) external view returns (bool) {\n        return configs[address(_wallet)].lock > now;\n    }\n\n    /**\n     * @dev Gets the time at which the lock of a wallet will release.\n     * @param _wallet The target wallet.\n     * @return the time at which the lock of a wallet will release, or zero if there is no lock set.\n     */\n    function getLock(BaseWallet _wallet) external view returns (uint256) {\n        return configs[address(_wallet)].lock;\n    }\n\n    /**\n     * @dev Gets the address of the last module that modified the lock for a wallet.\n     * @param _wallet The target wallet.\n     * @return the address of the last module that modified the lock for a wallet.\n     */\n    function getLocker(BaseWallet _wallet) external view returns (address) {\n        return configs[address(_wallet)].locker;\n    }\n}",
  "sourcePath": "/home/amxx/Work/Argent/argent-contracts/contracts/storage/GuardianStorage.sol",
  "compiler": {
    "name": "solc",
    "version": "0.5.4+commit.9549d8ff.Emscripten.clang",
    "optimizer": true,
    "runs": 200
  },
  "schemaVersion": "2.2.4",
  "updatedAt": "2020-02-29T16:28:22.576Z"
}