{
  "contractName": "KyberNetworkTest",
  "abi": [
    {
      "constant": true,
      "inputs": [
        {
          "name": "",
          "type": "address"
        }
      ],
      "name": "tokens",
      "outputs": [
        {
          "name": "exists",
          "type": "bool"
        },
        {
          "name": "rate",
          "type": "uint256"
        },
        {
          "name": "decimals",
          "type": "uint256"
        }
      ],
      "payable": false,
      "stateMutability": "view",
      "type": "function"
    },
    {
      "inputs": [],
      "payable": false,
      "stateMutability": "nonpayable",
      "type": "constructor"
    },
    {
      "payable": true,
      "stateMutability": "payable",
      "type": "fallback"
    },
    {
      "constant": false,
      "inputs": [
        {
          "name": "_token",
          "type": "address"
        },
        {
          "name": "_rate",
          "type": "uint256"
        },
        {
          "name": "_decimals",
          "type": "uint256"
        }
      ],
      "name": "addToken",
      "outputs": [],
      "payable": false,
      "stateMutability": "nonpayable",
      "type": "function"
    },
    {
      "constant": true,
      "inputs": [
        {
          "name": "_src",
          "type": "address"
        },
        {
          "name": "_dest",
          "type": "address"
        },
        {
          "name": "",
          "type": "uint256"
        }
      ],
      "name": "getExpectedRate",
      "outputs": [
        {
          "name": "expectedRate",
          "type": "uint256"
        },
        {
          "name": "slippageRate",
          "type": "uint256"
        }
      ],
      "payable": false,
      "stateMutability": "view",
      "type": "function"
    },
    {
      "constant": false,
      "inputs": [
        {
          "name": "_src",
          "type": "address"
        },
        {
          "name": "_srcAmount",
          "type": "uint256"
        },
        {
          "name": "_dest",
          "type": "address"
        },
        {
          "name": "_destAddress",
          "type": "address"
        },
        {
          "name": "_maxDestAmount",
          "type": "uint256"
        },
        {
          "name": "",
          "type": "uint256"
        },
        {
          "name": "",
          "type": "address"
        }
      ],
      "name": "trade",
      "outputs": [
        {
          "name": "destAmount",
          "type": "uint256"
        }
      ],
      "payable": true,
      "stateMutability": "payable",
      "type": "function"
    }
  ],
  "bytecode": "0x608060405234801561001057600080fd5b5060018054600160a060020a03191633179055610886806100326000396000f3fe60806040526004361061005b577c01000000000000000000000000000000000000000000000000000000006000350463809a9e55811461005d578063cb3c28c7146100b9578063dee1f2af1461011d578063e48603391461015c575b005b34801561006957600080fd5b506100a06004803603606081101561008057600080fd5b50600160a060020a038135811691602081013590911690604001356101af565b6040805192835260208301919091528051918290030190f35b61010b600480360360e08110156100cf57600080fd5b50600160a060020a0381358116916020810135916040820135811691606081013582169160808201359160a08101359160c090910135166102b8565b60408051918252519081900360200190f35b34801561012957600080fd5b5061005b6004803603606081101561014057600080fd5b50600160a060020a038135169060208101359060400135610725565b34801561016857600080fd5b5061018f6004803603602081101561017f57600080fd5b5035600160a060020a03166107dd565b604080519315158452602084019290925282820152519081900360600190f35b600080600160a060020a03851673eeeeeeeeeeeeeeeeeeeeeeeeeeeeeeeeeeeeeeee141561021757600160a060020a0384166000908152602081905260409020600101546ec097ce7bc90715b34b9f100000000081151561020c57fe5b0491508190506102b0565b600160a060020a03841673eeeeeeeeeeeeeeeeeeeeeeeeeeeeeeeeeeeeeeee1415610260575050600160a060020a038316600090815260208190526040902060010154806102b0565b6040805160e560020a62461bcd02815260206004820152601260248201527f556e6b6e6f776e20746f6b656e20706169720000000000000000000000000000604482015290519081900360640190fd5b935093915050565b60008080600160a060020a038a1673eeeeeeeeeeeeeeeeeeeeeeeeeeeeeeeeeeeeeeee141561054157600160a060020a0388166000908152602081905260409020600101546ec097ce7bc90715b34b9f100000000081151561031657fe5b600160a060020a038a16600090815260208190526040902060020154919004925061035d90602403600a0a610351848c63ffffffff61080216565b9063ffffffff61083616565b9250858311156103aa57600160a060020a0388166000908152602081905260409020600201548693506103a3908390610351908690602403600a0a63ffffffff61080216565b90506103ad565b50875b34811115610405576040805160e560020a62461bcd02815260206004820152601760248201527f6e6f7420656e6f756768204554482070726f7669646564000000000000000000604482015290519081900360640190fd5b8034111561043e5760405133903483900380156108fc02916000818181858888f1935050505015801561043c573d6000803e3d6000fd5b505b87600160a060020a031663a9059cbb88856040518363ffffffff167c01000000000000000000000000000000000000000000000000000000000281526004018083600160a060020a0316600160a060020a0316815260200182815260200192505050602060405180830381600087803b1580156104ba57600080fd5b505af11580156104ce573d6000803e3d6000fd5b505050506040513d60208110156104e457600080fd5b5051151561053c576040805160e560020a62461bcd02815260206004820152601560248201527f4552433230207472616e73666572206661696c65640000000000000000000000604482015290519081900360640190fd5b610718565b600160a060020a03881673eeeeeeeeeeeeeeeeeeeeeeeeeeeeeeeeeeeeeeee141561026057600160a060020a038a16600090815260208190526040902060018101546002909101549092506105a390600a0a610351848c63ffffffff61080216565b9250858311156105ed57600160a060020a038a166000908152602081905260409020600201548693506105e6908390610351908690600a0a63ffffffff61080216565b90506105f0565b50875b604080517f23b872dd000000000000000000000000000000000000000000000000000000008152336004820152306024820152604481018390529051600160a060020a038c16916323b872dd9160648083019260209291908290030181600087803b15801561065e57600080fd5b505af1158015610672573d6000803e3d6000fd5b505050506040513d602081101561068857600080fd5b505115156106e0576040805160e560020a62461bcd02815260206004820152601960248201527f6e6f7420656e6f7567682045524332302070726f766964656400000000000000604482015290519081900360640190fd5b604051600160a060020a0388169084156108fc029085906000818181858888f19350505050158015610716573d6000803e3d6000fd5b505b5050979650505050505050565b600154600160a060020a03163314610787576040805160e560020a62461bcd02815260206004820152600c60248201527f756e617574686f72697a65640000000000000000000000000000000000000000604482015290519081900360640190fd5b6040805160608101825260018082526020808301958652828401948552600160a060020a0396909616600090815295869052919094209351845460ff191690151517845591519183019190915551600290910155565b60006020819052908152604090208054600182015460029092015460ff909116919083565b600082151561081357506000610830565b82820282848281151561082257fe5b041461082d57600080fd5b90505b92915050565b600080821161084457600080fd5b6000828481151561085157fe5b0494935050505056fea165627a7a723058204cab8e888f9fea2b8ae3988bf042870a4a61a19a7ece4559f9baa85454ad58110029",
  "source": "pragma solidity ^0.5.4;\nimport \"../exchange/ERC20.sol\";\nimport \"../exchange/KyberNetwork.sol\";\nimport \"../utils/SafeMath.sol\";\n\ncontract KyberNetworkTest is KyberNetwork {\n\n    using SafeMath for uint256;\n\n    // Mock token address for ETH\n    address constant internal ETH_TOKEN_ADDRESS = 0xEeeeeEeeeEeEeeEeEeEeeEEEeeeeEeeeeeeeEEeE;\n\n    struct Token {\n        bool exists;\n        uint256 rate; \n        uint256 decimals;\n    }\n\n    mapping (address => Token) public tokens;\n    address owner;\n\n    constructor() public {\n        owner = msg.sender;\n    }\n\n    function() external payable {}\n\n    /**\n    * @dev Adds a tradable token to the Kyber instance\n    * @param _token The token\n    * @param _rate The rate for the token as 1 TOKN = (rate/10**18) ETH\n    * @param _decimals The number of decimals for the token\n    */\n    function addToken(ERC20 _token, uint256 _rate, uint256 _decimals) public {\n        require(msg.sender == owner, \"unauthorized\");\n        tokens[address(_token)] = Token({exists: true, rate: _rate, decimals: _decimals});\n    }\n\n    function getExpectedRate(\n        ERC20 _src,\n        ERC20 _dest,\n        uint /* _srcQty */\n    )\n        public\n        view\n        returns (uint expectedRate, uint slippageRate)\n    {\n        if(address(_src) == ETH_TOKEN_ADDRESS) {\n            expectedRate = 10**36 / tokens[address(_dest)].rate;\n            slippageRate = expectedRate;\n        }\n        else if(address(_dest) == ETH_TOKEN_ADDRESS) {\n            expectedRate = tokens[address(_src)].rate;\n            slippageRate = expectedRate;\n        }\n        else {\n            revert(\"Unknown token pair\");\n        }\n    }\n\n    function trade(\n        ERC20 _src,\n        uint _srcAmount,\n        ERC20 _dest,\n        address payable _destAddress,\n        uint _maxDestAmount,\n        uint /* _minConversionRate */,\n        address /* _walletId */\n    )\n        public\n        payable\n        returns( uint destAmount) \n    {\n        uint expectedRate;\n        uint srcAmount;\n        if(address(_src) == ETH_TOKEN_ADDRESS) {\n            expectedRate = 10**36 / tokens[address(_dest)].rate;\n            destAmount = expectedRate.mul(_srcAmount).div(10**(36 - tokens[address(_dest)].decimals));\n            if(destAmount > _maxDestAmount) {\n                destAmount = _maxDestAmount;\n                srcAmount = _maxDestAmount.mul(10**(36 - tokens[address(_dest)].decimals)).div(expectedRate);\n            }\n            else {\n                srcAmount = _srcAmount;\n            }\n            require(msg.value >= srcAmount, \"not enough ETH provided\");\n            if(msg.value > srcAmount) {\n                // refund\n                msg.sender.transfer(msg.value - srcAmount);\n            }\n            require(ERC20(_dest).transfer(_destAddress, destAmount), \"ERC20 transfer failed\");\n        }\n        else if(address(_dest) == ETH_TOKEN_ADDRESS) {\n            expectedRate = tokens[address(_src)].rate;\n            destAmount = expectedRate.mul(_srcAmount).div(10**tokens[address(_src)].decimals);\n            if(destAmount > _maxDestAmount) {\n                destAmount = _maxDestAmount;\n                srcAmount = _maxDestAmount.mul(10**tokens[address(_src)].decimals).div(expectedRate);\n            }\n            else {\n                srcAmount = _srcAmount;\n            }\n            require(_src.transferFrom(msg.sender, address(this), srcAmount), \"not enough ERC20 provided\");\n            _destAddress.transfer(destAmount);\n        }\n        else {\n            revert(\"Unknown token pair\");\n        }\n    }\n}\n",
  "sourcePath": "/home/amxx/Work/Argent/argent-contracts/contracts/test/KyberNetworkTest.sol",
  "compiler": {
    "name": "solc",
    "version": "0.5.4+commit.9549d8ff.Emscripten.clang",
    "optimizer": true,
    "runs": 200
  },
  "schemaVersion": "2.2.4",
  "updatedAt": "2020-02-29T16:28:22.582Z"
}