{
  "contractName": "LegacySimpleUpgrader",
  "abi": [
    {
      "inputs": [
        {
          "name": "_disable",
          "type": "address[]"
        },
        {
          "name": "_enable",
          "type": "address[]"
        }
      ],
      "payable": false,
      "stateMutability": "nonpayable",
      "type": "constructor"
    },
    {
      "constant": false,
      "inputs": [
        {
          "name": "_wallet",
          "type": "address"
        },
        {
          "name": "_toDisable",
          "type": "address[]"
        },
        {
          "name": "_toEnable",
          "type": "address[]"
        }
      ],
      "name": "upgrade",
      "outputs": [],
      "payable": false,
      "stateMutability": "nonpayable",
      "type": "function"
    },
    {
      "constant": true,
      "inputs": [],
      "name": "toDisable",
      "outputs": [
        {
          "name": "",
          "type": "address[]"
        }
      ],
      "payable": false,
      "stateMutability": "view",
      "type": "function"
    },
    {
      "constant": true,
      "inputs": [],
      "name": "toEnable",
      "outputs": [
        {
          "name": "",
          "type": "address[]"
        }
      ],
      "payable": false,
      "stateMutability": "view",
      "type": "function"
    }
  ],
  "bytecode": "0x608060405234801561001057600080fd5b5060405161055c38038061055c8339810180604052604081101561003357600080fd5b81019080805164010000000081111561004b57600080fd5b8201602081018481111561005e57600080fd5b815185602082028301116401000000008211171561007b57600080fd5b5050929190602001805164010000000081111561009757600080fd5b820160208101848111156100aa57600080fd5b81518560208202830111640100000000821117156100c757600080fd5b505084519093506100e192506000915060208501906100fd565b5080516100f59060019060208401906100fd565b505050610189565b828054828255906000526020600020908101928215610152579160200282015b828111156101525782518254600160a060020a031916600160a060020a0390911617825560209092019160019091019061011d565b5061015e929150610162565b5090565b61018691905b8082111561015e578054600160a060020a0319168155600101610168565b90565b6103c4806101986000396000f3fe608060405234801561001057600080fd5b50600436106100445760e060020a60003504634c3ea4fe8114610049578063aa4f95ea146100a1578063e79e084014610175575b600080fd5b61005161017d565b60408051602080825283518183015283519192839290830191858101910280838360005b8381101561008d578181015183820152602001610075565b505050509050019250505060405180910390f35b610173600480360360608110156100b757600080fd5b600160a060020a0382351691908101906040810160208201356401000000008111156100e257600080fd5b8201836020820111156100f457600080fd5b8035906020019184602083028401116401000000008311171561011657600080fd5b91939092909160208101903564010000000081111561013457600080fd5b82018360208201111561014657600080fd5b8035906020019184602083028401116401000000008311171561016857600080fd5b5090925090506101df565b005b610051610338565b606060018054806020026020016040519081016040528092919081815260200182805480156101d557602002820191906000526020600020905b8154600160a060020a031681526001909101906020018083116101b7575b5050505050905090565b60005b8181101561027d57600160a060020a038616631f17732d84848481811061020557fe5b6040805163ffffffff861660e060020a0281526020929092029390930135600160a060020a031660048201526001602482015291516044808401936000935082900301818387803b15801561025957600080fd5b505af115801561026d573d6000803e3d6000fd5b5050600190920191506101e29050565b5060005b8381101561033057600160a060020a038616631f17732d8686848181106102a457fe5b90506020020135600160a060020a031660006040518363ffffffff1660e060020a0281526004018083600160a060020a0316600160a060020a031681526020018215151515815260200192505050600060405180830381600087803b15801561030c57600080fd5b505af1158015610320573d6000803e3d6000fd5b5050600190920191506102819050565b505050505050565b606060008054806020026020016040519081016040528092919081815260200182805480156101d557602002820191906000526020600020908154600160a060020a031681526001909101906020018083116101b757505050505090509056fea165627a7a72305820c8099efe383f5e4073f7d64b9724f8f16b965ce85aa2fb972e0d431626a928f20029",
  "source": "pragma solidity ^0.5.4;\n\nimport \"./LegacyUpgrader.sol\";\nimport \"../../wallet/BaseWallet.sol\";\n\n/**\n * @title LegacySimpleUpgrader\n * @dev Old implementation for the Upgrader interface that added/removed modules.\n * @author Julien Niset - <julien@argent.im>\n */\ncontract LegacySimpleUpgrader is LegacyUpgrader {\n\n    address[] private disable;\n    address[] private enable;\n\n    constructor(address[] memory _disable, address[] memory _enable) public {\n        disable = _disable;\n        enable = _enable;\n    }\n\n    function upgrade(address payable _wallet, address[] calldata _toDisable, address[] calldata _toEnable) external {\n        uint256 i = 0;\n        //add new modules\n        for(i = 0; i < _toEnable.length; i++) {\n            BaseWallet(_wallet).authoriseModule(_toEnable[i], true);\n        }\n        //remove old modules\n        for(i = 0; i < _toDisable.length; i++) {\n            BaseWallet(_wallet).authoriseModule(_toDisable[i], false);\n        }\n    }\n\n    function toDisable() external view returns (address[] memory) {\n        return disable;\n    }\n\n    function toEnable() external view returns (address[] memory) {\n        return enable;\n    }\n}",
  "sourcePath": "/home/amxx/Work/Argent/argent-contracts/contracts/upgrade/Legacy/LegacySimpleUpgrader.sol",
  "compiler": {
    "name": "solc",
    "version": "0.5.4+commit.9549d8ff.Emscripten.clang",
    "optimizer": true,
    "runs": 200
  },
  "schemaVersion": "2.2.4",
  "updatedAt": "2020-02-29T16:28:22.661Z"
}