{
  "contractName": "LockManager",
  "abi": [
    {
      "constant": false,
      "inputs": [
        {
          "name": "_wallet",
          "type": "address"
        }
      ],
      "name": "init",
      "outputs": [],
      "payable": false,
      "stateMutability": "nonpayable",
      "type": "function"
    },
    {
      "constant": true,
      "inputs": [
        {
          "name": "_wallet",
          "type": "address"
        }
      ],
      "name": "getNonce",
      "outputs": [
        {
          "name": "nonce",
          "type": "uint256"
        }
      ],
      "payable": false,
      "stateMutability": "view",
      "type": "function"
    },
    {
      "constant": true,
      "inputs": [],
      "name": "lockPeriod",
      "outputs": [
        {
          "name": "",
          "type": "uint256"
        }
      ],
      "payable": false,
      "stateMutability": "view",
      "type": "function"
    },
    {
      "constant": false,
      "inputs": [
        {
          "name": "_wallet",
          "type": "address"
        },
        {
          "name": "_module",
          "type": "address"
        }
      ],
      "name": "addModule",
      "outputs": [],
      "payable": false,
      "stateMutability": "nonpayable",
      "type": "function"
    },
    {
      "constant": false,
      "inputs": [
        {
          "name": "_token",
          "type": "address"
        }
      ],
      "name": "recoverToken",
      "outputs": [],
      "payable": false,
      "stateMutability": "nonpayable",
      "type": "function"
    },
    {
      "constant": false,
      "inputs": [
        {
          "name": "_wallet",
          "type": "address"
        },
        {
          "name": "_data",
          "type": "bytes"
        },
        {
          "name": "_nonce",
          "type": "uint256"
        },
        {
          "name": "_signatures",
          "type": "bytes"
        },
        {
          "name": "_gasPrice",
          "type": "uint256"
        },
        {
          "name": "_gasLimit",
          "type": "uint256"
        }
      ],
      "name": "execute",
      "outputs": [
        {
          "name": "success",
          "type": "bool"
        }
      ],
      "payable": false,
      "stateMutability": "nonpayable",
      "type": "function"
    },
    {
      "constant": true,
      "inputs": [
        {
          "name": "",
          "type": "address"
        }
      ],
      "name": "relayer",
      "outputs": [
        {
          "name": "nonce",
          "type": "uint256"
        }
      ],
      "payable": false,
      "stateMutability": "view",
      "type": "function"
    },
    {
      "inputs": [
        {
          "name": "_registry",
          "type": "address"
        },
        {
          "name": "_guardianStorage",
          "type": "address"
        },
        {
          "name": "_lockPeriod",
          "type": "uint256"
        }
      ],
      "payable": false,
      "stateMutability": "nonpayable",
      "type": "constructor"
    },
    {
      "anonymous": false,
      "inputs": [
        {
          "indexed": true,
          "name": "wallet",
          "type": "address"
        },
        {
          "indexed": false,
          "name": "releaseAfter",
          "type": "uint64"
        }
      ],
      "name": "Locked",
      "type": "event"
    },
    {
      "anonymous": false,
      "inputs": [
        {
          "indexed": true,
          "name": "wallet",
          "type": "address"
        }
      ],
      "name": "Unlocked",
      "type": "event"
    },
    {
      "anonymous": false,
      "inputs": [
        {
          "indexed": true,
          "name": "wallet",
          "type": "address"
        },
        {
          "indexed": true,
          "name": "success",
          "type": "bool"
        },
        {
          "indexed": false,
          "name": "signedHash",
          "type": "bytes32"
        }
      ],
      "name": "TransactionExecuted",
      "type": "event"
    },
    {
      "anonymous": false,
      "inputs": [
        {
          "indexed": false,
          "name": "name",
          "type": "bytes32"
        }
      ],
      "name": "ModuleCreated",
      "type": "event"
    },
    {
      "anonymous": false,
      "inputs": [
        {
          "indexed": false,
          "name": "wallet",
          "type": "address"
        }
      ],
      "name": "ModuleInitialised",
      "type": "event"
    },
    {
      "constant": false,
      "inputs": [
        {
          "name": "_wallet",
          "type": "address"
        }
      ],
      "name": "lock",
      "outputs": [],
      "payable": false,
      "stateMutability": "nonpayable",
      "type": "function"
    },
    {
      "constant": false,
      "inputs": [
        {
          "name": "_wallet",
          "type": "address"
        }
      ],
      "name": "unlock",
      "outputs": [],
      "payable": false,
      "stateMutability": "nonpayable",
      "type": "function"
    },
    {
      "constant": true,
      "inputs": [
        {
          "name": "_wallet",
          "type": "address"
        }
      ],
      "name": "getLock",
      "outputs": [
        {
          "name": "_releaseAfter",
          "type": "uint64"
        }
      ],
      "payable": false,
      "stateMutability": "view",
      "type": "function"
    },
    {
      "constant": true,
      "inputs": [
        {
          "name": "_wallet",
          "type": "address"
        }
      ],
      "name": "isLocked",
      "outputs": [
        {
          "name": "_isLocked",
          "type": "bool"
        }
      ],
      "payable": false,
      "stateMutability": "view",
      "type": "function"
    }
  ],
  "bytecode": "0x608060405234801561001057600080fd5b50604051606080611df98339810180604052606081101561003057600080fd5b50805160208083015160409384015160008054600160a060020a03808716600160a060020a031992831617909255600180549285169290911691909117905584517f4c6f636b4d616e6167657200000000000000000000000000000000000000000080825295519495929491938693869390927f3019c8fc80239e3dff8f781212ae2004839c2cb61d6c70acd279ac65392145df92908290030190a15050506003555050611d16806100e36000396000f3fe608060405234801561001057600080fd5b50600436106100c6576000357c0100000000000000000000000000000000000000000000000000000000900480635a1db8c41161008e5780635a1db8c4146101935780636b9db4e6146101c15780639be65a6014610204578063aacaaf881461022a578063c9b5ef8e14610306578063f435f5a71461032c576100c6565b806319ab453c146100cb5780632d0335ab146100f35780632f6c493c1461012b5780633fd8b02f146101515780634a4fbeec14610159575b600080fd5b6100f1600480360360208110156100e157600080fd5b5035600160a060020a0316610352565b005b6101196004803603602081101561010957600080fd5b5035600160a060020a03166103f3565b60408051918252519081900360200190f35b6100f16004803603602081101561014157600080fd5b5035600160a060020a031661040e565b6101196107fe565b61017f6004803603602081101561016f57600080fd5b5035600160a060020a0316610804565b604080519115158252519081900360200190f35b6100f1600480360360408110156101a957600080fd5b50600160a060020a03813581169160200135166108a0565b6101e7600480360360208110156101d757600080fd5b5035600160a060020a0316610a5b565b6040805167ffffffffffffffff9092168252519081900360200190f35b6100f16004803603602081101561021a57600080fd5b5035600160a060020a0316610b03565b61017f600480360360c081101561024057600080fd5b600160a060020a03823516919081019060408101602082013564010000000081111561026b57600080fd5b82018360208201111561027d57600080fd5b8035906020019184600183028401116401000000008311171561029f57600080fd5b919390928235926040810190602001356401000000008111156102c157600080fd5b8201836020820111156102d357600080fd5b803590602001918460018302840111640100000000831117156102f557600080fd5b919350915080359060200135610c36565b6101196004803603602081101561031c57600080fd5b5035600160a060020a0316610f14565b6100f16004803603602081101561034257600080fd5b5035600160a060020a0316610f26565b8033600160a060020a038216146103b3576040805160e560020a62461bcd02815260206004820152601960248201527f424d3a2063616c6c6572206d7573742062652077616c6c657400000000000000604482015290519081900360640190fd5b60408051600160a060020a038416815290517f9fcca3f73f85397e2bf03647abf243c20b753bd54463ff3cae74de2971c112fa9181900360200190a15050565b600160a060020a031660009081526002602052604090205490565b600154604080517ff18858ab000000000000000000000000000000000000000000000000000000008152600160a060020a0380851660048301529151849360009361050e9391169163f18858ab916024808201928792909190829003018186803b15801561047b57600080fd5b505afa15801561048f573d6000803e3d6000fd5b505050506040513d6000823e601f3d908101601f1916820160405260208110156104b857600080fd5b8101908080516401000000008111156104d057600080fd5b820160208101848111156104e357600080fd5b815185602082028301116401000000008211171561050057600080fd5b5050929190505050336111cb565b5090503330148061051c5750805b1515610572576040805160e560020a62461bcd02815260206004820152601b60248201527f47443a2077616c6c6574206d75737420626520756e6c6f636b65640000000000604482015290519081900360640190fd5b600154604080517f4a4fbeec000000000000000000000000000000000000000000000000000000008152600160a060020a038087166004830152915186939290921691634a4fbeec91602480820192602092909190829003018186803b1580156105db57600080fd5b505afa1580156105ef573d6000803e3d6000fd5b505050506040513d602081101561060557600080fd5b5051151561065d576040805160e560020a62461bcd02815260206004820152601960248201527f47443a2077616c6c6574206d757374206265206c6f636b656400000000000000604482015290519081900360640190fd5b600154604080517f919884bf000000000000000000000000000000000000000000000000000000008152600160a060020a0387811660048301529151600093929092169163919884bf91602480820192602092909190829003018186803b1580156106c757600080fd5b505afa1580156106db573d6000803e3d6000fd5b505050506040513d60208110156106f157600080fd5b50519050600160a060020a038116301461073f5760405160e560020a62461bcd02815260040180806020018281038252603c815260200180611caf603c913960400191505060405180910390fd5b600154604080517fb0fc29e6000000000000000000000000000000000000000000000000000000008152600160a060020a038881166004830152600060248301819052925193169263b0fc29e69260448084019391929182900301818387803b1580156107ab57600080fd5b505af11580156107bf573d6000803e3d6000fd5b5050604051600160a060020a03881692507f7e6adfec7e3f286831a0200a754127c171a2da564078722cb97704741bbdb0ea9150600090a25050505050565b60035481565b600154604080517f4a4fbeec000000000000000000000000000000000000000000000000000000008152600160a060020a03848116600483015291516000939290921691634a4fbeec91602480820192602092909190829003018186803b15801561086e57600080fd5b505afa158015610882573d6000803e3d6000fd5b505050506040513d602081101561089857600080fd5b505192915050565b816108ab8133611348565b15156108eb5760405160e560020a62461bcd02815260040180806020018281038252602e815260200180611c81602e913960400191505060405180910390fd5b600054604080517f0bcd4ebb000000000000000000000000000000000000000000000000000000008152600160a060020a03858116600483015291519190921691630bcd4ebb916024808301926020929190829003018186803b15801561095157600080fd5b505afa158015610965573d6000803e3d6000fd5b505050506040513d602081101561097b57600080fd5b505115156109d3576040805160e560020a62461bcd02815260206004820152601c60248201527f424d3a206d6f64756c65206973206e6f74207265676973746572656400000000604482015290519081900360640190fd5b604080517f1f17732d000000000000000000000000000000000000000000000000000000008152600160a060020a03848116600483015260016024830152915191851691631f17732d9160448082019260009290919082900301818387803b158015610a3e57600080fd5b505af1158015610a52573d6000803e3d6000fd5b50505050505050565b600154604080517f6b9db4e6000000000000000000000000000000000000000000000000000000008152600160a060020a038481166004830152915160009384931691636b9db4e6916024808301926020929190829003018186803b158015610ac357600080fd5b505afa158015610ad7573d6000803e3d6000fd5b505050506040513d6020811015610aed57600080fd5b5051905042811115610afd578091505b50919050565b604080517f70a082310000000000000000000000000000000000000000000000000000000081523060048201529051600091600160a060020a038416916370a0823191602480820192602092909190829003018186803b158015610b6657600080fd5b505afa158015610b7a573d6000803e3d6000fd5b505050506040513d6020811015610b9057600080fd5b505160008054604080517fa9059cbb000000000000000000000000000000000000000000000000000000008152600160a060020a0392831660048201526024810185905290519394509085169263a9059cbb92604480840193602093929083900390910190829087803b158015610c0657600080fd5b505af1158015610c1a573d6000803e3d6000fd5b505050506040513d6020811015610c3057600080fd5b50505050565b6000805a90506000610c86308c60008d8d8080601f0160208091040260200160405190810160405280939291908181526020018383808284376000920191909152508f92508c91508b90506113e8565b9050610c938b898361152b565b1515610ce9576040805160e560020a62461bcd02815260206004820152601560248201527f524d3a204475706c696361746520726571756573740000000000000000000000604482015290519081900360640190fd5b610d298b8b8b8080601f01602080910402602001604051908101604052809392919081815260200183838082843760009201919091525061153f92505050565b1515610d695760405160e560020a62461bcd02815260040180806020018281038252604a815260200180611c37604a913960600191505060405180910390fd5b6000610dab8c8c8c8080601f0160208091040260200160405190810160405280939291908181526020018383808284376000920191909152506115b392505050565b905060418102871415610ec357610dc48c8688846115bb565b15610ec357801580610e475750610e478c8c8c8080601f01602080910402602001604051908101604052809392919081815260200183838082843760009201919091525050604080516020601f8f018190048102820181019092528d815288935091508d908d908190840183828082843760009201919091525061168d92505050565b15610ec35730600160a060020a03168b8b604051808383808284376040519201945060009350909150508083038183865af19150503d8060008114610ea8576040519150601f19603f3d011682016040523d82523d6000602084013e610ead565b606091505b505080945050610ec38c5a8503888885336117a3565b60408051838152905185151591600160a060020a038f16917f6bb0b384ce772133df63560651bc8c727c53306cec1d51e2cbf8ea35fb8f2ec19181900360200190a350505098975050505050505050565b60026020526000908152604090205481565b600154604080517ff18858ab000000000000000000000000000000000000000000000000000000008152600160a060020a03808516600483015291518493600093610f939391169163f18858ab916024808201928792909190829003018186803b15801561047b57600080fd5b50905033301480610fa15750805b1515610ff7576040805160e560020a62461bcd02815260206004820152601b60248201527f47443a2077616c6c6574206d75737420626520756e6c6f636b65640000000000604482015290519081900360640190fd5b600154604080517f4a4fbeec000000000000000000000000000000000000000000000000000000008152600160a060020a038087166004830152915186939290921691634a4fbeec91602480820192602092909190829003018186803b15801561106057600080fd5b505afa158015611074573d6000803e3d6000fd5b505050506040513d602081101561108a57600080fd5b5051156110e1576040805160e560020a62461bcd02815260206004820152601b60248201527f424d3a2077616c6c6574206d75737420626520756e6c6f636b65640000000000604482015290519081900360640190fd5b600154600354604080517fb0fc29e6000000000000000000000000000000000000000000000000000000008152600160a060020a0388811660048301524290930160248201529051919092169163b0fc29e691604480830192600092919082900301818387803b15801561115457600080fd5b505af1158015611168573d6000803e3d6000fd5b5050505083600160a060020a03167f6395bace6e0acbe4f22761b149d3cc2e88c7dde6bf4d8481825eef404cf989a16003544201604051808267ffffffffffffffff1667ffffffffffffffff16815260200191505060405180910390a250505050565b600060608351600014806111e65750600160a060020a038316155b156111f657506000905082611341565b60008090506060600186510360405190808252806020026020018201604052801561122b578160200160208202803883390190505b5090506000805b8751811015611327578315156112d257878181518110151561125057fe5b90602001906020020151600160a060020a031687600160a060020a0316141561127c576001935061131f565b61129c888281518110151561128d57fe5b90602001906020020151611801565b80156112c457506112c488828151811015156112b457fe5b906020019060200201518861180f565b156112d2576001935061131f565b825182101561131f5787818151811015156112e957fe5b90602001906020020151838381518110151561130157fe5b600160a060020a039092166020928302909101909101526001909101905b600101611232565b508261133557600087611339565b6001825b945094505050505b9250929050565b600081600160a060020a031683600160a060020a0316638da5cb5b6040518163ffffffff167c010000000000000000000000000000000000000000000000000000000002815260040160206040518083038186803b1580156113a957600080fd5b505afa1580156113bd573d6000803e3d6000fd5b505050506040513d60208110156113d357600080fd5b5051600160a060020a03161490505b92915050565b6040517f190000000000000000000000000000000000000000000000000000000000000060208083018281526000602185018190526c01000000000000000000000000600160a060020a03808e16820260228801528c16026036860152604a85018a90528851909485938d938d938d938d938d938d938d939192606a909201918701908083835b6020831061148e5780518252601f19909201916020918201910161146f565b51815160209384036101000a600019018019909216911617905292019586525084810193909352506040808401919091528051808403820181526060840182528051908301207f19457468657265756d205369676e6564204d6573736167653a0a3332000000006080850152609c808501919091528151808503909101815260bc909301905281519101209e9d5050505050505050505050505050565b60006115378484611883565b949350505050565b6000602482511015151561159d576040805160e560020a62461bcd02815260206004820152601660248201527f524d3a20496e76616c6964206461746157616c6c657400000000000000000000604482015290519081900360640190fd5b5060240151600160a060020a0391821691161490565b600192915050565b600080831180156115cc5750600182115b8015611675575082840285600160a060020a03163110806116755750604080517fd6eb1bbf0000000000000000000000000000000000000000000000000000000081523060048201529051600160a060020a0387169163d6eb1bbf916024808301926020929190829003018186803b15801561164757600080fd5b505afa15801561165b573d6000803e3d6000fd5b505050506040513d602081101561167157600080fd5b5051155b1561168257506000611537565b506001949350505050565b600154604080517ff18858ab000000000000000000000000000000000000000000000000000000008152600160a060020a038781166004830152915160009384936117989391169163f18858ab916024808201928792909190829003018186803b1580156116fa57600080fd5b505afa15801561170e573d6000803e3d6000fd5b505050506040513d6000823e601f3d908101601f19168201604052602081101561173757600080fd5b81019080805164010000000081111561174f57600080fd5b8201602081018481111561176257600080fd5b815185602082028301116401000000008211171561177f57600080fd5b505092919050505061179386866000611909565b6111cb565b509695505050505050565b61726c85016000851180156117b85750600183115b80156117c45750838111155b15610a52573a8511156117d8573a026117db565b84025b6117f787838360206040519081016040528060008152506119b3565b5050505050505050565b6000903b63ffffffff161190565b604080517f6f776e657228290000000000000000000000000000000000000000000000000081529051908190036007018120808252600091829190602081818189611388fa600181141561186257815193505b505083600160a060020a031682600160a060020a0316149250505092915050565b600160a060020a03821660009081526002602052604081205482116118aa575060006113e2565b7001000000000000000000000000000000006fffffffffffffffffffffffffffffffff1983160443612710018111156118e75760009150506113e2565b5050600160a060020a0391909116600090815260026020526040902055600190565b6041808202830160208101516040820151919092015160009260ff9190911691601b83148061193b57508260ff16601c145b151561194657600080fd5b604080516000815260208082018084528a905260ff8616828401526060820185905260808201849052915160019260a0808401939192601f1981019281900390910190855afa15801561199d573d6000803e3d6000fd5b5050604051601f19015198975050505050505050565b6060600085600160a060020a03168585856040516024018084600160a060020a0316600160a060020a0316815260200183815260200180602001828103825283818151815260200191508051906020019080838360005b83811015611a22578181015183820152602001611a0a565b50505050905090810190601f168015611a4f5780820380516001836020036101000a031916815260200191505b5060408051601f198184030181529181526020820180517bffffffffffffffffffffffffffffffffffffffffffffffffffffffff167f8f6f033200000000000000000000000000000000000000000000000000000000178152905182519297509550859450925090508083835b60208310611adb5780518252601f199092019160209182019101611abc565b6001836020036101000a0380198251168184511680821785525050505050509050019150506000604051808303816000865af19150503d8060008114611b3d576040519150601f19603f3d011682016040523d82523d6000602084013e611b42565b606091505b5092509050808015611b55575060008251115b15611bc257818060200190516020811015611b6f57600080fd5b810190808051640100000000811115611b8757600080fd5b82016020810184811115611b9a57600080fd5b8151640100000000811182820187101715611bb457600080fd5b50909550611c2d9350505050565b600082511115611bd6573d6000803e3d6000fd5b801515611c2d576040805160e560020a62461bcd02815260206004820152601a60248201527f424d3a2077616c6c657420696e766f6b65207265766572746564000000000000604482015290519081900360640190fd5b5094935050505056fe524d3a207468652077616c6c657420617574686f72697a656420697320646966666572656e74207468656e2074686520746172676574206f66207468652072656c617965642064617461424d3a206d73672e73656e646572206d75737420626520616e206f776e657220666f72207468652077616c6c65744c4d3a2063616e6e6f7420756e6c6f636b20612077616c6c6574207468617420776173206c6f636b656420627920616e6f74686572206d6f64756c65a165627a7a7230582018b16ec67602ec5135e408b032d13621ad725309ccf3d880f3bff8b61d3be8490029",
  "source": "pragma solidity ^0.5.4;\nimport \"../wallet/BaseWallet.sol\";\nimport \"./common/BaseModule.sol\";\nimport \"./common/RelayerModule.sol\";\nimport \"../utils/GuardianUtils.sol\";\n\n/**\n * @title LockManager\n * @dev Module to manage the state of a wallet's lock.\n * Other modules can use the state of the lock to determine if their operations \n * should be authorised or blocked. Only the guardians of a wallet can lock and unlock it. \n * The lock automatically unlocks after a given period. The lock state is stored on a saparate\n * contract to facilitate its use by other modules.\n * @author Julien Niset - <julien@argent.im>\n * @author Olivier Van Den Biggelaar - <olivier@argent.im>\n */\ncontract LockManager is BaseModule, RelayerModule {\n\n    bytes32 constant NAME = \"LockManager\";\n\n    // The lock period\n    uint256 public lockPeriod;\n\n    // *************** Events *************************** //\n\n    event Locked(address indexed wallet, uint64 releaseAfter);\n    event Unlocked(address indexed wallet);\n    \n    // *************** Modifiers ************************ //\n\n    /**\n     * @dev Throws if the wallet is not locked.\n     */\n    modifier onlyWhenLocked(BaseWallet _wallet) {\n        // solium-disable-next-line security/no-block-members\n        require(guardianStorage.isLocked(_wallet), \"GD: wallet must be locked\");\n        _;\n    }\n\n    /**\n     * @dev Throws if the caller is not a guardian for the wallet.\n     */\n    modifier onlyGuardian(BaseWallet _wallet) {\n        (bool isGuardian, ) = GuardianUtils.isGuardian(guardianStorage.getGuardians(_wallet), msg.sender);\n        require(msg.sender == address(this) || isGuardian, \"GD: wallet must be unlocked\");\n        _;\n    }\n\n    // *************** Constructor ************************ //\n\n    constructor(\n        ModuleRegistry _registry,\n        GuardianStorage _guardianStorage,\n        uint256 _lockPeriod\n    )\n        BaseModule(_registry, _guardianStorage, NAME) public {\n        lockPeriod = _lockPeriod;\n    }\n\n    // *************** External functions ************************ //\n\n    /**\n     * @dev Lets a guardian lock a wallet.\n     * @param _wallet The target wallet.\n     */\n    function lock(BaseWallet _wallet) external onlyGuardian(_wallet) onlyWhenUnlocked(_wallet) {\n        guardianStorage.setLock(_wallet, now + lockPeriod);\n        emit Locked(address(_wallet), uint64(now + lockPeriod));\n    }\n\n    /**\n     * @dev Lets a guardian unlock a locked wallet.\n     * @param _wallet The target wallet.\n     */\n    function unlock(BaseWallet _wallet) external onlyGuardian(_wallet) onlyWhenLocked(_wallet) {\n        address locker = guardianStorage.getLocker(_wallet);\n        require(locker == address(this), \"LM: cannot unlock a wallet that was locked by another module\");\n        guardianStorage.setLock(_wallet, 0);\n        emit Unlocked(address(_wallet));\n    }\n\n    /**\n     * @dev Returns the release time of a wallet lock or 0 if the wallet is unlocked.\n     * @param _wallet The target wallet.\n     * @return The epoch time at which the lock will release (in seconds).\n     */\n    function getLock(BaseWallet _wallet) public view returns(uint64 _releaseAfter) {\n        uint256 lockEnd = guardianStorage.getLock(_wallet);\n        if(lockEnd > now) {\n            _releaseAfter = uint64(lockEnd);\n        }\n    }\n\n    /**\n     * @dev Checks if a wallet is locked.\n     * @param _wallet The target wallet.\n     * @return true if the wallet is locked.\n     */\n    function isLocked(BaseWallet _wallet) external view returns (bool _isLocked) {\n        return guardianStorage.isLocked(_wallet);\n    }\n\n    // *************** Implementation of RelayerModule methods ********************* //\n\n    // Overrides to use the incremental nonce and save some gas\n    function checkAndUpdateUniqueness(BaseWallet _wallet, uint256 _nonce, bytes32 /* _signHash */) internal returns (bool) {\n        return checkAndUpdateNonce(_wallet, _nonce);\n    }\n\n    function validateSignatures(\n        BaseWallet _wallet,\n        bytes memory /* _data */,\n        bytes32 _signHash,\n        bytes memory _signatures\n    )\n        internal\n        view\n        returns (bool)\n    {\n        (bool isGuardian, ) = GuardianUtils.isGuardian(guardianStorage.getGuardians(_wallet), recoverSigner(_signHash, _signatures, 0));\n        return isGuardian; // \"LM: must be a guardian to lock or unlock\"\n    }\n\n    function getRequiredSignatures(BaseWallet /* _wallet */, bytes memory /* _data */) internal view returns (uint256) {\n        return 1;\n    }\n}",
  "sourcePath": "/home/amxx/Work/Argent/argent-contracts/contracts/modules/LockManager.sol",
  "compiler": {
    "name": "solc",
    "version": "0.5.4+commit.9549d8ff.Emscripten.clang",
    "optimizer": true,
    "runs": 200
  },
  "schemaVersion": "2.2.4",
  "updatedAt": "2020-02-29T16:28:22.481Z"
}