{
  "contractName": "MakerV2Manager",
  "abi": [
    {
      "constant": false,
      "inputs": [
        {
          "name": "_wallet",
          "type": "address"
        }
      ],
      "name": "init",
      "outputs": [],
      "payable": false,
      "stateMutability": "nonpayable",
      "type": "function"
    },
    {
      "constant": true,
      "inputs": [
        {
          "name": "_wallet",
          "type": "address"
        }
      ],
      "name": "getNonce",
      "outputs": [
        {
          "name": "nonce",
          "type": "uint256"
        }
      ],
      "payable": false,
      "stateMutability": "view",
      "type": "function"
    },
    {
      "constant": true,
      "inputs": [],
      "name": "vat",
      "outputs": [
        {
          "name": "",
          "type": "address"
        }
      ],
      "payable": false,
      "stateMutability": "view",
      "type": "function"
    },
    {
      "constant": true,
      "inputs": [],
      "name": "pot",
      "outputs": [
        {
          "name": "",
          "type": "address"
        }
      ],
      "payable": false,
      "stateMutability": "view",
      "type": "function"
    },
    {
      "constant": false,
      "inputs": [
        {
          "name": "_wallet",
          "type": "address"
        },
        {
          "name": "_module",
          "type": "address"
        }
      ],
      "name": "addModule",
      "outputs": [],
      "payable": false,
      "stateMutability": "nonpayable",
      "type": "function"
    },
    {
      "constant": false,
      "inputs": [
        {
          "name": "_token",
          "type": "address"
        }
      ],
      "name": "recoverToken",
      "outputs": [],
      "payable": false,
      "stateMutability": "nonpayable",
      "type": "function"
    },
    {
      "constant": true,
      "inputs": [],
      "name": "saiToken",
      "outputs": [
        {
          "name": "",
          "type": "address"
        }
      ],
      "payable": false,
      "stateMutability": "view",
      "type": "function"
    },
    {
      "constant": false,
      "inputs": [
        {
          "name": "_wallet",
          "type": "address"
        },
        {
          "name": "_data",
          "type": "bytes"
        },
        {
          "name": "_nonce",
          "type": "uint256"
        },
        {
          "name": "_signatures",
          "type": "bytes"
        },
        {
          "name": "_gasPrice",
          "type": "uint256"
        },
        {
          "name": "_gasLimit",
          "type": "uint256"
        }
      ],
      "name": "execute",
      "outputs": [
        {
          "name": "success",
          "type": "bool"
        }
      ],
      "payable": false,
      "stateMutability": "nonpayable",
      "type": "function"
    },
    {
      "constant": true,
      "inputs": [],
      "name": "daiToken",
      "outputs": [
        {
          "name": "",
          "type": "address"
        }
      ],
      "payable": false,
      "stateMutability": "view",
      "type": "function"
    },
    {
      "constant": true,
      "inputs": [],
      "name": "daiJoin",
      "outputs": [
        {
          "name": "",
          "type": "address"
        }
      ],
      "payable": false,
      "stateMutability": "view",
      "type": "function"
    },
    {
      "constant": true,
      "inputs": [
        {
          "name": "",
          "type": "address"
        }
      ],
      "name": "relayer",
      "outputs": [
        {
          "name": "nonce",
          "type": "uint256"
        }
      ],
      "payable": false,
      "stateMutability": "view",
      "type": "function"
    },
    {
      "constant": true,
      "inputs": [],
      "name": "isOnlyOwnerModule",
      "outputs": [
        {
          "name": "",
          "type": "bytes4"
        }
      ],
      "payable": false,
      "stateMutability": "pure",
      "type": "function"
    },
    {
      "constant": true,
      "inputs": [],
      "name": "scdMcdMigration",
      "outputs": [
        {
          "name": "",
          "type": "address"
        }
      ],
      "payable": false,
      "stateMutability": "view",
      "type": "function"
    },
    {
      "inputs": [
        {
          "name": "_registry",
          "type": "address"
        },
        {
          "name": "_guardianStorage",
          "type": "address"
        },
        {
          "name": "_scdMcdMigration",
          "type": "address"
        },
        {
          "name": "_pot",
          "type": "address"
        }
      ],
      "payable": false,
      "stateMutability": "nonpayable",
      "type": "constructor"
    },
    {
      "anonymous": false,
      "inputs": [
        {
          "indexed": true,
          "name": "_wallet",
          "type": "address"
        },
        {
          "indexed": false,
          "name": "_srcToken",
          "type": "address"
        },
        {
          "indexed": false,
          "name": "_srcAmount",
          "type": "uint256"
        },
        {
          "indexed": false,
          "name": "_destToken",
          "type": "address"
        },
        {
          "indexed": false,
          "name": "_destAmount",
          "type": "uint256"
        }
      ],
      "name": "TokenConverted",
      "type": "event"
    },
    {
      "anonymous": false,
      "inputs": [
        {
          "indexed": true,
          "name": "wallet",
          "type": "address"
        },
        {
          "indexed": true,
          "name": "success",
          "type": "bool"
        },
        {
          "indexed": false,
          "name": "signedHash",
          "type": "bytes32"
        }
      ],
      "name": "TransactionExecuted",
      "type": "event"
    },
    {
      "anonymous": false,
      "inputs": [
        {
          "indexed": false,
          "name": "name",
          "type": "bytes32"
        }
      ],
      "name": "ModuleCreated",
      "type": "event"
    },
    {
      "anonymous": false,
      "inputs": [
        {
          "indexed": false,
          "name": "wallet",
          "type": "address"
        }
      ],
      "name": "ModuleInitialised",
      "type": "event"
    },
    {
      "anonymous": false,
      "inputs": [
        {
          "indexed": true,
          "name": "_wallet",
          "type": "address"
        },
        {
          "indexed": false,
          "name": "_token",
          "type": "address"
        },
        {
          "indexed": false,
          "name": "_invested",
          "type": "uint256"
        },
        {
          "indexed": false,
          "name": "_period",
          "type": "uint256"
        }
      ],
      "name": "InvestmentAdded",
      "type": "event"
    },
    {
      "anonymous": false,
      "inputs": [
        {
          "indexed": true,
          "name": "_wallet",
          "type": "address"
        },
        {
          "indexed": false,
          "name": "_token",
          "type": "address"
        },
        {
          "indexed": false,
          "name": "_fraction",
          "type": "uint256"
        }
      ],
      "name": "InvestmentRemoved",
      "type": "event"
    },
    {
      "constant": false,
      "inputs": [
        {
          "name": "_wallet",
          "type": "address"
        },
        {
          "name": "_token",
          "type": "address"
        },
        {
          "name": "_amount",
          "type": "uint256"
        },
        {
          "name": "_period",
          "type": "uint256"
        }
      ],
      "name": "addInvestment",
      "outputs": [
        {
          "name": "_invested",
          "type": "uint256"
        }
      ],
      "payable": false,
      "stateMutability": "nonpayable",
      "type": "function"
    },
    {
      "constant": false,
      "inputs": [
        {
          "name": "_wallet",
          "type": "address"
        },
        {
          "name": "_token",
          "type": "address"
        },
        {
          "name": "_fraction",
          "type": "uint256"
        }
      ],
      "name": "removeInvestment",
      "outputs": [],
      "payable": false,
      "stateMutability": "nonpayable",
      "type": "function"
    },
    {
      "constant": true,
      "inputs": [
        {
          "name": "_wallet",
          "type": "address"
        },
        {
          "name": "_token",
          "type": "address"
        }
      ],
      "name": "getInvestment",
      "outputs": [
        {
          "name": "_tokenValue",
          "type": "uint256"
        },
        {
          "name": "_periodEnd",
          "type": "uint256"
        }
      ],
      "payable": false,
      "stateMutability": "view",
      "type": "function"
    },
    {
      "constant": true,
      "inputs": [
        {
          "name": "_wallet",
          "type": "address"
        }
      ],
      "name": "dsrBalance",
      "outputs": [
        {
          "name": "",
          "type": "uint256"
        }
      ],
      "payable": false,
      "stateMutability": "view",
      "type": "function"
    },
    {
      "constant": false,
      "inputs": [
        {
          "name": "_wallet",
          "type": "address"
        },
        {
          "name": "_amount",
          "type": "uint256"
        }
      ],
      "name": "joinDsr",
      "outputs": [],
      "payable": false,
      "stateMutability": "nonpayable",
      "type": "function"
    },
    {
      "constant": false,
      "inputs": [
        {
          "name": "_wallet",
          "type": "address"
        },
        {
          "name": "_amount",
          "type": "uint256"
        }
      ],
      "name": "exitDsr",
      "outputs": [],
      "payable": false,
      "stateMutability": "nonpayable",
      "type": "function"
    },
    {
      "constant": false,
      "inputs": [
        {
          "name": "_wallet",
          "type": "address"
        }
      ],
      "name": "exitAllDsr",
      "outputs": [],
      "payable": false,
      "stateMutability": "nonpayable",
      "type": "function"
    },
    {
      "constant": false,
      "inputs": [
        {
          "name": "_wallet",
          "type": "address"
        },
        {
          "name": "_amount",
          "type": "uint256"
        }
      ],
      "name": "swapSaiToDai",
      "outputs": [],
      "payable": false,
      "stateMutability": "nonpayable",
      "type": "function"
    },
    {
      "constant": false,
      "inputs": [
        {
          "name": "_wallet",
          "type": "address"
        },
        {
          "name": "_amount",
          "type": "uint256"
        }
      ],
      "name": "swapDaiToSai",
      "outputs": [],
      "payable": false,
      "stateMutability": "nonpayable",
      "type": "function"
    }
  ],
  "bytecode": "0x60806040523480156200001157600080fd5b506040516080806200336e833981018060405260808110156200003357600080fd5b50805160208083015160408085015160609095015160008054600160a060020a03808816600160a060020a031992831617909255600180549286169290911691909117905581517f4d616b657256324d616e61676572000000000000000000000000000000000000808252925195969395939491938793879390927f3019c8fc80239e3dff8f781212ae2004839c2cb61d6c70acd279ac65392145df929081900390910190a1505060058054600160a060020a031916600160a060020a038516908117909155604080517f0b14408f0000000000000000000000000000000000000000000000000000000081529051919250630b14408f916004808301926020929190829003018186803b1580156200014b57600080fd5b505afa15801562000160573d6000803e3d6000fd5b505050506040513d60208110156200017757600080fd5b5051604080517f7bd2bea70000000000000000000000000000000000000000000000000000000081529051600160a060020a0390921691637bd2bea7916004808201926020929091908290030181600087803b158015620001d757600080fd5b505af1158015620001ec573d6000803e3d6000fd5b505050506040513d60208110156200020357600080fd5b505160038054600160a060020a031916600160a060020a03928316179055604080517fc11645bc00000000000000000000000000000000000000000000000000000000815290519184169163c11645bc91600480820192602092909190829003018186803b1580156200027557600080fd5b505afa1580156200028a573d6000803e3d6000fd5b505050506040513d6020811015620002a157600080fd5b505160078054600160a060020a031916600160a060020a039283161790819055604080517f36569e77000000000000000000000000000000000000000000000000000000008152905191909216916336569e77916004808301926020929190829003018186803b1580156200031557600080fd5b505afa1580156200032a573d6000803e3d6000fd5b505050506040513d60208110156200034157600080fd5b505160088054600160a060020a031916600160a060020a03928316179055600754604080517ff4b9fa750000000000000000000000000000000000000000000000000000000081529051919092169163f4b9fa759160048083019260209291908290030181600087803b158015620003b857600080fd5b505af1158015620003cd573d6000803e3d6000fd5b505050506040513d6020811015620003e457600080fd5b505160048054600160a060020a03928316600160a060020a03199182161790915560068054939092169216919091179055505050612f4680620004286000396000f3fe608060405234801561001057600080fd5b50600436106101465760003560e060020a900480639be65a60116100bc578063c11645bc11610080578063c11645bc1461045d578063c9b5ef8e14610465578063cac7495c1461048b578063d490da4d146104d2578063d9b6ccbf146104f7578063ec9e13aa146104ff57610146565b80639be65a6014610311578063a30184de14610337578063aacaaf881461033f578063ae8d24681461042f578063be22f5461461045557610146565b806336569e771161010e57806336569e77146102295780634ba2363a1461024d5780635a1db8c4146102555780638c544246146102835780638d3e0a69146102af57806398d53428146102db57610146565b80630227efa21461014b57806319ab453c14610179578063288596a61461019f5780632c5ba768146101cb5780632d0335ab146101f1575b600080fd5b6101776004803603604081101561016157600080fd5b50600160a060020a03813516906020013561053b565b005b6101776004803603602081101561018f57600080fd5b5035600160a060020a0316610a9a565b610177600480360360408110156101b557600080fd5b50600160a060020a038135169060200135610b3b565b610177600480360360208110156101e157600080fd5b5035600160a060020a0316610ea9565b6102176004803603602081101561020757600080fd5b5035600160a060020a03166113c6565b60408051918252519081900360200190f35b6102316113e1565b60408051600160a060020a039092168252519081900360200190f35b6102316113f0565b6101776004803603604081101561026b57600080fd5b50600160a060020a03813581169160200135166113ff565b6101776004803603604081101561029957600080fd5b50600160a060020a0381351690602001356115c3565b610177600480360360408110156102c557600080fd5b50600160a060020a03813516906020013561192f565b610177600480360360608110156102f157600080fd5b50600160a060020a03813581169160208101359091169060400135611f5b565b6101776004803603602081101561032757600080fd5b5035600160a060020a0316612094565b6102316121b1565b61041b600480360360c081101561035557600080fd5b600160a060020a03823516919081019060408101602082013564010000000081111561038057600080fd5b82018360208201111561039257600080fd5b803590602001918460018302840111640100000000831117156103b457600080fd5b919390928235926040810190602001356401000000008111156103d657600080fd5b8201836020820111156103e857600080fd5b8035906020019184600183028401116401000000008311171561040a57600080fd5b9193509150803590602001356121c0565b604080519115158252519081900360200190f35b6102176004803603602081101561044557600080fd5b5035600160a060020a031661249e565b6102316125b2565b6102316125c1565b6102176004803603602081101561047b57600080fd5b5035600160a060020a03166125d0565b6104b9600480360360408110156104a157600080fd5b50600160a060020a03813581169160200135166125e2565b6040805192835260208301919091528051918290030190f35b6104da612617565b60408051600160e060020a03199092168252519081900360200190f35b61023161263b565b6102176004803603608081101561051557600080fd5b50600160a060020a0381358116916020810135909116906040810135906060013561264a565b813330148061054f575061054f8133612718565b151561058f5760405160e560020a62461bcd028152600401808060200182810382526023815260200180612ef86023913960400191505060405180910390fd5b6001546040805160e260020a631293efbb028152600160a060020a038087166004830152915186939290921691634a4fbeec91602480820192602092909190829003018186803b1580156105e257600080fd5b505afa1580156105f6573d6000803e3d6000fd5b505050506040513d602081101561060c57600080fd5b505115610651576040805160e560020a62461bcd02815260206004820152601b6024820152600080516020612ed8833981519152604482015290519081900360640190fd5b600660009054906101000a9004600160a060020a0316600160a060020a0316639f678cca6040518163ffffffff1660e060020a028152600401600060405180830381600087803b1580156106a457600080fd5b505af11580156106b8573d6000803e3d6000fd5b505050506000600660009054906101000a9004600160a060020a0316600160a060020a031663c92aecc46040518163ffffffff1660e060020a02815260040160206040518083038186803b15801561070f57600080fd5b505afa158015610723573d6000803e3d6000fd5b505050506040513d602081101561073957600080fd5b5051610757856b033b2e3c9fd0803ce800000063ffffffff61279f16565b81151561076057fe5b600654604080517f657869742875696e7432353629000000000000000000000000000000000000008152815190819003600d018120949093046024808501829052825180860390910181526044909401909152602083018051600160e060020a0316600160e060020a0319909516949094179093529192506107f2918791600160a060020a03909116906000906127d1565b50600854600754604080517f4538c4eb000000000000000000000000000000000000000000000000000000008152600160a060020a038981166004830152928316602482015290519190921691634538c4eb916044808301926020929190829003018186803b15801561086457600080fd5b505afa158015610878573d6000803e3d6000fd5b505050506040513d602081101561088e57600080fd5b5051151561092757600854604080517f686f7065286164647265737329000000000000000000000000000000000000008152815190819003600d018120600754600160a060020a03908116602480850191909152845180850390910181526044909301909352602082018051600160e060020a0316600160e060020a031990921691909117905261092592889216906000906127d1565b505b600854604080517f6c25b346000000000000000000000000000000000000000000000000000000008152600160a060020a03888116600483015291516000939290921691636c25b34691602480820192602092909190829003018186803b15801561099157600080fd5b505afa1580156109a5573d6000803e3d6000fd5b505050506040513d60208110156109bb57600080fd5b5051905060006109dd866b033b2e3c9fd0803ce800000063ffffffff61279f16565b8210156109f8576b033b2e3c9fd0803ce800000082046109fa565b855b600754604080517f6578697428616464726573732c75696e7432353629000000000000000000000081528151908190036015018120600160a060020a03808d1660248401526044808401879052845180850390910181526064909301909352602082018051600160e060020a0316600160e060020a0319909216919091179052929350610a90928a9291909116906000906127d1565b5050505050505050565b8033600160a060020a03821614610afb576040805160e560020a62461bcd02815260206004820152601960248201527f424d3a2063616c6c6572206d7573742062652077616c6c657400000000000000604482015290519081900360640190fd5b60408051600160a060020a038416815290517f9fcca3f73f85397e2bf03647abf243c20b753bd54463ff3cae74de2971c112fa9181900360200190a15050565b8133301480610b4f5750610b4f8133612718565b1515610b8f5760405160e560020a62461bcd028152600401808060200182810382526023815260200180612ef86023913960400191505060405180910390fd5b6001546040805160e260020a631293efbb028152600160a060020a038087166004830152915186939290921691634a4fbeec91602480820192602092909190829003018186803b158015610be257600080fd5b505afa158015610bf6573d6000803e3d6000fd5b505050506040513d6020811015610c0c57600080fd5b505115610c51576040805160e560020a62461bcd02815260206004820152601b6024820152600080516020612ed8833981519152604482015290519081900360640190fd5b600480546040805160e060020a6370a08231028152600160a060020a038881169482019490945290518693909216916370a0823191602480820192602092909190829003018186803b158015610ca657600080fd5b505afa158015610cba573d6000803e3d6000fd5b505050506040513d6020811015610cd057600080fd5b50511015610d28576040805160e560020a62461bcd02815260206004820152601460248201527f444d3a20696e73756666696369656e7420444149000000000000000000000000604482015290519081900360640190fd5b600454604080517f617070726f766528616464726573732c75696e7432353629000000000000000081528151908190036018018120600554600160a060020a0390811660248401526044808401899052845180850390910181526064909301909352602082018051600160e060020a0316600160e060020a0319909216919091179052610dbb92879216906000906127d1565b50600554604080517f73776170446169546f5361692875696e74323536290000000000000000000000815281519081900360150181206024808301889052835180840390910181526044909201909252602081018051600160e060020a0316600160e060020a031990931692909217909152610e47918691600160a060020a03909116906000906127d1565b5060045460035460408051600160a060020a03938416815260208101879052918316828201526060820186905251918616917fe0aebc0b49a57880fff1a14cdb8f71331347f88fedf9f4a251ff97b31061d8289181900360800190a250505050565b8033301480610ebd5750610ebd8133612718565b1515610efd5760405160e560020a62461bcd028152600401808060200182810382526023815260200180612ef86023913960400191505060405180910390fd5b6001546040805160e260020a631293efbb028152600160a060020a038086166004830152915185939290921691634a4fbeec91602480820192602092909190829003018186803b158015610f5057600080fd5b505afa158015610f64573d6000803e3d6000fd5b505050506040513d6020811015610f7a57600080fd5b505115610fbf576040805160e560020a62461bcd02815260206004820152601b6024820152600080516020612ed8833981519152604482015290519081900360640190fd5b600660009054906101000a9004600160a060020a0316600160a060020a0316639f678cca6040518163ffffffff1660e060020a028152600401600060405180830381600087803b15801561101257600080fd5b505af1158015611026573d6000803e3d6000fd5b5050600654604080517f0bebac86000000000000000000000000000000000000000000000000000000008152600160a060020a038881166004830152915160009550919092169250630bebac8691602480820192602092909190829003018186803b15801561109457600080fd5b505afa1580156110a8573d6000803e3d6000fd5b505050506040513d60208110156110be57600080fd5b5051600654604080517f657869742875696e7432353629000000000000000000000000000000000000008152815190819003600d0181206024808301869052835180840390910181526044909201909252602081018051600160e060020a0316600160e060020a03199093169290921790915291925061114c918691600160a060020a0316906000906127d1565b50600854600754604080517f4538c4eb000000000000000000000000000000000000000000000000000000008152600160a060020a038881166004830152928316602482015290519190921691634538c4eb916044808301926020929190829003018186803b1580156111be57600080fd5b505afa1580156111d2573d6000803e3d6000fd5b505050506040513d60208110156111e857600080fd5b5051151561128157600854604080517f686f7065286164647265737329000000000000000000000000000000000000008152815190819003600d018120600754600160a060020a03908116602480850191909152845180850390910181526044909301909352602082018051600160e060020a0316600160e060020a031990921691909117905261127f92879216906000906127d1565b505b60006b033b2e3c9fd0803ce800000061131d83600660009054906101000a9004600160a060020a0316600160a060020a031663c92aecc46040518163ffffffff1660e060020a02815260040160206040518083038186803b1580156112e557600080fd5b505afa1580156112f9573d6000803e3d6000fd5b505050506040513d602081101561130f57600080fd5b50519063ffffffff61279f16565b81151561132657fe5b600754604080517f6578697428616464726573732c75696e7432353629000000000000000000000081528151908190036015018120600160a060020a03808c166024840152959094046044808301829052835180840390910181526064909201909252602081018051600160e060020a0316600160e060020a03199095169490941790935293506113be9288929116906000906127d1565b505050505050565b600160a060020a031660009081526002602052604090205490565b600854600160a060020a031681565b600654600160a060020a031681565b813330148061141357506114138133612718565b15156114535760405160e560020a62461bcd028152600401808060200182810382526023815260200180612ef86023913960400191505060405180910390fd5b600054604080517f0bcd4ebb000000000000000000000000000000000000000000000000000000008152600160a060020a03858116600483015291519190921691630bcd4ebb916024808301926020929190829003018186803b1580156114b957600080fd5b505afa1580156114cd573d6000803e3d6000fd5b505050506040513d60208110156114e357600080fd5b5051151561153b576040805160e560020a62461bcd02815260206004820152601c60248201527f424d3a206d6f64756c65206973206e6f74207265676973746572656400000000604482015290519081900360640190fd5b604080517f1f17732d000000000000000000000000000000000000000000000000000000008152600160a060020a03848116600483015260016024830152915191851691631f17732d9160448082019260009290919082900301818387803b1580156115a657600080fd5b505af11580156115ba573d6000803e3d6000fd5b50505050505050565b81333014806115d757506115d78133612718565b15156116175760405160e560020a62461bcd028152600401808060200182810382526023815260200180612ef86023913960400191505060405180910390fd5b6001546040805160e260020a631293efbb028152600160a060020a038087166004830152915186939290921691634a4fbeec91602480820192602092909190829003018186803b15801561166a57600080fd5b505afa15801561167e573d6000803e3d6000fd5b505050506040513d602081101561169457600080fd5b5051156116d9576040805160e560020a62461bcd02815260206004820152601b6024820152600080516020612ed8833981519152604482015290519081900360640190fd5b6003546040805160e060020a6370a08231028152600160a060020a0387811660048301529151869392909216916370a0823191602480820192602092909190829003018186803b15801561172c57600080fd5b505afa158015611740573d6000803e3d6000fd5b505050506040513d602081101561175657600080fd5b505110156117ae576040805160e560020a62461bcd02815260206004820152601460248201527f444d3a20696e73756666696369656e7420534149000000000000000000000000604482015290519081900360640190fd5b600354604080517f617070726f766528616464726573732c75696e7432353629000000000000000081528151908190036018018120600554600160a060020a0390811660248401526044808401899052845180850390910181526064909301909352602082018051600160e060020a0316600160e060020a031990921691909117905261184192879216906000906127d1565b50600554604080517f73776170536169546f4461692875696e74323536290000000000000000000000815281519081900360150181206024808301889052835180840390910181526044909201909252602081018051600160e060020a0316600160e060020a0319909316929092179091526118cd918691600160a060020a03909116906000906127d1565b5060035460045460408051600160a060020a03938416815260208101879052918316828201526060820186905251918616917fe0aebc0b49a57880fff1a14cdb8f71331347f88fedf9f4a251ff97b31061d8289181900360800190a250505050565b813330148061194357506119438133612718565b15156119835760405160e560020a62461bcd028152600401808060200182810382526023815260200180612ef86023913960400191505060405180910390fd5b6001546040805160e260020a631293efbb028152600160a060020a038087166004830152915186939290921691634a4fbeec91602480820192602092909190829003018186803b1580156119d657600080fd5b505afa1580156119ea573d6000803e3d6000fd5b505050506040513d6020811015611a0057600080fd5b505115611a45576040805160e560020a62461bcd02815260206004820152601b6024820152600080516020612ed8833981519152604482015290519081900360640190fd5b600480546040805160e060020a6370a08231028152600160a060020a038881169482019490945290518693909216916370a0823191602480820192602092909190829003018186803b158015611a9a57600080fd5b505afa158015611aae573d6000803e3d6000fd5b505050506040513d6020811015611ac457600080fd5b50511015611b5557600480546040805160e060020a6370a08231028152600160a060020a03808916948201949094529051611b5593889316916370a08231916024808301926020929190829003018186803b158015611b2257600080fd5b505afa158015611b36573d6000803e3d6000fd5b505050506040513d6020811015611b4c57600080fd5b505185036115c3565b600660009054906101000a9004600160a060020a0316600160a060020a0316639f678cca6040518163ffffffff1660e060020a028152600401600060405180830381600087803b158015611ba857600080fd5b505af1158015611bbc573d6000803e3d6000fd5b5050600454604080517f617070726f766528616464726573732c75696e7432353629000000000000000081528151908190036018018120600754600160a060020a03908116602484015260448084018b9052845180850390910181526064909301909352602082018051600160e060020a0316600160e060020a0319909216919091179052611c5494508893509116906000906127d1565b50600754604080517f6a6f696e28616464726573732c75696e7432353629000000000000000000000081528151908190036015018120600160a060020a0380891660248401526044808401899052845180850390910181526064909301909352602082018051600160e060020a0316600160e060020a0319909216919091179052611ce592879216906000906127d1565b50600854600654604080517f4538c4eb000000000000000000000000000000000000000000000000000000008152600160a060020a038881166004830152928316602482015290519190921691634538c4eb916044808301926020929190829003018186803b158015611d5757600080fd5b505afa158015611d6b573d6000803e3d6000fd5b505050506040513d6020811015611d8157600080fd5b50511515611e1a57600854604080517f686f7065286164647265737329000000000000000000000000000000000000008152815190819003600d018120600654600160a060020a03908116602480850191909152845180850390910181526044909301909352602082018051600160e060020a0316600160e060020a0319909216919091179052611e1892879216906000906127d1565b505b600654604080517fc92aecc40000000000000000000000000000000000000000000000000000000081529051600092600160a060020a03169163c92aecc4916004808301926020929190829003018186803b158015611e7857600080fd5b505afa158015611e8c573d6000803e3d6000fd5b505050506040513d6020811015611ea257600080fd5b5051611ec0856b033b2e3c9fd0803ce800000063ffffffff61279f16565b811515611ec957fe5b600654604080517f6a6f696e2875696e7432353629000000000000000000000000000000000000008152815190819003600d018120949093046024808501829052825180860390910181526044909401909152602083018051600160e060020a0316600160e060020a0319909516949094179093529192506113be918791600160a060020a03909116906000906127d1565b600454600160a060020a03838116911614611fc0576040805160e560020a62461bcd02815260206004820152601760248201527f444d3a20746f6b656e2073686f756c6420626520444149000000000000000000604482015290519081900360640190fd5b61271081111561201a576040805160e560020a62461bcd02815260206004820152601a60248201527f444d3a20696e76616c6964206672616374696f6e2076616c7565000000000000604482015290519081900360640190fd5b6120498361271061203a8461202e8861249e565b9063ffffffff61279f16565b81151561204357fe5b0461053b565b60408051600160a060020a038481168252602082018490528251908616927f9aa275f858ea6286ee2cacd32cd2ae55f918a310ee6d0320caad244ee9d6109e928290030190a2505050565b6040805160e060020a6370a082310281523060048201529051600091600160a060020a038416916370a0823191602480820192602092909190829003018186803b1580156120e157600080fd5b505afa1580156120f5573d6000803e3d6000fd5b505050506040513d602081101561210b57600080fd5b505160008054604080517fa9059cbb000000000000000000000000000000000000000000000000000000008152600160a060020a0392831660048201526024810185905290519394509085169263a9059cbb92604480840193602093929083900390910190829087803b15801561218157600080fd5b505af1158015612195573d6000803e3d6000fd5b505050506040513d60208110156121ab57600080fd5b50505050565b600354600160a060020a031681565b6000805a90506000612210308c60008d8d8080601f0160208091040260200160405190810160405280939291908181526020018383808284376000920191909152508f92508c91508b9050612a3f565b905061221d8b8983612b82565b1515612273576040805160e560020a62461bcd02815260206004820152601560248201527f524d3a204475706c696361746520726571756573740000000000000000000000604482015290519081900360640190fd5b6122b38b8b8b8080601f016020809104026020016040519081016040528093929190818152602001838380828437600092019190915250612b9692505050565b15156122f35760405160e560020a62461bcd02815260040180806020018281038252604a815260200180612e8e604a913960600191505060405180910390fd5b60006123358c8c8c8080601f016020809104026020016040519081016040528093929190818152602001838380828437600092019190915250612c0a92505050565b90506041810287141561244d5761234e8c868884612c12565b1561244d578015806123d157506123d18c8c8c8080601f01602080910402602001604051908101604052809392919081815260200183838082843760009201919091525050604080516020601f8f018190048102820181019092528d815288935091508d908d9081908401838280828437600092019190915250612ce492505050565b1561244d5730600160a060020a03168b8b604051808383808284376040519201945060009350909150508083038183865af19150503d8060008114612432576040519150601f19603f3d011682016040523d82523d6000602084013e612437565b606091505b50508094505061244d8c5a850388888533612d09565b60408051838152905185151591600160a060020a038f16917f6bb0b384ce772133df63560651bc8c727c53306cec1d51e2cbf8ea35fb8f2ec19181900360200190a350505098975050505050505050565b600654604080517f0bebac86000000000000000000000000000000000000000000000000000000008152600160a060020a03848116600483015291516000936b033b2e3c9fd0803ce8000000936125a293911691630bebac8691602480820192602092909190829003018186803b15801561251857600080fd5b505afa15801561252c573d6000803e3d6000fd5b505050506040513d602081101561254257600080fd5b5051600654604080517fc92aecc40000000000000000000000000000000000000000000000000000000081529051600160a060020a039092169163c92aecc491600480820192602092909190829003018186803b1580156112e557600080fd5b8115156125ab57fe5b0492915050565b600454600160a060020a031681565b600754600160a060020a031681565b60026020526000908152604090205481565b6004546000908190600160a060020a0384811691161461260357600061260c565b61260c8461249e565b946000945092505050565b7fd490da4d0000000000000000000000000000000000000000000000000000000090565b600554600160a060020a031681565b600454600090600160a060020a038581169116146126b2576040805160e560020a62461bcd02815260206004820152601760248201527f444d3a20746f6b656e2073686f756c6420626520444149000000000000000000604482015290519081900360640190fd5b6126bc858461192f565b5060045460408051600160a060020a03928316815260208101859052808201849052905184928716917ff8eece150ed2126815122a6def9737751aecd814379d4ce8c9edd07133a49cdb919081900360600190a2949350505050565b600081600160a060020a031683600160a060020a0316638da5cb5b6040518163ffffffff1660e060020a02815260040160206040518083038186803b15801561276057600080fd5b505afa158015612774573d6000803e3d6000fd5b505050506040513d602081101561278a57600080fd5b5051600160a060020a03161490505b92915050565b60008215156127b057506000612799565b8282028284828115156127bf57fe5b04146127ca57600080fd5b9392505050565b6060600085600160a060020a03168585856040516024018084600160a060020a0316600160a060020a0316815260200183815260200180602001828103825283818151815260200191508051906020019080838360005b83811015612840578181015183820152602001612828565b50505050905090810190601f16801561286d5780820380516001836020036101000a031916815260200191505b5060408051601f19818403018152918152602082018051600160e060020a03167f8f6f033200000000000000000000000000000000000000000000000000000000178152905182519297509550859450925090508083835b602083106128e45780518252601f1990920191602091820191016128c5565b6001836020036101000a0380198251168184511680821785525050505050509050019150506000604051808303816000865af19150503d8060008114612946576040519150601f19603f3d011682016040523d82523d6000602084013e61294b565b606091505b509250905080801561295e575060008251115b156129cb5781806020019051602081101561297857600080fd5b81019080805164010000000081111561299057600080fd5b820160208101848111156129a357600080fd5b81516401000000008111828201871017156129bd57600080fd5b50909550612a369350505050565b6000825111156129df573d6000803e3d6000fd5b801515612a36576040805160e560020a62461bcd02815260206004820152601a60248201527f424d3a2077616c6c657420696e766f6b65207265766572746564000000000000604482015290519081900360640190fd5b50949350505050565b6040517f190000000000000000000000000000000000000000000000000000000000000060208083018281526000602185018190526c01000000000000000000000000600160a060020a03808e16820260228801528c16026036860152604a85018a90528851909485938d938d938d938d938d938d938d939192606a909201918701908083835b60208310612ae55780518252601f199092019160209182019101612ac6565b51815160209384036101000a600019018019909216911617905292019586525084810193909352506040808401919091528051808403820181526060840182528051908301207f19457468657265756d205369676e6564204d6573736167653a0a3332000000006080850152609c808501919091528151808503909101815260bc909301905281519101209e9d5050505050505050505050505050565b6000612b8e8484612d5d565b949350505050565b60006024825110151515612bf4576040805160e560020a62461bcd02815260206004820152601660248201527f524d3a20496e76616c6964206461746157616c6c657400000000000000000000604482015290519081900360640190fd5b5060240151600160a060020a0391821691161490565b600192915050565b60008083118015612c235750600182115b8015612ccc575082840285600160a060020a0316311080612ccc5750604080517fd6eb1bbf0000000000000000000000000000000000000000000000000000000081523060048201529051600160a060020a0387169163d6eb1bbf916024808301926020929190829003018186803b158015612c9e57600080fd5b505afa158015612cb2573d6000803e3d6000fd5b505050506040513d6020811015612cc857600080fd5b5051155b15612cd957506000612b8e565b506001949350505050565b600080612cf384846000612de3565b9050612cff8682612718565b9695505050505050565b61726c8501600085118015612d1e5750600183115b8015612d2a5750838111155b156115ba573a851115612d3e573a02612d41565b84025b610a9087838360206040519081016040528060008152506127d1565b600160a060020a0382166000908152600260205260408120548211612d8457506000612799565b7001000000000000000000000000000000006fffffffffffffffffffffffffffffffff198316044361271001811115612dc1576000915050612799565b5050600160a060020a0391909116600090815260026020526040902055600190565b6041808202830160208101516040820151919092015160009260ff9190911691601b831480612e1557508260ff16601c145b1515612e2057600080fd5b604080516000815260208082018084528a905260ff8616828401526060820185905260808201849052915160019260a0808401939192601f1981019281900390910190855afa158015612e77573d6000803e3d6000fd5b5050604051601f1901519897505050505050505056fe524d3a207468652077616c6c657420617574686f72697a656420697320646966666572656e74207468656e2074686520746172676574206f66207468652072656c617965642064617461424d3a2077616c6c6574206d75737420626520756e6c6f636b65640000000000424d3a206d75737420626520616e206f776e657220666f72207468652077616c6c6574a165627a7a72305820c718accff19f5ea0afc1562e3258022926bc7d593e11109ba6a2d46f3d12114f0029",
  "source": "pragma solidity ^0.5.4;\n\nimport \"./common/BaseModule.sol\";\nimport \"./common/RelayerModule.sol\";\nimport \"./common/OnlyOwnerModule.sol\";\nimport \"../utils/SafeMath.sol\";\nimport \"../defi/Invest.sol\";\n\ncontract VatLike {\n    function can(address, address) public view returns (uint);\n    function dai(address) public view returns (uint);\n    function hope(address) public;\n}\n\ncontract JoinLike {\n    function gem() public returns (GemLike);\n    function dai() public returns (GemLike);\n    function join(address, uint) public;\n    function exit(address, uint) public;\n    VatLike public vat;\n}\n\ncontract PotLike {\n    function chi() public view returns (uint);\n    function pie(address) public view returns (uint);\n    function drip() public;\n}\n\ncontract ScdMcdMigration {\n    function swapSaiToDai(uint wad) external;\n    function swapDaiToSai(uint wad) external;\n    JoinLike public saiJoin;\n    JoinLike public wethJoin;\n    JoinLike public daiJoin;\n}\n\ncontract GemLike {\n    function balanceOf(address) public view returns (uint);\n    function transferFrom(address, address, uint) public returns (bool);\n}\n\n/**\n * @title MakerV2Manager\n * @dev Module to convert SAI <-> DAI and lock/unlock MCD DAI into/from Maker's Pot,\n * @author Olivier VDB - <olivier@argent.xyz>\n */\ncontract MakerV2Manager is Invest, BaseModule, RelayerModule, OnlyOwnerModule {\n\n    bytes32 constant NAME = \"MakerV2Manager\";\n\n    // The address of the SAI token\n    GemLike public saiToken;\n    // The address of the (MCD) DAI token\n    GemLike public daiToken;\n    // The address of the SAI <-> DAI migration contract\n    address public scdMcdMigration;\n    // The address of the Pot\n    PotLike public pot;\n    // The address of the Dai Adapter\n    JoinLike public daiJoin;\n    // The address of the Vat\n    VatLike public vat;\n\n    // Method signatures to reduce gas cost at depoyment\n    bytes4 constant internal ERC20_APPROVE = bytes4(keccak256(\"approve(address,uint256)\"));\n    bytes4 constant internal SWAP_SAI_DAI = bytes4(keccak256(\"swapSaiToDai(uint256)\"));\n    bytes4 constant internal SWAP_DAI_SAI = bytes4(keccak256(\"swapDaiToSai(uint256)\"));\n    bytes4 constant internal ADAPTER_JOIN = bytes4(keccak256(\"join(address,uint256)\"));\n    bytes4 constant internal ADAPTER_EXIT = bytes4(keccak256(\"exit(address,uint256)\"));\n    bytes4 constant internal VAT_HOPE = bytes4(keccak256(\"hope(address)\"));\n    bytes4 constant internal POT_JOIN = bytes4(keccak256(\"join(uint256)\"));\n    bytes4 constant internal POT_EXIT = bytes4(keccak256(\"exit(uint256)\"));\n\n    uint256 constant internal RAY = 10 ** 27;\n\n    using SafeMath for uint256;\n\n    // ****************** Events *************************** //\n\n    event TokenConverted(address indexed _wallet, address _srcToken, uint _srcAmount, address _destToken, uint _destAmount);\n\n    // *************** Constructor ********************** //\n\n    constructor(\n        ModuleRegistry _registry,\n        GuardianStorage _guardianStorage,\n        ScdMcdMigration _scdMcdMigration,\n        PotLike _pot\n    )\n        BaseModule(_registry, _guardianStorage, NAME)\n        public\n    {\n        scdMcdMigration = address(_scdMcdMigration);\n        saiToken = _scdMcdMigration.saiJoin().gem();\n        daiJoin = _scdMcdMigration.daiJoin();\n        vat = daiJoin.vat();\n        daiToken = daiJoin.dai();\n        pot = _pot;\n    }\n\n    // *************** External/Public Functions ********************* //\n\n    /* ********************************** Implementation of Invest ************************************* */\n\n    /**\n     * @dev Invest tokens for a given period.\n     * @param _wallet The target wallet.\n     * @param _token The token address.\n     * @param _amount The amount of tokens to invest.\n     * @param _period The period over which the tokens may be locked in the investment (optional).\n     * @return The exact amount of tokens that have been invested.\n     */\n    function addInvestment(\n        BaseWallet _wallet,\n        address _token,\n        uint256 _amount,\n        uint256 _period\n    )\n        external\n        returns (uint256 _invested)\n    {\n        require(_token == address(daiToken), \"DM: token should be DAI\");\n        joinDsr(_wallet, _amount);\n        _invested = _amount;\n        emit InvestmentAdded(address(_wallet), address(daiToken), _amount, _period);\n    }\n\n    /**\n     * @dev Exit invested postions.\n     * @param _wallet The target wallet.\n     * @param _token The token address.\n     * @param _fraction The fraction of invested tokens to exit in per 10000.\n     */\n    function removeInvestment(\n        BaseWallet _wallet,\n        address _token,\n        uint256 _fraction\n    )\n        external\n    {\n        require(_token == address(daiToken), \"DM: token should be DAI\");\n        require(_fraction <= 10000, \"DM: invalid fraction value\");\n        exitDsr(_wallet, dsrBalance(_wallet).mul(_fraction) / 10000);\n        emit InvestmentRemoved(address(_wallet), _token, _fraction);\n    }\n\n    /**\n     * @dev Get the amount of investment in a given token.\n     * @param _wallet The target wallet.\n     * @param _token The token address.\n     * @return The value in tokens of the investment (including interests) and the time at which the investment can be removed.\n     */\n    function getInvestment(\n        BaseWallet _wallet,\n        address _token\n    )\n        external\n        view\n        returns (uint256 _tokenValue, uint256 _periodEnd)\n    {\n        _tokenValue = _token == address(daiToken) ? dsrBalance(_wallet) : 0;\n        _periodEnd = 0;\n    }\n\n    /* ****************************************** DSR wrappers ******************************************* */\n\n    function dsrBalance(BaseWallet _wallet) public view returns (uint256) {\n        return pot.chi().mul(pot.pie(address(_wallet))) / RAY;\n    }\n\n    /**\n    * @dev lets the owner deposit MCD DAI into the DSR Pot.\n    * @param _wallet The target wallet.\n    * @param _amount The amount of DAI to deposit\n    */\n    function joinDsr(\n        BaseWallet _wallet,\n        uint256 _amount\n    )\n        public\n        onlyWalletOwner(_wallet)\n        onlyWhenUnlocked(_wallet)\n    {\n        if (daiToken.balanceOf(address(_wallet)) < _amount) {\n            swapSaiToDai(_wallet, _amount - daiToken.balanceOf(address(_wallet)));\n        }\n\n        // Execute drip to get the chi rate updated to rho == now, otherwise join will fail\n        pot.drip();\n        // Approve DAI adapter to take the DAI amount\n        invokeWallet(address(_wallet), address(daiToken), 0, abi.encodeWithSelector(ERC20_APPROVE, address(daiJoin), _amount));\n        // Join DAI into the vat (_amount of external DAI is burned and the vat transfers _amount of internal DAI from the adapter to the _wallet)\n        invokeWallet(address(_wallet), address(daiJoin), 0, abi.encodeWithSelector(ADAPTER_JOIN, address(_wallet), _amount));\n        // Approve the pot to take out (internal) DAI from the wallet's balance in the vat\n        if (vat.can(address(_wallet), address(pot)) == 0) {\n            invokeWallet(address(_wallet), address(vat), 0, abi.encodeWithSelector(VAT_HOPE, address(pot)));\n        }\n        // Compute the pie value in the pot\n        uint256 pie = _amount.mul(RAY) / pot.chi();\n        // Join the pie value to the pot\n        invokeWallet(address(_wallet), address(pot), 0, abi.encodeWithSelector(POT_JOIN, pie));\n    }\n\n    /**\n    * @dev lets the owner withdraw MCD DAI from the DSR Pot.\n    * @param _wallet The target wallet.\n    * @param _amount The amount of DAI to withdraw\n    */\n    function exitDsr(\n        BaseWallet _wallet,\n        uint256 _amount\n    )\n        public\n        onlyWalletOwner(_wallet)\n        onlyWhenUnlocked(_wallet)\n    {\n        // Execute drip to count the savings accumulated until this moment\n        pot.drip();\n        // Calculates the pie value in the pot equivalent to the DAI wad amount\n        uint256 pie = _amount.mul(RAY) / pot.chi();\n        // Exit DAI from the pot\n        invokeWallet(address(_wallet), address(pot), 0, abi.encodeWithSelector(POT_EXIT, pie));\n        // Allow adapter to access the _wallet's DAI balance in the vat\n        if (vat.can(address(_wallet), address(daiJoin)) == 0) {\n            invokeWallet(address(_wallet), address(vat), 0, abi.encodeWithSelector(VAT_HOPE, address(daiJoin)));\n        }\n        // Check the actual balance of DAI in the vat after the pot exit\n        uint bal = vat.dai(address(_wallet));\n        // It is necessary to check if due to rounding the exact _amount can be exited by the adapter.\n        // Otherwise it will do the maximum DAI balance in the vat\n        uint256 withdrawn = bal >= _amount.mul(RAY) ? _amount : bal / RAY;\n        invokeWallet(address(_wallet), address(daiJoin), 0, abi.encodeWithSelector(ADAPTER_EXIT, address(_wallet), withdrawn));\n    }\n\n    function exitAllDsr(\n        BaseWallet _wallet\n    )\n        external\n        onlyWalletOwner(_wallet)\n        onlyWhenUnlocked(_wallet)\n    {\n        // Execute drip to count the savings accumulated until this moment\n        pot.drip();\n        // Gets the total pie belonging to the _wallet\n        uint256 pie = pot.pie(address(_wallet));\n        // Exit DAI from the pot\n        invokeWallet(address(_wallet), address(pot), 0, abi.encodeWithSelector(POT_EXIT, pie));\n        // Allow adapter to access the _wallet's DAI balance in the vat\n        if (vat.can(address(_wallet), address(daiJoin)) == 0) {\n            invokeWallet(address(_wallet), address(vat), 0, abi.encodeWithSelector(VAT_HOPE, address(daiJoin)));\n        }\n        // Exits the DAI amount corresponding to the value of pie\n        uint256 withdrawn = pot.chi().mul(pie) / RAY;\n        invokeWallet(address(_wallet), address(daiJoin), 0, abi.encodeWithSelector(ADAPTER_EXIT, address(_wallet), withdrawn));\n    }\n\n    /**\n    * @dev lets the owner convert SCD SAI into MCD DAI.\n    * @param _wallet The target wallet.\n    * @param _amount The amount of SAI to convert\n    */\n    function swapSaiToDai(\n        BaseWallet _wallet,\n        uint256 _amount\n    )\n        public\n        onlyWalletOwner(_wallet)\n        onlyWhenUnlocked(_wallet)\n    {\n        require(saiToken.balanceOf(address(_wallet)) >= _amount, \"DM: insufficient SAI\");\n        invokeWallet(address(_wallet), address(saiToken), 0, abi.encodeWithSelector(ERC20_APPROVE, scdMcdMigration, _amount));\n        invokeWallet(address(_wallet), scdMcdMigration, 0, abi.encodeWithSelector(SWAP_SAI_DAI, _amount));\n        emit TokenConverted(address(_wallet), address(saiToken), _amount, address(daiToken), _amount);\n    }\n\n    /**\n    * @dev lets the owner convert MCD DAI into SCD SAI.\n    * @param _wallet The target wallet.\n    * @param _amount The amount of DAI to convert\n    */\n    function swapDaiToSai(\n        BaseWallet _wallet,\n        uint256 _amount\n    )\n        external\n        onlyWalletOwner(_wallet)\n        onlyWhenUnlocked(_wallet)\n    {\n        require(daiToken.balanceOf(address(_wallet)) >= _amount, \"DM: insufficient DAI\");\n        invokeWallet(address(_wallet), address(daiToken), 0, abi.encodeWithSelector(ERC20_APPROVE, scdMcdMigration, _amount));\n        invokeWallet(address(_wallet), scdMcdMigration, 0, abi.encodeWithSelector(SWAP_DAI_SAI, _amount));\n        emit TokenConverted(address(_wallet), address(daiToken), _amount, address(saiToken), _amount);\n    }\n}",
  "sourcePath": "/home/amxx/Work/Argent/argent-contracts/contracts/modules/MakerV2Manager.sol",
  "compiler": {
    "name": "solc",
    "version": "0.5.4+commit.9549d8ff.Emscripten.clang",
    "optimizer": true,
    "runs": 200
  },
  "schemaVersion": "2.2.4",
  "updatedAt": "2020-02-29T16:28:22.535Z"
}