{
  "contractName": "MakerManager",
  "abi": [
    {
      "constant": false,
      "inputs": [
        {
          "name": "_wallet",
          "type": "address"
        }
      ],
      "name": "init",
      "outputs": [],
      "payable": false,
      "stateMutability": "nonpayable",
      "type": "function"
    },
    {
      "constant": true,
      "inputs": [
        {
          "name": "_wallet",
          "type": "address"
        }
      ],
      "name": "getNonce",
      "outputs": [
        {
          "name": "nonce",
          "type": "uint256"
        }
      ],
      "payable": false,
      "stateMutability": "view",
      "type": "function"
    },
    {
      "constant": false,
      "inputs": [
        {
          "name": "_wallet",
          "type": "address"
        },
        {
          "name": "_module",
          "type": "address"
        }
      ],
      "name": "addModule",
      "outputs": [],
      "payable": false,
      "stateMutability": "nonpayable",
      "type": "function"
    },
    {
      "constant": true,
      "inputs": [],
      "name": "uniswapFactory",
      "outputs": [
        {
          "name": "",
          "type": "address"
        }
      ],
      "payable": false,
      "stateMutability": "view",
      "type": "function"
    },
    {
      "constant": true,
      "inputs": [],
      "name": "makerCdp",
      "outputs": [
        {
          "name": "",
          "type": "address"
        }
      ],
      "payable": false,
      "stateMutability": "view",
      "type": "function"
    },
    {
      "constant": false,
      "inputs": [
        {
          "name": "_token",
          "type": "address"
        }
      ],
      "name": "recoverToken",
      "outputs": [],
      "payable": false,
      "stateMutability": "nonpayable",
      "type": "function"
    },
    {
      "constant": false,
      "inputs": [
        {
          "name": "_wallet",
          "type": "address"
        },
        {
          "name": "_data",
          "type": "bytes"
        },
        {
          "name": "_nonce",
          "type": "uint256"
        },
        {
          "name": "_signatures",
          "type": "bytes"
        },
        {
          "name": "_gasPrice",
          "type": "uint256"
        },
        {
          "name": "_gasLimit",
          "type": "uint256"
        }
      ],
      "name": "execute",
      "outputs": [
        {
          "name": "success",
          "type": "bool"
        }
      ],
      "payable": false,
      "stateMutability": "nonpayable",
      "type": "function"
    },
    {
      "constant": true,
      "inputs": [
        {
          "name": "",
          "type": "address"
        }
      ],
      "name": "relayer",
      "outputs": [
        {
          "name": "nonce",
          "type": "uint256"
        }
      ],
      "payable": false,
      "stateMutability": "view",
      "type": "function"
    },
    {
      "constant": true,
      "inputs": [],
      "name": "isOnlyOwnerModule",
      "outputs": [
        {
          "name": "",
          "type": "bytes4"
        }
      ],
      "payable": false,
      "stateMutability": "pure",
      "type": "function"
    },
    {
      "inputs": [
        {
          "name": "_registry",
          "type": "address"
        },
        {
          "name": "_guardianStorage",
          "type": "address"
        },
        {
          "name": "_makerCdp",
          "type": "address"
        },
        {
          "name": "_uniswapFactory",
          "type": "address"
        }
      ],
      "payable": false,
      "stateMutability": "nonpayable",
      "type": "constructor"
    },
    {
      "anonymous": false,
      "inputs": [
        {
          "indexed": true,
          "name": "wallet",
          "type": "address"
        },
        {
          "indexed": true,
          "name": "success",
          "type": "bool"
        },
        {
          "indexed": false,
          "name": "signedHash",
          "type": "bytes32"
        }
      ],
      "name": "TransactionExecuted",
      "type": "event"
    },
    {
      "anonymous": false,
      "inputs": [
        {
          "indexed": false,
          "name": "name",
          "type": "bytes32"
        }
      ],
      "name": "ModuleCreated",
      "type": "event"
    },
    {
      "anonymous": false,
      "inputs": [
        {
          "indexed": false,
          "name": "wallet",
          "type": "address"
        }
      ],
      "name": "ModuleInitialised",
      "type": "event"
    },
    {
      "anonymous": false,
      "inputs": [
        {
          "indexed": true,
          "name": "_wallet",
          "type": "address"
        },
        {
          "indexed": true,
          "name": "_loanId",
          "type": "bytes32"
        },
        {
          "indexed": false,
          "name": "_collateral",
          "type": "address"
        },
        {
          "indexed": false,
          "name": "_collateralAmount",
          "type": "uint256"
        },
        {
          "indexed": false,
          "name": "_debtToken",
          "type": "address"
        },
        {
          "indexed": false,
          "name": "_debtAmount",
          "type": "uint256"
        }
      ],
      "name": "LoanOpened",
      "type": "event"
    },
    {
      "anonymous": false,
      "inputs": [
        {
          "indexed": true,
          "name": "_wallet",
          "type": "address"
        },
        {
          "indexed": true,
          "name": "_loanId",
          "type": "bytes32"
        }
      ],
      "name": "LoanClosed",
      "type": "event"
    },
    {
      "anonymous": false,
      "inputs": [
        {
          "indexed": true,
          "name": "_wallet",
          "type": "address"
        },
        {
          "indexed": true,
          "name": "_loanId",
          "type": "bytes32"
        },
        {
          "indexed": false,
          "name": "_collateral",
          "type": "address"
        },
        {
          "indexed": false,
          "name": "_collateralAmount",
          "type": "uint256"
        }
      ],
      "name": "CollateralAdded",
      "type": "event"
    },
    {
      "anonymous": false,
      "inputs": [
        {
          "indexed": true,
          "name": "_wallet",
          "type": "address"
        },
        {
          "indexed": true,
          "name": "_loanId",
          "type": "bytes32"
        },
        {
          "indexed": false,
          "name": "_collateral",
          "type": "address"
        },
        {
          "indexed": false,
          "name": "_collateralAmount",
          "type": "uint256"
        }
      ],
      "name": "CollateralRemoved",
      "type": "event"
    },
    {
      "anonymous": false,
      "inputs": [
        {
          "indexed": true,
          "name": "_wallet",
          "type": "address"
        },
        {
          "indexed": true,
          "name": "_loanId",
          "type": "bytes32"
        },
        {
          "indexed": false,
          "name": "_debtToken",
          "type": "address"
        },
        {
          "indexed": false,
          "name": "_debtAmount",
          "type": "uint256"
        }
      ],
      "name": "DebtAdded",
      "type": "event"
    },
    {
      "anonymous": false,
      "inputs": [
        {
          "indexed": true,
          "name": "_wallet",
          "type": "address"
        },
        {
          "indexed": true,
          "name": "_loanId",
          "type": "bytes32"
        },
        {
          "indexed": false,
          "name": "_debtToken",
          "type": "address"
        },
        {
          "indexed": false,
          "name": "_debtAmount",
          "type": "uint256"
        }
      ],
      "name": "DebtRemoved",
      "type": "event"
    },
    {
      "constant": false,
      "inputs": [
        {
          "name": "_wallet",
          "type": "address"
        },
        {
          "name": "_collateral",
          "type": "address"
        },
        {
          "name": "_collateralAmount",
          "type": "uint256"
        },
        {
          "name": "_debtToken",
          "type": "address"
        },
        {
          "name": "_debtAmount",
          "type": "uint256"
        }
      ],
      "name": "openLoan",
      "outputs": [
        {
          "name": "_loanId",
          "type": "bytes32"
        }
      ],
      "payable": false,
      "stateMutability": "nonpayable",
      "type": "function"
    },
    {
      "constant": false,
      "inputs": [
        {
          "name": "_wallet",
          "type": "address"
        },
        {
          "name": "_loanId",
          "type": "bytes32"
        }
      ],
      "name": "closeLoan",
      "outputs": [],
      "payable": false,
      "stateMutability": "nonpayable",
      "type": "function"
    },
    {
      "constant": true,
      "inputs": [
        {
          "name": "",
          "type": "address"
        },
        {
          "name": "_loanId",
          "type": "bytes32"
        }
      ],
      "name": "getLoan",
      "outputs": [
        {
          "name": "_status",
          "type": "uint8"
        },
        {
          "name": "_ethValue",
          "type": "uint256"
        }
      ],
      "payable": false,
      "stateMutability": "view",
      "type": "function"
    },
    {
      "constant": false,
      "inputs": [
        {
          "name": "_wallet",
          "type": "address"
        },
        {
          "name": "_loanId",
          "type": "bytes32"
        },
        {
          "name": "_collateral",
          "type": "address"
        },
        {
          "name": "_collateralAmount",
          "type": "uint256"
        }
      ],
      "name": "addCollateral",
      "outputs": [],
      "payable": false,
      "stateMutability": "nonpayable",
      "type": "function"
    },
    {
      "constant": false,
      "inputs": [
        {
          "name": "_wallet",
          "type": "address"
        },
        {
          "name": "_loanId",
          "type": "bytes32"
        },
        {
          "name": "_collateral",
          "type": "address"
        },
        {
          "name": "_collateralAmount",
          "type": "uint256"
        }
      ],
      "name": "removeCollateral",
      "outputs": [],
      "payable": false,
      "stateMutability": "nonpayable",
      "type": "function"
    },
    {
      "constant": false,
      "inputs": [
        {
          "name": "_wallet",
          "type": "address"
        },
        {
          "name": "_loanId",
          "type": "bytes32"
        },
        {
          "name": "_debtToken",
          "type": "address"
        },
        {
          "name": "_debtAmount",
          "type": "uint256"
        }
      ],
      "name": "addDebt",
      "outputs": [],
      "payable": false,
      "stateMutability": "nonpayable",
      "type": "function"
    },
    {
      "constant": false,
      "inputs": [
        {
          "name": "_wallet",
          "type": "address"
        },
        {
          "name": "_loanId",
          "type": "bytes32"
        },
        {
          "name": "_debtToken",
          "type": "address"
        },
        {
          "name": "_debtAmount",
          "type": "uint256"
        }
      ],
      "name": "removeDebt",
      "outputs": [],
      "payable": false,
      "stateMutability": "nonpayable",
      "type": "function"
    },
    {
      "constant": true,
      "inputs": [
        {
          "name": "_cup",
          "type": "bytes32"
        },
        {
          "name": "_makerCdp",
          "type": "address"
        }
      ],
      "name": "pethCollateral",
      "outputs": [
        {
          "name": "",
          "type": "uint256"
        }
      ],
      "payable": false,
      "stateMutability": "view",
      "type": "function"
    },
    {
      "constant": false,
      "inputs": [
        {
          "name": "_cup",
          "type": "bytes32"
        },
        {
          "name": "_makerCdp",
          "type": "address"
        }
      ],
      "name": "daiDebt",
      "outputs": [
        {
          "name": "",
          "type": "uint256"
        }
      ],
      "payable": false,
      "stateMutability": "nonpayable",
      "type": "function"
    },
    {
      "constant": false,
      "inputs": [
        {
          "name": "_cup",
          "type": "bytes32"
        },
        {
          "name": "_makerCdp",
          "type": "address"
        }
      ],
      "name": "isSafe",
      "outputs": [
        {
          "name": "",
          "type": "bool"
        }
      ],
      "payable": false,
      "stateMutability": "nonpayable",
      "type": "function"
    },
    {
      "constant": true,
      "inputs": [
        {
          "name": "_cup",
          "type": "bytes32"
        },
        {
          "name": "_makerCdp",
          "type": "address"
        }
      ],
      "name": "exists",
      "outputs": [
        {
          "name": "",
          "type": "bool"
        }
      ],
      "payable": false,
      "stateMutability": "view",
      "type": "function"
    },
    {
      "constant": false,
      "inputs": [
        {
          "name": "_cup",
          "type": "bytes32"
        },
        {
          "name": "_makerCdp",
          "type": "address"
        }
      ],
      "name": "maxDaiDrawable",
      "outputs": [
        {
          "name": "",
          "type": "uint256"
        }
      ],
      "payable": false,
      "stateMutability": "nonpayable",
      "type": "function"
    },
    {
      "constant": false,
      "inputs": [
        {
          "name": "_cup",
          "type": "bytes32"
        },
        {
          "name": "_makerCdp",
          "type": "address"
        }
      ],
      "name": "minCollateralRequired",
      "outputs": [
        {
          "name": "",
          "type": "uint256"
        }
      ],
      "payable": false,
      "stateMutability": "nonpayable",
      "type": "function"
    },
    {
      "constant": false,
      "inputs": [
        {
          "name": "_cup",
          "type": "bytes32"
        },
        {
          "name": "_daiRefund",
          "type": "uint256"
        },
        {
          "name": "_makerCdp",
          "type": "address"
        }
      ],
      "name": "governanceFeeInMKR",
      "outputs": [
        {
          "name": "_fee",
          "type": "uint256"
        }
      ],
      "payable": false,
      "stateMutability": "nonpayable",
      "type": "function"
    },
    {
      "constant": false,
      "inputs": [
        {
          "name": "_cup",
          "type": "bytes32"
        },
        {
          "name": "_makerCdp",
          "type": "address"
        }
      ],
      "name": "totalGovernanceFeeInMKR",
      "outputs": [
        {
          "name": "_fee",
          "type": "uint256"
        }
      ],
      "payable": false,
      "stateMutability": "nonpayable",
      "type": "function"
    },
    {
      "constant": false,
      "inputs": [
        {
          "name": "_cup",
          "type": "bytes32"
        },
        {
          "name": "_makerCdp",
          "type": "address"
        }
      ],
      "name": "minRequiredCollateral",
      "outputs": [
        {
          "name": "_minCollateral",
          "type": "uint256"
        }
      ],
      "payable": false,
      "stateMutability": "nonpayable",
      "type": "function"
    }
  ],
  "bytecode": "0x608060405234801561001057600080fd5b50604051608080620043e98339810180604052608081101561003157600080fd5b50805160208083015160408085015160609095015160008054600160a060020a03808816600160a060020a031992831617909255600180549286169290911691909117905581517f4d616b65724d616e616765720000000000000000000000000000000000000000808252925195969395939491938793879390927f3019c8fc80239e3dff8f781212ae2004839c2cb61d6c70acd279ac65392145df929081900390910190a1505060038054600160a060020a03948516600160a060020a03199182161790915560048054939094169216919091179091555050506142cd806200011c6000396000f3fe608060405234801561001057600080fd5b50600436106101765760003560e060020a900480638bdb2afa116100e2578063aacaaf881161009b578063b352d4af11610075578063b352d4af1461060a578063c9b5ef8e14610644578063d490da4d1461066a578063e8ca0ca31461068f57610176565b8063aacaaf88146104b0578063ac5f8d511461058c578063b02c808d146105c657610176565b80638bdb2afa146103da578063953b4e85146103fe5780639be65a6014610406578063a4a2850c1461042c578063a8b3dad114610458578063a90cf0af1461048457610176565b80635a1db8c4116101345780635a1db8c41461029f5780635dc0409a146102cd5780637cea5aff146102f957806381c44b5c1461032557806383c5b0251461036e57806385a13f38146103a057610176565b80628952321461017b5780630a40f3ef146101bb5780630f1d5c98146101f957806319ab453c146102255780632d0335ab1461024d5780632d4a722114610273575b600080fd5b6101a76004803603604081101561019157600080fd5b5080359060200135600160a060020a03166106c9565b604080519115158252519081900360200190f35b6101e7600480360360408110156101d157600080fd5b5080359060200135600160a060020a0316610749565b60408051918252519081900360200190f35b6101e76004803603604081101561020f57600080fd5b5080359060200135600160a060020a0316610794565b61024b6004803603602081101561023b57600080fd5b5035600160a060020a03166107b1565b005b6101e76004803603602081101561026357600080fd5b5035600160a060020a0316610852565b6101e76004803603604081101561028957600080fd5b5080359060200135600160a060020a031661086d565b61024b600480360360408110156102b557600080fd5b50600160a060020a0381358116916020013516610bb7565b6101e7600480360360408110156102e357600080fd5b5080359060200135600160a060020a0316610d7b565b6101e76004803603604081101561030f57600080fd5b5080359060200135600160a060020a0316610dd8565b6103516004803603604081101561033b57600080fd5b50600160a060020a038135169060200135610ffe565b6040805160ff909316835260208301919091528051918290030190f35b6101e76004803603606081101561038457600080fd5b5080359060208101359060400135600160a060020a0316611039565b61024b600480360360808110156103b657600080fd5b50600160a060020a038135811691602081013591604082013516906060013561121c565b6103e261147d565b60408051600160a060020a039092168252519081900360200190f35b6103e261148c565b61024b6004803603602081101561041c57600080fd5b5035600160a060020a031661149b565b6101a76004803603604081101561044257600080fd5b5080359060200135600160a060020a03166115ce565b6101e76004803603604081101561046e57600080fd5b5080359060200135600160a060020a031661165f565b61024b6004803603604081101561049a57600080fd5b50600160a060020a038135169060200135611940565b6101a7600480360360c08110156104c657600080fd5b600160a060020a0382351691908101906040810160208201356401000000008111156104f157600080fd5b82018360208201111561050357600080fd5b8035906020019184600183028401116401000000008311171561052557600080fd5b9193909282359260408101906020013564010000000081111561054757600080fd5b82018360208201111561055957600080fd5b8035906020019184600183028401116401000000008311171561057b57600080fd5b919350915080359060200135611ab2565b61024b600480360360808110156105a257600080fd5b50600160a060020a0381358116916020810135916040820135169060600135611d90565b6101e7600480360360a08110156105dc57600080fd5b50600160a060020a038135811691602081013582169160408201359160608101359091169060800135611f86565b61024b6004803603608081101561062057600080fd5b50600160a060020a0381358116916020810135916040820135169060600135612272565b6101e76004803603602081101561065a57600080fd5b5035600160a060020a0316612468565b61067261247a565b60408051600160e060020a03199092168252519081900360200190f35b61024b600480360360808110156106a557600080fd5b50600160a060020a038135811691602081013591604082013516906060013561249e565b600081600160a060020a031663e95823ad846040518263ffffffff1660e060020a02815260040180828152602001915050602060405180830381600087803b15801561071457600080fd5b505af1158015610728573d6000803e3d6000fd5b505050506040513d602081101561073e57600080fd5b505190505b92915050565b600081600160a060020a031663f7c8d634846040518263ffffffff1660e060020a02815260040180828152602001915050602060405180830381600087803b15801561071457600080fd5b60006107aa836107a48585610749565b84611039565b9392505050565b8033600160a060020a03821614610812576040805160e560020a62461bcd02815260206004820152601960248201527f424d3a2063616c6c6572206d7573742062652077616c6c657400000000000000604482015290519081900360640190fd5b60408051600160a060020a038416815290517f9fcca3f73f85397e2bf03647abf243c20b753bd54463ff3cae74de2971c112fa9181900360200190a15050565b600160a060020a031660009081526002602052604090205490565b600080610b2a83600160a060020a03166351f910666040518163ffffffff1660e060020a02815260040160206040518083038186803b1580156108af57600080fd5b505afa1580156108c3573d6000803e3d6000fd5b505050506040513d60208110156108d957600080fd5b5051604080517f67550a350000000000000000000000000000000000000000000000000000000081529051610b1e91600160a060020a038816916367550a3591600480820192602092909190829003018186803b15801561093957600080fd5b505afa15801561094d573d6000803e3d6000fd5b505050506040513d602081101561096357600080fd5b5051604080517f495d32cb0000000000000000000000000000000000000000000000000000000081529051600160a060020a039092169163495d32cb916004808201926020929091908290030181600087803b1580156109c257600080fd5b505af11580156109d6573d6000803e3d6000fd5b505050506040513d60208110156109ec57600080fd5b5051604080517fab0783da0000000000000000000000000000000000000000000000000000000081529051610b1291600160a060020a038a169163ab0783da91600480820192602092909190829003018186803b158015610a4c57600080fd5b505afa158015610a60573d6000803e3d6000fd5b505050506040513d6020811015610a7657600080fd5b5051604080517ff7c8d634000000000000000000000000000000000000000000000000000000008152600481018c90529051600160a060020a038b169163f7c8d6349160248083019260209291908290030181600087803b158015610ada57600080fd5b505af1158015610aee573d6000803e3d6000fd5b505050506040513d6020811015610b0457600080fd5b50519063ffffffff61270616565b9063ffffffff61270616565b9063ffffffff61274916565b9050610baf83600160a060020a0316631f3634ed866040518263ffffffff1660e060020a0281526004018082815260200191505060206040518083038186803b158015610b7657600080fd5b505afa158015610b8a573d6000803e3d6000fd5b505050506040513d6020811015610ba057600080fd5b5051829063ffffffff61276d16565b949350505050565b8133301480610bcb5750610bcb8133612782565b1515610c0b5760405160e560020a62461bcd02815260040180806020018281038252602381526020018061427f6023913960400191505060405180910390fd5b600054604080517f0bcd4ebb000000000000000000000000000000000000000000000000000000008152600160a060020a03858116600483015291519190921691630bcd4ebb916024808301926020929190829003018186803b158015610c7157600080fd5b505afa158015610c85573d6000803e3d6000fd5b505050506040513d6020811015610c9b57600080fd5b50511515610cf3576040805160e560020a62461bcd02815260206004820152601c60248201527f424d3a206d6f64756c65206973206e6f74207265676973746572656400000000604482015290519081900360640190fd5b604080517f1f17732d000000000000000000000000000000000000000000000000000000008152600160a060020a03848116600483015260016024830152915191851691631f17732d9160448082019260009290919082900301818387803b158015610d5e57600080fd5b505af1158015610d72573d6000803e3d6000fd5b50505050505050565b600081600160a060020a0316631f3634ed846040518263ffffffff1660e060020a0281526004018082815260200191505060206040518083038186803b158015610dc457600080fd5b505afa158015610728573d6000803e3d6000fd5b60006107aa82600160a060020a03166351f910666040518163ffffffff1660e060020a02815260040160206040518083038186803b158015610e1957600080fd5b505afa158015610e2d573d6000803e3d6000fd5b505050506040513d6020811015610e4357600080fd5b5051604080517fab0783da0000000000000000000000000000000000000000000000000000000081529051610b1e916b034373d1b5e481853200000091610b1291600160a060020a0389169163ab0783da91600480820192602092909190829003018186803b158015610eb557600080fd5b505afa158015610ec9573d6000803e3d6000fd5b505050506040513d6020811015610edf57600080fd5b5051604080517f67550a350000000000000000000000000000000000000000000000000000000081529051610b1291600160a060020a038b16916367550a3591600480820192602092909190829003018186803b158015610f3f57600080fd5b505afa158015610f53573d6000803e3d6000fd5b505050506040513d6020811015610f6957600080fd5b5051604080517f495d32cb0000000000000000000000000000000000000000000000000000000081529051600160a060020a039092169163495d32cb916004808201926020929091908290030181600087803b158015610fc857600080fd5b505af1158015610fdc573d6000803e3d6000fd5b505050506040513d6020811015610ff257600080fd5b5051610b128b8b610749565b600354600090819061101a908490600160a060020a03166115ce565b1561102b5750600390506000611032565b5060009050805b9250929050565b6000806110468584610749565b90508015156110595760009150506107aa565b60006110f06110e38386600160a060020a0316636f78ee0d8a6040518263ffffffff1660e060020a02815260040180828152602001915050602060405180830381600087803b1580156110ab57600080fd5b505af11580156110bf573d6000803e3d6000fd5b505050506040513d60208110156110d557600080fd5b50519063ffffffff61274916565b869063ffffffff61270616565b905060008085600160a060020a031663ace237f56040518163ffffffff1660e060020a02815260040160206040518083038186803b15801561113157600080fd5b505afa158015611145573d6000803e3d6000fd5b505050506040513d602081101561115b57600080fd5b5051604080517f59e02dd70000000000000000000000000000000000000000000000000000000081528151600160a060020a03909316926359e02dd792600480840193919291829003018186803b1580156111b557600080fd5b505afa1580156111c9573d6000803e3d6000fd5b505050506040513d60408110156111df57600080fd5b50805160209091015190925090508080156111f957508115155b156112115761120e838363ffffffff61280716565b94505b505050509392505050565b833330148061123057506112308133612782565b15156112705760405160e560020a62461bcd02815260040180806020018281038252602381526020018061427f6023913960400191505060405180910390fd5b6001546040805160e260020a631293efbb028152600160a060020a038089166004830152915188939290921691634a4fbeec91602480820192602092909190829003018186803b1580156112c357600080fd5b505afa1580156112d7573d6000803e3d6000fd5b505050506040513d60208110156112ed57600080fd5b505115611332576040805160e560020a62461bcd02815260206004820152601b602482015260008051602061421a833981519152604482015290519081900360640190fd5b600360009054906101000a9004600160a060020a0316600160a060020a0316639166cba46040518163ffffffff1660e060020a02815260040160206040518083038186803b15801561138357600080fd5b505afa158015611397573d6000803e3d6000fd5b505050506040513d60208110156113ad57600080fd5b5051600160a060020a03858116911614611411576040805160e560020a62461bcd02815260206004820152601d60248201527f4d616b65723a206465627420746f6b656e206d75737420626520444149000000604482015290519081900360640190fd5b60035461142c90879087908690600160a060020a031661281f565b60408051600160a060020a0386811682526020820186905282518893918a16927ff6669d5e7ff92997c22e9fe3b54f53ed18448cf5fdccb3eb1dc5004798fbb41492908290030190a3505050505050565b600454600160a060020a031681565b600354600160a060020a031681565b604080517f70a082310000000000000000000000000000000000000000000000000000000081523060048201529051600091600160a060020a038416916370a0823191602480820192602092909190829003018186803b1580156114fe57600080fd5b505afa158015611512573d6000803e3d6000fd5b505050506040513d602081101561152857600080fd5b505160008054604080517fa9059cbb000000000000000000000000000000000000000000000000000000008152600160a060020a0392831660048201526024810185905290519394509085169263a9059cbb92604480840193602093929083900390910190829087803b15801561159e57600080fd5b505af11580156115b2573d6000803e3d6000fd5b505050506040513d60208110156115c857600080fd5b50505050565b600080600160a060020a031682600160a060020a031663de5f5517856040518263ffffffff1660e060020a0281526004018082815260200191505060206040518083038186803b15801561162157600080fd5b505afa158015611635573d6000803e3d6000fd5b505050506040513d602081101561164b57600080fd5b5051600160a060020a031614159392505050565b6000806118de83600160a060020a031663ab0783da6040518163ffffffff1660e060020a02815260040160206040518083038186803b1580156116a157600080fd5b505afa1580156116b5573d6000803e3d6000fd5b505050506040513d60208110156116cb57600080fd5b5051604080517f67550a350000000000000000000000000000000000000000000000000000000081529051610b1e91600160a060020a038816916367550a3591600480820192602092909190829003018186803b15801561172b57600080fd5b505afa15801561173f573d6000803e3d6000fd5b505050506040513d602081101561175557600080fd5b5051604080517f495d32cb0000000000000000000000000000000000000000000000000000000081529051600160a060020a039092169163495d32cb916004808201926020929091908290030181600087803b1580156117b457600080fd5b505af11580156117c8573d6000803e3d6000fd5b505050506040513d60208110156117de57600080fd5b5051604080517f51f910660000000000000000000000000000000000000000000000000000000081529051610b1e91600160a060020a038a16916351f9106691600480820192602092909190829003018186803b15801561183e57600080fd5b505afa158015611852573d6000803e3d6000fd5b505050506040513d602081101561186857600080fd5b5051604080517f1f3634ed000000000000000000000000000000000000000000000000000000008152600481018c90529051600160a060020a038b1691631f3634ed916024808301926020929190829003018186803b1580156118ca57600080fd5b505afa158015610aee573d6000803e3d6000fd5b9050610baf83600160a060020a031663f7c8d634866040518263ffffffff1660e060020a02815260040180828152602001915050602060405180830381600087803b15801561192c57600080fd5b505af1158015610b8a573d6000803e3d6000fd5b813330148061195457506119548133612782565b15156119945760405160e560020a62461bcd02815260040180806020018281038252602381526020018061427f6023913960400191505060405180910390fd5b6001546040805160e260020a631293efbb028152600160a060020a038087166004830152915186939290921691634a4fbeec91602480820192602092909190829003018186803b1580156119e757600080fd5b505afa1580156119fb573d6000803e3d6000fd5b505050506040513d6020811015611a1157600080fd5b505115611a56576040805160e560020a62461bcd02815260206004820152601b602482015260008051602061421a833981519152604482015290519081900360640190fd5b600354600454611a769186918691600160a060020a0390811691166128ab565b6040518390600160a060020a038616907f07e4a0c6f06275f83bcf78e5a10eb7f5515574d593bce993377961f4133b951c90600090a350505050565b6000805a90506000611b02308c60008d8d8080601f0160208091040260200160405190810160405280939291908181526020018383808284376000920191909152508f92508c91508b9050612970565b9050611b0f8b8983612ab3565b1515611b65576040805160e560020a62461bcd02815260206004820152601560248201527f524d3a204475706c696361746520726571756573740000000000000000000000604482015290519081900360640190fd5b611ba58b8b8b8080601f016020809104026020016040519081016040528093929190818152602001838380828437600092019190915250612abf92505050565b1515611be55760405160e560020a62461bcd02815260040180806020018281038252604a8152602001806141d0604a913960600191505060405180910390fd5b6000611c278c8c8c8080601f016020809104026020016040519081016040528093929190818152602001838380828437600092019190915250612b3392505050565b905060418102871415611d3f57611c408c868884612b3b565b15611d3f57801580611cc35750611cc38c8c8c8080601f01602080910402602001604051908101604052809392919081815260200183838082843760009201919091525050604080516020601f8f018190048102820181019092528d815288935091508d908d9081908401838280828437600092019190915250612c0d92505050565b15611d3f5730600160a060020a03168b8b604051808383808284376040519201945060009350909150508083038183865af19150503d8060008114611d24576040519150601f19603f3d011682016040523d82523d6000602084013e611d29565b606091505b505080945050611d3f8c5a850388888533612c32565b60408051838152905185151591600160a060020a038f16917f6bb0b384ce772133df63560651bc8c727c53306cec1d51e2cbf8ea35fb8f2ec19181900360200190a350505098975050505050505050565b8333301480611da45750611da48133612782565b1515611de45760405160e560020a62461bcd02815260040180806020018281038252602381526020018061427f6023913960400191505060405180910390fd5b6001546040805160e260020a631293efbb028152600160a060020a038089166004830152915188939290921691634a4fbeec91602480820192602092909190829003018186803b158015611e3757600080fd5b505afa158015611e4b573d6000803e3d6000fd5b505050506040513d6020811015611e6157600080fd5b505115611ea6576040805160e560020a62461bcd02815260206004820152601b602482015260008051602061421a833981519152604482015290519081900360640190fd5b600160a060020a03841673eeeeeeeeeeeeeeeeeeeeeeeeeeeeeeeeeeeeeeee14611f1a576040805160e560020a62461bcd02815260206004820152601d60248201527f4d616b65723a20636f6c6c61746572616c206d75737420626520455448000000604482015290519081900360640190fd5b600354611f3590879087908690600160a060020a0316612c90565b60408051600160a060020a0386811682526020820186905282518893918a16927ff1dec7a92ef063b16d2098bb05803ed604936a7ff30f0d245fe881baf96e8e6b92908290030190a3505050505050565b60008533301480611f9c5750611f9c8133612782565b1515611fdc5760405160e560020a62461bcd02815260040180806020018281038252602381526020018061427f6023913960400191505060405180910390fd5b6001546040805160e260020a631293efbb028152600160a060020a03808b16600483015291518a939290921691634a4fbeec91602480820192602092909190829003018186803b15801561202f57600080fd5b505afa158015612043573d6000803e3d6000fd5b505050506040513d602081101561205957600080fd5b50511561209e576040805160e560020a62461bcd02815260206004820152601b602482015260008051602061421a833981519152604482015290519081900360640190fd5b600160a060020a03871673eeeeeeeeeeeeeeeeeeeeeeeeeeeeeeeeeeeeeeee14612112576040805160e560020a62461bcd02815260206004820152601d60248201527f4d616b65723a20636f6c6c61746572616c206d75737420626520455448000000604482015290519081900360640190fd5b600360009054906101000a9004600160a060020a0316600160a060020a0316639166cba46040518163ffffffff1660e060020a02815260040160206040518083038186803b15801561216357600080fd5b505afa158015612177573d6000803e3d6000fd5b505050506040513d602081101561218d57600080fd5b5051600160a060020a038681169116146121f1576040805160e560020a62461bcd02815260206004820152601d60248201527f4d616b65723a206465627420746f6b656e206d75737420626520444149000000604482015290519081900360640190fd5b60035461220c90899088908790600160a060020a0316612c9c565b60408051600160a060020a038a81168252602082018a9052888116828401526060820188905291519295508592918b16917ff9d7e11fb5d8d1e0a4be344a6a6adfb912161747edf926fb283150d07c39c1089181900360800190a3505095945050505050565b833330148061228657506122868133612782565b15156122c65760405160e560020a62461bcd02815260040180806020018281038252602381526020018061427f6023913960400191505060405180910390fd5b6001546040805160e260020a631293efbb028152600160a060020a038089166004830152915188939290921691634a4fbeec91602480820192602092909190829003018186803b15801561231957600080fd5b505afa15801561232d573d6000803e3d6000fd5b505050506040513d602081101561234357600080fd5b505115612388576040805160e560020a62461bcd02815260206004820152601b602482015260008051602061421a833981519152604482015290519081900360640190fd5b600160a060020a03841673eeeeeeeeeeeeeeeeeeeeeeeeeeeeeeeeeeeeeeee146123fc576040805160e560020a62461bcd02815260206004820152601d60248201527f4d616b65723a20636f6c6c61746572616c206d75737420626520455448000000604482015290519081900360640190fd5b60035461241790879087908690600160a060020a0316612e31565b60408051600160a060020a0386811682526020820186905282518893918a16927fdd016248708c391ccb5c72f9258127c75b9b291ac1479513fe4f331c3489013792908290030190a3505050505050565b60026020526000908152604090205481565b7fd490da4d0000000000000000000000000000000000000000000000000000000090565b83333014806124b257506124b28133612782565b15156124f25760405160e560020a62461bcd02815260040180806020018281038252602381526020018061427f6023913960400191505060405180910390fd5b6001546040805160e260020a631293efbb028152600160a060020a038089166004830152915188939290921691634a4fbeec91602480820192602092909190829003018186803b15801561254557600080fd5b505afa158015612559573d6000803e3d6000fd5b505050506040513d602081101561256f57600080fd5b5051156125b4576040805160e560020a62461bcd02815260206004820152601b602482015260008051602061421a833981519152604482015290519081900360640190fd5b600360009054906101000a9004600160a060020a0316600160a060020a0316639166cba46040518163ffffffff1660e060020a02815260040160206040518083038186803b15801561260557600080fd5b505afa158015612619573d6000803e3d6000fd5b505050506040513d602081101561262f57600080fd5b5051600160a060020a03858116911614612693576040805160e560020a62461bcd02815260206004820152601d60248201527f4d616b65723a206465627420746f6b656e206d75737420626520444149000000604482015290519081900360640190fd5b6003546004546126b591889188918791600160a060020a039182169116612f12565b60408051600160a060020a0386811682526020820186905282518893918a16927fbfa42ea7d37497e6a09441fadba47d64b610b6b1183d895dd0a42507973430bf92908290030190a3505050505050565b60006b033b2e3c9fd0803ce800000061273861272285856136b7565b60026b033b2e3c9fd0803ce80000005b046136e2565b81151561274157fe5b049392505050565b600081612738612765856b033b2e3c9fd0803ce80000006136b7565b600285612732565b60008282111561277c57600080fd5b50900390565b600081600160a060020a031683600160a060020a0316638da5cb5b6040518163ffffffff1660e060020a02815260040160206040518083038186803b1580156127ca57600080fd5b505afa1580156127de573d6000803e3d6000fd5b505050506040513d60208110156127f457600080fd5b5051600160a060020a0316149392505050565b60008161273861276585670de0b6b3a76400006136b7565b604080517f6472617728627974657333322c75696e7432353629000000000000000000000081528151908190036015018120602482018690526044808301869052835180840390910181526064909201909252602081018051600160e060020a0316600160e060020a0319909316929092179091526128a490859083906000906136f4565b5050505050565b60006128b78484610749565b905060008111156128cf576128cf8585838686612f12565b60006128db8585610d7b565b905060008111156128f2576128f286868387612c90565b604080517f73687574286279746573333229000000000000000000000000000000000000008152815190819003600d0181206024808301899052835180840390910181526044909201909252602081018051600160e060020a0316600160e060020a031990931692909217909152610d7290879086906000906136f4565b6040517f190000000000000000000000000000000000000000000000000000000000000060208083018281526000602185018190526c01000000000000000000000000600160a060020a03808e16820260228801528c16026036860152604a85018a90528851909485938d938d938d938d938d938d938d939192606a909201918701908083835b60208310612a165780518252601f1990920191602091820191016129f7565b51815160209384036101000a600019018019909216911617905292019586525084810193909352506040808401919091528051808403820181526060840182528051908301207f19457468657265756d205369676e6564204d6573736167653a0a3332000000006080850152609c808501919091528151808503909101815260bc909301905281519101209e9d5050505050505050505050505050565b6000610baf8484613959565b60006024825110151515612b1d576040805160e560020a62461bcd02815260206004820152601660248201527f524d3a20496e76616c6964206461746157616c6c657400000000000000000000604482015290519081900360640190fd5b5060240151600160a060020a0391821691161490565b600192915050565b60008083118015612b4c5750600182115b8015612bf5575082840285600160a060020a0316311080612bf55750604080517fd6eb1bbf0000000000000000000000000000000000000000000000000000000081523060048201529051600160a060020a0387169163d6eb1bbf916024808301926020929190829003018186803b158015612bc757600080fd5b505afa158015612bdb573d6000803e3d6000fd5b505050506040513d6020811015612bf157600080fd5b5051155b15612c0257506000610baf565b506001949350505050565b600080612c1c848460006139df565b9050612c288682612782565b9695505050505050565b61726c8501600085118015612c475750600183115b8015612c535750838111155b15610d72573a851115612c67573a02612c6a565b84025b612c8687838360206040519081016040528060008152506136f4565b5050505050505050565b6115c884848484613a89565b600081600160a060020a031663fcfff16f6040518163ffffffff1660e060020a028152600401602060405180830381600087803b158015612cdc57600080fd5b505af1158015612cf0573d6000803e3d6000fd5b505050506040513d6020811015612d0657600080fd5b5051604080517fbaa8529c00000000000000000000000000000000000000000000000000000000815260048101839052600160a060020a03888116602483015291519293509084169163baa8529c9160448082019260009290919082900301818387803b158015612d7657600080fd5b505af1158015612d8a573d6000803e3d6000fd5b50505050612d9a85828685613df8565b6000831115610baf57604080517f6472617728627974657333322c75696e7432353629000000000000000000000081528151908190036015018120602482018490526044808301879052835180840390910181526064909201909252602081018051600160e060020a0316600160e060020a031990931692909217909152612e2890869084906000906136f4565b50949350505050565b80600160a060020a031663de5f5517846040518263ffffffff1660e060020a0281526004018082815260200191505060206040518083038186803b158015612e7857600080fd5b505afa158015612e8c573d6000803e3d6000fd5b505050506040513d6020811015612ea257600080fd5b5051600160a060020a03858116911614612f06576040805160e560020a62461bcd02815260206004820152601160248201527f434d3a206e6f7420434450206f776e6572000000000000000000000000000000604482015290519081900360640190fd5b6115c884848484613df8565b81600160a060020a031663de5f5517856040518263ffffffff1660e060020a0281526004018082815260200191505060206040518083038186803b158015612f5957600080fd5b505afa158015612f6d573d6000803e3d6000fd5b505050506040513d6020811015612f8357600080fd5b5051600160a060020a03868116911614612fe7576040805160e560020a62461bcd02815260206004820152601160248201527f434d3a206e6f7420434450206f776e6572000000000000000000000000000000604482015290519081900360640190fd5b6000612ff4858585611039565b9050600083600160a060020a03166312d43a516040518163ffffffff1660e060020a02815260040160206040518083038186803b15801561303457600080fd5b505afa158015613048573d6000803e3d6000fd5b505050506040513d602081101561305e57600080fd5b5051604080517f70a08231000000000000000000000000000000000000000000000000000000008152600160a060020a038a811660048301529151929350600092918416916370a0823191602480820192602092909190829003018186803b1580156130c957600080fd5b505afa1580156130dd573d6000803e3d6000fd5b505050506040513d60208110156130f357600080fd5b505190508281101561328e57600084600160a060020a03166306f2bf62846040518263ffffffff1660e060020a0281526004018082600160a060020a0316600160a060020a0316815260200191505060206040518083038186803b15801561315a57600080fd5b505afa15801561316e573d6000803e3d6000fd5b505050506040513d602081101561318457600080fd5b5051604080517f59e9486200000000000000000000000000000000000000000000000000000000815284870360048201529051919250600091600160a060020a038416916359e94862916024808301926020929190829003018186803b1580156131ed57600080fd5b505afa158015613201573d6000803e3d6000fd5b505050506040513d602081101561321757600080fd5b505160405190915061328a908b908490849080602561425a8239604080519182900360250182208a8d03602484015242604480850191909152825180850390910181526064909301909152602082018051600160e060020a0316600160e060020a031990921691909117905290506136f4565b5050505b600085600160a060020a0316639166cba46040518163ffffffff1660e060020a02815260040160206040518083038186803b1580156132cc57600080fd5b505afa1580156132e0573d6000803e3d6000fd5b505050506040513d60208110156132f657600080fd5b5051604080517f70a08231000000000000000000000000000000000000000000000000000000008152600160a060020a038c811660048301529151929350600092918416916370a0823191602480820192602092909190829003018186803b15801561336157600080fd5b505afa158015613375573d6000803e3d6000fd5b505050506040513d602081101561338b57600080fd5b505190508781101561352d57600086600160a060020a03166306f2bf62846040518263ffffffff1660e060020a0281526004018082600160a060020a0316600160a060020a0316815260200191505060206040518083038186803b1580156133f257600080fd5b505afa158015613406573d6000803e3d6000fd5b505050506040513d602081101561341c57600080fd5b5051604080517f59e94862000000000000000000000000000000000000000000000000000000008152848c0360048201529051919250600091600160a060020a038416916359e94862916024808301926020929190829003018186803b15801561348557600080fd5b505afa158015613499573d6000803e3d6000fd5b505050506040513d60208110156134af57600080fd5b5051604051909150613529908d908490849080602561425a823960250190506040518091039020878f0342604051602401808381526020018281526020019250505060405160208183030381529060405290600160e060020a031916602082018051600160e060020a0383818316178352505050506136f4565b5050505b6040805160008051602061423a83398151915281528151908190036018018120600160a060020a038a16602483015260448083018c9052835180840390910181526064909201909252602081018051600160e060020a0316600160e060020a0319909316929092179091526135a8908b9084906000906136f4565b506040805160008051602061423a83398151915281528151908190036018018120600160a060020a038a1660248301526044808301899052835180840390910181526064909201909252602081018051600160e060020a0316600160e060020a031990931692909217909152613624908b9086906000906136f4565b50604080517f7769706528627974657333322c75696e7432353629000000000000000000000081528151908190036015018120602482018c905260448083018c9052835180840390910181526064909201909252602081018051600160e060020a0316600160e060020a0319909316929092179091526136aa908b9089906000906136f4565b5050505050505050505050565b60008215156136c857506000610743565b8282028284828115156136d757fe5b04146107aa57600080fd5b6000828201838110156107aa57600080fd5b6060600085600160a060020a03168585856040516024018084600160a060020a0316600160a060020a0316815260200183815260200180602001828103825283818151815260200191508051906020019080838360005b8381101561376357818101518382015260200161374b565b50505050905090810190601f1680156137905780820380516001836020036101000a031916815260200191505b5060408051601f19818403018152918152602082018051600160e060020a03167f8f6f033200000000000000000000000000000000000000000000000000000000178152905182519297509550859450925090508083835b602083106138075780518252601f1990920191602091820191016137e8565b6001836020036101000a0380198251168184511680821785525050505050509050019150506000604051808303816000865af19150503d8060008114613869576040519150601f19603f3d011682016040523d82523d6000602084013e61386e565b606091505b5092509050808015613881575060008251115b156138ee5781806020019051602081101561389b57600080fd5b8101908080516401000000008111156138b357600080fd5b820160208101848111156138c657600080fd5b81516401000000008111828201871017156138e057600080fd5b50909550612e289350505050565b600082511115613902573d6000803e3d6000fd5b801515612e28576040805160e560020a62461bcd02815260206004820152601a60248201527f424d3a2077616c6c657420696e766f6b65207265766572746564000000000000604482015290519081900360640190fd5b600160a060020a038216600090815260026020526040812054821161398057506000610743565b7001000000000000000000000000000000006fffffffffffffffffffffffffffffffff1983160443612710018111156139bd576000915050610743565b5050600160a060020a0391909116600090815260026020526040902055600190565b6041808202830160208101516040820151919092015160009260ff9190911691601b831480613a1157508260ff16601c145b1515613a1c57600080fd5b604080516000815260208082018084528a905260ff8616828401526060820185905260808201849052915160019260a0808401939192601f1981019281900390910190855afa158015613a73573d6000803e3d6000fd5b5050604051601f19015198975050505050505050565b604080517f6672656528627974657333322c75696e7432353629000000000000000000000081528151908190036015018120602482018690526044808301869052835180840390910181526064909201909252602081018051600160e060020a0316600160e060020a031990931692909217909152613b0e90859083906000906136f4565b50600081600160a060020a0316637bd2bea76040518163ffffffff1660e060020a02815260040160206040518083038186803b158015613b4d57600080fd5b505afa158015613b61573d6000803e3d6000fd5b505050506040513d6020811015613b7757600080fd5b5051604080517f0f8a771e0000000000000000000000000000000000000000000000000000000081529051919250600091600160a060020a03851691630f8a771e916004808301926020929190829003018186803b158015613bd857600080fd5b505afa158015613bec573d6000803e3d6000fd5b505050506040513d6020811015613c0257600080fd5b50516040805160008051602061423a83398151915281528151908190036018018120600160a060020a03871660248301526044808301899052835180840390910181526064909201909252602081018051600160e060020a0316600160e060020a031990931692909217909152909150613c8290879083906000906136f4565b50604080517f657869742875696e7432353629000000000000000000000000000000000000008152815190819003600d0181206024808301889052835180840390910181526044909201909252602081018051600160e060020a0316600160e060020a031990931692909217909152613d0190879085906000906136f4565b50600083600160a060020a031663454a2ab3866040518263ffffffff1660e060020a0281526004018082815260200191505060206040518083038186803b158015613d4b57600080fd5b505afa158015613d5f573d6000803e3d6000fd5b505050506040513d6020811015613d7557600080fd5b5051604080517f77697468647261772875696e7432353629000000000000000000000000000000815281519081900360110181206024808301859052835180840390910181526044909201909252602081018051600160e060020a0316600160e060020a031990931692909217909152909150612c8690889085906000906136f4565b600081600160a060020a0316637bd2bea76040518163ffffffff1660e060020a02815260040160206040518083038186803b158015613e3657600080fd5b505afa158015613e4a573d6000803e3d6000fd5b505050506040513d6020811015613e6057600080fd5b5051604080517fe47e7e66000000000000000000000000000000000000000000000000000000008152600481018690529051919250600091600160a060020a0385169163e47e7e66916024808301926020929190829003018186803b158015613ec857600080fd5b505afa158015613edc573d6000803e3d6000fd5b505050506040513d6020811015613ef257600080fd5b5051604080517f6465706f73697428290000000000000000000000000000000000000000000000815281519081900360090181206004825260248201909252602081018051600160e060020a0316600160e060020a031990931692909217909152909150613f65908790849084906136f4565b506040805160008051602061423a83398151915281528151908190036018018120600160a060020a03861660248301526044808301859052835180840390910181526064909201909252602081018051600160e060020a0316600160e060020a031990931692909217909152613fe190879084906000906136f4565b50604080517f6a6f696e2875696e7432353629000000000000000000000000000000000000008152815190819003600d0181206024808301889052835180840390910181526044909201909252602081018051600160e060020a0316600160e060020a03199093169290921790915261406090879085906000906136f4565b50600083600160a060020a0316630f8a771e6040518163ffffffff1660e060020a02815260040160206040518083038186803b15801561409f57600080fd5b505afa1580156140b3573d6000803e3d6000fd5b505050506040513d60208110156140c957600080fd5b50516040805160008051602061423a83398151915281528151908190036018018120600160a060020a038816602483015260448083018a9052835180840390910181526064909201909252602081018051600160e060020a0316600160e060020a03199093169290921790915290915061414990889083906000906136f4565b50604080517f6c6f636b28627974657333322c75696e7432353629000000000000000000000081528151908190036015018120602482018990526044808301899052835180840390910181526064909201909252602081018051600160e060020a0316600160e060020a031990931692909217909152612c8690889086906000906136f456fe524d3a207468652077616c6c657420617574686f72697a656420697320646966666572656e74207468656e2074686520746172676574206f66207468652072656c617965642064617461424d3a2077616c6c6574206d75737420626520756e6c6f636b65640000000000617070726f766528616464726573732c75696e74323536290000000000000000657468546f546f6b656e537761704f75747075742875696e743235362c75696e7432353629424d3a206d75737420626520616e206f776e657220666f72207468652077616c6c6574a165627a7a7230582013cb281488256903cfacb5dd3440d17cbc7c88a676dbfac594b16be0f9cc142a0029",
  "source": "pragma solidity ^0.5.4;\n\nimport \"../utils/SafeMath.sol\";\nimport \"../wallet/BaseWallet.sol\";\nimport \"./common/BaseModule.sol\";\nimport \"./common/RelayerModule.sol\";\nimport \"./common/OnlyOwnerModule.sol\";\nimport \"../defi/Loan.sol\";\n\n// Interface to MakerDAO's Tub contract, used to manage CDPs\ncontract IMakerCdp {\n    IDSValue  public pep; // MKR price feed\n    IMakerVox public vox; // DAI price feed\n\n    function sai() external view returns (address);  // DAI\n    function skr() external view returns (address);  // PETH\n    function gem() external view returns (address);  // WETH\n    function gov() external view returns (address);  // MKR\n\n    function lad(bytes32 cup) external view returns (address);\n    function ink(bytes32 cup) external view returns (uint);\n    function tab(bytes32 cup) external returns (uint);\n    function rap(bytes32 cup) external returns (uint);\n\n    function tag() public view returns (uint wad);\n    function mat() public view returns (uint ray);\n    function per() public view returns (uint ray);\n    function safe(bytes32 cup) external returns (bool);\n    function ask(uint wad) public view returns (uint);\n    function bid(uint wad) public view returns (uint);\n\n    function open() external returns (bytes32 cup);\n    function join(uint wad) external; // Join PETH\n    function exit(uint wad) external; // Exit PETH\n    function give(bytes32 cup, address guy) external;\n    function lock(bytes32 cup, uint wad) external;\n    function free(bytes32 cup, uint wad) external;\n    function draw(bytes32 cup, uint wad) external;\n    function wipe(bytes32 cup, uint wad) external;\n    function shut(bytes32 cup) external;\n    function bite(bytes32 cup) external;\n}\n\ninterface IMakerVox {\n    function par() external returns (uint);\n}\n\ninterface IDSValue {\n    function peek() external view returns (bytes32, bool);\n    function read() external view returns (bytes32);\n    function poke(bytes32 wut) external;\n    function void() external;\n} \n\ninterface IUniswapFactory {\n    function getExchange(address _token) external view returns(address);\n}\n\ninterface IUniswapExchange {\n    function getEthToTokenOutputPrice(uint256 _tokens_bought) external view returns (uint256);\n    function getEthToTokenInputPrice(uint256 _eth_sold) external view returns (uint256);\n    function getTokenToEthOutputPrice(uint256 _eth_bought) external view returns (uint256);\n    function getTokenToEthInputPrice(uint256 _tokens_sold) external view returns (uint256);\n}\n\n\n/**\n * @title MakerManager\n * @dev Module to borrow tokens with MakerDAO\n * @author Olivier VDB - <olivier@argent.xyz>, Julien Niset - <julien@argent.xyz>\n */\ncontract MakerManager is Loan, BaseModule, RelayerModule, OnlyOwnerModule {\n\n    bytes32 constant NAME = \"MakerManager\";\n\n    // The Maker Tub contract\n    IMakerCdp public makerCdp;\n    // The Uniswap Factory contract\n    IUniswapFactory public uniswapFactory;\n\n    // Mock token address for ETH\n    address constant internal ETH_TOKEN_ADDRESS = 0xEeeeeEeeeEeEeeEeEeEeeEEEeeeeEeeeeeeeEEeE;\n\n    // Method signatures to reduce gas cost at depoyment\n    bytes4 constant internal CDP_DRAW = bytes4(keccak256(\"draw(bytes32,uint256)\"));\n    bytes4 constant internal CDP_WIPE = bytes4(keccak256(\"wipe(bytes32,uint256)\"));\n    bytes4 constant internal CDP_SHUT = bytes4(keccak256(\"shut(bytes32)\"));\n    bytes4 constant internal CDP_JOIN = bytes4(keccak256(\"join(uint256)\"));\n    bytes4 constant internal CDP_LOCK = bytes4(keccak256(\"lock(bytes32,uint256)\"));\n    bytes4 constant internal CDP_FREE = bytes4(keccak256(\"free(bytes32,uint256)\"));\n    bytes4 constant internal CDP_EXIT = bytes4(keccak256(\"exit(uint256)\"));\n    bytes4 constant internal WETH_DEPOSIT = bytes4(keccak256(\"deposit()\"));\n    bytes4 constant internal WETH_WITHDRAW = bytes4(keccak256(\"withdraw(uint256)\"));\n    bytes4 constant internal ERC20_APPROVE = bytes4(keccak256(\"approve(address,uint256)\"));\n    bytes4 constant internal ETH_TOKEN_SWAP_OUTPUT = bytes4(keccak256(\"ethToTokenSwapOutput(uint256,uint256)\"));\n    bytes4 constant internal ETH_TOKEN_SWAP_INPUT = bytes4(keccak256(\"ethToTokenSwapInput(uint256,uint256)\"));\n    bytes4 constant internal TOKEN_ETH_SWAP_INPUT = bytes4(keccak256(\"tokenToEthSwapInput(uint256,uint256,uint256)\"));\n\n    using SafeMath for uint256;\n\n    constructor(\n        ModuleRegistry _registry,\n        GuardianStorage _guardianStorage,\n        IMakerCdp _makerCdp,\n        IUniswapFactory _uniswapFactory\n    )\n        BaseModule(_registry, _guardianStorage, NAME)\n        public\n    {\n        makerCdp = _makerCdp;\n        uniswapFactory = _uniswapFactory;\n    }\n\n    /* ********************************** Implementation of Loan ************************************* */\n\n   /**\n     * @dev Opens a collateralized loan.\n     * @param _wallet The target wallet.\n     * @param _collateral The token used as a collateral (must be 0xEeeeeEeeeEeEeeEeEeEeeEEEeeeeEeeeeeeeEEeE).\n     * @param _collateralAmount The amount of collateral token provided.\n     * @param _debtToken The token borrowed (must be the address of the DAI contract).\n     * @param _debtAmount The amount of tokens borrowed.\n     * @return The ID of the created CDP.\n     */\n    function openLoan(\n        BaseWallet _wallet,\n        address _collateral,\n        uint256 _collateralAmount,\n        address _debtToken,\n        uint256 _debtAmount\n    )\n        external\n        onlyWalletOwner(_wallet)\n        onlyWhenUnlocked(_wallet)\n        returns (bytes32 _loanId)\n    {\n        require(_collateral == ETH_TOKEN_ADDRESS, \"Maker: collateral must be ETH\");\n        require(_debtToken == makerCdp.sai(), \"Maker: debt token must be DAI\");\n        _loanId = openCdp(_wallet, _collateralAmount, _debtAmount, makerCdp);\n        emit LoanOpened(address(_wallet), _loanId, _collateral, _collateralAmount, _debtToken, _debtAmount);\n    }\n\n    /**\n     * @dev Closes a collateralized loan by repaying all debts (plus interest) and redeeming all collateral (plus interest).\n     * @param _wallet The target wallet.\n     * @param _loanId The ID of the target CDP.\n     */\n    function closeLoan(\n        BaseWallet _wallet,\n        bytes32 _loanId\n    )\n        external\n        onlyWalletOwner(_wallet)\n        onlyWhenUnlocked(_wallet)\n    {\n        closeCdp(_wallet, _loanId, makerCdp, uniswapFactory);\n        emit LoanClosed(address(_wallet), _loanId);\n    }\n\n    /**\n     * @dev Adds collateral to a loan identified by its ID.\n     * @param _wallet The target wallet.\n     * @param _loanId The ID of the target CDP.\n     * @param _collateral The token used as a collateral (must be 0xEeeeeEeeeEeEeeEeEeEeeEEEeeeeEeeeeeeeEEeE).\n     * @param _collateralAmount The amount of collateral to add.\n     */\n    function addCollateral(\n        BaseWallet _wallet,\n        bytes32 _loanId,\n        address _collateral,\n        uint256 _collateralAmount\n    )\n        external\n        onlyWalletOwner(_wallet)\n        onlyWhenUnlocked(_wallet)\n    {\n        require(_collateral == ETH_TOKEN_ADDRESS, \"Maker: collateral must be ETH\");\n        addCollateral(_wallet, _loanId, _collateralAmount, makerCdp);\n        emit CollateralAdded(address(_wallet), _loanId, _collateral, _collateralAmount);\n    }\n\n    /**\n     * @dev Removes collateral from a loan identified by its ID.\n     * @param _wallet The target wallet.\n     * @param _loanId The ID of the target CDP.\n     * @param _collateral The token used as a collateral (must be 0xEeeeeEeeeEeEeeEeEeEeeEEEeeeeEeeeeeeeEEeE).\n     * @param _collateralAmount The amount of collateral to remove.\n     */\n    function removeCollateral(\n        BaseWallet _wallet,\n        bytes32 _loanId,\n        address _collateral,\n        uint256 _collateralAmount\n    )\n        external\n        onlyWalletOwner(_wallet)\n        onlyWhenUnlocked(_wallet)\n    {\n        require(_collateral == ETH_TOKEN_ADDRESS, \"Maker: collateral must be ETH\");\n        removeCollateral(_wallet, _loanId, _collateralAmount, makerCdp);\n        emit CollateralRemoved(address(_wallet), _loanId, _collateral, _collateralAmount);\n    }\n\n    /**\n     * @dev Increases the debt by borrowing more token from a loan identified by its ID.\n     * @param _wallet The target wallet.\n     * @param _loanId The ID of the target CDP.\n     * @param _debtToken The token borrowed (must be the address of the DAI contract).\n     * @param _debtAmount The amount of token to borrow.\n     */\n    function addDebt(\n        BaseWallet _wallet,\n        bytes32 _loanId,\n        address _debtToken,\n        uint256 _debtAmount\n    )\n        external\n        onlyWalletOwner(_wallet)\n        onlyWhenUnlocked(_wallet)\n    {\n        require(_debtToken == makerCdp.sai(), \"Maker: debt token must be DAI\");\n        addDebt(_wallet, _loanId, _debtAmount, makerCdp);\n        emit DebtAdded(address(_wallet), _loanId, _debtToken, _debtAmount);\n    }\n\n    /**\n     * @dev Decreases the debt by repaying some token from a loan identified by its ID.\n     * @param _wallet The target wallet.\n     * @param _loanId The ID of the target CDP.\n     * @param _debtToken The token to repay (must be the address of the DAI contract).\n     * @param _debtAmount The amount of token to repay.\n     */\n    function removeDebt(\n        BaseWallet _wallet,\n        bytes32 _loanId,\n        address _debtToken,\n        uint256 _debtAmount\n    )\n        external\n        onlyWalletOwner(_wallet)\n        onlyWhenUnlocked(_wallet)\n    {\n        require(_debtToken == makerCdp.sai(), \"Maker: debt token must be DAI\");\n        removeDebt(_wallet, _loanId, _debtAmount, makerCdp, uniswapFactory);\n        emit DebtRemoved(address(_wallet), _loanId, _debtToken, _debtAmount);\n    }\n\n    /**\n     * @dev Gets information about a loan identified by its ID.\n     * @param _loanId The ID of the target CDP.\n     * @return a status [0: no loan, 1: loan is safe, 2: loan is unsafe and can be liquidated, 3: loan exists but we are unable to provide info]\n     * and a value (in ETH) representing the value that could still be borrowed when status = 1; or the value of the collateral that should be added to\n     * avoid liquidation when status = 2.\n     */\n    function getLoan(\n        BaseWallet /* _wallet */,\n        bytes32 _loanId\n    )\n        external\n        view\n        returns (uint8 _status, uint256 _ethValue)\n    {\n        if(exists(_loanId, makerCdp)) {\n            return (3,0);\n        }\n        return (0,0);\n    }\n\n    /* *********************************** Maker wrappers ************************************* */\n\n    /* CDP actions */\n\n    /**\n     * @dev Lets the owner of a wallet open a new CDP. The owner must have enough ether\n     * in their wallet. The required amount of ether will be automatically converted to\n     * PETH and used as collateral in the CDP.\n     * @param _wallet The target wallet\n     * @param _pethCollateral The amount of PETH to lock as collateral in the CDP.\n     * @param _daiDebt The amount of DAI to draw from the CDP\n     * @param _makerCdp The Maker CDP contract\n     * @return The id of the created CDP.\n     */\n    function openCdp(\n        BaseWallet _wallet,\n        uint256 _pethCollateral,\n        uint256 _daiDebt,\n        IMakerCdp _makerCdp\n    )\n        internal\n        returns (bytes32 _cup)\n    {\n        // Open CDP (CDP owner will be module)\n        _cup = _makerCdp.open();\n        // Transfer CDP ownership to wallet\n        _makerCdp.give(_cup, address(_wallet));\n        // Convert ETH to PETH & lock PETH into CDP\n        lockETH(_wallet, _cup, _pethCollateral, _makerCdp);\n        // Draw DAI from CDP\n        if(_daiDebt > 0) {\n            invokeWallet(address(_wallet), address(_makerCdp), 0, abi.encodeWithSelector(CDP_DRAW, _cup, _daiDebt));\n        }\n    }\n\n    /**\n     * @dev Lets the owner of a CDP add more collateral to their CDP. The owner must have enough ether\n     * in their wallet. The required amount of ether will be automatically converted to\n     * PETH and locked in the CDP.\n     * @param _wallet The target wallet\n     * @param _cup The id of the CDP.\n     * @param _amount The amount of additional PETH to lock as collateral in the CDP.\n     * @param _makerCdp The Maker CDP contract\n     */\n    function addCollateral(\n        BaseWallet _wallet,\n        bytes32 _cup,\n        uint256 _amount,\n        IMakerCdp _makerCdp\n    )\n        internal\n    {\n        // _wallet must be owner of CDP\n        require(address(_wallet) == _makerCdp.lad(_cup), \"CM: not CDP owner\");\n        // convert ETH to PETH & lock PETH into CDP\n        lockETH(_wallet, _cup, _amount, _makerCdp);\n    }\n\n    /**\n     * @dev Lets the owner of a CDP remove some collateral from their CDP\n     * @param _wallet The target wallet\n     * @param _cup The id of the CDP.\n     * @param _amount The amount of PETH to remove from the CDP.\n     * @param _makerCdp The Maker CDP contract\n     */\n    function removeCollateral(\n        BaseWallet _wallet,\n        bytes32 _cup,\n        uint256 _amount,\n        IMakerCdp _makerCdp\n    )\n        internal\n    {\n        // unlock PETH from CDP & convert PETH to ETH\n        freeETH(_wallet, _cup, _amount, _makerCdp);\n    }\n\n    /**\n     * @dev Lets the owner of a CDP draw more DAI from their CDP.\n     * @param _wallet The target wallet\n     * @param _cup The id of the CDP.\n     * @param _amount The amount of additional DAI to draw from the CDP.\n     * @param _makerCdp The Maker CDP contract\n     */\n    function addDebt(\n        BaseWallet _wallet,\n        bytes32 _cup,\n        uint256 _amount,\n        IMakerCdp _makerCdp\n    )\n        internal\n    {\n        // draw DAI from CDP\n        invokeWallet(address(_wallet), address(_makerCdp), 0, abi.encodeWithSelector(CDP_DRAW, _cup, _amount));\n    }\n\n    /**\n     * @dev Lets the owner of a CDP partially repay their debt. The repayment is made up of\n     * the outstanding DAI debt (including the stability fee if non-zero) plus the MKR governance fee.\n     * The method will use the user's MKR tokens in priority and will, if needed, convert the required\n     * amount of ETH to cover for any missing MKR tokens.\n     * @param _wallet The target wallet\n     * @param _cup The id of the CDP.\n     * @param _amount The amount of DAI debt to repay.\n     * @param _makerCdp The Maker CDP contract\n     * @param _uniswapFactory The Uniswap Factory contract.\n     */\n    function removeDebt(\n        BaseWallet _wallet,\n        bytes32 _cup,\n        uint256 _amount,\n        IMakerCdp _makerCdp,\n        IUniswapFactory _uniswapFactory\n    )\n        internal\n    {\n        // _wallet must be owner of CDP\n        require(address(_wallet) == _makerCdp.lad(_cup), \"CM: not CDP owner\");\n        // get governance fee in MKR\n        uint256 mkrFee = governanceFeeInMKR(_cup, _amount, _makerCdp);\n        // get MKR balance\n        address mkrToken = _makerCdp.gov();\n        uint256 mkrBalance = ERC20(mkrToken).balanceOf(address(_wallet));\n        if (mkrBalance < mkrFee) {\n            // Not enough MKR => Convert some ETH into MKR with Uniswap\n            address mkrUniswap = _uniswapFactory.getExchange(mkrToken);\n            uint256 etherValueOfMKR = IUniswapExchange(mkrUniswap).getEthToTokenOutputPrice(mkrFee - mkrBalance);\n            invokeWallet(address(_wallet), mkrUniswap, etherValueOfMKR, abi.encodeWithSelector(ETH_TOKEN_SWAP_OUTPUT, mkrFee - mkrBalance, block.timestamp));\n        }\n        \n        // get DAI balance\n        address daiToken =_makerCdp.sai();\n        uint256 daiBalance = ERC20(daiToken).balanceOf(address(_wallet));\n        if (daiBalance < _amount) {\n            // Not enough DAI => Convert some ETH into DAI with Uniswap\n            address daiUniswap = _uniswapFactory.getExchange(daiToken);\n            uint256 etherValueOfDAI = IUniswapExchange(daiUniswap).getEthToTokenOutputPrice(_amount - daiBalance);\n            invokeWallet(address(_wallet), daiUniswap, etherValueOfDAI, abi.encodeWithSelector(ETH_TOKEN_SWAP_OUTPUT, _amount - daiBalance, block.timestamp));\n        }\n\n        // Approve DAI to let wipe() repay the DAI debt\n        invokeWallet(address(_wallet), daiToken, 0, abi.encodeWithSelector(ERC20_APPROVE, address(_makerCdp), _amount));\n        // Approve MKR to let wipe() pay the MKR governance fee\n        invokeWallet(address(_wallet), mkrToken, 0, abi.encodeWithSelector(ERC20_APPROVE, address(_makerCdp), mkrFee));\n        // repay DAI debt and MKR governance fee\n        invokeWallet(address(_wallet), address(_makerCdp), 0, abi.encodeWithSelector(CDP_WIPE, _cup, _amount));\n    }\n\n    /**\n     * @dev Lets the owner of a CDP close their CDP. The method will 1) repay all debt\n     * and governance fee, 2) free all collateral, and 3) delete the CDP.\n     * @param _wallet The target wallet\n     * @param _cup The id of the CDP.\n     * @param _makerCdp The Maker CDP contract\n     * @param _uniswapFactory The Uniswap Factory contract.\n     */\n    function closeCdp(\n        BaseWallet _wallet,\n        bytes32 _cup,\n        IMakerCdp _makerCdp,\n        IUniswapFactory _uniswapFactory\n    )\n        internal\n    {\n        // repay all debt (in DAI) + stability fee (in DAI) + governance fee (in MKR)\n        uint debt = daiDebt(_cup, _makerCdp);\n        if(debt > 0) removeDebt(_wallet, _cup, debt, _makerCdp, _uniswapFactory);\n        // free all ETH collateral\n        uint collateral = pethCollateral(_cup, _makerCdp);\n        if(collateral > 0) removeCollateral(_wallet, _cup, collateral, _makerCdp);\n        // shut the CDP\n        invokeWallet(address(_wallet), address(_makerCdp), 0, abi.encodeWithSelector(CDP_SHUT, _cup));\n    }\n\n    /* Convenience methods */\n\n    /**\n     * @dev Returns the amount of PETH collateral locked in a CDP.\n     * @param _cup The id of the CDP.\n     * @param _makerCdp The Maker CDP contract\n     * @return the amount of PETH locked in the CDP.\n     */\n    function pethCollateral(bytes32 _cup, IMakerCdp _makerCdp) public view returns (uint256) {\n        return _makerCdp.ink(_cup);\n    }\n\n    /**\n     * @dev Returns the amount of DAI debt (including the stability fee if non-zero) drawn from a CDP.\n     * @param _cup The id of the CDP.\n     * @param _makerCdp The Maker CDP contract\n     * @return the amount of DAI drawn from the CDP.\n     */\n    function daiDebt(bytes32 _cup, IMakerCdp _makerCdp) public returns (uint256) {\n        return _makerCdp.tab(_cup);\n    }\n\n    /**\n     * @dev Indicates whether a CDP is above the liquidation ratio.\n     * @param _cup The id of the CDP.\n     * @param _makerCdp The Maker CDP contract\n     * @return false if the CDP is in danger of being liquidated.\n     */\n    function isSafe(bytes32 _cup, IMakerCdp _makerCdp) public returns (bool) {\n        return _makerCdp.safe(_cup);\n    }\n\n    /**\n     * @dev Checks if a CDP exists.\n     * @param _cup The id of the CDP.\n     * @param _makerCdp The Maker CDP contract\n     * @return true if the CDP exists, false otherwise.\n     */\n    function exists(bytes32 _cup, IMakerCdp _makerCdp) public view returns (bool) {\n        return _makerCdp.lad(_cup) != address(0);\n    }\n\n    /**\n     * @dev Max amount of DAI that can still be drawn from a CDP while keeping it above the liquidation ratio. \n     * @param _cup The id of the CDP.\n     * @param _makerCdp The Maker CDP contract\n     * @return the amount of DAI that can still be drawn from a CDP while keeping it above the liquidation ratio. \n     */\n    function maxDaiDrawable(bytes32 _cup, IMakerCdp _makerCdp) public returns (uint256) {\n        uint256 maxTab = _makerCdp.ink(_cup).rmul(_makerCdp.tag()).rdiv(_makerCdp.vox().par()).rdiv(_makerCdp.mat());\n        return maxTab.sub(_makerCdp.tab(_cup));\n    }\n\n    /**\n     * @dev Min amount of collateral that needs to be added to a CDP to bring it above the liquidation ratio.\n     * @param _cup The id of the CDP.\n     * @param _makerCdp The Maker CDP contract\n     * @return the amount of collateral that needs to be added to a CDP to bring it above the liquidation ratio.\n     */\n    function minCollateralRequired(bytes32 _cup, IMakerCdp _makerCdp) public returns (uint256) {\n        uint256 minInk = _makerCdp.tab(_cup).rmul(_makerCdp.mat()).rmul(_makerCdp.vox().par()).rdiv(_makerCdp.tag());\n        return minInk.sub(_makerCdp.ink(_cup));\n    }\n\n    /**\n     * @dev Returns the governance fee in MKR.\n     * @param _cup The id of the CDP.\n     * @param _daiRefund The amount of DAI debt being repaid.\n     * @param _makerCdp The Maker CDP contract\n     * @return the governance fee in MKR\n     */\n    function governanceFeeInMKR(bytes32 _cup, uint256 _daiRefund, IMakerCdp _makerCdp) public returns (uint256 _fee) {\n        uint debt = daiDebt(_cup, _makerCdp);\n        if (debt == 0) return 0;\n        uint256 feeInDAI = _daiRefund.rmul(_makerCdp.rap(_cup).rdiv(debt));\n        (bytes32 daiPerMKR, bool ok) = _makerCdp.pep().peek();\n        if (ok && daiPerMKR != 0) _fee = feeInDAI.wdiv(uint(daiPerMKR));\n    }\n\n    /**\n     * @dev Returns the total MKR governance fee to be paid before this CDP can be closed.\n     * @param _cup The id of the CDP.\n     * @param _makerCdp The Maker CDP contract\n     * @return the total governance fee in MKR\n     */\n    function totalGovernanceFeeInMKR(bytes32 _cup, IMakerCdp _makerCdp) external returns (uint256 _fee) {\n        return governanceFeeInMKR(_cup, daiDebt(_cup, _makerCdp), _makerCdp);\n    }\n\n    /**\n     * @dev Minimum amount of PETH that must be locked in a CDP for it to be deemed \"safe\"\n     * @param _cup The id of the CDP.\n     * @param _makerCdp The Maker CDP contract\n     * @return The minimum amount of PETH to lock in the CDP\n     */\n    function minRequiredCollateral(bytes32 _cup, IMakerCdp _makerCdp) public returns (uint256 _minCollateral) {\n        _minCollateral = daiDebt(_cup, _makerCdp)    // DAI debt\n            .rmul(_makerCdp.vox().par())         // x ~1 USD/DAI\n            .rmul(_makerCdp.mat())               // x 1.5\n            .rmul(1010000000000000000000000000) // x (1+1%) cushion\n            .rdiv(_makerCdp.tag());              //  ~170 USD/PETH\n    }\n\n    /* *********************************** Utilities ************************************* */\n\n    /**\n     * @dev Converts a user's ETH into PETH and locks the PETH in a CDP\n     * @param _wallet The target wallet\n     * @param _cup The id of the CDP.\n     * @param _pethAmount The amount of PETH to buy and lock\n     * @param _makerCdp The Maker CDP contract\n     */\n    function lockETH(\n        BaseWallet _wallet,\n        bytes32 _cup,\n        uint256 _pethAmount,\n        IMakerCdp _makerCdp\n    )\n        internal\n    {\n        // 1. Convert ETH to PETH\n        address wethToken = _makerCdp.gem();\n        // Get WETH/PETH rate\n        uint ethAmount = _makerCdp.ask(_pethAmount);\n        // ETH to WETH\n        invokeWallet(address(_wallet), wethToken, ethAmount, abi.encodeWithSelector(WETH_DEPOSIT));\n        // Approve WETH\n        invokeWallet(address(_wallet), wethToken, 0, abi.encodeWithSelector(ERC20_APPROVE, address(_makerCdp), ethAmount));\n        // WETH to PETH\n        invokeWallet(address(_wallet), address(_makerCdp), 0, abi.encodeWithSelector(CDP_JOIN, _pethAmount));\n\n        // 2. Lock PETH into CDP\n        address pethToken = _makerCdp.skr();\n        // Approve PETH\n        invokeWallet(address(_wallet), pethToken, 0, abi.encodeWithSelector(ERC20_APPROVE, address(_makerCdp), _pethAmount));\n        // lock PETH into CDP\n        invokeWallet(address(_wallet), address(_makerCdp), 0, abi.encodeWithSelector(CDP_LOCK, _cup, _pethAmount));\n    }\n\n    /**\n     * @dev Unlocks PETH from a user's CDP and converts it back to ETH\n     * @param _wallet The target wallet\n     * @param _cup The id of the CDP.\n     * @param _pethAmount The amount of PETH to unlock and sell\n     * @param _makerCdp The Maker CDP contract\n     */\n    function freeETH(\n        BaseWallet _wallet,\n        bytes32 _cup,\n        uint256 _pethAmount,\n        IMakerCdp _makerCdp\n    )\n        internal\n    {\n        // 1. Unlock PETH\n\n        // Unlock PETH from CDP\n        invokeWallet(address(_wallet), address(_makerCdp), 0, abi.encodeWithSelector(CDP_FREE, _cup, _pethAmount));\n\n        // 2. Convert PETH to ETH\n        address wethToken = _makerCdp.gem();\n        address pethToken = _makerCdp.skr();\n        // Approve PETH\n        invokeWallet(address(_wallet), pethToken, 0, abi.encodeWithSelector(ERC20_APPROVE, address(_makerCdp), _pethAmount));\n        // PETH to WETH\n        invokeWallet(address(_wallet), address(_makerCdp), 0, abi.encodeWithSelector(CDP_EXIT, _pethAmount));\n        // Get WETH/PETH rate\n        uint ethAmount = _makerCdp.bid(_pethAmount);\n        // WETH to ETH\n        invokeWallet(address(_wallet), wethToken, 0, abi.encodeWithSelector(WETH_WITHDRAW, ethAmount));\n    }\n\n    /**\n     * @dev Conversion rate between DAI and MKR\n     * @param _makerCdp The Maker CDP contract\n     * @return The amount of DAI per MKR\n     */\n    function daiPerMkr(IMakerCdp _makerCdp) internal view returns (uint256 _daiPerMKR) {\n        (bytes32 daiPerMKR_, bool ok) = _makerCdp.pep().peek();\n        require(ok && daiPerMKR_ != 0, \"LM: invalid DAI/MKR rate\");\n        _daiPerMKR = uint256(daiPerMKR_);\n    }\n} \n\n",
  "sourcePath": "/home/amxx/Work/Argent/argent-contracts/contracts/modules/MakerManager.sol",
  "compiler": {
    "name": "solc",
    "version": "0.5.4+commit.9549d8ff.Emscripten.clang",
    "optimizer": true,
    "runs": 200
  },
  "schemaVersion": "2.2.4",
  "updatedAt": "2020-02-29T16:28:22.524Z"
}