{
  "contractName": "Managed",
  "abi": [
    {
      "constant": true,
      "inputs": [],
      "name": "owner",
      "outputs": [
        {
          "name": "",
          "type": "address"
        }
      ],
      "payable": false,
      "stateMutability": "view",
      "type": "function"
    },
    {
      "constant": false,
      "inputs": [
        {
          "name": "_newOwner",
          "type": "address"
        }
      ],
      "name": "changeOwner",
      "outputs": [],
      "payable": false,
      "stateMutability": "nonpayable",
      "type": "function"
    },
    {
      "constant": true,
      "inputs": [
        {
          "name": "",
          "type": "address"
        }
      ],
      "name": "managers",
      "outputs": [
        {
          "name": "",
          "type": "bool"
        }
      ],
      "payable": false,
      "stateMutability": "view",
      "type": "function"
    },
    {
      "anonymous": false,
      "inputs": [
        {
          "indexed": true,
          "name": "_manager",
          "type": "address"
        }
      ],
      "name": "ManagerAdded",
      "type": "event"
    },
    {
      "anonymous": false,
      "inputs": [
        {
          "indexed": true,
          "name": "_manager",
          "type": "address"
        }
      ],
      "name": "ManagerRevoked",
      "type": "event"
    },
    {
      "anonymous": false,
      "inputs": [
        {
          "indexed": true,
          "name": "_newOwner",
          "type": "address"
        }
      ],
      "name": "OwnerChanged",
      "type": "event"
    },
    {
      "constant": false,
      "inputs": [
        {
          "name": "_manager",
          "type": "address"
        }
      ],
      "name": "addManager",
      "outputs": [],
      "payable": false,
      "stateMutability": "nonpayable",
      "type": "function"
    },
    {
      "constant": false,
      "inputs": [
        {
          "name": "_manager",
          "type": "address"
        }
      ],
      "name": "revokeManager",
      "outputs": [],
      "payable": false,
      "stateMutability": "nonpayable",
      "type": "function"
    }
  ],
  "bytecode": "0x608060405260008054600160a060020a03191633179055610515806100256000396000f3fe608060405234801561001057600080fd5b5060043610610073577c010000000000000000000000000000000000000000000000000000000060003504632d06177a8114610078578063377e32e6146100a05780638da5cb5b146100c6578063a6f9dae1146100ea578063fdff9b4d14610110575b600080fd5b61009e6004803603602081101561008e57600080fd5b5035600160a060020a031661014a565b005b61009e600480360360208110156100b657600080fd5b5035600160a060020a031661027e565b6100ce610389565b60408051600160a060020a039092168252519081900360200190f35b61009e6004803603602081101561010057600080fd5b5035600160a060020a0316610398565b6101366004803603602081101561012657600080fd5b5035600160a060020a03166104af565b604080519115158252519081900360200190f35b600054600160a060020a031633146101ac576040805160e560020a62461bcd02815260206004820152600d60248201527f4d757374206265206f776e657200000000000000000000000000000000000000604482015290519081900360640190fd5b600160a060020a038116151561020c576040805160e560020a62461bcd02815260206004820152601b60248201527f4d3a2041646472657373206d757374206e6f74206265206e756c6c0000000000604482015290519081900360640190fd5b600160a060020a03811660009081526001602052604090205460ff16151561027b57600160a060020a0381166000818152600160208190526040808320805460ff1916909217909155517f3b4a40cccf2058c593542587329dd385be4f0b588db5471fbd9598e56dd7093a9190a25b50565b600054600160a060020a031633146102e0576040805160e560020a62461bcd02815260206004820152600d60248201527f4d757374206265206f776e657200000000000000000000000000000000000000604482015290519081900360640190fd5b600160a060020a03811660009081526001602081905260409091205460ff161515146103405760405160e560020a62461bcd0281526004018080602001828103825260258152602001806104c56025913960400191505060405180910390fd5b600160a060020a038116600081815260016020526040808220805460ff19169055517fe5def11e0516f317f9c37b8835aec29fc01db4d4b6d6fecaca339d3596a29bc19190a250565b600054600160a060020a031681565b600054600160a060020a031633146103fa576040805160e560020a62461bcd02815260206004820152600d60248201527f4d757374206265206f776e657200000000000000000000000000000000000000604482015290519081900360640190fd5b600160a060020a038116151561045a576040805160e560020a62461bcd02815260206004820152601860248201527f41646472657373206d757374206e6f74206265206e756c6c0000000000000000604482015290519081900360640190fd5b6000805473ffffffffffffffffffffffffffffffffffffffff1916600160a060020a038316908117825560405190917fa2ea9883a321a3e97b8266c2b078bfeec6d50c711ed71f874a90d500ae2eaf3691a250565b60016020526000908152604090205460ff168156fe4d3a20546172676574206d75737420626520616e206578697374696e67206d616e61676572a165627a7a723058205c9858e4796ebf8c5a46ed6f28aa663845266c3ef62acffc23fa96d49ee5d2670029",
  "source": "pragma solidity ^0.5.4;\nimport \"./Owned.sol\";\n\n/**\n * @title Managed\n * @dev Basic contract that defines a set of managers. Only the owner can add/remove managers.\n * @author Julien Niset - <julien@argent.im>\n */\ncontract Managed is Owned {\n\n    // The managers\n    mapping (address => bool) public managers;\n\n    /**\n     * @dev Throws if the sender is not a manager.\n     */\n    modifier onlyManager {\n        require(managers[msg.sender] == true, \"M: Must be manager\");\n        _;\n    }\n\n    event ManagerAdded(address indexed _manager);\n    event ManagerRevoked(address indexed _manager);\n\n    /**\n    * @dev Adds a manager. \n    * @param _manager The address of the manager.\n    */\n    function addManager(address _manager) external onlyOwner {\n        require(_manager != address(0), \"M: Address must not be null\");\n        if(managers[_manager] == false) {\n            managers[_manager] = true;\n            emit ManagerAdded(_manager);\n        }        \n    }\n\n    /**\n    * @dev Revokes a manager.\n    * @param _manager The address of the manager.\n    */\n    function revokeManager(address _manager) external onlyOwner {\n        require(managers[_manager] == true, \"M: Target must be an existing manager\");\n        delete managers[_manager];\n        emit ManagerRevoked(_manager);\n    }\n}",
  "sourcePath": "/home/amxx/Work/Argent/argent-contracts/contracts/base/Managed.sol",
  "compiler": {
    "name": "solc",
    "version": "0.5.4+commit.9549d8ff.Emscripten.clang",
    "optimizer": true,
    "runs": 200
  },
  "schemaVersion": "2.2.4",
  "updatedAt": "2020-02-29T16:28:22.451Z"
}