{
  "contractName": "Maximillion",
  "abi": [
    {
      "constant": true,
      "inputs": [],
      "name": "cEther",
      "outputs": [
        {
          "name": "",
          "type": "address"
        }
      ],
      "payable": false,
      "stateMutability": "view",
      "type": "function"
    },
    {
      "inputs": [
        {
          "name": "cEther_",
          "type": "address"
        }
      ],
      "payable": false,
      "stateMutability": "nonpayable",
      "type": "constructor"
    },
    {
      "constant": false,
      "inputs": [
        {
          "name": "borrower",
          "type": "address"
        }
      ],
      "name": "repayBehalf",
      "outputs": [],
      "payable": true,
      "stateMutability": "payable",
      "type": "function"
    },
    {
      "constant": false,
      "inputs": [
        {
          "name": "borrower",
          "type": "address"
        },
        {
          "name": "cEther_",
          "type": "address"
        }
      ],
      "name": "repayBehalfExplicit",
      "outputs": [],
      "payable": true,
      "stateMutability": "payable",
      "type": "function"
    }
  ],
  "bytecode": "0x608060405234801561001057600080fd5b506040516020806103368339810180604052602081101561003057600080fd5b505160008054600160a060020a03909216600160a060020a03199092169190911790556102d4806100626000396000f3fe6080604052600436106100375760e060020a600035046319b68c00811461003c578063367b7f051461006d5780639f35c3d51461009d575b600080fd5b34801561004857600080fd5b506100516100c3565b60408051600160a060020a039092168252519081900360200190f35b61009b6004803603604081101561008357600080fd5b50600160a060020a03813581169160200135166100d2565b005b61009b600480360360208110156100b357600080fd5b5035600160a060020a031661028e565b600054600160a060020a031681565b6000349050600082600160a060020a03166317bfdfbc856040518263ffffffff1660e060020a0281526004018082600160a060020a0316600160a060020a03168152602001915050602060405180830381600087803b15801561013457600080fd5b505af1158015610148573d6000803e3d6000fd5b505050506040513d602081101561015e57600080fd5b50519050808211156102135782600160a060020a031663e597461982866040518363ffffffff1660e060020a0281526004018082600160a060020a0316600160a060020a031681526020019150506000604051808303818588803b1580156101c557600080fd5b505af11580156101d9573d6000803e3d6000fd5b505060405133935084860380156108fc02935091506000818181858888f1935050505015801561020d573d6000803e3d6000fd5b50610288565b82600160a060020a031663e597461983866040518363ffffffff1660e060020a0281526004018082600160a060020a0316600160a060020a031681526020019150506000604051808303818588803b15801561026e57600080fd5b505af1158015610282573d6000803e3d6000fd5b50505050505b50505050565b6000546102a5908290600160a060020a03166100d2565b5056fea165627a7a72305820ea3196872a1dabf4998612511b20dfac5462d5d16c7c6c4d2f4c855bc4b370eb0029",
  "source": "pragma solidity ^0.5.4;\n\nimport \"./CEther.sol\";\n\n/**\n * @title Compound's Maximillion Contract\n * @author Compound\n */\ncontract Maximillion {\n    /**\n     * @notice The default cEther market to repay in\n     */\n    CEther public cEther;\n\n    /**\n     * @notice Construct a Maximillion to repay max in a CEther market\n     */\n    constructor(CEther cEther_) public {\n        cEther = cEther_;\n    }\n\n    /**\n     * @notice msg.sender sends Ether to repay an account's borrow in the cEther market\n     * @dev The provided Ether is applied towards the borrow balance, any excess is refunded\n     * @param borrower The address of the borrower account to repay on behalf of\n     * @return The initial borrows before the repay\n     */\n    function repayBehalf(address borrower) public payable {\n        return repayBehalfExplicit(borrower, cEther);\n    }\n\n    /**\n     * @notice msg.sender sends Ether to repay an account's borrow in a cEther market\n     * @dev The provided Ether is applied towards the borrow balance, any excess is refunded\n     * @param borrower The address of the borrower account to repay on behalf of\n     * @param cEther_ The address of the cEther contract to repay in\n     * @return The initial borrows before the repay\n     */\n    function repayBehalfExplicit(address borrower, CEther cEther_) public payable {\n        uint received = msg.value;\n        uint borrows = cEther_.borrowBalanceCurrent(borrower);\n        if (received > borrows) {\n            cEther_.repayBorrowBehalf.value(borrows)(borrower);\n            msg.sender.transfer(received - borrows);\n        } else {\n            cEther_.repayBorrowBehalf.value(received)(borrower);\n        }\n    }\n}\n",
  "sourcePath": "/home/amxx/Work/Argent/argent-contracts/contracts/test/compound/Maximillion.sol",
  "compiler": {
    "name": "solc",
    "version": "0.5.4+commit.9549d8ff.Emscripten.clang",
    "optimizer": true,
    "runs": 200
  },
  "schemaVersion": "2.2.4",
  "updatedAt": "2020-02-29T16:28:22.624Z"
}