{
  "contractName": "ModuleRegistry",
  "abi": [
    {
      "constant": true,
      "inputs": [],
      "name": "owner",
      "outputs": [
        {
          "name": "",
          "type": "address"
        }
      ],
      "payable": false,
      "stateMutability": "view",
      "type": "function"
    },
    {
      "constant": false,
      "inputs": [
        {
          "name": "_newOwner",
          "type": "address"
        }
      ],
      "name": "changeOwner",
      "outputs": [],
      "payable": false,
      "stateMutability": "nonpayable",
      "type": "function"
    },
    {
      "anonymous": false,
      "inputs": [
        {
          "indexed": true,
          "name": "module",
          "type": "address"
        },
        {
          "indexed": false,
          "name": "name",
          "type": "bytes32"
        }
      ],
      "name": "ModuleRegistered",
      "type": "event"
    },
    {
      "anonymous": false,
      "inputs": [
        {
          "indexed": false,
          "name": "module",
          "type": "address"
        }
      ],
      "name": "ModuleDeRegistered",
      "type": "event"
    },
    {
      "anonymous": false,
      "inputs": [
        {
          "indexed": true,
          "name": "upgrader",
          "type": "address"
        },
        {
          "indexed": false,
          "name": "name",
          "type": "bytes32"
        }
      ],
      "name": "UpgraderRegistered",
      "type": "event"
    },
    {
      "anonymous": false,
      "inputs": [
        {
          "indexed": false,
          "name": "upgrader",
          "type": "address"
        }
      ],
      "name": "UpgraderDeRegistered",
      "type": "event"
    },
    {
      "anonymous": false,
      "inputs": [
        {
          "indexed": true,
          "name": "_newOwner",
          "type": "address"
        }
      ],
      "name": "OwnerChanged",
      "type": "event"
    },
    {
      "constant": false,
      "inputs": [
        {
          "name": "_module",
          "type": "address"
        },
        {
          "name": "_name",
          "type": "bytes32"
        }
      ],
      "name": "registerModule",
      "outputs": [],
      "payable": false,
      "stateMutability": "nonpayable",
      "type": "function"
    },
    {
      "constant": false,
      "inputs": [
        {
          "name": "_module",
          "type": "address"
        }
      ],
      "name": "deregisterModule",
      "outputs": [],
      "payable": false,
      "stateMutability": "nonpayable",
      "type": "function"
    },
    {
      "constant": false,
      "inputs": [
        {
          "name": "_upgrader",
          "type": "address"
        },
        {
          "name": "_name",
          "type": "bytes32"
        }
      ],
      "name": "registerUpgrader",
      "outputs": [],
      "payable": false,
      "stateMutability": "nonpayable",
      "type": "function"
    },
    {
      "constant": false,
      "inputs": [
        {
          "name": "_upgrader",
          "type": "address"
        }
      ],
      "name": "deregisterUpgrader",
      "outputs": [],
      "payable": false,
      "stateMutability": "nonpayable",
      "type": "function"
    },
    {
      "constant": false,
      "inputs": [
        {
          "name": "_token",
          "type": "address"
        }
      ],
      "name": "recoverToken",
      "outputs": [],
      "payable": false,
      "stateMutability": "nonpayable",
      "type": "function"
    },
    {
      "constant": true,
      "inputs": [
        {
          "name": "_module",
          "type": "address"
        }
      ],
      "name": "moduleInfo",
      "outputs": [
        {
          "name": "",
          "type": "bytes32"
        }
      ],
      "payable": false,
      "stateMutability": "view",
      "type": "function"
    },
    {
      "constant": true,
      "inputs": [
        {
          "name": "_upgrader",
          "type": "address"
        }
      ],
      "name": "upgraderInfo",
      "outputs": [
        {
          "name": "",
          "type": "bytes32"
        }
      ],
      "payable": false,
      "stateMutability": "view",
      "type": "function"
    },
    {
      "constant": true,
      "inputs": [
        {
          "name": "_module",
          "type": "address"
        }
      ],
      "name": "isRegisteredModule",
      "outputs": [
        {
          "name": "",
          "type": "bool"
        }
      ],
      "payable": false,
      "stateMutability": "view",
      "type": "function"
    },
    {
      "constant": true,
      "inputs": [
        {
          "name": "_modules",
          "type": "address[]"
        }
      ],
      "name": "isRegisteredModule",
      "outputs": [
        {
          "name": "",
          "type": "bool"
        }
      ],
      "payable": false,
      "stateMutability": "view",
      "type": "function"
    },
    {
      "constant": true,
      "inputs": [
        {
          "name": "_upgrader",
          "type": "address"
        }
      ],
      "name": "isRegisteredUpgrader",
      "outputs": [
        {
          "name": "",
          "type": "bool"
        }
      ],
      "payable": false,
      "stateMutability": "view",
      "type": "function"
    }
  ],
  "bytecode": "0x608060405260008054600160a060020a03191633179055610b88806100256000396000f3fe608060405234801561001057600080fd5b50600436106100d1576000357c01000000000000000000000000000000000000000000000000000000009004806378b1fa741161008e57806378b1fa74146102385780638b27f7f51461025e5780638da5cb5b146102845780639be65a60146102a8578063a6f9dae1146102ce578063ce03c0a2146102f4576100d1565b80630bcd4ebb146100d65780630f0356d0146101105780633f4985cf1461013e57806356b97ec11461016a57806363047bd8146101a25780636bb18a54146101c8575b600080fd5b6100fc600480360360208110156100ec57600080fd5b5035600160a060020a031661031a565b604080519115158252519081900360200190f35b61013c6004803603604081101561012657600080fd5b50600160a060020a038135169060200135610338565b005b61013c6004803603604081101561015457600080fd5b50600160a060020a038135169060200135610472565b6101906004803603602081101561018057600080fd5b5035600160a060020a03166105ad565b60408051918252519081900360200190f35b6100fc600480360360208110156101b857600080fd5b5035600160a060020a03166105cc565b6100fc600480360360208110156101de57600080fd5b8101906020810181356401000000008111156101f957600080fd5b82018360208201111561020b57600080fd5b8035906020019184602083028401116401000000008311171561022d57600080fd5b5090925090506105ea565b61013c6004803603602081101561024e57600080fd5b5035600160a060020a0316610650565b61013c6004803603602081101561027457600080fd5b5035600160a060020a031661076f565b61028c61088f565b60408051600160a060020a039092168252519081900360200190f35b61013c600480360360208110156102be57600080fd5b5035600160a060020a031661089e565b61013c600480360360208110156102e457600080fd5b5035600160a060020a0316610a19565b6101906004803603602081101561030a57600080fd5b5035600160a060020a0316610b1e565b600160a060020a031660009081526001602052604090205460ff1690565b600054600160a060020a03163314610388576040805160e560020a62461bcd02815260206004820152600d6024820152600080516020610b3d833981519152604482015290519081900360640190fd5b600160a060020a03821660009081526001602052604090205460ff16156103f9576040805160e560020a62461bcd02815260206004820152601960248201527f4d523a206d6f64756c6520616c72656164792065786973747300000000000000604482015290519081900360640190fd5b60408051808201825260018082526020808301858152600160a060020a03871660008181528484528690209451855460ff1916901515178555905193909201929092558251848152925190927f395917e06309940ec7275c89424ecba05a0c7accd8bdd546e6558c6c86c2523992908290030190a25050565b600054600160a060020a031633146104c2576040805160e560020a62461bcd02815260206004820152600d6024820152600080516020610b3d833981519152604482015290519081900360640190fd5b600160a060020a03821660009081526002602052604090205460ff1615610533576040805160e560020a62461bcd02815260206004820152601b60248201527f4d523a20757067726164657220616c7265616479206578697374730000000000604482015290519081900360640190fd5b60408051808201825260018082526020808301858152600160a060020a0387166000818152600284528690209451855460ff1916901515178555905193909201929092558251848152925190927fb72a133f42ef268c125f96c7c6e407143f1d2fc5e2854b5f99887ee5da14377592908290030190a25050565b600160a060020a03166000908152600160208190526040909120015490565b600160a060020a031660009081526002602052604090205460ff1690565b6000805b82811015610644576001600085858481811061060657fe5b60209081029290920135600160a060020a03168352508101919091526040016000205460ff16151561063c57600091505061064a565b6001016105ee565b50600190505b92915050565b600054600160a060020a031633146106a0576040805160e560020a62461bcd02815260206004820152600d6024820152600080516020610b3d833981519152604482015290519081900360640190fd5b600160a060020a03811660009081526001602052604090205460ff161515610712576040805160e560020a62461bcd02815260206004820152601960248201527f4d523a206d6f64756c6520646f6573206e6f7420657869737400000000000000604482015290519081900360640190fd5b600160a060020a0381166000818152600160208181526040808420805460ff19168155909201929092558051928352517fb292997b2d53de11cc46b82b9a3b1a253cca7aa614fb9b5677cb67d08516f8639281900390910190a150565b600054600160a060020a031633146107bf576040805160e560020a62461bcd02815260206004820152600d6024820152600080516020610b3d833981519152604482015290519081900360640190fd5b600160a060020a03811660009081526002602052604090205460ff161515610831576040805160e560020a62461bcd02815260206004820152601b60248201527f4d523a20757067726164657220646f6573206e6f742065786973740000000000604482015290519081900360640190fd5b600160a060020a0381166000818152600260209081526040808320805460ff1916815560010192909255815192835290517f58d12929a3008fbe6cd82f81558a511b80afa47fc9fc81f366e094bb681af64d9281900390910190a150565b600054600160a060020a031681565b600054600160a060020a031633146108ee576040805160e560020a62461bcd02815260206004820152600d6024820152600080516020610b3d833981519152604482015290519081900360640190fd5b604080517f70a082310000000000000000000000000000000000000000000000000000000081523060048201529051600091600160a060020a038416916370a0823191602480820192602092909190829003018186803b15801561095157600080fd5b505afa158015610965573d6000803e3d6000fd5b505050506040513d602081101561097b57600080fd5b5051604080517fa9059cbb000000000000000000000000000000000000000000000000000000008152336004820152602481018390529051919250600160a060020a0384169163a9059cbb916044808201926020929091908290030181600087803b1580156109e957600080fd5b505af11580156109fd573d6000803e3d6000fd5b505050506040513d6020811015610a1357600080fd5b50505050565b600054600160a060020a03163314610a69576040805160e560020a62461bcd02815260206004820152600d6024820152600080516020610b3d833981519152604482015290519081900360640190fd5b600160a060020a0381161515610ac9576040805160e560020a62461bcd02815260206004820152601860248201527f41646472657373206d757374206e6f74206265206e756c6c0000000000000000604482015290519081900360640190fd5b6000805473ffffffffffffffffffffffffffffffffffffffff1916600160a060020a038316908117825560405190917fa2ea9883a321a3e97b8266c2b078bfeec6d50c711ed71f874a90d500ae2eaf3691a250565b600160a060020a03166000908152600260205260409020600101549056fe4d757374206265206f776e657200000000000000000000000000000000000000a165627a7a723058203ba9c50b6d48fbec759903930b18d76e8ab6c1fc5e7c4b6b8ad21fb37aec0fea0029",
  "source": "pragma solidity ^0.5.4;\nimport \"../interfaces/Module.sol\";\nimport \"../base/Owned.sol\";\nimport \"../exchange/ERC20.sol\";\n\n/**\n * @title ModuleRegistry\n * @dev Registry of authorised modules. \n * Modules must be registered before they can be authorised on a wallet.\n * @author Julien Niset - <julien@argent.im>\n */\ncontract ModuleRegistry is Owned {\n\n    mapping (address => Info) internal modules;\n    mapping (address => Info) internal upgraders;\n\n    event ModuleRegistered(address indexed module, bytes32 name);\n    event ModuleDeRegistered(address module);\n    event UpgraderRegistered(address indexed upgrader, bytes32 name);\n    event UpgraderDeRegistered(address upgrader);\n\n    struct Info {\n        bool exists;\n        bytes32 name;\n    }\n\n    /**\n     * @dev Registers a module.\n     * @param _module The module.\n     * @param _name The unique name of the module.\n     */\n    function registerModule(address _module, bytes32 _name) external onlyOwner {\n        require(!modules[_module].exists, \"MR: module already exists\");\n        modules[_module] = Info({exists: true, name: _name});\n        emit ModuleRegistered(_module, _name);\n    }\n\n    /**\n     * @dev Deregisters a module.\n     * @param _module The module.\n     */\n    function deregisterModule(address _module) external onlyOwner {\n        require(modules[_module].exists, \"MR: module does not exist\");\n        delete modules[_module];\n        emit ModuleDeRegistered(_module);\n    }\n\n        /**\n     * @dev Registers an upgrader.\n     * @param _upgrader The upgrader.\n     * @param _name The unique name of the upgrader.\n     */\n    function registerUpgrader(address _upgrader, bytes32 _name) external onlyOwner {\n        require(!upgraders[_upgrader].exists, \"MR: upgrader already exists\");\n        upgraders[_upgrader] = Info({exists: true, name: _name});\n        emit UpgraderRegistered(_upgrader, _name);\n    }\n\n    /**\n     * @dev Deregisters an upgrader.\n     * @param _upgrader The _upgrader.\n     */\n    function deregisterUpgrader(address _upgrader) external onlyOwner {\n        require(upgraders[_upgrader].exists, \"MR: upgrader does not exist\");\n        delete upgraders[_upgrader];\n        emit UpgraderDeRegistered(_upgrader);\n    }\n\n    /**\n    * @dev Utility method enbaling the owner of the registry to claim any ERC20 token that was sent to the\n    * registry.\n    * @param _token The token to recover.\n    */\n    function recoverToken(address _token) external onlyOwner {\n        uint total = ERC20(_token).balanceOf(address(this));\n        ERC20(_token).transfer(msg.sender, total);\n    } \n\n    /**\n     * @dev Gets the name of a module from its address.\n     * @param _module The module address.\n     * @return the name.\n     */\n    function moduleInfo(address _module) external view returns (bytes32) {\n        return modules[_module].name;\n    }\n\n    /**\n     * @dev Gets the name of an upgrader from its address.\n     * @param _upgrader The upgrader address.\n     * @return the name.\n     */\n    function upgraderInfo(address _upgrader) external view returns (bytes32) {\n        return upgraders[_upgrader].name;\n    }\n\n    /**\n     * @dev Checks if a module is registered.\n     * @param _module The module address.\n     * @return true if the module is registered.\n     */\n    function isRegisteredModule(address _module) external view returns (bool) {\n        return modules[_module].exists;\n    }\n\n    /**\n     * @dev Checks if a list of modules are registered.\n     * @param _modules The list of modules address.\n     * @return true if all the modules are registered.\n     */\n    function isRegisteredModule(address[] calldata _modules) external view returns (bool) {\n        for(uint i = 0; i < _modules.length; i++) {\n            if (!modules[_modules[i]].exists) {\n                return false;\n            }\n        }\n        return true;\n    }  \n\n    /**\n     * @dev Checks if an upgrader is registered.\n     * @param _upgrader The upgrader address.\n     * @return true if the upgrader is registered.\n     */\n    function isRegisteredUpgrader(address _upgrader) external view returns (bool) {\n        return upgraders[_upgrader].exists;\n    } \n\n}",
  "sourcePath": "/home/amxx/Work/Argent/argent-contracts/contracts/upgrade/ModuleRegistry.sol",
  "compiler": {
    "name": "solc",
    "version": "0.5.4+commit.9549d8ff.Emscripten.clang",
    "optimizer": true,
    "runs": 200
  },
  "schemaVersion": "2.2.4",
  "updatedAt": "2020-02-29T16:28:22.661Z"
}