{
  "contractName": "MultiSigWallet",
  "abi": [
    {
      "constant": true,
      "inputs": [
        {
          "name": "",
          "type": "address"
        }
      ],
      "name": "isOwner",
      "outputs": [
        {
          "name": "",
          "type": "bool"
        }
      ],
      "payable": false,
      "stateMutability": "view",
      "type": "function"
    },
    {
      "constant": true,
      "inputs": [],
      "name": "threshold",
      "outputs": [
        {
          "name": "",
          "type": "uint256"
        }
      ],
      "payable": false,
      "stateMutability": "view",
      "type": "function"
    },
    {
      "constant": true,
      "inputs": [],
      "name": "nonce",
      "outputs": [
        {
          "name": "",
          "type": "uint256"
        }
      ],
      "payable": false,
      "stateMutability": "view",
      "type": "function"
    },
    {
      "constant": true,
      "inputs": [],
      "name": "ownersCount",
      "outputs": [
        {
          "name": "",
          "type": "uint256"
        }
      ],
      "payable": false,
      "stateMutability": "view",
      "type": "function"
    },
    {
      "constant": true,
      "inputs": [],
      "name": "MAX_OWNER_COUNT",
      "outputs": [
        {
          "name": "",
          "type": "uint256"
        }
      ],
      "payable": false,
      "stateMutability": "view",
      "type": "function"
    },
    {
      "inputs": [
        {
          "name": "_threshold",
          "type": "uint256"
        },
        {
          "name": "_owners",
          "type": "address[]"
        }
      ],
      "payable": false,
      "stateMutability": "nonpayable",
      "type": "constructor"
    },
    {
      "payable": true,
      "stateMutability": "payable",
      "type": "fallback"
    },
    {
      "anonymous": false,
      "inputs": [
        {
          "indexed": true,
          "name": "owner",
          "type": "address"
        }
      ],
      "name": "OwnerAdded",
      "type": "event"
    },
    {
      "anonymous": false,
      "inputs": [
        {
          "indexed": true,
          "name": "owner",
          "type": "address"
        }
      ],
      "name": "OwnerRemoved",
      "type": "event"
    },
    {
      "anonymous": false,
      "inputs": [
        {
          "indexed": true,
          "name": "newThreshold",
          "type": "uint256"
        }
      ],
      "name": "ThresholdChanged",
      "type": "event"
    },
    {
      "anonymous": false,
      "inputs": [
        {
          "indexed": true,
          "name": "destination",
          "type": "address"
        },
        {
          "indexed": true,
          "name": "value",
          "type": "uint256"
        },
        {
          "indexed": false,
          "name": "data",
          "type": "bytes"
        }
      ],
      "name": "Executed",
      "type": "event"
    },
    {
      "anonymous": false,
      "inputs": [
        {
          "indexed": true,
          "name": "value",
          "type": "uint256"
        },
        {
          "indexed": true,
          "name": "from",
          "type": "address"
        }
      ],
      "name": "Received",
      "type": "event"
    },
    {
      "constant": false,
      "inputs": [
        {
          "name": "_to",
          "type": "address"
        },
        {
          "name": "_value",
          "type": "uint256"
        },
        {
          "name": "_data",
          "type": "bytes"
        },
        {
          "name": "_signatures",
          "type": "bytes"
        }
      ],
      "name": "execute",
      "outputs": [],
      "payable": false,
      "stateMutability": "nonpayable",
      "type": "function"
    },
    {
      "constant": false,
      "inputs": [
        {
          "name": "_owner",
          "type": "address"
        }
      ],
      "name": "addOwner",
      "outputs": [],
      "payable": false,
      "stateMutability": "nonpayable",
      "type": "function"
    },
    {
      "constant": false,
      "inputs": [
        {
          "name": "_owner",
          "type": "address"
        }
      ],
      "name": "removeOwner",
      "outputs": [],
      "payable": false,
      "stateMutability": "nonpayable",
      "type": "function"
    },
    {
      "constant": false,
      "inputs": [
        {
          "name": "_newThreshold",
          "type": "uint256"
        }
      ],
      "name": "changeThreshold",
      "outputs": [],
      "payable": false,
      "stateMutability": "nonpayable",
      "type": "function"
    }
  ],
  "bytecode": "0x608060405234801561001057600080fd5b50604051610fcf380380610fcf8339810180604052604081101561003357600080fd5b81516020830180519193928301929164010000000081111561005457600080fd5b8201602081018481111561006757600080fd5b815185602082028301116401000000008211171561008457600080fd5b50509291905050506000815111801561009f5750600a815111155b15156100f6576040517f08c379a0000000000000000000000000000000000000000000000000000000008152600401808060200182810382526022815260200180610fad6022913960400191505060405180910390fd5b600082118015610107575080518211155b151561017457604080517f08c379a000000000000000000000000000000000000000000000000000000000815260206004820152601660248201527f4d53573a20496e76616c6964207468726573686f6c6400000000000000000000604482015290519081900360640190fd5b8051600255600182905560005b815181101561022557600160036000848481518110151561019e57fe5b602090810291909101810151600160a060020a03168252810191909152604001600020805460ff191691151591909117905581518290829081106101de57fe5b90602001906020020151600160a060020a03167f994a936646fe87ffe4f1e469d3d6aa417d6b855598397f323de5b449f765f0c360405160405180910390a2600101610181565b5060405182907f6c4ce60fd690e1216286a10b875c5662555f10774484e58142cedd7a90781baa90600090a25050610d4b806102626000396000f3fe6080604052600436106100a3576000357c0100000000000000000000000000000000000000000000000000000000900480637065cb48116100765780637065cb481461019f578063affed0e0146101d2578063b9488546146101e7578063d74f8edd146101fc578063da0980c714610211576100a3565b8063173825d9146100d25780632f54bf6e1461010757806342cde4e81461014e578063694e80c314610175575b604051339034907f8863e458255c600ae3e61be347822f3ee57088c8538b68b5dd2357e682e59e1990600090a3005b3480156100de57600080fd5b50610105600480360360208110156100f557600080fd5b5035600160a060020a0316610360565b005b34801561011357600080fd5b5061013a6004803603602081101561012a57600080fd5b5035600160a060020a03166104c4565b604080519115158252519081900360200190f35b34801561015a57600080fd5b506101636104d9565b60408051918252519081900360200190f35b34801561018157600080fd5b506101056004803603602081101561019857600080fd5b50356104df565b3480156101ab57600080fd5b50610105600480360360208110156101c257600080fd5b5035600160a060020a03166105bb565b3480156101de57600080fd5b50610163610722565b3480156101f357600080fd5b50610163610728565b34801561020857600080fd5b5061016361072e565b34801561021d57600080fd5b506101056004803603608081101561023457600080fd5b600160a060020a038235169160208101359181019060608101604082013564010000000081111561026457600080fd5b82018360208201111561027657600080fd5b8035906020019184600183028401116401000000008311171561029857600080fd5b91908080601f01602080910402602001604051908101604052809392919081815260200183838082843760009201919091525092959493602081019350359150506401000000008111156102eb57600080fd5b8201836020820111156102fd57600080fd5b8035906020019184600183028401116401000000008311171561031f57600080fd5b91908080601f016020809104026020016040519081016040528093929190818152602001838380828437600092019190915250929550610733945050505050565b3330146103a15760405160e560020a62461bcd028152600401808060200182810382526022815260200180610cfe6022913960400191505060405180910390fd5b600154600254116103fc576040805160e560020a62461bcd02815260206004820152601860248201527f4d53573a20546f6f20666577206f776e657273206c6566740000000000000000604482015290519081900360640190fd5b600160a060020a03811660009081526003602052604090205460ff161515600114610471576040805160e560020a62461bcd02815260206004820152601160248201527f4d53573a204e6f7420616e206f776e6572000000000000000000000000000000604482015290519081900360640190fd5b60028054600019019055600160a060020a038116600081815260036020526040808220805460ff19169055517f58619076adf5bb0943d100ef88d52d7c3fd691b19d3a9071b555b651fbf418da9190a250565b60036020526000908152604090205460ff1681565b60015481565b3330146105205760405160e560020a62461bcd028152600401808060200182810382526022815260200180610cfe6022913960400191505060405180910390fd5b60008111801561053257506002548111155b1515610588576040805160e560020a62461bcd02815260206004820152601a60248201527f4d53573a20496e76616c6964206e6577207468726573686f6c64000000000000604482015290519081900360640190fd5b600181905560405181907f6c4ce60fd690e1216286a10b875c5662555f10774484e58142cedd7a90781baa90600090a250565b3330146105fc5760405160e560020a62461bcd028152600401808060200182810382526022815260200180610cfe6022913960400191505060405180910390fd5b600254600a11610656576040805160e560020a62461bcd02815260206004820152601c60248201527f4d53573a204d41585f4f574e45525f434f554e54207265616368656400000000604482015290519081900360640190fd5b600160a060020a03811660009081526003602052604090205460ff16156106c7576040805160e560020a62461bcd02815260206004820152601260248201527f4d53573a20416c7265616479206f776e65720000000000000000000000000000604482015290519081900360640190fd5b600280546001908101909155600160a060020a038216600081815260036020526040808220805460ff1916909417909355915190917f994a936646fe87ffe4f1e469d3d6aa417d6b855598397f323de5b449f765f0c391a250565b60005481565b60025481565b600a81565b6000806000806041855181151561074657fe5b04905060015481101515156107a5576040805160e560020a62461bcd02815260206004820152601a60248201527f4d53573a204e6f7420656e6f756768207369676e617475726573000000000000604482015290519081900360640190fd5b600060197f01000000000000000000000000000000000000000000000000000000000000000260007f010000000000000000000000000000000000000000000000000000000000000002308b8b8b6000546040516020018088600160f860020a031916600160f860020a031916815260010187600160f860020a031916600160f860020a031916815260010186600160a060020a0316600160a060020a03166c0100000000000000000000000002815260140185600160a060020a0316600160a060020a03166c0100000000000000000000000002815260140184815260200183805190602001908083835b602083106108b05780518252601f199092019160209182019101610891565b51815160209384036101000a6000190180199092169116179052920193845250604080518085038152938201905282519201919091206000805460010181559098509650869550859450505050505b84811015610c1c576109118982610c73565b604080517f19457468657265756d205369676e6564204d6573736167653a0a333200000000602080830191909152603c8083018b905283518084039091018152605c8301808552815191830191909120600091829052607c84018086525260ff8716609c84015260bc830186905260dc83018590529251959d50939b509199509260019260fc808401939192601f1981019281900390910190855afa1580156109be573d6000803e3d6000fd5b5050604051601f190151915050600160a060020a0380841690821611610a2e576040805160e560020a62461bcd02815260206004820152601d60248201527f4d53573a204261646c79206f726465726564207369676e617475726573000000604482015290519081900360640190fd5b600160a060020a038116600090815260036020526040902054909250829060ff1615610c1357600180549401938410610c135760008d600160a060020a03168d8d6040518082805190602001908083835b60208310610a9e5780518252601f199092019160209182019101610a7f565b6001836020036101000a03801982511681845116808217855250505050505090500191505060006040518083038185875af1925050503d8060008114610b00576040519150601f19603f3d011682016040523d82523d6000602084013e610b05565b606091505b50509050801515610b60576040805160e560020a62461bcd02815260206004820152601960248201527f4d53573a2045787465726e616c2063616c6c206661696c656400000000000000604482015290519081900360640190fd5b8c8e600160a060020a03167fcaf938de11c367272220bfd1d2baa99ca46665e7bc4d85f00adb51b90fe1fa9f8e6040518080602001828103825283818151815260200191508051906020019080838360005b83811015610bca578181015183820152602001610bb2565b50505050905090810190601f168015610bf75780820380516001836020036101000a031916815260200191505b509250505060405180910390a350505050505050505050610c6d565b506001016108ff565b506040805160e560020a62461bcd02815260206004820181905260248201527f4d53573a204e6f7420656e6f7567682076616c6964207369676e617475726573604482015290519081900360640190fd5b50505050565b6041808202830160208101516040820151919092015160ff169190601b831480610ca057508260ff16601c145b1515610cf6576040805160e560020a62461bcd02815260206004820152600e60248201527f4d53573a20496e76616c69642076000000000000000000000000000000000000604482015290519081900360640190fd5b925092509256fe4d53573a2043616c6c696e67206163636f756e74206973206e6f742077616c6c6574a165627a7a72305820524901133c9703e4dba7fa30d1ef71ad3ad6a27a3917875c08c61b65f04098b900294d53573a204e6f7420656e6f756768206f7220746f6f206d616e79206f776e657273",
  "source": "pragma solidity ^0.5.4;\n\n/**\n * @title MultiSig\n * @dev Simple MultiSig using off-chain signing.\n * @author Julien Niset - <julien@argent.im>\n */\ncontract MultiSigWallet {\n\n    uint constant public MAX_OWNER_COUNT = 10;\n\n    // Incrementing counter to prevent replay attacks\n    uint256 public nonce;   \n    // The threshold           \n    uint256 public threshold; \n    // The number of owners\n    uint256 public ownersCount;\n    // Mapping to check if an address is an owner\n    mapping (address => bool) public isOwner; \n\n    // Events\n    event OwnerAdded(address indexed owner);\n    event OwnerRemoved(address indexed owner);\n    event ThresholdChanged(uint256 indexed newThreshold);\n    event Executed(address indexed destination, uint256 indexed value, bytes data);\n    event Received(uint256 indexed value, address indexed from);\n\n    /**\n     * @dev Throws is the calling account is not the multisig.\n     */\n    modifier onlyWallet() {\n        require(msg.sender == address(this), \"MSW: Calling account is not wallet\");\n        _;\n    }\n\n    /**\n     * @dev Constructor.\n     * @param _threshold The threshold of the multisig.\n     * @param _owners The owners of the multisig.\n     */\n    constructor(uint256 _threshold, address[] memory _owners) public {\n        require(_owners.length > 0 && _owners.length <= MAX_OWNER_COUNT, \"MSW: Not enough or too many owners\");\n        require(_threshold > 0 && _threshold <= _owners.length, \"MSW: Invalid threshold\");\n        ownersCount = _owners.length;\n        threshold = _threshold;\n        for(uint256 i = 0; i < _owners.length; i++) {\n            isOwner[_owners[i]] = true;\n            emit OwnerAdded(_owners[i]);\n        }\n        emit ThresholdChanged(_threshold);\n    }\n\n    /**\n     * @dev Only entry point of the multisig. The method will execute any transaction provided that it \n     * receieved enough signatures from the wallet owners.  \n     * @param _to The destination address for the transaction to execute.\n     * @param _value The value parameter for the transaction to execute.\n     * @param _data The data parameter for the transaction to execute.\n     * @param _signatures Concatenated signatures ordered based on increasing signer's address.\n     */\n    function execute(address _to, uint _value, bytes memory _data, bytes memory _signatures) public {\n        uint8 v;\n        bytes32 r;\n        bytes32 s;\n        uint256 count = _signatures.length / 65;\n        require(count >= threshold, \"MSW: Not enough signatures\");\n        bytes32 txHash = keccak256(abi.encodePacked(byte(0x19), byte(0), address(this), _to, _value, _data, nonce));\n        nonce += 1;\n        uint256 valid = 0;\n        address lastSigner = address(0);\n        for(uint256 i = 0; i < count; i++) {\n            (v,r,s) = splitSignature(_signatures, i);\n            address recovered = ecrecover(keccak256(abi.encodePacked(\"\\x19Ethereum Signed Message:\\n32\",txHash)), v, r, s);\n            require(recovered > lastSigner, \"MSW: Badly ordered signatures\"); // make sure signers are different\n            lastSigner = recovered;\n            if(isOwner[recovered]) {\n                valid += 1;\n                if(valid >= threshold) {\n                    (bool success,) = _to.call.value(_value)(_data);\n                    require(success, \"MSW: External call failed\");\n                    emit Executed(_to, _value, _data);\n                    return;\n                }\n            }\n        }\n        // If we reach that point then the transaction is not executed\n        revert(\"MSW: Not enough valid signatures\");\n    }\n\n    /**\n     * @dev Adds an owner to the multisig. This method can only be called by the multisig itself \n     * (i.e. it must go through the execute method and be confirmed by the owners).\n     * @param _owner The address of the new owner.\n     */\n    function addOwner(address _owner) public onlyWallet {\n        require(ownersCount < MAX_OWNER_COUNT, \"MSW: MAX_OWNER_COUNT reached\");\n        require(isOwner[_owner] == false, \"MSW: Already owner\");\n        ownersCount += 1;\n        isOwner[_owner] = true;\n        emit OwnerAdded(_owner);\n    }\n\n    /**\n     * @dev Removes an owner from the multisig. This method can only be called by the multisig itself \n     * (i.e. it must go through the execute method and be confirmed by the owners).\n     * @param _owner The address of the removed owner.\n     */\n    function removeOwner(address _owner) public onlyWallet {\n        require(ownersCount > threshold, \"MSW: Too few owners left\");\n        require(isOwner[_owner] == true, \"MSW: Not an owner\");\n        ownersCount -= 1;\n        delete isOwner[_owner];\n        emit OwnerRemoved(_owner);\n    }\n\n    /**\n     * @dev Changes the threshold of the multisig. This method can only be called by the multisig itself \n     * (i.e. it must go through the execute method and be confirmed by the owners).\n     * @param _newThreshold The new threshold.\n     */\n    function changeThreshold(uint256 _newThreshold) public onlyWallet {\n        require(_newThreshold > 0 && _newThreshold <= ownersCount, \"MSW: Invalid new threshold\");\n        threshold = _newThreshold;\n        emit ThresholdChanged(_newThreshold);\n    }\n\n    /**\n     * @dev Makes it possible for the multisig to receive ETH.\n     */\n    function () external payable {\n        emit Received(msg.value, msg.sender);        \n    }\n\n        /**\n     * @dev Parses the signatures and extract (r, s, v) for a signature at a given index.\n     * A signature is {bytes32 r}{bytes32 s}{uint8 v} in compact form and signatures are concatenated.\n     * @param _signatures concatenated signatures\n     * @param _index which signature to read (0, 1, 2, ...)\n     */\n    function splitSignature(bytes memory _signatures, uint256 _index) internal pure returns (uint8 v, bytes32 r, bytes32 s) {\n        // we jump 32 (0x20) as the first slot of bytes contains the length\n        // we jump 65 (0x41) per signature\n        // for v we load 32 bytes ending with v (the first 31 come from s) tehn apply a mask\n        assembly {\n            r := mload(add(_signatures, add(0x20,mul(0x41,_index))))\n            s := mload(add(_signatures, add(0x40,mul(0x41,_index))))\n            v := and(mload(add(_signatures, add(0x41,mul(0x41,_index)))), 0xff)\n        }\n        require(v == 27 || v == 28, \"MSW: Invalid v\"); \n    }\n\n}",
  "sourcePath": "/home/amxx/Work/Argent/argent-contracts/contracts/MultiSigWallet.sol",
  "compiler": {
    "name": "solc",
    "version": "0.5.4+commit.9549d8ff.Emscripten.clang",
    "optimizer": true,
    "runs": 200
  },
  "schemaVersion": "2.2.4",
  "updatedAt": "2020-02-29T16:28:22.450Z"
}