{
  "contractName": "NewTestModule",
  "abi": [
    {
      "constant": false,
      "inputs": [
        {
          "name": "_wallet",
          "type": "address"
        }
      ],
      "name": "init",
      "outputs": [],
      "payable": false,
      "stateMutability": "nonpayable",
      "type": "function"
    },
    {
      "constant": true,
      "inputs": [
        {
          "name": "_wallet",
          "type": "address"
        }
      ],
      "name": "getNonce",
      "outputs": [
        {
          "name": "nonce",
          "type": "uint256"
        }
      ],
      "payable": false,
      "stateMutability": "view",
      "type": "function"
    },
    {
      "constant": false,
      "inputs": [
        {
          "name": "_wallet",
          "type": "address"
        },
        {
          "name": "_module",
          "type": "address"
        }
      ],
      "name": "addModule",
      "outputs": [],
      "payable": false,
      "stateMutability": "nonpayable",
      "type": "function"
    },
    {
      "constant": false,
      "inputs": [
        {
          "name": "_token",
          "type": "address"
        }
      ],
      "name": "recoverToken",
      "outputs": [],
      "payable": false,
      "stateMutability": "nonpayable",
      "type": "function"
    },
    {
      "constant": false,
      "inputs": [
        {
          "name": "_wallet",
          "type": "address"
        },
        {
          "name": "_data",
          "type": "bytes"
        },
        {
          "name": "_nonce",
          "type": "uint256"
        },
        {
          "name": "_signatures",
          "type": "bytes"
        },
        {
          "name": "_gasPrice",
          "type": "uint256"
        },
        {
          "name": "_gasLimit",
          "type": "uint256"
        }
      ],
      "name": "execute",
      "outputs": [
        {
          "name": "success",
          "type": "bool"
        }
      ],
      "payable": false,
      "stateMutability": "nonpayable",
      "type": "function"
    },
    {
      "constant": true,
      "inputs": [],
      "name": "dapp",
      "outputs": [
        {
          "name": "",
          "type": "address"
        }
      ],
      "payable": false,
      "stateMutability": "view",
      "type": "function"
    },
    {
      "constant": true,
      "inputs": [
        {
          "name": "",
          "type": "address"
        }
      ],
      "name": "relayer",
      "outputs": [
        {
          "name": "nonce",
          "type": "uint256"
        }
      ],
      "payable": false,
      "stateMutability": "view",
      "type": "function"
    },
    {
      "constant": true,
      "inputs": [],
      "name": "isOnlyOwnerModule",
      "outputs": [
        {
          "name": "",
          "type": "bytes4"
        }
      ],
      "payable": false,
      "stateMutability": "pure",
      "type": "function"
    },
    {
      "inputs": [
        {
          "name": "_registry",
          "type": "address"
        }
      ],
      "payable": false,
      "stateMutability": "nonpayable",
      "type": "constructor"
    },
    {
      "anonymous": false,
      "inputs": [
        {
          "indexed": true,
          "name": "wallet",
          "type": "address"
        },
        {
          "indexed": true,
          "name": "success",
          "type": "bool"
        },
        {
          "indexed": false,
          "name": "signedHash",
          "type": "bytes32"
        }
      ],
      "name": "TransactionExecuted",
      "type": "event"
    },
    {
      "anonymous": false,
      "inputs": [
        {
          "indexed": false,
          "name": "name",
          "type": "bytes32"
        }
      ],
      "name": "ModuleCreated",
      "type": "event"
    },
    {
      "anonymous": false,
      "inputs": [
        {
          "indexed": false,
          "name": "wallet",
          "type": "address"
        }
      ],
      "name": "ModuleInitialised",
      "type": "event"
    },
    {
      "constant": false,
      "inputs": [
        {
          "name": "_wallet",
          "type": "address"
        }
      ],
      "name": "callDapp",
      "outputs": [],
      "payable": false,
      "stateMutability": "nonpayable",
      "type": "function"
    },
    {
      "constant": false,
      "inputs": [
        {
          "name": "_wallet",
          "type": "address"
        },
        {
          "name": "_val",
          "type": "uint256"
        },
        {
          "name": "_isNewWallet",
          "type": "bool"
        }
      ],
      "name": "callDapp2",
      "outputs": [
        {
          "name": "_ret",
          "type": "uint256"
        }
      ],
      "payable": false,
      "stateMutability": "nonpayable",
      "type": "function"
    },
    {
      "constant": false,
      "inputs": [
        {
          "name": "_wallet",
          "type": "address"
        },
        {
          "name": "reason",
          "type": "string"
        }
      ],
      "name": "fail",
      "outputs": [],
      "payable": false,
      "stateMutability": "nonpayable",
      "type": "function"
    }
  ],
  "bytecode": "0x608060405234801561001057600080fd5b506040516020806118588339810180604052602081101561003057600080fd5b505160008054600160a060020a038316600160a060020a0319918216178255600180549091169055604080517f4e6577546573744d6f64756c65000000000000000000000000000000000000008082529151849392917f3019c8fc80239e3dff8f781212ae2004839c2cb61d6c70acd279ac65392145df919081900360200190a15050506040516100c090610103565b604051809103906000f0801580156100dc573d6000803e3d6000fd5b5060038054600160a060020a031916600160a060020a039290921691909117905550610110565b6101c28061169683390190565b6115778061011f6000396000f3fe608060405234801561001057600080fd5b50600436106100c6576000357c0100000000000000000000000000000000000000000000000000000000900480639be65a601161008e5780639be65a60146101b3578063aacaaf88146101d9578063b6de460a146102c9578063b821e540146102ed578063c9b5ef8e1461036d578063d490da4d14610393576100c6565b806319ab453c146100cb5780632d0335ab146100f35780635a1db8c41461012b5780636024c34b1461015957806371ad07001461017f575b600080fd5b6100f1600480360360208110156100e157600080fd5b5035600160a060020a03166103d0565b005b6101196004803603602081101561010957600080fd5b5035600160a060020a0316610471565b60408051918252519081900360200190f35b6100f16004803603604081101561014157600080fd5b50600160a060020a038135811691602001351661048c565b6100f16004803603602081101561016f57600080fd5b5035600160a060020a0316610650565b6101196004803603606081101561019557600080fd5b50600160a060020a03813516906020810135906040013515156106b3565b6100f1600480360360208110156101c957600080fd5b5035600160a060020a031661082f565b6102b5600480360360c08110156101ef57600080fd5b600160a060020a03823516919081019060408101602082013564010000000081111561021a57600080fd5b82018360208201111561022c57600080fd5b8035906020019184600183028401116401000000008311171561024e57600080fd5b9193909282359260408101906020013564010000000081111561027057600080fd5b82018360208201111561028257600080fd5b803590602001918460018302840111640100000000831117156102a457600080fd5b919350915080359060200135610962565b604080519115158252519081900360200190f35b6102d1610c40565b60408051600160a060020a039092168252519081900360200190f35b6100f16004803603604081101561030357600080fd5b600160a060020a03823516919081019060408101602082013564010000000081111561032e57600080fd5b82018360208201111561034057600080fd5b8035906020019184600183028401116401000000008311171561036257600080fd5b509092509050610c4f565b6101196004803603602081101561038357600080fd5b5035600160a060020a0316610cea565b61039b610cfc565b604080517fffffffff000000000000000000000000000000000000000000000000000000009092168252519081900360200190f35b8033600160a060020a03821614610431576040805160e560020a62461bcd02815260206004820152601960248201527f424d3a2063616c6c6572206d7573742062652077616c6c657400000000000000604482015290519081900360640190fd5b60408051600160a060020a038416815290517f9fcca3f73f85397e2bf03647abf243c20b753bd54463ff3cae74de2971c112fa9181900360200190a15050565b600160a060020a031660009081526002602052604090205490565b81333014806104a057506104a08133610d20565b15156104e05760405160e560020a62461bcd0281526004018080602001828103825260238152602001806114fe6023913960400191505060405180910390fd5b600054604080517f0bcd4ebb000000000000000000000000000000000000000000000000000000008152600160a060020a03858116600483015291519190921691630bcd4ebb916024808301926020929190829003018186803b15801561054657600080fd5b505afa15801561055a573d6000803e3d6000fd5b505050506040513d602081101561057057600080fd5b505115156105c8576040805160e560020a62461bcd02815260206004820152601c60248201527f424d3a206d6f64756c65206973206e6f74207265676973746572656400000000604482015290519081900360640190fd5b604080517f1f17732d000000000000000000000000000000000000000000000000000000008152600160a060020a03848116600483015260016024830152915191851691631f17732d9160448082019260009290919082900301818387803b15801561063357600080fd5b505af1158015610647573d6000803e3d6000fd5b50505050505050565b600354604080516004815260248101909152602081018051600160e060020a03167f31794254000000000000000000000000000000000000000000000000000000001790526106af918391600160a060020a0390911690600090610dc0565b5050565b600354604080516024808201869052825180830390910181526044909101909152602081018051600160e060020a03167f5b72e8c300000000000000000000000000000000000000000000000000000000179052600091606091610726918791600160a060020a03909116908590610dc0565b905082156107e65780516000106107715760405160e560020a62461bcd02815260040180806020018281038252602b815260200180611521602b913960400191505060405180910390fd5b80806020019051602081101561078657600080fd5b505191508382146107e1576040805160e560020a62461bcd02815260206004820152601a60248201527f4e6577546573744d6f64756c653a20696e76616c69642076616c000000000000604482015290519081900360640190fd5b610827565b8051156108275760405160e560020a62461bcd02815260040180806020018281038252602d8152602001806114d1602d913960400191505060405180910390fd5b509392505050565b604080517f70a082310000000000000000000000000000000000000000000000000000000081523060048201529051600091600160a060020a038416916370a0823191602480820192602092909190829003018186803b15801561089257600080fd5b505afa1580156108a6573d6000803e3d6000fd5b505050506040513d60208110156108bc57600080fd5b505160008054604080517fa9059cbb000000000000000000000000000000000000000000000000000000008152600160a060020a0392831660048201526024810185905290519394509085169263a9059cbb92604480840193602093929083900390910190829087803b15801561093257600080fd5b505af1158015610946573d6000803e3d6000fd5b505050506040513d602081101561095c57600080fd5b50505050565b6000805a905060006109b2308c60008d8d8080601f0160208091040260200160405190810160405280939291908181526020018383808284376000920191909152508f92508c91508b905061102e565b90506109bf8b8983611171565b1515610a15576040805160e560020a62461bcd02815260206004820152601560248201527f524d3a204475706c696361746520726571756573740000000000000000000000604482015290519081900360640190fd5b610a558b8b8b8080601f01602080910402602001604051908101604052809392919081815260200183838082843760009201919091525061118592505050565b1515610a955760405160e560020a62461bcd02815260040180806020018281038252604a815260200180611487604a913960600191505060405180910390fd5b6000610ad78c8c8c8080601f0160208091040260200160405190810160405280939291908181526020018383808284376000920191909152506111f992505050565b905060418102871415610bef57610af08c868884611201565b15610bef57801580610b735750610b738c8c8c8080601f01602080910402602001604051908101604052809392919081815260200183838082843760009201919091525050604080516020601f8f018190048102820181019092528d815288935091508d908d90819084018382808284376000920191909152506112d392505050565b15610bef5730600160a060020a03168b8b604051808383808284376040519201945060009350909150508083038183865af19150503d8060008114610bd4576040519150601f19603f3d011682016040523d82523d6000602084013e610bd9565b606091505b505080945050610bef8c5a8503888885336112f8565b60408051838152905185151591600160a060020a038f16917f6bb0b384ce772133df63560651bc8c727c53306cec1d51e2cbf8ea35fb8f2ec19181900360200190a350505098975050505050505050565b600354600160a060020a031681565b6003546040516020602482019081526044820184905261095c928692600160a060020a039091169160009187918791819060640184848082843760008184015260408051601f19601f9093018316909401848103909201845252506020810180517f3ed6321700000000000000000000000000000000000000000000000000000000600160e060020a039091161790529350610dc092505050565b60026020526000908152604090205481565b7fd490da4d0000000000000000000000000000000000000000000000000000000090565b600081600160a060020a031683600160a060020a0316638da5cb5b6040518163ffffffff167c010000000000000000000000000000000000000000000000000000000002815260040160206040518083038186803b158015610d8157600080fd5b505afa158015610d95573d6000803e3d6000fd5b505050506040513d6020811015610dab57600080fd5b5051600160a060020a03161490505b92915050565b6060600085600160a060020a03168585856040516024018084600160a060020a0316600160a060020a0316815260200183815260200180602001828103825283818151815260200191508051906020019080838360005b83811015610e2f578181015183820152602001610e17565b50505050905090810190601f168015610e5c5780820380516001836020036101000a031916815260200191505b5060408051601f19818403018152918152602082018051600160e060020a03167f8f6f033200000000000000000000000000000000000000000000000000000000178152905182519297509550859450925090508083835b60208310610ed35780518252601f199092019160209182019101610eb4565b6001836020036101000a0380198251168184511680821785525050505050509050019150506000604051808303816000865af19150503d8060008114610f35576040519150601f19603f3d011682016040523d82523d6000602084013e610f3a565b606091505b5092509050808015610f4d575060008251115b15610fba57818060200190516020811015610f6757600080fd5b810190808051640100000000811115610f7f57600080fd5b82016020810184811115610f9257600080fd5b8151640100000000811182820187101715610fac57600080fd5b509095506110259350505050565b600082511115610fce573d6000803e3d6000fd5b801515611025576040805160e560020a62461bcd02815260206004820152601a60248201527f424d3a2077616c6c657420696e766f6b65207265766572746564000000000000604482015290519081900360640190fd5b50949350505050565b6040517f190000000000000000000000000000000000000000000000000000000000000060208083018281526000602185018190526c01000000000000000000000000600160a060020a03808e16820260228801528c16026036860152604a85018a90528851909485938d938d938d938d938d938d938d939192606a909201918701908083835b602083106110d45780518252601f1990920191602091820191016110b5565b51815160209384036101000a600019018019909216911617905292019586525084810193909352506040808401919091528051808403820181526060840182528051908301207f19457468657265756d205369676e6564204d6573736167653a0a3332000000006080850152609c808501919091528151808503909101815260bc909301905281519101209e9d5050505050505050505050505050565b600061117d8484611356565b949350505050565b600060248251101515156111e3576040805160e560020a62461bcd02815260206004820152601660248201527f524d3a20496e76616c6964206461746157616c6c657400000000000000000000604482015290519081900360640190fd5b5060240151600160a060020a0391821691161490565b600192915050565b600080831180156112125750600182115b80156112bb575082840285600160a060020a03163110806112bb5750604080517fd6eb1bbf0000000000000000000000000000000000000000000000000000000081523060048201529051600160a060020a0387169163d6eb1bbf916024808301926020929190829003018186803b15801561128d57600080fd5b505afa1580156112a1573d6000803e3d6000fd5b505050506040513d60208110156112b757600080fd5b5051155b156112c85750600061117d565b506001949350505050565b6000806112e2848460006113dc565b90506112ee8682610d20565b9695505050505050565b61726c850160008511801561130d5750600183115b80156113195750838111155b15610647573a85111561132d573a02611330565b84025b61134c8783836020604051908101604052806000815250610dc0565b5050505050505050565b600160a060020a038216600090815260026020526040812054821161137d57506000610dba565b7001000000000000000000000000000000006fffffffffffffffffffffffffffffffff1983160443612710018111156113ba576000915050610dba565b5050600160a060020a0391909116600090815260026020526040902055600190565b6041808202830160208101516040820151919092015160009260ff9190911691601b83148061140e57508260ff16601c145b151561141957600080fd5b604080516000815260208082018084528a905260ff8616828401526060820185905260808201849052915160019260a0808401939192601f1981019281900390910190855afa158015611470573d6000803e3d6000fd5b5050604051601f1901519897505050505050505056fe524d3a207468652077616c6c657420617574686f72697a656420697320646966666572656e74207468656e2074686520746172676574206f66207468652072656c6179656420646174614e6577546573744d6f64756c653a2063616c6c44617070322072657475726e656420736f6d6520726573756c74424d3a206d75737420626520616e206f776e657220666f72207468652077616c6c65744e6577546573744d6f64756c653a2063616c6c44617070322072657475726e6564206e6f20726573756c74a165627a7a723058200d17eaeee9868e463a79ccbe7d7e86b65acef852917522025730cf413bda62110029608060405234801561001057600080fd5b506101a2806100206000396000f3fe608060405234801561001057600080fd5b506004361061005d577c010000000000000000000000000000000000000000000000000000000060003504633179425481146100625780633ed632171461006c5780635b72e8c3146100dc575b600080fd5b61006a61010b565b005b61006a6004803603602081101561008257600080fd5b81019060208101813564010000000081111561009d57600080fd5b8201836020820111156100af57600080fd5b803590602001918460018302840111640100000000831117156100d157600080fd5b50909250905061010d565b6100f9600480360360208110156100f257600080fd5b5035610173565b60408051918252519081900360200190f35b565b81816040517f08c379a000000000000000000000000000000000000000000000000000000000815260040180806020018281038252848482818152602001925080828437600083820152604051601f909101601f19169092018290039550909350505050fd5b9056fea165627a7a72305820255e5a75c0d5ac9a223b2bfd836eb4510e69244719fee7635066ffc43aff40eb0029",
  "source": "pragma solidity ^0.5.4;\n\nimport \"../../modules/common/BaseModule.sol\";\nimport \"../../modules/common/RelayerModule.sol\";\nimport \"../../modules/common/OnlyOwnerModule.sol\";\nimport \"./TestDapp.sol\";\n\n/**\n * @title NewTestModule\n * @dev Test Module\n * @author Olivier VDB - <olivier@argent.xyz>\n */\ncontract NewTestModule is BaseModule, RelayerModule, OnlyOwnerModule {\n\n    bytes32 constant NAME = \"NewTestModule\";\n\n    TestDapp public dapp;\n\n    // *************** Constructor ********************** //\n\n    constructor(\n        ModuleRegistry _registry\n    )\n        BaseModule(_registry, GuardianStorage(0), NAME)\n        public\n    {\n        dapp = new TestDapp();\n    }\n\n    // *************** External/Public Functions ********************* //\n\n    function callDapp(address _wallet)\n        external\n    {\n        invokeWallet(_wallet, address(dapp), 0, abi.encodeWithSignature(\"noReturn()\"));\n    }\n\n    function callDapp2(address _wallet, uint256 _val, bool _isNewWallet)\n        external returns (uint256 _ret)\n    {\n        bytes memory result = invokeWallet(_wallet, address(dapp), 0, abi.encodeWithSignature(\"uintReturn(uint256)\", _val));\n        if(_isNewWallet) {\n            require(result.length > 0, \"NewTestModule: callDapp2 returned no result\");\n            (_ret) = abi.decode(result, (uint256));\n            require(_ret == _val, \"NewTestModule: invalid val\");\n        } else {\n            require(result.length == 0, \"NewTestModule: callDapp2 returned some result\");\n        }\n    }\n\n    function fail(address _wallet, string calldata reason) external {\n        invokeWallet(_wallet, address(dapp), 0, abi.encodeWithSignature(\"doFail(string)\", reason));\n    }\n\n}",
  "sourcePath": "/home/amxx/Work/Argent/argent-contracts/contracts/test/basewallet/NewTestModule.sol",
  "compiler": {
    "name": "solc",
    "version": "0.5.4+commit.9549d8ff.Emscripten.clang",
    "optimizer": true,
    "runs": 200
  },
  "schemaVersion": "2.2.4",
  "updatedAt": "2020-02-29T16:28:22.587Z"
}