{
  "contractName": "NftTransfer",
  "abi": [
    {
      "constant": true,
      "inputs": [
        {
          "name": "_wallet",
          "type": "address"
        }
      ],
      "name": "getNonce",
      "outputs": [
        {
          "name": "nonce",
          "type": "uint256"
        }
      ],
      "payable": false,
      "stateMutability": "view",
      "type": "function"
    },
    {
      "constant": false,
      "inputs": [
        {
          "name": "_wallet",
          "type": "address"
        },
        {
          "name": "_module",
          "type": "address"
        }
      ],
      "name": "addModule",
      "outputs": [],
      "payable": false,
      "stateMutability": "nonpayable",
      "type": "function"
    },
    {
      "constant": false,
      "inputs": [
        {
          "name": "_token",
          "type": "address"
        }
      ],
      "name": "recoverToken",
      "outputs": [],
      "payable": false,
      "stateMutability": "nonpayable",
      "type": "function"
    },
    {
      "constant": false,
      "inputs": [
        {
          "name": "_wallet",
          "type": "address"
        },
        {
          "name": "_data",
          "type": "bytes"
        },
        {
          "name": "_nonce",
          "type": "uint256"
        },
        {
          "name": "_signatures",
          "type": "bytes"
        },
        {
          "name": "_gasPrice",
          "type": "uint256"
        },
        {
          "name": "_gasLimit",
          "type": "uint256"
        }
      ],
      "name": "execute",
      "outputs": [
        {
          "name": "success",
          "type": "bool"
        }
      ],
      "payable": false,
      "stateMutability": "nonpayable",
      "type": "function"
    },
    {
      "constant": true,
      "inputs": [
        {
          "name": "",
          "type": "address"
        }
      ],
      "name": "relayer",
      "outputs": [
        {
          "name": "nonce",
          "type": "uint256"
        }
      ],
      "payable": false,
      "stateMutability": "view",
      "type": "function"
    },
    {
      "constant": true,
      "inputs": [],
      "name": "ckAddress",
      "outputs": [
        {
          "name": "",
          "type": "address"
        }
      ],
      "payable": false,
      "stateMutability": "view",
      "type": "function"
    },
    {
      "constant": true,
      "inputs": [],
      "name": "isOnlyOwnerModule",
      "outputs": [
        {
          "name": "",
          "type": "bytes4"
        }
      ],
      "payable": false,
      "stateMutability": "pure",
      "type": "function"
    },
    {
      "inputs": [
        {
          "name": "_registry",
          "type": "address"
        },
        {
          "name": "_guardianStorage",
          "type": "address"
        },
        {
          "name": "_ckAddress",
          "type": "address"
        }
      ],
      "payable": false,
      "stateMutability": "nonpayable",
      "type": "constructor"
    },
    {
      "anonymous": false,
      "inputs": [
        {
          "indexed": true,
          "name": "wallet",
          "type": "address"
        },
        {
          "indexed": true,
          "name": "nftContract",
          "type": "address"
        },
        {
          "indexed": true,
          "name": "tokenId",
          "type": "uint256"
        },
        {
          "indexed": false,
          "name": "to",
          "type": "address"
        },
        {
          "indexed": false,
          "name": "data",
          "type": "bytes"
        }
      ],
      "name": "NonFungibleTransfer",
      "type": "event"
    },
    {
      "anonymous": false,
      "inputs": [
        {
          "indexed": true,
          "name": "wallet",
          "type": "address"
        },
        {
          "indexed": true,
          "name": "success",
          "type": "bool"
        },
        {
          "indexed": false,
          "name": "signedHash",
          "type": "bytes32"
        }
      ],
      "name": "TransactionExecuted",
      "type": "event"
    },
    {
      "anonymous": false,
      "inputs": [
        {
          "indexed": false,
          "name": "name",
          "type": "bytes32"
        }
      ],
      "name": "ModuleCreated",
      "type": "event"
    },
    {
      "anonymous": false,
      "inputs": [
        {
          "indexed": false,
          "name": "wallet",
          "type": "address"
        }
      ],
      "name": "ModuleInitialised",
      "type": "event"
    },
    {
      "constant": false,
      "inputs": [
        {
          "name": "_wallet",
          "type": "address"
        }
      ],
      "name": "init",
      "outputs": [],
      "payable": false,
      "stateMutability": "nonpayable",
      "type": "function"
    },
    {
      "constant": false,
      "inputs": [
        {
          "name": "",
          "type": "address"
        },
        {
          "name": "",
          "type": "address"
        },
        {
          "name": "",
          "type": "uint256"
        },
        {
          "name": "",
          "type": "bytes"
        }
      ],
      "name": "onERC721Received",
      "outputs": [
        {
          "name": "",
          "type": "bytes4"
        }
      ],
      "payable": false,
      "stateMutability": "nonpayable",
      "type": "function"
    },
    {
      "constant": false,
      "inputs": [
        {
          "name": "_wallet",
          "type": "address"
        },
        {
          "name": "_nftContract",
          "type": "address"
        },
        {
          "name": "_to",
          "type": "address"
        },
        {
          "name": "_tokenId",
          "type": "uint256"
        },
        {
          "name": "_safe",
          "type": "bool"
        },
        {
          "name": "_data",
          "type": "bytes"
        }
      ],
      "name": "transferNFT",
      "outputs": [],
      "payable": false,
      "stateMutability": "nonpayable",
      "type": "function"
    }
  ],
  "bytecode": "0x608060405234801561001057600080fd5b50604051606080611c538339810180604052606081101561003057600080fd5b50805160208083015160409384015160008054600160a060020a03808716600160a060020a031992831617909255600180549285169290911691909117905584517f4e66745472616e7366657200000000000000000000000000000000000000000080825295519495929491938693869390927f3019c8fc80239e3dff8f781212ae2004839c2cb61d6c70acd279ac65392145df92908290030190a1505060038054600160a060020a03909316600160a060020a031990931692909217909155505050611b51806101026000396000f3fe608060405234801561001057600080fd5b50600436106100bb576000357c0100000000000000000000000000000000000000000000000000000000900480639be65a60116100835780639be65a60146102b2578063aacaaf88146102d8578063c9b5ef8e146103c8578063ca4a74ef146103ee578063d490da4d14610412576100bb565b8063150b7a02146100c057806319ab453c146101855780632d0335ab146101ad5780634ce75559146101e55780635a1db8c414610284575b600080fd5b610150600480360360808110156100d657600080fd5b600160a060020a0382358116926020810135909116916040820135919081019060808101606082013564010000000081111561011157600080fd5b82018360208201111561012357600080fd5b8035906020019184600183028401116401000000008311171561014557600080fd5b50909250905061041a565b604080517fffffffff000000000000000000000000000000000000000000000000000000009092168252519081900360200190f35b6101ab6004803603602081101561019b57600080fd5b5035600160a060020a0316610444565b005b6101d3600480360360208110156101c357600080fd5b5035600160a060020a0316610547565b60408051918252519081900360200190f35b6101ab600480360360c08110156101fb57600080fd5b600160a060020a0382358116926020810135821692604082013590921691606082013591608081013515159181019060c0810160a082013564010000000081111561024557600080fd5b82018360208201111561025757600080fd5b8035906020019184600183028401116401000000008311171561027957600080fd5b509092509050610562565b6101ab6004803603604081101561029a57600080fd5b50600160a060020a0381358116916020013516610957565b6101ab600480360360208110156102c857600080fd5b5035600160a060020a0316610b1b565b6103b4600480360360c08110156102ee57600080fd5b600160a060020a03823516919081019060408101602082013564010000000081111561031957600080fd5b82018360208201111561032b57600080fd5b8035906020019184600183028401116401000000008311171561034d57600080fd5b9193909282359260408101906020013564010000000081111561036f57600080fd5b82018360208201111561038157600080fd5b803590602001918460018302840111640100000000831117156103a357600080fd5b919350915080359060200135610c4e565b604080519115158252519081900360200190f35b6101d3600480360360208110156103de57600080fd5b5035600160a060020a0316610f2c565b6103f6610f3e565b60408051600160a060020a039092168252519081900360200190f35b610150610f4d565b7f150b7a020000000000000000000000000000000000000000000000000000000095945050505050565b8033600160a060020a038216146104a5576040805160e560020a62461bcd02815260206004820152601960248201527f424d3a2063616c6c6572206d7573742062652077616c6c657400000000000000604482015290519081900360640190fd5b604080517f13da30b20000000000000000000000000000000000000000000000000000000081523060048201527f150b7a020000000000000000000000000000000000000000000000000000000060248201529051600160a060020a038416916313da30b291604480830192600092919082900301818387803b15801561052b57600080fd5b505af115801561053f573d6000803e3d6000fd5b505050505050565b600160a060020a031660009081526002602052604090205490565b863330148061057657506105768133610f71565b15156105b65760405160e560020a62461bcd028152600401808060200182810382526023815260200180611b036023913960400191505060405180910390fd5b600154604080517f4a4fbeec000000000000000000000000000000000000000000000000000000008152600160a060020a03808c16600483015291518b939290921691634a4fbeec91602480820192602092909190829003018186803b15801561061f57600080fd5b505afa158015610633573d6000803e3d6000fd5b505050506040513d602081101561064957600080fd5b5051156106a0576040805160e560020a62461bcd02815260206004820152601b60248201527f424d3a2077616c6c6574206d75737420626520756e6c6f636b65640000000000604482015290519081900360640190fd5b600354606090600160a060020a038a81169116141561071f575060408051600160a060020a03891660248201526044808201899052825180830390910181526064909101909152602081018051600160e060020a03167fa9059cbb000000000000000000000000000000000000000000000000000000001790526108ae565b85156107e45789888887876040516024018086600160a060020a0316600160a060020a0316815260200185600160a060020a0316600160a060020a0316815260200184815260200180602001828103825284848281815260200192508082843760008184015260408051601f19601f9093018316909401848103909201845252506020810180517fb88d4fde00000000000000000000000000000000000000000000000000000000600160e060020a0390911617905297506108ae9650505050505050565b6107ee8988611011565b1515610844576040805160e560020a62461bcd02815260206004820152601e60248201527f4e543a204e6f6e2d636f6d706c69616e74204e465420636f6e74726163740000604482015290519081900360640190fd5b5060408051600160a060020a03808c166024830152891660448201526064808201899052825180830390910181526084909101909152602081018051600160e060020a03167f23b872dd000000000000000000000000000000000000000000000000000000001790525b6108bb8a8a6000846113f2565b508689600160a060020a03168b600160a060020a03167ff4d4e61ce3cc437b23a31d83ee3cf289063bfa988705f5b9cfa8712e91be18ea8b89896040518084600160a060020a0316600160a060020a03168152602001806020018281038252848482818152602001925080828437600083820152604051601f909101601f1916909201829003965090945050505050a450505050505050505050565b813330148061096b575061096b8133610f71565b15156109ab5760405160e560020a62461bcd028152600401808060200182810382526023815260200180611b036023913960400191505060405180910390fd5b600054604080517f0bcd4ebb000000000000000000000000000000000000000000000000000000008152600160a060020a03858116600483015291519190921691630bcd4ebb916024808301926020929190829003018186803b158015610a1157600080fd5b505afa158015610a25573d6000803e3d6000fd5b505050506040513d6020811015610a3b57600080fd5b50511515610a93576040805160e560020a62461bcd02815260206004820152601c60248201527f424d3a206d6f64756c65206973206e6f74207265676973746572656400000000604482015290519081900360640190fd5b604080517f1f17732d000000000000000000000000000000000000000000000000000000008152600160a060020a03848116600483015260016024830152915191851691631f17732d9160448082019260009290919082900301818387803b158015610afe57600080fd5b505af1158015610b12573d6000803e3d6000fd5b50505050505050565b604080517f70a082310000000000000000000000000000000000000000000000000000000081523060048201529051600091600160a060020a038416916370a0823191602480820192602092909190829003018186803b158015610b7e57600080fd5b505afa158015610b92573d6000803e3d6000fd5b505050506040513d6020811015610ba857600080fd5b505160008054604080517fa9059cbb000000000000000000000000000000000000000000000000000000008152600160a060020a0392831660048201526024810185905290519394509085169263a9059cbb92604480840193602093929083900390910190829087803b158015610c1e57600080fd5b505af1158015610c32573d6000803e3d6000fd5b505050506040513d6020811015610c4857600080fd5b50505050565b6000805a90506000610c9e308c60008d8d8080601f0160208091040260200160405190810160405280939291908181526020018383808284376000920191909152508f92508c91508b9050611660565b9050610cab8b89836117a3565b1515610d01576040805160e560020a62461bcd02815260206004820152601560248201527f524d3a204475706c696361746520726571756573740000000000000000000000604482015290519081900360640190fd5b610d418b8b8b8080601f0160208091040260200160405190810160405280939291908181526020018383808284376000920191909152506117b792505050565b1515610d815760405160e560020a62461bcd02815260040180806020018281038252604a815260200180611ab9604a913960600191505060405180910390fd5b6000610dc38c8c8c8080601f01602080910402602001604051908101604052809392919081815260200183838082843760009201919091525061182b92505050565b905060418102871415610edb57610ddc8c868884611833565b15610edb57801580610e5f5750610e5f8c8c8c8080601f01602080910402602001604051908101604052809392919081815260200183838082843760009201919091525050604080516020601f8f018190048102820181019092528d815288935091508d908d908190840183828082843760009201919091525061190592505050565b15610edb5730600160a060020a03168b8b604051808383808284376040519201945060009350909150508083038183865af19150503d8060008114610ec0576040519150601f19603f3d011682016040523d82523d6000602084013e610ec5565b606091505b505080945050610edb8c5a85038888853361192a565b60408051838152905185151591600160a060020a038f16917f6bb0b384ce772133df63560651bc8c727c53306cec1d51e2cbf8ea35fb8f2ec19181900360200190a350505098975050505050505050565b60026020526000908152604090205481565b600354600160a060020a031681565b7fd490da4d0000000000000000000000000000000000000000000000000000000090565b600081600160a060020a031683600160a060020a0316638da5cb5b6040518163ffffffff167c010000000000000000000000000000000000000000000000000000000002815260040160206040518083038186803b158015610fd257600080fd5b505afa158015610fe6573d6000803e3d6000fd5b505050506040513d6020811015610ffc57600080fd5b5051600160a060020a03161490505b92915050565b604080516380ac58cd6024808301919091528251808303909101815260449091018252602081018051600160e060020a03167f01ffc9a700000000000000000000000000000000000000000000000000000000178152915181516000938493606093600160a060020a03891693919290918291908083835b602083106110a85780518252601f199092019160209182019101611089565b6001836020036101000a0380198251168184511680821785525050505050509050019150506000604051808303816000865af19150503d806000811461110a576040519150601f19603f3d011682016040523d82523d6000602084013e61110f565b606091505b509150915081801561117c575080600081518110151561112b57fe5b6020910101517f010000000000000000000000000000000000000000000000000000000000000090819004027fff000000000000000000000000000000000000000000000000000000000000001615155b1561118c5760019250505061100b565b60408051636466353c6024808301919091528251808303909101815260449091018252602081018051600160e060020a03167f01ffc9a70000000000000000000000000000000000000000000000000000000017815291518151600160a060020a0389169382918083835b602083106112165780518252601f1990920191602091820191016111f7565b6001836020036101000a0380198251168184511680821785525050505050509050019150506000604051808303816000865af19150503d8060008114611278576040519150601f19603f3d011682016040523d82523d6000602084013e61127d565b606091505b5090925090508180156112eb575080600081518110151561129a57fe5b6020910101517f010000000000000000000000000000000000000000000000000000000000000090819004027fff000000000000000000000000000000000000000000000000000000000000001615155b156112fb5760019250505061100b565b6040805160248082018790528251808303909101815260449091018252602081018051600160e060020a03167f6352211e0000000000000000000000000000000000000000000000000000000017815291518151600160a060020a0389169382918083835b6020831061137f5780518252601f199092019160209182019101611360565b6001836020036101000a0380198251168184511680821785525050505050509050019150506000604051808303816000865af19150503d80600081146113e1576040519150601f19603f3d011682016040523d82523d6000602084013e6113e6565b606091505b50909695505050505050565b6060600085600160a060020a03168585856040516024018084600160a060020a0316600160a060020a0316815260200183815260200180602001828103825283818151815260200191508051906020019080838360005b83811015611461578181015183820152602001611449565b50505050905090810190601f16801561148e5780820380516001836020036101000a031916815260200191505b5060408051601f19818403018152918152602082018051600160e060020a03167f8f6f033200000000000000000000000000000000000000000000000000000000178152905182519297509550859450925090508083835b602083106115055780518252601f1990920191602091820191016114e6565b6001836020036101000a0380198251168184511680821785525050505050509050019150506000604051808303816000865af19150503d8060008114611567576040519150601f19603f3d011682016040523d82523d6000602084013e61156c565b606091505b509250905080801561157f575060008251115b156115ec5781806020019051602081101561159957600080fd5b8101908080516401000000008111156115b157600080fd5b820160208101848111156115c457600080fd5b81516401000000008111828201871017156115de57600080fd5b509095506116579350505050565b600082511115611600573d6000803e3d6000fd5b801515611657576040805160e560020a62461bcd02815260206004820152601a60248201527f424d3a2077616c6c657420696e766f6b65207265766572746564000000000000604482015290519081900360640190fd5b50949350505050565b6040517f190000000000000000000000000000000000000000000000000000000000000060208083018281526000602185018190526c01000000000000000000000000600160a060020a03808e16820260228801528c16026036860152604a85018a90528851909485938d938d938d938d938d938d938d939192606a909201918701908083835b602083106117065780518252601f1990920191602091820191016116e7565b51815160209384036101000a600019018019909216911617905292019586525084810193909352506040808401919091528051808403820181526060840182528051908301207f19457468657265756d205369676e6564204d6573736167653a0a3332000000006080850152609c808501919091528151808503909101815260bc909301905281519101209e9d5050505050505050505050505050565b60006117af8484611988565b949350505050565b60006024825110151515611815576040805160e560020a62461bcd02815260206004820152601660248201527f524d3a20496e76616c6964206461746157616c6c657400000000000000000000604482015290519081900360640190fd5b5060240151600160a060020a0391821691161490565b600192915050565b600080831180156118445750600182115b80156118ed575082840285600160a060020a03163110806118ed5750604080517fd6eb1bbf0000000000000000000000000000000000000000000000000000000081523060048201529051600160a060020a0387169163d6eb1bbf916024808301926020929190829003018186803b1580156118bf57600080fd5b505afa1580156118d3573d6000803e3d6000fd5b505050506040513d60208110156118e957600080fd5b5051155b156118fa575060006117af565b506001949350505050565b60008061191484846000611a0e565b90506119208682610f71565b9695505050505050565b61726c850160008511801561193f5750600183115b801561194b5750838111155b15610b12573a85111561195f573a02611962565b84025b61197e87838360206040519081016040528060008152506113f2565b5050505050505050565b600160a060020a03821660009081526002602052604081205482116119af5750600061100b565b7001000000000000000000000000000000006fffffffffffffffffffffffffffffffff1983160443612710018111156119ec57600091505061100b565b5050600160a060020a0391909116600090815260026020526040902055600190565b6041808202830160208101516040820151919092015160009260ff9190911691601b831480611a4057508260ff16601c145b1515611a4b57600080fd5b604080516000815260208082018084528a905260ff8616828401526060820185905260808201849052915160019260a0808401939192601f1981019281900390910190855afa158015611aa2573d6000803e3d6000fd5b5050604051601f1901519897505050505050505056fe524d3a207468652077616c6c657420617574686f72697a656420697320646966666572656e74207468656e2074686520746172676574206f66207468652072656c617965642064617461424d3a206d75737420626520616e206f776e657220666f72207468652077616c6c6574a165627a7a72305820580b6b5e4424c964c7bc7ddfbd4c29113098e00d7a6d1d3f0dedbd80e695807a0029",
  "source": "pragma solidity ^0.5.4;\n\nimport \"./common/BaseModule.sol\";\nimport \"./common/RelayerModule.sol\";\nimport \"./common/OnlyOwnerModule.sol\";\n\n/**\n * @title NftTransfer\n * @dev Module to transfer NFTs (ERC721),\n * @author Olivier VDB - <olivier@argent.xyz>\n */\ncontract NftTransfer is BaseModule, RelayerModule, OnlyOwnerModule {\n\n    bytes32 constant NAME = \"NftTransfer\";\n\n    // Equals to `bytes4(keccak256(\"onERC721Received(address,address,uint256,bytes)\"))`\n    bytes4 private constant ERC721_RECEIVED = 0x150b7a02;\n\n    // The address of the CryptoKitties contract\n    address public ckAddress;\n\n    // *************** Events *************************** //\n\n    event NonFungibleTransfer(address indexed wallet, address indexed nftContract, uint256 indexed tokenId, address to, bytes data);\n\n    // *************** Constructor ********************** //\n\n    constructor(\n        ModuleRegistry _registry,\n        GuardianStorage _guardianStorage,\n        address _ckAddress\n    )\n        BaseModule(_registry, _guardianStorage, NAME)\n        public\n    {\n        ckAddress = _ckAddress;\n    }\n\n    // *************** External/Public Functions ********************* //\n\n    /**\n     * @dev Inits the module for a wallet by setting up the onERC721Received\n     * static call redirection from the wallet to the module.\n     * @param _wallet The target wallet.\n     */\n    function init(BaseWallet _wallet) public onlyWallet(_wallet) {\n        _wallet.enableStaticCall(address(this), ERC721_RECEIVED);\n    }\n\n    /**\n     * @notice Handle the receipt of an NFT\n     * @dev An ERC721 smart contract calls this function on the recipient contract\n     * after a `safeTransfer`. If the recipient is a BaseWallet, the call to onERC721Received\n     * will be forwarded to the method onERC721Received of the present module.\n     * @return bytes4 `bytes4(keccak256(\"onERC721Received(address,address,uint256,bytes)\"))`\n     */\n    function onERC721Received(\n        address /* operator */,\n        address /* from */,\n        uint256 /* tokenId */,\n        bytes calldata /* data*/\n    )\n        external\n        returns (bytes4)\n    {\n        return ERC721_RECEIVED;\n    }\n\n    /**\n    * @dev lets the owner transfer NFTs from a wallet.\n    * @param _wallet The target wallet.\n    * @param _nftContract The ERC721 address.\n    * @param _to The recipient.\n    * @param _tokenId The NFT id\n    * @param _safe Whether to execute a safe transfer or not\n    * @param _data The data to pass with the transfer.\n    */\nfunction transferNFT(\n        BaseWallet _wallet,\n        address _nftContract,\n        address _to,\n        uint256 _tokenId,\n        bool _safe,\n        bytes calldata _data\n    )\n        external\n        onlyWalletOwner(_wallet)\n        onlyWhenUnlocked(_wallet)\n    {\n        bytes memory methodData;\n        if(_nftContract == ckAddress) {\n            methodData = abi.encodeWithSignature(\"transfer(address,uint256)\", _to, _tokenId);\n        } else {\n           if(_safe) {\n               methodData = abi.encodeWithSignature(\n                   \"safeTransferFrom(address,address,uint256,bytes)\", address(_wallet), _to, _tokenId, _data);\n           } else {\n               require(isERC721(_nftContract, _tokenId), \"NT: Non-compliant NFT contract\");\n               methodData = abi.encodeWithSignature(\n                   \"transferFrom(address,address,uint256)\", address(_wallet), _to, _tokenId);\n           }\n        }\n        invokeWallet(address(_wallet), _nftContract, 0, methodData);\n        emit NonFungibleTransfer(address(_wallet), _nftContract, _tokenId, _to, _data);\n    }\n\n    // *************** Internal Functions ********************* //\n\n    /**\n    * @dev Check whether a given contract complies with ERC721.\n    * @param _nftContract The contract to check.\n    * @param _tokenId The tokenId to use for the check.\n    * @return true if the contract is an ERC721, false otherwise.\n    */\n    function isERC721(address _nftContract, uint256 _tokenId) internal returns (bool) {\n        // solium-disable-next-line security/no-low-level-calls\n        (bool success, bytes memory result) = _nftContract.call(abi.encodeWithSignature('supportsInterface(bytes4)', 0x80ac58cd));\n        if(success && result[0] != 0x0) return true;\n\n        // solium-disable-next-line security/no-low-level-calls\n        (success, result) = _nftContract.call(abi.encodeWithSignature('supportsInterface(bytes4)', 0x6466353c));\n        if(success && result[0] != 0x0) return true;\n\n        // solium-disable-next-line security/no-low-level-calls\n        (success,) = _nftContract.call(abi.encodeWithSignature('ownerOf(uint256)', _tokenId));\n        return success;\n    }\n\n}",
  "sourcePath": "/home/amxx/Work/Argent/argent-contracts/contracts/modules/NftTransfer.sol",
  "compiler": {
    "name": "solc",
    "version": "0.5.4+commit.9549d8ff.Emscripten.clang",
    "optimizer": true,
    "runs": 200
  },
  "schemaVersion": "2.2.4",
  "updatedAt": "2020-02-29T16:28:22.548Z"
}