{
  "contractName": "OldTestModule",
  "abi": [
    {
      "constant": false,
      "inputs": [
        {
          "name": "_wallet",
          "type": "address"
        }
      ],
      "name": "init",
      "outputs": [],
      "payable": false,
      "stateMutability": "nonpayable",
      "type": "function"
    },
    {
      "constant": true,
      "inputs": [
        {
          "name": "_wallet",
          "type": "address"
        }
      ],
      "name": "getNonce",
      "outputs": [
        {
          "name": "nonce",
          "type": "uint256"
        }
      ],
      "payable": false,
      "stateMutability": "view",
      "type": "function"
    },
    {
      "constant": false,
      "inputs": [
        {
          "name": "_wallet",
          "type": "address"
        },
        {
          "name": "_module",
          "type": "address"
        }
      ],
      "name": "addModule",
      "outputs": [],
      "payable": false,
      "stateMutability": "nonpayable",
      "type": "function"
    },
    {
      "constant": false,
      "inputs": [
        {
          "name": "_token",
          "type": "address"
        }
      ],
      "name": "recoverToken",
      "outputs": [],
      "payable": false,
      "stateMutability": "nonpayable",
      "type": "function"
    },
    {
      "constant": false,
      "inputs": [
        {
          "name": "_wallet",
          "type": "address"
        },
        {
          "name": "_data",
          "type": "bytes"
        },
        {
          "name": "_nonce",
          "type": "uint256"
        },
        {
          "name": "_signatures",
          "type": "bytes"
        },
        {
          "name": "_gasPrice",
          "type": "uint256"
        },
        {
          "name": "_gasLimit",
          "type": "uint256"
        }
      ],
      "name": "execute",
      "outputs": [
        {
          "name": "success",
          "type": "bool"
        }
      ],
      "payable": false,
      "stateMutability": "nonpayable",
      "type": "function"
    },
    {
      "constant": true,
      "inputs": [],
      "name": "dapp",
      "outputs": [
        {
          "name": "",
          "type": "address"
        }
      ],
      "payable": false,
      "stateMutability": "view",
      "type": "function"
    },
    {
      "constant": true,
      "inputs": [
        {
          "name": "",
          "type": "address"
        }
      ],
      "name": "relayer",
      "outputs": [
        {
          "name": "nonce",
          "type": "uint256"
        }
      ],
      "payable": false,
      "stateMutability": "view",
      "type": "function"
    },
    {
      "constant": true,
      "inputs": [],
      "name": "isOnlyOwnerModule",
      "outputs": [
        {
          "name": "",
          "type": "bytes4"
        }
      ],
      "payable": false,
      "stateMutability": "pure",
      "type": "function"
    },
    {
      "inputs": [
        {
          "name": "_registry",
          "type": "address"
        }
      ],
      "payable": false,
      "stateMutability": "nonpayable",
      "type": "constructor"
    },
    {
      "anonymous": false,
      "inputs": [
        {
          "indexed": true,
          "name": "wallet",
          "type": "address"
        },
        {
          "indexed": true,
          "name": "success",
          "type": "bool"
        },
        {
          "indexed": false,
          "name": "signedHash",
          "type": "bytes32"
        }
      ],
      "name": "TransactionExecuted",
      "type": "event"
    },
    {
      "anonymous": false,
      "inputs": [
        {
          "indexed": false,
          "name": "name",
          "type": "bytes32"
        }
      ],
      "name": "ModuleCreated",
      "type": "event"
    },
    {
      "anonymous": false,
      "inputs": [
        {
          "indexed": false,
          "name": "wallet",
          "type": "address"
        }
      ],
      "name": "ModuleInitialised",
      "type": "event"
    },
    {
      "constant": false,
      "inputs": [
        {
          "name": "_wallet",
          "type": "address"
        }
      ],
      "name": "callDapp",
      "outputs": [],
      "payable": false,
      "stateMutability": "nonpayable",
      "type": "function"
    },
    {
      "constant": false,
      "inputs": [
        {
          "name": "_wallet",
          "type": "address"
        }
      ],
      "name": "callDapp2",
      "outputs": [],
      "payable": false,
      "stateMutability": "nonpayable",
      "type": "function"
    }
  ],
  "bytecode": "0x608060405234801561001057600080fd5b506040516020806117418339810180604052602081101561003057600080fd5b505160008054600160a060020a038316600160a060020a0319918216178255600180549091169055604080517f4f6c64546573744d6f64756c65000000000000000000000000000000000000008082529151849392917f3019c8fc80239e3dff8f781212ae2004839c2cb61d6c70acd279ac65392145df919081900360200190a15050506040516100c090610103565b604051809103906000f0801580156100dc573d6000803e3d6000fd5b5060038054600160a060020a031916600160a060020a039290921691909117905550610110565b6101c28061157f83390190565b6114608061011f6000396000f3fe608060405234801561001057600080fd5b50600436106100bb576000357c0100000000000000000000000000000000000000000000000000000000900480639be65a60116100835780639be65a601461019a578063aacaaf88146101c0578063b6de460a146102b0578063c9b5ef8e146102d4578063d490da4d146102fa576100bb565b806319ab453c146100c05780632d0335ab146100e85780635a1db8c4146101205780636024c34b1461014e57806364e269a914610174575b600080fd5b6100e6600480360360208110156100d657600080fd5b5035600160a060020a0316610337565b005b61010e600480360360208110156100fe57600080fd5b5035600160a060020a03166103d8565b60408051918252519081900360200190f35b6100e66004803603604081101561013657600080fd5b50600160a060020a03813581169160200135166103f3565b6100e66004803603602081101561016457600080fd5b5035600160a060020a03166105b7565b6100e66004803603602081101561018a57600080fd5b5035600160a060020a0316610709565b6100e6600480360360208110156101b057600080fd5b5035600160a060020a03166107f6565b61029c600480360360c08110156101d657600080fd5b600160a060020a03823516919081019060408101602082013564010000000081111561020157600080fd5b82018360208201111561021357600080fd5b8035906020019184600183028401116401000000008311171561023557600080fd5b9193909282359260408101906020013564010000000081111561025757600080fd5b82018360208201111561026957600080fd5b8035906020019184600183028401116401000000008311171561028b57600080fd5b919350915080359060200135610929565b604080519115158252519081900360200190f35b6102b8610c07565b60408051600160a060020a039092168252519081900360200190f35b61010e600480360360208110156102ea57600080fd5b5035600160a060020a0316610c16565b610302610c28565b604080517fffffffff000000000000000000000000000000000000000000000000000000009092168252519081900360200190f35b8033600160a060020a03821614610398576040805160e560020a62461bcd02815260206004820152601960248201527f424d3a2063616c6c6572206d7573742062652077616c6c657400000000000000604482015290519081900360640190fd5b60408051600160a060020a038416815290517f9fcca3f73f85397e2bf03647abf243c20b753bd54463ff3cae74de2971c112fa9181900360200190a15050565b600160a060020a031660009081526002602052604090205490565b813330148061040757506104078133610c4c565b15156104475760405160e560020a62461bcd0281526004018080602001828103825260238152602001806114126023913960400191505060405180910390fd5b600054604080517f0bcd4ebb000000000000000000000000000000000000000000000000000000008152600160a060020a03858116600483015291519190921691630bcd4ebb916024808301926020929190829003018186803b1580156104ad57600080fd5b505afa1580156104c1573d6000803e3d6000fd5b505050506040513d60208110156104d757600080fd5b5051151561052f576040805160e560020a62461bcd02815260206004820152601c60248201527f424d3a206d6f64756c65206973206e6f74207265676973746572656400000000604482015290519081900360640190fd5b604080517f1f17732d000000000000000000000000000000000000000000000000000000008152600160a060020a03848116600483015260016024830152915191851691631f17732d9160448082019260009290919082900301818387803b15801561059a57600080fd5b505af11580156105ae573d6000803e3d6000fd5b50505050505050565b6003546040805160006024808301829052835180840382018152604493840185526020810180517bffffffffffffffffffffffffffffffffffffffffffffffffffffffff167f317942540000000000000000000000000000000000000000000000000000000017815294517f8f6f0332000000000000000000000000000000000000000000000000000000008152600160a060020a0396871660048201818152938201859052606095820195865282516064830152825197891697638f6f0332979196939493926084019190808383895b838110156106a0578181015183820152602001610688565b50505050905090810190601f1680156106cd5780820380516001836020036101000a031916815260200191505b50945050505050600060405180830381600087803b1580156106ee57600080fd5b505af1158015610702573d6000803e3d6000fd5b5050505050565b600354604080516002602480830191909152825180830382018152604492830184526020810180517bffffffffffffffffffffffffffffffffffffffffffffffffffffffff167f5b72e8c30000000000000000000000000000000000000000000000000000000017815293517f8f6f0332000000000000000000000000000000000000000000000000000000008152600160a060020a03958616600482018181526000948301859052606095830195865283516064840152835197891697638f6f0332979296919391926084909201919080838389838110156106a0578181015183820152602001610688565b604080517f70a082310000000000000000000000000000000000000000000000000000000081523060048201529051600091600160a060020a038416916370a0823191602480820192602092909190829003018186803b15801561085957600080fd5b505afa15801561086d573d6000803e3d6000fd5b505050506040513d602081101561088357600080fd5b505160008054604080517fa9059cbb000000000000000000000000000000000000000000000000000000008152600160a060020a0392831660048201526024810185905290519394509085169263a9059cbb92604480840193602093929083900390910190829087803b1580156108f957600080fd5b505af115801561090d573d6000803e3d6000fd5b505050506040513d602081101561092357600080fd5b50505050565b6000805a90506000610979308c60008d8d8080601f0160208091040260200160405190810160405280939291908181526020018383808284376000920191909152508f92508c91508b9050610cec565b90506109868b8983610e2f565b15156109dc576040805160e560020a62461bcd02815260206004820152601560248201527f524d3a204475706c696361746520726571756573740000000000000000000000604482015290519081900360640190fd5b610a1c8b8b8b8080601f016020809104026020016040519081016040528093929190818152602001838380828437600092019190915250610e4392505050565b1515610a5c5760405160e560020a62461bcd02815260040180806020018281038252604a8152602001806113c8604a913960600191505060405180910390fd5b6000610a9e8c8c8c8080601f016020809104026020016040519081016040528093929190818152602001838380828437600092019190915250610eb792505050565b905060418102871415610bb657610ab78c868884610ebf565b15610bb657801580610b3a5750610b3a8c8c8c8080601f01602080910402602001604051908101604052809392919081815260200183838082843760009201919091525050604080516020601f8f018190048102820181019092528d815288935091508d908d9081908401838280828437600092019190915250610f9192505050565b15610bb65730600160a060020a03168b8b604051808383808284376040519201945060009350909150508083038183865af19150503d8060008114610b9b576040519150601f19603f3d011682016040523d82523d6000602084013e610ba0565b606091505b505080945050610bb68c5a850388888533610fb6565b60408051838152905185151591600160a060020a038f16917f6bb0b384ce772133df63560651bc8c727c53306cec1d51e2cbf8ea35fb8f2ec19181900360200190a350505098975050505050505050565b600354600160a060020a031681565b60026020526000908152604090205481565b7fd490da4d0000000000000000000000000000000000000000000000000000000090565b600081600160a060020a031683600160a060020a0316638da5cb5b6040518163ffffffff167c010000000000000000000000000000000000000000000000000000000002815260040160206040518083038186803b158015610cad57600080fd5b505afa158015610cc1573d6000803e3d6000fd5b505050506040513d6020811015610cd757600080fd5b5051600160a060020a03161490505b92915050565b6040517f190000000000000000000000000000000000000000000000000000000000000060208083018281526000602185018190526c01000000000000000000000000600160a060020a03808e16820260228801528c16026036860152604a85018a90528851909485938d938d938d938d938d938d938d939192606a909201918701908083835b60208310610d925780518252601f199092019160209182019101610d73565b51815160209384036101000a600019018019909216911617905292019586525084810193909352506040808401919091528051808403820181526060840182528051908301207f19457468657265756d205369676e6564204d6573736167653a0a3332000000006080850152609c808501919091528151808503909101815260bc909301905281519101209e9d5050505050505050505050505050565b6000610e3b8484611014565b949350505050565b60006024825110151515610ea1576040805160e560020a62461bcd02815260206004820152601660248201527f524d3a20496e76616c6964206461746157616c6c657400000000000000000000604482015290519081900360640190fd5b5060240151600160a060020a0391821691161490565b600192915050565b60008083118015610ed05750600182115b8015610f79575082840285600160a060020a0316311080610f795750604080517fd6eb1bbf0000000000000000000000000000000000000000000000000000000081523060048201529051600160a060020a0387169163d6eb1bbf916024808301926020929190829003018186803b158015610f4b57600080fd5b505afa158015610f5f573d6000803e3d6000fd5b505050506040513d6020811015610f7557600080fd5b5051155b15610f8657506000610e3b565b506001949350505050565b600080610fa08484600061109a565b9050610fac8682610c4c565b9695505050505050565b61726c8501600085118015610fcb5750600183115b8015610fd75750838111155b156105ae573a851115610feb573a02610fee565b84025b61100a8783836020604051908101604052806000815250611144565b5050505050505050565b600160a060020a038216600090815260026020526040812054821161103b57506000610ce6565b7001000000000000000000000000000000006fffffffffffffffffffffffffffffffff198316044361271001811115611078576000915050610ce6565b5050600160a060020a0391909116600090815260026020526040902055600190565b6041808202830160208101516040820151919092015160009260ff9190911691601b8314806110cc57508260ff16601c145b15156110d757600080fd5b604080516000815260208082018084528a905260ff8616828401526060820185905260808201849052915160019260a0808401939192601f1981019281900390910190855afa15801561112e573d6000803e3d6000fd5b5050604051601f19015198975050505050505050565b6060600085600160a060020a03168585856040516024018084600160a060020a0316600160a060020a0316815260200183815260200180602001828103825283818151815260200191508051906020019080838360005b838110156111b357818101518382015260200161119b565b50505050905090810190601f1680156111e05780820380516001836020036101000a031916815260200191505b5060408051601f198184030181529181526020820180517bffffffffffffffffffffffffffffffffffffffffffffffffffffffff167f8f6f033200000000000000000000000000000000000000000000000000000000178152905182519297509550859450925090508083835b6020831061126c5780518252601f19909201916020918201910161124d565b6001836020036101000a0380198251168184511680821785525050505050509050019150506000604051808303816000865af19150503d80600081146112ce576040519150601f19603f3d011682016040523d82523d6000602084013e6112d3565b606091505b50925090508080156112e6575060008251115b156113535781806020019051602081101561130057600080fd5b81019080805164010000000081111561131857600080fd5b8201602081018481111561132b57600080fd5b815164010000000081118282018710171561134557600080fd5b509095506113be9350505050565b600082511115611367573d6000803e3d6000fd5b8015156113be576040805160e560020a62461bcd02815260206004820152601a60248201527f424d3a2077616c6c657420696e766f6b65207265766572746564000000000000604482015290519081900360640190fd5b5094935050505056fe524d3a207468652077616c6c657420617574686f72697a656420697320646966666572656e74207468656e2074686520746172676574206f66207468652072656c617965642064617461424d3a206d75737420626520616e206f776e657220666f72207468652077616c6c6574a165627a7a7230582084d417ff1a6e17fa242cb74bd6813b8a127f8700458e63dc68fc179f6d275b000029608060405234801561001057600080fd5b506101a2806100206000396000f3fe608060405234801561001057600080fd5b506004361061005d577c010000000000000000000000000000000000000000000000000000000060003504633179425481146100625780633ed632171461006c5780635b72e8c3146100dc575b600080fd5b61006a61010b565b005b61006a6004803603602081101561008257600080fd5b81019060208101813564010000000081111561009d57600080fd5b8201836020820111156100af57600080fd5b803590602001918460018302840111640100000000831117156100d157600080fd5b50909250905061010d565b6100f9600480360360208110156100f257600080fd5b5035610173565b60408051918252519081900360200190f35b565b81816040517f08c379a000000000000000000000000000000000000000000000000000000000815260040180806020018281038252848482818152602001925080828437600083820152604051601f909101601f19169092018290039550909350505050fd5b9056fea165627a7a72305820255e5a75c0d5ac9a223b2bfd836eb4510e69244719fee7635066ffc43aff40eb0029",
  "source": "pragma solidity ^0.5.4;\n\nimport \"../../modules/common/BaseModule.sol\";\nimport \"../../modules/common/RelayerModule.sol\";\nimport \"../../modules/common/OnlyOwnerModule.sol\";\nimport \"./TestDapp.sol\";\nimport \"./LegacyBaseWallet.sol\";\n\n/**\n * @title OldTestModule\n * @dev Test Module\n * @author Olivier VDB - <olivier@argent.xyz>\n */\ncontract OldTestModule is BaseModule, RelayerModule, OnlyOwnerModule {\n\n    bytes32 constant NAME = \"OldTestModule\";\n\n    TestDapp public dapp;\n\n    // *************** Constructor ********************** //\n\n    constructor(\n        ModuleRegistry _registry\n    )\n        BaseModule(_registry, GuardianStorage(0), NAME)\n        public\n    {\n        dapp = new TestDapp();\n    }\n\n    // *************** External/Public Functions ********************* //\n\n    function callDapp(LegacyBaseWallet _wallet)\n        external\n    {\n        _wallet.invoke(address(dapp), 0, abi.encodeWithSignature(\"noReturn()\", 0));\n    }\n\n    function callDapp2(LegacyBaseWallet _wallet)\n        external\n    {\n        _wallet.invoke(address(dapp), 0, abi.encodeWithSignature(\"uintReturn(uint256)\", 2));\n    }\n\n}",
  "sourcePath": "/home/amxx/Work/Argent/argent-contracts/contracts/test/basewallet/OldTestModule.sol",
  "compiler": {
    "name": "solc",
    "version": "0.5.4+commit.9549d8ff.Emscripten.clang",
    "optimizer": true,
    "runs": 200
  },
  "schemaVersion": "2.2.4",
  "updatedAt": "2020-02-29T16:28:22.586Z"
}