{
  "contractName": "RecoveryManager",
  "abi": [
    {
      "constant": true,
      "inputs": [],
      "name": "recoveryPeriod",
      "outputs": [
        {
          "name": "",
          "type": "uint256"
        }
      ],
      "payable": false,
      "stateMutability": "view",
      "type": "function"
    },
    {
      "constant": false,
      "inputs": [
        {
          "name": "_wallet",
          "type": "address"
        }
      ],
      "name": "init",
      "outputs": [],
      "payable": false,
      "stateMutability": "nonpayable",
      "type": "function"
    },
    {
      "constant": true,
      "inputs": [
        {
          "name": "_wallet",
          "type": "address"
        }
      ],
      "name": "getNonce",
      "outputs": [
        {
          "name": "nonce",
          "type": "uint256"
        }
      ],
      "payable": false,
      "stateMutability": "view",
      "type": "function"
    },
    {
      "constant": true,
      "inputs": [],
      "name": "lockPeriod",
      "outputs": [
        {
          "name": "",
          "type": "uint256"
        }
      ],
      "payable": false,
      "stateMutability": "view",
      "type": "function"
    },
    {
      "constant": false,
      "inputs": [
        {
          "name": "_wallet",
          "type": "address"
        },
        {
          "name": "_module",
          "type": "address"
        }
      ],
      "name": "addModule",
      "outputs": [],
      "payable": false,
      "stateMutability": "nonpayable",
      "type": "function"
    },
    {
      "constant": false,
      "inputs": [
        {
          "name": "_token",
          "type": "address"
        }
      ],
      "name": "recoverToken",
      "outputs": [],
      "payable": false,
      "stateMutability": "nonpayable",
      "type": "function"
    },
    {
      "constant": false,
      "inputs": [
        {
          "name": "_wallet",
          "type": "address"
        },
        {
          "name": "_data",
          "type": "bytes"
        },
        {
          "name": "_nonce",
          "type": "uint256"
        },
        {
          "name": "_signatures",
          "type": "bytes"
        },
        {
          "name": "_gasPrice",
          "type": "uint256"
        },
        {
          "name": "_gasLimit",
          "type": "uint256"
        }
      ],
      "name": "execute",
      "outputs": [
        {
          "name": "success",
          "type": "bool"
        }
      ],
      "payable": false,
      "stateMutability": "nonpayable",
      "type": "function"
    },
    {
      "constant": true,
      "inputs": [
        {
          "name": "",
          "type": "address"
        }
      ],
      "name": "relayer",
      "outputs": [
        {
          "name": "nonce",
          "type": "uint256"
        }
      ],
      "payable": false,
      "stateMutability": "view",
      "type": "function"
    },
    {
      "inputs": [
        {
          "name": "_registry",
          "type": "address"
        },
        {
          "name": "_guardianStorage",
          "type": "address"
        },
        {
          "name": "_recoveryPeriod",
          "type": "uint256"
        },
        {
          "name": "_lockPeriod",
          "type": "uint256"
        }
      ],
      "payable": false,
      "stateMutability": "nonpayable",
      "type": "constructor"
    },
    {
      "anonymous": false,
      "inputs": [
        {
          "indexed": true,
          "name": "wallet",
          "type": "address"
        },
        {
          "indexed": true,
          "name": "_recovery",
          "type": "address"
        },
        {
          "indexed": false,
          "name": "executeAfter",
          "type": "uint64"
        }
      ],
      "name": "RecoveryExecuted",
      "type": "event"
    },
    {
      "anonymous": false,
      "inputs": [
        {
          "indexed": true,
          "name": "wallet",
          "type": "address"
        },
        {
          "indexed": true,
          "name": "_recovery",
          "type": "address"
        }
      ],
      "name": "RecoveryFinalized",
      "type": "event"
    },
    {
      "anonymous": false,
      "inputs": [
        {
          "indexed": true,
          "name": "wallet",
          "type": "address"
        },
        {
          "indexed": true,
          "name": "_recovery",
          "type": "address"
        }
      ],
      "name": "RecoveryCanceled",
      "type": "event"
    },
    {
      "anonymous": false,
      "inputs": [
        {
          "indexed": true,
          "name": "wallet",
          "type": "address"
        },
        {
          "indexed": true,
          "name": "success",
          "type": "bool"
        },
        {
          "indexed": false,
          "name": "signedHash",
          "type": "bytes32"
        }
      ],
      "name": "TransactionExecuted",
      "type": "event"
    },
    {
      "anonymous": false,
      "inputs": [
        {
          "indexed": false,
          "name": "name",
          "type": "bytes32"
        }
      ],
      "name": "ModuleCreated",
      "type": "event"
    },
    {
      "anonymous": false,
      "inputs": [
        {
          "indexed": false,
          "name": "wallet",
          "type": "address"
        }
      ],
      "name": "ModuleInitialised",
      "type": "event"
    },
    {
      "constant": false,
      "inputs": [
        {
          "name": "_wallet",
          "type": "address"
        },
        {
          "name": "_recovery",
          "type": "address"
        }
      ],
      "name": "executeRecovery",
      "outputs": [],
      "payable": false,
      "stateMutability": "nonpayable",
      "type": "function"
    },
    {
      "constant": false,
      "inputs": [
        {
          "name": "_wallet",
          "type": "address"
        }
      ],
      "name": "finalizeRecovery",
      "outputs": [],
      "payable": false,
      "stateMutability": "nonpayable",
      "type": "function"
    },
    {
      "constant": false,
      "inputs": [
        {
          "name": "_wallet",
          "type": "address"
        }
      ],
      "name": "cancelRecovery",
      "outputs": [],
      "payable": false,
      "stateMutability": "nonpayable",
      "type": "function"
    },
    {
      "constant": true,
      "inputs": [
        {
          "name": "_wallet",
          "type": "address"
        }
      ],
      "name": "getRecovery",
      "outputs": [
        {
          "name": "_address",
          "type": "address"
        },
        {
          "name": "_executeAfter",
          "type": "uint64"
        },
        {
          "name": "_guardianCount",
          "type": "uint32"
        }
      ],
      "payable": false,
      "stateMutability": "view",
      "type": "function"
    }
  ],
  "bytecode": "0x608060405234801561001057600080fd5b5060405160808061215c8339810180604052608081101561003057600080fd5b50805160208083015160408085015160609095015160008054600160a060020a03808816600160a060020a031992831617909255600180549286169290911691909117905581517f5265636f766572794d616e616765720000000000000000000000000000000000808252925195969395939491938793879390927f3019c8fc80239e3dff8f781212ae2004839c2cb61d6c70acd279ac65392145df929081900390910190a15050506004919091556005555050612069806100f36000396000f3fe608060405234801561001057600080fd5b50600436106100b85760003560e060020a900480639769c3fe116100755780639769c3fe146101815780639be65a60146101de578063aacaaf8814610204578063b0ba4da0146102f4578063c90db44714610322578063c9b5ef8e14610348576100b8565b806316c3e22f146100bd57806319ab453c146100d75780632d0335ab146100ff578063315a7af3146101255780633fd8b02f1461014b5780635a1db8c414610153575b600080fd5b6100c561036e565b60408051918252519081900360200190f35b6100fd600480360360208110156100ed57600080fd5b5035600160a060020a0316610374565b005b6100c56004803603602081101561011557600080fd5b5035600160a060020a0316610415565b6100fd6004803603602081101561013b57600080fd5b5035600160a060020a0316610430565b6100c56106be565b6100fd6004803603604081101561016957600080fd5b50600160a060020a03813581169160200135166106c4565b6101a76004803603602081101561019757600080fd5b5035600160a060020a031661087f565b60408051600160a060020a03909416845267ffffffffffffffff909216602084015263ffffffff1682820152519081900360600190f35b6100fd600480360360208110156101f457600080fd5b5035600160a060020a03166108bf565b6102e0600480360360c081101561021a57600080fd5b600160a060020a03823516919081019060408101602082013564010000000081111561024557600080fd5b82018360208201111561025757600080fd5b8035906020019184600183028401116401000000008311171561027957600080fd5b9193909282359260408101906020013564010000000081111561029b57600080fd5b8201836020820111156102ad57600080fd5b803590602001918460018302840111640100000000831117156102cf57600080fd5b9193509150803590602001356109f2565b604080519115158252519081900360200190f35b6100fd6004803603604081101561030a57600080fd5b50600160a060020a0381358116916020013516610cd0565b6100fd6004803603602081101561033857600080fd5b5035600160a060020a0316610ffc565b6100c56004803603602081101561035e57600080fd5b5035600160a060020a0316611174565b60045481565b8033600160a060020a038216146103d5576040805160e560020a62461bcd02815260206004820152601960248201527f424d3a2063616c6c6572206d7573742062652077616c6c657400000000000000604482015290519081900360640190fd5b60408051600160a060020a038416815290517f9fcca3f73f85397e2bf03647abf243c20b753bd54463ff3cae74de2971c112fa9181900360200190a15050565b600160a060020a031660009081526002602052604090205490565b333014610487576040805160e560020a62461bcd02815260206004820181905260248201527f524d3a206d7573742062652063616c6c65642076696120657865637574652829604482015290519081900360640190fd5b600160a060020a038116600090815260036020526040812054829160a060020a90910467ffffffffffffffff16116104f35760405160e560020a62461bcd028152600401808060200182810382526025815260200180611fcf6025913960400191505060405180910390fd5b600160a060020a0382166000908152600360205260409020805467ffffffffffffffff60a060020a909104811642909116116105635760405160e560020a62461bcd028152600401808060200182810382526027815260200180611fa86027913960400191505060405180910390fd5b8054604080517f13af4035000000000000000000000000000000000000000000000000000000008152600160a060020a0392831660048201529051918516916313af40359160248082019260009290919082900301818387803b1580156105c957600080fd5b505af11580156105dd573d6000803e3d6000fd5b50508254604051600160a060020a03918216935090861691507fd8667de85dae2d56d76e700d16de53d21ac2ce4d5549cb0bf51c55fdc37f0bc190600090a3600154604080517fb0fc29e6000000000000000000000000000000000000000000000000000000008152600160a060020a038681166004830152600060248301819052925193169263b0fc29e69260448084019391929182900301818387803b15801561068857600080fd5b505af115801561069c573d6000803e3d6000fd5b505050600160a060020a03909316600090815260036020526040812055505050565b60055481565b816106cf8133611186565b151561070f5760405160e560020a62461bcd02815260040180806020018281038252602e815260200180611f7a602e913960400191505060405180910390fd5b600054604080517f0bcd4ebb000000000000000000000000000000000000000000000000000000008152600160a060020a03858116600483015291519190921691630bcd4ebb916024808301926020929190829003018186803b15801561077557600080fd5b505afa158015610789573d6000803e3d6000fd5b505050506040513d602081101561079f57600080fd5b505115156107f7576040805160e560020a62461bcd02815260206004820152601c60248201527f424d3a206d6f64756c65206973206e6f74207265676973746572656400000000604482015290519081900360640190fd5b604080517f1f17732d000000000000000000000000000000000000000000000000000000008152600160a060020a03848116600483015260016024830152915191851691631f17732d9160448082019260009290919082900301818387803b15801561086257600080fd5b505af1158015610876573d6000803e3d6000fd5b50505050505050565b600160a060020a039081166000908152600360205260409020549081169160a060020a820467ffffffffffffffff169160e060020a900463ffffffff1690565b604080517f70a082310000000000000000000000000000000000000000000000000000000081523060048201529051600091600160a060020a038416916370a0823191602480820192602092909190829003018186803b15801561092257600080fd5b505afa158015610936573d6000803e3d6000fd5b505050506040513d602081101561094c57600080fd5b505160008054604080517fa9059cbb000000000000000000000000000000000000000000000000000000008152600160a060020a0392831660048201526024810185905290519394509085169263a9059cbb92604480840193602093929083900390910190829087803b1580156109c257600080fd5b505af11580156109d6573d6000803e3d6000fd5b505050506040513d60208110156109ec57600080fd5b50505050565b6000805a90506000610a42308c60008d8d8080601f0160208091040260200160405190810160405280939291908181526020018383808284376000920191909152508f92508c91508b905061120d565b9050610a4f8b8983611350565b1515610aa5576040805160e560020a62461bcd02815260206004820152601560248201527f524d3a204475706c696361746520726571756573740000000000000000000000604482015290519081900360640190fd5b610ae58b8b8b8080601f0160208091040260200160405190810160405280939291908181526020018383808284376000920191909152506113c892505050565b1515610b255760405160e560020a62461bcd02815260040180806020018281038252604a815260200180611f30604a913960600191505060405180910390fd5b6000610b678c8c8c8080601f01602080910402602001604051908101604052809392919081815260200183838082843760009201919091525061143c92505050565b905060418102871415610c7f57610b808c868884611696565b15610c7f57801580610c035750610c038c8c8c8080601f01602080910402602001604051908101604052809392919081815260200183838082843760009201919091525050604080516020601f8f018190048102820181019092528d815288935091508d908d908190840183828082843760009201919091525061176992505050565b15610c7f5730600160a060020a03168b8b604051808383808284376040519201945060009350909150508083038183865af19150503d8060008114610c64576040519150601f19603f3d011682016040523d82523d6000602084013e610c69565b606091505b505080945050610c7f8c5a85038888853361190b565b60408051838152905185151591600160a060020a038f16917f6bb0b384ce772133df63560651bc8c727c53306cec1d51e2cbf8ea35fb8f2ec19181900360200190a350505098975050505050505050565b333014610d27576040805160e560020a62461bcd02815260206004820181905260248201527f524d3a206d7573742062652063616c6c65642076696120657865637574652829604482015290519081900360640190fd5b600160a060020a038216600090815260036020526040902054829060a060020a900467ffffffffffffffff1615610d925760405160e560020a62461bcd028152600401808060200182810382526027815260200180611ff46027913960400191505060405180910390fd5b600160a060020a0382161515610ddc5760405160e560020a62461bcd02815260040180806020018281038252602381526020018061201b6023913960400191505060405180910390fd5b600160a060020a03808416600081815260036020908152604091829020805487861673ffffffffffffffffffffffffffffffffffffffff19909116178082556004805467ffffffffffffffff429091011660a060020a027fffffffff0000000000000000ffffffffffffffffffffffffffffffffffffffff90921691909117825560015484517f5040fb7600000000000000000000000000000000000000000000000000000000815291820195909552925190949390931692635040fb76926024808201939291829003018186803b158015610eb757600080fd5b505afa158015610ecb573d6000803e3d6000fd5b505050506040513d6020811015610ee157600080fd5b5051815463ffffffff90911660e060020a027bffffffffffffffffffffffffffffffffffffffffffffffffffffffff909116178155600154600554604080517fb0fc29e6000000000000000000000000000000000000000000000000000000008152600160a060020a0388811660048301524290930160248201529051919092169163b0fc29e691604480830192600092919082900301818387803b158015610f8957600080fd5b505af1158015610f9d573d6000803e3d6000fd5b505082546040805160a060020a90920467ffffffffffffffff16825251600160a060020a038781169450881692507f5f59bfd9baba55ae30bb440923cbbe30987d50e12a4e9134ffac3fd9afc3526d916020908290030190a350505050565b333014611053576040805160e560020a62461bcd02815260206004820181905260248201527f524d3a206d7573742062652063616c6c65642076696120657865637574652829604482015290519081900360640190fd5b600160a060020a038116600090815260036020526040812054829160a060020a90910467ffffffffffffffff16116110bf5760405160e560020a62461bcd028152600401808060200182810382526025815260200180611fcf6025913960400191505060405180910390fd5b600160a060020a038083166000818152600360205260408082208054915190949190911692917fc45926607303da71dbeffd2ed5c6b00f581982586b697655d19ae4c4d558f25991a3600154604080517fb0fc29e6000000000000000000000000000000000000000000000000000000008152600160a060020a038681166004830152600060248301819052925193169263b0fc29e69260448084019391929182900301818387803b15801561068857600080fd5b60026020526000908152604090205481565b600081600160a060020a031683600160a060020a0316638da5cb5b6040518163ffffffff1660e060020a02815260040160206040518083038186803b1580156111ce57600080fd5b505afa1580156111e2573d6000803e3d6000fd5b505050506040513d60208110156111f857600080fd5b5051600160a060020a03161490505b92915050565b6040517f190000000000000000000000000000000000000000000000000000000000000060208083018281526000602185018190526c01000000000000000000000000600160a060020a03808e16820260228801528c16026036860152604a85018a90528851909485938d938d938d938d938d938d938d939192606a909201918701908083835b602083106112b35780518252601f199092019160209182019101611294565b51815160209384036101000a600019018019909216911617905292019586525084810193909352506040808401919091528051808403820181526060840182528051908301207f19457468657265756d205369676e6564204d6573736167653a0a3332000000006080850152609c808501919091528151808503909101815260bc909301905281519101209e9d5050505050505050505050505050565b600160a060020a0383166000908152600260209081526040808320848452600190810190925282205460ff161515141561138c575060006113c1565b50600160a060020a03831660009081526002602090815260408083208484526001908101909252909120805460ff1916821790555b9392505050565b60006024825110151515611426576040805160e560020a62461bcd02815260206004820152601660248201527f524d3a20496e76616c6964206461746157616c6c657400000000000000000000604482015290519081900360640190fd5b5060240151600160a060020a0391821691161490565b60008061144883611969565b604080517f657865637574655265636f7665727928616464726573732c6164647265737329815290519081900360200190209091507bffffffffffffffffffffffffffffffffffffffffffffffffffffffff198083169116141561154f57600154604080517f5040fb76000000000000000000000000000000000000000000000000000000008152600160a060020a0387811660048301529151611547939290921691635040fb7691602480820192602092909190829003018186803b15801561151157600080fd5b505afa158015611525573d6000803e3d6000fd5b505050506040513d602081101561153b57600080fd5b505160010160026119cf565b915050611207565b604080517f66696e616c697a655265636f7665727928616464726573732900000000000000815290519081900360190190207bffffffffffffffffffffffffffffffffffffffffffffffffffffffff19828116911614156115b4576000915050611207565b604080517f63616e63656c5265636f76657279286164647265737329000000000000000000815290519081900360170190207bffffffffffffffffffffffffffffffffffffffffffffffffffffffff198281169116141561164657600160a060020a03841660009081526003602052604090205461154790600163ffffffff60e060020a9092048216011660026119cf565b6040805160e560020a62461bcd02815260206004820152601360248201527f524d3a20756e6b6e6f776e20206d6574686f6400000000000000000000000000604482015290519081900360640190fd5b600080831180156116a75750600182115b8015611750575082840285600160a060020a03163110806117505750604080517fd6eb1bbf0000000000000000000000000000000000000000000000000000000081523060048201529051600160a060020a0387169163d6eb1bbf916024808301926020929190829003018186803b15801561172257600080fd5b505afa158015611736573d6000803e3d6000fd5b505050506040513d602081101561174c57600080fd5b5051155b1561175d57506000611761565b5060015b949350505050565b600154604080517ff18858ab000000000000000000000000000000000000000000000000000000008152600160a060020a0387811660048301529151600093849360609391169163f18858ab916024808201928792909190829003018186803b1580156117d557600080fd5b505afa1580156117e9573d6000803e3d6000fd5b505050506040513d6000823e601f3d908101601f19168201604052602081101561181257600080fd5b81019080805164010000000081111561182a57600080fd5b8201602081018481111561183d57600080fd5b815185602082028301116401000000008211171561185a57600080fd5b509094506000935083925050505b8551604190048160ff1610156118fc57600061188888888460ff16611a03565b905060ff82161580156118a057506118a08a82611186565b156118ab57506118f4565b600160a060020a03808616908216116118cc57600095505050505050611761565b8094506118d98482611aad565b945092508215156118f257600095505050505050611761565b505b600101611868565b50600198975050505050505050565b61726c85016000851180156119205750600183115b801561192c5750838111155b15610876573a851115611940573a02611943565b84025b61195f8783836020604051908101604052806000815250611c2a565b5050505050505050565b600060048251101515156119c7576040805160e560020a62461bcd02815260206004820152601a60248201527f524d3a20496e76616c69642066756e6374696f6e507265666978000000000000604482015290519081900360640190fd5b506020015190565b60008082848115156119dd57fe5b04905082848115156119eb57fe5b0615156119f9579050611207565b6001019050611207565b6041808202830160208101516040820151919092015160009260ff9190911691601b831480611a3557508260ff16601c145b1515611a4057600080fd5b604080516000815260208082018084528a905260ff8616828401526060820185905260808201849052915160019260a0808401939192601f1981019281900390910190855afa158015611a97573d6000803e3d6000fd5b5050604051601f19015198975050505050505050565b60006060835160001480611ac85750600160a060020a038316155b15611ad857506000905082611c23565b600080905060606001865103604051908082528060200260200182016040528015611b0d578160200160208202803883390190505b5090506000805b8751811015611c0957831515611bb4578781815181101515611b3257fe5b90602001906020020151600160a060020a031687600160a060020a03161415611b5e5760019350611c01565b611b7e8882815181101515611b6f57fe5b90602001906020020151611ead565b8015611ba65750611ba68882815181101515611b9657fe5b9060200190602002015188611ebb565b15611bb45760019350611c01565b8251821015611c01578781815181101515611bcb57fe5b906020019060200201518383815181101515611be357fe5b600160a060020a039092166020928302909101909101526001909101905b600101611b14565b5082611c1757600087611c1b565b6001825b945094505050505b9250929050565b6060600085600160a060020a03168585856040516024018084600160a060020a0316600160a060020a0316815260200183815260200180602001828103825283818151815260200191508051906020019080838360005b83811015611c99578181015183820152602001611c81565b50505050905090810190601f168015611cc65780820380516001836020036101000a031916815260200191505b5060408051601f198184030181529181526020820180517bffffffffffffffffffffffffffffffffffffffffffffffffffffffff167f8f6f033200000000000000000000000000000000000000000000000000000000178152905182519297509550859450925090508083835b60208310611d525780518252601f199092019160209182019101611d33565b6001836020036101000a0380198251168184511680821785525050505050509050019150506000604051808303816000865af19150503d8060008114611db4576040519150601f19603f3d011682016040523d82523d6000602084013e611db9565b606091505b5092509050808015611dcc575060008251115b15611e3957818060200190516020811015611de657600080fd5b810190808051640100000000811115611dfe57600080fd5b82016020810184811115611e1157600080fd5b8151640100000000811182820187101715611e2b57600080fd5b50909550611ea49350505050565b600082511115611e4d573d6000803e3d6000fd5b801515611ea4576040805160e560020a62461bcd02815260206004820152601a60248201527f424d3a2077616c6c657420696e766f6b65207265766572746564000000000000604482015290519081900360640190fd5b50949350505050565b6000903b63ffffffff161190565b604080517f6f776e657228290000000000000000000000000000000000000000000000000081529051908190036007018120808252600091829190602081818189611388fa6001811415611f0e57815193505b505083600160a060020a031682600160a060020a031614925050509291505056fe524d3a207468652077616c6c657420617574686f72697a656420697320646966666572656e74207468656e2074686520746172676574206f66207468652072656c617965642064617461424d3a206d73672e73656e646572206d75737420626520616e206f776e657220666f72207468652077616c6c6574524d3a20746865207265636f7665727920706572696f64206973206e6f74206f76657220796574524d3a207468657265206d75737420626520616e206f6e676f696e67207265636f76657279524d3a2074686572652063616e6e6f7420626520616e206f6e676f696e67207265636f76657279524d3a207265636f7665727920616464726573732063616e6e6f74206265206e756c6ca165627a7a72305820c17f8c0acf142616b305ac2546e19a1304a375fc4050fa111c395b158320e62d0029",
  "source": "pragma solidity ^0.5.4;\nimport \"../wallet/BaseWallet.sol\";\nimport \"./common/BaseModule.sol\";\nimport \"./common/RelayerModule.sol\";\nimport \"../utils/SafeMath.sol\";\nimport \"../utils/GuardianUtils.sol\";\n\n/**\n * @title RecoveryManager\n * @dev Module to manage the recovery of a wallet owner.\n * Recovery is executed by a consensus of the wallet's guardians and takes\n * 24 hours before it can be finalized. Once finalised the ownership of the wallet\n * is transfered to a new address.\n * @author Julien Niset - <julien@argent.im>\n * @author Olivier Van Den Biggelaar - <olivier@argent.im>\n */\ncontract RecoveryManager is BaseModule, RelayerModule {\n\n    bytes32 constant NAME = \"RecoveryManager\";\n\n    bytes4 constant internal EXECUTE_PREFIX = bytes4(keccak256(\"executeRecovery(address,address)\"));\n    bytes4 constant internal FINALIZE_PREFIX = bytes4(keccak256(\"finalizeRecovery(address)\"));\n    bytes4 constant internal CANCEL_PREFIX = bytes4(keccak256(\"cancelRecovery(address)\"));\n\n    struct RecoveryManagerConfig {\n        address recovery;\n        uint64 executeAfter;\n        uint32 guardianCount;\n    }\n\n    // the wallet specific storage\n    mapping (address => RecoveryManagerConfig) internal configs;\n    // Recovery period\n    uint256 public recoveryPeriod;\n    // Lock period\n    uint256 public lockPeriod;\n\n    // *************** Events *************************** //\n\n    event RecoveryExecuted(address indexed wallet, address indexed _recovery, uint64 executeAfter);\n    event RecoveryFinalized(address indexed wallet, address indexed _recovery);\n    event RecoveryCanceled(address indexed wallet, address indexed _recovery);\n\n    // *************** Modifiers ************************ //\n\n    /**\n     * @dev Throws if there is no ongoing recovery procedure.\n     */\n    modifier onlyWhenRecovery(BaseWallet _wallet) {\n        require(configs[address(_wallet)].executeAfter > 0, \"RM: there must be an ongoing recovery\");\n        _;\n    }\n\n    /**\n     * @dev Throws if there is an ongoing recovery procedure.\n     */\n    modifier notWhenRecovery(BaseWallet _wallet) {\n        require(configs[address(_wallet)].executeAfter == 0, \"RM: there cannot be an ongoing recovery\");\n        _;\n    }\n\n    // *************** Constructor ************************ //\n\n    constructor(\n        ModuleRegistry _registry,\n        GuardianStorage _guardianStorage,\n        uint256 _recoveryPeriod,\n        uint256 _lockPeriod\n    )\n        BaseModule(_registry, _guardianStorage, NAME)\n        public\n    {\n        recoveryPeriod = _recoveryPeriod;\n        lockPeriod = _lockPeriod;\n    }\n\n    // *************** External functions ************************ //\n    \n    /**\n     * @dev Lets the guardians start the execution of the recovery procedure.\n     * Once triggered the recovery is pending for the security period before it can\n     * be finalised.\n     * Must be confirmed by N guardians, where N = ((Nb Guardian + 1) / 2).\n     * @param _wallet The target wallet.\n     * @param _recovery The address to which ownership should be transferred.\n     */\n    function executeRecovery(BaseWallet _wallet, address _recovery) external onlyExecute notWhenRecovery(_wallet) {\n        require(_recovery != address(0), \"RM: recovery address cannot be null\");\n        RecoveryManagerConfig storage config = configs[address(_wallet)];\n        config.recovery = _recovery;\n        config.executeAfter = uint64(now + recoveryPeriod);\n        config.guardianCount = uint32(guardianStorage.guardianCount(_wallet));\n        guardianStorage.setLock(_wallet, now + lockPeriod);\n        emit RecoveryExecuted(address(_wallet), _recovery, config.executeAfter);\n    }\n\n    /**\n     * @dev Finalizes an ongoing recovery procedure if the security period is over.\n     * The method is public and callable by anyone to enable orchestration.\n     * @param _wallet The target wallet.\n     */\n    function finalizeRecovery(BaseWallet _wallet) external onlyExecute onlyWhenRecovery(_wallet) {\n        RecoveryManagerConfig storage config = configs[address(_wallet)];\n        require(uint64(now) > config.executeAfter, \"RM: the recovery period is not over yet\");\n        _wallet.setOwner(config.recovery);\n        emit RecoveryFinalized(address(_wallet), config.recovery);\n        guardianStorage.setLock(_wallet, 0);\n        delete configs[address(_wallet)];\n    }\n\n    /**\n     * @dev Lets the owner cancel an ongoing recovery procedure.\n     * Must be confirmed by N guardians, where N = ((Nb Guardian + 1) / 2) - 1.\n     * @param _wallet The target wallet.\n     */\n    function cancelRecovery(BaseWallet _wallet) external onlyExecute onlyWhenRecovery(_wallet) {\n        RecoveryManagerConfig storage config = configs[address(_wallet)];\n        emit  RecoveryCanceled(address(_wallet), config.recovery);\n        guardianStorage.setLock(_wallet, 0);\n        delete configs[address(_wallet)];\n    }\n\n    /**\n    * @dev Gets the details of the ongoing recovery procedure if any.\n    * @param _wallet The target wallet.\n    */\n    function getRecovery(BaseWallet _wallet) public view returns(address _address, uint64 _executeAfter, uint32 _guardianCount) {\n        RecoveryManagerConfig storage config = configs[address(_wallet)];\n        return (config.recovery, config.executeAfter, config.guardianCount);\n    }\n\n    // *************** Implementation of RelayerModule methods ********************* //\n\n    function validateSignatures(\n        BaseWallet _wallet,\n        bytes memory /* _data */,\n        bytes32 _signHash,\n        bytes memory _signatures\n    )\n        internal\n        view\n        returns (bool)\n    {\n        address lastSigner = address(0);\n        address[] memory guardians = guardianStorage.getGuardians(_wallet);\n        bool isGuardian = false;\n        for (uint8 i = 0; i < _signatures.length / 65; i++) {\n            address signer = recoverSigner(_signHash, _signatures, i);\n            if(i == 0 && isOwner(_wallet, signer)) {\n                // first signer can be owner\n                continue;\n            }\n            else {\n                if(signer <= lastSigner) {\n                    return false;\n                } // \"RM: signers must be different\"\n                lastSigner = signer;\n                (isGuardian, guardians) = GuardianUtils.isGuardian(guardians, signer);\n                if(!isGuardian) {\n                    return false;\n                } // \"RM: signatures not valid\"\n            }\n        }\n        return true;\n    }\n\n    function getRequiredSignatures(BaseWallet _wallet, bytes memory _data) internal view returns (uint256) {\n        bytes4 methodId = functionPrefix(_data);\n        if (methodId == EXECUTE_PREFIX) {\n            return SafeMath.ceil(guardianStorage.guardianCount(_wallet) + 1, 2);\n        }\n        if (methodId == FINALIZE_PREFIX) {\n            return 0;\n        }\n        if(methodId == CANCEL_PREFIX) {\n            return SafeMath.ceil(configs[address(_wallet)].guardianCount + 1, 2);\n        }\n        revert(\"RM: unknown  method\");\n    }\n}",
  "sourcePath": "/home/amxx/Work/Argent/argent-contracts/contracts/modules/RecoveryManager.sol",
  "compiler": {
    "name": "solc",
    "version": "0.5.4+commit.9549d8ff.Emscripten.clang",
    "optimizer": true,
    "runs": 200
  },
  "schemaVersion": "2.2.4",
  "updatedAt": "2020-02-29T16:28:22.549Z"
}