{
  "contractName": "SaiTub",
  "abi": [
    {
      "constant": true,
      "inputs": [],
      "name": "sin",
      "outputs": [
        {
          "name": "",
          "type": "address"
        }
      ],
      "payable": false,
      "stateMutability": "view",
      "type": "function"
    },
    {
      "constant": true,
      "inputs": [],
      "name": "skr",
      "outputs": [
        {
          "name": "",
          "type": "address"
        }
      ],
      "payable": false,
      "stateMutability": "view",
      "type": "function"
    },
    {
      "constant": true,
      "inputs": [],
      "name": "gov",
      "outputs": [
        {
          "name": "",
          "type": "address"
        }
      ],
      "payable": false,
      "stateMutability": "view",
      "type": "function"
    },
    {
      "constant": false,
      "inputs": [
        {
          "name": "owner_",
          "type": "address"
        }
      ],
      "name": "setOwner",
      "outputs": [],
      "payable": false,
      "stateMutability": "nonpayable",
      "type": "function"
    },
    {
      "constant": true,
      "inputs": [],
      "name": "rho",
      "outputs": [
        {
          "name": "",
          "type": "uint256"
        }
      ],
      "payable": false,
      "stateMutability": "view",
      "type": "function"
    },
    {
      "constant": true,
      "inputs": [],
      "name": "cap",
      "outputs": [
        {
          "name": "",
          "type": "uint256"
        }
      ],
      "payable": false,
      "stateMutability": "view",
      "type": "function"
    },
    {
      "constant": true,
      "inputs": [],
      "name": "cupi",
      "outputs": [
        {
          "name": "",
          "type": "uint256"
        }
      ],
      "payable": false,
      "stateMutability": "view",
      "type": "function"
    },
    {
      "constant": true,
      "inputs": [],
      "name": "axe",
      "outputs": [
        {
          "name": "",
          "type": "uint256"
        }
      ],
      "payable": false,
      "stateMutability": "view",
      "type": "function"
    },
    {
      "constant": true,
      "inputs": [],
      "name": "off",
      "outputs": [
        {
          "name": "",
          "type": "bool"
        }
      ],
      "payable": false,
      "stateMutability": "view",
      "type": "function"
    },
    {
      "constant": true,
      "inputs": [],
      "name": "vox",
      "outputs": [
        {
          "name": "",
          "type": "address"
        }
      ],
      "payable": false,
      "stateMutability": "view",
      "type": "function"
    },
    {
      "constant": true,
      "inputs": [],
      "name": "gap",
      "outputs": [
        {
          "name": "",
          "type": "uint256"
        }
      ],
      "payable": false,
      "stateMutability": "view",
      "type": "function"
    },
    {
      "constant": false,
      "inputs": [
        {
          "name": "authority_",
          "type": "address"
        }
      ],
      "name": "setAuthority",
      "outputs": [],
      "payable": false,
      "stateMutability": "nonpayable",
      "type": "function"
    },
    {
      "constant": true,
      "inputs": [],
      "name": "gem",
      "outputs": [
        {
          "name": "",
          "type": "address"
        }
      ],
      "payable": false,
      "stateMutability": "view",
      "type": "function"
    },
    {
      "constant": true,
      "inputs": [],
      "name": "rum",
      "outputs": [
        {
          "name": "",
          "type": "uint256"
        }
      ],
      "payable": false,
      "stateMutability": "view",
      "type": "function"
    },
    {
      "constant": true,
      "inputs": [],
      "name": "owner",
      "outputs": [
        {
          "name": "",
          "type": "address"
        }
      ],
      "payable": false,
      "stateMutability": "view",
      "type": "function"
    },
    {
      "constant": true,
      "inputs": [],
      "name": "sai",
      "outputs": [
        {
          "name": "",
          "type": "address"
        }
      ],
      "payable": false,
      "stateMutability": "view",
      "type": "function"
    },
    {
      "constant": true,
      "inputs": [],
      "name": "tax",
      "outputs": [
        {
          "name": "",
          "type": "uint256"
        }
      ],
      "payable": false,
      "stateMutability": "view",
      "type": "function"
    },
    {
      "constant": true,
      "inputs": [],
      "name": "mat",
      "outputs": [
        {
          "name": "",
          "type": "uint256"
        }
      ],
      "payable": false,
      "stateMutability": "view",
      "type": "function"
    },
    {
      "constant": true,
      "inputs": [],
      "name": "pep",
      "outputs": [
        {
          "name": "",
          "type": "address"
        }
      ],
      "payable": false,
      "stateMutability": "view",
      "type": "function"
    },
    {
      "constant": true,
      "inputs": [],
      "name": "out",
      "outputs": [
        {
          "name": "",
          "type": "bool"
        }
      ],
      "payable": false,
      "stateMutability": "view",
      "type": "function"
    },
    {
      "constant": true,
      "inputs": [],
      "name": "authority",
      "outputs": [
        {
          "name": "",
          "type": "address"
        }
      ],
      "payable": false,
      "stateMutability": "view",
      "type": "function"
    },
    {
      "constant": true,
      "inputs": [],
      "name": "fit",
      "outputs": [
        {
          "name": "",
          "type": "uint256"
        }
      ],
      "payable": false,
      "stateMutability": "view",
      "type": "function"
    },
    {
      "constant": true,
      "inputs": [],
      "name": "pip",
      "outputs": [
        {
          "name": "",
          "type": "address"
        }
      ],
      "payable": false,
      "stateMutability": "view",
      "type": "function"
    },
    {
      "constant": true,
      "inputs": [],
      "name": "fee",
      "outputs": [
        {
          "name": "",
          "type": "uint256"
        }
      ],
      "payable": false,
      "stateMutability": "view",
      "type": "function"
    },
    {
      "constant": true,
      "inputs": [],
      "name": "pit",
      "outputs": [
        {
          "name": "",
          "type": "address"
        }
      ],
      "payable": false,
      "stateMutability": "view",
      "type": "function"
    },
    {
      "constant": true,
      "inputs": [],
      "name": "tap",
      "outputs": [
        {
          "name": "",
          "type": "address"
        }
      ],
      "payable": false,
      "stateMutability": "view",
      "type": "function"
    },
    {
      "constant": true,
      "inputs": [
        {
          "name": "",
          "type": "bytes32"
        }
      ],
      "name": "cups",
      "outputs": [
        {
          "name": "lad",
          "type": "address"
        },
        {
          "name": "ink",
          "type": "uint256"
        },
        {
          "name": "art",
          "type": "uint256"
        },
        {
          "name": "ire",
          "type": "uint256"
        }
      ],
      "payable": false,
      "stateMutability": "view",
      "type": "function"
    },
    {
      "inputs": [
        {
          "name": "sai_",
          "type": "address"
        },
        {
          "name": "sin_",
          "type": "address"
        },
        {
          "name": "skr_",
          "type": "address"
        },
        {
          "name": "gem_",
          "type": "address"
        },
        {
          "name": "gov_",
          "type": "address"
        },
        {
          "name": "pip_",
          "type": "address"
        },
        {
          "name": "pep_",
          "type": "address"
        },
        {
          "name": "vox_",
          "type": "address"
        },
        {
          "name": "pit_",
          "type": "address"
        }
      ],
      "payable": false,
      "stateMutability": "nonpayable",
      "type": "constructor"
    },
    {
      "anonymous": false,
      "inputs": [
        {
          "indexed": true,
          "name": "lad",
          "type": "address"
        },
        {
          "indexed": false,
          "name": "cup",
          "type": "bytes32"
        }
      ],
      "name": "LogNewCup",
      "type": "event"
    },
    {
      "anonymous": true,
      "inputs": [
        {
          "indexed": true,
          "name": "sig",
          "type": "bytes4"
        },
        {
          "indexed": true,
          "name": "guy",
          "type": "address"
        },
        {
          "indexed": true,
          "name": "foo",
          "type": "bytes32"
        },
        {
          "indexed": true,
          "name": "bar",
          "type": "bytes32"
        },
        {
          "indexed": false,
          "name": "wad",
          "type": "uint256"
        },
        {
          "indexed": false,
          "name": "fax",
          "type": "bytes"
        }
      ],
      "name": "LogNote",
      "type": "event"
    },
    {
      "anonymous": false,
      "inputs": [
        {
          "indexed": true,
          "name": "authority",
          "type": "address"
        }
      ],
      "name": "LogSetAuthority",
      "type": "event"
    },
    {
      "anonymous": false,
      "inputs": [
        {
          "indexed": true,
          "name": "owner",
          "type": "address"
        }
      ],
      "name": "LogSetOwner",
      "type": "event"
    },
    {
      "constant": true,
      "inputs": [
        {
          "name": "cup",
          "type": "bytes32"
        }
      ],
      "name": "lad",
      "outputs": [
        {
          "name": "",
          "type": "address"
        }
      ],
      "payable": false,
      "stateMutability": "view",
      "type": "function"
    },
    {
      "constant": true,
      "inputs": [
        {
          "name": "cup",
          "type": "bytes32"
        }
      ],
      "name": "ink",
      "outputs": [
        {
          "name": "",
          "type": "uint256"
        }
      ],
      "payable": false,
      "stateMutability": "view",
      "type": "function"
    },
    {
      "constant": false,
      "inputs": [
        {
          "name": "cup",
          "type": "bytes32"
        }
      ],
      "name": "tab",
      "outputs": [
        {
          "name": "",
          "type": "uint256"
        }
      ],
      "payable": false,
      "stateMutability": "nonpayable",
      "type": "function"
    },
    {
      "constant": false,
      "inputs": [
        {
          "name": "cup",
          "type": "bytes32"
        }
      ],
      "name": "rap",
      "outputs": [
        {
          "name": "",
          "type": "uint256"
        }
      ],
      "payable": false,
      "stateMutability": "nonpayable",
      "type": "function"
    },
    {
      "constant": false,
      "inputs": [],
      "name": "din",
      "outputs": [
        {
          "name": "",
          "type": "uint256"
        }
      ],
      "payable": false,
      "stateMutability": "nonpayable",
      "type": "function"
    },
    {
      "constant": true,
      "inputs": [],
      "name": "air",
      "outputs": [
        {
          "name": "",
          "type": "uint256"
        }
      ],
      "payable": false,
      "stateMutability": "view",
      "type": "function"
    },
    {
      "constant": true,
      "inputs": [],
      "name": "pie",
      "outputs": [
        {
          "name": "",
          "type": "uint256"
        }
      ],
      "payable": false,
      "stateMutability": "view",
      "type": "function"
    },
    {
      "constant": true,
      "inputs": [],
      "name": "era",
      "outputs": [
        {
          "name": "",
          "type": "uint256"
        }
      ],
      "payable": false,
      "stateMutability": "view",
      "type": "function"
    },
    {
      "constant": false,
      "inputs": [
        {
          "name": "param",
          "type": "bytes32"
        },
        {
          "name": "val",
          "type": "uint256"
        }
      ],
      "name": "mold",
      "outputs": [],
      "payable": true,
      "stateMutability": "payable",
      "type": "function"
    },
    {
      "constant": false,
      "inputs": [
        {
          "name": "pip_",
          "type": "address"
        }
      ],
      "name": "setPip",
      "outputs": [],
      "payable": true,
      "stateMutability": "payable",
      "type": "function"
    },
    {
      "constant": false,
      "inputs": [
        {
          "name": "pep_",
          "type": "address"
        }
      ],
      "name": "setPep",
      "outputs": [],
      "payable": true,
      "stateMutability": "payable",
      "type": "function"
    },
    {
      "constant": false,
      "inputs": [
        {
          "name": "vox_",
          "type": "address"
        }
      ],
      "name": "setVox",
      "outputs": [],
      "payable": true,
      "stateMutability": "payable",
      "type": "function"
    },
    {
      "constant": false,
      "inputs": [
        {
          "name": "tap_",
          "type": "address"
        }
      ],
      "name": "turn",
      "outputs": [],
      "payable": true,
      "stateMutability": "payable",
      "type": "function"
    },
    {
      "constant": true,
      "inputs": [],
      "name": "per",
      "outputs": [
        {
          "name": "ray",
          "type": "uint256"
        }
      ],
      "payable": false,
      "stateMutability": "view",
      "type": "function"
    },
    {
      "constant": true,
      "inputs": [
        {
          "name": "wad",
          "type": "uint256"
        }
      ],
      "name": "ask",
      "outputs": [
        {
          "name": "",
          "type": "uint256"
        }
      ],
      "payable": false,
      "stateMutability": "view",
      "type": "function"
    },
    {
      "constant": true,
      "inputs": [
        {
          "name": "wad",
          "type": "uint256"
        }
      ],
      "name": "bid",
      "outputs": [
        {
          "name": "",
          "type": "uint256"
        }
      ],
      "payable": false,
      "stateMutability": "view",
      "type": "function"
    },
    {
      "constant": false,
      "inputs": [
        {
          "name": "wad",
          "type": "uint256"
        }
      ],
      "name": "join",
      "outputs": [],
      "payable": true,
      "stateMutability": "payable",
      "type": "function"
    },
    {
      "constant": false,
      "inputs": [
        {
          "name": "wad",
          "type": "uint256"
        }
      ],
      "name": "exit",
      "outputs": [],
      "payable": true,
      "stateMutability": "payable",
      "type": "function"
    },
    {
      "constant": false,
      "inputs": [],
      "name": "chi",
      "outputs": [
        {
          "name": "",
          "type": "uint256"
        }
      ],
      "payable": false,
      "stateMutability": "nonpayable",
      "type": "function"
    },
    {
      "constant": false,
      "inputs": [],
      "name": "rhi",
      "outputs": [
        {
          "name": "",
          "type": "uint256"
        }
      ],
      "payable": false,
      "stateMutability": "nonpayable",
      "type": "function"
    },
    {
      "constant": false,
      "inputs": [],
      "name": "drip",
      "outputs": [],
      "payable": true,
      "stateMutability": "payable",
      "type": "function"
    },
    {
      "constant": true,
      "inputs": [],
      "name": "tag",
      "outputs": [
        {
          "name": "wad",
          "type": "uint256"
        }
      ],
      "payable": false,
      "stateMutability": "view",
      "type": "function"
    },
    {
      "constant": false,
      "inputs": [
        {
          "name": "cup",
          "type": "bytes32"
        }
      ],
      "name": "safe",
      "outputs": [
        {
          "name": "",
          "type": "bool"
        }
      ],
      "payable": false,
      "stateMutability": "nonpayable",
      "type": "function"
    },
    {
      "constant": false,
      "inputs": [],
      "name": "open",
      "outputs": [
        {
          "name": "cup",
          "type": "bytes32"
        }
      ],
      "payable": true,
      "stateMutability": "payable",
      "type": "function"
    },
    {
      "constant": false,
      "inputs": [
        {
          "name": "cup",
          "type": "bytes32"
        },
        {
          "name": "guy",
          "type": "address"
        }
      ],
      "name": "give",
      "outputs": [],
      "payable": true,
      "stateMutability": "payable",
      "type": "function"
    },
    {
      "constant": false,
      "inputs": [
        {
          "name": "cup",
          "type": "bytes32"
        },
        {
          "name": "wad",
          "type": "uint256"
        }
      ],
      "name": "lock",
      "outputs": [],
      "payable": true,
      "stateMutability": "payable",
      "type": "function"
    },
    {
      "constant": false,
      "inputs": [
        {
          "name": "cup",
          "type": "bytes32"
        },
        {
          "name": "wad",
          "type": "uint256"
        }
      ],
      "name": "free",
      "outputs": [],
      "payable": true,
      "stateMutability": "payable",
      "type": "function"
    },
    {
      "constant": false,
      "inputs": [
        {
          "name": "cup",
          "type": "bytes32"
        },
        {
          "name": "wad",
          "type": "uint256"
        }
      ],
      "name": "draw",
      "outputs": [],
      "payable": true,
      "stateMutability": "payable",
      "type": "function"
    },
    {
      "constant": false,
      "inputs": [
        {
          "name": "cup",
          "type": "bytes32"
        },
        {
          "name": "wad",
          "type": "uint256"
        }
      ],
      "name": "wipe",
      "outputs": [],
      "payable": true,
      "stateMutability": "payable",
      "type": "function"
    },
    {
      "constant": false,
      "inputs": [
        {
          "name": "cup",
          "type": "bytes32"
        }
      ],
      "name": "shut",
      "outputs": [],
      "payable": true,
      "stateMutability": "payable",
      "type": "function"
    },
    {
      "constant": false,
      "inputs": [
        {
          "name": "cup",
          "type": "bytes32"
        }
      ],
      "name": "bite",
      "outputs": [],
      "payable": true,
      "stateMutability": "payable",
      "type": "function"
    },
    {
      "constant": false,
      "inputs": [
        {
          "name": "fit_",
          "type": "uint256"
        },
        {
          "name": "jam",
          "type": "uint256"
        }
      ],
      "name": "cage",
      "outputs": [],
      "payable": true,
      "stateMutability": "payable",
      "type": "function"
    },
    {
      "constant": false,
      "inputs": [],
      "name": "flow",
      "outputs": [],
      "payable": true,
      "stateMutability": "payable",
      "type": "function"
    }
  ],
  "bytecode": "0x60806040523480156200001157600080fd5b5060405161012080620030fa83398101806040526101208110156200003557600080fd5b50805160208201516040808401516060850151608086015160a087015160c088015160e08901516101009099015160018054600160a060020a031916339081179091559651989997989597949693959294919391929091907fce241d7ca1f669fee44b6fc00b8eba2df3bb514eed0f6f668f8f89096e81ed9490600090a260058054600160a060020a0319908116600160a060020a03898116919091179092556004805482168a84161790556002805482168c84161790556003805482168b8416179055600680548216888416179055600b80548216848416179055600880548216878416179055600980548216868416179055600780549091169184169190911790556b033b2e3c9fd0803ce8000000600c819055600e819055600f8190556010819055670de0b6b3a764000060115560158190556016556200018164010000000062000194810204565b6014555062000198975050505050505050565b4290565b612f5280620001a86000396000f3fe60806040526004361061039b5760003560e060020a900480638ceedb47116101e0578063c8e13bb411610106578063e0ae96e9116100a4578063f7c8d63411610073578063f7c8d634146109eb578063fcfff16f14610a15578063fd22103114610a1d578063fdac002514610a325761039b565b8063e0ae96e91461096d578063e47e7e6614610982578063e95823ad146109ac578063f03c7c6e146109d65761039b565b8063d741e2f9116100e0578063d741e2f9146108f3578063d9c27cc614610908578063ddca3f431461092e578063de5f5517146109435761039b565b8063c8e13bb4146108a3578063c92aecc4146108b8578063cf48d1a6146108cd5761039b565b8063a5cd184e1161017e578063b3b77a511161014d578063b3b77a5114610822578063b84d210614610845578063baa8529c14610862578063bf7e214f1461088e5761039b565b8063a5cd184e146107c0578063ab0783da146107e3578063ace237f5146107f8578063b2a1449b1461080d5761039b565b80639166cba4116101ba5780639166cba41461076b57806392b0d7211461078057806399c8d556146107a35780639f678cca146107b85761039b565b80638ceedb471461071e5780638cf0c191146107415780638da5cb5b146107565761039b565b806349955431116102c557806373b38101116102635780637ec9c3b8116102325780637ec9c3b8146106b15780637f8661a1146106c657806382bf9a75146106e35780638a95a746146107095761039b565b806373b38101146106205780637a9e5e4b146106435780637bd2bea7146106765780637e74325f1461068b5761039b565b80636626b26d1161029f5780636626b26d146105a357806367550a35146105cc5780636c32c0a6146105e15780636f78ee0d146105f65761039b565b80634995543114610564578063509bf2bf1461057957806351f910661461058e5761039b565b806320aba08b1161033d578063355274ea1161030c578063355274ea146104e557806340cc8854146104fa578063440f19ba14610517578063454a2ab31461053a5761039b565b806320aba08b1461049e57806327e7e21e146104b3578063338a0261146104c8578063343aad82146104dd5761039b565b806312d43a511161037957806312d43a511461040557806313af40351461041a578063143e55e01461044d5780631f3634ed146104745761039b565b8063049878f3146103a0578063071bafb5146103bf5780630f8a771e146103f0575b600080fd5b6103bd600480360360208110156103b657600080fd5b5035610a8c565b005b3480156103cb57600080fd5b506103d4610c43565b60408051600160a060020a039092168252519081900360200190f35b3480156103fc57600080fd5b506103d4610c52565b34801561041157600080fd5b506103d4610c61565b34801561042657600080fd5b506103bd6004803603602081101561043d57600080fd5b5035600160a060020a0316610c70565b34801561045957600080fd5b50610462610d1a565b60408051918252519081900360200190f35b34801561048057600080fd5b506104626004803603602081101561049757600080fd5b5035610d1e565b3480156104aa57600080fd5b50610462610d33565b3480156104bf57600080fd5b50610462610d39565b3480156104d457600080fd5b50610462610dd2565b6103bd610de3565b3480156104f157600080fd5b50610462610ec2565b6103bd6004803603602081101561051057600080fd5b5035610ec8565b6103bd6004803603604081101561052d57600080fd5b50803590602001356111b7565b34801561054657600080fd5b506104626004803603602081101561055d57600080fd5b5035611412565b34801561057057600080fd5b5061046261144a565b34801561058557600080fd5b50610462611450565b34801561059a57600080fd5b50610462611456565b3480156105af57600080fd5b506105b86114fe565b604080519115158252519081900360200190f35b3480156105d857600080fd5b506103d4611507565b3480156105ed57600080fd5b50610462611516565b34801561060257600080fd5b506104626004803603602081101561061957600080fd5b503561151c565b6103bd6004803603604081101561063657600080fd5b508035906020013561154c565b34801561064f57600080fd5b506103bd6004803603602081101561066657600080fd5b5035600160a060020a0316611819565b34801561068257600080fd5b506103d46118bf565b6103bd600480360360208110156106a157600080fd5b5035600160a060020a03166118ce565b3480156106bd57600080fd5b5061046261197e565b6103bd600480360360208110156106dc57600080fd5b5035611aaa565b6103bd600480360360208110156106f957600080fd5b5035600160a060020a0316611c40565b34801561071557600080fd5b50610462611d1f565b6103bd6004803603604081101561073457600080fd5b5080359060200135611d83565b34801561074d57600080fd5b50610462611f32565b34801561076257600080fd5b506103d4611f38565b34801561077757600080fd5b506103d4611f47565b6103bd6004803603604081101561079657600080fd5b5080359060200135611f56565b3480156107af57600080fd5b506104626121cb565b6103bd6121d1565b6103bd600480360360408110156107d657600080fd5b5080359060200135612392565b3480156107ef57600080fd5b5061046261251e565b34801561080457600080fd5b506103d4612524565b34801561081957600080fd5b506105b8612533565b6103bd6004803603604081101561083857600080fd5b5080359060200135612541565b6103bd6004803603602081101561085b57600080fd5b50356126a4565b6103bd6004803603604081101561087857600080fd5b5080359060200135600160a060020a03166127aa565b34801561089a57600080fd5b506103d4612873565b3480156108af57600080fd5b50610462612882565b3480156108c457600080fd5b50610462612888565b6103bd600480360360208110156108e357600080fd5b5035600160a060020a0316612899565b3480156108ff57600080fd5b506103d4612978565b6103bd6004803603602081101561091e57600080fd5b5035600160a060020a0316612987565b34801561093a57600080fd5b50610462612a66565b34801561094f57600080fd5b506103d46004803603602081101561096657600080fd5b5035612a6c565b34801561097957600080fd5b50610462612a87565b34801561098e57600080fd5b50610462600480360360208110156109a557600080fd5b5035612a97565b3480156109b857600080fd5b506105b8600480360360208110156109cf57600080fd5b5035612ab0565b3480156109e257600080fd5b506103d4612b72565b3480156109f757600080fd5b5061046260048036036020811015610a0e57600080fd5b5035612b81565b610462612b9f565b348015610a2957600080fd5b506103d4612c85565b348015610a3e57600080fd5b50610a5c60048036036020811015610a5557600080fd5b5035612c94565b60408051600160a060020a0390951685526020850193909352838301919091526060830152519081900360800190f35b60408051348082526020820183815236938301849052600435936024359384938693339360008035600160e060020a03191694909260608201848480828437600083820152604051601f909101601f1916909201829003965090945050505050a460125460ff1615610afd57600080fd5b6000610b0884612a97565b11610b1257600080fd5b600554600160a060020a03166323b872dd3330610b2e87612a97565b6040805160e060020a63ffffffff8716028152600160a060020a0394851660048201529290931660248301526044820152905160648083019260209291908290030181600087803b158015610b8257600080fd5b505af1158015610b96573d6000803e3d6000fd5b505050506040513d6020811015610bac57600080fd5b50511515610bb957600080fd5b60048054604080517f40c10f1900000000000000000000000000000000000000000000000000000000815233938101939093526024830186905251600160a060020a03909116916340c10f1991604480830192600092919082900301818387803b158015610c2657600080fd5b505af1158015610c3a573d6000803e3d6000fd5b50505050505050565b600354600160a060020a031681565b600454600160a060020a031681565b600654600160a060020a031681565b610c8633600035600160e060020a031916612cc5565b1515610cca576040805160e560020a62461bcd0281526020600482015260146024820152600080516020612f07833981519152604482015290519081900360640190fd5b60018054600160a060020a031916600160a060020a0383811691909117918290556040519116907fce241d7ca1f669fee44b6fc00b8eba2df3bb514eed0f6f668f8f89096e81ed9490600090a250565b4290565b60009081526019602052604090206001015490565b60145481565b60048054604080517f70a08231000000000000000000000000000000000000000000000000000000008152309381019390935251600092600160a060020a03909216916370a08231916024808301926020929190829003018186803b158015610da157600080fd5b505afa158015610db5573d6000803e3d6000fd5b505050506040513d6020811015610dcb57600080fd5b5051905090565b6000610ddc6121d1565b5060165490565b60408051348082526020820183815236938301849052600435936024359384938693339360008035600160e060020a03191694909260608201848480828437600083820152604051601f909101601f1916909201829003965090945050505050a4610e5a33600035600160e060020a031916612cc5565b1515610e9e576040805160e560020a62461bcd0281526020600482015260146024820152600080516020612f07833981519152604482015290519081900360640190fd5b60125460ff161515610eaf57600080fd5b50506012805461ff001916610100179055565b600d5481565b60408051348082526020820183815236938301849052600435936024359384938693339360008035600160e060020a03191694909260608201848480828437600083820152604051601f909101601f1916909201829003965090945050505050a4610f3283612ab0565b1580610f40575060125460ff165b1515610f4b57600080fd5b6000610f5684612b81565b600354600a54604080517f40c10f19000000000000000000000000000000000000000000000000000000008152600160a060020a0392831660048201526024810185905290519394509116916340c10f199160448082019260009290919082900301818387803b158015610fc957600080fd5b505af1158015610fdd573d6000803e3d6000fd5b50506017546000878152601960205260409020600201546110019350909150612dc7565b601755600084815260196020526040812060028101829055600301819055600c546110c6906110b990611035908590612dd7565b600760009054906101000a9004600160a060020a0316600160a060020a031663495d32cb6040518163ffffffff1660e060020a028152600401602060405180830381600087803b15801561108857600080fd5b505af115801561109c573d6000803e3d6000fd5b505050506040513d60208110156110b257600080fd5b5051612dd7565b6110c1611456565b612e1a565b6000868152601960205260409020600101549091508111156110f657506000848152601960205260409020600101545b60048054600a54604080517fb753a98c000000000000000000000000000000000000000000000000000000008152600160a060020a0392831694810194909452602484018590525191169163b753a98c91604480830192600092919082900301818387803b15801561116757600080fd5b505af115801561117b573d6000803e3d6000fd5b50505060008681526019602052604090206001015461119b915082612dc7565b6000958652601960205260409095206001019490945550505050565b60408051348082526020820183815236938301849052600435936024359384938693339360008035600160e060020a03191694909260608201848480828437600083820152604051601f909101601f1916909201829003965090945050505050a460125460ff161561122857600080fd5b600084815260196020526040902054600160a060020a0316331461124b57600080fd5b6000611259846110c1612888565b1161126357600080fd5b60008481526019602052604090206002015461128a90611285856110c1612888565b612e3e565b6000858152601960205260409020600201556017546112af90611285856110c1612888565b6017556000848152601960205260409020600301546112d490611285856110c1610dd2565b6000858152601960205260408082206003810193909355600254925481517f40c10f19000000000000000000000000000000000000000000000000000000008152600160a060020a0391821660048201526024810188905291519316926340c10f199260448084019391929182900301818387803b15801561135557600080fd5b505af1158015611369573d6000803e3d6000fd5b5050505061137684612ab0565b151561138157600080fd5b600d54600260009054906101000a9004600160a060020a0316600160a060020a03166318160ddd6040518163ffffffff1660e060020a02815260040160206040518083038186803b1580156113d557600080fd5b505afa1580156113e9573d6000803e3d6000fd5b505050506040513d60208110156113ff57600080fd5b5051111561140c57600080fd5b50505050565b60006114448261143f61142361197e565b61143a670de0b6b3a7640000600202601154612dc7565b612e42565b612dd7565b92915050565b60185481565b600c5481565b60125460009060ff166114f5576114f061146e61197e565b600860009054906101000a9004600160a060020a0316600160a060020a03166357de26a46040518163ffffffff1660e060020a02815260040160206040518083038186803b1580156114bf57600080fd5b505afa1580156114d3573d6000803e3d6000fd5b505050506040513d60208110156114e957600080fd5b5051612e42565b6114f9565b6013545b905090565b60125460ff1681565b600754600160a060020a031681565b60115481565b6000818152601960205260408120600301546114449061153e9061143f610dd2565b61154784612b81565b612dc7565b60408051348082526020820183815236938301849052600435936024359384938693339360008035600160e060020a03191694909260608201848480828437600083820152604051601f909101601f1916909201829003965090945050505050a460125460ff16156115bd57600080fd5b60006115d88461143f6115cf8861151c565b6110c189612b81565b6000868152601960205260409020600201549091506115fd90611547866110c1612888565b60008681526019602052604090206002015560175461162290611547866110c1612888565b601755600085815260196020526040902060030154611650906115476116488785612e3e565b6110c1610dd2565b6000868152601960205260408082206003019290925560025482517f9dc29fac000000000000000000000000000000000000000000000000000000008152336004820152602481018890529251600160a060020a0390911692639dc29fac92604480830193919282900301818387803b1580156116cc57600080fd5b505af11580156116e0573d6000803e3d6000fd5b50505050600080600960009054906101000a9004600160a060020a0316600160a060020a03166359e02dd76040518163ffffffff1660e060020a028152600401604080518083038186803b15801561173757600080fd5b505afa15801561174b573d6000803e3d6000fd5b505050506040513d604081101561176157600080fd5b508051602090910151909250905080801561177b57508115155b15610c3a57600654600b54600160a060020a039182169163bb35783b913391166117a58787612e6a565b6040805160e060020a63ffffffff8716028152600160a060020a03948516600482015292909316602483015260448201529051606480830192600092919082900301818387803b1580156117f857600080fd5b505af115801561180c573d6000803e3d6000fd5b5050505050505050505050565b61182f33600035600160e060020a031916612cc5565b1515611873576040805160e560020a62461bcd0281526020600482015260146024820152600080516020612f07833981519152604482015290519081900360640190fd5b60008054600160a060020a031916600160a060020a03838116919091178083556040519116917f1abebea81bfa2637f28358c371278fb15ede7ea8dd28d2e03b112ff6d936ada491a250565b600554600160a060020a031681565b60408051348082526020820183815236938301849052600435936024359384938693339360008035600160e060020a03191694909260608201848480828437600083820152604051601f909101601f1916909201829003965090945050505050a4600a54600160a060020a03161561194557600080fd5b600160a060020a038316151561195a57600080fd5b5050600a8054600160a060020a031916600160a060020a0392909216919091179055565b6000600460009054906101000a9004600160a060020a0316600160a060020a03166318160ddd6040518163ffffffff1660e060020a02815260040160206040518083038186803b1580156119d157600080fd5b505afa1580156119e5573d6000803e3d6000fd5b505050506040513d60208110156119fb57600080fd5b505115611a99576114f0611a0d611d1f565b60048054604080517f18160ddd0000000000000000000000000000000000000000000000000000000081529051600160a060020a03909216926318160ddd928282019260209290829003018186803b158015611a6857600080fd5b505afa158015611a7c573d6000803e3d6000fd5b505050506040513d6020811015611a9257600080fd5b5051612e1a565b506b033b2e3c9fd0803ce800000090565b60408051348082526020820183815236938301849052600435936024359384938693339360008035600160e060020a03191694909260608201848480828437600083820152604051601f909101601f1916909201829003965090945050505050a460125460ff161580611b245750601254610100900460ff165b1515611b2f57600080fd5b600554600160a060020a031663a9059cbb33611b4a86611412565b6040518363ffffffff1660e060020a0281526004018083600160a060020a0316600160a060020a0316815260200182815260200192505050602060405180830381600087803b158015611b9c57600080fd5b505af1158015611bb0573d6000803e3d6000fd5b505050506040513d6020811015611bc657600080fd5b50511515611bd357600080fd5b60048054604080517f9dc29fac00000000000000000000000000000000000000000000000000000000815233938101939093526024830186905251600160a060020a0390911691639dc29fac91604480830192600092919082900301818387803b158015610c2657600080fd5b60408051348082526020820183815236938301849052600435936024359384938693339360008035600160e060020a03191694909260608201848480828437600083820152604051601f909101601f1916909201829003965090945050505050a4611cb733600035600160e060020a031916612cc5565b1515611cfb576040805160e560020a62461bcd0281526020600482015260146024820152600080516020612f07833981519152604482015290519081900360640190fd5b505060088054600160a060020a031916600160a060020a0392909216919091179055565b600554604080517f70a082310000000000000000000000000000000000000000000000000000000081523060048201529051600092600160a060020a0316916370a08231916024808301926020929190829003018186803b158015610da157600080fd5b60408051348082526020820183815236938301849052600435936024359384938693339360008035600160e060020a03191694909260608201848480828437600083820152604051601f909101601f1916909201829003965090945050505050a4611dfa33600035600160e060020a031916612cc5565b1515611e3e576040805160e560020a62461bcd0281526020600482015260146024820152600080516020612f07833981519152604482015290519081900360640190fd5b60125460ff16158015611e5057508315155b1515611e5b57600080fd5b6012805460ff191660011790556b033b2e3c9fd0803ce8000000600c55670de0b6b3a76400006011556013849055600554600a54604080517fa9059cbb000000000000000000000000000000000000000000000000000000008152600160a060020a039283166004820152602481018790529051919092169163a9059cbb9160448083019260209291908290030181600087803b158015611efb57600080fd5b505af1158015611f0f573d6000803e3d6000fd5b505050506040513d6020811015611f2557600080fd5b5051151561140c57600080fd5b60175481565b600154600160a060020a031681565b600254600160a060020a031681565b60408051348082526020820183815236938301849052600435936024359384938693339360008035600160e060020a03191694909260608201848480828437600083820152604051601f909101601f1916909201829003965090945050505050a4611fcd33600035600160e060020a031916612cc5565b1515612011576040805160e560020a62461bcd0281526020600482015260146024820152600080516020612f07833981519152604482015290519081900360640190fd5b837f6361700000000000000000000000000000000000000000000000000000000000141561204357600d83905561140c565b837f6d61740000000000000000000000000000000000000000000000000000000000141561208e576b033b2e3c9fd0803ce800000083101561208457600080fd5b600e83905561140c565b837f746178000000000000000000000000000000000000000000000000000000000014156120e1576b033b2e3c9fd0803ce80000008310156120cf57600080fd5b6120d76121d1565b600f83905561140c565b837f66656500000000000000000000000000000000000000000000000000000000001415612134576b033b2e3c9fd0803ce800000083101561212257600080fd5b61212a6121d1565b601083905561140c565b837f6178650000000000000000000000000000000000000000000000000000000000141561217f576b033b2e3c9fd0803ce800000083101561217557600080fd5b600c83905561140c565b837f676170000000000000000000000000000000000000000000000000000000000014156121c657670de0b6b3a76400008310156121bc57600080fd5b601183905561140c565b61140c565b600f5481565b60408051348082526020820183815236938301849052600435936024359384938693339360008035600160e060020a03191694909260608201848480828437600083820152604051601f909101601f1916909201829003965090945050505050a460125460ff16156122425761238e565b600061224c610d1a565b601454909150810380151561226257505061238e565b6014829055600f546b033b2e3c9fd0803ce800000090811461233f57601554600f5461228e9084612e82565b915061229c60155483612dd7565b6015819055600254600a54600160a060020a03918216926340c10f1992909116906122d3906122cb9086612dc7565b601754612dd7565b6040518363ffffffff1660e060020a0281526004018083600160a060020a0316600160a060020a0316815260200182815260200192505050600060405180830381600087803b15801561232557600080fd5b505af1158015612339573d6000803e3d6000fd5b50505050505b6010546b033b2e3c9fd0803ce800000014612367576123648161143f60105485612e82565b90505b6b033b2e3c9fd0803ce8000000811461238a5761238660165482612dd7565b6016555b5050505b5050565b60408051348082526020820183815236938301849052600435936024359384938693339360008035600160e060020a03191694909260608201848480828437600083820152604051601f909101601f1916909201829003965090945050505050a4600084815260196020526040902054600160a060020a0316331461241657600080fd5b6000848152601960205260409020600101546124329084612dc7565b600085815260196020526040808220600101929092556004805483517fb753a98c0000000000000000000000000000000000000000000000000000000081523392810192909252602482018790529251600160a060020a039093169263b753a98c9260448084019391929182900301818387803b1580156124b257600080fd5b505af11580156124c6573d6000803e3d6000fd5b505050506124d384612ab0565b15156124de57600080fd5b600084815260196020526040902060010154158061251357506000848152601960205260409020600101546611c37937e08000105b151561140c57600080fd5b600e5481565b600954600160a060020a031681565b601254610100900460ff1681565b60408051348082526020820183815236938301849052600435936024359384938693339360008035600160e060020a03191694909260608201848480828437600083820152604051601f909101601f1916909201829003965090945050505050a460125460ff16156125b257600080fd5b6000848152601960205260409020600101546125ce9084612e3e565b600085815260196020526040808220600101929092556004805483517ff2d5d56b0000000000000000000000000000000000000000000000000000000081523392810192909252602482018790529251600160a060020a039093169263f2d5d56b9260448084019391929182900301818387803b15801561264e57600080fd5b505af1158015612662573d6000803e3d6000fd5b5050506000858152601960205260409020600101541590508061251357506000848152601960205260409020600101546611c37937e080001061140c57600080fd5b60408051348082526020820183815236938301849052600435936024359384938693339360008035600160e060020a03191694909260608201848480828437600083820152604051601f909101601f1916909201829003965090945050505050a460125460ff161561271557600080fd5b600083815260196020526040902054600160a060020a0316331461273857600080fd5b61274183612b81565b15612758576127588361275385612b81565b61154c565b61276183610d1e565b15612778576127788361277385610d1e565b612392565b505060009081526019602052604081208054600160a060020a0319168155600181018290556002810182905560030155565b60408051348082526020820183815236938301849052600435936024359384938693339360008035600160e060020a03191694909260608201848480828437600083820152604051601f909101601f1916909201829003965090945050505050a4600084815260196020526040902054600160a060020a0316331461282e57600080fd5b600160a060020a038316151561284357600080fd5b50506000918252601960205260409091208054600160a060020a031916600160a060020a03909216919091179055565b600054600160a060020a031681565b60135481565b60006128926121d1565b5060155490565b60408051348082526020820183815236938301849052600435936024359384938693339360008035600160e060020a03191694909260608201848480828437600083820152604051601f909101601f1916909201829003965090945050505050a461291033600035600160e060020a031916612cc5565b1515612954576040805160e560020a62461bcd0281526020600482015260146024820152600080516020612f07833981519152604482015290519081900360640190fd5b505060078054600160a060020a031916600160a060020a0392909216919091179055565b600854600160a060020a031681565b60408051348082526020820183815236938301849052600435936024359384938693339360008035600160e060020a03191694909260608201848480828437600083820152604051601f909101601f1916909201829003965090945050505050a46129fe33600035600160e060020a031916612cc5565b1515612a42576040805160e560020a62461bcd0281526020600482015260146024820152600080516020612f07833981519152604482015290519081900360640190fd5b505060098054600160a060020a031916600160a060020a0392909216919091179055565b60105481565b600090815260196020526040902054600160a060020a031690565b60006114f960175461143f612888565b60006114448261143f612aa861197e565b601154612e42565b600080612ac7612abe611456565b61143f85610d1e565b90506000612b56600760009054906101000a9004600160a060020a0316600160a060020a031663495d32cb6040518163ffffffff1660e060020a028152600401602060405180830381600087803b158015612b2157600080fd5b505af1158015612b35573d6000803e3d6000fd5b505050506040513d6020811015612b4b57600080fd5b505161143f86612b81565b90506000612b6682600e54612dd7565b90921015949350505050565b600b54600160a060020a031681565b6000818152601960205260408120600201546114449061143f612888565b604080513480825260208201838152369383018490526000936004359360243593849386933393600160e060020a03198a351693928a92919060608201848480828437600083820152604051601f909101601f1916909201829003965090945050505050a460125460ff1615612c1457600080fd5b612c216018546001612e3e565b60188190556000818152601960209081526040918290208054600160a060020a0319163390811790915582518481529251939650927f89b8893b806db50897c8e2362c71571cfaeb9761ee40727f683f1793cda9df169281900390910190a2505090565b600a54600160a060020a031681565b6019602052600090815260409020805460018201546002830154600390930154600160a060020a0390921692909184565b6000600160a060020a038316301415612ce057506001611444565b600154600160a060020a0384811691161415612cfe57506001611444565b600054600160a060020a03161515612d1857506000611444565b600054604080517fb7009613000000000000000000000000000000000000000000000000000000008152600160a060020a038681166004830152306024830152600160e060020a0319861660448301529151919092169163b7009613916064808301926020929190829003018186803b158015612d9457600080fd5b505afa158015612da8573d6000803e3d6000fd5b505050506040513d6020811015612dbe57600080fd5b50519392505050565b8082038281111561144457600080fd5b60006b033b2e3c9fd0803ce8000000612e09612df38585612ede565b60026b033b2e3c9fd0803ce80000005b04612e3e565b811515612e1257fe5b049392505050565b600081612e09612e36856b033b2e3c9fd0803ce8000000612ede565b600285612e03565b0190565b6000670de0b6b3a7640000612e09612e5a8585612ede565b6002670de0b6b3a7640000612e03565b600081612e09612e3685670de0b6b3a7640000612ede565b6000600282061515612ea0576b033b2e3c9fd0803ce8000000612ea2565b825b90506002820491505b811561144457612ebb8384612dd7565b92506002820615612ed357612ed08184612dd7565b90505b600282049150612eab565b6000811580612efb575050808202828282811515612ef857fe5b04145b151561144457600080fdfe617574683a206e6f7420617574686f72697a6564000000000000000000000000a165627a7a723058205147c3771fc65a25b3f5b975e54c9d9bdb6bf444f66eb56693db8aedc05b4e3b0029",
  "source": "/// tub.sol -- simplified CDP engine (baby brother of `vat')\n\n// Copyright (C) 2017  Nikolai Mushegian <nikolai@dapphub.com>\n// Copyright (C) 2017  Daniel Brockman <daniel@dapphub.com>\n// Copyright (C) 2017  Rain Break <rainbreak@riseup.net>\n\n// This program is free software: you can redistribute it and/or modify\n// it under the terms of the GNU General Public License as published by\n// the Free Software Foundation, either version 3 of the License, or\n// (at your option) any later version.\n\n// This program is distributed in the hope that it will be useful,\n// but WITHOUT ANY WARRANTY; without even the implied warranty of\n// MERCHANTABILITY or FITNESS FOR A PARTICULAR PURPOSE.  See the\n// GNU General Public License for more details.\n\n// You should have received a copy of the GNU General Public License\n// along with this program.  If not, see <http://www.gnu.org/licenses/>.\n\npragma solidity ^0.5.4;\n\nimport \"./DS/DSThing.sol\";\nimport \"./DS/DSToken.sol\";\nimport \"./DS/DSValue.sol\";\nimport \"../../exchange/ERC20.sol\";\n\nimport \"./SaiVox.sol\";\n\ncontract SaiTubEvents {\n    event LogNewCup(address indexed lad, bytes32 cup);\n}\n\ncontract SaiTub is DSThing, SaiTubEvents {\n    DSToken  public  sai;  // Stablecoin\n    DSToken  public  sin;  // Debt (negative sai)\n\n    DSToken  public  skr;  // Abstracted collateral\n    ERC20    public  gem;  // Underlying collateral\n\n    DSToken  public  gov;  // Governance token\n\n    SaiVox   public  vox;  // Target price feed\n    DSValue  public  pip;  // Reference price feed\n    DSValue  public  pep;  // Governance price feed\n\n    address  public  tap;  // Liquidator\n    address  public  pit;  // Governance Vault\n\n    uint256  public  axe;  // Liquidation penalty\n    uint256  public  cap;  // Debt ceiling\n    uint256  public  mat;  // Liquidation ratio\n    uint256  public  tax;  // Stability fee\n    uint256  public  fee;  // Governance fee\n    uint256  public  gap;  // Join-Exit Spread\n\n    bool     public  off;  // Cage flag\n    bool     public  out;  // Post cage exit\n\n    uint256  public  fit;  // REF per SKR (just before settlement)\n\n    uint256  public  rho;  // Time of last drip\n    uint256         _chi;  // Accumulated Tax Rates\n    uint256         _rhi;  // Accumulated Tax + Fee Rates\n    uint256  public  rum;  // Total normalised debt\n\n    uint256                   public  cupi;\n    mapping (bytes32 => Cup)  public  cups;\n\n    struct Cup {\n        address  lad;      // CDP owner\n        uint256  ink;      // Locked collateral (in SKR)\n        uint256  art;      // Outstanding normalised debt (tax only)\n        uint256  ire;      // Outstanding normalised debt\n    }\n\n    function lad(bytes32 cup) public view returns (address) {\n        return cups[cup].lad;\n    }\n    function ink(bytes32 cup) public view returns (uint) {\n        return cups[cup].ink;\n    }\n    function tab(bytes32 cup) public returns (uint) {\n        return rmul(cups[cup].art, chi());\n    }\n    function rap(bytes32 cup) public returns (uint) {\n        return sub(rmul(cups[cup].ire, rhi()), tab(cup));\n    }\n\n    // Total CDP Debt\n    function din() public returns (uint) {\n        return rmul(rum, chi());\n    }\n    // Backing collateral\n    function air() public view returns (uint) {\n        return skr.balanceOf(address(this));\n    }\n    // Raw collateral\n    function pie() public view returns (uint) {\n        return gem.balanceOf(address(this));\n    }\n\n    //------------------------------------------------------------------\n\n    constructor(\n        DSToken  sai_,\n        DSToken  sin_,\n        DSToken  skr_,\n        ERC20    gem_,\n        DSToken  gov_,\n        DSValue  pip_,\n        DSValue  pep_,\n        SaiVox   vox_,\n        address  pit_\n    ) public {\n        gem = gem_;\n        skr = skr_;\n\n        sai = sai_;\n        sin = sin_;\n\n        gov = gov_;\n        pit = pit_;\n\n        pip = pip_;\n        pep = pep_;\n        vox = vox_;\n\n        axe = RAY;\n        mat = RAY;\n        tax = RAY;\n        fee = RAY;\n        gap = WAD;\n\n        _chi = RAY;\n        _rhi = RAY;\n\n        rho = era();\n    }\n\n    function era() public view returns (uint) {\n        return block.timestamp;\n    }\n\n    //--Risk-parameter-config-------------------------------------------\n\n    function mold(bytes32 param, uint val) public payable note auth {\n        if      (param == 'cap') cap = val;\n        else if (param == 'mat') { require(val >= RAY); mat = val; }\n        else if (param == 'tax') { require(val >= RAY); drip(); tax = val; }\n        else if (param == 'fee') { require(val >= RAY); drip(); fee = val; }\n        else if (param == 'axe') { require(val >= RAY); axe = val; }\n        else if (param == 'gap') { require(val >= WAD); gap = val; }\n        else return;\n    }\n\n    //--Price-feed-setters----------------------------------------------\n\n    function setPip(DSValue pip_) public payable note auth {\n        pip = pip_;\n    }\n    function setPep(DSValue pep_) public payable note auth {\n        pep = pep_;\n    }\n    function setVox(SaiVox vox_) public payable note auth {\n        vox = vox_;\n    }\n\n    //--Tap-setter------------------------------------------------------\n    function turn(address tap_) public payable note {\n        require(tap  == address(0));\n        require(tap_ != address(0));\n        tap = tap_;\n    }\n\n    //--Collateral-wrapper----------------------------------------------\n\n    // Wrapper ratio (gem per skr)\n    function per() public view returns (uint ray) {\n        return skr.totalSupply() == 0 ? RAY : rdiv(pie(), skr.totalSupply());\n    }\n    // Join price (gem per skr)\n    function ask(uint wad) public view returns (uint) {\n        return rmul(wad, wmul(per(), gap));\n    }\n    // Exit price (gem per skr)\n    function bid(uint wad) public view returns (uint) {\n        return rmul(wad, wmul(per(), sub(2 * WAD, gap)));\n    }\n    function join(uint wad) public payable note {\n        require(!off);\n        require(ask(wad) > 0);\n        require(gem.transferFrom(msg.sender, address(this), ask(wad)));\n        skr.mint(msg.sender, wad);\n    }\n    function exit(uint wad) public payable note {\n        require(!off || out);\n        require(gem.transfer(msg.sender, bid(wad)));\n        skr.burn(msg.sender, wad);\n    }\n\n    //--Stability-fee-accumulation--------------------------------------\n\n    // Accumulated Rates\n    function chi() public returns (uint) {\n        drip();\n        return _chi;\n    }\n    function rhi() public returns (uint) {\n        drip();\n        return _rhi;\n    }\n    function drip() public payable note {\n        if (off) return;\n\n        uint256 rho_ = era();\n        uint256 age = rho_ - rho;\n        if (age == 0) return;    // optimised\n        rho = rho_;\n\n        uint256 inc = RAY;\n\n        if (tax != RAY) {  // optimised\n            uint256 _chi_ = _chi;\n            inc = rpow(tax, age);\n            _chi = rmul(_chi, inc);\n            sai.mint(tap, rmul(sub(_chi, _chi_), rum));\n        }\n\n        // optimised\n        if (fee != RAY) inc = rmul(inc, rpow(fee, age));\n        if (inc != RAY) _rhi = rmul(_rhi, inc);\n    }\n\n\n    //--CDP-risk-indicator----------------------------------------------\n\n    // Abstracted collateral price (ref per skr)\n    function tag() public view returns (uint wad) {\n        return off ? fit : wmul(per(), uint(pip.read())); // (ETH/PETH) * (USD/ETH) = USD/PETH\n    }\n    // Returns true if cup is well-collateralized\n    function safe(bytes32 cup) public returns (bool) {\n        uint256 pro = rmul(tag(), ink(cup));\n        uint256 con = rmul(vox.par(), tab(cup));\n        uint256 min = rmul(con, mat);\n        return pro >= min;\n    }\n\n\n    //--CDP-operations--------------------------------------------------\n\n    function open() public payable note returns (bytes32 cup) {\n        require(!off);\n        cupi = add(cupi, 1);\n        cup = bytes32(cupi);\n        cups[cup].lad = msg.sender;\n        emit LogNewCup(msg.sender, cup);\n    }\n    function give(bytes32 cup, address guy) public payable note {\n        require(msg.sender == cups[cup].lad);\n        require(guy != address(0));\n        cups[cup].lad = guy;\n    }\n\n    function lock(bytes32 cup, uint wad) public payable note {\n        require(!off);\n        cups[cup].ink = add(cups[cup].ink, wad);\n        skr.pull(msg.sender, wad);\n        require(cups[cup].ink == 0 || cups[cup].ink > 0.005 ether);\n    }\n    function free(bytes32 cup, uint wad) public payable note {\n        require(msg.sender == cups[cup].lad);\n        cups[cup].ink = sub(cups[cup].ink, wad);\n        skr.push(msg.sender, wad);\n        require(safe(cup));\n        require(cups[cup].ink == 0 || cups[cup].ink > 0.005 ether);\n    }\n\n    function draw(bytes32 cup, uint wad) public payable note {\n        require(!off);\n        require(msg.sender == cups[cup].lad);\n        require(rdiv(wad, chi()) > 0);\n        cups[cup].art = add(cups[cup].art, rdiv(wad, chi()));\n        rum = add(rum, rdiv(wad, chi()));\n\n        cups[cup].ire = add(cups[cup].ire, rdiv(wad, rhi()));\n        sai.mint(cups[cup].lad, wad);\n\n        require(safe(cup));\n        require(sai.totalSupply() <= cap);\n    }\n    function wipe(bytes32 cup, uint wad) public payable note {\n        require(!off);\n\n        uint256 owe = rmul(wad, rdiv(rap(cup), tab(cup)));\n        \n        cups[cup].art = sub(cups[cup].art, rdiv(wad, chi()));\n        rum = sub(rum, rdiv(wad, chi()));\n\n        cups[cup].ire = sub(cups[cup].ire, rdiv(add(wad, owe), rhi()));\n        sai.burn(msg.sender, wad);\n\n        (bytes32 val, bool ok) = pep.peek();\n        if (ok && val != 0) gov.move(msg.sender, pit, wdiv(owe, uint(val)));\n    }\n\n    function shut(bytes32 cup) public payable note {\n        require(!off);\n        require(msg.sender == cups[cup].lad);\n        if (tab(cup) != 0) wipe(cup, tab(cup));\n        if (ink(cup) != 0) free(cup, ink(cup));\n        delete cups[cup];\n    }\n\n    function bite(bytes32 cup) public payable note {\n        require(!safe(cup) || off);\n\n        // Take on all of the debt, except unpaid fees\n        uint256 rue = tab(cup);\n        sin.mint(tap, rue);\n        rum = sub(rum, cups[cup].art);\n        cups[cup].art = 0;\n        cups[cup].ire = 0;\n\n        // Amount owed in SKR, including liquidation penalty\n        uint256 owe = rdiv(rmul(rmul(rue, axe), vox.par()), tag());\n\n        if (owe > cups[cup].ink) {\n            owe = cups[cup].ink;\n        }\n\n        skr.push(tap, owe);\n        cups[cup].ink = sub(cups[cup].ink, owe);\n    }\n\n    //------------------------------------------------------------------\n\n    function cage(uint fit_, uint jam) public payable note auth {\n        require(!off && fit_ != 0);\n        off = true;\n        axe = RAY;\n        gap = WAD;\n        fit = fit_;         // ref per skr\n        require(gem.transfer(tap, jam));\n    }\n    function flow() public payable note auth {\n        require(off);\n        out = true;\n    }\n}\n",
  "sourcePath": "/home/amxx/Work/Argent/argent-contracts/contracts/test/maker/SaiTub.sol",
  "compiler": {
    "name": "solc",
    "version": "0.5.4+commit.9549d8ff.Emscripten.clang",
    "optimizer": true,
    "runs": 200
  },
  "schemaVersion": "2.2.4",
  "updatedAt": "2020-02-29T16:28:22.638Z"
}