{
  "contractName": "SaiVox",
  "abi": [
    {
      "constant": false,
      "inputs": [
        {
          "name": "owner_",
          "type": "address"
        }
      ],
      "name": "setOwner",
      "outputs": [],
      "payable": false,
      "stateMutability": "nonpayable",
      "type": "function"
    },
    {
      "constant": true,
      "inputs": [],
      "name": "how",
      "outputs": [
        {
          "name": "",
          "type": "uint256"
        }
      ],
      "payable": false,
      "stateMutability": "view",
      "type": "function"
    },
    {
      "constant": false,
      "inputs": [
        {
          "name": "authority_",
          "type": "address"
        }
      ],
      "name": "setAuthority",
      "outputs": [],
      "payable": false,
      "stateMutability": "nonpayable",
      "type": "function"
    },
    {
      "constant": true,
      "inputs": [],
      "name": "owner",
      "outputs": [
        {
          "name": "",
          "type": "address"
        }
      ],
      "payable": false,
      "stateMutability": "view",
      "type": "function"
    },
    {
      "constant": true,
      "inputs": [],
      "name": "fix",
      "outputs": [
        {
          "name": "",
          "type": "uint256"
        }
      ],
      "payable": false,
      "stateMutability": "view",
      "type": "function"
    },
    {
      "constant": true,
      "inputs": [],
      "name": "authority",
      "outputs": [
        {
          "name": "",
          "type": "address"
        }
      ],
      "payable": false,
      "stateMutability": "view",
      "type": "function"
    },
    {
      "constant": true,
      "inputs": [],
      "name": "tau",
      "outputs": [
        {
          "name": "",
          "type": "uint256"
        }
      ],
      "payable": false,
      "stateMutability": "view",
      "type": "function"
    },
    {
      "inputs": [
        {
          "name": "par_",
          "type": "uint256"
        }
      ],
      "payable": false,
      "stateMutability": "nonpayable",
      "type": "constructor"
    },
    {
      "anonymous": false,
      "inputs": [
        {
          "indexed": true,
          "name": "authority",
          "type": "address"
        }
      ],
      "name": "LogSetAuthority",
      "type": "event"
    },
    {
      "anonymous": false,
      "inputs": [
        {
          "indexed": true,
          "name": "owner",
          "type": "address"
        }
      ],
      "name": "LogSetOwner",
      "type": "event"
    },
    {
      "constant": true,
      "inputs": [],
      "name": "era",
      "outputs": [
        {
          "name": "",
          "type": "uint256"
        }
      ],
      "payable": false,
      "stateMutability": "view",
      "type": "function"
    },
    {
      "constant": false,
      "inputs": [
        {
          "name": "param",
          "type": "bytes32"
        },
        {
          "name": "val",
          "type": "uint256"
        }
      ],
      "name": "mold",
      "outputs": [],
      "payable": false,
      "stateMutability": "nonpayable",
      "type": "function"
    },
    {
      "constant": false,
      "inputs": [],
      "name": "par",
      "outputs": [
        {
          "name": "",
          "type": "uint256"
        }
      ],
      "payable": false,
      "stateMutability": "nonpayable",
      "type": "function"
    },
    {
      "constant": false,
      "inputs": [],
      "name": "way",
      "outputs": [
        {
          "name": "",
          "type": "uint256"
        }
      ],
      "payable": false,
      "stateMutability": "nonpayable",
      "type": "function"
    },
    {
      "constant": false,
      "inputs": [
        {
          "name": "ray",
          "type": "uint256"
        }
      ],
      "name": "tell",
      "outputs": [],
      "payable": false,
      "stateMutability": "nonpayable",
      "type": "function"
    },
    {
      "constant": false,
      "inputs": [
        {
          "name": "ray",
          "type": "uint256"
        }
      ],
      "name": "tune",
      "outputs": [],
      "payable": false,
      "stateMutability": "nonpayable",
      "type": "function"
    },
    {
      "constant": false,
      "inputs": [],
      "name": "prod",
      "outputs": [],
      "payable": false,
      "stateMutability": "nonpayable",
      "type": "function"
    }
  ],
  "bytecode": "0x608060405234801561001057600080fd5b506040516020806109768339810180604052602081101561003057600080fd5b505160018054600160a060020a031916339081179091556040517fce241d7ca1f669fee44b6fc00b8eba2df3bb514eed0f6f668f8f89096e81ed9490600090a2600481905560028190556b033b2e3c9fd0803ce800000060035561009b6401000000006100a4810204565b600655506100a8565b4290565b6108bf806100b76000396000f3fe608060405234801561001057600080fd5b5060043610610107576000357c0100000000000000000000000000000000000000000000000000000000900480637a9e5e4b116100a9578063a551878e11610083578063a551878e146101f8578063becda0ea14610200578063bf7e214f1461021d578063cfc4af551461022557610107565b80637a9e5e4b1461018b5780638da5cb5b146101b157806392b0d721146101d557610107565b80633a4a4233116100e55780633a4a423314610156578063495d32cb1461015e57806355deb8fc146101665780635d6542af1461018357610107565b80630302c6881461010c57806313af403514610116578063143e55e01461013c575b600080fd5b61011461022d565b005b6101146004803603602081101561012c57600080fd5b5035600160a060020a03166102cf565b610144610386565b60408051918252519081900360200190f35b61014461038a565b610144610390565b6101146004803603602081101561017c57600080fd5b50356103a1565b610144610400565b610114600480360360208110156101a157600080fd5b5035600160a060020a0316610411565b6101b96104c4565b60408051600160a060020a039092168252519081900360200190f35b610114600480360360408110156101eb57600080fd5b50803590602001356104d3565b61014461055f565b6101146004803603602081101561021657600080fd5b5035610565565b6101b96105c4565b6101446105d3565b600060065461023a610386565b03905080151561024a57506102cd565b610252610386565b6006556003546b033b2e3c9fd0803ce8000000146102855761028160025461027c600354846105d9565b61063b565b6002555b600554151561029457506102cd565b6000816005540290506102c7600254600454106102b457816000036102b6565b815b6102c160035461067e565b016106d0565b60035550505b565b6102e533600035600160e060020a031916610721565b1515610329576040805160e560020a62461bcd0281526020600482015260146024820152600080516020610874833981519152604482015290519081900360640190fd5b6001805473ffffffffffffffffffffffffffffffffffffffff1916600160a060020a0383811691909117918290556040519116907fce241d7ca1f669fee44b6fc00b8eba2df3bb514eed0f6f668f8f89096e81ed9490600090a250565b4290565b60055481565b600061039a61022d565b5060025490565b6103b733600035600160e060020a031916610721565b15156103fb576040805160e560020a62461bcd0281526020600482015260146024820152600080516020610874833981519152604482015290519081900360640190fd5b600455565b600061040a61022d565b5060035490565b61042733600035600160e060020a031916610721565b151561046b576040805160e560020a62461bcd0281526020600482015260146024820152600080516020610874833981519152604482015290519081900360640190fd5b6000805473ffffffffffffffffffffffffffffffffffffffff1916600160a060020a03838116919091178083556040519116917f1abebea81bfa2637f28358c371278fb15ede7ea8dd28d2e03b112ff6d936ada491a250565b600154600160a060020a031681565b6104e933600035600160e060020a031916610721565b151561052d576040805160e560020a62461bcd0281526020600482015260146024820152600080516020610874833981519152604482015290519081900360640190fd5b817f7761790000000000000000000000000000000000000000000000000000000000141561055b5760038190555b5050565b60045481565b61057b33600035600160e060020a031916610721565b15156105bf576040805160e560020a62461bcd0281526020600482015260146024820152600080516020610874833981519152604482015290519081900360640190fd5b600555565b600054600160a060020a031681565b60065481565b60006002820615156105f7576b033b2e3c9fd0803ce80000006105f9565b825b90506002820491505b811561063557610612838461063b565b9250600282061561062a57610627818461063b565b90505b600282049150610602565b92915050565b60006b033b2e3c9fd0803ce800000061066d6106578585610823565b60026b033b2e3c9fd0803ce80000005b0461084b565b81151561067657fe5b049392505050565b60006b033b2e3c9fd0803ce80000008210156106bd576106aa6b033b2e3c9fd0803ce80000008361084f565b6b033b2e3c9fd0803ce800000003610635565b506b033b2e3c9fd0803ce7ffffff190190565b60008082600f0b121561070c576107076b033b2e3c9fd0803ce800000083600003600f0b6b033b2e3c9fd0803ce80000000161084f565b610635565b50600f0b6b033b2e3c9fd0803ce80000000190565b6000600160a060020a03831630141561073c57506001610635565b600154600160a060020a038481169116141561075a57506001610635565b600054600160a060020a0316151561077457506000610635565b600054604080517fb7009613000000000000000000000000000000000000000000000000000000008152600160a060020a038681166004830152306024830152600160e060020a0319861660448301529151919092169163b7009613916064808301926020929190829003018186803b1580156107f057600080fd5b505afa158015610804573d6000803e3d6000fd5b505050506040513d602081101561081a57600080fd5b50519050610635565b600081158061084057505080820282828281151561083d57fe5b04145b151561063557600080fd5b0190565b60008161066d61086b856b033b2e3c9fd0803ce8000000610823565b60028561066756fe617574683a206e6f7420617574686f72697a6564000000000000000000000000a165627a7a7230582083486e77e9b4739da6b62358ffab248a86873ded49a9185f0c13438511f557b80029",
  "source": "/// vox.sol -- target price feed\n\n// Copyright (C) 2016, 2017  Nikolai Mushegian <nikolai@dapphub.com>\n// Copyright (C) 2016, 2017  Daniel Brockman <daniel@dapphub.com>\n// Copyright (C) 2017        Rain Break <rainbreak@riseup.net>\n\n// This program is free software: you can redistribute it and/or modify\n// it under the terms of the GNU General Public License as published by\n// the Free Software Foundation, either version 3 of the License, or\n// (at your option) any later version.\n\n// This program is distributed in the hope that it will be useful,\n// but WITHOUT ANY WARRANTY; without even the implied warranty of\n// MERCHANTABILITY or FITNESS FOR A PARTICULAR PURPOSE.  See the\n// GNU General Public License for more details.\n\n// You should have received a copy of the GNU General Public License\n// along with this program.  If not, see <http://www.gnu.org/licenses/>.\n\npragma solidity ^0.5.4;\n\nimport \"./DS/DSMath.sol\";\nimport \"./DS/DSAuth.sol\";\n\ncontract SaiVox is DSAuth, DSMath {\n    uint256  _par;\n    uint256  _way;\n\n    uint256  public  fix;\n    uint256  public  how;\n    uint256  public  tau;\n\n    constructor(uint par_) public {\n        _par = fix = par_;\n        _way = RAY;\n        tau  = era();\n    }\n\n    function era() public view returns (uint) {\n        return block.timestamp;\n    }\n\n    function mold(bytes32 param, uint val) public auth {\n        if (param == 'way') _way = val;\n    }\n\n    // Dai Target Price (ref per dai)\n    function par() public returns (uint) {\n        prod();\n        return _par;\n    }\n    function way() public returns (uint) {\n        prod();\n        return _way;\n    }\n\n    function tell(uint256 ray) public auth {\n        fix = ray;\n    }\n    function tune(uint256 ray) public auth {\n        how = ray;\n    }\n\n    function prod() public {\n        uint age = era() - tau;\n        if (age == 0) return;  // optimised\n        tau = era();\n\n        if (_way != RAY) _par = rmul(_par, rpow(_way, age));  // optimised\n\n        if (how == 0) return;  // optimised\n        int128 wag = int128(how * age);\n        _way = inj(prj(_way) + (fix < _par ? wag : -wag));\n    }\n\n    function inj(int128 x) internal pure returns (uint256) {\n        return x >= 0 ? uint256(x) + RAY\n            : rdiv(RAY, RAY + uint256(-x));\n    }\n    function prj(uint256 x) internal pure returns (int128) {\n        return x >= RAY ? int128(x - RAY)\n            : int128(RAY) - int128(rdiv(RAY, x));\n    }\n}\n",
  "sourcePath": "/home/amxx/Work/Argent/argent-contracts/contracts/test/maker/SaiVox.sol",
  "compiler": {
    "name": "solc",
    "version": "0.5.4+commit.9549d8ff.Emscripten.clang",
    "optimizer": true,
    "runs": 200
  },
  "schemaVersion": "2.2.4",
  "updatedAt": "2020-02-29T16:28:22.655Z"
}