{
  "contractName": "SimplePriceOracle",
  "abi": [
    {
      "constant": true,
      "inputs": [],
      "name": "isPriceOracle",
      "outputs": [
        {
          "name": "",
          "type": "bool"
        }
      ],
      "payable": false,
      "stateMutability": "view",
      "type": "function"
    },
    {
      "constant": true,
      "inputs": [
        {
          "name": "cToken",
          "type": "address"
        }
      ],
      "name": "getUnderlyingPrice",
      "outputs": [
        {
          "name": "",
          "type": "uint256"
        }
      ],
      "payable": false,
      "stateMutability": "view",
      "type": "function"
    },
    {
      "constant": false,
      "inputs": [
        {
          "name": "cToken",
          "type": "address"
        },
        {
          "name": "underlyingPriceMantissa",
          "type": "uint256"
        }
      ],
      "name": "setUnderlyingPrice",
      "outputs": [],
      "payable": false,
      "stateMutability": "nonpayable",
      "type": "function"
    },
    {
      "constant": true,
      "inputs": [
        {
          "name": "asset",
          "type": "address"
        }
      ],
      "name": "assetPrices",
      "outputs": [
        {
          "name": "",
          "type": "uint256"
        }
      ],
      "payable": false,
      "stateMutability": "view",
      "type": "function"
    }
  ],
  "bytecode": "0x608060405234801561001057600080fd5b5061025f806100206000396000f3fe608060405234801561001057600080fd5b506004361061004f5760e060020a6000350463127ffda081146100545780635e9a523c1461008257806366331bba146100ba578063fc57d4df146100d6575b600080fd5b6100806004803603604081101561006a57600080fd5b50600160a060020a0381351690602001356100fc565b005b6100a86004803603602081101561009857600080fd5b5035600160a060020a0316610186565b60408051918252519081900360200190f35b6100c26101a1565b604080519115158252519081900360200190f35b6100a8600480360360208110156100ec57600080fd5b5035600160a060020a03166101a6565b8060008084600160a060020a0316636f307dc36040518163ffffffff1660e060020a02815260040160206040518083038186803b15801561013c57600080fd5b505afa158015610150573d6000803e3d6000fd5b505050506040513d602081101561016657600080fd5b5051600160a060020a031681526020810191909152604001600020555050565b600160a060020a031660009081526020819052604090205490565b600181565b600080600083600160a060020a0316636f307dc36040518163ffffffff1660e060020a02815260040160206040518083038186803b1580156101e757600080fd5b505afa1580156101fb573d6000803e3d6000fd5b505050506040513d602081101561021157600080fd5b5051600160a060020a031681526020810191909152604001600020549291505056fea165627a7a723058206c5e5ce484a372093b20fa5f985ca36ad8ab79ecdd453eada846edf4870a15260029",
  "source": "pragma solidity ^0.5.4;\n\nimport \"./PriceOracle.sol\";\nimport \"./CErc20.sol\";\n\ncontract SimplePriceOracle is PriceOracle {\n    mapping(address => uint) prices;\n    bool public constant isPriceOracle = true;\n\n    function getUnderlyingPrice(CToken cToken) public view returns (uint) {\n        return prices[address(CErc20(address(cToken)).underlying())];\n    }\n\n    function setUnderlyingPrice(CToken cToken, uint underlyingPriceMantissa) public {\n        prices[address(CErc20(address(cToken)).underlying())] = underlyingPriceMantissa;\n    }\n\n    // v1 price oracle interface for use as backing of proxy\n    function assetPrices(address asset) external view returns (uint) {\n        return prices[asset];\n    }\n}\n",
  "sourcePath": "/home/amxx/Work/Argent/argent-contracts/contracts/test/compound/SimplePriceOracle.sol",
  "compiler": {
    "name": "solc",
    "version": "0.5.4+commit.9549d8ff.Emscripten.clang",
    "optimizer": true,
    "runs": 200
  },
  "schemaVersion": "2.2.4",
  "updatedAt": "2020-02-29T16:28:22.625Z"
}