{
  "contractName": "SimpleUpgrader",
  "abi": [
    {
      "constant": false,
      "inputs": [
        {
          "name": "_wallet",
          "type": "address"
        },
        {
          "name": "_module",
          "type": "address"
        }
      ],
      "name": "addModule",
      "outputs": [],
      "payable": false,
      "stateMutability": "nonpayable",
      "type": "function"
    },
    {
      "constant": false,
      "inputs": [
        {
          "name": "_token",
          "type": "address"
        }
      ],
      "name": "recoverToken",
      "outputs": [],
      "payable": false,
      "stateMutability": "nonpayable",
      "type": "function"
    },
    {
      "constant": true,
      "inputs": [
        {
          "name": "",
          "type": "uint256"
        }
      ],
      "name": "toDisable",
      "outputs": [
        {
          "name": "",
          "type": "address"
        }
      ],
      "payable": false,
      "stateMutability": "view",
      "type": "function"
    },
    {
      "constant": true,
      "inputs": [
        {
          "name": "",
          "type": "uint256"
        }
      ],
      "name": "toEnable",
      "outputs": [
        {
          "name": "",
          "type": "address"
        }
      ],
      "payable": false,
      "stateMutability": "view",
      "type": "function"
    },
    {
      "inputs": [
        {
          "name": "_registry",
          "type": "address"
        },
        {
          "name": "_toDisable",
          "type": "address[]"
        },
        {
          "name": "_toEnable",
          "type": "address[]"
        }
      ],
      "payable": false,
      "stateMutability": "nonpayable",
      "type": "constructor"
    },
    {
      "anonymous": false,
      "inputs": [
        {
          "indexed": false,
          "name": "name",
          "type": "bytes32"
        }
      ],
      "name": "ModuleCreated",
      "type": "event"
    },
    {
      "anonymous": false,
      "inputs": [
        {
          "indexed": false,
          "name": "wallet",
          "type": "address"
        }
      ],
      "name": "ModuleInitialised",
      "type": "event"
    },
    {
      "constant": false,
      "inputs": [
        {
          "name": "_wallet",
          "type": "address"
        }
      ],
      "name": "init",
      "outputs": [],
      "payable": false,
      "stateMutability": "nonpayable",
      "type": "function"
    }
  ],
  "bytecode": "0x608060405234801561001057600080fd5b506040516109a63803806109a68339810180604052606081101561003357600080fd5b81516020830180519193928301929164010000000081111561005457600080fd5b8201602081018481111561006757600080fd5b815185602082028301116401000000008211171561008457600080fd5b505092919060200180516401000000008111156100a057600080fd5b820160208101848111156100b357600080fd5b81518560208202830111640100000000821117156100d057600080fd5b505060008054600160a060020a038816600160a060020a0319918216178255600180549091169055604080517f53696d706c6555706772616465720000000000000000000000000000000000008082529151939650889550919350917f3019c8fc80239e3dff8f781212ae2004839c2cb61d6c70acd279ac65392145df9181900360200190a15050825161016c91506002906020850190610189565b508051610180906003906020840190610189565b50505050610215565b8280548282559060005260206000209081019282156101de579160200282015b828111156101de5782518254600160a060020a031916600160a060020a039091161782556020909201916001909101906101a9565b506101ea9291506101ee565b5090565b61021291905b808211156101ea578054600160a060020a03191681556001016101f4565b90565b610782806102246000396000f3fe608060405234801561001057600080fd5b506004361061005a5760e060020a600035046319ab453c811461005f5780635a1db8c4146100875780639be65a60146100b5578063c412967b146100db578063d0d603e114610114575b600080fd5b6100856004803603602081101561007557600080fd5b5035600160a060020a0316610131565b005b6100856004803603604081101561009d57600080fd5b50600160a060020a038135811691602001351661036e565b610085600480360360208110156100cb57600080fd5b5035600160a060020a031661053a565b6100f8600480360360208110156100f157600080fd5b503561066d565b60408051600160a060020a039092168252519081900360200190f35b6100f86004803603602081101561012a57600080fd5b5035610695565b8033600160a060020a038216146101a957604080517f08c379a000000000000000000000000000000000000000000000000000000000815260206004820152601960248201527f424d3a2063616c6c6572206d7573742062652077616c6c657400000000000000604482015290519081900360640190fd5b60005b60035481101561024a5782600160a060020a0316631f17732d6003838154811015156101d457fe5b60009182526020822001546040805160e060020a63ffffffff8616028152600160a060020a03909216600483015260016024830152516044808301939282900301818387803b15801561022657600080fd5b505af115801561023a573d6000803e3d6000fd5b5050600190920191506101ac9050565b5060005b6002548110156102ec5782600160a060020a0316631f17732d60028381548110151561027657fe5b60009182526020822001546040805160e060020a63ffffffff8616028152600160a060020a03909216600483015260248201839052516044808301939282900301818387803b1580156102c857600080fd5b505af11580156102dc573d6000803e3d6000fd5b50506001909201915061024e9050565b604080517f1f17732d0000000000000000000000000000000000000000000000000000000081523060048201526000602482018190529151600160a060020a03861692631f17732d926044808201939182900301818387803b15801561035157600080fd5b505af1158015610365573d6000803e3d6000fd5b50505050505050565b8161037981336106a3565b15156103d0576040517f08c379a000000000000000000000000000000000000000000000000000000000815260040180806020018281038252602e815260200180610729602e913960400191505060405180910390fd5b600054604080517f0bcd4ebb000000000000000000000000000000000000000000000000000000008152600160a060020a03858116600483015291519190921691630bcd4ebb916024808301926020929190829003018186803b15801561043657600080fd5b505afa15801561044a573d6000803e3d6000fd5b505050506040513d602081101561046057600080fd5b505115156104cf57604080517f08c379a000000000000000000000000000000000000000000000000000000000815260206004820152601c60248201527f424d3a206d6f64756c65206973206e6f74207265676973746572656400000000604482015290519081900360640190fd5b604080517f1f17732d000000000000000000000000000000000000000000000000000000008152600160a060020a03848116600483015260016024830152915191851691631f17732d9160448082019260009290919082900301818387803b15801561035157600080fd5b604080517f70a082310000000000000000000000000000000000000000000000000000000081523060048201529051600091600160a060020a038416916370a0823191602480820192602092909190829003018186803b15801561059d57600080fd5b505afa1580156105b1573d6000803e3d6000fd5b505050506040513d60208110156105c757600080fd5b505160008054604080517fa9059cbb000000000000000000000000000000000000000000000000000000008152600160a060020a0392831660048201526024810185905290519394509085169263a9059cbb92604480840193602093929083900390910190829087803b15801561063d57600080fd5b505af1158015610651573d6000803e3d6000fd5b505050506040513d602081101561066757600080fd5b50505050565b600280548290811061067b57fe5b600091825260209091200154600160a060020a0316905081565b600380548290811061067b57fe5b600081600160a060020a031683600160a060020a0316638da5cb5b6040518163ffffffff1660e060020a02815260040160206040518083038186803b1580156106eb57600080fd5b505afa1580156106ff573d6000803e3d6000fd5b505050506040513d602081101561071557600080fd5b5051600160a060020a031614939250505056fe424d3a206d73672e73656e646572206d75737420626520616e206f776e657220666f72207468652077616c6c6574a165627a7a72305820007d51b30fbccbdb6335027093dd64fe9dd148a91309bab77a39a7f8ac6648b40029",
  "source": "pragma solidity ^0.5.4;\n\nimport \"../modules/common/BaseModule.sol\";\n\n/**\n * @title SimpleUpgrader\n * @dev Temporary module used to add/remove other modules.\n * @author Olivier VDB - <olivier@argent.xyz>, Julien Niset - <julien@argent.im>\n */\ncontract SimpleUpgrader is BaseModule {\n\n    bytes32 constant NAME = \"SimpleUpgrader\";\n    address[] public toDisable;\n    address[] public toEnable;\n\n    // *************** Constructor ********************** //\n\n    constructor(\n        ModuleRegistry _registry,\n        address[] memory _toDisable,\n        address[] memory _toEnable\n    )\n        BaseModule(_registry, GuardianStorage(0), NAME)\n        public\n    {\n        toDisable = _toDisable;\n        toEnable = _toEnable;\n    }\n\n    // *************** External/Public Functions ********************* //\n\n    /**\n     * @dev Perform the upgrade for a wallet. This method gets called\n     * when SimpleUpgrader is temporarily added as a module.\n     * @param _wallet The target wallet.\n     */\n    function init(BaseWallet _wallet) public onlyWallet(_wallet) {\n        uint256 i = 0;\n        //add new modules\n        for(; i < toEnable.length; i++) {\n            BaseWallet(_wallet).authoriseModule(toEnable[i], true);\n        }\n        //remove old modules\n        for(i = 0; i < toDisable.length; i++) {\n            BaseWallet(_wallet).authoriseModule(toDisable[i], false);\n        }\n        // SimpleUpgrader did its job, we no longer need it as a module\n        BaseWallet(_wallet).authoriseModule(address(this), false);\n    }\n}",
  "sourcePath": "/home/amxx/Work/Argent/argent-contracts/contracts/upgrade/SimpleUpgrader.sol",
  "compiler": {
    "name": "solc",
    "version": "0.5.4+commit.9549d8ff.Emscripten.clang",
    "optimizer": true,
    "runs": 200
  },
  "schemaVersion": "2.2.4",
  "updatedAt": "2020-02-29T16:28:22.662Z"
}