{
  "contractName": "TestReverseRegistrar",
  "abi": [
    {
      "constant": true,
      "inputs": [],
      "name": "ens",
      "outputs": [
        {
          "name": "",
          "type": "address"
        }
      ],
      "payable": false,
      "stateMutability": "view",
      "type": "function"
    },
    {
      "constant": true,
      "inputs": [],
      "name": "defaultResolver",
      "outputs": [
        {
          "name": "",
          "type": "address"
        }
      ],
      "payable": false,
      "stateMutability": "view",
      "type": "function"
    },
    {
      "inputs": [
        {
          "name": "ensAddr",
          "type": "address"
        },
        {
          "name": "resolverAddr",
          "type": "address"
        }
      ],
      "payable": false,
      "stateMutability": "nonpayable",
      "type": "constructor"
    },
    {
      "constant": false,
      "inputs": [
        {
          "name": "owner",
          "type": "address"
        }
      ],
      "name": "claim",
      "outputs": [
        {
          "name": "",
          "type": "bytes32"
        }
      ],
      "payable": false,
      "stateMutability": "nonpayable",
      "type": "function"
    },
    {
      "constant": false,
      "inputs": [
        {
          "name": "owner",
          "type": "address"
        },
        {
          "name": "resolver",
          "type": "address"
        }
      ],
      "name": "claimWithResolver",
      "outputs": [
        {
          "name": "",
          "type": "bytes32"
        }
      ],
      "payable": false,
      "stateMutability": "nonpayable",
      "type": "function"
    },
    {
      "constant": false,
      "inputs": [
        {
          "name": "name",
          "type": "string"
        }
      ],
      "name": "setName",
      "outputs": [
        {
          "name": "node",
          "type": "bytes32"
        }
      ],
      "payable": false,
      "stateMutability": "nonpayable",
      "type": "function"
    },
    {
      "constant": false,
      "inputs": [
        {
          "name": "addr",
          "type": "address"
        }
      ],
      "name": "node",
      "outputs": [
        {
          "name": "ret",
          "type": "bytes32"
        }
      ],
      "payable": false,
      "stateMutability": "nonpayable",
      "type": "function"
    }
  ],
  "bytecode": "0x608060405234801561001057600080fd5b506040516040806108038339810180604052604081101561003057600080fd5b50805160209091015160008054600160a060020a03938416600160a060020a0319918216179091556001805493909216921691909117905561078c806100776000396000f3fe608060405234801561001057600080fd5b506004361061007e577c010000000000000000000000000000000000000000000000000000000060003504630f5a546681146100835780631e83409a146100c35780633f15457f146100e9578063828eab0e1461010d578063bffbe61c14610115578063c47f00271461013b575b600080fd5b6100b16004803603604081101561009957600080fd5b50600160a060020a03813581169160200135166101e1565b60408051918252519081900360200190f35b6100b1600480360360208110156100d957600080fd5b5035600160a060020a0316610551565b6100f1610564565b60408051600160a060020a039092168252519081900360200190f35b6100f1610573565b6100b16004803603602081101561012b57600080fd5b5035600160a060020a0316610582565b6100b16004803603602081101561015157600080fd5b81019060208101813564010000000081111561016c57600080fd5b82018360208201111561017e57600080fd5b803590602001918460018302840111640100000000831117156101a057600080fd5b91908080601f0160208091040260200160405190810160405280939291908181526020018383808284376000920191909152509295506105d0945050505050565b6000806101ed336106d9565b6040805160008051602061074183398151915260208083019190915281830184905282518083038401815260608301808552815191830191909120600080547f02571be30000000000000000000000000000000000000000000000000000000090935260648501829052945195965094600160a060020a03909116926302571be3926084808301939192829003018186803b15801561028b57600080fd5b505afa15801561029f573d6000803e3d6000fd5b505050506040513d60208110156102b557600080fd5b50519050600160a060020a0385161580159061036d5750600054604080517f0178b8bf000000000000000000000000000000000000000000000000000000008152600481018590529051600160a060020a0390921691630178b8bf91602480820192602092909190829003018186803b15801561033157600080fd5b505afa158015610345573d6000803e3d6000fd5b505050506040513d602081101561035b57600080fd5b5051600160a060020a03868116911614155b1561049d57600160a060020a03811630146104195760008054604080517f06ab59230000000000000000000000000000000000000000000000000000000081526000805160206107418339815191526004820152602481018790523060448201529051600160a060020a03909216926306ab59239260648084019382900301818387803b1580156103fd57600080fd5b505af1158015610411573d6000803e3d6000fd5b505050503090505b60008054604080517f1896f70a00000000000000000000000000000000000000000000000000000000815260048101869052600160a060020a03898116602483015291519190921692631896f70a926044808201939182900301818387803b15801561048457600080fd5b505af1158015610498573d6000803e3d6000fd5b505050505b600160a060020a03818116908716146105485760008054604080517f06ab5923000000000000000000000000000000000000000000000000000000008152600080516020610741833981519152600482015260248101879052600160a060020a038a81166044830152915191909216926306ab5923926064808201939182900301818387803b15801561052f57600080fd5b505af1158015610543573d6000803e3d6000fd5b505050505b50949350505050565b600061055e8260006101e1565b92915050565b600054600160a060020a031681565b600154600160a060020a031681565b600060008051602061074183398151915261059c836106d9565b6040516020018083815260200182815260200192505050604051602081830303815290604052805190602001209050919050565b6001546000906105ea903090600160a060020a03166101e1565b600154604080517f773722130000000000000000000000000000000000000000000000000000000081526004810184815260248201928352865160448301528651949550600160a060020a0390931693637737221393869388939192909160640190602085019080838360005b8381101561066f578181015183820152602001610657565b50505050905090810190601f16801561069c5780820380516001836020036101000a031916815260200191505b509350505050600060405180830381600087803b1580156106bc57600080fd5b505af11580156106d0573d6000803e3d6000fd5b50505050919050565b60007f303132333435363738396162636465660000000000000000000000000000000060285b60008111156107335760001901600f841682901a815360109093049260001901600f841682901a81536010840493506106ff565b505060286000209291505056fe91d1777781884d03a6757a803996e38de2a42967fb37eeaca72729271025a9e2a165627a7a723058202cd355ecd53289bec1cbc7d3cb1e6966bbaac429134fbc9006a3c81026289c150029",
  "source": "pragma solidity ^0.5.4;\nimport \"../ens/ENS.sol\";\n\n/**\n * ENS registry test contract.\n */\ncontract TestENSRegistry is ENSRegistry {\n\n    struct Record {\n        address owner;\n        address resolver;\n        uint64 ttl;\n    }\n\n    mapping(bytes32=>Record) records;\n\n    // Logged when the owner of a node assigns a new owner to a subnode.\n    event NewOwner(bytes32 indexed _node, bytes32 indexed _label, address _owner);\n\n    // Logged when the owner of a node transfers ownership to a new account.\n    event Transfer(bytes32 indexed _node, address _owner);\n\n    // Logged when the resolver for a node changes.\n    event NewResolver(bytes32 indexed _node, address _resolver);\n\n    // Logged when the TTL of a node changes\n    event NewTTL(bytes32 indexed _node, uint64 _ttl);\n\n    // Permits modifications only by the owner of the specified node.\n    modifier only_owner(bytes32 _node) {\n        require(records[_node].owner == msg.sender, \"ENSTest: this method needs to be called by the owner of the node\");\n        _;\n    }\n\n    /**\n     * Constructs a new ENS registrar.\n     */\n    constructor() public {\n        records[bytes32(0)].owner = msg.sender;\n    }\n\n    /**\n     * Returns the address that owns the specified node.\n     */\n    function owner(bytes32 _node) public view returns (address) {\n        return records[_node].owner;\n    }\n\n    /**\n     * Returns the address of the resolver for the specified node.\n     */\n    function resolver(bytes32 _node) public view returns (address) {\n        return records[_node].resolver;\n    }\n\n    /**\n     * Returns the TTL of a node, and any records associated with it.\n     */\n    function ttl(bytes32 _node) public view returns (uint64) {\n        return records[_node].ttl;\n    }\n\n    /**\n     * Transfers ownership of a node to a new address. May only be called by the current\n     * owner of the node.\n     * @param _node The node to transfer ownership of.\n     * @param _owner The address of the new owner.\n     */\n    function setOwner(bytes32 _node, address _owner) public only_owner(_node) {\n        emit Transfer(_node, _owner);\n        records[_node].owner = _owner;\n    }\n\n    /**\n     * Transfers ownership of a subnode sha3(node, label) to a new address. May only be\n     * called by the owner of the parent node.\n     * @param _node The parent node.\n     * @param _label The hash of the label specifying the subnode.\n     * @param _owner The address of the new owner.\n     */\n    function setSubnodeOwner(bytes32 _node, bytes32 _label, address _owner) public only_owner(_node) {\n        bytes32 subnode = keccak256(abi.encodePacked(_node, _label));\n        emit NewOwner(_node, _label, _owner);\n        records[subnode].owner = _owner;\n    }\n\n    /**\n     * Sets the resolver address for the specified node.\n     * @param _node The node to update.\n     * @param _resolver The address of the resolver.\n     */\n    function setResolver(bytes32 _node, address _resolver) public only_owner(_node) {\n        emit NewResolver(_node, _resolver);\n        records[_node].resolver = _resolver;\n    }\n\n    /**\n     * Sets the TTL for the specified node.\n     * @param _node The node to update.\n     * @param _ttl The TTL in seconds.\n     */\n    function setTTL(bytes32 _node, uint64 _ttl) public only_owner(_node) {\n        emit NewTTL(_node, _ttl);\n        records[_node].ttl = _ttl;\n    }\n}\n\n/**\n * ENS Reverse registrar test contract.\n */\ncontract TestReverseRegistrar is ENSReverseRegistrar {\n    // namehash('addr.reverse')\n    bytes32 constant ADDR_REVERSE_NODE = 0x91d1777781884d03a6757a803996e38de2a42967fb37eeaca72729271025a9e2;\n\n    ENSRegistry public ens;\n    ENSResolver public defaultResolver;\n\n    /**\n     * @dev Constructor\n     * @param ensAddr The address of the ENS registry.\n     * @param resolverAddr The address of the default reverse resolver.\n     */\n    constructor(address ensAddr, address resolverAddr) public {\n        ens = ENSRegistry(ensAddr);\n        defaultResolver = ENSResolver(resolverAddr);\n    }\n\n    /**\n     * @dev Transfers ownership of the reverse ENS record associated with the\n     *      calling account.\n     * @param owner The address to set as the owner of the reverse record in ENS.\n     * @return The ENS node hash of the reverse record.\n     */\n    function claim(address owner) public returns (bytes32) {\n        return claimWithResolver(owner, address(0));\n    }\n\n    /**\n     * @dev Transfers ownership of the reverse ENS record associated with the\n     *      calling account.\n     * @param owner The address to set as the owner of the reverse record in ENS.\n     * @param resolver The address of the resolver to set; 0 to leave unchanged.\n     * @return The ENS node hash of the reverse record.\n     */\n    function claimWithResolver(address owner, address resolver) public returns (bytes32) {\n        bytes32 label = sha3HexAddress(msg.sender);\n        bytes32 node = keccak256(abi.encodePacked(ADDR_REVERSE_NODE, label));\n        address currentOwner = ens.owner(node);\n\n        // Update the resolver if required\n        if(resolver != address(0) && resolver != address(ens.resolver(node))) {\n            // Transfer the name to us first if it's not already\n            if(currentOwner != address(this)) {\n                ens.setSubnodeOwner(ADDR_REVERSE_NODE, label, address(this));\n                currentOwner = address(this);\n            }\n            ens.setResolver(node, resolver);\n        }\n\n        // Update the owner if required\n        if(currentOwner != owner) {\n            ens.setSubnodeOwner(ADDR_REVERSE_NODE, label, owner);\n        }\n\n        return node;\n    }\n\n    /**\n     * @dev Sets the `name()` record for the reverse ENS record associated with\n     * the calling account. First updates the resolver to the default reverse\n     * resolver if necessary.\n     * @param name The name to set for this address.\n     * @return The ENS node hash of the reverse record.\n     */\n    function setName(string memory name) public returns (bytes32 node) {\n        node = claimWithResolver(address(this), address(defaultResolver));\n        defaultResolver.setName(node, name);\n        return node;\n    }\n\n    /**\n     * @dev Returns the node hash for a given account's reverse records.\n     * @param addr The address to hash\n     * @return The ENS node hash.\n     */\n    function node(address addr) public returns (bytes32 ret) {\n        return keccak256(abi.encodePacked(ADDR_REVERSE_NODE, sha3HexAddress(addr)));\n    }\n\n    /**\n     * @dev An optimised function to compute the sha3 of the lower-case\n     *      hexadecimal representation of an Ethereum address.\n     * @param addr The address to hash\n     * @return The SHA3 hash of the lower-case hexadecimal encoding of the\n     *         input address.\n     */\n    function sha3HexAddress(address addr) private returns (bytes32 ret) {\n        assembly {\n            let lookup := 0x3031323334353637383961626364656600000000000000000000000000000000\n            let i := 40\n\n            for { } gt(i, 0) { } {\n                i := sub(i, 1)\n                mstore8(i, byte(and(addr, 0xf), lookup))\n                addr := div(addr, 0x10)\n                i := sub(i, 1)\n                mstore8(i, byte(and(addr, 0xf), lookup))\n                addr := div(addr, 0x10)\n            }\n            ret := keccak256(0, 40)\n        }\n    }\n}\n",
  "sourcePath": "/home/amxx/Work/Argent/argent-contracts/contracts/test/ENSTest.sol",
  "compiler": {
    "name": "solc",
    "version": "0.5.4+commit.9549d8ff.Emscripten.clang",
    "optimizer": true,
    "runs": 200
  },
  "schemaVersion": "2.2.4",
  "updatedAt": "2020-02-29T16:28:22.581Z"
}