{
  "contractName": "TestModule",
  "abi": [
    {
      "constant": true,
      "inputs": [
        {
          "name": "_wallet",
          "type": "address"
        }
      ],
      "name": "getNonce",
      "outputs": [
        {
          "name": "nonce",
          "type": "uint256"
        }
      ],
      "payable": false,
      "stateMutability": "view",
      "type": "function"
    },
    {
      "constant": false,
      "inputs": [
        {
          "name": "_wallet",
          "type": "address"
        },
        {
          "name": "_module",
          "type": "address"
        }
      ],
      "name": "addModule",
      "outputs": [],
      "payable": false,
      "stateMutability": "nonpayable",
      "type": "function"
    },
    {
      "constant": false,
      "inputs": [
        {
          "name": "_token",
          "type": "address"
        }
      ],
      "name": "recoverToken",
      "outputs": [],
      "payable": false,
      "stateMutability": "nonpayable",
      "type": "function"
    },
    {
      "constant": false,
      "inputs": [
        {
          "name": "_wallet",
          "type": "address"
        },
        {
          "name": "_data",
          "type": "bytes"
        },
        {
          "name": "_nonce",
          "type": "uint256"
        },
        {
          "name": "_signatures",
          "type": "bytes"
        },
        {
          "name": "_gasPrice",
          "type": "uint256"
        },
        {
          "name": "_gasLimit",
          "type": "uint256"
        }
      ],
      "name": "execute",
      "outputs": [
        {
          "name": "success",
          "type": "bool"
        }
      ],
      "payable": false,
      "stateMutability": "nonpayable",
      "type": "function"
    },
    {
      "constant": true,
      "inputs": [
        {
          "name": "",
          "type": "address"
        }
      ],
      "name": "relayer",
      "outputs": [
        {
          "name": "nonce",
          "type": "uint256"
        }
      ],
      "payable": false,
      "stateMutability": "view",
      "type": "function"
    },
    {
      "inputs": [
        {
          "name": "_registry",
          "type": "address"
        },
        {
          "name": "_boolVal",
          "type": "bool"
        },
        {
          "name": "_uintVal",
          "type": "uint256"
        }
      ],
      "payable": false,
      "stateMutability": "nonpayable",
      "type": "constructor"
    },
    {
      "anonymous": false,
      "inputs": [
        {
          "indexed": true,
          "name": "wallet",
          "type": "address"
        },
        {
          "indexed": true,
          "name": "success",
          "type": "bool"
        },
        {
          "indexed": false,
          "name": "signedHash",
          "type": "bytes32"
        }
      ],
      "name": "TransactionExecuted",
      "type": "event"
    },
    {
      "anonymous": false,
      "inputs": [
        {
          "indexed": false,
          "name": "name",
          "type": "bytes32"
        }
      ],
      "name": "ModuleCreated",
      "type": "event"
    },
    {
      "anonymous": false,
      "inputs": [
        {
          "indexed": false,
          "name": "wallet",
          "type": "address"
        }
      ],
      "name": "ModuleInitialised",
      "type": "event"
    },
    {
      "constant": false,
      "inputs": [
        {
          "name": "_wallet",
          "type": "address"
        }
      ],
      "name": "init",
      "outputs": [],
      "payable": false,
      "stateMutability": "nonpayable",
      "type": "function"
    },
    {
      "constant": true,
      "inputs": [],
      "name": "getBoolean",
      "outputs": [
        {
          "name": "",
          "type": "bool"
        }
      ],
      "payable": false,
      "stateMutability": "view",
      "type": "function"
    },
    {
      "constant": true,
      "inputs": [],
      "name": "getUint",
      "outputs": [
        {
          "name": "",
          "type": "uint256"
        }
      ],
      "payable": false,
      "stateMutability": "view",
      "type": "function"
    },
    {
      "constant": true,
      "inputs": [
        {
          "name": "_addr",
          "type": "address"
        }
      ],
      "name": "getAddress",
      "outputs": [
        {
          "name": "",
          "type": "address"
        }
      ],
      "payable": false,
      "stateMutability": "view",
      "type": "function"
    }
  ],
  "bytecode": "0x608060405234801561001057600080fd5b506040516060806114a78339810180604052606081101561003057600080fd5b50805160208083015160409384015160008054600160a060020a038616600160a060020a031991821617825560018054909116905585517f546573744d6f64756c65000000000000000000000000000000000000000000008082529651959693959294879492937f3019c8fc80239e3dff8f781212ae2004839c2cb61d6c70acd279ac65392145df9281900390910190a150506003805460ff191693151593909317909255600455506113bd9050806100ea6000396000f3fe608060405234801561001057600080fd5b50600436106100af576000357c0100000000000000000000000000000000000000000000000000000000900480635a1db8c4116100835780635a1db8c4146101385780639be65a6014610166578063aacaaf881461018c578063ae22c57d14610268578063c9b5ef8e146102aa576100af565b80620267a4146100b457806319ab453c146100ce5780632d0335ab146100f65780632d1be94d1461011c575b600080fd5b6100bc6102d0565b60408051918252519081900360200190f35b6100f4600480360360208110156100e457600080fd5b5035600160a060020a03166102d6565b005b6100bc6004803603602081101561010c57600080fd5b5035600160a060020a0316610599565b6101246105b4565b604080519115158252519081900360200190f35b6100f46004803603604081101561014e57600080fd5b50600160a060020a03813581169160200135166105bd565b6100f46004803603602081101561017c57600080fd5b5035600160a060020a0316610778565b610124600480360360c08110156101a257600080fd5b600160a060020a0382351691908101906040810160208201356401000000008111156101cd57600080fd5b8201836020820111156101df57600080fd5b8035906020019184600183028401116401000000008311171561020157600080fd5b9193909282359260408101906020013564010000000081111561022357600080fd5b82018360208201111561023557600080fd5b8035906020019184600183028401116401000000008311171561025757600080fd5b9193509150803590602001356108ab565b61028e6004803603602081101561027e57600080fd5b5035600160a060020a0316610b89565b60408051600160a060020a039092168252519081900360200190f35b6100bc600480360360208110156102c057600080fd5b5035600160a060020a0316610b8c565b60045490565b8033600160a060020a03821614610337576040805160e560020a62461bcd02815260206004820152601960248201527f424d3a2063616c6c6572206d7573742062652077616c6c657400000000000000604482015290519081900360640190fd5b604080517f676574426f6f6c65616e282900000000000000000000000000000000000000008152815190819003600c0181207f13da30b20000000000000000000000000000000000000000000000000000000082523060048301527bffffffffffffffffffffffffffffffffffffffffffffffffffffffff191660248201529051600160a060020a038416916313da30b291604480830192600092919082900301818387803b1580156103e957600080fd5b505af11580156103fd573d6000803e3d6000fd5b5050604080517f67657455696e7428290000000000000000000000000000000000000000000000815281519081900360090181207f13da30b20000000000000000000000000000000000000000000000000000000082523060048301527bffffffffffffffffffffffffffffffffffffffffffffffffffffffff191660248201529051600160a060020a03861693506313da30b29250604480830192600092919082900301818387803b1580156104b357600080fd5b505af11580156104c7573d6000803e3d6000fd5b5050604080517f6765744164647265737328616464726573732900000000000000000000000000815281519081900360130181207f13da30b20000000000000000000000000000000000000000000000000000000082523060048301527bffffffffffffffffffffffffffffffffffffffffffffffffffffffff191660248201529051600160a060020a03861693506313da30b29250604480830192600092919082900301818387803b15801561057d57600080fd5b505af1158015610591573d6000803e3d6000fd5b505050505050565b600160a060020a031660009081526002602052604090205490565b60035460ff1690565b816105c88133610b9e565b15156106085760405160e560020a62461bcd02815260040180806020018281038252602e815260200180611364602e913960400191505060405180910390fd5b600054604080517f0bcd4ebb000000000000000000000000000000000000000000000000000000008152600160a060020a03858116600483015291519190921691630bcd4ebb916024808301926020929190829003018186803b15801561066e57600080fd5b505afa158015610682573d6000803e3d6000fd5b505050506040513d602081101561069857600080fd5b505115156106f0576040805160e560020a62461bcd02815260206004820152601c60248201527f424d3a206d6f64756c65206973206e6f74207265676973746572656400000000604482015290519081900360640190fd5b604080517f1f17732d000000000000000000000000000000000000000000000000000000008152600160a060020a03848116600483015260016024830152915191851691631f17732d9160448082019260009290919082900301818387803b15801561075b57600080fd5b505af115801561076f573d6000803e3d6000fd5b50505050505050565b604080517f70a082310000000000000000000000000000000000000000000000000000000081523060048201529051600091600160a060020a038416916370a0823191602480820192602092909190829003018186803b1580156107db57600080fd5b505afa1580156107ef573d6000803e3d6000fd5b505050506040513d602081101561080557600080fd5b505160008054604080517fa9059cbb000000000000000000000000000000000000000000000000000000008152600160a060020a0392831660048201526024810185905290519394509085169263a9059cbb92604480840193602093929083900390910190829087803b15801561087b57600080fd5b505af115801561088f573d6000803e3d6000fd5b505050506040513d60208110156108a557600080fd5b50505050565b6000805a905060006108fb308c60008d8d8080601f0160208091040260200160405190810160405280939291908181526020018383808284376000920191909152508f92508c91508b9050610c3e565b90506109088b8983610d81565b151561095e576040805160e560020a62461bcd02815260206004820152601560248201527f524d3a204475706c696361746520726571756573740000000000000000000000604482015290519081900360640190fd5b61099e8b8b8b8080601f016020809104026020016040519081016040528093929190818152602001838380828437600092019190915250610d9592505050565b15156109de5760405160e560020a62461bcd02815260040180806020018281038252604a81526020018061131a604a913960600191505060405180910390fd5b6000610a208c8c8c8080601f016020809104026020016040519081016040528093929190818152602001838380828437600092019190915250610e0992505050565b905060418102871415610b3857610a398c868884610e11565b15610b3857801580610abc5750610abc8c8c8c8080601f01602080910402602001604051908101604052809392919081815260200183838082843760009201919091525050604080516020601f8f018190048102820181019092528d815288935091508d908d9081908401838280828437600092019190915250610ee392505050565b15610b385730600160a060020a03168b8b604051808383808284376040519201945060009350909150508083038183865af19150503d8060008114610b1d576040519150601f19603f3d011682016040523d82523d6000602084013e610b22565b606091505b505080945050610b388c5a850388888533610f08565b60408051838152905185151591600160a060020a038f16917f6bb0b384ce772133df63560651bc8c727c53306cec1d51e2cbf8ea35fb8f2ec19181900360200190a350505098975050505050505050565b90565b60026020526000908152604090205481565b600081600160a060020a031683600160a060020a0316638da5cb5b6040518163ffffffff167c010000000000000000000000000000000000000000000000000000000002815260040160206040518083038186803b158015610bff57600080fd5b505afa158015610c13573d6000803e3d6000fd5b505050506040513d6020811015610c2957600080fd5b5051600160a060020a03161490505b92915050565b6040517f190000000000000000000000000000000000000000000000000000000000000060208083018281526000602185018190526c01000000000000000000000000600160a060020a03808e16820260228801528c16026036860152604a85018a90528851909485938d938d938d938d938d938d938d939192606a909201918701908083835b60208310610ce45780518252601f199092019160209182019101610cc5565b51815160209384036101000a600019018019909216911617905292019586525084810193909352506040808401919091528051808403820181526060840182528051908301207f19457468657265756d205369676e6564204d6573736167653a0a3332000000006080850152609c808501919091528151808503909101815260bc909301905281519101209e9d5050505050505050505050505050565b6000610d8d8484610f66565b949350505050565b60006024825110151515610df3576040805160e560020a62461bcd02815260206004820152601660248201527f524d3a20496e76616c6964206461746157616c6c657400000000000000000000604482015290519081900360640190fd5b5060240151600160a060020a0391821691161490565b600192915050565b60008083118015610e225750600182115b8015610ecb575082840285600160a060020a0316311080610ecb5750604080517fd6eb1bbf0000000000000000000000000000000000000000000000000000000081523060048201529051600160a060020a0387169163d6eb1bbf916024808301926020929190829003018186803b158015610e9d57600080fd5b505afa158015610eb1573d6000803e3d6000fd5b505050506040513d6020811015610ec757600080fd5b5051155b15610ed857506000610d8d565b506001949350505050565b600080610ef284846000610fec565b9050610efe8682610b9e565b9695505050505050565b61726c8501600085118015610f1d5750600183115b8015610f295750838111155b1561076f573a851115610f3d573a02610f40565b84025b610f5c8783836020604051908101604052806000815250611096565b5050505050505050565b600160a060020a0382166000908152600260205260408120548211610f8d57506000610c38565b7001000000000000000000000000000000006fffffffffffffffffffffffffffffffff198316044361271001811115610fca576000915050610c38565b5050600160a060020a0391909116600090815260026020526040902055600190565b6041808202830160208101516040820151919092015160009260ff9190911691601b83148061101e57508260ff16601c145b151561102957600080fd5b604080516000815260208082018084528a905260ff8616828401526060820185905260808201849052915160019260a0808401939192601f1981019281900390910190855afa158015611080573d6000803e3d6000fd5b5050604051601f19015198975050505050505050565b6060600085600160a060020a03168585856040516024018084600160a060020a0316600160a060020a0316815260200183815260200180602001828103825283818151815260200191508051906020019080838360005b838110156111055781810151838201526020016110ed565b50505050905090810190601f1680156111325780820380516001836020036101000a031916815260200191505b5060408051601f198184030181529181526020820180517bffffffffffffffffffffffffffffffffffffffffffffffffffffffff167f8f6f033200000000000000000000000000000000000000000000000000000000178152905182519297509550859450925090508083835b602083106111be5780518252601f19909201916020918201910161119f565b6001836020036101000a0380198251168184511680821785525050505050509050019150506000604051808303816000865af19150503d8060008114611220576040519150601f19603f3d011682016040523d82523d6000602084013e611225565b606091505b5092509050808015611238575060008251115b156112a55781806020019051602081101561125257600080fd5b81019080805164010000000081111561126a57600080fd5b8201602081018481111561127d57600080fd5b815164010000000081118282018710171561129757600080fd5b509095506113109350505050565b6000825111156112b9573d6000803e3d6000fd5b801515611310576040805160e560020a62461bcd02815260206004820152601a60248201527f424d3a2077616c6c657420696e766f6b65207265766572746564000000000000604482015290519081900360640190fd5b5094935050505056fe524d3a207468652077616c6c657420617574686f72697a656420697320646966666572656e74207468656e2074686520746172676574206f66207468652072656c617965642064617461424d3a206d73672e73656e646572206d75737420626520616e206f776e657220666f72207468652077616c6c6574a165627a7a72305820300cabb438d331c6e7dabb97e7655c63718b2d810482b7909688133462aaae1b0029",
  "source": "pragma solidity ^0.5.4;\nimport \"../../wallet/BaseWallet.sol\";\nimport \"../../modules/common/BaseModule.sol\";\nimport \"../../modules/common/RelayerModule.sol\";\n\n/**\n * @title TestModule\n * @dev Basic test module.\n * @author Julien Niset - <julien@argent.im>\n */\ncontract TestModule is BaseModule, RelayerModule {\n\n    bytes32 constant NAME = \"TestModule\";\n\n    bool boolVal;\n    uint uintVal;\n\n    constructor(ModuleRegistry _registry, bool _boolVal, uint _uintVal) BaseModule(_registry, GuardianStorage(0), NAME) public {\n        boolVal = _boolVal;\n        uintVal = _uintVal;\n    }\n\n    function init(BaseWallet _wallet) public onlyWallet(_wallet) {\n        _wallet.enableStaticCall(address(this), bytes4(keccak256(\"getBoolean()\")));\n        _wallet.enableStaticCall(address(this), bytes4(keccak256(\"getUint()\")));\n        _wallet.enableStaticCall(address(this), bytes4(keccak256(\"getAddress(address)\")));\n    }\n\n    function getBoolean() public view returns (bool) {\n        return boolVal;\n    }\n\n    function getUint() public view returns (uint) {\n        return uintVal;\n    }\n\n    function getAddress(address _addr) public view returns (address) {\n        return _addr;\n    }\n\n    // *************** Implementation of RelayerModule methods ********************* //\n\n    // Overrides to use the incremental nonce and save some gas\n    function checkAndUpdateUniqueness(BaseWallet _wallet, uint256 _nonce, bytes32 /* _signHash */) internal returns (bool) {\n        return checkAndUpdateNonce(_wallet, _nonce);\n    }\n\n    function validateSignatures(\n        BaseWallet _wallet,\n        bytes memory /* _data */,\n        bytes32 _signHash,\n        bytes memory _signatures\n    )\n        internal\n        view\n        returns (bool)\n    {\n        address signer = recoverSigner(_signHash, _signatures, 0);\n        return isOwner(_wallet, signer); // \"GM: signer must be owner\"\n    }\n\n    function getRequiredSignatures(BaseWallet /* _wallet */, bytes memory /*_data */) internal view returns (uint256) {\n        return 1;\n    }\n\n}",
  "sourcePath": "/home/amxx/Work/Argent/argent-contracts/contracts/test/modules/TestModule.sol",
  "compiler": {
    "name": "solc",
    "version": "0.5.4+commit.9549d8ff.Emscripten.clang",
    "optimizer": true,
    "runs": 200
  },
  "schemaVersion": "2.2.4",
  "updatedAt": "2020-02-29T16:28:22.660Z"
}