{
  "contractName": "TestERC20",
  "abi": [
    {
      "constant": true,
      "inputs": [],
      "name": "name",
      "outputs": [
        {
          "name": "",
          "type": "string"
        }
      ],
      "payable": false,
      "stateMutability": "view",
      "type": "function"
    },
    {
      "constant": false,
      "inputs": [
        {
          "name": "spender",
          "type": "address"
        },
        {
          "name": "value",
          "type": "uint256"
        }
      ],
      "name": "approve",
      "outputs": [
        {
          "name": "",
          "type": "bool"
        }
      ],
      "payable": false,
      "stateMutability": "nonpayable",
      "type": "function"
    },
    {
      "constant": true,
      "inputs": [],
      "name": "totalSupply",
      "outputs": [
        {
          "name": "",
          "type": "uint256"
        }
      ],
      "payable": false,
      "stateMutability": "view",
      "type": "function"
    },
    {
      "constant": false,
      "inputs": [
        {
          "name": "sender",
          "type": "address"
        },
        {
          "name": "recipient",
          "type": "address"
        },
        {
          "name": "amount",
          "type": "uint256"
        }
      ],
      "name": "transferFrom",
      "outputs": [
        {
          "name": "",
          "type": "bool"
        }
      ],
      "payable": false,
      "stateMutability": "nonpayable",
      "type": "function"
    },
    {
      "constant": true,
      "inputs": [],
      "name": "decimals",
      "outputs": [
        {
          "name": "",
          "type": "uint8"
        }
      ],
      "payable": false,
      "stateMutability": "view",
      "type": "function"
    },
    {
      "constant": false,
      "inputs": [
        {
          "name": "spender",
          "type": "address"
        },
        {
          "name": "addedValue",
          "type": "uint256"
        }
      ],
      "name": "increaseAllowance",
      "outputs": [
        {
          "name": "",
          "type": "bool"
        }
      ],
      "payable": false,
      "stateMutability": "nonpayable",
      "type": "function"
    },
    {
      "constant": true,
      "inputs": [
        {
          "name": "account",
          "type": "address"
        }
      ],
      "name": "balanceOf",
      "outputs": [
        {
          "name": "",
          "type": "uint256"
        }
      ],
      "payable": false,
      "stateMutability": "view",
      "type": "function"
    },
    {
      "constant": true,
      "inputs": [],
      "name": "symbol",
      "outputs": [
        {
          "name": "",
          "type": "string"
        }
      ],
      "payable": false,
      "stateMutability": "view",
      "type": "function"
    },
    {
      "constant": false,
      "inputs": [
        {
          "name": "spender",
          "type": "address"
        },
        {
          "name": "subtractedValue",
          "type": "uint256"
        }
      ],
      "name": "decreaseAllowance",
      "outputs": [
        {
          "name": "",
          "type": "bool"
        }
      ],
      "payable": false,
      "stateMutability": "nonpayable",
      "type": "function"
    },
    {
      "constant": false,
      "inputs": [
        {
          "name": "recipient",
          "type": "address"
        },
        {
          "name": "amount",
          "type": "uint256"
        }
      ],
      "name": "transfer",
      "outputs": [
        {
          "name": "",
          "type": "bool"
        }
      ],
      "payable": false,
      "stateMutability": "nonpayable",
      "type": "function"
    },
    {
      "constant": true,
      "inputs": [
        {
          "name": "owner",
          "type": "address"
        },
        {
          "name": "spender",
          "type": "address"
        }
      ],
      "name": "allowance",
      "outputs": [
        {
          "name": "",
          "type": "uint256"
        }
      ],
      "payable": false,
      "stateMutability": "view",
      "type": "function"
    },
    {
      "inputs": [
        {
          "name": "_initialAccounts",
          "type": "address[]"
        },
        {
          "name": "_supply",
          "type": "uint256"
        },
        {
          "name": "_decimals",
          "type": "uint8"
        }
      ],
      "payable": false,
      "stateMutability": "nonpayable",
      "type": "constructor"
    },
    {
      "anonymous": false,
      "inputs": [
        {
          "indexed": true,
          "name": "from",
          "type": "address"
        },
        {
          "indexed": true,
          "name": "to",
          "type": "address"
        },
        {
          "indexed": false,
          "name": "value",
          "type": "uint256"
        }
      ],
      "name": "Transfer",
      "type": "event"
    },
    {
      "anonymous": false,
      "inputs": [
        {
          "indexed": true,
          "name": "owner",
          "type": "address"
        },
        {
          "indexed": true,
          "name": "spender",
          "type": "address"
        },
        {
          "indexed": false,
          "name": "value",
          "type": "uint256"
        }
      ],
      "name": "Approval",
      "type": "event"
    },
    {
      "constant": false,
      "inputs": [
        {
          "name": "account",
          "type": "address"
        },
        {
          "name": "amount",
          "type": "uint256"
        }
      ],
      "name": "mint",
      "outputs": [],
      "payable": false,
      "stateMutability": "nonpayable",
      "type": "function"
    },
    {
      "constant": false,
      "inputs": [
        {
          "name": "account",
          "type": "address"
        },
        {
          "name": "amount",
          "type": "uint256"
        }
      ],
      "name": "burn",
      "outputs": [],
      "payable": false,
      "stateMutability": "nonpayable",
      "type": "function"
    },
    {
      "constant": false,
      "inputs": [
        {
          "name": "account",
          "type": "address"
        },
        {
          "name": "amount",
          "type": "uint256"
        }
      ],
      "name": "burnFrom",
      "outputs": [],
      "payable": false,
      "stateMutability": "nonpayable",
      "type": "function"
    }
  ],
  "bytecode": "0x608060405234801561001057600080fd5b50604051610e03380380610e038339810180604052606081101561003357600080fd5b81019080805164010000000081111561004b57600080fd5b8201602081018481111561005e57600080fd5b815185602082028301116401000000008211171561007b57600080fd5b505060208201516040909201516003805460ff191660ff831617905590935090915060005b83518110156100e9576100e184828151811015156100ba57fe5b906020019060200201518360ff16600a0a85026100f2640100000000026401000000009004565b6001016100a0565b50505050610287565b600160a060020a038216151561016957604080517f08c379a000000000000000000000000000000000000000000000000000000000815260206004820152601f60248201527f45524332303a206d696e7420746f20746865207a65726f206164647265737300604482015290519081900360640190fd5b600254610183908264010000000061081661020c82021704565b600255600160a060020a0382166000908152602081905260409020546101b6908264010000000061081661020c82021704565b600160a060020a0383166000818152602081815260408083209490945583518581529351929391927fddf252ad1be2c89b69c2b068fc378daa952ba7f163c4a11628f55a4df523b3ef9281900390910190a35050565b60008282018381101561028057604080517f08c379a000000000000000000000000000000000000000000000000000000000815260206004820152601b60248201527f536166654d6174683a206164646974696f6e206f766572666c6f770000000000604482015290519081900360640190fd5b9392505050565b610b6d806102966000396000f3fe608060405234801561001057600080fd5b5060043610610107576000357c01000000000000000000000000000000000000000000000000000000009004806370a08231116100a95780639dc29fac116100835780639dc29fac146102eb578063a457c2d714610317578063a9059cbb14610343578063dd62ed3e1461036f57610107565b806370a082311461029157806379cc6790146102b757806395d89b41146102e357610107565b806323b872dd116100e557806323b872dd146101e3578063313ce56714610219578063395093511461023757806340c10f191461026357610107565b806306fdde031461010c578063095ea7b31461018957806318160ddd146101c9575b600080fd5b61011461039d565b6040805160208082528351818301528351919283929083019185019080838360005b8381101561014e578181015183820152602001610136565b50505050905090810190601f16801561017b5780820380516001836020036101000a031916815260200191505b509250505060405180910390f35b6101b56004803603604081101561019f57600080fd5b50600160a060020a0381351690602001356103d4565b604080519115158252519081900360200190f35b6101d16103ea565b60408051918252519081900360200190f35b6101b5600480360360608110156101f957600080fd5b50600160a060020a038135811691602081013590911690604001356103f0565b610221610447565b6040805160ff9092168252519081900360200190f35b6101b56004803603604081101561024d57600080fd5b50600160a060020a038135169060200135610450565b61028f6004803603604081101561027957600080fd5b50600160a060020a03813516906020013561048c565b005b6101d1600480360360208110156102a757600080fd5b5035600160a060020a031661049a565b61028f600480360360408110156102cd57600080fd5b50600160a060020a0381351690602001356104b5565b6101146104bf565b61028f6004803603604081101561030157600080fd5b50600160a060020a0381351690602001356104f6565b6101b56004803603604081101561032d57600080fd5b50600160a060020a038135169060200135610500565b6101b56004803603604081101561035957600080fd5b50600160a060020a03813516906020013561053c565b6101d16004803603604081101561038557600080fd5b50600160a060020a0381358116916020013516610549565b60408051808201909152600b81527f417267656e74546f6b656e000000000000000000000000000000000000000000602082015281565b60006103e1338484610574565b50600192915050565b60025490565b60006103fd84848461066a565b600160a060020a03841660009081526001602090815260408083203380855292529091205461043d918691610438908663ffffffff6107b616565b610574565b5060019392505050565b60035460ff1681565b336000818152600160209081526040808320600160a060020a038716845290915281205490916103e1918590610438908663ffffffff61081616565b610496828261087a565b5050565b600160a060020a031660009081526020819052604090205490565b610496828261096f565b60408051808201909152600381527f4147540000000000000000000000000000000000000000000000000000000000602082015281565b61049682826109b4565b336000818152600160209081526040808320600160a060020a038716845290915281205490916103e1918590610438908663ffffffff6107b616565b60006103e133848461066a565b600160a060020a03918216600090815260016020908152604080832093909416825291909152205490565b600160a060020a03831615156105be5760405160e560020a62461bcd028152600401808060200182810382526024815260200180610b1e6024913960400191505060405180910390fd5b600160a060020a03821615156106085760405160e560020a62461bcd028152600401808060200182810382526022815260200180610ab66022913960400191505060405180910390fd5b600160a060020a03808416600081815260016020908152604080832094871680845294825291829020859055815185815291517f8c5be1e5ebec7d5bd14f71427d1e84f3dd0314c0f7b2291e5b200ac8c7c3b9259281900390910190a3505050565b600160a060020a03831615156106b45760405160e560020a62461bcd028152600401808060200182810382526025815260200180610af96025913960400191505060405180910390fd5b600160a060020a03821615156106fe5760405160e560020a62461bcd028152600401808060200182810382526023815260200180610a936023913960400191505060405180910390fd5b600160a060020a038316600090815260208190526040902054610727908263ffffffff6107b616565b600160a060020a03808516600090815260208190526040808220939093559084168152205461075c908263ffffffff61081616565b600160a060020a038084166000818152602081815260409182902094909455805185815290519193928716927fddf252ad1be2c89b69c2b068fc378daa952ba7f163c4a11628f55a4df523b3ef92918290030190a3505050565b600082821115610810576040805160e560020a62461bcd02815260206004820152601e60248201527f536166654d6174683a207375627472616374696f6e206f766572666c6f770000604482015290519081900360640190fd5b50900390565b600082820183811015610873576040805160e560020a62461bcd02815260206004820152601b60248201527f536166654d6174683a206164646974696f6e206f766572666c6f770000000000604482015290519081900360640190fd5b9392505050565b600160a060020a03821615156108da576040805160e560020a62461bcd02815260206004820152601f60248201527f45524332303a206d696e7420746f20746865207a65726f206164647265737300604482015290519081900360640190fd5b6002546108ed908263ffffffff61081616565b600255600160a060020a038216600090815260208190526040902054610919908263ffffffff61081616565b600160a060020a0383166000818152602081815260408083209490945583518581529351929391927fddf252ad1be2c89b69c2b068fc378daa952ba7f163c4a11628f55a4df523b3ef9281900390910190a35050565b61097982826109b4565b600160a060020a038216600090815260016020908152604080832033808552925290912054610496918491610438908563ffffffff6107b616565b600160a060020a03821615156109fe5760405160e560020a62461bcd028152600401808060200182810382526021815260200180610ad86021913960400191505060405180910390fd5b600254610a11908263ffffffff6107b616565b600255600160a060020a038216600090815260208190526040902054610a3d908263ffffffff6107b616565b600160a060020a038316600081815260208181526040808320949094558351858152935191937fddf252ad1be2c89b69c2b068fc378daa952ba7f163c4a11628f55a4df523b3ef929081900390910190a3505056fe45524332303a207472616e7366657220746f20746865207a65726f206164647265737345524332303a20617070726f766520746f20746865207a65726f206164647265737345524332303a206275726e2066726f6d20746865207a65726f206164647265737345524332303a207472616e736665722066726f6d20746865207a65726f206164647265737345524332303a20617070726f76652066726f6d20746865207a65726f2061646472657373a165627a7a723058203cad73d23421371d1cce3e71aaf3feb59774a7c6b202cca212eba25c2c05f94a0029",
  "source": "pragma solidity ^0.5.4;\n\nimport \"openzeppelin-solidity/contracts/token/ERC20/ERC20.sol\";\n\n/**\n * ERC20 test contract.\n */\ncontract TestERC20 is ERC20 {\n\n    string constant public symbol = \"AGT\";\n    string constant public name = \"ArgentToken\";\n    uint8 public decimals;\n\n    constructor (address[] memory _initialAccounts, uint _supply, uint8 _decimals) public {\n        decimals = _decimals;\n        for(uint i = 0; i < _initialAccounts.length; i++) {\n            _mint(_initialAccounts[i], _supply * 10**uint(_decimals));\n        }\n    }\n\n    function mint(address account, uint256 amount) public {\n        _mint(account, amount);\n    }\n\n    function burn(address account, uint256 amount) public {\n        _burn(account, amount);\n    }\n\n    function burnFrom(address account, uint256 amount) public {\n        _burnFrom(account, amount);\n    }\n}\n",
  "sourcePath": "/home/amxx/Work/Argent/argent-contracts/contracts/test/TestERC20.sol",
  "compiler": {
    "name": "solc",
    "version": "0.5.4+commit.9549d8ff.Emscripten.clang",
    "optimizer": true,
    "runs": 200
  },
  "schemaVersion": "2.2.4",
  "updatedAt": "2020-02-29T16:28:22.583Z"
}