{
  "contractName": "TestERC721",
  "abi": [
    {
      "constant": true,
      "inputs": [
        {
          "name": "interfaceId",
          "type": "bytes4"
        }
      ],
      "name": "supportsInterface",
      "outputs": [
        {
          "name": "",
          "type": "bool"
        }
      ],
      "payable": false,
      "stateMutability": "view",
      "type": "function"
    },
    {
      "constant": true,
      "inputs": [],
      "name": "name",
      "outputs": [
        {
          "name": "",
          "type": "string"
        }
      ],
      "payable": false,
      "stateMutability": "view",
      "type": "function"
    },
    {
      "constant": true,
      "inputs": [
        {
          "name": "tokenId",
          "type": "uint256"
        }
      ],
      "name": "getApproved",
      "outputs": [
        {
          "name": "",
          "type": "address"
        }
      ],
      "payable": false,
      "stateMutability": "view",
      "type": "function"
    },
    {
      "constant": false,
      "inputs": [
        {
          "name": "to",
          "type": "address"
        },
        {
          "name": "tokenId",
          "type": "uint256"
        }
      ],
      "name": "approve",
      "outputs": [],
      "payable": false,
      "stateMutability": "nonpayable",
      "type": "function"
    },
    {
      "constant": true,
      "inputs": [],
      "name": "totalSupply",
      "outputs": [
        {
          "name": "",
          "type": "uint256"
        }
      ],
      "payable": false,
      "stateMutability": "view",
      "type": "function"
    },
    {
      "constant": false,
      "inputs": [
        {
          "name": "from",
          "type": "address"
        },
        {
          "name": "to",
          "type": "address"
        },
        {
          "name": "tokenId",
          "type": "uint256"
        }
      ],
      "name": "transferFrom",
      "outputs": [],
      "payable": false,
      "stateMutability": "nonpayable",
      "type": "function"
    },
    {
      "constant": true,
      "inputs": [
        {
          "name": "owner",
          "type": "address"
        },
        {
          "name": "index",
          "type": "uint256"
        }
      ],
      "name": "tokenOfOwnerByIndex",
      "outputs": [
        {
          "name": "",
          "type": "uint256"
        }
      ],
      "payable": false,
      "stateMutability": "view",
      "type": "function"
    },
    {
      "constant": false,
      "inputs": [
        {
          "name": "to",
          "type": "address"
        },
        {
          "name": "tokenId",
          "type": "uint256"
        }
      ],
      "name": "mint",
      "outputs": [
        {
          "name": "",
          "type": "bool"
        }
      ],
      "payable": false,
      "stateMutability": "nonpayable",
      "type": "function"
    },
    {
      "constant": false,
      "inputs": [
        {
          "name": "from",
          "type": "address"
        },
        {
          "name": "to",
          "type": "address"
        },
        {
          "name": "tokenId",
          "type": "uint256"
        }
      ],
      "name": "safeTransferFrom",
      "outputs": [],
      "payable": false,
      "stateMutability": "nonpayable",
      "type": "function"
    },
    {
      "constant": true,
      "inputs": [
        {
          "name": "index",
          "type": "uint256"
        }
      ],
      "name": "tokenByIndex",
      "outputs": [
        {
          "name": "",
          "type": "uint256"
        }
      ],
      "payable": false,
      "stateMutability": "view",
      "type": "function"
    },
    {
      "constant": true,
      "inputs": [
        {
          "name": "tokenId",
          "type": "uint256"
        }
      ],
      "name": "ownerOf",
      "outputs": [
        {
          "name": "",
          "type": "address"
        }
      ],
      "payable": false,
      "stateMutability": "view",
      "type": "function"
    },
    {
      "constant": true,
      "inputs": [
        {
          "name": "owner",
          "type": "address"
        }
      ],
      "name": "balanceOf",
      "outputs": [
        {
          "name": "",
          "type": "uint256"
        }
      ],
      "payable": false,
      "stateMutability": "view",
      "type": "function"
    },
    {
      "constant": true,
      "inputs": [],
      "name": "symbol",
      "outputs": [
        {
          "name": "",
          "type": "string"
        }
      ],
      "payable": false,
      "stateMutability": "view",
      "type": "function"
    },
    {
      "constant": false,
      "inputs": [
        {
          "name": "account",
          "type": "address"
        }
      ],
      "name": "addMinter",
      "outputs": [],
      "payable": false,
      "stateMutability": "nonpayable",
      "type": "function"
    },
    {
      "constant": false,
      "inputs": [],
      "name": "renounceMinter",
      "outputs": [],
      "payable": false,
      "stateMutability": "nonpayable",
      "type": "function"
    },
    {
      "constant": false,
      "inputs": [
        {
          "name": "to",
          "type": "address"
        },
        {
          "name": "approved",
          "type": "bool"
        }
      ],
      "name": "setApprovalForAll",
      "outputs": [],
      "payable": false,
      "stateMutability": "nonpayable",
      "type": "function"
    },
    {
      "constant": true,
      "inputs": [
        {
          "name": "account",
          "type": "address"
        }
      ],
      "name": "isMinter",
      "outputs": [
        {
          "name": "",
          "type": "bool"
        }
      ],
      "payable": false,
      "stateMutability": "view",
      "type": "function"
    },
    {
      "constant": false,
      "inputs": [
        {
          "name": "from",
          "type": "address"
        },
        {
          "name": "to",
          "type": "address"
        },
        {
          "name": "tokenId",
          "type": "uint256"
        },
        {
          "name": "_data",
          "type": "bytes"
        }
      ],
      "name": "safeTransferFrom",
      "outputs": [],
      "payable": false,
      "stateMutability": "nonpayable",
      "type": "function"
    },
    {
      "constant": true,
      "inputs": [
        {
          "name": "tokenId",
          "type": "uint256"
        }
      ],
      "name": "tokenURI",
      "outputs": [
        {
          "name": "",
          "type": "string"
        }
      ],
      "payable": false,
      "stateMutability": "view",
      "type": "function"
    },
    {
      "constant": true,
      "inputs": [
        {
          "name": "owner",
          "type": "address"
        },
        {
          "name": "operator",
          "type": "address"
        }
      ],
      "name": "isApprovedForAll",
      "outputs": [
        {
          "name": "",
          "type": "bool"
        }
      ],
      "payable": false,
      "stateMutability": "view",
      "type": "function"
    },
    {
      "inputs": [],
      "payable": false,
      "stateMutability": "nonpayable",
      "type": "constructor"
    },
    {
      "anonymous": false,
      "inputs": [
        {
          "indexed": true,
          "name": "account",
          "type": "address"
        }
      ],
      "name": "MinterAdded",
      "type": "event"
    },
    {
      "anonymous": false,
      "inputs": [
        {
          "indexed": true,
          "name": "account",
          "type": "address"
        }
      ],
      "name": "MinterRemoved",
      "type": "event"
    },
    {
      "anonymous": false,
      "inputs": [
        {
          "indexed": true,
          "name": "from",
          "type": "address"
        },
        {
          "indexed": true,
          "name": "to",
          "type": "address"
        },
        {
          "indexed": true,
          "name": "tokenId",
          "type": "uint256"
        }
      ],
      "name": "Transfer",
      "type": "event"
    },
    {
      "anonymous": false,
      "inputs": [
        {
          "indexed": true,
          "name": "owner",
          "type": "address"
        },
        {
          "indexed": true,
          "name": "approved",
          "type": "address"
        },
        {
          "indexed": true,
          "name": "tokenId",
          "type": "uint256"
        }
      ],
      "name": "Approval",
      "type": "event"
    },
    {
      "anonymous": false,
      "inputs": [
        {
          "indexed": true,
          "name": "owner",
          "type": "address"
        },
        {
          "indexed": true,
          "name": "operator",
          "type": "address"
        },
        {
          "indexed": false,
          "name": "approved",
          "type": "bool"
        }
      ],
      "name": "ApprovalForAll",
      "type": "event"
    }
  ],
  "bytecode": "0x60806040523480156200001157600080fd5b50604080518082018252600e81527f417267656e74204b6974746965730000000000000000000000000000000000006020808301919091528251808401909352600483527f41474b540000000000000000000000000000000000000000000000000000000090830152908181620000b17f01ffc9a7000000000000000000000000000000000000000000000000000000006401000000006200019d810204565b620000e57f80ac58cd000000000000000000000000000000000000000000000000000000006401000000006200019d810204565b620001197f780e9d63000000000000000000000000000000000000000000000000000000006401000000006200019d810204565b81516200012e906009906020850190620003ea565b5080516200014490600a906020840190620003ea565b50620001797f5b5e139f000000000000000000000000000000000000000000000000000000006401000000006200019d810204565b5050505062000197336200026c640100000000026401000000009004565b6200048f565b7fffffffff0000000000000000000000000000000000000000000000000000000080821614156200022f57604080517f08c379a000000000000000000000000000000000000000000000000000000000815260206004820152601c60248201527f4552433136353a20696e76616c696420696e7465726661636520696400000000604482015290519081900360640190fd5b7fffffffff00000000000000000000000000000000000000000000000000000000166000908152602081905260409020805460ff19166001179055565b62000287600c82640100000000620014f1620002be82021704565b604051600160a060020a038216907f6ae172837ea30b801fbfcdd4108aa1d5bf8ff775444fd70256b44e6bf3dfc3f690600090a250565b620002d3828264010000000062000365810204565b156200034057604080517f08c379a000000000000000000000000000000000000000000000000000000000815260206004820152601f60248201527f526f6c65733a206163636f756e7420616c72656164792068617320726f6c6500604482015290519081900360640190fd5b600160a060020a0316600090815260209190915260409020805460ff19166001179055565b6000600160a060020a0382161515620003ca576040517f08c379a000000000000000000000000000000000000000000000000000000000815260040180806020018281038252602281526020018062001e666022913960400191505060405180910390fd5b50600160a060020a03166000908152602091909152604090205460ff1690565b828054600181600116156101000203166002900490600052602060002090601f016020900481019282601f106200042d57805160ff19168380011785556200045d565b828001600101855582156200045d579182015b828111156200045d57825182559160200191906001019062000440565b506200046b9291506200046f565b5090565b6200048c91905b808211156200046b576000815560010162000476565b90565b6119c7806200049f6000396000f3fe608060405234801561001057600080fd5b5060043610610149576000357c0100000000000000000000000000000000000000000000000000000000900480636352211e116100ca578063a22cb4651161008e578063a22cb465146103f6578063aa271e1a14610424578063b88d4fde1461044a578063c87b56dd14610510578063e985e9c51461052d57610149565b80636352211e1461037d57806370a082311461039a57806395d89b41146103c0578063983b2d56146103c857806398650275146103ee57610149565b806323b872dd1161011157806323b872dd1461029c5780632f745c59146102d257806340c10f19146102fe57806342842e0e1461032a5780634f6ccce71461036057610149565b806301ffc9a71461014e57806306fdde031461019e578063081812fc1461021b578063095ea7b31461025457806318160ddd14610282575b600080fd5b61018a6004803603602081101561016457600080fd5b50357bffffffffffffffffffffffffffffffffffffffffffffffffffffffff191661055b565b604080519115158252519081900360200190f35b6101a661058f565b6040805160208082528351818301528351919283929083019185019080838360005b838110156101e05781810151838201526020016101c8565b50505050905090810190601f16801561020d5780820380516001836020036101000a031916815260200191505b509250505060405180910390f35b6102386004803603602081101561023157600080fd5b5035610626565b60408051600160a060020a039092168252519081900360200190f35b6102806004803603604081101561026a57600080fd5b50600160a060020a03813516906020013561068d565b005b61028a6107ad565b60408051918252519081900360200190f35b610280600480360360608110156102b257600080fd5b50600160a060020a038135811691602081013590911690604001356107b3565b61028a600480360360408110156102e857600080fd5b50600160a060020a03813516906020013561080d565b61018a6004803603604081101561031457600080fd5b50600160a060020a03813516906020013561088f565b6102806004803603606081101561034057600080fd5b50600160a060020a038135811691602081013590911690604001356108ed565b61028a6004803603602081101561037657600080fd5b5035610909565b6102386004803603602081101561039357600080fd5b5035610973565b61028a600480360360208110156103b057600080fd5b5035600160a060020a03166109d2565b6101a6610a3f565b610280600480360360208110156103de57600080fd5b5035600160a060020a0316610aa0565b610280610af5565b6102806004803603604081101561040c57600080fd5b50600160a060020a0381351690602001351515610b00565b61018a6004803603602081101561043a57600080fd5b5035600160a060020a0316610bcf565b6102806004803603608081101561046057600080fd5b600160a060020a0382358116926020810135909116916040820135919081019060808101606082013564010000000081111561049b57600080fd5b8201836020820111156104ad57600080fd5b803590602001918460018302840111640100000000831117156104cf57600080fd5b91908080601f016020809104026020016040519081016040528093929190818152602001838380828437600092019190915250929550610be2945050505050565b6101a66004803603602081101561052657600080fd5b5035610c3f565b61018a6004803603604081101561054357600080fd5b50600160a060020a0381358116916020013516610d29565b7bffffffffffffffffffffffffffffffffffffffffffffffffffffffff191660009081526020819052604090205460ff1690565b60098054604080516020601f600260001961010060018816150201909516949094049384018190048102820181019092528281526060939092909183018282801561061b5780601f106105f05761010080835404028352916020019161061b565b820191906000526020600020905b8154815290600101906020018083116105fe57829003601f168201915b505050505090505b90565b600061063182610d57565b15156106715760405160e560020a62461bcd02815260040180806020018281038252602c815260200180611878602c913960400191505060405180910390fd5b50600090815260026020526040902054600160a060020a031690565b600061069882610973565b9050600160a060020a0383811690821614156106e85760405160e560020a62461bcd02815260040180806020018281038252602181526020018061191e6021913960400191505060405180910390fd5b33600160a060020a038216148061070457506107048133610d29565b15156107445760405160e560020a62461bcd02815260040180806020018281038252603881526020018061179c6038913960400191505060405180910390fd5b600082815260026020526040808220805473ffffffffffffffffffffffffffffffffffffffff1916600160a060020a0387811691821790925591518593918516917f8c5be1e5ebec7d5bd14f71427d1e84f3dd0314c0f7b2291e5b200ac8c7c3b92591a4505050565b60075490565b6107bd3382610d74565b15156107fd5760405160e560020a62461bcd02815260040180806020018281038252603181526020018061193f6031913960400191505060405180910390fd5b610808838383610e1d565b505050565b6000610818836109d2565b82106108585760405160e560020a62461bcd02815260040180806020018281038252602b8152602001806116ef602b913960400191505060405180910390fd5b600160a060020a038316600090815260056020526040902080548390811061087c57fe5b9060005260206000200154905092915050565b600061089a33610bcf565b15156108da5760405160e560020a62461bcd0281526004018080602001828103825260308152602001806118276030913960400191505060405180910390fd5b6108e48383610e3c565b50600192915050565b6108088383836020604051908101604052806000815250610be2565b60006109136107ad565b82106109535760405160e560020a62461bcd02815260040180806020018281038252602c815260200180611970602c913960400191505060405180910390fd5b600780548390811061096157fe5b90600052602060002001549050919050565b600081815260016020526040812054600160a060020a03168015156109cc5760405160e560020a62461bcd0281526004018080602001828103825260298152602001806117fe6029913960400191505060405180910390fd5b92915050565b6000600160a060020a0382161515610a1e5760405160e560020a62461bcd02815260040180806020018281038252602a8152602001806117d4602a913960400191505060405180910390fd5b600160a060020a03821660009081526003602052604090206109cc90610e5d565b600a8054604080516020601f600260001961010060018816150201909516949094049384018190048102820181019092528281526060939092909183018282801561061b5780601f106105f05761010080835404028352916020019161061b565b610aa933610bcf565b1515610ae95760405160e560020a62461bcd0281526004018080602001828103825260308152602001806118276030913960400191505060405180910390fd5b610af281610e61565b50565b610afe33610ea9565b565b600160a060020a038216331415610b61576040805160e560020a62461bcd02815260206004820152601960248201527f4552433732313a20617070726f766520746f2063616c6c657200000000000000604482015290519081900360640190fd5b336000818152600460209081526040808320600160a060020a03871680855290835292819020805460ff1916861515908117909155815190815290519293927f17307eab39ab6107e8899845ad3d59bd9653f200f220920489ca2b5937696c31929181900390910190a35050565b60006109cc600c8363ffffffff610ef116565b610bed8484846107b3565b610bf984848484610f5d565b1515610c395760405160e560020a62461bcd02815260040180806020018281038252603281526020018061171a6032913960400191505060405180910390fd5b50505050565b6060610c4a82610d57565b1515610c8a5760405160e560020a62461bcd02815260040180806020018281038252602f8152602001806118ef602f913960400191505060405180910390fd5b6000828152600b602090815260409182902080548351601f600260001961010060018616150201909316929092049182018490048402810184019094528084529091830182828015610d1d5780601f10610cf257610100808354040283529160200191610d1d565b820191906000526020600020905b815481529060010190602001808311610d0057829003601f168201915b50505050509050919050565b600160a060020a03918216600090815260046020908152604080832093909416825291909152205460ff1690565b600090815260016020526040902054600160a060020a0316151590565b6000610d7f82610d57565b1515610dbf5760405160e560020a62461bcd02815260040180806020018281038252602c815260200180611770602c913960400191505060405180910390fd5b6000610dca83610973565b905080600160a060020a031684600160a060020a03161480610e05575083600160a060020a0316610dfa84610626565b600160a060020a0316145b80610e155750610e158185610d29565b949350505050565b610e288383836110d9565b610e328382611232565b6108088282611329565b610e468282611367565b610e508282611329565b610e59816114ad565b5050565b5490565b610e72600c8263ffffffff6114f116565b604051600160a060020a038216907f6ae172837ea30b801fbfcdd4108aa1d5bf8ff775444fd70256b44e6bf3dfc3f690600090a250565b610eba600c8263ffffffff61157516565b604051600160a060020a038216907fe94479a9f7e1952cc78f2d6baab678adc1b772d936c6583def489e524cb6669290600090a250565b6000600160a060020a0382161515610f3d5760405160e560020a62461bcd0281526004018080602001828103825260228152602001806118a46022913960400191505060405180910390fd5b50600160a060020a03166000908152602091909152604090205460ff1690565b6000610f7184600160a060020a03166115e1565b1515610f7f57506001610e15565b6040517f150b7a020000000000000000000000000000000000000000000000000000000081523360048201818152600160a060020a03888116602485015260448401879052608060648501908152865160848601528651600095928a169463150b7a029490938c938b938b939260a4019060208501908083838e5b83811015611012578181015183820152602001610ffa565b50505050905090810190601f16801561103f5780820380516001836020036101000a031916815260200191505b5095505050505050602060405180830381600087803b15801561106157600080fd5b505af1158015611075573d6000803e3d6000fd5b505050506040513d602081101561108b57600080fd5b50517bffffffffffffffffffffffffffffffffffffffffffffffffffffffff19167f150b7a020000000000000000000000000000000000000000000000000000000014915050949350505050565b82600160a060020a03166110ec82610973565b600160a060020a0316146111345760405160e560020a62461bcd0281526004018080602001828103825260298152602001806118c66029913960400191505060405180910390fd5b600160a060020a038216151561117e5760405160e560020a62461bcd02815260040180806020018281038252602481526020018061174c6024913960400191505060405180910390fd5b611187816115e9565b600160a060020a03831660009081526003602052604090206111a890611631565b600160a060020a03821660009081526003602052604090206111c990611648565b600081815260016020526040808220805473ffffffffffffffffffffffffffffffffffffffff1916600160a060020a0386811691821790925591518493918716917fddf252ad1be2c89b69c2b068fc378daa952ba7f163c4a11628f55a4df523b3ef91a4505050565b600160a060020a03821660009081526005602052604081205461125c90600163ffffffff61165116565b6000838152600660205260409020549091508082146112f957600160a060020a038416600090815260056020526040812080548490811061129957fe5b90600052602060002001549050806005600087600160a060020a0316600160a060020a03168152602001908152602001600020838154811015156112d957fe5b600091825260208083209091019290925591825260069052604090208190555b600160a060020a03841660009081526005602052604090208054906113229060001983016116b1565b5050505050565b600160a060020a0390911660009081526005602081815260408084208054868652600684529185208290559282526001810183559183529091200155565b600160a060020a03821615156113c7576040805160e560020a62461bcd02815260206004820181905260248201527f4552433732313a206d696e7420746f20746865207a65726f2061646472657373604482015290519081900360640190fd5b6113d081610d57565b15611425576040805160e560020a62461bcd02815260206004820152601c60248201527f4552433732313a20746f6b656e20616c7265616479206d696e74656400000000604482015290519081900360640190fd5b6000818152600160209081526040808320805473ffffffffffffffffffffffffffffffffffffffff1916600160a060020a03871690811790915583526003909152902061147190611648565b6040518190600160a060020a038416906000907fddf252ad1be2c89b69c2b068fc378daa952ba7f163c4a11628f55a4df523b3ef908290a45050565b600780546000838152600860205260408120829055600182018355919091527fa66cc928b5edb82af9bd49922954155ab7b0942694bea4ce44661d9a8736c6880155565b6114fb8282610ef1565b15611550576040805160e560020a62461bcd02815260206004820152601f60248201527f526f6c65733a206163636f756e7420616c72656164792068617320726f6c6500604482015290519081900360640190fd5b600160a060020a0316600090815260209190915260409020805460ff19166001179055565b61157f8282610ef1565b15156115bf5760405160e560020a62461bcd0281526004018080602001828103825260218152602001806118576021913960400191505060405180910390fd5b600160a060020a0316600090815260209190915260409020805460ff19169055565b6000903b1190565b600081815260026020526040902054600160a060020a031615610af2576000908152600260205260409020805473ffffffffffffffffffffffffffffffffffffffff19169055565b805461164490600163ffffffff61165116565b9055565b80546001019055565b6000828211156116ab576040805160e560020a62461bcd02815260206004820152601e60248201527f536166654d6174683a207375627472616374696f6e206f766572666c6f770000604482015290519081900360640190fd5b50900390565b8154818355818111156108085760008381526020902061080891810190830161062391905b808211156116ea57600081556001016116d6565b509056fe455243373231456e756d657261626c653a206f776e657220696e646578206f7574206f6620626f756e64734552433732313a207472616e7366657220746f206e6f6e20455243373231526563656976657220696d706c656d656e7465724552433732313a207472616e7366657220746f20746865207a65726f20616464726573734552433732313a206f70657261746f7220717565727920666f72206e6f6e6578697374656e7420746f6b656e4552433732313a20617070726f76652063616c6c6572206973206e6f74206f776e6572206e6f7220617070726f76656420666f7220616c6c4552433732313a2062616c616e636520717565727920666f7220746865207a65726f20616464726573734552433732313a206f776e657220717565727920666f72206e6f6e6578697374656e7420746f6b656e4d696e746572526f6c653a2063616c6c657220646f6573206e6f74206861766520746865204d696e74657220726f6c65526f6c65733a206163636f756e7420646f6573206e6f74206861766520726f6c654552433732313a20617070726f76656420717565727920666f72206e6f6e6578697374656e7420746f6b656e526f6c65733a206163636f756e7420697320746865207a65726f20616464726573734552433732313a207472616e73666572206f6620746f6b656e2074686174206973206e6f74206f776e4552433732314d657461646174613a2055524920717565727920666f72206e6f6e6578697374656e7420746f6b656e4552433732313a20617070726f76616c20746f2063757272656e74206f776e65724552433732313a207472616e736665722063616c6c6572206973206e6f74206f776e6572206e6f7220617070726f766564455243373231456e756d657261626c653a20676c6f62616c20696e646578206f7574206f6620626f756e6473a165627a7a72305820a01deabec80d2ef32ee7b9c8714f554fabfd485ed19e56f327f662ff47a554e30029526f6c65733a206163636f756e7420697320746865207a65726f2061646472657373",
  "source": "pragma solidity ^0.5.4;\n\nimport \"openzeppelin-solidity/contracts/token/ERC721/ERC721Full.sol\";\nimport \"openzeppelin-solidity/contracts/token/ERC721/ERC721Mintable.sol\";\n\ncontract TestERC721 is ERC721Full, ERC721Mintable {\n    constructor() ERC721Full(\"Argent Kitties\", \"AGKT\") public {\n    }\n}\n",
  "sourcePath": "/home/amxx/Work/Argent/argent-contracts/contracts/test/TestERC721.sol",
  "compiler": {
    "name": "solc",
    "version": "0.5.4+commit.9549d8ff.Emscripten.clang",
    "optimizer": true,
    "runs": 200
  },
  "schemaVersion": "2.2.4",
  "updatedAt": "2020-02-29T16:28:22.584Z"
}