{
  "contractName": "TokenExchanger",
  "abi": [
    {
      "constant": false,
      "inputs": [
        {
          "name": "_wallet",
          "type": "address"
        }
      ],
      "name": "init",
      "outputs": [],
      "payable": false,
      "stateMutability": "nonpayable",
      "type": "function"
    },
    {
      "constant": true,
      "inputs": [
        {
          "name": "_wallet",
          "type": "address"
        }
      ],
      "name": "getNonce",
      "outputs": [
        {
          "name": "nonce",
          "type": "uint256"
        }
      ],
      "payable": false,
      "stateMutability": "view",
      "type": "function"
    },
    {
      "constant": true,
      "inputs": [],
      "name": "feeRatio",
      "outputs": [
        {
          "name": "",
          "type": "uint256"
        }
      ],
      "payable": false,
      "stateMutability": "view",
      "type": "function"
    },
    {
      "constant": false,
      "inputs": [
        {
          "name": "_wallet",
          "type": "address"
        },
        {
          "name": "_module",
          "type": "address"
        }
      ],
      "name": "addModule",
      "outputs": [],
      "payable": false,
      "stateMutability": "nonpayable",
      "type": "function"
    },
    {
      "constant": false,
      "inputs": [
        {
          "name": "_token",
          "type": "address"
        }
      ],
      "name": "recoverToken",
      "outputs": [],
      "payable": false,
      "stateMutability": "nonpayable",
      "type": "function"
    },
    {
      "constant": true,
      "inputs": [],
      "name": "kyber",
      "outputs": [
        {
          "name": "",
          "type": "address"
        }
      ],
      "payable": false,
      "stateMutability": "view",
      "type": "function"
    },
    {
      "constant": false,
      "inputs": [
        {
          "name": "_wallet",
          "type": "address"
        },
        {
          "name": "_data",
          "type": "bytes"
        },
        {
          "name": "_nonce",
          "type": "uint256"
        },
        {
          "name": "_signatures",
          "type": "bytes"
        },
        {
          "name": "_gasPrice",
          "type": "uint256"
        },
        {
          "name": "_gasLimit",
          "type": "uint256"
        }
      ],
      "name": "execute",
      "outputs": [
        {
          "name": "success",
          "type": "bool"
        }
      ],
      "payable": false,
      "stateMutability": "nonpayable",
      "type": "function"
    },
    {
      "constant": true,
      "inputs": [],
      "name": "feeCollector",
      "outputs": [
        {
          "name": "",
          "type": "address"
        }
      ],
      "payable": false,
      "stateMutability": "view",
      "type": "function"
    },
    {
      "constant": true,
      "inputs": [
        {
          "name": "",
          "type": "address"
        }
      ],
      "name": "relayer",
      "outputs": [
        {
          "name": "nonce",
          "type": "uint256"
        }
      ],
      "payable": false,
      "stateMutability": "view",
      "type": "function"
    },
    {
      "constant": true,
      "inputs": [],
      "name": "isOnlyOwnerModule",
      "outputs": [
        {
          "name": "",
          "type": "bytes4"
        }
      ],
      "payable": false,
      "stateMutability": "pure",
      "type": "function"
    },
    {
      "inputs": [
        {
          "name": "_registry",
          "type": "address"
        },
        {
          "name": "_guardianStorage",
          "type": "address"
        },
        {
          "name": "_kyber",
          "type": "address"
        },
        {
          "name": "_feeCollector",
          "type": "address"
        },
        {
          "name": "_feeRatio",
          "type": "uint256"
        }
      ],
      "payable": false,
      "stateMutability": "nonpayable",
      "type": "constructor"
    },
    {
      "anonymous": false,
      "inputs": [
        {
          "indexed": true,
          "name": "wallet",
          "type": "address"
        },
        {
          "indexed": false,
          "name": "srcToken",
          "type": "address"
        },
        {
          "indexed": false,
          "name": "srcAmount",
          "type": "uint256"
        },
        {
          "indexed": false,
          "name": "destToken",
          "type": "address"
        },
        {
          "indexed": false,
          "name": "destAmount",
          "type": "uint256"
        }
      ],
      "name": "TokenExchanged",
      "type": "event"
    },
    {
      "anonymous": false,
      "inputs": [
        {
          "indexed": true,
          "name": "wallet",
          "type": "address"
        },
        {
          "indexed": true,
          "name": "success",
          "type": "bool"
        },
        {
          "indexed": false,
          "name": "signedHash",
          "type": "bytes32"
        }
      ],
      "name": "TransactionExecuted",
      "type": "event"
    },
    {
      "anonymous": false,
      "inputs": [
        {
          "indexed": false,
          "name": "name",
          "type": "bytes32"
        }
      ],
      "name": "ModuleCreated",
      "type": "event"
    },
    {
      "anonymous": false,
      "inputs": [
        {
          "indexed": false,
          "name": "wallet",
          "type": "address"
        }
      ],
      "name": "ModuleInitialised",
      "type": "event"
    },
    {
      "constant": false,
      "inputs": [
        {
          "name": "_wallet",
          "type": "address"
        },
        {
          "name": "_srcToken",
          "type": "address"
        },
        {
          "name": "_srcAmount",
          "type": "uint256"
        },
        {
          "name": "_destToken",
          "type": "address"
        },
        {
          "name": "_maxDestAmount",
          "type": "uint256"
        },
        {
          "name": "_minConversionRate",
          "type": "uint256"
        }
      ],
      "name": "trade",
      "outputs": [
        {
          "name": "",
          "type": "uint256"
        }
      ],
      "payable": false,
      "stateMutability": "nonpayable",
      "type": "function"
    },
    {
      "constant": true,
      "inputs": [
        {
          "name": "_srcToken",
          "type": "address"
        },
        {
          "name": "_destToken",
          "type": "address"
        },
        {
          "name": "_srcAmount",
          "type": "uint256"
        }
      ],
      "name": "getExpectedTrade",
      "outputs": [
        {
          "name": "_destAmount",
          "type": "uint256"
        },
        {
          "name": "_fee",
          "type": "uint256"
        },
        {
          "name": "_expectedRate",
          "type": "uint256"
        }
      ],
      "payable": false,
      "stateMutability": "view",
      "type": "function"
    }
  ],
  "bytecode": "0x608060405234801561001057600080fd5b5060405160a080611c97833981018060405260a081101561003057600080fd5b508051602080830151604080850151606086015160809096015160008054600160a060020a03808916600160a060020a031992831617909255600180549287169290911691909117905582517f546f6b656e45786368616e676572000000000000000000000000000000000000808252935196979496929591938893889391927f3019c8fc80239e3dff8f781212ae2004839c2cb61d6c70acd279ac65392145df92908290030190a1505060038054600160a060020a03958616600160a060020a0319918216179091556004805494909516931692909217909255506005555050611b77806101206000396000f3fe608060405234801561001057600080fd5b50600436106100b85760003560e060020a900480639be65a60116100755780639be65a60146101f1578063a2d10ba514610217578063aacaaf881461023b578063c415b95c1461032b578063c9b5ef8e14610333578063d490da4d14610359576100b8565b806319ab453c146100bd5780632d0335ab146100e55780632d8da11a1461011d57806341744dd4146101675780635a1db8c41461016f5780636b5ad7231461019d575b600080fd5b6100e3600480360360208110156100d357600080fd5b5035600160a060020a0316610396565b005b61010b600480360360208110156100fb57600080fd5b5035600160a060020a0316610437565b60408051918252519081900360200190f35b61010b600480360360c081101561013357600080fd5b50600160a060020a038135811691602081013582169160408201359160608101359091169060808101359060a00135610452565b61010b6109d5565b6100e36004803603604081101561018557600080fd5b50600160a060020a03813581169160200135166109db565b6101d3600480360360608110156101b357600080fd5b50600160a060020a03813581169160208101359091169060400135610b9f565b60408051938452602084019290925282820152519081900360600190f35b6100e36004803603602081101561020757600080fd5b5035600160a060020a0316610e90565b61021f610fc3565b60408051600160a060020a039092168252519081900360200190f35b610317600480360360c081101561025157600080fd5b600160a060020a03823516919081019060408101602082013564010000000081111561027c57600080fd5b82018360208201111561028e57600080fd5b803590602001918460018302840111640100000000831117156102b057600080fd5b919390928235926040810190602001356401000000008111156102d257600080fd5b8201836020820111156102e457600080fd5b8035906020019184600183028401116401000000008311171561030657600080fd5b919350915080359060200135610fd2565b604080519115158252519081900360200190f35b61021f6112b0565b61010b6004803603602081101561034957600080fd5b5035600160a060020a03166112bf565b6103616112d1565b604080517fffffffff000000000000000000000000000000000000000000000000000000009092168252519081900360200190f35b8033600160a060020a038216146103f7576040805160e560020a62461bcd02815260206004820152601960248201527f424d3a2063616c6c6572206d7573742062652077616c6c657400000000000000604482015290519081900360640190fd5b60408051600160a060020a038416815290517f9fcca3f73f85397e2bf03647abf243c20b753bd54463ff3cae74de2971c112fa9181900360200190a15050565b600160a060020a031660009081526002602052604090205490565b60008633301480610468575061046881336112f5565b15156104a85760405160e560020a62461bcd028152600401808060200182810382526023815260200180611b296023913960400191505060405180910390fd5b600154604080517f4a4fbeec000000000000000000000000000000000000000000000000000000008152600160a060020a03808c16600483015291518b939290921691634a4fbeec91602480820192602092909190829003018186803b15801561051157600080fd5b505afa158015610525573d6000803e3d6000fd5b505050506040513d602081101561053b57600080fd5b505115610592576040805160e560020a62461bcd02815260206004820152601b60248201527f424d3a2077616c6c6574206d75737420626520756e6c6f636b65640000000000604482015290519081900360640190fd5b6060600160a060020a03891673eeeeeeeeeeeeeeeeeeeeeeeeeeeeeeeeeeeeeeee14806105db5750600160a060020a03871673eeeeeeeeeeeeeeeeeeeeeeeeeeeeeeeeeeeeeeee145b151561061b5760405160e560020a62461bcd028152600401808060200182810382526025815260200180611b046025913960400191505060405180910390fd5b6000806106298b8a8c610b9f565b50915091508782111561065c576106568261064a838b63ffffffff61137c16565b9063ffffffff6113ae16565b90508791505b600160a060020a038b1673eeeeeeeeeeeeeeeeeeeeeeeeeeeeeeeeeeeeeeee14156107b05760006106938b8363ffffffff6113d216565b90508b818b8f8c8c600460009054906101000a9004600160a060020a03166040516024018088600160a060020a0316600160a060020a0316815260200187815260200186600160a060020a0316600160a060020a0316815260200185600160a060020a0316600160a060020a0316815260200184815260200183815260200182600160a060020a0316600160a060020a031681526020019750505050505050506040516020818303038152906040527fcb3c28c700000000000000000000000000000000000000000000000000000000600160e060020a031916602082018051600160e060020a03838183161783525050505093506107a98d600360009054906101000a9004600160a060020a031683876113e7565b505061093a565b60035460408051600160a060020a03909216602483015260448083018d90528151808403909101815260649092019052602081018051600160e060020a03167f095ea7b30000000000000000000000000000000000000000000000000000000017905292506108228c8c6000866113e7565b508a8a8a8e8b8b600460009054906101000a9004600160a060020a03166040516024018088600160a060020a0316600160a060020a0316815260200187815260200186600160a060020a0316600160a060020a0316815260200185600160a060020a0316600160a060020a0316815260200184815260200183815260200182600160a060020a0316600160a060020a031681526020019750505050505050506040516020818303038152906040527fcb3c28c700000000000000000000000000000000000000000000000000000000600160e060020a031916602082018051600160e060020a03838183161783525050505092506109388c600360009054906101000a9004600160a060020a03166000866113e7565b505b60008111156109705760045460408051602081019091526000815261096e918e91600160a060020a039091169084906113e7565b505b60408051600160a060020a038d81168252602082018d90528b811682840152606082018590529151918e16917fc8082d818d67bbb0b463bdaa897d7363157a1425f6b077691285ac6ca82b60b19181900360800190a2509a9950505050505050505050565b60055481565b81333014806109ef57506109ef81336112f5565b1515610a2f5760405160e560020a62461bcd028152600401808060200182810382526023815260200180611b296023913960400191505060405180910390fd5b600054604080517f0bcd4ebb000000000000000000000000000000000000000000000000000000008152600160a060020a03858116600483015291519190921691630bcd4ebb916024808301926020929190829003018186803b158015610a9557600080fd5b505afa158015610aa9573d6000803e3d6000fd5b505050506040513d6020811015610abf57600080fd5b50511515610b17576040805160e560020a62461bcd02815260206004820152601c60248201527f424d3a206d6f64756c65206973206e6f74207265676973746572656400000000604482015290519081900360640190fd5b604080517f1f17732d000000000000000000000000000000000000000000000000000000008152600160a060020a03848116600483015260016024830152915191851691631f17732d9160448082019260009290919082900301818387803b158015610b8257600080fd5b505af1158015610b96573d6000803e3d6000fd5b50505050505050565b60008080600160a060020a03861673eeeeeeeeeeeeeeeeeeeeeeeeeeeeeeeeeeeeeeee1415610d3157610bd184611655565b600354909250600160a060020a031663809a9e558787610bf7888763ffffffff6113d216565b6040805160e060020a63ffffffff8716028152600160a060020a0394851660048201529290931660248301526044820152815160648083019392829003018186803b158015610c4557600080fd5b505afa158015610c59573d6000803e3d6000fd5b505050506040513d6040811015610c6f57600080fd5b5051604080517f313ce5670000000000000000000000000000000000000000000000000000000081529051919250600091600160a060020a0388169163313ce567916004808301926020929190829003018186803b158015610cd057600080fd5b505afa158015610ce4573d6000803e3d6000fd5b505050506040513d6020811015610cfa57600080fd5b50519050610d296024829003600a0a61064a610d1c888763ffffffff6113d216565b859063ffffffff61137c16565b935050610e87565b600354604080517f809a9e55000000000000000000000000000000000000000000000000000000008152600160a060020a038981166004830152888116602483015260448201889052825193169263809a9e5592606480840193919291829003018186803b158015610da257600080fd5b505afa158015610db6573d6000803e3d6000fd5b505050506040513d6040811015610dcc57600080fd5b5051604080517f313ce5670000000000000000000000000000000000000000000000000000000081529051919250600091600160a060020a0389169163313ce567916004808301926020929190829003018186803b158015610e2d57600080fd5b505afa158015610e41573d6000803e3d6000fd5b505050506040513d6020811015610e5757600080fd5b50519050610e73600a82900a61064a848863ffffffff61137c16565b9350610e7e84611655565b92508284039350505b93509350939050565b604080517f70a082310000000000000000000000000000000000000000000000000000000081523060048201529051600091600160a060020a038416916370a0823191602480820192602092909190829003018186803b158015610ef357600080fd5b505afa158015610f07573d6000803e3d6000fd5b505050506040513d6020811015610f1d57600080fd5b505160008054604080517fa9059cbb000000000000000000000000000000000000000000000000000000008152600160a060020a0392831660048201526024810185905290519394509085169263a9059cbb92604480840193602093929083900390910190829087803b158015610f9357600080fd5b505af1158015610fa7573d6000803e3d6000fd5b505050506040513d6020811015610fbd57600080fd5b50505050565b600354600160a060020a031681565b6000805a90506000611022308c60008d8d8080601f0160208091040260200160405190810160405280939291908181526020018383808284376000920191909152508f92508c91508b9050611661565b905061102f8b89836117a4565b1515611085576040805160e560020a62461bcd02815260206004820152601560248201527f524d3a204475706c696361746520726571756573740000000000000000000000604482015290519081900360640190fd5b6110c58b8b8b8080601f0160208091040260200160405190810160405280939291908181526020018383808284376000920191909152506117b892505050565b15156111055760405160e560020a62461bcd02815260040180806020018281038252604a815260200180611aba604a913960600191505060405180910390fd5b60006111478c8c8c8080601f01602080910402602001604051908101604052809392919081815260200183838082843760009201919091525061182c92505050565b90506041810287141561125f576111608c868884611834565b1561125f578015806111e357506111e38c8c8c8080601f01602080910402602001604051908101604052809392919081815260200183838082843760009201919091525050604080516020601f8f018190048102820181019092528d815288935091508d908d908190840183828082843760009201919091525061190692505050565b1561125f5730600160a060020a03168b8b604051808383808284376040519201945060009350909150508083038183865af19150503d8060008114611244576040519150601f19603f3d011682016040523d82523d6000602084013e611249565b606091505b50508094505061125f8c5a85038888853361192b565b60408051838152905185151591600160a060020a038f16917f6bb0b384ce772133df63560651bc8c727c53306cec1d51e2cbf8ea35fb8f2ec19181900360200190a350505098975050505050505050565b600454600160a060020a031681565b60026020526000908152604090205481565b7fd490da4d0000000000000000000000000000000000000000000000000000000090565b600081600160a060020a031683600160a060020a0316638da5cb5b6040518163ffffffff1660e060020a02815260040160206040518083038186803b15801561133d57600080fd5b505afa158015611351573d6000803e3d6000fd5b505050506040513d602081101561136757600080fd5b5051600160a060020a03161490505b92915050565b600082151561138d57506000611376565b82820282848281151561139c57fe5b04146113a757600080fd5b9392505050565b60008082116113bc57600080fd5b600082848115156113c957fe5b04949350505050565b6000828211156113e157600080fd5b50900390565b6060600085600160a060020a03168585856040516024018084600160a060020a0316600160a060020a0316815260200183815260200180602001828103825283818151815260200191508051906020019080838360005b8381101561145657818101518382015260200161143e565b50505050905090810190601f1680156114835780820380516001836020036101000a031916815260200191505b5060408051601f19818403018152918152602082018051600160e060020a03167f8f6f033200000000000000000000000000000000000000000000000000000000178152905182519297509550859450925090508083835b602083106114fa5780518252601f1990920191602091820191016114db565b6001836020036101000a0380198251168184511680821785525050505050509050019150506000604051808303816000865af19150503d806000811461155c576040519150601f19603f3d011682016040523d82523d6000602084013e611561565b606091505b5092509050808015611574575060008251115b156115e15781806020019051602081101561158e57600080fd5b8101908080516401000000008111156115a657600080fd5b820160208101848111156115b957600080fd5b81516401000000008111828201871017156115d357600080fd5b5090955061164c9350505050565b6000825111156115f5573d6000803e3d6000fd5b80151561164c576040805160e560020a62461bcd02815260206004820152601a60248201527f424d3a2077616c6c657420696e766f6b65207265766572746564000000000000604482015290519081900360640190fd5b50949350505050565b60055461271091020490565b6040517f190000000000000000000000000000000000000000000000000000000000000060208083018281526000602185018190526c01000000000000000000000000600160a060020a03808e16820260228801528c16026036860152604a85018a90528851909485938d938d938d938d938d938d938d939192606a909201918701908083835b602083106117075780518252601f1990920191602091820191016116e8565b51815160209384036101000a600019018019909216911617905292019586525084810193909352506040808401919091528051808403820181526060840182528051908301207f19457468657265756d205369676e6564204d6573736167653a0a3332000000006080850152609c808501919091528151808503909101815260bc909301905281519101209e9d5050505050505050505050505050565b60006117b08484611989565b949350505050565b60006024825110151515611816576040805160e560020a62461bcd02815260206004820152601660248201527f524d3a20496e76616c6964206461746157616c6c657400000000000000000000604482015290519081900360640190fd5b5060240151600160a060020a0391821691161490565b600192915050565b600080831180156118455750600182115b80156118ee575082840285600160a060020a03163110806118ee5750604080517fd6eb1bbf0000000000000000000000000000000000000000000000000000000081523060048201529051600160a060020a0387169163d6eb1bbf916024808301926020929190829003018186803b1580156118c057600080fd5b505afa1580156118d4573d6000803e3d6000fd5b505050506040513d60208110156118ea57600080fd5b5051155b156118fb575060006117b0565b506001949350505050565b60008061191584846000611a0f565b905061192186826112f5565b9695505050505050565b61726c85016000851180156119405750600183115b801561194c5750838111155b15610b96573a851115611960573a02611963565b84025b61197f87838360206040519081016040528060008152506113e7565b5050505050505050565b600160a060020a03821660009081526002602052604081205482116119b057506000611376565b7001000000000000000000000000000000006fffffffffffffffffffffffffffffffff1983160443612710018111156119ed576000915050611376565b5050600160a060020a0391909116600090815260026020526040902055600190565b6041808202830160208101516040820151919092015160009260ff9190911691601b831480611a4157508260ff16601c145b1515611a4c57600080fd5b604080516000815260208082018084528a905260ff8616828401526060820185905260808201849052915160019260a0808401939192601f1981019281900390910190855afa158015611aa3573d6000803e3d6000fd5b5050604051601f1901519897505050505050505056fe524d3a207468652077616c6c657420617574686f72697a656420697320646966666572656e74207468656e2074686520746172676574206f66207468652072656c61796564206461746154453a20736f75726365206f722064657374696e6174696f6e206d75737420626520455448424d3a206d75737420626520616e206f776e657220666f72207468652077616c6c6574a165627a7a7230582044bb3fa3dc92d0917a35988c5b7751f5b000a4b817ae8f48684fde71bdcb27900029",
  "source": "pragma solidity ^0.5.4;\nimport \"../wallet/BaseWallet.sol\";\nimport \"./common/BaseModule.sol\";\nimport \"./common/RelayerModule.sol\";\nimport \"./common/OnlyOwnerModule.sol\";\nimport \"../utils/SafeMath.sol\";\nimport \"../exchange/ERC20.sol\";\nimport \"../utils/SafeMath.sol\";\nimport \"../exchange/KyberNetwork.sol\";\n\n/**\n * @title TokenExchanger\n * @dev Module to trade tokens (ETH or ERC20) using KyberNetworks.\n * @author Julien Niset - <julien@argent.im>\n */\ncontract TokenExchanger is BaseModule, RelayerModule, OnlyOwnerModule {\n\n    bytes32 constant NAME = \"TokenExchanger\";\n\n    using SafeMath for uint256;\n\n    // Mock token address for ETH\n    address constant internal ETH_TOKEN_ADDRESS = 0xEeeeeEeeeEeEeeEeEeEeeEEEeeeeEeeeeeeeEEeE;\n\n    // The address of the KyberNetwork proxy contract\n    address public kyber;\n    // The address of the contract collecting fees for Argent.\n    address public feeCollector;\n    // The Argent fee in 1-per-10000.\n    uint256 public feeRatio;\n\n    event TokenExchanged(address indexed wallet, address srcToken, uint srcAmount, address destToken, uint destAmount);\n\n    constructor(\n        ModuleRegistry _registry,\n        GuardianStorage _guardianStorage,\n        address _kyber,\n        address _feeCollector,\n        uint _feeRatio\n    )\n        BaseModule(_registry, _guardianStorage, NAME)\n        public\n    {\n        kyber = _kyber;\n        feeCollector = _feeCollector;\n        feeRatio = _feeRatio;\n    }\n\n    /**\n     * @dev Lets the owner of the wallet execute a trade.\n     * @param _wallet The target wallet\n     * @param _srcToken The address of the source token.\n     * @param _srcAmount The amoutn of source token to trade.\n     * @param _destToken The address of the destination token.\n     * @param _maxDestAmount The maximum amount of destination token accepted for the trade.\n     * @param _minConversionRate The minimum accepted rate for the trade.\n     * @return The amount of destination tokens that have been received.\n     */\n    function trade(\n        BaseWallet _wallet,\n        address _srcToken,\n        uint256 _srcAmount,\n        address _destToken,\n        uint256 _maxDestAmount,\n        uint256 _minConversionRate\n    )\n        external \n        onlyWalletOwner(_wallet)\n        onlyWhenUnlocked(_wallet)\n        returns(uint256)\n    {    \n        bytes memory methodData;\n        require(_srcToken == ETH_TOKEN_ADDRESS || _destToken == ETH_TOKEN_ADDRESS, \"TE: source or destination must be ETH\");\n        (uint256 destAmount, uint256 fee, ) = getExpectedTrade(_srcToken, _destToken, _srcAmount);\n        if(destAmount > _maxDestAmount) {\n            fee = fee.mul(_maxDestAmount).div(destAmount);\n            destAmount = _maxDestAmount;\n        }\n        if(_srcToken == ETH_TOKEN_ADDRESS) {\n            uint256 srcTradable = _srcAmount.sub(fee);\n            methodData = abi.encodeWithSignature(\n                \"trade(address,uint256,address,address,uint256,uint256,address)\", \n                _srcToken, \n                srcTradable,\n                _destToken,\n                address(_wallet),\n                _maxDestAmount,\n                _minConversionRate,\n                feeCollector\n                );\n            invokeWallet(address(_wallet), kyber, srcTradable, methodData);\n        }\n        else {\n            // approve kyber on erc20 \n            methodData = abi.encodeWithSignature(\"approve(address,uint256)\", kyber, _srcAmount);\n            invokeWallet(address(_wallet), _srcToken, 0, methodData);\n            // transfer erc20\n            methodData = abi.encodeWithSignature(\n                \"trade(address,uint256,address,address,uint256,uint256,address)\", \n                _srcToken, \n                _srcAmount,\n                _destToken,\n                address(_wallet),\n                _maxDestAmount,\n                _minConversionRate,\n                feeCollector\n                );\n            invokeWallet(address(_wallet), kyber, 0, methodData);\n        }\n\n        if (fee > 0) {\n            invokeWallet(address(_wallet), feeCollector, fee, \"\");\n        }\n        emit TokenExchanged(address(_wallet), _srcToken, _srcAmount, _destToken, destAmount);\n        return destAmount;\n    }\n\n    /**\n     * @dev Gets the expected terms of a trade.\n     * @param _srcToken The address of the source token.\n     * @param _destToken The address of the destination token.\n     * @param _srcAmount The amount of source token to trade.\n     * @return the amount of destination tokens to be received and the amount of ETH paid to Argent as fee.\n     */\n    function getExpectedTrade(\n        address _srcToken,\n        address _destToken,\n        uint256 _srcAmount\n    )\n        public\n        view\n        returns(uint256 _destAmount, uint256 _fee, uint256 _expectedRate)\n    {\n        if(_srcToken == ETH_TOKEN_ADDRESS) {\n            _fee = computeFee(_srcAmount);\n            (_expectedRate,) = KyberNetwork(kyber).getExpectedRate(ERC20(_srcToken), ERC20(_destToken), _srcAmount.sub(_fee));  \n            uint256 destDecimals = ERC20(_destToken).decimals();\n            // destAmount = expectedRate * (_srcAmount - fee) / ETH_PRECISION * (DEST_PRECISION / SRC_PRECISION)\n            _destAmount = _expectedRate.mul(_srcAmount.sub(_fee)).div(10 ** (36-destDecimals));\n        }\n        else {\n            (_expectedRate,) = KyberNetwork(kyber).getExpectedRate(ERC20(_srcToken), ERC20(_destToken), _srcAmount);\n            uint256 srcDecimals = ERC20(_srcToken).decimals();\n            // destAmount = expectedRate * _srcAmount / ETH_PRECISION * (DEST_PRECISION / SRC_PRECISION) - fee\n            _destAmount = _expectedRate.mul(_srcAmount).div(10 ** srcDecimals);\n            _fee = computeFee(_destAmount);\n            _destAmount -= _fee;\n        }\n    }\n\n    /**\n     * @dev Computes the Argent fee based on the amount of source tokens in ETH.\n     * @param _srcAmount The amount of source token to trade in ETH.\n     * @return the fee paid to Argent.\n     */\n    function computeFee(uint256 _srcAmount) internal view returns (uint256 fee) {\n        fee = (_srcAmount * feeRatio) / 10000;\n    }\n}",
  "sourcePath": "/home/amxx/Work/Argent/argent-contracts/contracts/modules/TokenExchanger.sol",
  "compiler": {
    "name": "solc",
    "version": "0.5.4+commit.9549d8ff.Emscripten.clang",
    "optimizer": true,
    "runs": 200
  },
  "schemaVersion": "2.2.4",
  "updatedAt": "2020-02-29T16:28:22.558Z"
}