{
  "contractName": "TokenPriceProvider",
  "abi": [
    {
      "constant": false,
      "inputs": [
        {
          "name": "_manager",
          "type": "address"
        }
      ],
      "name": "addManager",
      "outputs": [],
      "payable": false,
      "stateMutability": "nonpayable",
      "type": "function"
    },
    {
      "constant": false,
      "inputs": [
        {
          "name": "_manager",
          "type": "address"
        }
      ],
      "name": "revokeManager",
      "outputs": [],
      "payable": false,
      "stateMutability": "nonpayable",
      "type": "function"
    },
    {
      "constant": true,
      "inputs": [
        {
          "name": "",
          "type": "address"
        }
      ],
      "name": "cachedPrices",
      "outputs": [
        {
          "name": "",
          "type": "uint256"
        }
      ],
      "payable": false,
      "stateMutability": "view",
      "type": "function"
    },
    {
      "constant": true,
      "inputs": [],
      "name": "owner",
      "outputs": [
        {
          "name": "",
          "type": "address"
        }
      ],
      "payable": false,
      "stateMutability": "view",
      "type": "function"
    },
    {
      "constant": false,
      "inputs": [
        {
          "name": "_newOwner",
          "type": "address"
        }
      ],
      "name": "changeOwner",
      "outputs": [],
      "payable": false,
      "stateMutability": "nonpayable",
      "type": "function"
    },
    {
      "constant": true,
      "inputs": [],
      "name": "kyberNetwork",
      "outputs": [
        {
          "name": "",
          "type": "address"
        }
      ],
      "payable": false,
      "stateMutability": "view",
      "type": "function"
    },
    {
      "constant": true,
      "inputs": [
        {
          "name": "",
          "type": "address"
        }
      ],
      "name": "managers",
      "outputs": [
        {
          "name": "",
          "type": "bool"
        }
      ],
      "payable": false,
      "stateMutability": "view",
      "type": "function"
    },
    {
      "inputs": [
        {
          "name": "_kyberNetwork",
          "type": "address"
        }
      ],
      "payable": false,
      "stateMutability": "nonpayable",
      "type": "constructor"
    },
    {
      "anonymous": false,
      "inputs": [
        {
          "indexed": true,
          "name": "_manager",
          "type": "address"
        }
      ],
      "name": "ManagerAdded",
      "type": "event"
    },
    {
      "anonymous": false,
      "inputs": [
        {
          "indexed": true,
          "name": "_manager",
          "type": "address"
        }
      ],
      "name": "ManagerRevoked",
      "type": "event"
    },
    {
      "anonymous": false,
      "inputs": [
        {
          "indexed": true,
          "name": "_newOwner",
          "type": "address"
        }
      ],
      "name": "OwnerChanged",
      "type": "event"
    },
    {
      "constant": false,
      "inputs": [
        {
          "name": "_token",
          "type": "address"
        },
        {
          "name": "_price",
          "type": "uint256"
        }
      ],
      "name": "setPrice",
      "outputs": [],
      "payable": false,
      "stateMutability": "nonpayable",
      "type": "function"
    },
    {
      "constant": false,
      "inputs": [
        {
          "name": "_tokens",
          "type": "address[]"
        },
        {
          "name": "_prices",
          "type": "uint256[]"
        }
      ],
      "name": "setPriceForTokenList",
      "outputs": [],
      "payable": false,
      "stateMutability": "nonpayable",
      "type": "function"
    },
    {
      "constant": true,
      "inputs": [
        {
          "name": "_amount",
          "type": "uint256"
        },
        {
          "name": "_token",
          "type": "address"
        }
      ],
      "name": "getEtherValue",
      "outputs": [
        {
          "name": "",
          "type": "uint256"
        }
      ],
      "payable": false,
      "stateMutability": "view",
      "type": "function"
    },
    {
      "constant": false,
      "inputs": [
        {
          "name": "_kyberNetwork",
          "type": "address"
        }
      ],
      "name": "setKyberNetwork",
      "outputs": [],
      "payable": false,
      "stateMutability": "nonpayable",
      "type": "function"
    },
    {
      "constant": false,
      "inputs": [
        {
          "name": "_token",
          "type": "address"
        }
      ],
      "name": "syncPrice",
      "outputs": [],
      "payable": false,
      "stateMutability": "nonpayable",
      "type": "function"
    },
    {
      "constant": false,
      "inputs": [
        {
          "name": "_tokens",
          "type": "address[]"
        }
      ],
      "name": "syncPriceForTokenList",
      "outputs": [],
      "payable": false,
      "stateMutability": "nonpayable",
      "type": "function"
    }
  ],
  "bytecode": "0x608060405234801561001057600080fd5b50604051602080610dc38339810180604052602081101561003057600080fd5b505160008054600160a060020a0319908116331790915560038054600160a060020a0390931692909116919091179055610d548061006f6000396000f3fe608060405234801561001057600080fd5b50600436106100d25760003560e060020a900480638da5cb5b11610090578063ce55c8521161006a578063ce55c852146102c3578063d740b9a3146102ef578063e3503ca21461035f578063fdff9b4d14610385576100d2565b80638da5cb5b14610271578063a6f9dae114610295578063b78b842d146102bb576100d2565b8062e4768b146100d75780632d06177a14610105578063377e32e61461012b57806354a325a61461015157806374d66ecf14610177578063837479c914610239575b600080fd5b610103600480360360408110156100ed57600080fd5b50600160a060020a0381351690602001356103bf565b005b6101036004803603602081101561011b57600080fd5b5035600160a060020a0316610448565b6101036004803603602081101561014157600080fd5b5035600160a060020a031661057c565b6101036004803603602081101561016757600080fd5b5035600160a060020a0316610687565b6101036004803603604081101561018d57600080fd5b8101906020810181356401000000008111156101a857600080fd5b8201836020820111156101ba57600080fd5b803590602001918460208302840111640100000000831117156101dc57600080fd5b9193909290916020810190356401000000008111156101fa57600080fd5b82018360208201111561020c57600080fd5b8035906020019184602083028401116401000000008311171561022e57600080fd5b509092509050610723565b61025f6004803603602081101561024f57600080fd5b5035600160a060020a03166107ef565b60408051918252519081900360200190f35b610279610801565b60408051600160a060020a039092168252519081900360200190f35b610103600480360360208110156102ab57600080fd5b5035600160a060020a0316610810565b610279610927565b61025f600480360360408110156102d957600080fd5b5080359060200135600160a060020a0316610936565b6101036004803603602081101561030557600080fd5b81019060208101813564010000000081111561032057600080fd5b82018360208201111561033257600080fd5b8035906020019184602083028401116401000000008311171561035457600080fd5b5090925090506109ec565b6101036004803603602081101561037557600080fd5b5035600160a060020a0316610b63565b6103ab6004803603602081101561039b57600080fd5b5035600160a060020a0316610c98565b604080519115158252519081900360200190f35b3360009081526001602081905260409091205460ff1615151461042c576040805160e560020a62461bcd02815260206004820152601260248201527f4d3a204d757374206265206d616e616765720000000000000000000000000000604482015290519081900360640190fd5b600160a060020a03909116600090815260026020526040902055565b600054600160a060020a031633146104aa576040805160e560020a62461bcd02815260206004820152600d60248201527f4d757374206265206f776e657200000000000000000000000000000000000000604482015290519081900360640190fd5b600160a060020a038116151561050a576040805160e560020a62461bcd02815260206004820152601b60248201527f4d3a2041646472657373206d757374206e6f74206265206e756c6c0000000000604482015290519081900360640190fd5b600160a060020a03811660009081526001602052604090205460ff16151561057957600160a060020a0381166000818152600160208190526040808320805460ff1916909217909155517f3b4a40cccf2058c593542587329dd385be4f0b588db5471fbd9598e56dd7093a9190a25b50565b600054600160a060020a031633146105de576040805160e560020a62461bcd02815260206004820152600d60248201527f4d757374206265206f776e657200000000000000000000000000000000000000604482015290519081900360640190fd5b600160a060020a03811660009081526001602081905260409091205460ff1615151461063e5760405160e560020a62461bcd028152600401808060200182810382526025815260200180610d046025913960400191505060405180910390fd5b600160a060020a038116600081815260016020526040808220805460ff19169055517fe5def11e0516f317f9c37b8835aec29fc01db4d4b6d6fecaca339d3596a29bc19190a250565b3360009081526001602081905260409091205460ff161515146106f4576040805160e560020a62461bcd02815260206004820152601260248201527f4d3a204d757374206265206d616e616765720000000000000000000000000000604482015290519081900360640190fd5b6003805473ffffffffffffffffffffffffffffffffffffffff1916600160a060020a0392909216919091179055565b3360009081526001602081905260409091205460ff16151514610790576040805160e560020a62461bcd02815260206004820152601260248201527f4d3a204d757374206265206d616e616765720000000000000000000000000000604482015290519081900360640190fd5b60005b61ffff81168411156107e8576107e0858561ffff84168181106107b257fe5b90506020020135600160a060020a031684848461ffff1681811015156107d457fe5b905060200201356103bf565b600101610793565b5050505050565b60026020526000908152604090205481565b600054600160a060020a031681565b600054600160a060020a03163314610872576040805160e560020a62461bcd02815260206004820152600d60248201527f4d757374206265206f776e657200000000000000000000000000000000000000604482015290519081900360640190fd5b600160a060020a03811615156108d2576040805160e560020a62461bcd02815260206004820152601860248201527f41646472657373206d757374206e6f74206265206e756c6c0000000000000000604482015290519081900360640190fd5b6000805473ffffffffffffffffffffffffffffffffffffffff1916600160a060020a038316908117825560405190917fa2ea9883a321a3e97b8266c2b078bfeec6d50c711ed71f874a90d500ae2eaf3691a250565b600354600160a060020a031681565b60008082600160a060020a031663313ce5676040518163ffffffff1660e060020a02815260040160206040518083038186803b15801561097557600080fd5b505afa158015610989573d6000803e3d6000fd5b505050506040513d602081101561099f57600080fd5b5051600160a060020a0384166000908152600260205260409020549091506109e1600a83900a6109d5838863ffffffff610cad16565b9063ffffffff610cdf16565b925050505b92915050565b600354600160a060020a03161515610a4e576040805160e560020a62461bcd02815260206004820152601660248201527f4b796265722073796e632069732064697361626c656400000000000000000000604482015290519081900360640190fd5b60005b61ffff8116821115610b5e57600354600090600160a060020a031663809a9e55858561ffff8616818110610a8157fe5b6040805163ffffffff861660e060020a0281526020929092029390930135600160a060020a0316600482015273eeeeeeeeeeeeeeeeeeeeeeeeeeeeeeeeeeeeeeee60248201526127106044820152825160648083019493509091829003018186803b158015610aef57600080fd5b505afa158015610b03573d6000803e3d6000fd5b505050506040513d6040811015610b1957600080fd5b505190508060026000868661ffff8716818110610b3257fe5b60209081029290920135600160a060020a03168352508101919091526040016000205550600101610a51565b505050565b600354600160a060020a03161515610bc5576040805160e560020a62461bcd02815260206004820152601660248201527f4b796265722073796e632069732064697361626c656400000000000000000000604482015290519081900360640190fd5b600354604080517f809a9e55000000000000000000000000000000000000000000000000000000008152600160a060020a03848116600483015273eeeeeeeeeeeeeeeeeeeeeeeeeeeeeeeeeeeeeeee602483015261271060448301528251600094919091169263809a9e559260648082019391829003018186803b158015610c4c57600080fd5b505afa158015610c60573d6000803e3d6000fd5b505050506040513d6040811015610c7657600080fd5b5051600160a060020a0390921660009081526002602052604090209190915550565b60016020526000908152604090205460ff1681565b6000821515610cbe575060006109e6565b828202828482811515610ccd57fe5b0414610cd857600080fd5b9392505050565b6000808211610ced57600080fd5b60008284811515610cfa57fe5b0494935050505056fe4d3a20546172676574206d75737420626520616e206578697374696e67206d616e61676572a165627a7a7230582052f91800064fc3c8445cc414d5d1ff2cd3a303e7a56f6c2d0b87f10d1b8027350029",
  "source": "pragma solidity ^0.5.4;\nimport \"../utils/SafeMath.sol\";\nimport \"./ERC20.sol\";\nimport \"../base/Managed.sol\";\nimport \"./KyberNetwork.sol\";\n\ncontract TokenPriceProvider is Managed {\n\n    // Mock token address for ETH\n    address constant internal ETH_TOKEN_ADDRESS = 0xEeeeeEeeeEeEeeEeEeEeeEEEeeeeEeeeeeeeEEeE;\n\n    using SafeMath for uint256;\n\n    mapping(address => uint256) public cachedPrices;\n\n    // Address of the KyberNetwork contract\n    KyberNetwork public kyberNetwork;\n\n    constructor(KyberNetwork _kyberNetwork) public {\n        kyberNetwork = _kyberNetwork;\n    }\n\n    function setPrice(ERC20 _token, uint256 _price) public onlyManager {\n        cachedPrices[address(_token)] = _price;\n    }\n\n    function setPriceForTokenList(ERC20[] calldata _tokens, uint256[] calldata _prices) external onlyManager {\n        for(uint16 i = 0; i < _tokens.length; i++) {\n            setPrice(_tokens[i], _prices[i]);\n        }\n    }\n\n    /**\n     * @dev Converts the value of _amount tokens in ether.\n     * @param _amount the amount of tokens to convert (in 'token wei' twei)\n     * @param _token the ERC20 token contract\n     * @return the ether value (in wei) of _amount tokens with contract _token\n     */\n    function getEtherValue(uint256 _amount, address _token) external view returns (uint256) {\n        uint256 decimals = ERC20(_token).decimals();\n        uint256 price = cachedPrices[_token];\n        return price.mul(_amount).div(10**decimals);\n    }\n\n    //\n    // The following is added to be backward-compatible with Argent's old backend\n    //\n\n    function setKyberNetwork(KyberNetwork _kyberNetwork) external onlyManager {\n        kyberNetwork = _kyberNetwork;\n    }\n\n    function syncPrice(ERC20 _token) external {\n        require(address(kyberNetwork) != address(0), \"Kyber sync is disabled\");\n        (uint256 expectedRate,) = kyberNetwork.getExpectedRate(_token, ERC20(ETH_TOKEN_ADDRESS), 10000);\n        cachedPrices[address(_token)] = expectedRate;\n    }\n\n    function syncPriceForTokenList(ERC20[] calldata _tokens) external {\n        require(address(kyberNetwork) != address(0), \"Kyber sync is disabled\");\n        for(uint16 i = 0; i < _tokens.length; i++) {\n            (uint256 expectedRate,) = kyberNetwork.getExpectedRate(_tokens[i], ERC20(ETH_TOKEN_ADDRESS), 10000);\n            cachedPrices[address(_tokens[i])] = expectedRate;\n        }\n    }\n}",
  "sourcePath": "/home/amxx/Work/Argent/argent-contracts/contracts/exchange/TokenPriceProvider.sol",
  "compiler": {
    "name": "solc",
    "version": "0.5.4+commit.9549d8ff.Emscripten.clang",
    "optimizer": true,
    "runs": 200
  },
  "schemaVersion": "2.2.4",
  "updatedAt": "2020-02-29T16:28:22.459Z"
}