{
  "contractName": "TransferStorage",
  "abi": [
    {
      "constant": false,
      "inputs": [
        {
          "name": "_wallet",
          "type": "address"
        },
        {
          "name": "_target",
          "type": "address"
        },
        {
          "name": "_value",
          "type": "uint256"
        }
      ],
      "name": "setWhitelist",
      "outputs": [],
      "payable": false,
      "stateMutability": "nonpayable",
      "type": "function"
    },
    {
      "constant": true,
      "inputs": [
        {
          "name": "_wallet",
          "type": "address"
        },
        {
          "name": "_target",
          "type": "address"
        }
      ],
      "name": "getWhitelist",
      "outputs": [
        {
          "name": "",
          "type": "uint256"
        }
      ],
      "payable": false,
      "stateMutability": "view",
      "type": "function"
    }
  ],
  "bytecode": "0x608060405234801561001057600080fd5b506102a9806100206000396000f3fe608060405234801561001057600080fd5b5060043610610052577c0100000000000000000000000000000000000000000000000000000000600035046313f4a0ea811461005757806380bfbe68146100a4575b600080fd5b6100926004803603604081101561006d57600080fd5b5073ffffffffffffffffffffffffffffffffffffffff813581169160200135166100e9565b60408051918252519081900360200190f35b6100e7600480360360608110156100ba57600080fd5b5073ffffffffffffffffffffffffffffffffffffffff81358116916020810135909116906040013561011f565b005b73ffffffffffffffffffffffffffffffffffffffff91821660009081526020818152604080832093909416825291909152205490565b604080517fd6eb1bbf0000000000000000000000000000000000000000000000000000000081523360048201529051849173ffffffffffffffffffffffffffffffffffffffff83169163d6eb1bbf91602480820192602092909190829003018186803b15801561018e57600080fd5b505afa1580156101a2573d6000803e3d6000fd5b505050506040513d60208110156101b857600080fd5b50511515610211576040517f08c379a000000000000000000000000000000000000000000000000000000000815260040180806020018281038252603481526020018061024a6034913960400191505060405180910390fd5b5073ffffffffffffffffffffffffffffffffffffffff928316600090815260208181526040808320949095168252929092529190205556fe54533a206d75737420626520616e20617574686f72697a6564206d6f64756c6520746f2063616c6c2074686973206d6574686f64a165627a7a72305820c221526877fff9f9368ad1e689a1c483b9769bf237288dbc18e5081b42ed20340029",
  "source": "pragma solidity ^0.5.4;\nimport \"../wallet/BaseWallet.sol\";\nimport \"./Storage.sol\";\n\n/**\n * @title TransferStorage\n * @dev Contract storing the state of wallets related to transfers (limit and whitelist).\n * The contract only defines basic setters and getters with no logic. Only modules authorised\n * for a wallet can modify its state.\n * @author Julien Niset - <julien@argent.im>\n */\ncontract TransferStorage is Storage {\n\n    // wallet specific storage\n    mapping (address => mapping (address => uint256)) internal whitelist;\n\n    // *************** External Functions ********************* //\n\n    /**\n     * @dev Lets an authorised module add or remove an account from the whitelist of a wallet.\n     * @param _wallet The target wallet.\n     * @param _target The account to add/remove.\n     * @param _value True for addition, false for revokation.\n     */\n    function setWhitelist(BaseWallet _wallet, address _target, uint256 _value) external onlyModule(_wallet) {\n        whitelist[address(_wallet)][_target] = _value;\n    }\n\n    /**\n     * @dev Gets the whitelist state of an account for a wallet.\n     * @param _wallet The target wallet.\n     * @param _target The account.\n     * @return the epoch time at which an account strats to be whitelisted, or zero if the account is not whitelisted.\n     */\n    function getWhitelist(BaseWallet _wallet, address _target) external view returns (uint256) {\n        return whitelist[address(_wallet)][_target];\n    }\n}",
  "sourcePath": "/home/amxx/Work/Argent/argent-contracts/contracts/storage/TransferStorage.sol",
  "compiler": {
    "name": "solc",
    "version": "0.5.4+commit.9549d8ff.Emscripten.clang",
    "optimizer": true,
    "runs": 200
  },
  "schemaVersion": "2.2.4",
  "updatedAt": "2020-02-29T16:28:22.577Z"
}