{
  "contractName": "UniswapManager",
  "abi": [
    {
      "constant": false,
      "inputs": [
        {
          "name": "_wallet",
          "type": "address"
        }
      ],
      "name": "init",
      "outputs": [],
      "payable": false,
      "stateMutability": "nonpayable",
      "type": "function"
    },
    {
      "constant": true,
      "inputs": [
        {
          "name": "_wallet",
          "type": "address"
        }
      ],
      "name": "getNonce",
      "outputs": [
        {
          "name": "nonce",
          "type": "uint256"
        }
      ],
      "payable": false,
      "stateMutability": "view",
      "type": "function"
    },
    {
      "constant": false,
      "inputs": [
        {
          "name": "_wallet",
          "type": "address"
        },
        {
          "name": "_module",
          "type": "address"
        }
      ],
      "name": "addModule",
      "outputs": [],
      "payable": false,
      "stateMutability": "nonpayable",
      "type": "function"
    },
    {
      "constant": true,
      "inputs": [],
      "name": "uniswapFactory",
      "outputs": [
        {
          "name": "",
          "type": "address"
        }
      ],
      "payable": false,
      "stateMutability": "view",
      "type": "function"
    },
    {
      "constant": false,
      "inputs": [
        {
          "name": "_token",
          "type": "address"
        }
      ],
      "name": "recoverToken",
      "outputs": [],
      "payable": false,
      "stateMutability": "nonpayable",
      "type": "function"
    },
    {
      "constant": false,
      "inputs": [
        {
          "name": "_wallet",
          "type": "address"
        },
        {
          "name": "_data",
          "type": "bytes"
        },
        {
          "name": "_nonce",
          "type": "uint256"
        },
        {
          "name": "_signatures",
          "type": "bytes"
        },
        {
          "name": "_gasPrice",
          "type": "uint256"
        },
        {
          "name": "_gasLimit",
          "type": "uint256"
        }
      ],
      "name": "execute",
      "outputs": [
        {
          "name": "success",
          "type": "bool"
        }
      ],
      "payable": false,
      "stateMutability": "nonpayable",
      "type": "function"
    },
    {
      "constant": true,
      "inputs": [
        {
          "name": "",
          "type": "address"
        }
      ],
      "name": "relayer",
      "outputs": [
        {
          "name": "nonce",
          "type": "uint256"
        }
      ],
      "payable": false,
      "stateMutability": "view",
      "type": "function"
    },
    {
      "constant": true,
      "inputs": [],
      "name": "isOnlyOwnerModule",
      "outputs": [
        {
          "name": "",
          "type": "bytes4"
        }
      ],
      "payable": false,
      "stateMutability": "pure",
      "type": "function"
    },
    {
      "inputs": [
        {
          "name": "_registry",
          "type": "address"
        },
        {
          "name": "_guardianStorage",
          "type": "address"
        },
        {
          "name": "_uniswapFactory",
          "type": "address"
        }
      ],
      "payable": false,
      "stateMutability": "nonpayable",
      "type": "constructor"
    },
    {
      "anonymous": false,
      "inputs": [
        {
          "indexed": true,
          "name": "wallet",
          "type": "address"
        },
        {
          "indexed": true,
          "name": "success",
          "type": "bool"
        },
        {
          "indexed": false,
          "name": "signedHash",
          "type": "bytes32"
        }
      ],
      "name": "TransactionExecuted",
      "type": "event"
    },
    {
      "anonymous": false,
      "inputs": [
        {
          "indexed": false,
          "name": "name",
          "type": "bytes32"
        }
      ],
      "name": "ModuleCreated",
      "type": "event"
    },
    {
      "anonymous": false,
      "inputs": [
        {
          "indexed": false,
          "name": "wallet",
          "type": "address"
        }
      ],
      "name": "ModuleInitialised",
      "type": "event"
    },
    {
      "anonymous": false,
      "inputs": [
        {
          "indexed": true,
          "name": "_wallet",
          "type": "address"
        },
        {
          "indexed": false,
          "name": "_token",
          "type": "address"
        },
        {
          "indexed": false,
          "name": "_invested",
          "type": "uint256"
        },
        {
          "indexed": false,
          "name": "_period",
          "type": "uint256"
        }
      ],
      "name": "InvestmentAdded",
      "type": "event"
    },
    {
      "anonymous": false,
      "inputs": [
        {
          "indexed": true,
          "name": "_wallet",
          "type": "address"
        },
        {
          "indexed": false,
          "name": "_token",
          "type": "address"
        },
        {
          "indexed": false,
          "name": "_fraction",
          "type": "uint256"
        }
      ],
      "name": "InvestmentRemoved",
      "type": "event"
    },
    {
      "constant": false,
      "inputs": [
        {
          "name": "_wallet",
          "type": "address"
        },
        {
          "name": "_token",
          "type": "address"
        },
        {
          "name": "_amount",
          "type": "uint256"
        },
        {
          "name": "_period",
          "type": "uint256"
        }
      ],
      "name": "addInvestment",
      "outputs": [
        {
          "name": "_invested",
          "type": "uint256"
        }
      ],
      "payable": false,
      "stateMutability": "nonpayable",
      "type": "function"
    },
    {
      "constant": false,
      "inputs": [
        {
          "name": "_wallet",
          "type": "address"
        },
        {
          "name": "_token",
          "type": "address"
        },
        {
          "name": "_fraction",
          "type": "uint256"
        }
      ],
      "name": "removeInvestment",
      "outputs": [],
      "payable": false,
      "stateMutability": "nonpayable",
      "type": "function"
    },
    {
      "constant": true,
      "inputs": [
        {
          "name": "_wallet",
          "type": "address"
        },
        {
          "name": "_token",
          "type": "address"
        }
      ],
      "name": "getInvestment",
      "outputs": [
        {
          "name": "_tokenValue",
          "type": "uint256"
        },
        {
          "name": "_periodEnd",
          "type": "uint256"
        }
      ],
      "payable": false,
      "stateMutability": "view",
      "type": "function"
    }
  ],
  "bytecode": "0x608060405234801561001057600080fd5b506040516060806121758339810180604052606081101561003057600080fd5b50805160208083015160409384015160008054600160a060020a03808716600160a060020a031992831617909255600180549285169290911691909117905584517f556e6973776170496e766573744d616e6167657200000000000000000000000080825295519495929491938693869390927f3019c8fc80239e3dff8f781212ae2004839c2cb61d6c70acd279ac65392145df92908290030190a1505060038054600160a060020a03909316600160a060020a031990931692909217909155505050612073806101026000396000f3fe608060405234801561001057600080fd5b50600436106100ad5760003560e060020a900480639be65a60116100755780639be65a601461019a578063aacaaf88146101c0578063c9b5ef8e146102b0578063cac7495c146102d6578063d490da4d1461031d578063ec9e13aa1461035a576100ad565b806319ab453c146100b25780632d0335ab146100da5780635a1db8c4146101125780638bdb2afa1461014057806398d5342814610164575b600080fd5b6100d8600480360360208110156100c857600080fd5b5035600160a060020a0316610396565b005b610100600480360360208110156100f057600080fd5b5035600160a060020a0316610437565b60408051918252519081900360200190f35b6100d86004803603604081101561012857600080fd5b50600160a060020a0381358116916020013516610452565b610148610616565b60408051600160a060020a039092168252519081900360200190f35b6100d86004803603606081101561017a57600080fd5b50600160a060020a03813581169160208101359091169060400135610625565b6100d8600480360360208110156101b057600080fd5b5035600160a060020a03166107ff565b61029c600480360360c08110156101d657600080fd5b600160a060020a03823516919081019060408101602082013564010000000081111561020157600080fd5b82018360208201111561021357600080fd5b8035906020019184600183028401116401000000008311171561023557600080fd5b9193909282359260408101906020013564010000000081111561025757600080fd5b82018360208201111561026957600080fd5b8035906020019184600183028401116401000000008311171561028b57600080fd5b919350915080359060200135610932565b604080519115158252519081900360200190f35b610100600480360360208110156102c657600080fd5b5035600160a060020a0316610c10565b610304600480360360408110156102ec57600080fd5b50600160a060020a0381358116916020013516610c22565b6040805192835260208301919091528051918290030190f35b610325610eb1565b604080517fffffffff000000000000000000000000000000000000000000000000000000009092168252519081900360200190f35b6101006004803603608081101561037057600080fd5b50600160a060020a03813581169160208101359091169060408101359060600135610ed5565b8033600160a060020a038216146103f7576040805160e560020a62461bcd02815260206004820152601960248201527f424d3a2063616c6c6572206d7573742062652077616c6c657400000000000000604482015290519081900360640190fd5b60408051600160a060020a038416815290517f9fcca3f73f85397e2bf03647abf243c20b753bd54463ff3cae74de2971c112fa9181900360200190a15050565b600160a060020a031660009081526002602052604090205490565b81333014806104665750610466813361107b565b15156104a65760405160e560020a62461bcd028152600401808060200182810382526023815260200180611ff76023913960400191505060405180910390fd5b600054604080517f0bcd4ebb000000000000000000000000000000000000000000000000000000008152600160a060020a03858116600483015291519190921691630bcd4ebb916024808301926020929190829003018186803b15801561050c57600080fd5b505afa158015610520573d6000803e3d6000fd5b505050506040513d602081101561053657600080fd5b5051151561058e576040805160e560020a62461bcd02815260206004820152601c60248201527f424d3a206d6f64756c65206973206e6f74207265676973746572656400000000604482015290519081900360640190fd5b604080517f1f17732d000000000000000000000000000000000000000000000000000000008152600160a060020a03848116600483015260016024830152915191851691631f17732d9160448082019260009290919082900301818387803b1580156105f957600080fd5b505af115801561060d573d6000803e3d6000fd5b50505050505050565b600354600160a060020a031681565b82333014806106395750610639813361107b565b15156106795760405160e560020a62461bcd028152600401808060200182810382526023815260200180611ff76023913960400191505060405180910390fd5b600154604080517f4a4fbeec000000000000000000000000000000000000000000000000000000008152600160a060020a038088166004830152915187939290921691634a4fbeec91602480820192602092909190829003018186803b1580156106e257600080fd5b505afa1580156106f6573d6000803e3d6000fd5b505050506040513d602081101561070c57600080fd5b505115610763576040805160e560020a62461bcd02815260206004820152601b60248201527f424d3a2077616c6c6574206d75737420626520756e6c6f636b65640000000000604482015290519081900360640190fd5b6127108311156107a75760405160e560020a62461bcd028152600401808060200182810382526033815260200180611f926033913960400191505060405180910390fd5b6107b2858585611102565b60408051600160a060020a038681168252602082018690528251908816927f9aa275f858ea6286ee2cacd32cd2ae55f918a310ee6d0320caad244ee9d6109e928290030190a25050505050565b604080517f70a082310000000000000000000000000000000000000000000000000000000081523060048201529051600091600160a060020a038416916370a0823191602480820192602092909190829003018186803b15801561086257600080fd5b505afa158015610876573d6000803e3d6000fd5b505050506040513d602081101561088c57600080fd5b505160008054604080517fa9059cbb000000000000000000000000000000000000000000000000000000008152600160a060020a0392831660048201526024810185905290519394509085169263a9059cbb92604480840193602093929083900390910190829087803b15801561090257600080fd5b505af1158015610916573d6000803e3d6000fd5b505050506040513d602081101561092c57600080fd5b50505050565b6000805a90506000610982308c60008d8d8080601f0160208091040260200160405190810160405280939291908181526020018383808284376000920191909152508f92508c91508b9050611302565b905061098f8b8983611445565b15156109e5576040805160e560020a62461bcd02815260206004820152601560248201527f524d3a204475706c696361746520726571756573740000000000000000000000604482015290519081900360640190fd5b610a258b8b8b8080601f01602080910402602001604051908101604052809392919081815260200183838082843760009201919091525061145992505050565b1515610a655760405160e560020a62461bcd02815260040180806020018281038252604a815260200180611f48604a913960600191505060405180910390fd5b6000610aa78c8c8c8080601f0160208091040260200160405190810160405280939291908181526020018383808284376000920191909152506114cd92505050565b905060418102871415610bbf57610ac08c8688846114d5565b15610bbf57801580610b435750610b438c8c8c8080601f01602080910402602001604051908101604052809392919081815260200183838082843760009201919091525050604080516020601f8f018190048102820181019092528d815288935091508d908d90819084018382808284376000920191909152506115a792505050565b15610bbf5730600160a060020a03168b8b604051808383808284376040519201945060009350909150508083038183865af19150503d8060008114610ba4576040519150601f19603f3d011682016040523d82523d6000602084013e610ba9565b606091505b505080945050610bbf8c5a8503888885336115cc565b60408051838152905185151591600160a060020a038f16917f6bb0b384ce772133df63560651bc8c727c53306cec1d51e2cbf8ea35fb8f2ec19181900360200190a350505098975050505050505050565b60026020526000908152604090205481565b600354604080517f06f2bf62000000000000000000000000000000000000000000000000000000008152600160a060020a0384811660048301529151600093849384939116916306f2bf6291602480820192602092909190829003018186803b158015610c8e57600080fd5b505afa158015610ca2573d6000803e3d6000fd5b505050506040513d6020811015610cb857600080fd5b5051604080517f70a08231000000000000000000000000000000000000000000000000000000008152600160a060020a0380841660048301529151929350600092918716916370a0823191602480820192602092909190829003018186803b158015610d2357600080fd5b505afa158015610d37573d6000803e3d6000fd5b505050506040513d6020811015610d4d57600080fd5b5051604080517f70a08231000000000000000000000000000000000000000000000000000000008152600160a060020a0389811660048301529151929350600092918516916370a0823191602480820192602092909190829003018186803b158015610db857600080fd5b505afa158015610dcc573d6000803e3d6000fd5b505050506040513d6020811015610de257600080fd5b5051604080517f18160ddd0000000000000000000000000000000000000000000000000000000081529051919250600091600160a060020a038616916318160ddd916004808301926020929190829003018186803b158015610e4357600080fd5b505afa158015610e57573d6000803e3d6000fd5b505050506040513d6020811015610e6d57600080fd5b50519050610ea281610e966002610e8a868863ffffffff61162a16565b9063ffffffff61162a16565b9063ffffffff61165c16565b98600098509650505050505050565b7fd490da4d0000000000000000000000000000000000000000000000000000000090565b60008433301480610eeb5750610eeb813361107b565b1515610f2b5760405160e560020a62461bcd028152600401808060200182810382526023815260200180611ff76023913960400191505060405180910390fd5b600154604080517f4a4fbeec000000000000000000000000000000000000000000000000000000008152600160a060020a03808a166004830152915189939290921691634a4fbeec91602480820192602092909190829003018186803b158015610f9457600080fd5b505afa158015610fa8573d6000803e3d6000fd5b505050506040513d6020811015610fbe57600080fd5b505115611015576040805160e560020a62461bcd02815260206004820152601b60248201527f424d3a2077616c6c6574206d75737420626520756e6c6f636b65640000000000604482015290519081900360640190fd5b611020878787611680565b60408051600160a060020a038981168252602082018990528183018890529151929550908916917ff8eece150ed2126815122a6def9737751aecd814379d4ce8c9edd07133a49cdb9181900360600190a25050949350505050565b600081600160a060020a031683600160a060020a0316638da5cb5b6040518163ffffffff1660e060020a02815260040160206040518083038186803b1580156110c357600080fd5b505afa1580156110d7573d6000803e3d6000fd5b505050506040513d60208110156110ed57600080fd5b5051600160a060020a03161490505b92915050565b600354604080517f06f2bf62000000000000000000000000000000000000000000000000000000008152600160a060020a038581166004830152915160009392909216916306f2bf6291602480820192602092909190829003018186803b15801561116c57600080fd5b505afa158015611180573d6000803e3d6000fd5b505050506040513d602081101561119657600080fd5b50519050600160a060020a03811615156111e45760405160e560020a62461bcd028152600401808060200182810382526032815260200180611fc56032913960400191505060405180910390fd5b600081600160a060020a03166370a08231866040518263ffffffff1660e060020a0281526004018082600160a060020a0316600160a060020a0316815260200191505060206040518083038186803b15801561123f57600080fd5b505afa158015611253573d6000803e3d6000fd5b505050506040513d602081101561126957600080fd5b505190506112fa8583600061128a612710610e96878a63ffffffff61162a16565b6040805160248101929092526001604483018190526064830181905242016084808401919091528151808403909101815260a49092019052602081018051600160e060020a03167ff88bf15a00000000000000000000000000000000000000000000000000000000179052611ba9565b505050505050565b6040517f190000000000000000000000000000000000000000000000000000000000000060208083018281526000602185018190526c01000000000000000000000000600160a060020a03808e16820260228801528c16026036860152604a85018a90528851909485938d938d938d938d938d938d938d939192606a909201918701908083835b602083106113a85780518252601f199092019160209182019101611389565b51815160209384036101000a600019018019909216911617905292019586525084810193909352506040808401919091528051808403820181526060840182528051908301207f19457468657265756d205369676e6564204d6573736167653a0a3332000000006080850152609c808501919091528151808503909101815260bc909301905281519101209e9d5050505050505050505050505050565b60006114518484611e17565b949350505050565b600060248251101515156114b7576040805160e560020a62461bcd02815260206004820152601660248201527f524d3a20496e76616c6964206461746157616c6c657400000000000000000000604482015290519081900360640190fd5b5060240151600160a060020a0391821691161490565b600192915050565b600080831180156114e65750600182115b801561158f575082840285600160a060020a031631108061158f5750604080517fd6eb1bbf0000000000000000000000000000000000000000000000000000000081523060048201529051600160a060020a0387169163d6eb1bbf916024808301926020929190829003018186803b15801561156157600080fd5b505afa158015611575573d6000803e3d6000fd5b505050506040513d602081101561158b57600080fd5b5051155b1561159c57506000611451565b506001949350505050565b6000806115b684846000611e9d565b90506115c2868261107b565b9695505050505050565b61726c85016000851180156115e15750600183115b80156115ed5750838111155b1561060d573a851115611601573a02611604565b84025b6116208783836020604051908101604052806000815250611ba9565b5050505050505050565b600082151561163b575060006110fc565b82820282848281151561164a57fe5b041461165557600080fd5b9392505050565b600080821161166a57600080fd5b6000828481151561167757fe5b04949350505050565b60008082116116d9576040805160e560020a62461bcd02815260206004820152601e60248201527f556e69737761703a2063616e2774206164642030206c69717569646974790000604482015290519081900360640190fd5b600354604080517f06f2bf62000000000000000000000000000000000000000000000000000000008152600160a060020a038681166004830152915160009392909216916306f2bf6291602480820192602092909190829003018186803b15801561174357600080fd5b505afa158015611757573d6000803e3d6000fd5b505050506040513d602081101561176d57600080fd5b50519050600160a060020a03811615156117bb5760405160e560020a62461bcd02815260040180806020018281038252602e81526020018061201a602e913960400191505060405180910390fd5b600084600160a060020a03166370a08231876040518263ffffffff1660e060020a0281526004018082600160a060020a0316600160a060020a0316815260200191505060206040518083038186803b15801561181657600080fd5b505afa15801561182a573d6000803e3d6000fd5b505050506040513d602081101561184057600080fd5b505190508084111561199457600082600160a060020a03166359e948628387036040518263ffffffff1660e060020a0281526004018082815260200191505060206040518083038186803b15801561189757600080fd5b505afa1580156118ab573d6000803e3d6000fd5b505050506040513d60208110156118c157600080fd5b50519050600160a060020a03871631811115611927576040805160e560020a62461bcd02815260206004820152601f60248201527f556e69737761703a206e6f7420656e6f7567682045544820746f207377617000604482015290519081900360640190fd5b60408051838703602482015242604480830191909152825180830390910181526064909101909152602081018051600160e060020a03167f6b1d4db70000000000000000000000000000000000000000000000000000000017905261199190889085908490611ba9565b50505b600085600160a060020a03166370a08231846040518263ffffffff1660e060020a0281526004018082600160a060020a0316600160a060020a0316815260200191505060206040518083038186803b1580156119ef57600080fd5b505afa158015611a03573d6000803e3d6000fd5b505050506040513d6020811015611a1957600080fd5b50519050600160a060020a038316316000611a4283610e966000198a018563ffffffff61162a16565b9050600160a060020a03891631811115611aa6576040805160e560020a62461bcd02815260206004820152601f60248201527f556e69737761703a206e6f7420656e6f7567682045544820746f20706f6f6c00604482015290519081900360640190fd5b60408051600160a060020a038716602482015260448082018a9052825180830390910181526064909101909152602081018051600160e060020a03167f095ea7b300000000000000000000000000000000000000000000000000000000179052611b16908a908a90600090611ba9565b5060408051600160248201819052604482018a90524201606480830191909152825180830390910181526084909101909152602081018051600160e060020a03167f422f104300000000000000000000000000000000000000000000000000000000179052611b8a908a9087908490611ba9565b50611b9c87600263ffffffff61162a16565b9998505050505050505050565b6060600085600160a060020a03168585856040516024018084600160a060020a0316600160a060020a0316815260200183815260200180602001828103825283818151815260200191508051906020019080838360005b83811015611c18578181015183820152602001611c00565b50505050905090810190601f168015611c455780820380516001836020036101000a031916815260200191505b5060408051601f19818403018152918152602082018051600160e060020a03167f8f6f033200000000000000000000000000000000000000000000000000000000178152905182519297509550859450925090508083835b60208310611cbc5780518252601f199092019160209182019101611c9d565b6001836020036101000a0380198251168184511680821785525050505050509050019150506000604051808303816000865af19150503d8060008114611d1e576040519150601f19603f3d011682016040523d82523d6000602084013e611d23565b606091505b5092509050808015611d36575060008251115b15611da357818060200190516020811015611d5057600080fd5b810190808051640100000000811115611d6857600080fd5b82016020810184811115611d7b57600080fd5b8151640100000000811182820187101715611d9557600080fd5b50909550611e0e9350505050565b600082511115611db7573d6000803e3d6000fd5b801515611e0e576040805160e560020a62461bcd02815260206004820152601a60248201527f424d3a2077616c6c657420696e766f6b65207265766572746564000000000000604482015290519081900360640190fd5b50949350505050565b600160a060020a0382166000908152600260205260408120548211611e3e575060006110fc565b7001000000000000000000000000000000006fffffffffffffffffffffffffffffffff198316044361271001811115611e7b5760009150506110fc565b5050600160a060020a0391909116600090815260026020526040902055600190565b6041808202830160208101516040820151919092015160009260ff9190911691601b831480611ecf57508260ff16601c145b1515611eda57600080fd5b604080516000815260208082018084528a905260ff8616828401526060820185905260808201849052915160019260a0808401939192601f1981019281900390910190855afa158015611f31573d6000803e3d6000fd5b5050604051601f1901519897505050505050505056fe524d3a207468652077616c6c657420617574686f72697a656420697320646966666572656e74207468656e2074686520746172676574206f66207468652072656c617965642064617461556e69737761703a205f6672616374696f6e206d7573742062652065787072657373656420696e203120706572203130303030556e69737761703a205468652074617267657420746f6b656e206973206e6f7420747261646564206f6e20556e6973776170424d3a206d75737420626520616e206f776e657220666f72207468652077616c6c6574556e69737761703a2074617267657420746f6b656e206973206e6f7420747261646564206f6e20556e6973776170a165627a7a72305820d58d9e33174e6025d313d097ee14ecc413661ced442414f0a36bdfb73b346cfe0029",
  "source": "pragma solidity ^0.5.4;\n\nimport \"../utils/SafeMath.sol\";\nimport \"../wallet/BaseWallet.sol\";\nimport \"./common/BaseModule.sol\";\nimport \"./common/RelayerModule.sol\";\nimport \"./common/OnlyOwnerModule.sol\";\nimport \"../defi/Invest.sol\";\n\ninterface UniswapFactory {\n    function getExchange(address _token) external view returns(address);\n}\n\ninterface UniswapExchange {\n    function getEthToTokenOutputPrice(uint256 _tokens_bought) external view returns (uint256);\n    function getEthToTokenInputPrice(uint256 _eth_sold) external view returns (uint256);\n    function getTokenToEthOutputPrice(uint256 _eth_bought) external view returns (uint256);\n    function getTokenToEthInputPrice(uint256 _tokens_sold) external view returns (uint256);\n}\n\n/**\n * @title UniswapInvestManager\n * @dev Module to invest tokens with Uniswap in order to earn an interest\n * @author Julien Niset - <julien@argent.xyz>\n */\ncontract UniswapManager is Invest, BaseModule, RelayerModule, OnlyOwnerModule {\n\n    bytes32 constant NAME = \"UniswapInvestManager\";\n\n    // The Uniswap Factory contract\n    UniswapFactory public uniswapFactory;\n\n    // Mock token address for ETH\n    address constant internal ETH_TOKEN_ADDRESS = 0xEeeeeEeeeEeEeeEeEeEeeEEEeeeeEeeeeeeeEEeE;\n\n    using SafeMath for uint256;\n\n    constructor(\n        ModuleRegistry _registry,\n        GuardianStorage _guardianStorage,\n        UniswapFactory _uniswapFactory\n    )\n        BaseModule(_registry, _guardianStorage, NAME)\n        public\n    {\n        uniswapFactory = _uniswapFactory;\n    }\n\n    /* ********************************** Implementation of Invest ************************************* */\n\n    /**\n     * @dev Invest tokens for a given period.\n     * @param _wallet The target wallet.\n     * @param _token The token address.\n     * @param _amount The amount of tokens to invest.\n     * @param _period The period over which the tokens may be locked in the investment (optional).\n     * @return The amount of tokens that have been invested. \n     */\n    function addInvestment(\n        BaseWallet _wallet, \n        address _token, \n        uint256 _amount, \n        uint256 _period\n    ) \n        external \n        onlyWalletOwner(_wallet)\n        onlyWhenUnlocked(_wallet)\n        returns (uint256 _invested)\n    {\n        _invested = addLiquidity(_wallet, _token, _amount);\n        emit InvestmentAdded(address(_wallet), _token, _amount, _period);\n    }\n\n    /**\n     * @dev Removes a fraction of the tokens from an investment.\n     * @param _wallet The target wallet.s\n     * @param _token The array of token address.\n     * @param _fraction The fraction of invested tokens to exit in per 10000. \n     */\n    function removeInvestment(\n        BaseWallet _wallet, \n        address _token, \n        uint256 _fraction\n    ) \n        external\n        onlyWalletOwner(_wallet)\n        onlyWhenUnlocked(_wallet)\n    {\n        require(_fraction <= 10000, \"Uniswap: _fraction must be expressed in 1 per 10000\");\n        removeLiquidity(_wallet, _token, _fraction);\n        emit InvestmentRemoved(address(_wallet), _token, _fraction);\n    }\n\n    /**\n     * @dev Get the amount of investment in a given token.\n     * @param _wallet The target wallet.\n     * @param _token The token address.\n     * @return The value in tokens of the investment (including interests) and the time at which the investment can be removed.\n     */\n    function getInvestment(\n        BaseWallet _wallet, \n        address _token\n    )\n        external\n        view\n        returns (uint256 _tokenValue, uint256 _periodEnd)\n    {\n        address tokenPool = uniswapFactory.getExchange(_token);\n        uint256 tokenPoolSize = ERC20(_token).balanceOf(tokenPool);\n        uint shares = ERC20(tokenPool).balanceOf(address(_wallet));\n        uint totalSupply = ERC20(tokenPool).totalSupply();\n        _tokenValue = shares.mul(tokenPoolSize).mul(2).div(totalSupply);\n        _periodEnd = 0;\n    }\n\n    /* ****************************************** Uniswap utilities ******************************************* */\n \n    /**\n     * @dev Adds liquidity to a Uniswap ETH-ERC20 pair.\n     * @param _wallet The target wallet\n     * @param _token The address of the ERC20 token of the pair.\n     * @param _amount The amount of tokens to add to the pool.\n     */\n    function addLiquidity(\n        BaseWallet _wallet,\n        address _token,\n        uint256 _amount\n    )\n        internal \n        returns (uint256)\n    {\n        require(_amount > 0, \"Uniswap: can't add 0 liquidity\");\n        address tokenPool = uniswapFactory.getExchange(_token);\n        require(tokenPool != address(0), \"Uniswap: target token is not traded on Uniswap\");\n\n        uint256 tokenBalance = ERC20(_token).balanceOf(address(_wallet));\n        if(_amount > tokenBalance) {\n            uint256 ethToSwap = UniswapExchange(tokenPool).getEthToTokenOutputPrice(_amount - tokenBalance);\n            require(ethToSwap <= address(_wallet).balance, \"Uniswap: not enough ETH to swap\");\n            invokeWallet(address(_wallet), tokenPool, ethToSwap, abi.encodeWithSignature(\"ethToTokenSwapOutput(uint256,uint256)\", _amount - tokenBalance, block.timestamp));\n        }\n\n        uint256 tokenLiquidity = ERC20(_token).balanceOf(tokenPool);\n        uint256 ethLiquidity = tokenPool.balance;\n        uint256 ethToPool = (_amount - 1).mul(ethLiquidity).div(tokenLiquidity);\n        require(ethToPool <= address(_wallet).balance, \"Uniswap: not enough ETH to pool\");\n        invokeWallet(address(_wallet), _token, 0, abi.encodeWithSignature(\"approve(address,uint256)\", tokenPool, _amount));\n        invokeWallet(address(_wallet), tokenPool, ethToPool, abi.encodeWithSignature(\"addLiquidity(uint256,uint256,uint256)\",1, _amount, block.timestamp + 1));\n        return _amount.mul(2);\n    }\n\n    /**\n     * @dev Removes liquidity from a Uniswap ETH-ERC20 pair.\n     * @param _wallet The target wallet\n     * @param _token The address of the ERC20 token of the pair.\n     * @param _fraction The fraction of pool shares to liquidate.\n     */\n    function removeLiquidity(\n        BaseWallet _wallet,\n        address _token,\n        uint256 _fraction\n    )\n        internal\n    {\n        address tokenPool = uniswapFactory.getExchange(_token);\n        require(tokenPool != address(0), \"Uniswap: The target token is not traded on Uniswap\");\n        uint256 shares = ERC20(tokenPool).balanceOf(address(_wallet));\n        invokeWallet(address(_wallet), tokenPool, 0, abi.encodeWithSignature(\"removeLiquidity(uint256,uint256,uint256,uint256)\", shares.mul(_fraction).div(10000), 1, 1, block.timestamp + 1));\n    }\n}\n\n",
  "sourcePath": "/home/amxx/Work/Argent/argent-contracts/contracts/modules/UniswapManager.sol",
  "compiler": {
    "name": "solc",
    "version": "0.5.4+commit.9549d8ff.Emscripten.clang",
    "optimizer": true,
    "runs": 200
  },
  "schemaVersion": "2.2.4",
  "updatedAt": "2020-02-29T16:28:22.568Z"
}