{
  "contractName": "WalletFactory",
  "abi": [
    {
      "constant": true,
      "inputs": [],
      "name": "getENSReverseRegistrar",
      "outputs": [
        {
          "name": "",
          "type": "address"
        }
      ],
      "payable": false,
      "stateMutability": "view",
      "type": "function"
    },
    {
      "constant": false,
      "inputs": [
        {
          "name": "_manager",
          "type": "address"
        }
      ],
      "name": "addManager",
      "outputs": [],
      "payable": false,
      "stateMutability": "nonpayable",
      "type": "function"
    },
    {
      "constant": true,
      "inputs": [],
      "name": "getENSRegistry",
      "outputs": [
        {
          "name": "",
          "type": "address"
        }
      ],
      "payable": false,
      "stateMutability": "view",
      "type": "function"
    },
    {
      "constant": false,
      "inputs": [
        {
          "name": "_manager",
          "type": "address"
        }
      ],
      "name": "revokeManager",
      "outputs": [],
      "payable": false,
      "stateMutability": "nonpayable",
      "type": "function"
    },
    {
      "constant": true,
      "inputs": [],
      "name": "ensManager",
      "outputs": [
        {
          "name": "",
          "type": "address"
        }
      ],
      "payable": false,
      "stateMutability": "view",
      "type": "function"
    },
    {
      "constant": true,
      "inputs": [],
      "name": "ADDR_REVERSE_NODE",
      "outputs": [
        {
          "name": "",
          "type": "bytes32"
        }
      ],
      "payable": false,
      "stateMutability": "view",
      "type": "function"
    },
    {
      "constant": true,
      "inputs": [],
      "name": "walletImplementation",
      "outputs": [
        {
          "name": "",
          "type": "address"
        }
      ],
      "payable": false,
      "stateMutability": "view",
      "type": "function"
    },
    {
      "constant": true,
      "inputs": [],
      "name": "owner",
      "outputs": [
        {
          "name": "",
          "type": "address"
        }
      ],
      "payable": false,
      "stateMutability": "view",
      "type": "function"
    },
    {
      "constant": true,
      "inputs": [
        {
          "name": "_node",
          "type": "bytes32"
        }
      ],
      "name": "resolveEns",
      "outputs": [
        {
          "name": "",
          "type": "address"
        }
      ],
      "payable": false,
      "stateMutability": "view",
      "type": "function"
    },
    {
      "constant": false,
      "inputs": [
        {
          "name": "_newOwner",
          "type": "address"
        }
      ],
      "name": "changeOwner",
      "outputs": [],
      "payable": false,
      "stateMutability": "nonpayable",
      "type": "function"
    },
    {
      "constant": true,
      "inputs": [],
      "name": "ensResolver",
      "outputs": [
        {
          "name": "",
          "type": "address"
        }
      ],
      "payable": false,
      "stateMutability": "view",
      "type": "function"
    },
    {
      "constant": true,
      "inputs": [],
      "name": "moduleRegistry",
      "outputs": [
        {
          "name": "",
          "type": "address"
        }
      ],
      "payable": false,
      "stateMutability": "view",
      "type": "function"
    },
    {
      "constant": true,
      "inputs": [
        {
          "name": "",
          "type": "address"
        }
      ],
      "name": "managers",
      "outputs": [
        {
          "name": "",
          "type": "bool"
        }
      ],
      "payable": false,
      "stateMutability": "view",
      "type": "function"
    },
    {
      "inputs": [
        {
          "name": "_ensRegistry",
          "type": "address"
        },
        {
          "name": "_moduleRegistry",
          "type": "address"
        },
        {
          "name": "_walletImplementation",
          "type": "address"
        },
        {
          "name": "_ensManager",
          "type": "address"
        },
        {
          "name": "_ensResolver",
          "type": "address"
        }
      ],
      "payable": false,
      "stateMutability": "nonpayable",
      "type": "constructor"
    },
    {
      "anonymous": false,
      "inputs": [
        {
          "indexed": false,
          "name": "addr",
          "type": "address"
        }
      ],
      "name": "ModuleRegistryChanged",
      "type": "event"
    },
    {
      "anonymous": false,
      "inputs": [
        {
          "indexed": false,
          "name": "addr",
          "type": "address"
        }
      ],
      "name": "WalletImplementationChanged",
      "type": "event"
    },
    {
      "anonymous": false,
      "inputs": [
        {
          "indexed": false,
          "name": "addr",
          "type": "address"
        }
      ],
      "name": "ENSManagerChanged",
      "type": "event"
    },
    {
      "anonymous": false,
      "inputs": [
        {
          "indexed": false,
          "name": "addr",
          "type": "address"
        }
      ],
      "name": "ENSResolverChanged",
      "type": "event"
    },
    {
      "anonymous": false,
      "inputs": [
        {
          "indexed": true,
          "name": "_wallet",
          "type": "address"
        },
        {
          "indexed": true,
          "name": "_owner",
          "type": "address"
        }
      ],
      "name": "WalletCreated",
      "type": "event"
    },
    {
      "anonymous": false,
      "inputs": [
        {
          "indexed": true,
          "name": "_manager",
          "type": "address"
        }
      ],
      "name": "ManagerAdded",
      "type": "event"
    },
    {
      "anonymous": false,
      "inputs": [
        {
          "indexed": true,
          "name": "_manager",
          "type": "address"
        }
      ],
      "name": "ManagerRevoked",
      "type": "event"
    },
    {
      "anonymous": false,
      "inputs": [
        {
          "indexed": true,
          "name": "_newOwner",
          "type": "address"
        }
      ],
      "name": "OwnerChanged",
      "type": "event"
    },
    {
      "constant": false,
      "inputs": [
        {
          "name": "_owner",
          "type": "address"
        },
        {
          "name": "_modules",
          "type": "address[]"
        },
        {
          "name": "_label",
          "type": "string"
        }
      ],
      "name": "createWallet",
      "outputs": [],
      "payable": false,
      "stateMutability": "nonpayable",
      "type": "function"
    },
    {
      "constant": false,
      "inputs": [
        {
          "name": "_moduleRegistry",
          "type": "address"
        }
      ],
      "name": "changeModuleRegistry",
      "outputs": [],
      "payable": false,
      "stateMutability": "nonpayable",
      "type": "function"
    },
    {
      "constant": false,
      "inputs": [
        {
          "name": "_walletImplementation",
          "type": "address"
        }
      ],
      "name": "changeWalletImplementation",
      "outputs": [],
      "payable": false,
      "stateMutability": "nonpayable",
      "type": "function"
    },
    {
      "constant": false,
      "inputs": [
        {
          "name": "_ensManager",
          "type": "address"
        }
      ],
      "name": "changeENSManager",
      "outputs": [],
      "payable": false,
      "stateMutability": "nonpayable",
      "type": "function"
    },
    {
      "constant": false,
      "inputs": [
        {
          "name": "_ensResolver",
          "type": "address"
        }
      ],
      "name": "changeENSResolver",
      "outputs": [],
      "payable": false,
      "stateMutability": "nonpayable",
      "type": "function"
    },
    {
      "constant": true,
      "inputs": [
        {
          "name": "_wallet",
          "type": "address"
        }
      ],
      "name": "init",
      "outputs": [],
      "payable": false,
      "stateMutability": "pure",
      "type": "function"
    }
  ],
  "bytecode": "0x608060405234801561001057600080fd5b5060405160a0806118ea833981018060405260a081101561003057600080fd5b50805160208201516040830151606084015160809094015160008054600160a060020a0319908116331790915560028054600160a060020a0396871690831617905560038054948616948216949094179093556004805492851692841692909217909155600580549484169483169490941790935560068054929093169116179055611829806100c16000396000f3fe608060405234801561001057600080fd5b50600436106101255760003560e060020a900480638da5cb5b116100b1578063aff1857511610075578063aff1857514610293578063b95459e414610365578063c799cd111461036d578063fb41999914610393578063fdff9b4d146103b957610125565b80638da5cb5b1461021a57806390ed991c146102225780639eb869c714610248578063a6f9dae114610265578063adce1c5f1461028b57610125565b80632f680795116100f85780632f680795146101c2578063377e32e6146101ca5780635a6971f9146101f05780637cf8a2eb146101f85780638117abc11461021257610125565b806308d668bc1461012a57806309d734421461015257806319ab453c146101765780632d06177a1461019c575b600080fd5b6101506004803603602081101561014057600080fd5b5035600160a060020a03166103f3565b005b61015a6104f2565b60408051600160a060020a039092168252519081900360200190f35b6101506004803603602081101561018c57600080fd5b5035600160a060020a0316610596565b610150600480360360208110156101b257600080fd5b5035600160a060020a0316610599565b61015a6106ba565b610150600480360360208110156101e057600080fd5b5035600160a060020a03166106c9565b61015a6107c2565b6102006107d1565b60408051918252519081900360200190f35b61015a6107f5565b61015a610804565b6101506004803603602081101561023857600080fd5b5035600160a060020a0316610813565b61015a6004803603602081101561025e57600080fd5b5035610912565b6101506004803603602081101561027b57600080fd5b5035600160a060020a0316610a26565b61015a610b2b565b610150600480360360608110156102a957600080fd5b600160a060020a0382351691908101906040810160208201356401000000008111156102d457600080fd5b8201836020820111156102e657600080fd5b8035906020019184602083028401116401000000008311171561030857600080fd5b91939092909160208101903564010000000081111561032657600080fd5b82018360208201111561033857600080fd5b8035906020019184600183028401116401000000008311171561035a57600080fd5b509092509050610b3a565b61015a61110e565b6101506004803603602081101561038357600080fd5b5035600160a060020a031661111d565b610150600480360360208110156103a957600080fd5b5035600160a060020a031661121c565b6103df600480360360208110156103cf57600080fd5b5035600160a060020a031661131b565b604080519115158252519081900360200190f35b600054600160a060020a03163314610443576040805160e560020a62461bcd02815260206004820152600d6024820152600080516020611795833981519152604482015290519081900360640190fd5b600160a060020a0381161515610491576040805160e560020a62461bcd02815260206004820152601a60248201526000805160206117de833981519152604482015290519081900360640190fd5b60038054600160a060020a03831673ffffffffffffffffffffffffffffffffffffffff19909116811790915560408051918252517f9bf4baeb20b6008af8dfd7fed5c50dce707a05623b022e5d61a00c7db7f90c729181900360200190a150565b60006104fc6106ba565b600160a060020a03166302571be37f91d1777781884d03a6757a803996e38de2a42967fb37eeaca72729271025a9e26001026040518263ffffffff1660e060020a0281526004018082815260200191505060206040518083038186803b15801561056557600080fd5b505afa158015610579573d6000803e3d6000fd5b505050506040513d602081101561058f57600080fd5b5051905090565b50565b600054600160a060020a031633146105e9576040805160e560020a62461bcd02815260206004820152600d6024820152600080516020611795833981519152604482015290519081900360640190fd5b600160a060020a0381161515610649576040805160e560020a62461bcd02815260206004820152601b60248201527f4d3a2041646472657373206d757374206e6f74206265206e756c6c0000000000604482015290519081900360640190fd5b600160a060020a03811660009081526001602052604090205460ff16151561059657600160a060020a0381166000818152600160208190526040808320805460ff1916909217909155517f3b4a40cccf2058c593542587329dd385be4f0b588db5471fbd9598e56dd7093a9190a250565b600254600160a060020a031690565b600054600160a060020a03163314610719576040805160e560020a62461bcd02815260206004820152600d6024820152600080516020611795833981519152604482015290519081900360640190fd5b600160a060020a03811660009081526001602081905260409091205460ff161515146107795760405160e560020a62461bcd0281526004018080602001828103825260258152602001806117466025913960400191505060405180910390fd5b600160a060020a038116600081815260016020526040808220805460ff19169055517fe5def11e0516f317f9c37b8835aec29fc01db4d4b6d6fecaca339d3596a29bc19190a250565b600554600160a060020a031681565b7f91d1777781884d03a6757a803996e38de2a42967fb37eeaca72729271025a9e281565b600454600160a060020a031681565b600054600160a060020a031681565b600054600160a060020a03163314610863576040805160e560020a62461bcd02815260206004820152600d6024820152600080516020611795833981519152604482015290519081900360640190fd5b600160a060020a03811615156108b1576040805160e560020a62461bcd02815260206004820152601a60248201526000805160206117de833981519152604482015290519081900360640190fd5b60058054600160a060020a03831673ffffffffffffffffffffffffffffffffffffffff19909116811790915560408051918252517f5b22021f5b1f5f8a744edb1f20f667875f22a1b29c4d9a46418ee25110c76cb89181900360200190a150565b60008061091d6106ba565b600160a060020a0316630178b8bf846040518263ffffffff1660e060020a0281526004018082815260200191505060206040518083038186803b15801561096357600080fd5b505afa158015610977573d6000803e3d6000fd5b505050506040513d602081101561098d57600080fd5b5051604080517f3b3b57de000000000000000000000000000000000000000000000000000000008152600481018690529051919250600160a060020a03831691633b3b57de91602480820192602092909190829003018186803b1580156109f357600080fd5b505afa158015610a07573d6000803e3d6000fd5b505050506040513d6020811015610a1d57600080fd5b50519392505050565b600054600160a060020a03163314610a76576040805160e560020a62461bcd02815260206004820152600d6024820152600080516020611795833981519152604482015290519081900360640190fd5b600160a060020a0381161515610ad6576040805160e560020a62461bcd02815260206004820152601860248201527f41646472657373206d757374206e6f74206265206e756c6c0000000000000000604482015290519081900360640190fd5b6000805473ffffffffffffffffffffffffffffffffffffffff1916600160a060020a038316908117825560405190917fa2ea9883a321a3e97b8266c2b078bfeec6d50c711ed71f874a90d500ae2eaf3691a250565b600654600160a060020a031681565b3360009081526001602081905260409091205460ff16151514610ba7576040805160e560020a62461bcd02815260206004820152601260248201527f4d3a204d757374206265206d616e616765720000000000000000000000000000604482015290519081900360640190fd5b600160a060020a0385161515610c07576040805160e560020a62461bcd02815260206004820152601860248201527f57463a206f776e65722063616e6e6f74206265206e756c6c0000000000000000604482015290519081900360640190fd5b60008311610c495760405160e560020a62461bcd0281526004018080602001828103825260298152602001806117b56029913960400191505060405180910390fd5b6003546040517f6bb18a5400000000000000000000000000000000000000000000000000000000815260206004820181815260248301879052600160a060020a0390931692636bb18a5492889288929182916044909101908590850280828437600083820152604051601f909101601f191690920195506020945090925050508083038186803b158015610cdc57600080fd5b505afa158015610cf0573d6000803e3d6000fd5b505050506040513d6020811015610d0657600080fd5b50511515610d485760405160e560020a62461bcd02815260040180806020018281038252602a81526020018061176b602a913960400191505060405180910390fd5b600454604051600091600160a060020a031690610d64906115f1565b600160a060020a03909116815260405190819003602001906000f080158015610d91573d6000803e3d6000fd5b5090506000819050606084848080601f016020809104026020016040519081016040528093929190818152602001838380828437600092019190915250508251929350509015905061101157604080516001880180825260208082028301019092526060918015610e0c578160200160208202803883390190505b50905030816000815181101515610e1f57fe5b600160a060020a0390921660209283029091019091015260005b87811015610e8d57888882818110610e4d57fe5b90506020020135600160a060020a03168282600101815181101515610e6e57fe5b600160a060020a03909216602092830290910190910152600101610e39565b50604080517f3c5a3cea000000000000000000000000000000000000000000000000000000008152600160a060020a038b8116600483019081526024830193845284516044840152845191871693633c5a3cea938e9387939291606401906020808601910280838360005b83811015610f10578181015183820152602001610ef8565b505050509050019350505050600060405180830381600087803b158015610f3657600080fd5b505af1158015610f4a573d6000803e3d6000fd5b50505050610f8e8387878080601f01602080910402602001604051908101604052809392919081815260200183838082843760009201919091525061133092505050565b604080517f1f17732d0000000000000000000000000000000000000000000000000000000081523060048201526000602482018190529151600160a060020a03861692631f17732d926044808201939182900301818387803b158015610ff357600080fd5b505af1158015611007573d6000803e3d6000fd5b50505050506110c4565b604080517f3c5a3cea000000000000000000000000000000000000000000000000000000008152600160a060020a038a81166004830190815260248301938452604483018a905290851692633c5a3cea928c928c928c92606401846020850280828437600081840152601f19601f820116905080830192505050945050505050600060405180830381600087803b1580156110ab57600080fd5b505af11580156110bf573d6000803e3d6000fd5b505050505b87600160a060020a031682600160a060020a03167f5b03bfed1c14a02bdeceb5fa582eb1a5765fc0bc64ca0e6af4c20afc9487f08160405160405180910390a35050505050505050565b600354600160a060020a031681565b600054600160a060020a0316331461116d576040805160e560020a62461bcd02815260206004820152600d6024820152600080516020611795833981519152604482015290519081900360640190fd5b600160a060020a03811615156111bb576040805160e560020a62461bcd02815260206004820152601a60248201526000805160206117de833981519152604482015290519081900360640190fd5b60048054600160a060020a03831673ffffffffffffffffffffffffffffffffffffffff19909116811790915560408051918252517f06b03978f7966b1fbddfcf29d0c63594e116380be51c99e25506cbc85d5bb1a19181900360200190a150565b600054600160a060020a0316331461126c576040805160e560020a62461bcd02815260206004820152600d6024820152600080516020611795833981519152604482015290519081900360640190fd5b600160a060020a03811615156112ba576040805160e560020a62461bcd02815260206004820152601a60248201526000805160206117de833981519152604482015290519081900360640190fd5b60068054600160a060020a03831673ffffffffffffffffffffffffffffffffffffffff19909116811790915560408051918252517f8bd878c65101d815c50829c7b19270ff5c19e91bd1ad6ebaa282c4a65a5baa5f9181900360200190a150565b60016020526000908152604090205460ff1681565b60055460065460408051600160a060020a03938416602482015291831660448084019190915281518084039091018152606490920190526020810180517bffffffffffffffffffffffffffffffffffffffffffffffffffffffff167f0f5a546600000000000000000000000000000000000000000000000000000000179052908316638f6f03326113bf6104f2565b6000846040518463ffffffff1660e060020a0281526004018084600160a060020a0316600160a060020a0316815260200183815260200180602001828103825283818151815260200191508051906020019080838360005b8381101561142f578181015183820152602001611417565b50505050905090810190601f16801561145c5780820380516001836020036101000a031916815260200191505b50945050505050600060405180830381600087803b15801561147d57600080fd5b505af1158015611491573d6000803e3d6000fd5b505050506040513d6000823e601f3d908101601f1916820160405260208110156114ba57600080fd5b8101908080516401000000008111156114d257600080fd5b820160208101848111156114e557600080fd5b81516401000000008111828201871017156114ff57600080fd5b5050600554604080517f1e59c529000000000000000000000000000000000000000000000000000000008152600160a060020a038a811660248301526004820192835289516044830152895193169650631e59c52995508894508993509091829160640190602086019080838360005b8381101561158757818101518382015260200161156f565b50505050905090810190601f1680156115b45780820380516001836020036101000a031916815260200191505b509350505050600060405180830381600087803b1580156115d457600080fd5b505af11580156115e8573d6000803e3d6000fd5b50505050505050565b610147806115ff8339019056fe608060405234801561001057600080fd5b506040516020806101478339810180604052602081101561003057600080fd5b505160008054600160a060020a03909216600160a060020a031990921691909117905560e6806100616000396000f3fe60806040523615801560115750600034115b156092573373ffffffffffffffffffffffffffffffffffffffff16347f606834f57405380c4fb88d1f4850326ad3885f014bab3b568dfbf7a041eef73860003660405180806020018281038252848482818152602001925080828437600083820152604051601f909101601f19169092018290039550909350505050a360b8565b6000543660008037600080366000845af43d6000803e80801560b3573d6000f35b3d6000fd5b00fea165627a7a72305820d07f74104693db799964632dc369747357797a9deb1708dcc62b4c9d0d19639500294d3a20546172676574206d75737420626520616e206578697374696e67206d616e6167657257463a206f6e65206f72206d6f7265206d6f64756c657320617265206e6f7420726567697374657265644d757374206265206f776e65720000000000000000000000000000000000000057463a2063616e6e6f742061737369676e2077697468206c657373207468616e2031206d6f64756c6557463a20616464726573732063616e6e6f74206265206e756c6c000000000000a165627a7a72305820a53bb40a9d19d08fb7aeb88b90a786854d6de551a61b00557aaea6aca6856ce20029",
  "source": "pragma solidity ^0.5.4;\nimport \"./Proxy.sol\";\nimport \"./BaseWallet.sol\";\nimport \"../base/Owned.sol\";\nimport \"../base/Managed.sol\";\nimport \"../ens/ENSConsumer.sol\";\nimport \"../ens/ArgentENSManager.sol\";\nimport \"../upgrade/ModuleRegistry.sol\";\n\n/**\n * @title WalletFactory\n * @dev The WalletFactory contract creates and assigns wallets to accounts.\n * @author Julien Niset - <julien@argent.im>\n */\ncontract WalletFactory is Owned, Managed, ENSConsumer {\n\n    // The address of the module dregistry\n    address public moduleRegistry;\n    // The address of the base wallet implementation\n    address public walletImplementation;\n    // The address of the ENS manager\n    address public ensManager;\n    // The address of the ENS resolver\n    address public ensResolver;\n\n    // *************** Events *************************** //\n\n    event ModuleRegistryChanged(address addr);\n    event WalletImplementationChanged(address addr);\n    event ENSManagerChanged(address addr);\n    event ENSResolverChanged(address addr);\n    event WalletCreated(address indexed _wallet, address indexed _owner);\n\n    // *************** Constructor ********************** //\n\n    /**\n     * @dev Default constructor.\n     */\n    constructor(\n        address _ensRegistry, \n        address _moduleRegistry,\n        address _walletImplementation, \n        address _ensManager, \n        address _ensResolver\n    ) \n        ENSConsumer(_ensRegistry) \n        public \n    {\n        moduleRegistry = _moduleRegistry;\n        walletImplementation = _walletImplementation;\n        ensManager = _ensManager;\n        ensResolver = _ensResolver;\n    }\n\n    // *************** External Functions ********************* //\n\n    /**\n     * @dev Lets the manager create a wallet for an account. The wallet is initialised with a list of modules.\n     * @param _owner The account address.\n     * @param _modules The list of modules.\n     * @param _label Optional ENS label of the new wallet (e.g. franck).\n     */\n    function createWallet(address _owner, address[] calldata _modules, string calldata _label) external onlyManager {\n        require(_owner != address(0), \"WF: owner cannot be null\");\n        require(_modules.length > 0, \"WF: cannot assign with less than 1 module\");\n        require(ModuleRegistry(moduleRegistry).isRegisteredModule(_modules), \"WF: one or more modules are not registered\");\n        // create the proxy\n        Proxy proxy = new Proxy(walletImplementation);\n        address payable wallet = address(proxy);\n        // check for ENS\n        bytes memory labelBytes = bytes(_label);\n        if (labelBytes.length != 0) {\n            // add the factory to the modules so it can claim the reverse ENS\n            address[] memory extendedModules = new address[](_modules.length + 1);\n            extendedModules[0] = address(this);\n            for(uint i = 0; i < _modules.length; i++) {\n                extendedModules[i + 1] = _modules[i];\n            }\n            // initialise the wallet with the owner and the extended modules\n            BaseWallet(wallet).init(_owner, extendedModules);\n            // register ENS\n            registerWalletENS(wallet, _label);\n            // remove the factory from the authorised modules\n            BaseWallet(wallet).authoriseModule(address(this), false);\n        } else {\n            // initialise the wallet with the owner and the modules\n            BaseWallet(wallet).init(_owner, _modules);\n        }\n        emit WalletCreated(wallet, _owner);\n    }\n\n    /**\n     * @dev Lets the owner change the address of the module registry contract.\n     * @param _moduleRegistry The address of the module registry contract.\n     */\n    function changeModuleRegistry(address _moduleRegistry) external onlyOwner {\n        require(_moduleRegistry != address(0), \"WF: address cannot be null\");\n        moduleRegistry = _moduleRegistry;\n        emit ModuleRegistryChanged(_moduleRegistry);\n    }\n\n    /**\n     * @dev Lets the owner change the address of the implementing contract.\n     * @param _walletImplementation The address of the implementing contract.\n     */\n    function changeWalletImplementation(address _walletImplementation) external onlyOwner {\n        require(_walletImplementation != address(0), \"WF: address cannot be null\");\n        walletImplementation = _walletImplementation;\n        emit WalletImplementationChanged(_walletImplementation);\n    }\n\n    /**\n     * @dev Lets the owner change the address of the ENS manager contract.\n     * @param _ensManager The address of the ENS manager contract.\n     */\n    function changeENSManager(address _ensManager) external onlyOwner {\n        require(_ensManager != address(0), \"WF: address cannot be null\");\n        ensManager = _ensManager;\n        emit ENSManagerChanged(_ensManager);\n    }\n\n    /**\n     * @dev Lets the owner change the address of the ENS resolver contract.\n     * @param _ensResolver The address of the ENS resolver contract.\n     */\n    function changeENSResolver(address _ensResolver) external onlyOwner {\n        require(_ensResolver != address(0), \"WF: address cannot be null\");\n        ensResolver = _ensResolver;\n        emit ENSResolverChanged(_ensResolver);\n    }\n\n    /**\n     * @dev Register an ENS subname to a wallet.\n     * @param _wallet The wallet address.\n     * @param _label ENS label of the new wallet (e.g. franck).\n     */\n    function registerWalletENS(address payable _wallet, string memory _label) internal {\n        // claim reverse\n        bytes memory methodData = abi.encodeWithSignature(\"claimWithResolver(address,address)\", ensManager, ensResolver);\n        BaseWallet(_wallet).invoke(address(getENSReverseRegistrar()), 0, methodData);\n        // register with ENS manager\n        IENSManager(ensManager).register(_label, _wallet);\n    }\n\n    /**\n     * @dev Inits the module for a wallet by logging an event.\n     * The method can only be called by the wallet itself.\n     * @param _wallet The wallet.\n     */\n    function init(BaseWallet _wallet) external pure {\n        //do nothing\n    }\n}\n",
  "sourcePath": "/home/amxx/Work/Argent/argent-contracts/contracts/wallet/WalletFactory.sol",
  "compiler": {
    "name": "solc",
    "version": "0.5.4+commit.9549d8ff.Emscripten.clang",
    "optimizer": true,
    "runs": 200
  },
  "schemaVersion": "2.2.4",
  "updatedAt": "2020-02-29T16:28:22.670Z"
}