{
  "contractName": "WhitePaperInterestRateModel",
  "abi": [
    {
      "constant": true,
      "inputs": [],
      "name": "multiplier",
      "outputs": [
        {
          "name": "",
          "type": "uint256"
        }
      ],
      "payable": false,
      "stateMutability": "view",
      "type": "function"
    },
    {
      "constant": true,
      "inputs": [],
      "name": "baseRate",
      "outputs": [
        {
          "name": "",
          "type": "uint256"
        }
      ],
      "payable": false,
      "stateMutability": "view",
      "type": "function"
    },
    {
      "constant": true,
      "inputs": [],
      "name": "isInterestRateModel",
      "outputs": [
        {
          "name": "",
          "type": "bool"
        }
      ],
      "payable": false,
      "stateMutability": "view",
      "type": "function"
    },
    {
      "constant": true,
      "inputs": [],
      "name": "blocksPerYear",
      "outputs": [
        {
          "name": "",
          "type": "uint256"
        }
      ],
      "payable": false,
      "stateMutability": "view",
      "type": "function"
    },
    {
      "inputs": [
        {
          "name": "baseRate_",
          "type": "uint256"
        },
        {
          "name": "multiplier_",
          "type": "uint256"
        }
      ],
      "payable": false,
      "stateMutability": "nonpayable",
      "type": "constructor"
    },
    {
      "constant": true,
      "inputs": [
        {
          "name": "cash",
          "type": "uint256"
        },
        {
          "name": "borrows",
          "type": "uint256"
        },
        {
          "name": "_reserves",
          "type": "uint256"
        }
      ],
      "name": "getBorrowRate",
      "outputs": [
        {
          "name": "",
          "type": "uint256"
        },
        {
          "name": "",
          "type": "uint256"
        }
      ],
      "payable": false,
      "stateMutability": "view",
      "type": "function"
    }
  ],
  "bytecode": "0x608060405234801561001057600080fd5b506040516040806106898339810180604052604081101561003057600080fd5b508051602090910151600191909155600055610638806100516000396000f3fe608060405234801561001057600080fd5b5060043610610073577c0100000000000000000000000000000000000000000000000000000000600035046315f2405381146100785780631b3ed722146100ba5780631f68f20a146100d45780632191f92a146100dc578063a385fb96146100f8575b600080fd5b6100a16004803603606081101561008e57600080fd5b5080359060208101359060400135610100565b6040805192835260208301919091528051918290030190f35b6100c2610199565b60408051918252519081900360200190f35b6100c261019f565b6100e46101a5565b604080519115158252519081900360200190f35b6100c26101aa565b600080600061010d6105fa565b6101156105fa565b61011f88886101b1565b91945092509050600083600481111561013457fe5b146101545782600481111561014557fe5b94506000935061019192505050565b600061015e6105fa565b61016b836220148061032f565b9092509050600082600381111561017e57fe5b1461018557fe5b51600096509450505050505b935093915050565b60005481565b60015481565b600181565b6220148081565b60006101bb6105fa565b6101c36105fa565b60006101cd6105fa565b6101d78787610399565b909250905060008260048111156101ea57fe5b1461021857506040805160208181018352600080835283519182019093529182529194509092509050610328565b60006102226105fa565b61022e8360005461045d565b9092509050600082600381111561024157fe5b146102735750506040805160208181018352600080835283519182019093529182526003965094509250610328915050565b600061027d6105fa565b61028f83670de0b6b3a764000061032f565b909250905060008260038111156102a257fe5b146102a957fe5b60006102b36105fa565b6102ce83602060405190810160405280600154815250610478565b909250905060008260038111156102e157fe5b1461031757505060408051602081810183526000808352835191820190935291825260049a509850965061032895505050505050565b60009a509598509496505050505050505b9250925092565b60006103396105fa565b60008061034a8660000151866104b2565b9092509050600082600381111561035d57fe5b1461037c57506040805160208101909152600081529092509050610392565b6040805160208101909152908152600093509150505b9250929050565b60006103a36105fa565b8215156103c25750506040805160208101909152600080825290610392565b6000806103cf86866104e1565b909250905060008260038111156103e257fe5b14610403575050604080516020810190915260008152600192509050610392565b600061040d6105fa565b6104178784610507565b9092509050600082600381111561042a57fe5b1461044e575050604080516020810190915260008152600294509250610392915050565b60009890975095505050505050565b60006104676105fa565b60008061034a8660000151866105b7565b60006104826105fa565b600080610497866000015186600001516104e1565b60408051602081019091529081529097909650945050505050565b6000808215156104c85750600190506000610392565b600083858115156104d557fe5b04915091509250929050565b6000808383018481106104f957600092509050610392565b506002915060009050610392565b60006105116105fa565b60008061052686670de0b6b3a76400006105b7565b9092509050600082600381111561053957fe5b1461055857506040805160208101909152600081529092509050610392565b60008061056583886104b2565b9092509050600082600381111561057857fe5b1461059a57506040805160208101909152600081529094509250610392915050565b604080516020810190915290815260009890975095505050505050565b6000808315156105cc57506000905080610392565b8383028385828115156105db57fe5b04146105ef57506002915060009050610392565b600092509050610392565b6040805160208101909152600081529056fea165627a7a7230582084d9e940acede709c5803e194868b01cf96568ef55536d59e3673b04e17e270a0029",
  "source": "pragma solidity ^0.5.4;\n\nimport \"./Exponential.sol\";\nimport \"./InterestRateModel.sol\";\n\n/**\n  * @title The Compound Standard Interest Rate Model with pluggable constants\n  * @author Compound\n  * @notice See Section 2.4 of the Compound Whitepaper\n  */\ncontract WhitePaperInterestRateModel is InterestRateModel, Exponential {\n    /**\n     * @notice Indicator that this is an InterestRateModel contract (for inspection)\n     */\n    bool public constant isInterestRateModel = true;\n\n    /**\n     * @notice The multiplier of utilization rate that gives the slope of the interest rate\n     */\n    uint public multiplier;\n\n    /**\n     * @notice The base interest rate which is the y-intercept when utilization rate is 0\n     */\n    uint public baseRate;\n\n    /**\n     * @notice The approximate number of blocks per year that is assumed by the interest rate model\n     */\n    uint public constant blocksPerYear = 2102400;\n\n    constructor(uint baseRate_, uint multiplier_) public {\n        baseRate = baseRate_;\n        multiplier = multiplier_;\n    }\n\n    enum IRError {\n        NO_ERROR,\n        FAILED_TO_ADD_CASH_PLUS_BORROWS,\n        FAILED_TO_GET_EXP,\n        FAILED_TO_MUL_UTILIZATION_RATE,\n        FAILED_TO_ADD_BASE_RATE\n    }\n\n    /*\n     * @dev Calculates the utilization rate (borrows / (cash + borrows)) as an Exp\n     */\n    function getUtilizationRate(uint cash, uint borrows) pure internal returns (IRError, Exp memory) {\n        if (borrows == 0) {\n            // Utilization rate is zero when there's no borrows\n            return (IRError.NO_ERROR, Exp({mantissa: 0}));\n        }\n\n        (MathError err0, uint cashPlusBorrows) = addUInt(cash, borrows);\n        if (err0 != MathError.NO_ERROR) {\n            return (IRError.FAILED_TO_ADD_CASH_PLUS_BORROWS, Exp({mantissa: 0}));\n        }\n\n        (MathError err1, Exp memory utilizationRate) = getExp(borrows, cashPlusBorrows);\n        if (err1 != MathError.NO_ERROR) {\n            return (IRError.FAILED_TO_GET_EXP, Exp({mantissa: 0}));\n        }\n\n        return (IRError.NO_ERROR, utilizationRate);\n    }\n\n    /*\n     * @dev Calculates the utilization and borrow rates for use by getBorrowRate function\n     */\n    function getUtilizationAndAnnualBorrowRate(uint cash, uint borrows) view internal returns (IRError, Exp memory, Exp memory) {\n        (IRError err0, Exp memory utilizationRate) = getUtilizationRate(cash, borrows);\n        if (err0 != IRError.NO_ERROR) {\n            return (err0, Exp({mantissa: 0}), Exp({mantissa: 0}));\n        }\n\n        // Borrow Rate is 5% + UtilizationRate * 45% (baseRate + UtilizationRate * multiplier);\n        // 45% of utilizationRate, is `rate * 45 / 100`\n        (MathError err1, Exp memory utilizationRateMuled) = mulScalar(utilizationRate, multiplier);\n        // `mulScalar` only overflows when the product is >= 2^256.\n        // utilizationRate is a real number on the interval [0,1], which means that\n        // utilizationRate.mantissa is in the interval [0e18,1e18], which means that 45 times\n        // that is in the interval [0e18,45e18]. That interval has no intersection with 2^256, and therefore\n        // this can never overflow for the standard rates.\n        if (err1 != MathError.NO_ERROR) {\n            return (IRError.FAILED_TO_MUL_UTILIZATION_RATE, Exp({mantissa: 0}), Exp({mantissa: 0}));\n        }\n\n        (MathError err2, Exp memory utilizationRateScaled) = divScalar(utilizationRateMuled, mantissaOne);\n        // 100 is a constant, and therefore cannot be zero, which is the only error case of divScalar.\n        assert(err2 == MathError.NO_ERROR);\n\n        // Add the 5% for (5% + 45% * Ua)\n        (MathError err3, Exp memory annualBorrowRate) = addExp(utilizationRateScaled, Exp({mantissa: baseRate}));\n        // `addExp` only fails when the addition of mantissas overflow.\n        // As per above, utilizationRateMuled is capped at 45e18,\n        // and utilizationRateScaled is capped at 4.5e17. mantissaFivePercent = 0.5e17, and thus the addition\n        // is capped at 5e17, which is less than 2^256. This only applies to the standard rates\n        if (err3 != MathError.NO_ERROR) {\n            return (IRError.FAILED_TO_ADD_BASE_RATE, Exp({mantissa: 0}), Exp({mantissa: 0}));\n        }\n\n        return (IRError.NO_ERROR, utilizationRate, annualBorrowRate);\n    }\n\n    /**\n      * @notice Gets the current borrow interest rate based on the given asset, total cash, total borrows\n      *         and total reserves.\n      * @dev The return value should be scaled by 1e18, thus a return value of\n      *      `(true, 1000000000000)` implies an interest rate of 0.000001 or 0.0001% *per block*.\n      * @param cash The total cash of the underlying asset in the CToken\n      * @param borrows The total borrows of the underlying asset in the CToken\n      * @param _reserves The total reserves of the underlying asset in the CToken\n      * @return Success or failure and the borrow interest rate per block scaled by 10e18\n      */\n    function getBorrowRate(uint cash, uint borrows, uint _reserves) public view returns (uint, uint) {\n        _reserves; // pragma ignore unused argument\n\n        (IRError err0, Exp memory _utilizationRate, Exp memory annualBorrowRate) = getUtilizationAndAnnualBorrowRate(cash, borrows);\n        if (err0 != IRError.NO_ERROR) {\n            return (uint(err0), 0);\n        }\n\n        // And then divide down by blocks per year.\n        (MathError err1, Exp memory borrowRate) = divScalar(annualBorrowRate, blocksPerYear); // basis points * blocks per year\n        // divScalar only fails when divisor is zero. This is clearly not the case.\n        assert(err1 == MathError.NO_ERROR);\n\n        _utilizationRate; // pragma ignore unused variable\n\n        // Note: mantissa is the rate scaled 1e18, which matches the expected result\n        return (uint(IRError.NO_ERROR), borrowRate.mantissa);\n    }\n}\n",
  "sourcePath": "/home/amxx/Work/Argent/argent-contracts/contracts/test/compound/WhitePaperInterestRateModel.sol",
  "compiler": {
    "name": "solc",
    "version": "0.5.4+commit.9549d8ff.Emscripten.clang",
    "optimizer": true,
    "runs": 200
  },
  "schemaVersion": "2.2.4",
  "updatedAt": "2020-02-29T16:28:22.626Z"
}